{
  "address": "0xa513E6E4b8f2a923D98304ec87F64353C4D5C853",
  "abi": [
    {
      "inputs": [
        {
          "internalType": "address",
          "name": "_userIdentityNFT",
          "type": "address"
        },
        {
          "internalType": "string",
          "name": "name",
          "type": "string"
        },
        {
          "internalType": "string",
          "name": "symbol",
          "type": "string"
        },
        {
          "internalType": "string",
          "name": "signingDomain",
          "type": "string"
        },
        {
          "internalType": "string",
          "name": "signatureVersion",
          "type": "string"
        }
      ],
      "stateMutability": "nonpayable",
      "type": "constructor"
    },
    {
      "inputs": [
        {
          "internalType": "address",
          "name": "creator",
          "type": "address"
        }
      ],
      "name": "DocumentSignature__CreatorIdentityNotExit",
      "type": "error"
    },
    {
      "inputs": [
        {
          "internalType": "uint256",
          "name": "tokeId",
          "type": "uint256"
        }
      ],
      "name": "DocumentSignature__InValidSignature",
      "type": "error"
    },
    {
      "inputs": [],
      "name": "DocumentSignature__InvalidSignatureArrayLength",
      "type": "error"
    },
    {
      "inputs": [],
      "name": "DocumentSignature__NotProcessBecauseNotInQueue",
      "type": "error"
    },
    {
      "inputs": [],
      "name": "DocumentSignature__OnlyOwnerCanCall",
      "type": "error"
    },
    {
      "inputs": [
        {
          "internalType": "uint64",
          "name": "start",
          "type": "uint64"
        },
        {
          "internalType": "uint64",
          "name": "end",
          "type": "uint64"
        }
      ],
      "name": "DocumentSignature__StartingAndEndingValuesNotSome",
      "type": "error"
    },
    {
      "inputs": [],
      "name": "DocumentSignature__UserNotExist",
      "type": "error"
    },
    {
      "anonymous": false,
      "inputs": [
        {
          "indexed": true,
          "internalType": "address",
          "name": "owner",
          "type": "address"
        },
        {
          "indexed": true,
          "internalType": "address",
          "name": "approved",
          "type": "address"
        },
        {
          "indexed": true,
          "internalType": "uint256",
          "name": "tokenId",
          "type": "uint256"
        }
      ],
      "name": "Approval",
      "type": "event"
    },
    {
      "anonymous": false,
      "inputs": [
        {
          "indexed": true,
          "internalType": "address",
          "name": "owner",
          "type": "address"
        },
        {
          "indexed": true,
          "internalType": "address",
          "name": "operator",
          "type": "address"
        },
        {
          "indexed": false,
          "internalType": "bool",
          "name": "approved",
          "type": "bool"
        }
      ],
      "name": "ApprovalForAll",
      "type": "event"
    },
    {
      "anonymous": false,
      "inputs": [
        {
          "indexed": true,
          "internalType": "uint256",
          "name": "documentId",
          "type": "uint256"
        },
        {
          "indexed": true,
          "internalType": "bool",
          "name": "isValidation",
          "type": "bool"
        }
      ],
      "name": "DocumentProcess",
      "type": "event"
    },
    {
      "anonymous": false,
      "inputs": [
        {
          "indexed": true,
          "internalType": "uint256",
          "name": "documentId",
          "type": "uint256"
        },
        {
          "indexed": true,
          "internalType": "uint256",
          "name": "tokenId",
          "type": "uint256"
        },
        {
          "indexed": true,
          "internalType": "address",
          "name": "creator",
          "type": "address"
        }
      ],
      "name": "DocumentedCrearted",
      "type": "event"
    },
    {
      "anonymous": false,
      "inputs": [
        {
          "indexed": true,
          "internalType": "address",
          "name": "previousOwner",
          "type": "address"
        },
        {
          "indexed": true,
          "internalType": "address",
          "name": "newOwner",
          "type": "address"
        }
      ],
      "name": "OwnershipTransferred",
      "type": "event"
    },
    {
      "anonymous": false,
      "inputs": [
        {
          "indexed": true,
          "internalType": "address",
          "name": "from",
          "type": "address"
        },
        {
          "indexed": true,
          "internalType": "address",
          "name": "to",
          "type": "address"
        },
        {
          "indexed": true,
          "internalType": "uint256",
          "name": "tokenId",
          "type": "uint256"
        }
      ],
      "name": "Transfer",
      "type": "event"
    },
    {
      "inputs": [],
      "name": "CAST_VOTE",
      "outputs": [
        {
          "internalType": "bytes32",
          "name": "",
          "type": "bytes32"
        }
      ],
      "stateMutability": "view",
      "type": "function"
    },
    {
      "inputs": [
        {
          "internalType": "address",
          "name": "to",
          "type": "address"
        },
        {
          "internalType": "uint256",
          "name": "tokenId",
          "type": "uint256"
        }
      ],
      "name": "approve",
      "outputs": [],
      "stateMutability": "nonpayable",
      "type": "function"
    },
    {
      "inputs": [
        {
          "internalType": "address",
          "name": "owner",
          "type": "address"
        }
      ],
      "name": "balanceOf",
      "outputs": [
        {
          "internalType": "uint256",
          "name": "",
          "type": "uint256"
        }
      ],
      "stateMutability": "view",
      "type": "function"
    },
    {
      "inputs": [
        {
          "internalType": "uint256",
          "name": "documentId",
          "type": "uint256"
        }
      ],
      "name": "checkMyCastedVote",
      "outputs": [
        {
          "internalType": "enum IDocumentSignature.SignatureStatus",
          "name": "",
          "type": "uint8"
        }
      ],
      "stateMutability": "view",
      "type": "function"
    },
    {
      "inputs": [
        {
          "internalType": "bytes",
          "name": "name",
          "type": "bytes"
        },
        {
          "internalType": "bytes",
          "name": "description",
          "type": "bytes"
        },
        {
          "internalType": "string",
          "name": "uri",
          "type": "string"
        },
        {
          "internalType": "uint64",
          "name": "signatureStartingPeriod",
          "type": "uint64"
        },
        {
          "internalType": "uint64",
          "name": "signatureEndingingPeriod",
          "type": "uint64"
        },
        {
          "internalType": "uint256[]",
          "name": "partiesTokenId",
          "type": "uint256[]"
        }
      ],
      "name": "createDocument",
      "outputs": [],
      "stateMutability": "nonpayable",
      "type": "function"
    },
    {
      "inputs": [
        {
          "internalType": "uint256",
          "name": "tokenId",
          "type": "uint256"
        }
      ],
      "name": "getApproved",
      "outputs": [
        {
          "internalType": "address",
          "name": "",
          "type": "address"
        }
      ],
      "stateMutability": "view",
      "type": "function"
    },
    {
      "inputs": [],
      "name": "getCurrentTime",
      "outputs": [
        {
          "internalType": "uint256",
          "name": "",
          "type": "uint256"
        }
      ],
      "stateMutability": "view",
      "type": "function"
    },
    {
      "inputs": [
        {
          "internalType": "uint256",
          "name": "documentId",
          "type": "uint256"
        }
      ],
      "name": "getDocumentDetails",
      "outputs": [
        {
          "components": [
            {
              "internalType": "address",
              "name": "creator",
              "type": "address"
            },
            {
              "internalType": "bytes",
              "name": "name",
              "type": "bytes"
            },
            {
              "internalType": "uint256",
              "name": "tokenId",
              "type": "uint256"
            },
            {
              "internalType": "bytes",
              "name": "description",
              "type": "bytes"
            },
            {
              "components": [
                {
                  "internalType": "uint256",
                  "name": "tokenId",
                  "type": "uint256"
                },
                {
                  "internalType": "enum IDocumentSignature.SignatureStatus",
                  "name": "status",
                  "type": "uint8"
                }
              ],
              "internalType": "struct IDocumentSignature.Party[]",
              "name": "parties",
              "type": "tuple[]"
            },
            {
              "internalType": "enum IDocumentSignature.DocumentState",
              "name": "status",
              "type": "uint8"
            },
            {
              "internalType": "uint64",
              "name": "signatureStart",
              "type": "uint64"
            },
            {
              "internalType": "uint64",
              "name": "signatureEnd",
              "type": "uint64"
            }
          ],
          "internalType": "struct IDocumentSignature.DocumentDetials",
          "name": "",
          "type": "tuple"
        }
      ],
      "stateMutability": "view",
      "type": "function"
    },
    {
      "inputs": [
        {
          "internalType": "uint256",
          "name": "documentId",
          "type": "uint256"
        }
      ],
      "name": "getDocumentEndingingTime",
      "outputs": [
        {
          "internalType": "uint256",
          "name": "",
          "type": "uint256"
        }
      ],
      "stateMutability": "view",
      "type": "function"
    },
    {
      "inputs": [
        {
          "internalType": "uint256",
          "name": "tokenId",
          "type": "uint256"
        },
        {
          "internalType": "bytes",
          "name": "name",
          "type": "bytes"
        },
        {
          "internalType": "bytes",
          "name": "description",
          "type": "bytes"
        },
        {
          "internalType": "uint256[]",
          "name": "partiesTokenId",
          "type": "uint256[]"
        }
      ],
      "name": "getDocumentId",
      "outputs": [
        {
          "internalType": "uint256",
          "name": "",
          "type": "uint256"
        }
      ],
      "stateMutability": "pure",
      "type": "function"
    },
    {
      "inputs": [
        {
          "internalType": "uint256",
          "name": "documentId",
          "type": "uint256"
        }
      ],
      "name": "getDocumentStartingTime",
      "outputs": [
        {
          "internalType": "uint256",
          "name": "",
          "type": "uint256"
        }
      ],
      "stateMutability": "view",
      "type": "function"
    },
    {
      "inputs": [
        {
          "internalType": "uint256",
          "name": "documentId",
          "type": "uint256"
        }
      ],
      "name": "getStatus",
      "outputs": [
        {
          "internalType": "enum IDocumentSignature.DocumentState",
          "name": "",
          "type": "uint8"
        }
      ],
      "stateMutability": "view",
      "type": "function"
    },
    {
      "inputs": [
        {
          "internalType": "address",
          "name": "owner",
          "type": "address"
        },
        {
          "internalType": "address",
          "name": "operator",
          "type": "address"
        }
      ],
      "name": "isApprovedForAll",
      "outputs": [
        {
          "internalType": "bool",
          "name": "",
          "type": "bool"
        }
      ],
      "stateMutability": "view",
      "type": "function"
    },
    {
      "inputs": [],
      "name": "name",
      "outputs": [
        {
          "internalType": "string",
          "name": "",
          "type": "string"
        }
      ],
      "stateMutability": "view",
      "type": "function"
    },
    {
      "inputs": [],
      "name": "owner",
      "outputs": [
        {
          "internalType": "address",
          "name": "",
          "type": "address"
        }
      ],
      "stateMutability": "view",
      "type": "function"
    },
    {
      "inputs": [
        {
          "internalType": "uint256",
          "name": "tokenId",
          "type": "uint256"
        }
      ],
      "name": "ownerOf",
      "outputs": [
        {
          "internalType": "address",
          "name": "",
          "type": "address"
        }
      ],
      "stateMutability": "view",
      "type": "function"
    },
    {
      "inputs": [
        {
          "internalType": "uint256",
          "name": "documentId",
          "type": "uint256"
        },
        {
          "internalType": "bytes[]",
          "name": "signatures",
          "type": "bytes[]"
        },
        {
          "internalType": "bool",
          "name": "isValidation",
          "type": "bool"
        }
      ],
      "name": "processDocument",
      "outputs": [],
      "stateMutability": "nonpayable",
      "type": "function"
    },
    {
      "inputs": [],
      "name": "renounceOwnership",
      "outputs": [],
      "stateMutability": "nonpayable",
      "type": "function"
    },
    {
      "inputs": [
        {
          "internalType": "address",
          "name": "from",
          "type": "address"
        },
        {
          "internalType": "address",
          "name": "to",
          "type": "address"
        },
        {
          "internalType": "uint256",
          "name": "tokenId",
          "type": "uint256"
        }
      ],
      "name": "safeTransferFrom",
      "outputs": [],
      "stateMutability": "nonpayable",
      "type": "function"
    },
    {
      "inputs": [
        {
          "internalType": "address",
          "name": "from",
          "type": "address"
        },
        {
          "internalType": "address",
          "name": "to",
          "type": "address"
        },
        {
          "internalType": "uint256",
          "name": "tokenId",
          "type": "uint256"
        },
        {
          "internalType": "bytes",
          "name": "data",
          "type": "bytes"
        }
      ],
      "name": "safeTransferFrom",
      "outputs": [],
      "stateMutability": "nonpayable",
      "type": "function"
    },
    {
      "inputs": [
        {
          "internalType": "address",
          "name": "operator",
          "type": "address"
        },
        {
          "internalType": "bool",
          "name": "approved",
          "type": "bool"
        }
      ],
      "name": "setApprovalForAll",
      "outputs": [],
      "stateMutability": "nonpayable",
      "type": "function"
    },
    {
      "inputs": [
        {
          "internalType": "bytes4",
          "name": "interfaceId",
          "type": "bytes4"
        }
      ],
      "name": "supportsInterface",
      "outputs": [
        {
          "internalType": "bool",
          "name": "",
          "type": "bool"
        }
      ],
      "stateMutability": "view",
      "type": "function"
    },
    {
      "inputs": [],
      "name": "symbol",
      "outputs": [
        {
          "internalType": "string",
          "name": "",
          "type": "string"
        }
      ],
      "stateMutability": "view",
      "type": "function"
    },
    {
      "inputs": [
        {
          "internalType": "uint256",
          "name": "tokenId",
          "type": "uint256"
        }
      ],
      "name": "tokenURI",
      "outputs": [
        {
          "internalType": "string",
          "name": "",
          "type": "string"
        }
      ],
      "stateMutability": "view",
      "type": "function"
    },
    {
      "inputs": [
        {
          "internalType": "address",
          "name": "from",
          "type": "address"
        },
        {
          "internalType": "address",
          "name": "to",
          "type": "address"
        },
        {
          "internalType": "uint256",
          "name": "tokenId",
          "type": "uint256"
        }
      ],
      "name": "transferFrom",
      "outputs": [],
      "stateMutability": "nonpayable",
      "type": "function"
    },
    {
      "inputs": [
        {
          "internalType": "address",
          "name": "newOwner",
          "type": "address"
        }
      ],
      "name": "transferOwnership",
      "outputs": [],
      "stateMutability": "nonpayable",
      "type": "function"
    },
    {
      "inputs": [
        {
          "internalType": "uint256",
          "name": "tokenId",
          "type": "uint256"
        },
        {
          "internalType": "uint256",
          "name": "documentId",
          "type": "uint256"
        },
        {
          "internalType": "bytes",
          "name": "signature",
          "type": "bytes"
        }
      ],
      "name": "verifification",
      "outputs": [
        {
          "internalType": "address",
          "name": "",
          "type": "address"
        }
      ],
      "stateMutability": "view",
      "type": "function"
    }
  ],
  "transactionHash": "0x4449aa3e020fd24ab3ee7724907286983e5931b854fb02bcc21b3db348da26ba",
  "args": [
    "0xe7f1725E7734CE288F8367e1Bb143E90bb3F0512",
    "Doc-Sign",
    "DS_786",
    "Doc-Sign",
    "1"
  ],
  "numDeployments": 1,
  "solcInputHash": "2e0a6ea8be328397c14630b9ad754046",
  "bytecode": "0x6101406040523480156200001257600080fd5b50604051620062bd380380620062bd833981810160405281019062000038919062000480565b838383836200005c620000506200018060201b60201c565b6200018860201b60201c565b60008280519060200120905060008280519060200120905060007f8b73c3c69bb8fe3d512ecc4cf759cc79239f7b179b0ffacaa9a75d522b39400f90508260e081815250508161010081815250504660a08181525050620000c58184846200024c60201b60201c565b608081815250503073ffffffffffffffffffffffffffffffffffffffff1660c08173ffffffffffffffffffffffffffffffffffffffff1681525050806101208181525050505050505081600190816200011f9190620007cf565b508060029081620001319190620007cf565b50505084600a60006101000a81548173ffffffffffffffffffffffffffffffffffffffff021916908373ffffffffffffffffffffffffffffffffffffffff160217905550505050505062000950565b600033905090565b60008060009054906101000a900473ffffffffffffffffffffffffffffffffffffffff169050816000806101000a81548173ffffffffffffffffffffffffffffffffffffffff021916908373ffffffffffffffffffffffffffffffffffffffff1602179055508173ffffffffffffffffffffffffffffffffffffffff168173ffffffffffffffffffffffffffffffffffffffff167f8be0079c531659141344cd1fd0a4f28419497f9722a3daafe3b4186f6b6457e060405160405180910390a35050565b6000838383463060405160200162000269959493929190620008f3565b6040516020818303038152906040528051906020012090509392505050565b6000604051905090565b600080fd5b600080fd5b600073ffffffffffffffffffffffffffffffffffffffff82169050919050565b6000620002c9826200029c565b9050919050565b620002db81620002bc565b8114620002e757600080fd5b50565b600081519050620002fb81620002d0565b92915050565b600080fd5b600080fd5b6000601f19601f8301169050919050565b7f4e487b7100000000000000000000000000000000000000000000000000000000600052604160045260246000fd5b62000356826200030b565b810181811067ffffffffffffffff821117156200037857620003776200031c565b5b80604052505050565b60006200038d62000288565b90506200039b82826200034b565b919050565b600067ffffffffffffffff821115620003be57620003bd6200031c565b5b620003c9826200030b565b9050602081019050919050565b60005b83811015620003f6578082015181840152602081019050620003d9565b60008484015250505050565b6000620004196200041384620003a0565b62000381565b90508281526020810184848401111562000438576200043762000306565b5b62000445848285620003d6565b509392505050565b600082601f83011262000465576200046462000301565b5b81516200047784826020860162000402565b91505092915050565b600080600080600060a086880312156200049f576200049e62000292565b5b6000620004af88828901620002ea565b955050602086015167ffffffffffffffff811115620004d357620004d262000297565b5b620004e1888289016200044d565b945050604086015167ffffffffffffffff81111562000505576200050462000297565b5b62000513888289016200044d565b935050606086015167ffffffffffffffff81111562000537576200053662000297565b5b62000545888289016200044d565b925050608086015167ffffffffffffffff81111562000569576200056862000297565b5b62000577888289016200044d565b9150509295509295909350565b600081519050919050565b7f4e487b7100000000000000000000000000000000000000000000000000000000600052602260045260246000fd5b60006002820490506001821680620005d757607f821691505b602082108103620005ed57620005ec6200058f565b5b50919050565b60008190508160005260206000209050919050565b60006020601f8301049050919050565b600082821b905092915050565b600060088302620006577fffffffffffffffffffffffffffffffffffffffffffffffffffffffffffffffff8262000618565b62000663868362000618565b95508019841693508086168417925050509392505050565b6000819050919050565b6000819050919050565b6000620006b0620006aa620006a4846200067b565b62000685565b6200067b565b9050919050565b6000819050919050565b620006cc836200068f565b620006e4620006db82620006b7565b84845462000625565b825550505050565b600090565b620006fb620006ec565b62000708818484620006c1565b505050565b5b81811015620007305762000724600082620006f1565b6001810190506200070e565b5050565b601f8211156200077f576200074981620005f3565b620007548462000608565b8101602085101562000764578190505b6200077c620007738562000608565b8301826200070d565b50505b505050565b600082821c905092915050565b6000620007a46000198460080262000784565b1980831691505092915050565b6000620007bf838362000791565b9150826002028217905092915050565b620007da8262000584565b67ffffffffffffffff811115620007f657620007f56200031c565b5b620008028254620005be565b6200080f82828562000734565b600060209050601f83116001811462000847576000841562000832578287015190505b6200083e8582620007b1565b865550620008ae565b601f1984166200085786620005f3565b60005b8281101562000881578489015182556001820191506020850194506020810190506200085a565b86831015620008a157848901516200089d601f89168262000791565b8355505b6001600288020188555050505b505050505050565b6000819050919050565b620008cb81620008b6565b82525050565b620008dc816200067b565b82525050565b620008ed81620002bc565b82525050565b600060a0820190506200090a6000830188620008c0565b620009196020830187620008c0565b620009286040830186620008c0565b620009376060830185620008d1565b620009466080830184620008e2565b9695505050505050565b60805160a05160c05160e051610100516101205161591d620009a060003960006134b4015260006134f6015260006134d50152600061340a0152600061346001526000613489015261591d6000f3fe608060405234801561001057600080fd5b50600436106101a95760003560e01c8063715018a6116100f9578063c87b56dd11610097578063e985e9c511610071578063e985e9c5146104f2578063ececbbb114610522578063edd405f614610552578063f2fde38b14610582576101a9565b8063c87b56dd14610488578063c89bfa0b146104b8578063cfefe9ff146104d6576101a9565b806395d89b41116100d357806395d89b4114610416578063a22cb46514610434578063b88d4fde14610450578063bf63d48e1461046c576101a9565b8063715018a6146103be57806380ede329146103c85780638da5cb5b146103f8576101a9565b80631fb919a31161016657806342842e0e1161014057806342842e0e146103125780635c622a0e1461032e5780636352211e1461035e57806370a082311461038e576101a9565b80631fb919a3146102a857806323b872dd146102d857806329cb924d146102f4576101a9565b806301ffc9a7146101ae57806306fdde03146101de578063081812fc146101fc578063095ea7b31461022c5780630b049148146102485780631916d69514610278575b600080fd5b6101c860048036038101906101c3919061375c565b61059e565b6040516101d591906137a4565b60405180910390f35b6101e6610680565b6040516101f3919061384f565b60405180910390f35b610216600480360381019061021191906138a7565b610712565b6040516102239190613915565b60405180910390f35b6102466004803603810190610241919061395c565b610758565b005b610262600480360381019061025d9190613b99565b61086f565b60405161026f9190613c63565b60405180910390f35b610292600480360381019061028d91906138a7565b6108ab565b60405161029f9190613c63565b60405180910390f35b6102c260048036038101906102bd91906138a7565b6108e9565b6040516102cf9190613c63565b60405180910390f35b6102f260048036038101906102ed9190613c7e565b610927565b005b6102fc610987565b6040516103099190613c63565b60405180910390f35b61032c60048036038101906103279190613c7e565b6109a1565b005b610348600480360381019061034391906138a7565b6109c1565b6040516103559190613d48565b60405180910390f35b610378600480360381019061037391906138a7565b610bf0565b6040516103859190613915565b60405180910390f35b6103a860048036038101906103a39190613d63565b610c76565b6040516103b59190613c63565b60405180910390f35b6103c6610d2d565b005b6103e260048036038101906103dd91906138a7565b610d41565b6040516103ef9190614019565b60405180910390f35b610400611074565b60405161040d9190613915565b60405180910390f35b61041e61109d565b60405161042b919061384f565b60405180910390f35b61044e60048036038101906104499190614067565b61112f565b005b61046a600480360381019061046591906140a7565b611145565b005b610486600480360381019061048191906141f7565b6111a7565b005b6104a2600480360381019061049d91906138a7565b61156c565b6040516104af919061384f565b60405180910390f35b6104c061167e565b6040516104cd919061430d565b60405180910390f35b6104f060048036038101906104eb9190614383565b6116a2565b005b61050c600480360381019061050791906143f7565b611cda565b60405161051991906137a4565b60405180910390f35b61053c600480360381019061053791906138a7565b611d6e565b6040516105499190614446565b60405180910390f35b61056c600480360381019061056791906144b7565b611f46565b6040516105799190613915565b60405180910390f35b61059c60048036038101906105979190613d63565b611fae565b005b60007f80ac58cd000000000000000000000000000000000000000000000000000000007bffffffffffffffffffffffffffffffffffffffffffffffffffffffff1916827bffffffffffffffffffffffffffffffffffffffffffffffffffffffff1916148061066957507f5b5e139f000000000000000000000000000000000000000000000000000000007bffffffffffffffffffffffffffffffffffffffffffffffffffffffff1916827bffffffffffffffffffffffffffffffffffffffffffffffffffffffff1916145b80610679575061067882612031565b5b9050919050565b60606001805461068f9061455a565b80601f01602080910402602001604051908101604052809291908181526020018280546106bb9061455a565b80156107085780601f106106dd57610100808354040283529160200191610708565b820191906000526020600020905b8154815290600101906020018083116106eb57829003601f168201915b5050505050905090565b600061071d8261209b565b6005600083815260200190815260200160002060009054906101000a900473ffffffffffffffffffffffffffffffffffffffff169050919050565b600061076382610bf0565b90508073ffffffffffffffffffffffffffffffffffffffff168373ffffffffffffffffffffffffffffffffffffffff16036107d3576040517f08c379a00000000000000000000000000000000000000000000000000000000081526004016107ca906145fd565b60405180910390fd5b8073ffffffffffffffffffffffffffffffffffffffff166107f26120e6565b73ffffffffffffffffffffffffffffffffffffffff16148061082157506108208161081b6120e6565b611cda565b5b610860576040517f08c379a00000000000000000000000000000000000000000000000000000000081526004016108579061468f565b60405180910390fd5b61086a83836120ee565b505050565b60008484848460405160200161088894939291906147a8565b6040516020818303038152906040528051906020012060001c9050949350505050565b60006009600083815260200190815260200160002060050160019054906101000a900467ffffffffffffffff1667ffffffffffffffff169050919050565b60006009600083815260200190815260200160002060050160099054906101000a900467ffffffffffffffff1667ffffffffffffffff169050919050565b6109386109326120e6565b826121a7565b610977576040517f08c379a000000000000000000000000000000000000000000000000000000000815260040161096e90614874565b60405180910390fd5b61098283838361223c565b505050565b600061099243612535565b67ffffffffffffffff16905090565b6109bc83838360405180602001604052806000815250611145565b505050565b6000600460078111156109d7576109d6613cd1565b5b6009600084815260200190815260200160002060050160009054906101000a900460ff166007811115610a0d57610a0c613cd1565b5b1480610a5f5750600780811115610a2757610a26613cd1565b5b6009600084815260200190815260200160002060050160009054906101000a900460ff166007811115610a5d57610a5c613cd1565b5b145b15610a8f576009600083815260200190815260200160002060050160009054906101000a900460ff169050610beb565b610a9843612535565b67ffffffffffffffff166009600084815260200190815260200160002060050160019054906101000a900467ffffffffffffffff1667ffffffffffffffff161115610ae65760009050610beb565b610aef43612535565b67ffffffffffffffff166009600084815260200190815260200160002060050160019054906101000a900467ffffffffffffffff1667ffffffffffffffff1611158015610b815750610b4043612535565b67ffffffffffffffff166009600084815260200190815260200160002060050160099054906101000a900467ffffffffffffffff1667ffffffffffffffff16115b15610b8f5760019050610beb565b610b9843612535565b67ffffffffffffffff166009600084815260200190815260200160002060050160099054906101000a900467ffffffffffffffff1667ffffffffffffffff161015610be65760059050610beb565b600090505b919050565b600080610bfc8361258c565b9050600073ffffffffffffffffffffffffffffffffffffffff168173ffffffffffffffffffffffffffffffffffffffff1603610c6d576040517f08c379a0000000000000000000000000000000000000000000000000000000008152600401610c64906148e0565b60405180910390fd5b80915050919050565b60008073ffffffffffffffffffffffffffffffffffffffff168273ffffffffffffffffffffffffffffffffffffffff1603610ce6576040517f08c379a0000000000000000000000000000000000000000000000000000000008152600401610cdd90614972565b60405180910390fd5b600460008373ffffffffffffffffffffffffffffffffffffffff1673ffffffffffffffffffffffffffffffffffffffff168152602001908152602001600020549050919050565b610d356125c9565b610d3f6000612647565b565b610d4961366f565b600060096000848152602001908152602001600020604051806101000160405290816000820160009054906101000a900473ffffffffffffffffffffffffffffffffffffffff1673ffffffffffffffffffffffffffffffffffffffff1673ffffffffffffffffffffffffffffffffffffffff168152602001600182018054610dd09061455a565b80601f0160208091040260200160405190810160405280929190818152602001828054610dfc9061455a565b8015610e495780601f10610e1e57610100808354040283529160200191610e49565b820191906000526020600020905b815481529060010190602001808311610e2c57829003601f168201915b5050505050815260200160028201548152602001600382018054610e6c9061455a565b80601f0160208091040260200160405190810160405280929190818152602001828054610e989061455a565b8015610ee55780601f10610eba57610100808354040283529160200191610ee5565b820191906000526020600020905b815481529060010190602001808311610ec857829003601f168201915b5050505050815260200160048201805480602002602001604051908101604052809291908181526020016000905b82821015610f8a5783829060005260206000209060020201604051806040016040529081600082015481526020016001820160009054906101000a900460ff166003811115610f6557610f64613cd1565b5b6003811115610f7757610f76613cd1565b5b8152505081526020019060010190610f13565b5050505081526020016005820160009054906101000a900460ff166007811115610fb757610fb6613cd1565b5b6007811115610fc957610fc8613cd1565b5b81526020016005820160019054906101000a900467ffffffffffffffff1667ffffffffffffffff1667ffffffffffffffff1681526020016005820160099054906101000a900467ffffffffffffffff1667ffffffffffffffff1667ffffffffffffffff1681525050905061103c836109c1565b8160a00190600781111561105357611052613cd1565b5b9081600781111561106757611066613cd1565b5b8152505080915050919050565b60008060009054906101000a900473ffffffffffffffffffffffffffffffffffffffff16905090565b6060600280546110ac9061455a565b80601f01602080910402602001604051908101604052809291908181526020018280546110d89061455a565b80156111255780601f106110fa57610100808354040283529160200191611125565b820191906000526020600020905b81548152906001019060200180831161110857829003601f168201915b5050505050905090565b61114161113a6120e6565b838361270b565b5050565b6111566111506120e6565b836121a7565b611195576040517f08c379a000000000000000000000000000000000000000000000000000000000815260040161118c90614874565b60405180910390fd5b6111a184848484612877565b50505050565b6001600a60009054906101000a900473ffffffffffffffffffffffffffffffffffffffff1673ffffffffffffffffffffffffffffffffffffffff166370a08231336040518263ffffffff1660e01b81526004016112049190613915565b602060405180830381865afa158015611221573d6000803e3d6000fd5b505050506040513d601f19601f8201168201806040525081019061124591906149a7565b1461128757336040517fdf0dff2900000000000000000000000000000000000000000000000000000000815260040161127e9190613915565b60405180910390fd5b8267ffffffffffffffff168267ffffffffffffffff16036112e15781836040517fd659fe1c0000000000000000000000000000000000000000000000000000000081526004016112d89291906149e3565b60405180910390fd5b6112eb60086128d3565b60006112f760086128e9565b905060006113078289898661086f565b9050600060096000838152602001908152602001600020905060005b84518110156113f0576000604051806040016040528087848151811061134c5761134b614a0c565b5b602002602001015181526020016001600381111561136d5761136c613cd1565b5b8152509050826004018190806001815401808255809150506001900390600052602060002090600202016000909190919091506000820151816000015560208201518160010160006101000a81548160ff021916908360038111156113d5576113d4613cd1565b5b021790555050505080806113e890614a6a565b915050611323565b506000866113fd43612535565b6114079190614ab2565b9050808260050160016101000a81548167ffffffffffffffff021916908367ffffffffffffffff16021790555085816114409190614ab2565b8260050160096101000a81548167ffffffffffffffff021916908367ffffffffffffffff1602179055508982600101908161147b9190614c9a565b50338260000160006101000a81548173ffffffffffffffffffffffffffffffffffffffff021916908373ffffffffffffffffffffffffffffffffffffffff160217905550888260030190816114d09190614c9a565b5060008260050160006101000a81548160ff021916908360078111156114f9576114f8613cd1565b5b021790555083826002018190555061151133856128f7565b61151b8489612915565b3373ffffffffffffffffffffffffffffffffffffffff1683857fcaec28d2fd95bea310e5592e0b1879eaa1f2cb5d30b0b7c4fabc645d86857c7f60405160405180910390a450505050505050505050565b60606115778261209b565b60006007600084815260200190815260200160002080546115979061455a565b80601f01602080910402602001604051908101604052809291908181526020018280546115c39061455a565b80156116105780601f106115e557610100808354040283529160200191611610565b820191906000526020600020905b8154815290600101906020018083116115f357829003601f168201915b505050505090506000611621612982565b90506000815103611636578192505050611679565b60008251111561166b578082604051602001611653929190614da8565b60405160208183030381529060405292505050611679565b61167484612999565b925050505b919050565b7fb027597f208d58d90027840640681cc91e53b2e86d23a1a9a8eae0116469ff6c81565b6009600085815260200190815260200160002060000160009054906101000a900473ffffffffffffffffffffffffffffffffffffffff163373ffffffffffffffffffffffffffffffffffffffff168173ffffffffffffffffffffffffffffffffffffffff161461173e576040517fe7d87f6700000000000000000000000000000000000000000000000000000000815260040160405180910390fd5b83839050600960008781526020019081526020016000206004018054905014611793576040517f1c643d8d00000000000000000000000000000000000000000000000000000000815260040160405180910390fd5b600061179e866109c1565b9050600560078111156117b4576117b3613cd1565b5b8160078111156117c7576117c6613cd1565b5b03611ca05760006001905060005b6009600089815260200190815260200160002060040180549050811015611bdf576000611860600960008b8152602001908152602001600020600401838154811061182357611822614a0c565b5b9060005260206000209060020201600001548a8a8a8681811061184957611848614a0c565b5b905060200281019061185b9190614ddb565b611f46565b905085801561196f5750600a60009054906101000a900473ffffffffffffffffffffffffffffffffffffffff1673ffffffffffffffffffffffffffffffffffffffff16636352211e600960008c815260200190815260200160002060040184815481106118d0576118cf614a0c565b5b9060005260206000209060020201600001546040518263ffffffff1660e01b81526004016118fe9190613c63565b602060405180830381865afa15801561191b573d6000803e3d6000fd5b505050506040513d601f19601f8201168201806040525081019061193f9190614e53565b73ffffffffffffffffffffffffffffffffffffffff168173ffffffffffffffffffffffffffffffffffffffff1614155b156119ea57600960008a8152602001908152602001600020600401828154811061199c5761199b614a0c565b5b9060005260206000209060020201600001546040517f928348d00000000000000000000000000000000000000000000000000000000081526004016119e19190613c63565b60405180910390fd5b85158015611af85750600a60009054906101000a900473ffffffffffffffffffffffffffffffffffffffff1673ffffffffffffffffffffffffffffffffffffffff16636352211e600960008c81526020019081526020016000206004018481548110611a5957611a58614a0c565b5b9060005260206000209060020201600001546040518263ffffffff1660e01b8152600401611a879190613c63565b602060405180830381865afa158015611aa4573d6000803e3d6000fd5b505050506040513d601f19601f82011682018060405250810190611ac89190614e53565b73ffffffffffffffffffffffffffffffffffffffff168173ffffffffffffffffffffffffffffffffffffffff1614155b15611b68576003600960008b81526020019081526020016000206004018381548110611b2757611b26614a0c565b5b906000526020600020906002020160010160006101000a81548160ff02191690836003811115611b5a57611b59613cd1565b5b021790555060009250611bcb565b6002600960008b81526020019081526020016000206004018381548110611b9257611b91614a0c565b5b906000526020600020906002020160010160006101000a81548160ff02191690836003811115611bc557611bc4613cd1565b5b02179055505b508080611bd790614a6a565b9150506117d5565b508015611c2a5760046009600089815260200190815260200160002060050160006101000a81548160ff02191690836007811115611c2057611c1f613cd1565b5b0217905550611c6a565b60076009600089815260200190815260200160002060050160006101000a81548160ff02191690836007811115611c6457611c63613cd1565b5b02179055505b831515877fec2387823ccca09443483ed3c62f09982d5a6fd9c10a7fc7bdfe58811cf3da3960405160405180910390a350611cd2565b6040517f47fc596900000000000000000000000000000000000000000000000000000000815260040160405180910390fd5b505050505050565b6000600660008473ffffffffffffffffffffffffffffffffffffffff1673ffffffffffffffffffffffffffffffffffffffff16815260200190815260200160002060008373ffffffffffffffffffffffffffffffffffffffff1673ffffffffffffffffffffffffffffffffffffffff16815260200190815260200160002060009054906101000a900460ff16905092915050565b6000806000905060005b6009600085815260200190815260200160002060040180549050811015611f0357600a60009054906101000a900473ffffffffffffffffffffffffffffffffffffffff1673ffffffffffffffffffffffffffffffffffffffff16636352211e600960008781526020019081526020016000206004018381548110611dff57611dfe614a0c565b5b9060005260206000209060020201600001546040518263ffffffff1660e01b8152600401611e2d9190613c63565b602060405180830381865afa158015611e4a573d6000803e3d6000fd5b505050506040513d601f19601f82011682018060405250810190611e6e9190614e53565b73ffffffffffffffffffffffffffffffffffffffff163373ffffffffffffffffffffffffffffffffffffffff1603611ef057600960008581526020019081526020016000206004018181548110611ec857611ec7614a0c565b5b906000526020600020906002020160010160009054906101000a900460ff1692505050611f41565b8080611efb90614a6a565b915050611d78565b5080611f3b576040517fe4e5ff6800000000000000000000000000000000000000000000000000000000815260040160405180910390fd5b60009150505b919050565b600080611f538686612a01565b9050611fa38185858080601f016020809104026020016040519081016040528093929190818152602001838380828437600081840152601f19601f82011690508083019250505050505050612a5e565b915050949350505050565b611fb66125c9565b600073ffffffffffffffffffffffffffffffffffffffff168173ffffffffffffffffffffffffffffffffffffffff1603612025576040517f08c379a000000000000000000000000000000000000000000000000000000000815260040161201c90614ef2565b60405180910390fd5b61202e81612647565b50565b60007f01ffc9a7000000000000000000000000000000000000000000000000000000007bffffffffffffffffffffffffffffffffffffffffffffffffffffffff1916827bffffffffffffffffffffffffffffffffffffffffffffffffffffffff1916149050919050565b6120a481612a85565b6120e3576040517f08c379a00000000000000000000000000000000000000000000000000000000081526004016120da906148e0565b60405180910390fd5b50565b600033905090565b816005600083815260200190815260200160002060006101000a81548173ffffffffffffffffffffffffffffffffffffffff021916908373ffffffffffffffffffffffffffffffffffffffff160217905550808273ffffffffffffffffffffffffffffffffffffffff1661216183610bf0565b73ffffffffffffffffffffffffffffffffffffffff167f8c5be1e5ebec7d5bd14f71427d1e84f3dd0314c0f7b2291e5b200ac8c7c3b92560405160405180910390a45050565b6000806121b383610bf0565b90508073ffffffffffffffffffffffffffffffffffffffff168473ffffffffffffffffffffffffffffffffffffffff1614806121f557506121f48185611cda565b5b8061223357508373ffffffffffffffffffffffffffffffffffffffff1661221b84610712565b73ffffffffffffffffffffffffffffffffffffffff16145b91505092915050565b8273ffffffffffffffffffffffffffffffffffffffff1661225c82610bf0565b73ffffffffffffffffffffffffffffffffffffffff16146122b2576040517f08c379a00000000000000000000000000000000000000000000000000000000081526004016122a990614f84565b60405180910390fd5b600073ffffffffffffffffffffffffffffffffffffffff168273ffffffffffffffffffffffffffffffffffffffff1603612321576040517f08c379a000000000000000000000000000000000000000000000000000000000815260040161231890615016565b60405180910390fd5b61232e8383836001612ac6565b8273ffffffffffffffffffffffffffffffffffffffff1661234e82610bf0565b73ffffffffffffffffffffffffffffffffffffffff16146123a4576040517f08c379a000000000000000000000000000000000000000000000000000000000815260040161239b90614f84565b60405180910390fd5b6005600082815260200190815260200160002060006101000a81549073ffffffffffffffffffffffffffffffffffffffff02191690556001600460008573ffffffffffffffffffffffffffffffffffffffff1673ffffffffffffffffffffffffffffffffffffffff168152602001908152602001600020600082825403925050819055506001600460008473ffffffffffffffffffffffffffffffffffffffff1673ffffffffffffffffffffffffffffffffffffffff16815260200190815260200160002060008282540192505081905550816003600083815260200190815260200160002060006101000a81548173ffffffffffffffffffffffffffffffffffffffff021916908373ffffffffffffffffffffffffffffffffffffffff160217905550808273ffffffffffffffffffffffffffffffffffffffff168473ffffffffffffffffffffffffffffffffffffffff167fddf252ad1be2c89b69c2b068fc378daa952ba7f163c4a11628f55a4df523b3ef60405160405180910390a46125308383836001612bec565b505050565b600067ffffffffffffffff8016821115612584576040517f08c379a000000000000000000000000000000000000000000000000000000000815260040161257b906150a8565b60405180910390fd5b819050919050565b60006003600083815260200190815260200160002060009054906101000a900473ffffffffffffffffffffffffffffffffffffffff169050919050565b6125d16120e6565b73ffffffffffffffffffffffffffffffffffffffff166125ef611074565b73ffffffffffffffffffffffffffffffffffffffff1614612645576040517f08c379a000000000000000000000000000000000000000000000000000000000815260040161263c90615114565b60405180910390fd5b565b60008060009054906101000a900473ffffffffffffffffffffffffffffffffffffffff169050816000806101000a81548173ffffffffffffffffffffffffffffffffffffffff021916908373ffffffffffffffffffffffffffffffffffffffff1602179055508173ffffffffffffffffffffffffffffffffffffffff168173ffffffffffffffffffffffffffffffffffffffff167f8be0079c531659141344cd1fd0a4f28419497f9722a3daafe3b4186f6b6457e060405160405180910390a35050565b8173ffffffffffffffffffffffffffffffffffffffff168373ffffffffffffffffffffffffffffffffffffffff1603612779576040517f08c379a000000000000000000000000000000000000000000000000000000000815260040161277090615180565b60405180910390fd5b80600660008573ffffffffffffffffffffffffffffffffffffffff1673ffffffffffffffffffffffffffffffffffffffff16815260200190815260200160002060008473ffffffffffffffffffffffffffffffffffffffff1673ffffffffffffffffffffffffffffffffffffffff16815260200190815260200160002060006101000a81548160ff0219169083151502179055508173ffffffffffffffffffffffffffffffffffffffff168373ffffffffffffffffffffffffffffffffffffffff167f17307eab39ab6107e8899845ad3d59bd9653f200f220920489ca2b5937696c318360405161286a91906137a4565b60405180910390a3505050565b61288284848461223c565b61288e84848484612bf2565b6128cd576040517f08c379a00000000000000000000000000000000000000000000000000000000081526004016128c490615212565b60405180910390fd5b50505050565b6001816000016000828254019250508190555050565b600081600001549050919050565b612911828260405180602001604052806000815250612d79565b5050565b61291e82612a85565b61295d576040517f08c379a0000000000000000000000000000000000000000000000000000000008152600401612954906152a4565b60405180910390fd5b8060076000848152602001908152602001600020908161297d919061531f565b505050565b606060405180602001604052806000815250905090565b60606129a48261209b565b60006129ae612982565b905060008151116129ce57604051806020016040528060008152506129f9565b806129d884612dd4565b6040516020016129e9929190614da8565b6040516020818303038152906040525b915050919050565b6000612a567fb027597f208d58d90027840640681cc91e53b2e86d23a1a9a8eae0116469ff6c8484604051602001612a3b939291906153f1565b60405160208183030381529060405280519060200120612ea2565b905092915050565b6000806000612a6d8585612ebc565b91509150612a7a81612f0d565b819250505092915050565b60008073ffffffffffffffffffffffffffffffffffffffff16612aa78361258c565b73ffffffffffffffffffffffffffffffffffffffff1614159050919050565b6001811115612be657600073ffffffffffffffffffffffffffffffffffffffff168473ffffffffffffffffffffffffffffffffffffffff1614612b5a5780600460008673ffffffffffffffffffffffffffffffffffffffff1673ffffffffffffffffffffffffffffffffffffffff1681526020019081526020016000206000828254612b529190615428565b925050819055505b600073ffffffffffffffffffffffffffffffffffffffff168373ffffffffffffffffffffffffffffffffffffffff1614612be55780600460008573ffffffffffffffffffffffffffffffffffffffff1673ffffffffffffffffffffffffffffffffffffffff1681526020019081526020016000206000828254612bdd919061545c565b925050819055505b5b50505050565b50505050565b6000612c138473ffffffffffffffffffffffffffffffffffffffff16613073565b15612d6c578373ffffffffffffffffffffffffffffffffffffffff1663150b7a02612c3c6120e6565b8786866040518563ffffffff1660e01b8152600401612c5e9493929190615490565b6020604051808303816000875af1925050508015612c9a57506040513d601f19601f82011682018060405250810190612c9791906154f1565b60015b612d1c573d8060008114612cca576040519150601f19603f3d011682016040523d82523d6000602084013e612ccf565b606091505b506000815103612d14576040517f08c379a0000000000000000000000000000000000000000000000000000000008152600401612d0b90615212565b60405180910390fd5b805181602001fd5b63150b7a0260e01b7bffffffffffffffffffffffffffffffffffffffffffffffffffffffff1916817bffffffffffffffffffffffffffffffffffffffffffffffffffffffff191614915050612d71565b600190505b949350505050565b612d838383613096565b612d906000848484612bf2565b612dcf576040517f08c379a0000000000000000000000000000000000000000000000000000000008152600401612dc690615212565b60405180910390fd5b505050565b606060006001612de3846132b3565b01905060008167ffffffffffffffff811115612e0257612e016139a6565b5b6040519080825280601f01601f191660200182016040528015612e345781602001600182028036833780820191505090505b509050600082602001820190505b600115612e97578080600190039150507f3031323334353637383961626364656600000000000000000000000000000000600a86061a8153600a8581612e8b57612e8a61551e565b5b04945060008503612e42575b819350505050919050565b6000612eb5612eaf613406565b83613520565b9050919050565b6000806041835103612efd5760008060006020860151925060408601519150606086015160001a9050612ef187828585613553565b94509450505050612f06565b60006002915091505b9250929050565b60006004811115612f2157612f20613cd1565b5b816004811115612f3457612f33613cd1565b5b03156130705760016004811115612f4e57612f4d613cd1565b5b816004811115612f6157612f60613cd1565b5b03612fa1576040517f08c379a0000000000000000000000000000000000000000000000000000000008152600401612f9890615599565b60405180910390fd5b60026004811115612fb557612fb4613cd1565b5b816004811115612fc857612fc7613cd1565b5b03613008576040517f08c379a0000000000000000000000000000000000000000000000000000000008152600401612fff90615605565b60405180910390fd5b6003600481111561301c5761301b613cd1565b5b81600481111561302f5761302e613cd1565b5b0361306f576040517f08c379a000000000000000000000000000000000000000000000000000000000815260040161306690615697565b60405180910390fd5b5b50565b6000808273ffffffffffffffffffffffffffffffffffffffff163b119050919050565b600073ffffffffffffffffffffffffffffffffffffffff168273ffffffffffffffffffffffffffffffffffffffff1603613105576040517f08c379a00000000000000000000000000000000000000000000000000000000081526004016130fc90615703565b60405180910390fd5b61310e81612a85565b1561314e576040517f08c379a00000000000000000000000000000000000000000000000000000000081526004016131459061576f565b60405180910390fd5b61315c600083836001612ac6565b61316581612a85565b156131a5576040517f08c379a000000000000000000000000000000000000000000000000000000000815260040161319c9061576f565b60405180910390fd5b6001600460008473ffffffffffffffffffffffffffffffffffffffff1673ffffffffffffffffffffffffffffffffffffffff16815260200190815260200160002060008282540192505081905550816003600083815260200190815260200160002060006101000a81548173ffffffffffffffffffffffffffffffffffffffff021916908373ffffffffffffffffffffffffffffffffffffffff160217905550808273ffffffffffffffffffffffffffffffffffffffff16600073ffffffffffffffffffffffffffffffffffffffff167fddf252ad1be2c89b69c2b068fc378daa952ba7f163c4a11628f55a4df523b3ef60405160405180910390a46132af600083836001612bec565b5050565b600080600090507a184f03e93ff9f4daa797ed6e38ed64bf6a1f0100000000000000008310613311577a184f03e93ff9f4daa797ed6e38ed64bf6a1f01000000000000000083816133075761330661551e565b5b0492506040810190505b6d04ee2d6d415b85acef8100000000831061334e576d04ee2d6d415b85acef810000000083816133445761334361551e565b5b0492506020810190505b662386f26fc10000831061337d57662386f26fc1000083816133735761337261551e565b5b0492506010810190505b6305f5e10083106133a6576305f5e100838161339c5761339b61551e565b5b0492506008810190505b61271083106133cb5761271083816133c1576133c061551e565b5b0492506004810190505b606483106133ee57606483816133e4576133e361551e565b5b0492506002810190505b600a83106133fd576001810190505b80915050919050565b60007f000000000000000000000000000000000000000000000000000000000000000073ffffffffffffffffffffffffffffffffffffffff163073ffffffffffffffffffffffffffffffffffffffff1614801561348257507f000000000000000000000000000000000000000000000000000000000000000046145b156134af577f0000000000000000000000000000000000000000000000000000000000000000905061351d565b61351a7f00000000000000000000000000000000000000000000000000000000000000007f00000000000000000000000000000000000000000000000000000000000000007f0000000000000000000000000000000000000000000000000000000000000000613635565b90505b90565b600082826040516020016135359291906157fc565b60405160208183030381529060405280519060200120905092915050565b6000807f7fffffffffffffffffffffffffffffff5d576e7357a4501ddfe92f46681b20a08360001c111561358e57600060039150915061362c565b6000600187878787604051600081526020016040526040516135b3949392919061584f565b6020604051602081039080840390855afa1580156135d5573d6000803e3d6000fd5b505050602060405103519050600073ffffffffffffffffffffffffffffffffffffffff168173ffffffffffffffffffffffffffffffffffffffff16036136235760006001925092505061362c565b80600092509250505b94509492505050565b60008383834630604051602001613650959493929190615894565b6040516020818303038152906040528051906020012090509392505050565b604051806101000160405280600073ffffffffffffffffffffffffffffffffffffffff16815260200160608152602001600081526020016060815260200160608152602001600060078111156136c8576136c7613cd1565b5b8152602001600067ffffffffffffffff168152602001600067ffffffffffffffff1681525090565b6000604051905090565b600080fd5b600080fd5b60007fffffffff0000000000000000000000000000000000000000000000000000000082169050919050565b61373981613704565b811461374457600080fd5b50565b60008135905061375681613730565b92915050565b600060208284031215613772576137716136fa565b5b600061378084828501613747565b91505092915050565b60008115159050919050565b61379e81613789565b82525050565b60006020820190506137b96000830184613795565b92915050565b600081519050919050565b600082825260208201905092915050565b60005b838110156137f95780820151818401526020810190506137de565b60008484015250505050565b6000601f19601f8301169050919050565b6000613821826137bf565b61382b81856137ca565b935061383b8185602086016137db565b61384481613805565b840191505092915050565b600060208201905081810360008301526138698184613816565b905092915050565b6000819050919050565b61388481613871565b811461388f57600080fd5b50565b6000813590506138a18161387b565b92915050565b6000602082840312156138bd576138bc6136fa565b5b60006138cb84828501613892565b91505092915050565b600073ffffffffffffffffffffffffffffffffffffffff82169050919050565b60006138ff826138d4565b9050919050565b61390f816138f4565b82525050565b600060208201905061392a6000830184613906565b92915050565b613939816138f4565b811461394457600080fd5b50565b60008135905061395681613930565b92915050565b60008060408385031215613973576139726136fa565b5b600061398185828601613947565b925050602061399285828601613892565b9150509250929050565b600080fd5b600080fd5b7f4e487b7100000000000000000000000000000000000000000000000000000000600052604160045260246000fd5b6139de82613805565b810181811067ffffffffffffffff821117156139fd576139fc6139a6565b5b80604052505050565b6000613a106136f0565b9050613a1c82826139d5565b919050565b600067ffffffffffffffff821115613a3c57613a3b6139a6565b5b613a4582613805565b9050602081019050919050565b82818337600083830152505050565b6000613a74613a6f84613a21565b613a06565b905082815260208101848484011115613a9057613a8f6139a1565b5b613a9b848285613a52565b509392505050565b600082601f830112613ab857613ab761399c565b5b8135613ac8848260208601613a61565b91505092915050565b600067ffffffffffffffff821115613aec57613aeb6139a6565b5b602082029050602081019050919050565b600080fd5b6000613b15613b1084613ad1565b613a06565b90508083825260208201905060208402830185811115613b3857613b37613afd565b5b835b81811015613b615780613b4d8882613892565b845260208401935050602081019050613b3a565b5050509392505050565b600082601f830112613b8057613b7f61399c565b5b8135613b90848260208601613b02565b91505092915050565b60008060008060808587031215613bb357613bb26136fa565b5b6000613bc187828801613892565b945050602085013567ffffffffffffffff811115613be257613be16136ff565b5b613bee87828801613aa3565b935050604085013567ffffffffffffffff811115613c0f57613c0e6136ff565b5b613c1b87828801613aa3565b925050606085013567ffffffffffffffff811115613c3c57613c3b6136ff565b5b613c4887828801613b6b565b91505092959194509250565b613c5d81613871565b82525050565b6000602082019050613c786000830184613c54565b92915050565b600080600060608486031215613c9757613c966136fa565b5b6000613ca586828701613947565b9350506020613cb686828701613947565b9250506040613cc786828701613892565b9150509250925092565b7f4e487b7100000000000000000000000000000000000000000000000000000000600052602160045260246000fd5b60088110613d1157613d10613cd1565b5b50565b6000819050613d2282613d00565b919050565b6000613d3282613d14565b9050919050565b613d4281613d27565b82525050565b6000602082019050613d5d6000830184613d39565b92915050565b600060208284031215613d7957613d786136fa565b5b6000613d8784828501613947565b91505092915050565b613d99816138f4565b82525050565b600081519050919050565b600082825260208201905092915050565b6000613dc682613d9f565b613dd08185613daa565b9350613de08185602086016137db565b613de981613805565b840191505092915050565b613dfd81613871565b82525050565b600081519050919050565b600082825260208201905092915050565b6000819050602082019050919050565b60048110613e4057613e3f613cd1565b5b50565b6000819050613e5182613e2f565b919050565b6000613e6182613e43565b9050919050565b613e7181613e56565b82525050565b604082016000820151613e8d6000850182613df4565b506020820151613ea06020850182613e68565b50505050565b6000613eb28383613e77565b60408301905092915050565b6000602082019050919050565b6000613ed682613e03565b613ee08185613e0e565b9350613eeb83613e1f565b8060005b83811015613f1c578151613f038882613ea6565b9750613f0e83613ebe565b925050600181019050613eef565b5085935050505092915050565b613f3281613d27565b82525050565b600067ffffffffffffffff82169050919050565b613f5581613f38565b82525050565b600061010083016000830151613f746000860182613d90565b5060208301518482036020860152613f8c8282613dbb565b9150506040830151613fa16040860182613df4565b5060608301518482036060860152613fb98282613dbb565b91505060808301518482036080860152613fd38282613ecb565b91505060a0830151613fe860a0860182613f29565b5060c0830151613ffb60c0860182613f4c565b5060e083015161400e60e0860182613f4c565b508091505092915050565b600060208201905081810360008301526140338184613f5b565b905092915050565b61404481613789565b811461404f57600080fd5b50565b6000813590506140618161403b565b92915050565b6000806040838503121561407e5761407d6136fa565b5b600061408c85828601613947565b925050602061409d85828601614052565b9150509250929050565b600080600080608085870312156140c1576140c06136fa565b5b60006140cf87828801613947565b94505060206140e087828801613947565b93505060406140f187828801613892565b925050606085013567ffffffffffffffff811115614112576141116136ff565b5b61411e87828801613aa3565b91505092959194509250565b600067ffffffffffffffff821115614145576141446139a6565b5b61414e82613805565b9050602081019050919050565b600061416e6141698461412a565b613a06565b90508281526020810184848401111561418a576141896139a1565b5b614195848285613a52565b509392505050565b600082601f8301126141b2576141b161399c565b5b81356141c284826020860161415b565b91505092915050565b6141d481613f38565b81146141df57600080fd5b50565b6000813590506141f1816141cb565b92915050565b60008060008060008060c08789031215614214576142136136fa565b5b600087013567ffffffffffffffff811115614232576142316136ff565b5b61423e89828a01613aa3565b965050602087013567ffffffffffffffff81111561425f5761425e6136ff565b5b61426b89828a01613aa3565b955050604087013567ffffffffffffffff81111561428c5761428b6136ff565b5b61429889828a0161419d565b94505060606142a989828a016141e2565b93505060806142ba89828a016141e2565b92505060a087013567ffffffffffffffff8111156142db576142da6136ff565b5b6142e789828a01613b6b565b9150509295509295509295565b6000819050919050565b614307816142f4565b82525050565b600060208201905061432260008301846142fe565b92915050565b600080fd5b60008083601f8401126143435761434261399c565b5b8235905067ffffffffffffffff8111156143605761435f614328565b5b60208301915083602082028301111561437c5761437b613afd565b5b9250929050565b6000806000806060858703121561439d5761439c6136fa565b5b60006143ab87828801613892565b945050602085013567ffffffffffffffff8111156143cc576143cb6136ff565b5b6143d88782880161432d565b935093505060406143eb87828801614052565b91505092959194509250565b6000806040838503121561440e5761440d6136fa565b5b600061441c85828601613947565b925050602061442d85828601613947565b9150509250929050565b61444081613e56565b82525050565b600060208201905061445b6000830184614437565b92915050565b60008083601f8401126144775761447661399c565b5b8235905067ffffffffffffffff81111561449457614493614328565b5b6020830191508360018202830111156144b0576144af613afd565b5b9250929050565b600080600080606085870312156144d1576144d06136fa565b5b60006144df87828801613892565b94505060206144f087828801613892565b935050604085013567ffffffffffffffff811115614511576145106136ff565b5b61451d87828801614461565b925092505092959194509250565b7f4e487b7100000000000000000000000000000000000000000000000000000000600052602260045260246000fd5b6000600282049050600182168061457257607f821691505b6020821081036145855761458461452b565b5b50919050565b7f4552433732313a20617070726f76616c20746f2063757272656e74206f776e6560008201527f7200000000000000000000000000000000000000000000000000000000000000602082015250565b60006145e76021836137ca565b91506145f28261458b565b604082019050919050565b60006020820190508181036000830152614616816145da565b9050919050565b7f4552433732313a20617070726f76652063616c6c6572206973206e6f7420746f60008201527f6b656e206f776e6572206f7220617070726f76656420666f7220616c6c000000602082015250565b6000614679603d836137ca565b91506146848261461d565b604082019050919050565b600060208201905081810360008301526146a88161466c565b9050919050565b600082825260208201905092915050565b60006146cb82613d9f565b6146d581856146af565b93506146e58185602086016137db565b6146ee81613805565b840191505092915050565b600081519050919050565b600082825260208201905092915050565b6000819050602082019050919050565b60006147318383613df4565b60208301905092915050565b6000602082019050919050565b6000614755826146f9565b61475f8185614704565b935061476a83614715565b8060005b8381101561479b5781516147828882614725565b975061478d8361473d565b92505060018101905061476e565b5085935050505092915050565b60006080820190506147bd6000830187613c54565b81810360208301526147cf81866146c0565b905081810360408301526147e381856146c0565b905081810360608301526147f7818461474a565b905095945050505050565b7f4552433732313a2063616c6c6572206973206e6f7420746f6b656e206f776e6560008201527f72206f7220617070726f76656400000000000000000000000000000000000000602082015250565b600061485e602d836137ca565b915061486982614802565b604082019050919050565b6000602082019050818103600083015261488d81614851565b9050919050565b7f4552433732313a20696e76616c696420746f6b656e2049440000000000000000600082015250565b60006148ca6018836137ca565b91506148d582614894565b602082019050919050565b600060208201905081810360008301526148f9816148bd565b9050919050565b7f4552433732313a2061646472657373207a65726f206973206e6f74206120766160008201527f6c6964206f776e65720000000000000000000000000000000000000000000000602082015250565b600061495c6029836137ca565b915061496782614900565b604082019050919050565b6000602082019050818103600083015261498b8161494f565b9050919050565b6000815190506149a18161387b565b92915050565b6000602082840312156149bd576149bc6136fa565b5b60006149cb84828501614992565b91505092915050565b6149dd81613f38565b82525050565b60006040820190506149f860008301856149d4565b614a0560208301846149d4565b9392505050565b7f4e487b7100000000000000000000000000000000000000000000000000000000600052603260045260246000fd5b7f4e487b7100000000000000000000000000000000000000000000000000000000600052601160045260246000fd5b6000614a7582613871565b91507fffffffffffffffffffffffffffffffffffffffffffffffffffffffffffffffff8203614aa757614aa6614a3b565b5b600182019050919050565b6000614abd82613f38565b9150614ac883613f38565b9250828201905067ffffffffffffffff811115614ae857614ae7614a3b565b5b92915050565b60008190508160005260206000209050919050565b60006020601f8301049050919050565b600082821b905092915050565b600060088302614b507fffffffffffffffffffffffffffffffffffffffffffffffffffffffffffffffff82614b13565b614b5a8683614b13565b95508019841693508086168417925050509392505050565b6000819050919050565b6000614b97614b92614b8d84613871565b614b72565b613871565b9050919050565b6000819050919050565b614bb183614b7c565b614bc5614bbd82614b9e565b848454614b20565b825550505050565b600090565b614bda614bcd565b614be5818484614ba8565b505050565b5b81811015614c0957614bfe600082614bd2565b600181019050614beb565b5050565b601f821115614c4e57614c1f81614aee565b614c2884614b03565b81016020851015614c37578190505b614c4b614c4385614b03565b830182614bea565b50505b505050565b600082821c905092915050565b6000614c7160001984600802614c53565b1980831691505092915050565b6000614c8a8383614c60565b9150826002028217905092915050565b614ca382613d9f565b67ffffffffffffffff811115614cbc57614cbb6139a6565b5b614cc6825461455a565b614cd1828285614c0d565b600060209050601f831160018114614d045760008415614cf2578287015190505b614cfc8582614c7e565b865550614d64565b601f198416614d1286614aee565b60005b82811015614d3a57848901518255600182019150602085019450602081019050614d15565b86831015614d575784890151614d53601f891682614c60565b8355505b6001600288020188555050505b505050505050565b600081905092915050565b6000614d82826137bf565b614d8c8185614d6c565b9350614d9c8185602086016137db565b80840191505092915050565b6000614db48285614d77565b9150614dc08284614d77565b91508190509392505050565b600080fd5b600080fd5b600080fd5b60008083356001602003843603038112614df857614df7614dcc565b5b80840192508235915067ffffffffffffffff821115614e1a57614e19614dd1565b5b602083019250600182023603831315614e3657614e35614dd6565b5b509250929050565b600081519050614e4d81613930565b92915050565b600060208284031215614e6957614e686136fa565b5b6000614e7784828501614e3e565b91505092915050565b7f4f776e61626c653a206e6577206f776e657220697320746865207a65726f206160008201527f6464726573730000000000000000000000000000000000000000000000000000602082015250565b6000614edc6026836137ca565b9150614ee782614e80565b604082019050919050565b60006020820190508181036000830152614f0b81614ecf565b9050919050565b7f4552433732313a207472616e736665722066726f6d20696e636f72726563742060008201527f6f776e6572000000000000000000000000000000000000000000000000000000602082015250565b6000614f6e6025836137ca565b9150614f7982614f12565b604082019050919050565b60006020820190508181036000830152614f9d81614f61565b9050919050565b7f4552433732313a207472616e7366657220746f20746865207a65726f2061646460008201527f7265737300000000000000000000000000000000000000000000000000000000602082015250565b60006150006024836137ca565b915061500b82614fa4565b604082019050919050565b6000602082019050818103600083015261502f81614ff3565b9050919050565b7f53616665436173743a2076616c756520646f65736e27742066697420696e203660008201527f3420626974730000000000000000000000000000000000000000000000000000602082015250565b60006150926026836137ca565b915061509d82615036565b604082019050919050565b600060208201905081810360008301526150c181615085565b9050919050565b7f4f776e61626c653a2063616c6c6572206973206e6f7420746865206f776e6572600082015250565b60006150fe6020836137ca565b9150615109826150c8565b602082019050919050565b6000602082019050818103600083015261512d816150f1565b9050919050565b7f4552433732313a20617070726f766520746f2063616c6c657200000000000000600082015250565b600061516a6019836137ca565b915061517582615134565b602082019050919050565b600060208201905081810360008301526151998161515d565b9050919050565b7f4552433732313a207472616e7366657220746f206e6f6e20455243373231526560008201527f63656976657220696d706c656d656e7465720000000000000000000000000000602082015250565b60006151fc6032836137ca565b9150615207826151a0565b604082019050919050565b6000602082019050818103600083015261522b816151ef565b9050919050565b7f45524337323155524953746f726167653a2055524920736574206f66206e6f6e60008201527f6578697374656e7420746f6b656e000000000000000000000000000000000000602082015250565b600061528e602e836137ca565b915061529982615232565b604082019050919050565b600060208201905081810360008301526152bd81615281565b9050919050565b60008190508160005260206000209050919050565b601f82111561531a576152eb816152c4565b6152f484614b03565b81016020851015615303578190505b61531761530f85614b03565b830182614bea565b50505b505050565b615328826137bf565b67ffffffffffffffff811115615341576153406139a6565b5b61534b825461455a565b6153568282856152d9565b600060209050601f8311600181146153895760008415615377578287015190505b6153818582614c7e565b8655506153e9565b601f198416615397866152c4565b60005b828110156153bf5784890151825560018201915060208501945060208101905061539a565b868310156153dc57848901516153d8601f891682614c60565b8355505b6001600288020188555050505b505050505050565b600060608201905061540660008301866142fe565b6154136020830185613c54565b6154206040830184613c54565b949350505050565b600061543382613871565b915061543e83613871565b925082820390508181111561545657615455614a3b565b5b92915050565b600061546782613871565b915061547283613871565b925082820190508082111561548a57615489614a3b565b5b92915050565b60006080820190506154a56000830187613906565b6154b26020830186613906565b6154bf6040830185613c54565b81810360608301526154d181846146c0565b905095945050505050565b6000815190506154eb81613730565b92915050565b600060208284031215615507576155066136fa565b5b6000615515848285016154dc565b91505092915050565b7f4e487b7100000000000000000000000000000000000000000000000000000000600052601260045260246000fd5b7f45434453413a20696e76616c6964207369676e61747572650000000000000000600082015250565b60006155836018836137ca565b915061558e8261554d565b602082019050919050565b600060208201905081810360008301526155b281615576565b9050919050565b7f45434453413a20696e76616c6964207369676e6174757265206c656e67746800600082015250565b60006155ef601f836137ca565b91506155fa826155b9565b602082019050919050565b6000602082019050818103600083015261561e816155e2565b9050919050565b7f45434453413a20696e76616c6964207369676e6174757265202773272076616c60008201527f7565000000000000000000000000000000000000000000000000000000000000602082015250565b60006156816022836137ca565b915061568c82615625565b604082019050919050565b600060208201905081810360008301526156b081615674565b9050919050565b7f4552433732313a206d696e7420746f20746865207a65726f2061646472657373600082015250565b60006156ed6020836137ca565b91506156f8826156b7565b602082019050919050565b6000602082019050818103600083015261571c816156e0565b9050919050565b7f4552433732313a20746f6b656e20616c7265616479206d696e74656400000000600082015250565b6000615759601c836137ca565b915061576482615723565b602082019050919050565b600060208201905081810360008301526157888161574c565b9050919050565b7f1901000000000000000000000000000000000000000000000000000000000000600082015250565b60006157c5600283614d6c565b91506157d08261578f565b600282019050919050565b6000819050919050565b6157f66157f1826142f4565b6157db565b82525050565b6000615807826157b8565b915061581382856157e5565b60208201915061582382846157e5565b6020820191508190509392505050565b600060ff82169050919050565b61584981615833565b82525050565b600060808201905061586460008301876142fe565b6158716020830186615840565b61587e60408301856142fe565b61588b60608301846142fe565b95945050505050565b600060a0820190506158a960008301886142fe565b6158b660208301876142fe565b6158c360408301866142fe565b6158d06060830185613c54565b6158dd6080830184613906565b969550505050505056fea26469706673582212200c9a5283d65c5b82d602c9e6499a846bb6c6459c8eb44b4caa31387f0702d03f64736f6c63430008110033",
  "devdoc": {
    "kind": "dev",
    "methods": {
      "approve(address,uint256)": {
        "details": "See {IERC721-approve}."
      },
      "balanceOf(address)": {
        "details": "See {IERC721-balanceOf}."
      },
      "getApproved(uint256)": {
        "details": "See {IERC721-getApproved}."
      },
      "isApprovedForAll(address,address)": {
        "details": "See {IERC721-isApprovedForAll}."
      },
      "name()": {
        "details": "See {IERC721Metadata-name}."
      },
      "owner()": {
        "details": "Returns the address of the current owner."
      },
      "ownerOf(uint256)": {
        "details": "See {IERC721-ownerOf}."
      },
      "renounceOwnership()": {
        "details": "Leaves the contract without owner. It will not be possible to call `onlyOwner` functions anymore. Can only be called by the current owner. NOTE: Renouncing ownership will leave the contract without an owner, thereby removing any functionality that is only available to the owner."
      },
      "safeTransferFrom(address,address,uint256)": {
        "details": "See {IERC721-safeTransferFrom}."
      },
      "safeTransferFrom(address,address,uint256,bytes)": {
        "details": "See {IERC721-safeTransferFrom}."
      },
      "setApprovalForAll(address,bool)": {
        "details": "See {IERC721-setApprovalForAll}."
      },
      "supportsInterface(bytes4)": {
        "details": "See {IERC165-supportsInterface}."
      },
      "symbol()": {
        "details": "See {IERC721Metadata-symbol}."
      },
      "tokenURI(uint256)": {
        "details": "See {IERC721Metadata-tokenURI}."
      },
      "transferFrom(address,address,uint256)": {
        "details": "See {IERC721-transferFrom}."
      },
      "transferOwnership(address)": {
        "details": "Transfers ownership of the contract to a new account (`newOwner`). Can only be called by the current owner."
      }
    },
    "version": 1
  },
  "userdoc": {
    "kind": "user",
    "methods": {},
    "version": 1
  },
  "storageLayout": {
    "storage": [
      {
        "astId": 7,
        "contract": "contracts/core/DocumentSignature.sol:DocumentSignature",
        "label": "_owner",
        "offset": 0,
        "slot": "0",
        "type": "t_address"
      },
      {
        "astId": 138,
        "contract": "contracts/core/DocumentSignature.sol:DocumentSignature",
        "label": "_name",
        "offset": 0,
        "slot": "1",
        "type": "t_string_storage"
      },
      {
        "astId": 140,
        "contract": "contracts/core/DocumentSignature.sol:DocumentSignature",
        "label": "_symbol",
        "offset": 0,
        "slot": "2",
        "type": "t_string_storage"
      },
      {
        "astId": 144,
        "contract": "contracts/core/DocumentSignature.sol:DocumentSignature",
        "label": "_owners",
        "offset": 0,
        "slot": "3",
        "type": "t_mapping(t_uint256,t_address)"
      },
      {
        "astId": 148,
        "contract": "contracts/core/DocumentSignature.sol:DocumentSignature",
        "label": "_balances",
        "offset": 0,
        "slot": "4",
        "type": "t_mapping(t_address,t_uint256)"
      },
      {
        "astId": 152,
        "contract": "contracts/core/DocumentSignature.sol:DocumentSignature",
        "label": "_tokenApprovals",
        "offset": 0,
        "slot": "5",
        "type": "t_mapping(t_uint256,t_address)"
      },
      {
        "astId": 158,
        "contract": "contracts/core/DocumentSignature.sol:DocumentSignature",
        "label": "_operatorApprovals",
        "offset": 0,
        "slot": "6",
        "type": "t_mapping(t_address,t_mapping(t_address,t_bool))"
      },
      {
        "astId": 1204,
        "contract": "contracts/core/DocumentSignature.sol:DocumentSignature",
        "label": "_tokenURIs",
        "offset": 0,
        "slot": "7",
        "type": "t_mapping(t_uint256,t_string_storage)"
      },
      {
        "astId": 3597,
        "contract": "contracts/core/DocumentSignature.sol:DocumentSignature",
        "label": "idCount",
        "offset": 0,
        "slot": "8",
        "type": "t_struct(Counter)1701_storage"
      },
      {
        "astId": 3602,
        "contract": "contracts/core/DocumentSignature.sol:DocumentSignature",
        "label": "documentDetials",
        "offset": 0,
        "slot": "9",
        "type": "t_mapping(t_uint256,t_struct(DocumentDetials)4341_storage)"
      },
      {
        "astId": 3604,
        "contract": "contracts/core/DocumentSignature.sol:DocumentSignature",
        "label": "userIdentityNFT",
        "offset": 0,
        "slot": "10",
        "type": "t_address"
      }
    ],
    "types": {
      "t_address": {
        "encoding": "inplace",
        "label": "address",
        "numberOfBytes": "20"
      },
      "t_array(t_struct(Party)4347_storage)dyn_storage": {
        "base": "t_struct(Party)4347_storage",
        "encoding": "dynamic_array",
        "label": "struct IDocumentSignature.Party[]",
        "numberOfBytes": "32"
      },
      "t_bool": {
        "encoding": "inplace",
        "label": "bool",
        "numberOfBytes": "1"
      },
      "t_bytes_storage": {
        "encoding": "bytes",
        "label": "bytes",
        "numberOfBytes": "32"
      },
      "t_enum(DocumentState)4361": {
        "encoding": "inplace",
        "label": "enum IDocumentSignature.DocumentState",
        "numberOfBytes": "1"
      },
      "t_enum(SignatureStatus)4352": {
        "encoding": "inplace",
        "label": "enum IDocumentSignature.SignatureStatus",
        "numberOfBytes": "1"
      },
      "t_mapping(t_address,t_bool)": {
        "encoding": "mapping",
        "key": "t_address",
        "label": "mapping(address => bool)",
        "numberOfBytes": "32",
        "value": "t_bool"
      },
      "t_mapping(t_address,t_mapping(t_address,t_bool))": {
        "encoding": "mapping",
        "key": "t_address",
        "label": "mapping(address => mapping(address => bool))",
        "numberOfBytes": "32",
        "value": "t_mapping(t_address,t_bool)"
      },
      "t_mapping(t_address,t_uint256)": {
        "encoding": "mapping",
        "key": "t_address",
        "label": "mapping(address => uint256)",
        "numberOfBytes": "32",
        "value": "t_uint256"
      },
      "t_mapping(t_uint256,t_address)": {
        "encoding": "mapping",
        "key": "t_uint256",
        "label": "mapping(uint256 => address)",
        "numberOfBytes": "32",
        "value": "t_address"
      },
      "t_mapping(t_uint256,t_string_storage)": {
        "encoding": "mapping",
        "key": "t_uint256",
        "label": "mapping(uint256 => string)",
        "numberOfBytes": "32",
        "value": "t_string_storage"
      },
      "t_mapping(t_uint256,t_struct(DocumentDetials)4341_storage)": {
        "encoding": "mapping",
        "key": "t_uint256",
        "label": "mapping(uint256 => struct IDocumentSignature.DocumentDetials)",
        "numberOfBytes": "32",
        "value": "t_struct(DocumentDetials)4341_storage"
      },
      "t_string_storage": {
        "encoding": "bytes",
        "label": "string",
        "numberOfBytes": "32"
      },
      "t_struct(Counter)1701_storage": {
        "encoding": "inplace",
        "label": "struct Counters.Counter",
        "members": [
          {
            "astId": 1700,
            "contract": "contracts/core/DocumentSignature.sol:DocumentSignature",
            "label": "_value",
            "offset": 0,
            "slot": "0",
            "type": "t_uint256"
          }
        ],
        "numberOfBytes": "32"
      },
      "t_struct(DocumentDetials)4341_storage": {
        "encoding": "inplace",
        "label": "struct IDocumentSignature.DocumentDetials",
        "members": [
          {
            "astId": 4323,
            "contract": "contracts/core/DocumentSignature.sol:DocumentSignature",
            "label": "creator",
            "offset": 0,
            "slot": "0",
            "type": "t_address"
          },
          {
            "astId": 4325,
            "contract": "contracts/core/DocumentSignature.sol:DocumentSignature",
            "label": "name",
            "offset": 0,
            "slot": "1",
            "type": "t_bytes_storage"
          },
          {
            "astId": 4327,
            "contract": "contracts/core/DocumentSignature.sol:DocumentSignature",
            "label": "tokenId",
            "offset": 0,
            "slot": "2",
            "type": "t_uint256"
          },
          {
            "astId": 4329,
            "contract": "contracts/core/DocumentSignature.sol:DocumentSignature",
            "label": "description",
            "offset": 0,
            "slot": "3",
            "type": "t_bytes_storage"
          },
          {
            "astId": 4333,
            "contract": "contracts/core/DocumentSignature.sol:DocumentSignature",
            "label": "parties",
            "offset": 0,
            "slot": "4",
            "type": "t_array(t_struct(Party)4347_storage)dyn_storage"
          },
          {
            "astId": 4336,
            "contract": "contracts/core/DocumentSignature.sol:DocumentSignature",
            "label": "status",
            "offset": 0,
            "slot": "5",
            "type": "t_enum(DocumentState)4361"
          },
          {
            "astId": 4338,
            "contract": "contracts/core/DocumentSignature.sol:DocumentSignature",
            "label": "signatureStart",
            "offset": 1,
            "slot": "5",
            "type": "t_uint64"
          },
          {
            "astId": 4340,
            "contract": "contracts/core/DocumentSignature.sol:DocumentSignature",
            "label": "signatureEnd",
            "offset": 9,
            "slot": "5",
            "type": "t_uint64"
          }
        ],
        "numberOfBytes": "192"
      },
      "t_struct(Party)4347_storage": {
        "encoding": "inplace",
        "label": "struct IDocumentSignature.Party",
        "members": [
          {
            "astId": 4343,
            "contract": "contracts/core/DocumentSignature.sol:DocumentSignature",
            "label": "tokenId",
            "offset": 0,
            "slot": "0",
            "type": "t_uint256"
          },
          {
            "astId": 4346,
            "contract": "contracts/core/DocumentSignature.sol:DocumentSignature",
            "label": "status",
            "offset": 0,
            "slot": "1",
            "type": "t_enum(SignatureStatus)4352"
          }
        ],
        "numberOfBytes": "64"
      },
      "t_uint256": {
        "encoding": "inplace",
        "label": "uint256",
        "numberOfBytes": "32"
      },
      "t_uint64": {
        "encoding": "inplace",
        "label": "uint64",
        "numberOfBytes": "8"
      }
    }
  }
}