{
  "address": "0x5FC8d32690cc91D4c39d9d3abcBD16989F875707",
  "abi": [
    {
      "inputs": [
        {
          "internalType": "address",
          "name": "_userIdentityNFT",
          "type": "address"
        },
        {
          "internalType": "string",
          "name": "name",
          "type": "string"
        },
        {
          "internalType": "string",
          "name": "symbol",
          "type": "string"
        },
        {
          "internalType": "string",
          "name": "signingDomain",
          "type": "string"
        },
        {
          "internalType": "string",
          "name": "signatureVersion",
          "type": "string"
        }
      ],
      "stateMutability": "nonpayable",
      "type": "constructor"
    },
    {
      "inputs": [
        {
          "internalType": "address",
          "name": "creator",
          "type": "address"
        }
      ],
      "name": "DocumentSignature__CreatorIdentityNotExit",
      "type": "error"
    },
    {
      "inputs": [
        {
          "internalType": "uint256",
          "name": "tokeId",
          "type": "uint256"
        }
      ],
      "name": "DocumentSignature__InValidSignature",
      "type": "error"
    },
    {
      "inputs": [],
      "name": "DocumentSignature__OnlyOwnerCanCall",
      "type": "error"
    },
    {
      "inputs": [
        {
          "internalType": "uint64",
          "name": "start",
          "type": "uint64"
        },
        {
          "internalType": "uint64",
          "name": "end",
          "type": "uint64"
        }
      ],
      "name": "DocumentSignature__StartingAndEndingValuesNotSome",
      "type": "error"
    },
    {
      "inputs": [],
      "name": "DocumentSignature__UserNotExist",
      "type": "error"
    },
    {
      "anonymous": false,
      "inputs": [
        {
          "indexed": true,
          "internalType": "address",
          "name": "owner",
          "type": "address"
        },
        {
          "indexed": true,
          "internalType": "address",
          "name": "approved",
          "type": "address"
        },
        {
          "indexed": true,
          "internalType": "uint256",
          "name": "tokenId",
          "type": "uint256"
        }
      ],
      "name": "Approval",
      "type": "event"
    },
    {
      "anonymous": false,
      "inputs": [
        {
          "indexed": true,
          "internalType": "address",
          "name": "owner",
          "type": "address"
        },
        {
          "indexed": true,
          "internalType": "address",
          "name": "operator",
          "type": "address"
        },
        {
          "indexed": false,
          "internalType": "bool",
          "name": "approved",
          "type": "bool"
        }
      ],
      "name": "ApprovalForAll",
      "type": "event"
    },
    {
      "anonymous": false,
      "inputs": [
        {
          "indexed": true,
          "internalType": "uint256",
          "name": "documentId",
          "type": "uint256"
        },
        {
          "indexed": true,
          "internalType": "bool",
          "name": "isValidation",
          "type": "bool"
        }
      ],
      "name": "DocumentProcess",
      "type": "event"
    },
    {
      "anonymous": false,
      "inputs": [
        {
          "indexed": true,
          "internalType": "uint256",
          "name": "documentId",
          "type": "uint256"
        },
        {
          "indexed": true,
          "internalType": "uint256",
          "name": "tokenId",
          "type": "uint256"
        },
        {
          "indexed": true,
          "internalType": "address",
          "name": "creator",
          "type": "address"
        }
      ],
      "name": "DocumentedCrearted",
      "type": "event"
    },
    {
      "anonymous": false,
      "inputs": [
        {
          "indexed": true,
          "internalType": "address",
          "name": "previousOwner",
          "type": "address"
        },
        {
          "indexed": true,
          "internalType": "address",
          "name": "newOwner",
          "type": "address"
        }
      ],
      "name": "OwnershipTransferred",
      "type": "event"
    },
    {
      "anonymous": false,
      "inputs": [
        {
          "indexed": true,
          "internalType": "address",
          "name": "from",
          "type": "address"
        },
        {
          "indexed": true,
          "internalType": "address",
          "name": "to",
          "type": "address"
        },
        {
          "indexed": true,
          "internalType": "uint256",
          "name": "tokenId",
          "type": "uint256"
        }
      ],
      "name": "Transfer",
      "type": "event"
    },
    {
      "inputs": [],
      "name": "CAST_VOTE",
      "outputs": [
        {
          "internalType": "bytes32",
          "name": "",
          "type": "bytes32"
        }
      ],
      "stateMutability": "view",
      "type": "function"
    },
    {
      "inputs": [
        {
          "internalType": "address",
          "name": "to",
          "type": "address"
        },
        {
          "internalType": "uint256",
          "name": "tokenId",
          "type": "uint256"
        }
      ],
      "name": "approve",
      "outputs": [],
      "stateMutability": "nonpayable",
      "type": "function"
    },
    {
      "inputs": [
        {
          "internalType": "address",
          "name": "owner",
          "type": "address"
        }
      ],
      "name": "balanceOf",
      "outputs": [
        {
          "internalType": "uint256",
          "name": "",
          "type": "uint256"
        }
      ],
      "stateMutability": "view",
      "type": "function"
    },
    {
      "inputs": [
        {
          "internalType": "uint256",
          "name": "documentId",
          "type": "uint256"
        }
      ],
      "name": "checkMyCastedVote",
      "outputs": [
        {
          "internalType": "enum IDocumentSignature.SignatureStatus",
          "name": "",
          "type": "uint8"
        }
      ],
      "stateMutability": "view",
      "type": "function"
    },
    {
      "inputs": [
        {
          "internalType": "bytes",
          "name": "name",
          "type": "bytes"
        },
        {
          "internalType": "bytes",
          "name": "description",
          "type": "bytes"
        },
        {
          "internalType": "string",
          "name": "uri",
          "type": "string"
        },
        {
          "internalType": "uint64",
          "name": "signatureStartingPeriod",
          "type": "uint64"
        },
        {
          "internalType": "uint64",
          "name": "signatureEndingingPeriod",
          "type": "uint64"
        },
        {
          "internalType": "uint256[]",
          "name": "partiesTokenId",
          "type": "uint256[]"
        }
      ],
      "name": "createDocument",
      "outputs": [],
      "stateMutability": "nonpayable",
      "type": "function"
    },
    {
      "inputs": [
        {
          "internalType": "uint256",
          "name": "tokenId",
          "type": "uint256"
        }
      ],
      "name": "getApproved",
      "outputs": [
        {
          "internalType": "address",
          "name": "",
          "type": "address"
        }
      ],
      "stateMutability": "view",
      "type": "function"
    },
    {
      "inputs": [],
      "name": "getCurrentTime",
      "outputs": [
        {
          "internalType": "uint256",
          "name": "",
          "type": "uint256"
        }
      ],
      "stateMutability": "view",
      "type": "function"
    },
    {
      "inputs": [
        {
          "internalType": "uint256",
          "name": "documentId",
          "type": "uint256"
        }
      ],
      "name": "getDocumentDetails",
      "outputs": [
        {
          "components": [
            {
              "internalType": "address",
              "name": "creator",
              "type": "address"
            },
            {
              "internalType": "bytes",
              "name": "name",
              "type": "bytes"
            },
            {
              "internalType": "uint256",
              "name": "tokenId",
              "type": "uint256"
            },
            {
              "internalType": "bytes",
              "name": "description",
              "type": "bytes"
            },
            {
              "components": [
                {
                  "internalType": "uint256",
                  "name": "tokenId",
                  "type": "uint256"
                },
                {
                  "internalType": "enum IDocumentSignature.SignatureStatus",
                  "name": "status",
                  "type": "uint8"
                }
              ],
              "internalType": "struct IDocumentSignature.Party[]",
              "name": "parties",
              "type": "tuple[]"
            },
            {
              "internalType": "enum IDocumentSignature.DocumentState",
              "name": "status",
              "type": "uint8"
            },
            {
              "internalType": "uint64",
              "name": "signatureStart",
              "type": "uint64"
            },
            {
              "internalType": "uint64",
              "name": "signatureEnd",
              "type": "uint64"
            }
          ],
          "internalType": "struct IDocumentSignature.DocumentDetials",
          "name": "",
          "type": "tuple"
        }
      ],
      "stateMutability": "view",
      "type": "function"
    },
    {
      "inputs": [
        {
          "internalType": "uint256",
          "name": "documentId",
          "type": "uint256"
        }
      ],
      "name": "getDocumentEndingingTime",
      "outputs": [
        {
          "internalType": "uint256",
          "name": "",
          "type": "uint256"
        }
      ],
      "stateMutability": "view",
      "type": "function"
    },
    {
      "inputs": [
        {
          "internalType": "uint256",
          "name": "documentId",
          "type": "uint256"
        }
      ],
      "name": "getDocumentStartingTime",
      "outputs": [
        {
          "internalType": "uint256",
          "name": "",
          "type": "uint256"
        }
      ],
      "stateMutability": "view",
      "type": "function"
    },
    {
      "inputs": [
        {
          "internalType": "uint256",
          "name": "documentId",
          "type": "uint256"
        }
      ],
      "name": "getStatus",
      "outputs": [
        {
          "internalType": "enum IDocumentSignature.DocumentState",
          "name": "",
          "type": "uint8"
        }
      ],
      "stateMutability": "view",
      "type": "function"
    },
    {
      "inputs": [
        {
          "internalType": "address",
          "name": "owner",
          "type": "address"
        },
        {
          "internalType": "address",
          "name": "operator",
          "type": "address"
        }
      ],
      "name": "isApprovedForAll",
      "outputs": [
        {
          "internalType": "bool",
          "name": "",
          "type": "bool"
        }
      ],
      "stateMutability": "view",
      "type": "function"
    },
    {
      "inputs": [],
      "name": "name",
      "outputs": [
        {
          "internalType": "string",
          "name": "",
          "type": "string"
        }
      ],
      "stateMutability": "view",
      "type": "function"
    },
    {
      "inputs": [],
      "name": "owner",
      "outputs": [
        {
          "internalType": "address",
          "name": "",
          "type": "address"
        }
      ],
      "stateMutability": "view",
      "type": "function"
    },
    {
      "inputs": [
        {
          "internalType": "uint256",
          "name": "tokenId",
          "type": "uint256"
        }
      ],
      "name": "ownerOf",
      "outputs": [
        {
          "internalType": "address",
          "name": "",
          "type": "address"
        }
      ],
      "stateMutability": "view",
      "type": "function"
    },
    {
      "inputs": [
        {
          "internalType": "uint256",
          "name": "documentId",
          "type": "uint256"
        },
        {
          "internalType": "bytes[]",
          "name": "signatures",
          "type": "bytes[]"
        },
        {
          "internalType": "bool",
          "name": "isValidation",
          "type": "bool"
        }
      ],
      "name": "processDocument",
      "outputs": [],
      "stateMutability": "nonpayable",
      "type": "function"
    },
    {
      "inputs": [],
      "name": "renounceOwnership",
      "outputs": [],
      "stateMutability": "nonpayable",
      "type": "function"
    },
    {
      "inputs": [
        {
          "internalType": "address",
          "name": "from",
          "type": "address"
        },
        {
          "internalType": "address",
          "name": "to",
          "type": "address"
        },
        {
          "internalType": "uint256",
          "name": "tokenId",
          "type": "uint256"
        }
      ],
      "name": "safeTransferFrom",
      "outputs": [],
      "stateMutability": "nonpayable",
      "type": "function"
    },
    {
      "inputs": [
        {
          "internalType": "address",
          "name": "from",
          "type": "address"
        },
        {
          "internalType": "address",
          "name": "to",
          "type": "address"
        },
        {
          "internalType": "uint256",
          "name": "tokenId",
          "type": "uint256"
        },
        {
          "internalType": "bytes",
          "name": "data",
          "type": "bytes"
        }
      ],
      "name": "safeTransferFrom",
      "outputs": [],
      "stateMutability": "nonpayable",
      "type": "function"
    },
    {
      "inputs": [
        {
          "internalType": "address",
          "name": "operator",
          "type": "address"
        },
        {
          "internalType": "bool",
          "name": "approved",
          "type": "bool"
        }
      ],
      "name": "setApprovalForAll",
      "outputs": [],
      "stateMutability": "nonpayable",
      "type": "function"
    },
    {
      "inputs": [
        {
          "internalType": "bytes4",
          "name": "interfaceId",
          "type": "bytes4"
        }
      ],
      "name": "supportsInterface",
      "outputs": [
        {
          "internalType": "bool",
          "name": "",
          "type": "bool"
        }
      ],
      "stateMutability": "view",
      "type": "function"
    },
    {
      "inputs": [],
      "name": "symbol",
      "outputs": [
        {
          "internalType": "string",
          "name": "",
          "type": "string"
        }
      ],
      "stateMutability": "view",
      "type": "function"
    },
    {
      "inputs": [
        {
          "internalType": "uint256",
          "name": "tokenId",
          "type": "uint256"
        }
      ],
      "name": "tokenURI",
      "outputs": [
        {
          "internalType": "string",
          "name": "",
          "type": "string"
        }
      ],
      "stateMutability": "view",
      "type": "function"
    },
    {
      "inputs": [
        {
          "internalType": "address",
          "name": "from",
          "type": "address"
        },
        {
          "internalType": "address",
          "name": "to",
          "type": "address"
        },
        {
          "internalType": "uint256",
          "name": "tokenId",
          "type": "uint256"
        }
      ],
      "name": "transferFrom",
      "outputs": [],
      "stateMutability": "nonpayable",
      "type": "function"
    },
    {
      "inputs": [
        {
          "internalType": "address",
          "name": "newOwner",
          "type": "address"
        }
      ],
      "name": "transferOwnership",
      "outputs": [],
      "stateMutability": "nonpayable",
      "type": "function"
    }
  ],
  "transactionHash": "0x1ed6c40d3dc96a8658541fa5c36fb0d35a0b8b8d9de06ba348482cb7f080c01b",
  "args": [
    "0xDc64a140Aa3E981100a9becA4E685f962f0cF6C9",
    "Doc-Sign",
    "DS_786",
    "Doc-Sign",
    "1"
  ],
  "numDeployments": 1,
  "solcInputHash": "5c707cec2a886f1d91835754be9ed0f4",
  "bytecode": "0x6101406040523480156200001257600080fd5b5060405162005fbb38038062005fbb833981810160405281019062000038919062000480565b838383836200005c620000506200018060201b60201c565b6200018860201b60201c565b60008280519060200120905060008280519060200120905060007f8b73c3c69bb8fe3d512ecc4cf759cc79239f7b179b0ffacaa9a75d522b39400f90508260e081815250508161010081815250504660a08181525050620000c58184846200024c60201b60201c565b608081815250503073ffffffffffffffffffffffffffffffffffffffff1660c08173ffffffffffffffffffffffffffffffffffffffff1681525050806101208181525050505050505081600190816200011f9190620007cf565b508060029081620001319190620007cf565b50505084600a60006101000a81548173ffffffffffffffffffffffffffffffffffffffff021916908373ffffffffffffffffffffffffffffffffffffffff160217905550505050505062000950565b600033905090565b60008060009054906101000a900473ffffffffffffffffffffffffffffffffffffffff169050816000806101000a81548173ffffffffffffffffffffffffffffffffffffffff021916908373ffffffffffffffffffffffffffffffffffffffff1602179055508173ffffffffffffffffffffffffffffffffffffffff168173ffffffffffffffffffffffffffffffffffffffff167f8be0079c531659141344cd1fd0a4f28419497f9722a3daafe3b4186f6b6457e060405160405180910390a35050565b6000838383463060405160200162000269959493929190620008f3565b6040516020818303038152906040528051906020012090509392505050565b6000604051905090565b600080fd5b600080fd5b600073ffffffffffffffffffffffffffffffffffffffff82169050919050565b6000620002c9826200029c565b9050919050565b620002db81620002bc565b8114620002e757600080fd5b50565b600081519050620002fb81620002d0565b92915050565b600080fd5b600080fd5b6000601f19601f8301169050919050565b7f4e487b7100000000000000000000000000000000000000000000000000000000600052604160045260246000fd5b62000356826200030b565b810181811067ffffffffffffffff821117156200037857620003776200031c565b5b80604052505050565b60006200038d62000288565b90506200039b82826200034b565b919050565b600067ffffffffffffffff821115620003be57620003bd6200031c565b5b620003c9826200030b565b9050602081019050919050565b60005b83811015620003f6578082015181840152602081019050620003d9565b60008484015250505050565b6000620004196200041384620003a0565b62000381565b90508281526020810184848401111562000438576200043762000306565b5b62000445848285620003d6565b509392505050565b600082601f83011262000465576200046462000301565b5b81516200047784826020860162000402565b91505092915050565b600080600080600060a086880312156200049f576200049e62000292565b5b6000620004af88828901620002ea565b955050602086015167ffffffffffffffff811115620004d357620004d262000297565b5b620004e1888289016200044d565b945050604086015167ffffffffffffffff81111562000505576200050462000297565b5b62000513888289016200044d565b935050606086015167ffffffffffffffff81111562000537576200053662000297565b5b62000545888289016200044d565b925050608086015167ffffffffffffffff81111562000569576200056862000297565b5b62000577888289016200044d565b9150509295509295909350565b600081519050919050565b7f4e487b7100000000000000000000000000000000000000000000000000000000600052602260045260246000fd5b60006002820490506001821680620005d757607f821691505b602082108103620005ed57620005ec6200058f565b5b50919050565b60008190508160005260206000209050919050565b60006020601f8301049050919050565b600082821b905092915050565b600060088302620006577fffffffffffffffffffffffffffffffffffffffffffffffffffffffffffffffff8262000618565b62000663868362000618565b95508019841693508086168417925050509392505050565b6000819050919050565b6000819050919050565b6000620006b0620006aa620006a4846200067b565b62000685565b6200067b565b9050919050565b6000819050919050565b620006cc836200068f565b620006e4620006db82620006b7565b84845462000625565b825550505050565b600090565b620006fb620006ec565b62000708818484620006c1565b505050565b5b81811015620007305762000724600082620006f1565b6001810190506200070e565b5050565b601f8211156200077f576200074981620005f3565b620007548462000608565b8101602085101562000764578190505b6200077c620007738562000608565b8301826200070d565b50505b505050565b600082821c905092915050565b6000620007a46000198460080262000784565b1980831691505092915050565b6000620007bf838362000791565b9150826002028217905092915050565b620007da8262000584565b67ffffffffffffffff811115620007f657620007f56200031c565b5b620008028254620005be565b6200080f82828562000734565b600060209050601f83116001811462000847576000841562000832578287015190505b6200083e8582620007b1565b865550620008ae565b601f1984166200085786620005f3565b60005b8281101562000881578489015182556001820191506020850194506020810190506200085a565b86831015620008a157848901516200089d601f89168262000791565b8355505b6001600288020188555050505b505050505050565b6000819050919050565b620008cb81620008b6565b82525050565b620008dc816200067b565b82525050565b620008ed81620002bc565b82525050565b600060a0820190506200090a6000830188620008c0565b620009196020830187620008c0565b620009286040830186620008c0565b620009376060830185620008d1565b620009466080830184620008e2565b9695505050505050565b60805160a05160c05160e051610100516101205161561b620009a06000396000613313015260006133550152600061333401526000613269015260006132bf015260006132e8015261561b6000f3fe608060405234801561001057600080fd5b50600436106101735760003560e01c8063715018a6116100de578063bf63d48e11610097578063cfefe9ff11610071578063cfefe9ff14610470578063e985e9c51461048c578063ececbbb1146104bc578063f2fde38b146104ec57610173565b8063bf63d48e14610406578063c87b56dd14610422578063c89bfa0b1461045257610173565b8063715018a61461035857806380ede329146103625780638da5cb5b1461039257806395d89b41146103b0578063a22cb465146103ce578063b88d4fde146103ea57610173565b806323b872dd1161013057806323b872dd1461027257806329cb924d1461028e57806342842e0e146102ac5780635c622a0e146102c85780636352211e146102f857806370a082311461032857610173565b806301ffc9a71461017857806306fdde03146101a8578063081812fc146101c6578063095ea7b3146101f65780631916d695146102125780631fb919a314610242575b600080fd5b610192600480360381019061018d91906135bb565b610508565b60405161019f9190613603565b60405180910390f35b6101b06105ea565b6040516101bd91906136ae565b60405180910390f35b6101e060048036038101906101db9190613706565b61067c565b6040516101ed9190613774565b60405180910390f35b610210600480360381019061020b91906137bb565b6106c2565b005b61022c60048036038101906102279190613706565b6107d9565b604051610239919061380a565b60405180910390f35b61025c60048036038101906102579190613706565b610817565b604051610269919061380a565b60405180910390f35b61028c60048036038101906102879190613825565b610855565b005b6102966108b5565b6040516102a3919061380a565b60405180910390f35b6102c660048036038101906102c19190613825565b6108cf565b005b6102e260048036038101906102dd9190613706565b6108ef565b6040516102ef91906138ef565b60405180910390f35b610312600480360381019061030d9190613706565b610b1e565b60405161031f9190613774565b60405180910390f35b610342600480360381019061033d919061390a565b610ba4565b60405161034f919061380a565b60405180910390f35b610360610c5b565b005b61037c60048036038101906103779190613706565b610c6f565b6040516103899190613bc0565b60405180910390f35b61039a610fa2565b6040516103a79190613774565b60405180910390f35b6103b8610fcb565b6040516103c591906136ae565b60405180910390f35b6103e860048036038101906103e39190613c0e565b61105d565b005b61040460048036038101906103ff9190613d83565b611073565b005b610420600480360381019061041b9190613f9b565b6110d5565b005b61043c60048036038101906104379190613706565b611498565b60405161044991906136ae565b60405180910390f35b61045a6115aa565b60405161046791906140b1565b60405180910390f35b61048a600480360381019061048591906141ad565b6115ce565b005b6104a660048036038101906104a1919061421c565b611b62565b6040516104b39190613603565b60405180910390f35b6104d660048036038101906104d19190613706565b611bf6565b6040516104e3919061426b565b60405180910390f35b6105066004803603810190610501919061390a565b611dce565b005b60007f80ac58cd000000000000000000000000000000000000000000000000000000007bffffffffffffffffffffffffffffffffffffffffffffffffffffffff1916827bffffffffffffffffffffffffffffffffffffffffffffffffffffffff191614806105d357507f5b5e139f000000000000000000000000000000000000000000000000000000007bffffffffffffffffffffffffffffffffffffffffffffffffffffffff1916827bffffffffffffffffffffffffffffffffffffffffffffffffffffffff1916145b806105e357506105e282611e51565b5b9050919050565b6060600180546105f9906142b5565b80601f0160208091040260200160405190810160405280929190818152602001828054610625906142b5565b80156106725780601f1061064757610100808354040283529160200191610672565b820191906000526020600020905b81548152906001019060200180831161065557829003601f168201915b5050505050905090565b600061068782611ebb565b6005600083815260200190815260200160002060009054906101000a900473ffffffffffffffffffffffffffffffffffffffff169050919050565b60006106cd82610b1e565b90508073ffffffffffffffffffffffffffffffffffffffff168373ffffffffffffffffffffffffffffffffffffffff160361073d576040517f08c379a000000000000000000000000000000000000000000000000000000000815260040161073490614358565b60405180910390fd5b8073ffffffffffffffffffffffffffffffffffffffff1661075c611f06565b73ffffffffffffffffffffffffffffffffffffffff16148061078b575061078a81610785611f06565b611b62565b5b6107ca576040517f08c379a00000000000000000000000000000000000000000000000000000000081526004016107c1906143ea565b60405180910390fd5b6107d48383611f0e565b505050565b60006009600083815260200190815260200160002060050160019054906101000a900467ffffffffffffffff1667ffffffffffffffff169050919050565b60006009600083815260200190815260200160002060050160099054906101000a900467ffffffffffffffff1667ffffffffffffffff169050919050565b610866610860611f06565b82611fc7565b6108a5576040517f08c379a000000000000000000000000000000000000000000000000000000000815260040161089c9061447c565b60405180910390fd5b6108b083838361205c565b505050565b60006108c043612355565b67ffffffffffffffff16905090565b6108ea83838360405180602001604052806000815250611073565b505050565b60006004600781111561090557610904613878565b5b6009600084815260200190815260200160002060050160009054906101000a900460ff16600781111561093b5761093a613878565b5b148061098d575060078081111561095557610954613878565b5b6009600084815260200190815260200160002060050160009054906101000a900460ff16600781111561098b5761098a613878565b5b145b156109bd576009600083815260200190815260200160002060050160009054906101000a900460ff169050610b19565b6109c643612355565b67ffffffffffffffff166009600084815260200190815260200160002060050160019054906101000a900467ffffffffffffffff1667ffffffffffffffff161115610a145760009050610b19565b610a1d43612355565b67ffffffffffffffff166009600084815260200190815260200160002060050160019054906101000a900467ffffffffffffffff1667ffffffffffffffff1611158015610aaf5750610a6e43612355565b67ffffffffffffffff166009600084815260200190815260200160002060050160099054906101000a900467ffffffffffffffff1667ffffffffffffffff16115b15610abd5760019050610b19565b610ac643612355565b67ffffffffffffffff166009600084815260200190815260200160002060050160099054906101000a900467ffffffffffffffff1667ffffffffffffffff161015610b145760059050610b19565b600090505b919050565b600080610b2a836123ac565b9050600073ffffffffffffffffffffffffffffffffffffffff168173ffffffffffffffffffffffffffffffffffffffff1603610b9b576040517f08c379a0000000000000000000000000000000000000000000000000000000008152600401610b92906144e8565b60405180910390fd5b80915050919050565b60008073ffffffffffffffffffffffffffffffffffffffff168273ffffffffffffffffffffffffffffffffffffffff1603610c14576040517f08c379a0000000000000000000000000000000000000000000000000000000008152600401610c0b9061457a565b60405180910390fd5b600460008373ffffffffffffffffffffffffffffffffffffffff1673ffffffffffffffffffffffffffffffffffffffff168152602001908152602001600020549050919050565b610c636123e9565b610c6d6000612467565b565b610c776134ce565b600060096000848152602001908152602001600020604051806101000160405290816000820160009054906101000a900473ffffffffffffffffffffffffffffffffffffffff1673ffffffffffffffffffffffffffffffffffffffff1673ffffffffffffffffffffffffffffffffffffffff168152602001600182018054610cfe906142b5565b80601f0160208091040260200160405190810160405280929190818152602001828054610d2a906142b5565b8015610d775780601f10610d4c57610100808354040283529160200191610d77565b820191906000526020600020905b815481529060010190602001808311610d5a57829003601f168201915b5050505050815260200160028201548152602001600382018054610d9a906142b5565b80601f0160208091040260200160405190810160405280929190818152602001828054610dc6906142b5565b8015610e135780601f10610de857610100808354040283529160200191610e13565b820191906000526020600020905b815481529060010190602001808311610df657829003601f168201915b5050505050815260200160048201805480602002602001604051908101604052809291908181526020016000905b82821015610eb85783829060005260206000209060020201604051806040016040529081600082015481526020016001820160009054906101000a900460ff166002811115610e9357610e92613878565b5b6002811115610ea557610ea4613878565b5b8152505081526020019060010190610e41565b5050505081526020016005820160009054906101000a900460ff166007811115610ee557610ee4613878565b5b6007811115610ef757610ef6613878565b5b81526020016005820160019054906101000a900467ffffffffffffffff1667ffffffffffffffff1667ffffffffffffffff1681526020016005820160099054906101000a900467ffffffffffffffff1667ffffffffffffffff1667ffffffffffffffff16815250509050610f6a836108ef565b8160a001906007811115610f8157610f80613878565b5b90816007811115610f9557610f94613878565b5b8152505080915050919050565b60008060009054906101000a900473ffffffffffffffffffffffffffffffffffffffff16905090565b606060028054610fda906142b5565b80601f0160208091040260200160405190810160405280929190818152602001828054611006906142b5565b80156110535780601f1061102857610100808354040283529160200191611053565b820191906000526020600020905b81548152906001019060200180831161103657829003601f168201915b5050505050905090565b61106f611068611f06565b838361252b565b5050565b61108461107e611f06565b83611fc7565b6110c3576040517f08c379a00000000000000000000000000000000000000000000000000000000081526004016110ba9061447c565b60405180910390fd5b6110cf84848484612697565b50505050565b6001600a60009054906101000a900473ffffffffffffffffffffffffffffffffffffffff1673ffffffffffffffffffffffffffffffffffffffff166370a08231336040518263ffffffff1660e01b81526004016111329190613774565b602060405180830381865afa15801561114f573d6000803e3d6000fd5b505050506040513d601f19601f8201168201806040525081019061117391906145af565b036111b557336040517fdf0dff290000000000000000000000000000000000000000000000000000000081526004016111ac9190613774565b60405180910390fd5b8267ffffffffffffffff168267ffffffffffffffff160361120f5781836040517fd659fe1c0000000000000000000000000000000000000000000000000000000081526004016112069291906145eb565b60405180910390fd5b61121960086126f3565b60006112256008612709565b9050600061123582898986612717565b9050600060096000838152602001908152602001600020905060005b845181101561131e576000604051806040016040528087848151811061127a57611279614614565b5b602002602001015181526020016000600281111561129b5761129a613878565b5b8152509050826004018190806001815401808255809150506001900390600052602060002090600202016000909190919091506000820151816000015560208201518160010160006101000a81548160ff0219169083600281111561130357611302613878565b5b0217905550505050808061131690614672565b915050611251565b5060008661132b43612355565b61133591906146ba565b9050858161134391906146ba565b8260050160096101000a81548167ffffffffffffffff021916908367ffffffffffffffff16021790558260050160016101000a81548167ffffffffffffffff021916908367ffffffffffffffff160217905550898260010190816113a791906148a2565b50338260000160006101000a81548173ffffffffffffffffffffffffffffffffffffffff021916908373ffffffffffffffffffffffffffffffffffffffff160217905550888260030190816113fc91906148a2565b5060008260050160006101000a81548160ff0219169083600781111561142557611424613878565b5b021790555083826002018190555061143d3385612753565b6114478489612771565b3373ffffffffffffffffffffffffffffffffffffffff1683857fcaec28d2fd95bea310e5592e0b1879eaa1f2cb5d30b0b7c4fabc645d86857c7f60405160405180910390a450505050505050505050565b60606114a382611ebb565b60006007600084815260200190815260200160002080546114c3906142b5565b80601f01602080910402602001604051908101604052809291908181526020018280546114ef906142b5565b801561153c5780601f106115115761010080835404028352916020019161153c565b820191906000526020600020905b81548152906001019060200180831161151f57829003601f168201915b50505050509050600061154d6127de565b905060008151036115625781925050506115a5565b60008251111561159757808260405160200161157f9291906149b0565b604051602081830303815290604052925050506115a5565b6115a0846127f5565b925050505b919050565b7fb9bf276e5ec6559208edd42c1d66f106a1fc3b0b26800d0624ece8adc41e9a5481565b6009600084815260200190815260200160002060000160009054906101000a900473ffffffffffffffffffffffffffffffffffffffff163373ffffffffffffffffffffffffffffffffffffffff168173ffffffffffffffffffffffffffffffffffffffff161461166a576040517fe7d87f6700000000000000000000000000000000000000000000000000000000815260040160405180910390fd5b60006001905060005b6009600087815260200190815260200160002060040180549050811015611aa05760006116f86009600089815260200190815260200160002060040183815481106116c1576116c0614614565b5b906000526020600020906002020160000154886116f3600960008c815260200190815260200160002060020154611498565b61285d565b905060006117208288858151811061171357611712614614565b5b60200260200101516128bd565b905085801561182f5750600a60009054906101000a900473ffffffffffffffffffffffffffffffffffffffff1673ffffffffffffffffffffffffffffffffffffffff16636352211e600960008b815260200190815260200160002060040185815481106117905761178f614614565b5b9060005260206000209060020201600001546040518263ffffffff1660e01b81526004016117be919061380a565b602060405180830381865afa1580156117db573d6000803e3d6000fd5b505050506040513d601f19601f820116820180604052508101906117ff91906149e9565b73ffffffffffffffffffffffffffffffffffffffff168173ffffffffffffffffffffffffffffffffffffffff1614155b156118aa5760096000898152602001908152602001600020600401838154811061185c5761185b614614565b5b9060005260206000209060020201600001546040517f928348d00000000000000000000000000000000000000000000000000000000081526004016118a1919061380a565b60405180910390fd5b851580156119b85750600a60009054906101000a900473ffffffffffffffffffffffffffffffffffffffff1673ffffffffffffffffffffffffffffffffffffffff16636352211e600960008b8152602001908152602001600020600401858154811061191957611918614614565b5b9060005260206000209060020201600001546040518263ffffffff1660e01b8152600401611947919061380a565b602060405180830381865afa158015611964573d6000803e3d6000fd5b505050506040513d601f19601f8201168201806040525081019061198891906149e9565b73ffffffffffffffffffffffffffffffffffffffff168173ffffffffffffffffffffffffffffffffffffffff1614155b15611a28576002600960008a815260200190815260200160002060040184815481106119e7576119e6614614565b5b906000526020600020906002020160010160006101000a81548160ff02191690836002811115611a1a57611a19613878565b5b021790555060009350611a8b565b6001600960008a81526020019081526020016000206004018481548110611a5257611a51614614565b5b906000526020600020906002020160010160006101000a81548160ff02191690836002811115611a8557611a84613878565b5b02179055505b50508080611a9890614672565b915050611673565b508015611aeb5760046009600087815260200190815260200160002060050160006101000a81548160ff02191690836007811115611ae157611ae0613878565b5b0217905550611b2b565b60076009600087815260200190815260200160002060050160006101000a81548160ff02191690836007811115611b2557611b24613878565b5b02179055505b821515857fec2387823ccca09443483ed3c62f09982d5a6fd9c10a7fc7bdfe58811cf3da3960405160405180910390a35050505050565b6000600660008473ffffffffffffffffffffffffffffffffffffffff1673ffffffffffffffffffffffffffffffffffffffff16815260200190815260200160002060008373ffffffffffffffffffffffffffffffffffffffff1673ffffffffffffffffffffffffffffffffffffffff16815260200190815260200160002060009054906101000a900460ff16905092915050565b6000806000905060005b6009600085815260200190815260200160002060040180549050811015611d8b57600a60009054906101000a900473ffffffffffffffffffffffffffffffffffffffff1673ffffffffffffffffffffffffffffffffffffffff16636352211e600960008781526020019081526020016000206004018381548110611c8757611c86614614565b5b9060005260206000209060020201600001546040518263ffffffff1660e01b8152600401611cb5919061380a565b602060405180830381865afa158015611cd2573d6000803e3d6000fd5b505050506040513d601f19601f82011682018060405250810190611cf691906149e9565b73ffffffffffffffffffffffffffffffffffffffff163373ffffffffffffffffffffffffffffffffffffffff1603611d7857600960008581526020019081526020016000206004018181548110611d5057611d4f614614565b5b906000526020600020906002020160010160009054906101000a900460ff1692505050611dc9565b8080611d8390614672565b915050611c00565b5080611dc3576040517fe4e5ff6800000000000000000000000000000000000000000000000000000000815260040160405180910390fd5b60009150505b919050565b611dd66123e9565b600073ffffffffffffffffffffffffffffffffffffffff168173ffffffffffffffffffffffffffffffffffffffff1603611e45576040517f08c379a0000000000000000000000000000000000000000000000000000000008152600401611e3c90614a88565b60405180910390fd5b611e4e81612467565b50565b60007f01ffc9a7000000000000000000000000000000000000000000000000000000007bffffffffffffffffffffffffffffffffffffffffffffffffffffffff1916827bffffffffffffffffffffffffffffffffffffffffffffffffffffffff1916149050919050565b611ec4816128e4565b611f03576040517f08c379a0000000000000000000000000000000000000000000000000000000008152600401611efa906144e8565b60405180910390fd5b50565b600033905090565b816005600083815260200190815260200160002060006101000a81548173ffffffffffffffffffffffffffffffffffffffff021916908373ffffffffffffffffffffffffffffffffffffffff160217905550808273ffffffffffffffffffffffffffffffffffffffff16611f8183610b1e565b73ffffffffffffffffffffffffffffffffffffffff167f8c5be1e5ebec7d5bd14f71427d1e84f3dd0314c0f7b2291e5b200ac8c7c3b92560405160405180910390a45050565b600080611fd383610b1e565b90508073ffffffffffffffffffffffffffffffffffffffff168473ffffffffffffffffffffffffffffffffffffffff16148061201557506120148185611b62565b5b8061205357508373ffffffffffffffffffffffffffffffffffffffff1661203b8461067c565b73ffffffffffffffffffffffffffffffffffffffff16145b91505092915050565b8273ffffffffffffffffffffffffffffffffffffffff1661207c82610b1e565b73ffffffffffffffffffffffffffffffffffffffff16146120d2576040517f08c379a00000000000000000000000000000000000000000000000000000000081526004016120c990614b1a565b60405180910390fd5b600073ffffffffffffffffffffffffffffffffffffffff168273ffffffffffffffffffffffffffffffffffffffff1603612141576040517f08c379a000000000000000000000000000000000000000000000000000000000815260040161213890614bac565b60405180910390fd5b61214e8383836001612925565b8273ffffffffffffffffffffffffffffffffffffffff1661216e82610b1e565b73ffffffffffffffffffffffffffffffffffffffff16146121c4576040517f08c379a00000000000000000000000000000000000000000000000000000000081526004016121bb90614b1a565b60405180910390fd5b6005600082815260200190815260200160002060006101000a81549073ffffffffffffffffffffffffffffffffffffffff02191690556001600460008573ffffffffffffffffffffffffffffffffffffffff1673ffffffffffffffffffffffffffffffffffffffff168152602001908152602001600020600082825403925050819055506001600460008473ffffffffffffffffffffffffffffffffffffffff1673ffffffffffffffffffffffffffffffffffffffff16815260200190815260200160002060008282540192505081905550816003600083815260200190815260200160002060006101000a81548173ffffffffffffffffffffffffffffffffffffffff021916908373ffffffffffffffffffffffffffffffffffffffff160217905550808273ffffffffffffffffffffffffffffffffffffffff168473ffffffffffffffffffffffffffffffffffffffff167fddf252ad1be2c89b69c2b068fc378daa952ba7f163c4a11628f55a4df523b3ef60405160405180910390a46123508383836001612a4b565b505050565b600067ffffffffffffffff80168211156123a4576040517f08c379a000000000000000000000000000000000000000000000000000000000815260040161239b90614c3e565b60405180910390fd5b819050919050565b60006003600083815260200190815260200160002060009054906101000a900473ffffffffffffffffffffffffffffffffffffffff169050919050565b6123f1611f06565b73ffffffffffffffffffffffffffffffffffffffff1661240f610fa2565b73ffffffffffffffffffffffffffffffffffffffff1614612465576040517f08c379a000000000000000000000000000000000000000000000000000000000815260040161245c90614caa565b60405180910390fd5b565b60008060009054906101000a900473ffffffffffffffffffffffffffffffffffffffff169050816000806101000a81548173ffffffffffffffffffffffffffffffffffffffff021916908373ffffffffffffffffffffffffffffffffffffffff1602179055508173ffffffffffffffffffffffffffffffffffffffff168173ffffffffffffffffffffffffffffffffffffffff167f8be0079c531659141344cd1fd0a4f28419497f9722a3daafe3b4186f6b6457e060405160405180910390a35050565b8173ffffffffffffffffffffffffffffffffffffffff168373ffffffffffffffffffffffffffffffffffffffff1603612599576040517f08c379a000000000000000000000000000000000000000000000000000000000815260040161259090614d16565b60405180910390fd5b80600660008573ffffffffffffffffffffffffffffffffffffffff1673ffffffffffffffffffffffffffffffffffffffff16815260200190815260200160002060008473ffffffffffffffffffffffffffffffffffffffff1673ffffffffffffffffffffffffffffffffffffffff16815260200190815260200160002060006101000a81548160ff0219169083151502179055508173ffffffffffffffffffffffffffffffffffffffff168373ffffffffffffffffffffffffffffffffffffffff167f17307eab39ab6107e8899845ad3d59bd9653f200f220920489ca2b5937696c318360405161268a9190613603565b60405180910390a3505050565b6126a284848461205c565b6126ae84848484612a51565b6126ed576040517f08c379a00000000000000000000000000000000000000000000000000000000081526004016126e490614da8565b60405180910390fd5b50505050565b6001816000016000828254019250508190555050565b600081600001549050919050565b6000848484846040516020016127309493929190614ec1565b6040516020818303038152906040528051906020012060001c9050949350505050565b61276d828260405180602001604052806000815250612bd8565b5050565b61277a826128e4565b6127b9576040517f08c379a00000000000000000000000000000000000000000000000000000000081526004016127b090614f8d565b60405180910390fd5b806007600084815260200190815260200160002090816127d99190615008565b505050565b606060405180602001604052806000815250905090565b606061280082611ebb565b600061280a6127de565b9050600081511161282a5760405180602001604052806000815250612855565b8061283484612c33565b6040516020016128459291906149b0565b6040516020818303038152906040525b915050919050565b60006128b47fb9bf276e5ec6559208edd42c1d66f106a1fc3b0b26800d0624ece8adc41e9a5485858560405160200161289994939291906150da565b60405160208183030381529060405280519060200120612d01565b90509392505050565b60008060006128cc8585612d1b565b915091506128d981612d6c565b819250505092915050565b60008073ffffffffffffffffffffffffffffffffffffffff16612906836123ac565b73ffffffffffffffffffffffffffffffffffffffff1614159050919050565b6001811115612a4557600073ffffffffffffffffffffffffffffffffffffffff168473ffffffffffffffffffffffffffffffffffffffff16146129b95780600460008673ffffffffffffffffffffffffffffffffffffffff1673ffffffffffffffffffffffffffffffffffffffff16815260200190815260200160002060008282546129b19190615126565b925050819055505b600073ffffffffffffffffffffffffffffffffffffffff168373ffffffffffffffffffffffffffffffffffffffff1614612a445780600460008573ffffffffffffffffffffffffffffffffffffffff1673ffffffffffffffffffffffffffffffffffffffff1681526020019081526020016000206000828254612a3c919061515a565b925050819055505b5b50505050565b50505050565b6000612a728473ffffffffffffffffffffffffffffffffffffffff16612ed2565b15612bcb578373ffffffffffffffffffffffffffffffffffffffff1663150b7a02612a9b611f06565b8786866040518563ffffffff1660e01b8152600401612abd949392919061518e565b6020604051808303816000875af1925050508015612af957506040513d601f19601f82011682018060405250810190612af691906151ef565b60015b612b7b573d8060008114612b29576040519150601f19603f3d011682016040523d82523d6000602084013e612b2e565b606091505b506000815103612b73576040517f08c379a0000000000000000000000000000000000000000000000000000000008152600401612b6a90614da8565b60405180910390fd5b805181602001fd5b63150b7a0260e01b7bffffffffffffffffffffffffffffffffffffffffffffffffffffffff1916817bffffffffffffffffffffffffffffffffffffffffffffffffffffffff191614915050612bd0565b600190505b949350505050565b612be28383612ef5565b612bef6000848484612a51565b612c2e576040517f08c379a0000000000000000000000000000000000000000000000000000000008152600401612c2590614da8565b60405180910390fd5b505050565b606060006001612c4284613112565b01905060008167ffffffffffffffff811115612c6157612c60613c58565b5b6040519080825280601f01601f191660200182016040528015612c935781602001600182028036833780820191505090505b509050600082602001820190505b600115612cf6578080600190039150507f3031323334353637383961626364656600000000000000000000000000000000600a86061a8153600a8581612cea57612ce961521c565b5b04945060008503612ca1575b819350505050919050565b6000612d14612d0e613265565b8361337f565b9050919050565b6000806041835103612d5c5760008060006020860151925060408601519150606086015160001a9050612d50878285856133b2565b94509450505050612d65565b60006002915091505b9250929050565b60006004811115612d8057612d7f613878565b5b816004811115612d9357612d92613878565b5b0315612ecf5760016004811115612dad57612dac613878565b5b816004811115612dc057612dbf613878565b5b03612e00576040517f08c379a0000000000000000000000000000000000000000000000000000000008152600401612df790615297565b60405180910390fd5b60026004811115612e1457612e13613878565b5b816004811115612e2757612e26613878565b5b03612e67576040517f08c379a0000000000000000000000000000000000000000000000000000000008152600401612e5e90615303565b60405180910390fd5b60036004811115612e7b57612e7a613878565b5b816004811115612e8e57612e8d613878565b5b03612ece576040517f08c379a0000000000000000000000000000000000000000000000000000000008152600401612ec590615395565b60405180910390fd5b5b50565b6000808273ffffffffffffffffffffffffffffffffffffffff163b119050919050565b600073ffffffffffffffffffffffffffffffffffffffff168273ffffffffffffffffffffffffffffffffffffffff1603612f64576040517f08c379a0000000000000000000000000000000000000000000000000000000008152600401612f5b90615401565b60405180910390fd5b612f6d816128e4565b15612fad576040517f08c379a0000000000000000000000000000000000000000000000000000000008152600401612fa49061546d565b60405180910390fd5b612fbb600083836001612925565b612fc4816128e4565b15613004576040517f08c379a0000000000000000000000000000000000000000000000000000000008152600401612ffb9061546d565b60405180910390fd5b6001600460008473ffffffffffffffffffffffffffffffffffffffff1673ffffffffffffffffffffffffffffffffffffffff16815260200190815260200160002060008282540192505081905550816003600083815260200190815260200160002060006101000a81548173ffffffffffffffffffffffffffffffffffffffff021916908373ffffffffffffffffffffffffffffffffffffffff160217905550808273ffffffffffffffffffffffffffffffffffffffff16600073ffffffffffffffffffffffffffffffffffffffff167fddf252ad1be2c89b69c2b068fc378daa952ba7f163c4a11628f55a4df523b3ef60405160405180910390a461310e600083836001612a4b565b5050565b600080600090507a184f03e93ff9f4daa797ed6e38ed64bf6a1f0100000000000000008310613170577a184f03e93ff9f4daa797ed6e38ed64bf6a1f01000000000000000083816131665761316561521c565b5b0492506040810190505b6d04ee2d6d415b85acef810000000083106131ad576d04ee2d6d415b85acef810000000083816131a3576131a261521c565b5b0492506020810190505b662386f26fc1000083106131dc57662386f26fc1000083816131d2576131d161521c565b5b0492506010810190505b6305f5e1008310613205576305f5e10083816131fb576131fa61521c565b5b0492506008810190505b612710831061322a5761271083816132205761321f61521c565b5b0492506004810190505b6064831061324d57606483816132435761324261521c565b5b0492506002810190505b600a831061325c576001810190505b80915050919050565b60007f000000000000000000000000000000000000000000000000000000000000000073ffffffffffffffffffffffffffffffffffffffff163073ffffffffffffffffffffffffffffffffffffffff161480156132e157507f000000000000000000000000000000000000000000000000000000000000000046145b1561330e577f0000000000000000000000000000000000000000000000000000000000000000905061337c565b6133797f00000000000000000000000000000000000000000000000000000000000000007f00000000000000000000000000000000000000000000000000000000000000007f0000000000000000000000000000000000000000000000000000000000000000613494565b90505b90565b600082826040516020016133949291906154fa565b60405160208183030381529060405280519060200120905092915050565b6000807f7fffffffffffffffffffffffffffffff5d576e7357a4501ddfe92f46681b20a08360001c11156133ed57600060039150915061348b565b600060018787878760405160008152602001604052604051613412949392919061554d565b6020604051602081039080840390855afa158015613434573d6000803e3d6000fd5b505050602060405103519050600073ffffffffffffffffffffffffffffffffffffffff168173ffffffffffffffffffffffffffffffffffffffff16036134825760006001925092505061348b565b80600092509250505b94509492505050565b600083838346306040516020016134af959493929190615592565b6040516020818303038152906040528051906020012090509392505050565b604051806101000160405280600073ffffffffffffffffffffffffffffffffffffffff168152602001606081526020016000815260200160608152602001606081526020016000600781111561352757613526613878565b5b8152602001600067ffffffffffffffff168152602001600067ffffffffffffffff1681525090565b6000604051905090565b600080fd5b600080fd5b60007fffffffff0000000000000000000000000000000000000000000000000000000082169050919050565b61359881613563565b81146135a357600080fd5b50565b6000813590506135b58161358f565b92915050565b6000602082840312156135d1576135d0613559565b5b60006135df848285016135a6565b91505092915050565b60008115159050919050565b6135fd816135e8565b82525050565b600060208201905061361860008301846135f4565b92915050565b600081519050919050565b600082825260208201905092915050565b60005b8381101561365857808201518184015260208101905061363d565b60008484015250505050565b6000601f19601f8301169050919050565b60006136808261361e565b61368a8185613629565b935061369a81856020860161363a565b6136a381613664565b840191505092915050565b600060208201905081810360008301526136c88184613675565b905092915050565b6000819050919050565b6136e3816136d0565b81146136ee57600080fd5b50565b600081359050613700816136da565b92915050565b60006020828403121561371c5761371b613559565b5b600061372a848285016136f1565b91505092915050565b600073ffffffffffffffffffffffffffffffffffffffff82169050919050565b600061375e82613733565b9050919050565b61376e81613753565b82525050565b60006020820190506137896000830184613765565b92915050565b61379881613753565b81146137a357600080fd5b50565b6000813590506137b58161378f565b92915050565b600080604083850312156137d2576137d1613559565b5b60006137e0858286016137a6565b92505060206137f1858286016136f1565b9150509250929050565b613804816136d0565b82525050565b600060208201905061381f60008301846137fb565b92915050565b60008060006060848603121561383e5761383d613559565b5b600061384c868287016137a6565b935050602061385d868287016137a6565b925050604061386e868287016136f1565b9150509250925092565b7f4e487b7100000000000000000000000000000000000000000000000000000000600052602160045260246000fd5b600881106138b8576138b7613878565b5b50565b60008190506138c9826138a7565b919050565b60006138d9826138bb565b9050919050565b6138e9816138ce565b82525050565b600060208201905061390460008301846138e0565b92915050565b6000602082840312156139205761391f613559565b5b600061392e848285016137a6565b91505092915050565b61394081613753565b82525050565b600081519050919050565b600082825260208201905092915050565b600061396d82613946565b6139778185613951565b935061398781856020860161363a565b61399081613664565b840191505092915050565b6139a4816136d0565b82525050565b600081519050919050565b600082825260208201905092915050565b6000819050602082019050919050565b600381106139e7576139e6613878565b5b50565b60008190506139f8826139d6565b919050565b6000613a08826139ea565b9050919050565b613a18816139fd565b82525050565b604082016000820151613a34600085018261399b565b506020820151613a476020850182613a0f565b50505050565b6000613a598383613a1e565b60408301905092915050565b6000602082019050919050565b6000613a7d826139aa565b613a8781856139b5565b9350613a92836139c6565b8060005b83811015613ac3578151613aaa8882613a4d565b9750613ab583613a65565b925050600181019050613a96565b5085935050505092915050565b613ad9816138ce565b82525050565b600067ffffffffffffffff82169050919050565b613afc81613adf565b82525050565b600061010083016000830151613b1b6000860182613937565b5060208301518482036020860152613b338282613962565b9150506040830151613b48604086018261399b565b5060608301518482036060860152613b608282613962565b91505060808301518482036080860152613b7a8282613a72565b91505060a0830151613b8f60a0860182613ad0565b5060c0830151613ba260c0860182613af3565b5060e0830151613bb560e0860182613af3565b508091505092915050565b60006020820190508181036000830152613bda8184613b02565b905092915050565b613beb816135e8565b8114613bf657600080fd5b50565b600081359050613c0881613be2565b92915050565b60008060408385031215613c2557613c24613559565b5b6000613c33858286016137a6565b9250506020613c4485828601613bf9565b9150509250929050565b600080fd5b600080fd5b7f4e487b7100000000000000000000000000000000000000000000000000000000600052604160045260246000fd5b613c9082613664565b810181811067ffffffffffffffff82111715613caf57613cae613c58565b5b80604052505050565b6000613cc261354f565b9050613cce8282613c87565b919050565b600067ffffffffffffffff821115613cee57613ced613c58565b5b613cf782613664565b9050602081019050919050565b82818337600083830152505050565b6000613d26613d2184613cd3565b613cb8565b905082815260208101848484011115613d4257613d41613c53565b5b613d4d848285613d04565b509392505050565b600082601f830112613d6a57613d69613c4e565b5b8135613d7a848260208601613d13565b91505092915050565b60008060008060808587031215613d9d57613d9c613559565b5b6000613dab878288016137a6565b9450506020613dbc878288016137a6565b9350506040613dcd878288016136f1565b925050606085013567ffffffffffffffff811115613dee57613ded61355e565b5b613dfa87828801613d55565b91505092959194509250565b600067ffffffffffffffff821115613e2157613e20613c58565b5b613e2a82613664565b9050602081019050919050565b6000613e4a613e4584613e06565b613cb8565b905082815260208101848484011115613e6657613e65613c53565b5b613e71848285613d04565b509392505050565b600082601f830112613e8e57613e8d613c4e565b5b8135613e9e848260208601613e37565b91505092915050565b613eb081613adf565b8114613ebb57600080fd5b50565b600081359050613ecd81613ea7565b92915050565b600067ffffffffffffffff821115613eee57613eed613c58565b5b602082029050602081019050919050565b600080fd5b6000613f17613f1284613ed3565b613cb8565b90508083825260208201905060208402830185811115613f3a57613f39613eff565b5b835b81811015613f635780613f4f88826136f1565b845260208401935050602081019050613f3c565b5050509392505050565b600082601f830112613f8257613f81613c4e565b5b8135613f92848260208601613f04565b91505092915050565b60008060008060008060c08789031215613fb857613fb7613559565b5b600087013567ffffffffffffffff811115613fd657613fd561355e565b5b613fe289828a01613d55565b965050602087013567ffffffffffffffff8111156140035761400261355e565b5b61400f89828a01613d55565b955050604087013567ffffffffffffffff8111156140305761402f61355e565b5b61403c89828a01613e79565b945050606061404d89828a01613ebe565b935050608061405e89828a01613ebe565b92505060a087013567ffffffffffffffff81111561407f5761407e61355e565b5b61408b89828a01613f6d565b9150509295509295509295565b6000819050919050565b6140ab81614098565b82525050565b60006020820190506140c660008301846140a2565b92915050565b600067ffffffffffffffff8211156140e7576140e6613c58565b5b602082029050602081019050919050565b600061410b614106846140cc565b613cb8565b9050808382526020820190506020840283018581111561412e5761412d613eff565b5b835b8181101561417557803567ffffffffffffffff81111561415357614152613c4e565b5b8086016141608982613d55565b85526020850194505050602081019050614130565b5050509392505050565b600082601f83011261419457614193613c4e565b5b81356141a48482602086016140f8565b91505092915050565b6000806000606084860312156141c6576141c5613559565b5b60006141d4868287016136f1565b935050602084013567ffffffffffffffff8111156141f5576141f461355e565b5b6142018682870161417f565b925050604061421286828701613bf9565b9150509250925092565b6000806040838503121561423357614232613559565b5b6000614241858286016137a6565b9250506020614252858286016137a6565b9150509250929050565b614265816139fd565b82525050565b6000602082019050614280600083018461425c565b92915050565b7f4e487b7100000000000000000000000000000000000000000000000000000000600052602260045260246000fd5b600060028204905060018216806142cd57607f821691505b6020821081036142e0576142df614286565b5b50919050565b7f4552433732313a20617070726f76616c20746f2063757272656e74206f776e6560008201527f7200000000000000000000000000000000000000000000000000000000000000602082015250565b6000614342602183613629565b915061434d826142e6565b604082019050919050565b6000602082019050818103600083015261437181614335565b9050919050565b7f4552433732313a20617070726f76652063616c6c6572206973206e6f7420746f60008201527f6b656e206f776e6572206f7220617070726f76656420666f7220616c6c000000602082015250565b60006143d4603d83613629565b91506143df82614378565b604082019050919050565b60006020820190508181036000830152614403816143c7565b9050919050565b7f4552433732313a2063616c6c6572206973206e6f7420746f6b656e206f776e6560008201527f72206f7220617070726f76656400000000000000000000000000000000000000602082015250565b6000614466602d83613629565b91506144718261440a565b604082019050919050565b6000602082019050818103600083015261449581614459565b9050919050565b7f4552433732313a20696e76616c696420746f6b656e2049440000000000000000600082015250565b60006144d2601883613629565b91506144dd8261449c565b602082019050919050565b60006020820190508181036000830152614501816144c5565b9050919050565b7f4552433732313a2061646472657373207a65726f206973206e6f74206120766160008201527f6c6964206f776e65720000000000000000000000000000000000000000000000602082015250565b6000614564602983613629565b915061456f82614508565b604082019050919050565b6000602082019050818103600083015261459381614557565b9050919050565b6000815190506145a9816136da565b92915050565b6000602082840312156145c5576145c4613559565b5b60006145d38482850161459a565b91505092915050565b6145e581613adf565b82525050565b600060408201905061460060008301856145dc565b61460d60208301846145dc565b9392505050565b7f4e487b7100000000000000000000000000000000000000000000000000000000600052603260045260246000fd5b7f4e487b7100000000000000000000000000000000000000000000000000000000600052601160045260246000fd5b600061467d826136d0565b91507fffffffffffffffffffffffffffffffffffffffffffffffffffffffffffffffff82036146af576146ae614643565b5b600182019050919050565b60006146c582613adf565b91506146d083613adf565b9250828201905067ffffffffffffffff8111156146f0576146ef614643565b5b92915050565b60008190508160005260206000209050919050565b60006020601f8301049050919050565b600082821b905092915050565b6000600883026147587fffffffffffffffffffffffffffffffffffffffffffffffffffffffffffffffff8261471b565b614762868361471b565b95508019841693508086168417925050509392505050565b6000819050919050565b600061479f61479a614795846136d0565b61477a565b6136d0565b9050919050565b6000819050919050565b6147b983614784565b6147cd6147c5826147a6565b848454614728565b825550505050565b600090565b6147e26147d5565b6147ed8184846147b0565b505050565b5b81811015614811576148066000826147da565b6001810190506147f3565b5050565b601f82111561485657614827816146f6565b6148308461470b565b8101602085101561483f578190505b61485361484b8561470b565b8301826147f2565b50505b505050565b600082821c905092915050565b60006148796000198460080261485b565b1980831691505092915050565b60006148928383614868565b9150826002028217905092915050565b6148ab82613946565b67ffffffffffffffff8111156148c4576148c3613c58565b5b6148ce82546142b5565b6148d9828285614815565b600060209050601f83116001811461490c57600084156148fa578287015190505b6149048582614886565b86555061496c565b601f19841661491a866146f6565b60005b828110156149425784890151825560018201915060208501945060208101905061491d565b8683101561495f578489015161495b601f891682614868565b8355505b6001600288020188555050505b505050505050565b600081905092915050565b600061498a8261361e565b6149948185614974565b93506149a481856020860161363a565b80840191505092915050565b60006149bc828561497f565b91506149c8828461497f565b91508190509392505050565b6000815190506149e38161378f565b92915050565b6000602082840312156149ff576149fe613559565b5b6000614a0d848285016149d4565b91505092915050565b7f4f776e61626c653a206e6577206f776e657220697320746865207a65726f206160008201527f6464726573730000000000000000000000000000000000000000000000000000602082015250565b6000614a72602683613629565b9150614a7d82614a16565b604082019050919050565b60006020820190508181036000830152614aa181614a65565b9050919050565b7f4552433732313a207472616e736665722066726f6d20696e636f72726563742060008201527f6f776e6572000000000000000000000000000000000000000000000000000000602082015250565b6000614b04602583613629565b9150614b0f82614aa8565b604082019050919050565b60006020820190508181036000830152614b3381614af7565b9050919050565b7f4552433732313a207472616e7366657220746f20746865207a65726f2061646460008201527f7265737300000000000000000000000000000000000000000000000000000000602082015250565b6000614b96602483613629565b9150614ba182614b3a565b604082019050919050565b60006020820190508181036000830152614bc581614b89565b9050919050565b7f53616665436173743a2076616c756520646f65736e27742066697420696e203660008201527f3420626974730000000000000000000000000000000000000000000000000000602082015250565b6000614c28602683613629565b9150614c3382614bcc565b604082019050919050565b60006020820190508181036000830152614c5781614c1b565b9050919050565b7f4f776e61626c653a2063616c6c6572206973206e6f7420746865206f776e6572600082015250565b6000614c94602083613629565b9150614c9f82614c5e565b602082019050919050565b60006020820190508181036000830152614cc381614c87565b9050919050565b7f4552433732313a20617070726f766520746f2063616c6c657200000000000000600082015250565b6000614d00601983613629565b9150614d0b82614cca565b602082019050919050565b60006020820190508181036000830152614d2f81614cf3565b9050919050565b7f4552433732313a207472616e7366657220746f206e6f6e20455243373231526560008201527f63656976657220696d706c656d656e7465720000000000000000000000000000602082015250565b6000614d92603283613629565b9150614d9d82614d36565b604082019050919050565b60006020820190508181036000830152614dc181614d85565b9050919050565b600082825260208201905092915050565b6000614de482613946565b614dee8185614dc8565b9350614dfe81856020860161363a565b614e0781613664565b840191505092915050565b600081519050919050565b600082825260208201905092915050565b6000819050602082019050919050565b6000614e4a838361399b565b60208301905092915050565b6000602082019050919050565b6000614e6e82614e12565b614e788185614e1d565b9350614e8383614e2e565b8060005b83811015614eb4578151614e9b8882614e3e565b9750614ea683614e56565b925050600181019050614e87565b5085935050505092915050565b6000608082019050614ed660008301876137fb565b8181036020830152614ee88186614dd9565b90508181036040830152614efc8185614dd9565b90508181036060830152614f108184614e63565b905095945050505050565b7f45524337323155524953746f726167653a2055524920736574206f66206e6f6e60008201527f6578697374656e7420746f6b656e000000000000000000000000000000000000602082015250565b6000614f77602e83613629565b9150614f8282614f1b565b604082019050919050565b60006020820190508181036000830152614fa681614f6a565b9050919050565b60008190508160005260206000209050919050565b601f82111561500357614fd481614fad565b614fdd8461470b565b81016020851015614fec578190505b615000614ff88561470b565b8301826147f2565b50505b505050565b6150118261361e565b67ffffffffffffffff81111561502a57615029613c58565b5b61503482546142b5565b61503f828285614fc2565b600060209050601f8311600181146150725760008415615060578287015190505b61506a8582614886565b8655506150d2565b601f19841661508086614fad565b60005b828110156150a857848901518255600182019150602085019450602081019050615083565b868310156150c557848901516150c1601f891682614868565b8355505b6001600288020188555050505b505050505050565b60006080820190506150ef60008301876140a2565b6150fc60208301866137fb565b61510960408301856137fb565b818103606083015261511b8184613675565b905095945050505050565b6000615131826136d0565b915061513c836136d0565b925082820390508181111561515457615153614643565b5b92915050565b6000615165826136d0565b9150615170836136d0565b925082820190508082111561518857615187614643565b5b92915050565b60006080820190506151a36000830187613765565b6151b06020830186613765565b6151bd60408301856137fb565b81810360608301526151cf8184614dd9565b905095945050505050565b6000815190506151e98161358f565b92915050565b60006020828403121561520557615204613559565b5b6000615213848285016151da565b91505092915050565b7f4e487b7100000000000000000000000000000000000000000000000000000000600052601260045260246000fd5b7f45434453413a20696e76616c6964207369676e61747572650000000000000000600082015250565b6000615281601883613629565b915061528c8261524b565b602082019050919050565b600060208201905081810360008301526152b081615274565b9050919050565b7f45434453413a20696e76616c6964207369676e6174757265206c656e67746800600082015250565b60006152ed601f83613629565b91506152f8826152b7565b602082019050919050565b6000602082019050818103600083015261531c816152e0565b9050919050565b7f45434453413a20696e76616c6964207369676e6174757265202773272076616c60008201527f7565000000000000000000000000000000000000000000000000000000000000602082015250565b600061537f602283613629565b915061538a82615323565b604082019050919050565b600060208201905081810360008301526153ae81615372565b9050919050565b7f4552433732313a206d696e7420746f20746865207a65726f2061646472657373600082015250565b60006153eb602083613629565b91506153f6826153b5565b602082019050919050565b6000602082019050818103600083015261541a816153de565b9050919050565b7f4552433732313a20746f6b656e20616c7265616479206d696e74656400000000600082015250565b6000615457601c83613629565b915061546282615421565b602082019050919050565b600060208201905081810360008301526154868161544a565b9050919050565b7f1901000000000000000000000000000000000000000000000000000000000000600082015250565b60006154c3600283614974565b91506154ce8261548d565b600282019050919050565b6000819050919050565b6154f46154ef82614098565b6154d9565b82525050565b6000615505826154b6565b915061551182856154e3565b60208201915061552182846154e3565b6020820191508190509392505050565b600060ff82169050919050565b61554781615531565b82525050565b600060808201905061556260008301876140a2565b61556f602083018661553e565b61557c60408301856140a2565b61558960608301846140a2565b95945050505050565b600060a0820190506155a760008301886140a2565b6155b460208301876140a2565b6155c160408301866140a2565b6155ce60608301856137fb565b6155db6080830184613765565b969550505050505056fea26469706673582212202e530a530926d29ffee2b3c5e3ff0c01955a1ffffc77595eff5a9e8ab145668d64736f6c63430008110033",
  "devdoc": {
    "kind": "dev",
    "methods": {
      "approve(address,uint256)": {
        "details": "See {IERC721-approve}."
      },
      "balanceOf(address)": {
        "details": "See {IERC721-balanceOf}."
      },
      "getApproved(uint256)": {
        "details": "See {IERC721-getApproved}."
      },
      "isApprovedForAll(address,address)": {
        "details": "See {IERC721-isApprovedForAll}."
      },
      "name()": {
        "details": "See {IERC721Metadata-name}."
      },
      "owner()": {
        "details": "Returns the address of the current owner."
      },
      "ownerOf(uint256)": {
        "details": "See {IERC721-ownerOf}."
      },
      "renounceOwnership()": {
        "details": "Leaves the contract without owner. It will not be possible to call `onlyOwner` functions anymore. Can only be called by the current owner. NOTE: Renouncing ownership will leave the contract without an owner, thereby removing any functionality that is only available to the owner."
      },
      "safeTransferFrom(address,address,uint256)": {
        "details": "See {IERC721-safeTransferFrom}."
      },
      "safeTransferFrom(address,address,uint256,bytes)": {
        "details": "See {IERC721-safeTransferFrom}."
      },
      "setApprovalForAll(address,bool)": {
        "details": "See {IERC721-setApprovalForAll}."
      },
      "supportsInterface(bytes4)": {
        "details": "See {IERC165-supportsInterface}."
      },
      "symbol()": {
        "details": "See {IERC721Metadata-symbol}."
      },
      "tokenURI(uint256)": {
        "details": "See {IERC721Metadata-tokenURI}."
      },
      "transferFrom(address,address,uint256)": {
        "details": "See {IERC721-transferFrom}."
      },
      "transferOwnership(address)": {
        "details": "Transfers ownership of the contract to a new account (`newOwner`). Can only be called by the current owner."
      }
    },
    "version": 1
  },
  "userdoc": {
    "kind": "user",
    "methods": {},
    "version": 1
  },
  "storageLayout": {
    "storage": [
      {
        "astId": 2770,
        "contract": "contracts/core/DocumentSignature.sol:DocumentSignature",
        "label": "_owner",
        "offset": 0,
        "slot": "0",
        "type": "t_address"
      },
      {
        "astId": 7825,
        "contract": "contracts/core/DocumentSignature.sol:DocumentSignature",
        "label": "_name",
        "offset": 0,
        "slot": "1",
        "type": "t_string_storage"
      },
      {
        "astId": 7827,
        "contract": "contracts/core/DocumentSignature.sol:DocumentSignature",
        "label": "_symbol",
        "offset": 0,
        "slot": "2",
        "type": "t_string_storage"
      },
      {
        "astId": 7831,
        "contract": "contracts/core/DocumentSignature.sol:DocumentSignature",
        "label": "_owners",
        "offset": 0,
        "slot": "3",
        "type": "t_mapping(t_uint256,t_address)"
      },
      {
        "astId": 7835,
        "contract": "contracts/core/DocumentSignature.sol:DocumentSignature",
        "label": "_balances",
        "offset": 0,
        "slot": "4",
        "type": "t_mapping(t_address,t_uint256)"
      },
      {
        "astId": 7839,
        "contract": "contracts/core/DocumentSignature.sol:DocumentSignature",
        "label": "_tokenApprovals",
        "offset": 0,
        "slot": "5",
        "type": "t_mapping(t_uint256,t_address)"
      },
      {
        "astId": 7845,
        "contract": "contracts/core/DocumentSignature.sol:DocumentSignature",
        "label": "_operatorApprovals",
        "offset": 0,
        "slot": "6",
        "type": "t_mapping(t_address,t_mapping(t_address,t_bool))"
      },
      {
        "astId": 8891,
        "contract": "contracts/core/DocumentSignature.sol:DocumentSignature",
        "label": "_tokenURIs",
        "offset": 0,
        "slot": "7",
        "type": "t_mapping(t_uint256,t_string_storage)"
      },
      {
        "astId": 14647,
        "contract": "contracts/core/DocumentSignature.sol:DocumentSignature",
        "label": "idCount",
        "offset": 0,
        "slot": "8",
        "type": "t_struct(Counter)10809_storage"
      },
      {
        "astId": 14652,
        "contract": "contracts/core/DocumentSignature.sol:DocumentSignature",
        "label": "documentDetials",
        "offset": 0,
        "slot": "9",
        "type": "t_mapping(t_uint256,t_struct(DocumentDetials)16727_storage)"
      },
      {
        "astId": 14654,
        "contract": "contracts/core/DocumentSignature.sol:DocumentSignature",
        "label": "userIdentityNFT",
        "offset": 0,
        "slot": "10",
        "type": "t_address"
      }
    ],
    "types": {
      "t_address": {
        "encoding": "inplace",
        "label": "address",
        "numberOfBytes": "20"
      },
      "t_array(t_struct(Party)16733_storage)dyn_storage": {
        "base": "t_struct(Party)16733_storage",
        "encoding": "dynamic_array",
        "label": "struct IDocumentSignature.Party[]",
        "numberOfBytes": "32"
      },
      "t_bool": {
        "encoding": "inplace",
        "label": "bool",
        "numberOfBytes": "1"
      },
      "t_bytes_storage": {
        "encoding": "bytes",
        "label": "bytes",
        "numberOfBytes": "32"
      },
      "t_enum(DocumentState)16746": {
        "encoding": "inplace",
        "label": "enum IDocumentSignature.DocumentState",
        "numberOfBytes": "1"
      },
      "t_enum(SignatureStatus)16737": {
        "encoding": "inplace",
        "label": "enum IDocumentSignature.SignatureStatus",
        "numberOfBytes": "1"
      },
      "t_mapping(t_address,t_bool)": {
        "encoding": "mapping",
        "key": "t_address",
        "label": "mapping(address => bool)",
        "numberOfBytes": "32",
        "value": "t_bool"
      },
      "t_mapping(t_address,t_mapping(t_address,t_bool))": {
        "encoding": "mapping",
        "key": "t_address",
        "label": "mapping(address => mapping(address => bool))",
        "numberOfBytes": "32",
        "value": "t_mapping(t_address,t_bool)"
      },
      "t_mapping(t_address,t_uint256)": {
        "encoding": "mapping",
        "key": "t_address",
        "label": "mapping(address => uint256)",
        "numberOfBytes": "32",
        "value": "t_uint256"
      },
      "t_mapping(t_uint256,t_address)": {
        "encoding": "mapping",
        "key": "t_uint256",
        "label": "mapping(uint256 => address)",
        "numberOfBytes": "32",
        "value": "t_address"
      },
      "t_mapping(t_uint256,t_string_storage)": {
        "encoding": "mapping",
        "key": "t_uint256",
        "label": "mapping(uint256 => string)",
        "numberOfBytes": "32",
        "value": "t_string_storage"
      },
      "t_mapping(t_uint256,t_struct(DocumentDetials)16727_storage)": {
        "encoding": "mapping",
        "key": "t_uint256",
        "label": "mapping(uint256 => struct IDocumentSignature.DocumentDetials)",
        "numberOfBytes": "32",
        "value": "t_struct(DocumentDetials)16727_storage"
      },
      "t_string_storage": {
        "encoding": "bytes",
        "label": "string",
        "numberOfBytes": "32"
      },
      "t_struct(Counter)10809_storage": {
        "encoding": "inplace",
        "label": "struct Counters.Counter",
        "members": [
          {
            "astId": 10808,
            "contract": "contracts/core/DocumentSignature.sol:DocumentSignature",
            "label": "_value",
            "offset": 0,
            "slot": "0",
            "type": "t_uint256"
          }
        ],
        "numberOfBytes": "32"
      },
      "t_struct(DocumentDetials)16727_storage": {
        "encoding": "inplace",
        "label": "struct IDocumentSignature.DocumentDetials",
        "members": [
          {
            "astId": 16709,
            "contract": "contracts/core/DocumentSignature.sol:DocumentSignature",
            "label": "creator",
            "offset": 0,
            "slot": "0",
            "type": "t_address"
          },
          {
            "astId": 16711,
            "contract": "contracts/core/DocumentSignature.sol:DocumentSignature",
            "label": "name",
            "offset": 0,
            "slot": "1",
            "type": "t_bytes_storage"
          },
          {
            "astId": 16713,
            "contract": "contracts/core/DocumentSignature.sol:DocumentSignature",
            "label": "tokenId",
            "offset": 0,
            "slot": "2",
            "type": "t_uint256"
          },
          {
            "astId": 16715,
            "contract": "contracts/core/DocumentSignature.sol:DocumentSignature",
            "label": "description",
            "offset": 0,
            "slot": "3",
            "type": "t_bytes_storage"
          },
          {
            "astId": 16719,
            "contract": "contracts/core/DocumentSignature.sol:DocumentSignature",
            "label": "parties",
            "offset": 0,
            "slot": "4",
            "type": "t_array(t_struct(Party)16733_storage)dyn_storage"
          },
          {
            "astId": 16722,
            "contract": "contracts/core/DocumentSignature.sol:DocumentSignature",
            "label": "status",
            "offset": 0,
            "slot": "5",
            "type": "t_enum(DocumentState)16746"
          },
          {
            "astId": 16724,
            "contract": "contracts/core/DocumentSignature.sol:DocumentSignature",
            "label": "signatureStart",
            "offset": 1,
            "slot": "5",
            "type": "t_uint64"
          },
          {
            "astId": 16726,
            "contract": "contracts/core/DocumentSignature.sol:DocumentSignature",
            "label": "signatureEnd",
            "offset": 9,
            "slot": "5",
            "type": "t_uint64"
          }
        ],
        "numberOfBytes": "192"
      },
      "t_struct(Party)16733_storage": {
        "encoding": "inplace",
        "label": "struct IDocumentSignature.Party",
        "members": [
          {
            "astId": 16729,
            "contract": "contracts/core/DocumentSignature.sol:DocumentSignature",
            "label": "tokenId",
            "offset": 0,
            "slot": "0",
            "type": "t_uint256"
          },
          {
            "astId": 16732,
            "contract": "contracts/core/DocumentSignature.sol:DocumentSignature",
            "label": "status",
            "offset": 0,
            "slot": "1",
            "type": "t_enum(SignatureStatus)16737"
          }
        ],
        "numberOfBytes": "64"
      },
      "t_uint256": {
        "encoding": "inplace",
        "label": "uint256",
        "numberOfBytes": "32"
      },
      "t_uint64": {
        "encoding": "inplace",
        "label": "uint64",
        "numberOfBytes": "8"
      }
    }
  }
}