{
  "address": "0x0DCd1Bf9A1b36cE34237eEaFef220932846BCD82",
  "abi": [
    {
      "inputs": [
        {
          "internalType": "address",
          "name": "_linkToken",
          "type": "address"
        },
        {
          "internalType": "address",
          "name": "_oricle",
          "type": "address"
        },
        {
          "internalType": "bytes32",
          "name": "_jobId",
          "type": "bytes32"
        },
        {
          "internalType": "uint256",
          "name": "_fee",
          "type": "uint256"
        },
        {
          "internalType": "address",
          "name": "_orcaleUrlProvider",
          "type": "address"
        },
        {
          "internalType": "address",
          "name": "userIdentityNFTser",
          "type": "address"
        }
      ],
      "stateMutability": "nonpayable",
      "type": "constructor"
    },
    {
      "inputs": [
        {
          "internalType": "address",
          "name": "userAddress",
          "type": "address"
        }
      ],
      "name": "FigurePrintOracle__ExceedNumberTries",
      "type": "error"
    },
    {
      "inputs": [],
      "name": "FigurePrintOracle__FailToWithDrawAmount",
      "type": "error"
    },
    {
      "inputs": [],
      "name": "FigurePrintOracle__NoAmountForWithDraw",
      "type": "error"
    },
    {
      "inputs": [],
      "name": "FigurePrintOracle__NotVerifer",
      "type": "error"
    },
    {
      "inputs": [
        {
          "internalType": "address",
          "name": "userAddress",
          "type": "address"
        }
      ],
      "name": "FigurePrintOracle__RequestAlreadyExist",
      "type": "error"
    },
    {
      "inputs": [
        {
          "internalType": "address",
          "name": "userAddress",
          "type": "address"
        }
      ],
      "name": "FigurePrintOracle__VerficationAlreadyDone",
      "type": "error"
    },
    {
      "anonymous": false,
      "inputs": [
        {
          "indexed": true,
          "internalType": "bytes32",
          "name": "id",
          "type": "bytes32"
        }
      ],
      "name": "ChainlinkCancelled",
      "type": "event"
    },
    {
      "anonymous": false,
      "inputs": [
        {
          "indexed": true,
          "internalType": "bytes32",
          "name": "id",
          "type": "bytes32"
        }
      ],
      "name": "ChainlinkFulfilled",
      "type": "event"
    },
    {
      "anonymous": false,
      "inputs": [
        {
          "indexed": true,
          "internalType": "bytes32",
          "name": "id",
          "type": "bytes32"
        }
      ],
      "name": "ChainlinkRequested",
      "type": "event"
    },
    {
      "anonymous": false,
      "inputs": [
        {
          "indexed": true,
          "internalType": "address",
          "name": "buyer",
          "type": "address"
        },
        {
          "indexed": true,
          "internalType": "uint256",
          "name": "amount",
          "type": "uint256"
        }
      ],
      "name": "FallbackCalled",
      "type": "event"
    },
    {
      "anonymous": false,
      "inputs": [
        {
          "indexed": true,
          "internalType": "address",
          "name": "from",
          "type": "address"
        },
        {
          "indexed": true,
          "internalType": "address",
          "name": "to",
          "type": "address"
        }
      ],
      "name": "OwnershipTransferRequested",
      "type": "event"
    },
    {
      "anonymous": false,
      "inputs": [
        {
          "indexed": true,
          "internalType": "address",
          "name": "from",
          "type": "address"
        },
        {
          "indexed": true,
          "internalType": "address",
          "name": "to",
          "type": "address"
        }
      ],
      "name": "OwnershipTransferred",
      "type": "event"
    },
    {
      "anonymous": false,
      "inputs": [
        {
          "indexed": true,
          "internalType": "address",
          "name": "buyer",
          "type": "address"
        },
        {
          "indexed": true,
          "internalType": "uint256",
          "name": "amount",
          "type": "uint256"
        }
      ],
      "name": "ReceivedCalled",
      "type": "event"
    },
    {
      "anonymous": false,
      "inputs": [
        {
          "indexed": true,
          "internalType": "bytes32",
          "name": "role",
          "type": "bytes32"
        },
        {
          "indexed": true,
          "internalType": "bytes32",
          "name": "previousAdminRole",
          "type": "bytes32"
        },
        {
          "indexed": true,
          "internalType": "bytes32",
          "name": "newAdminRole",
          "type": "bytes32"
        }
      ],
      "name": "RoleAdminChanged",
      "type": "event"
    },
    {
      "anonymous": false,
      "inputs": [
        {
          "indexed": true,
          "internalType": "bytes32",
          "name": "role",
          "type": "bytes32"
        },
        {
          "indexed": true,
          "internalType": "address",
          "name": "account",
          "type": "address"
        },
        {
          "indexed": true,
          "internalType": "address",
          "name": "sender",
          "type": "address"
        }
      ],
      "name": "RoleGranted",
      "type": "event"
    },
    {
      "anonymous": false,
      "inputs": [
        {
          "indexed": true,
          "internalType": "bytes32",
          "name": "role",
          "type": "bytes32"
        },
        {
          "indexed": true,
          "internalType": "address",
          "name": "account",
          "type": "address"
        },
        {
          "indexed": true,
          "internalType": "address",
          "name": "sender",
          "type": "address"
        }
      ],
      "name": "RoleRevoked",
      "type": "event"
    },
    {
      "anonymous": false,
      "inputs": [
        {
          "indexed": true,
          "internalType": "address",
          "name": "userAddress",
          "type": "address"
        },
        {
          "indexed": true,
          "internalType": "bytes32",
          "name": "requestId",
          "type": "bytes32"
        },
        {
          "indexed": false,
          "internalType": "string",
          "name": "isVerfied",
          "type": "string"
        }
      ],
      "name": "VerifationResponse",
      "type": "event"
    },
    {
      "anonymous": false,
      "inputs": [
        {
          "indexed": true,
          "internalType": "bytes",
          "name": "userId",
          "type": "bytes"
        },
        {
          "indexed": false,
          "internalType": "bytes32",
          "name": "requestId",
          "type": "bytes32"
        },
        {
          "indexed": false,
          "internalType": "address",
          "name": "userAddress",
          "type": "address"
        }
      ],
      "name": "VerifyFingerPrint",
      "type": "event"
    },
    {
      "anonymous": false,
      "inputs": [
        {
          "indexed": true,
          "internalType": "address",
          "name": "buyer",
          "type": "address"
        },
        {
          "indexed": true,
          "internalType": "uint256",
          "name": "amount",
          "type": "uint256"
        }
      ],
      "name": "WithDrawAmount",
      "type": "event"
    },
    {
      "inputs": [],
      "name": "DEFAULT_ADMIN_ROLE",
      "outputs": [
        {
          "internalType": "bytes32",
          "name": "",
          "type": "bytes32"
        }
      ],
      "stateMutability": "view",
      "type": "function"
    },
    {
      "inputs": [],
      "name": "acceptOwnership",
      "outputs": [],
      "stateMutability": "nonpayable",
      "type": "function"
    },
    {
      "inputs": [],
      "name": "baseUrl",
      "outputs": [
        {
          "internalType": "string",
          "name": "",
          "type": "string"
        }
      ],
      "stateMutability": "view",
      "type": "function"
    },
    {
      "inputs": [
        {
          "internalType": "address",
          "name": "userAddress",
          "type": "address"
        }
      ],
      "name": "burnUserRecord",
      "outputs": [],
      "stateMutability": "nonpayable",
      "type": "function"
    },
    {
      "inputs": [
        {
          "internalType": "bytes32",
          "name": "_requestId",
          "type": "bytes32"
        },
        {
          "internalType": "string",
          "name": "isVerfied",
          "type": "string"
        }
      ],
      "name": "fulfillMultipleParameters",
      "outputs": [],
      "stateMutability": "nonpayable",
      "type": "function"
    },
    {
      "inputs": [],
      "name": "getBaseURI",
      "outputs": [
        {
          "internalType": "string",
          "name": "",
          "type": "string"
        }
      ],
      "stateMutability": "view",
      "type": "function"
    },
    {
      "inputs": [
        {
          "internalType": "bytes32",
          "name": "role",
          "type": "bytes32"
        }
      ],
      "name": "getRoleAdmin",
      "outputs": [
        {
          "internalType": "bytes32",
          "name": "",
          "type": "bytes32"
        }
      ],
      "stateMutability": "view",
      "type": "function"
    },
    {
      "inputs": [
        {
          "internalType": "address",
          "name": "userAddress",
          "type": "address"
        }
      ],
      "name": "getUserRecord",
      "outputs": [
        {
          "components": [
            {
              "internalType": "bytes",
              "name": "userId",
              "type": "bytes"
            },
            {
              "internalType": "uint256",
              "name": "numberTries",
              "type": "uint256"
            },
            {
              "internalType": "enum VerficationStatus",
              "name": "status",
              "type": "uint8"
            }
          ],
          "internalType": "struct VerifcaitonRecord",
          "name": "",
          "type": "tuple"
        }
      ],
      "stateMutability": "view",
      "type": "function"
    },
    {
      "inputs": [
        {
          "internalType": "bytes32",
          "name": "role",
          "type": "bytes32"
        },
        {
          "internalType": "address",
          "name": "account",
          "type": "address"
        }
      ],
      "name": "grantRole",
      "outputs": [],
      "stateMutability": "nonpayable",
      "type": "function"
    },
    {
      "inputs": [
        {
          "internalType": "bytes32",
          "name": "role",
          "type": "bytes32"
        },
        {
          "internalType": "address",
          "name": "account",
          "type": "address"
        }
      ],
      "name": "hasRole",
      "outputs": [
        {
          "internalType": "bool",
          "name": "",
          "type": "bool"
        }
      ],
      "stateMutability": "view",
      "type": "function"
    },
    {
      "inputs": [],
      "name": "owner",
      "outputs": [
        {
          "internalType": "address",
          "name": "",
          "type": "address"
        }
      ],
      "stateMutability": "view",
      "type": "function"
    },
    {
      "inputs": [
        {
          "internalType": "bytes32",
          "name": "role",
          "type": "bytes32"
        },
        {
          "internalType": "address",
          "name": "account",
          "type": "address"
        }
      ],
      "name": "renounceRole",
      "outputs": [],
      "stateMutability": "nonpayable",
      "type": "function"
    },
    {
      "inputs": [
        {
          "internalType": "bytes32",
          "name": "role",
          "type": "bytes32"
        },
        {
          "internalType": "address",
          "name": "account",
          "type": "address"
        }
      ],
      "name": "revokeRole",
      "outputs": [],
      "stateMutability": "nonpayable",
      "type": "function"
    },
    {
      "inputs": [
        {
          "internalType": "address",
          "name": "oricle",
          "type": "address"
        }
      ],
      "name": "setChainLinkOracle",
      "outputs": [],
      "stateMutability": "nonpayable",
      "type": "function"
    },
    {
      "inputs": [
        {
          "internalType": "address",
          "name": "linkToken",
          "type": "address"
        }
      ],
      "name": "setChainLinkToken",
      "outputs": [],
      "stateMutability": "nonpayable",
      "type": "function"
    },
    {
      "inputs": [
        {
          "internalType": "uint256",
          "name": "_fee",
          "type": "uint256"
        }
      ],
      "name": "setFee",
      "outputs": [],
      "stateMutability": "nonpayable",
      "type": "function"
    },
    {
      "inputs": [
        {
          "internalType": "bytes32",
          "name": "_jobId",
          "type": "bytes32"
        }
      ],
      "name": "setJobId",
      "outputs": [],
      "stateMutability": "nonpayable",
      "type": "function"
    },
    {
      "inputs": [
        {
          "internalType": "address",
          "name": "verifer",
          "type": "address"
        }
      ],
      "name": "setVeriferRole",
      "outputs": [],
      "stateMutability": "nonpayable",
      "type": "function"
    },
    {
      "inputs": [
        {
          "internalType": "bytes4",
          "name": "interfaceId",
          "type": "bytes4"
        }
      ],
      "name": "supportsInterface",
      "outputs": [
        {
          "internalType": "bool",
          "name": "",
          "type": "bool"
        }
      ],
      "stateMutability": "view",
      "type": "function"
    },
    {
      "inputs": [
        {
          "internalType": "address",
          "name": "to",
          "type": "address"
        }
      ],
      "name": "transferOwnership",
      "outputs": [],
      "stateMutability": "nonpayable",
      "type": "function"
    },
    {
      "inputs": [],
      "name": "updateBaseURI",
      "outputs": [],
      "stateMutability": "nonpayable",
      "type": "function"
    },
    {
      "inputs": [
        {
          "internalType": "address",
          "name": "userAddress",
          "type": "address"
        },
        {
          "internalType": "bytes",
          "name": "userId",
          "type": "bytes"
        },
        {
          "internalType": "bytes",
          "name": "fingerPrint",
          "type": "bytes"
        }
      ],
      "name": "verifyFingerPrint",
      "outputs": [],
      "stateMutability": "nonpayable",
      "type": "function"
    },
    {
      "inputs": [],
      "name": "withdrawLink",
      "outputs": [],
      "stateMutability": "payable",
      "type": "function"
    },
    {
      "stateMutability": "payable",
      "type": "receive"
    }
  ],
  "transactionHash": "0xfc9fd7edaf04c4d8388d649dd8e6521a53f1f63d5dca182775ccf4b2632f1695",
  "args": [
    "0xe7f1725E7734CE288F8367e1Bb143E90bb3F0512",
    "0x9fE46736679d2D9a65F0992F2272dE9f3c7fa6e0",
    "0x3764383061363338366566353433613361626235323831376636373037653362",
    "1000000000000000000",
    "0xAb570B4B76f86b8678C33bCCc26f3cE6D51f3479",
    "0xA51c1fc2f0D1a1b8494Ed1FE312d7C3a78Ed91C0"
  ],
  "numDeployments": 2,
  "solcInputHash": "fe2d9eff95269c0b4ed3f6020c4fac6a",
  "bytecode": "0x608060405260016004553480156200001657600080fd5b5060405162004e0638038062004e0683398181016040528101906200003c91906200050b565b808060008073ffffffffffffffffffffffffffffffffffffffff168273ffffffffffffffffffffffffffffffffffffffff1603620000b1576040517f08c379a0000000000000000000000000000000000000000000000000000000008152600401620000a89062000608565b60405180910390fd5b81600660006101000a81548173ffffffffffffffffffffffffffffffffffffffff021916908373ffffffffffffffffffffffffffffffffffffffff160217905550600073ffffffffffffffffffffffffffffffffffffffff168173ffffffffffffffffffffffffffffffffffffffff1614620001395762000138816200027260201b60201c565b5b50505060016009819055506200015586620003a360201b60201c565b6200016685620003e760201b60201c565b83600f819055508260108190555081600e60006101000a81548173ffffffffffffffffffffffffffffffffffffffff021916908373ffffffffffffffffffffffffffffffffffffffff1602179055506040518060400160405280600681526020017f6765745572690000000000000000000000000000000000000000000000000000815250600b600080815260200190815260200160002090816200020c91906200089a565b506040518060400160405280600a81526020017f6765745665726669747900000000000000000000000000000000000000000000815250600b60006001815260200190815260200160002090816200026591906200089a565b50505050505050620009f3565b3373ffffffffffffffffffffffffffffffffffffffff168173ffffffffffffffffffffffffffffffffffffffff1603620002e3576040517f08c379a0000000000000000000000000000000000000000000000000000000008152600401620002da90620009d1565b60405180910390fd5b80600760006101000a81548173ffffffffffffffffffffffffffffffffffffffff021916908373ffffffffffffffffffffffffffffffffffffffff1602179055508073ffffffffffffffffffffffffffffffffffffffff16600660009054906101000a900473ffffffffffffffffffffffffffffffffffffffff1673ffffffffffffffffffffffffffffffffffffffff167fed8889f560326eb138920d842192f0eb3dd22b4f139c87a2c57538e05bae127860405160405180910390a350565b80600260006101000a81548173ffffffffffffffffffffffffffffffffffffffff021916908373ffffffffffffffffffffffffffffffffffffffff16021790555050565b80600360006101000a81548173ffffffffffffffffffffffffffffffffffffffff021916908373ffffffffffffffffffffffffffffffffffffffff16021790555050565b600080fd5b600073ffffffffffffffffffffffffffffffffffffffff82169050919050565b60006200045d8262000430565b9050919050565b6200046f8162000450565b81146200047b57600080fd5b50565b6000815190506200048f8162000464565b92915050565b6000819050919050565b620004aa8162000495565b8114620004b657600080fd5b50565b600081519050620004ca816200049f565b92915050565b6000819050919050565b620004e581620004d0565b8114620004f157600080fd5b50565b6000815190506200050581620004da565b92915050565b60008060008060008060c087890312156200052b576200052a6200042b565b5b60006200053b89828a016200047e565b96505060206200054e89828a016200047e565b95505060406200056189828a01620004b9565b94505060606200057489828a01620004f4565b93505060806200058789828a016200047e565b92505060a06200059a89828a016200047e565b9150509295509295509295565b600082825260208201905092915050565b7f43616e6e6f7420736574206f776e657220746f207a65726f0000000000000000600082015250565b6000620005f0601883620005a7565b9150620005fd82620005b8565b602082019050919050565b600060208201905081810360008301526200062381620005e1565b9050919050565b600081519050919050565b7f4e487b7100000000000000000000000000000000000000000000000000000000600052604160045260246000fd5b7f4e487b7100000000000000000000000000000000000000000000000000000000600052602260045260246000fd5b60006002820490506001821680620006ac57607f821691505b602082108103620006c257620006c162000664565b5b50919050565b60008190508160005260206000209050919050565b60006020601f8301049050919050565b600082821b905092915050565b6000600883026200072c7fffffffffffffffffffffffffffffffffffffffffffffffffffffffffffffffff82620006ed565b620007388683620006ed565b95508019841693508086168417925050509392505050565b6000819050919050565b60006200077b620007756200076f84620004d0565b62000750565b620004d0565b9050919050565b6000819050919050565b62000797836200075a565b620007af620007a68262000782565b848454620006fa565b825550505050565b600090565b620007c6620007b7565b620007d38184846200078c565b505050565b5b81811015620007fb57620007ef600082620007bc565b600181019050620007d9565b5050565b601f8211156200084a576200081481620006c8565b6200081f84620006dd565b810160208510156200082f578190505b620008476200083e85620006dd565b830182620007d8565b50505b505050565b600082821c905092915050565b60006200086f600019846008026200084f565b1980831691505092915050565b60006200088a83836200085c565b9150826002028217905092915050565b620008a5826200062a565b67ffffffffffffffff811115620008c157620008c062000635565b5b620008cd825462000693565b620008da828285620007ff565b600060209050601f831160018114620009125760008415620008fd578287015190505b6200090985826200087c565b86555062000979565b601f1984166200092286620006c8565b60005b828110156200094c5784890151825560018201915060208501945060208101905062000925565b868310156200096c578489015162000968601f8916826200085c565b8355505b6001600288020188555050505b505050505050565b7f43616e6e6f74207472616e7366657220746f2073656c66000000000000000000600082015250565b6000620009b9601783620005a7565b9150620009c68262000981565b602082019050919050565b60006020820190508181036000830152620009ec81620009aa565b9050919050565b6144038062000a036000396000f3fe6080604052600436106101445760003560e01c8063714c5398116100b6578063a217fddf1161006f578063a217fddf146104b6578063b6a9a38a146104e1578063d547741f1461050a578063f0aca82214610533578063f2fde38b1461055c578063f896f7c414610585576101e5565b8063714c5398146103eb57806379ba50971461041657806386a2c5031461042d5780638da5cb5b146104445780638dc654a21461046f57806391d1485414610479576101e5565b80632f2ff15d116101085780632f2ff15d146102df57806336568abe14610308578063508954f8146103315780635bcabf041461035a57806367e2efc61461038557806369fe0e2d146103c2576101e5565b806301ffc9a7146101ea578063247afee414610227578063248a9ca314610250578063257676a81461028d57806326ae9afb146102b6576101e5565b366101e55734600d60003373ffffffffffffffffffffffffffffffffffffffff1673ffffffffffffffffffffffffffffffffffffffff16815260200190815260200160002060008282546101989190612a6b565b92505081905550343373ffffffffffffffffffffffffffffffffffffffff167f985c6b576d54b73e8b271365890eadef9d88dfe168128904b21fa0b128fd78ea60405160405180910390a3005b600080fd5b3480156101f657600080fd5b50610211600480360381019061020c9190612b0b565b6105ae565b60405161021e9190612b53565b60405180910390f35b34801561023357600080fd5b5061024e60048036038101906102499190612bcc565b610628565b005b34801561025c57600080fd5b5061027760048036038101906102729190612c2f565b610706565b6040516102849190612c6b565b60405180910390f35b34801561029957600080fd5b506102b460048036038101906102af9190612bcc565b610726565b005b3480156102c257600080fd5b506102dd60048036038101906102d89190612bcc565b61074a565b005b3480156102eb57600080fd5b5061030660048036038101906103019190612c86565b61078f565b005b34801561031457600080fd5b5061032f600480360381019061032a9190612c86565b6107b0565b005b34801561033d57600080fd5b5061035860048036038101906103539190612c2f565b610833565b005b34801561036657600080fd5b5061036f610855565b60405161037c9190612d56565b60405180910390f35b34801561039157600080fd5b506103ac60048036038101906103a79190612bcc565b6108e3565b6040516103b99190612ea3565b60405180910390f35b3480156103ce57600080fd5b506103e960048036038101906103e49190612ef1565b610a13565b005b3480156103f757600080fd5b50610400610a35565b60405161040d9190612d56565b60405180910390f35b34801561042257600080fd5b5061042b610b06565b005b34801561043957600080fd5b50610442610c9d565b005b34801561045057600080fd5b50610459610d44565b6040516104669190612f2d565b60405180910390f35b610477610d6e565b005b34801561048557600080fd5b506104a0600480360381019061049b9190612c86565b610f2c565b6040516104ad9190612b53565b60405180910390f35b3480156104c257600080fd5b506104cb610f97565b6040516104d89190612c6b565b60405180910390f35b3480156104ed57600080fd5b506105086004803603810190610503919061307d565b610f9e565b005b34801561051657600080fd5b50610531600480360381019061052c9190612c86565b611222565b005b34801561053f57600080fd5b5061055a60048036038101906105559190613139565b611243565b005b34801561056857600080fd5b50610583600480360381019061057e9190612bcc565b611923565b005b34801561059157600080fd5b506105ac60048036038101906105a79190612bcc565b611937565b005b60007f7965db0b000000000000000000000000000000000000000000000000000000007bffffffffffffffffffffffffffffffffffffffffffffffffffffffff1916827bffffffffffffffffffffffffffffffffffffffffffffffffffffffff1916148061062157506106208261195b565b5b9050919050565b6106527f0ce23c3e399818cfee81a7ab0880f714e53d7672b08df0fa62f2843416e1ea0933610f2c565b610688576040517f75ceeec000000000000000000000000000000000000000000000000000000000815260040160405180910390fd5b6106906119c5565b6000600c60008373ffffffffffffffffffffffffffffffffffffffff1673ffffffffffffffffffffffffffffffffffffffff16815260200190815260200160002060020160006101000a81548160ff021916908360038111156106f6576106f5612ddc565b5b0217905550610703611a14565b50565b600060086000838152602001908152602001600020600101549050919050565b61072e611a1e565b6107366119c5565b61073f81611ab0565b610747611a14565b50565b610752611a1e565b61075a6119c5565b6107847f0ce23c3e399818cfee81a7ab0880f714e53d7672b08df0fa62f2843416e1ea0982611af4565b61078c611a14565b50565b61079882610706565b6107a181611b02565b6107ab8383611b16565b505050565b6107b8611bf7565b73ffffffffffffffffffffffffffffffffffffffff168173ffffffffffffffffffffffffffffffffffffffff1614610825576040517f08c379a000000000000000000000000000000000000000000000000000000000815260040161081c90613240565b60405180910390fd5b61082f8282611bff565b5050565b61083b611a1e565b6108436119c5565b80600f81905550610852611a14565b50565b601180546108629061328f565b80601f016020809104026020016040519081016040528092919081815260200182805461088e9061328f565b80156108db5780601f106108b0576101008083540402835291602001916108db565b820191906000526020600020905b8154815290600101906020018083116108be57829003601f168201915b505050505081565b6108eb612978565b600c60008373ffffffffffffffffffffffffffffffffffffffff1673ffffffffffffffffffffffffffffffffffffffff1681526020019081526020016000206040518060600160405290816000820180546109459061328f565b80601f01602080910402602001604051908101604052809291908181526020018280546109719061328f565b80156109be5780601f10610993576101008083540402835291602001916109be565b820191906000526020600020905b8154815290600101906020018083116109a157829003601f168201915b50505050508152602001600182015481526020016002820160009054906101000a900460ff1660038111156109f6576109f5612ddc565b5b6003811115610a0857610a07612ddc565b5b815250509050919050565b610a1b611a1e565b610a236119c5565b80601081905550610a32611a14565b50565b6060600e60009054906101000a900473ffffffffffffffffffffffffffffffffffffffff1673ffffffffffffffffffffffffffffffffffffffff166338bcdc1c6040518163ffffffff1660e01b8152600401600060405180830381865afa158015610aa4573d6000803e3d6000fd5b505050506040513d6000823e3d601f19601f82011682018060405250810190610acd9190613330565b600b600060018152602001908152602001600020604051602001610af292919061357d565b604051602081830303815290604052905090565b600760009054906101000a900473ffffffffffffffffffffffffffffffffffffffff1673ffffffffffffffffffffffffffffffffffffffff163373ffffffffffffffffffffffffffffffffffffffff1614610b96576040517f08c379a0000000000000000000000000000000000000000000000000000000008152600401610b8d90613619565b60405180910390fd5b6000600660009054906101000a900473ffffffffffffffffffffffffffffffffffffffff16905033600660006101000a81548173ffffffffffffffffffffffffffffffffffffffff021916908373ffffffffffffffffffffffffffffffffffffffff1602179055506000600760006101000a81548173ffffffffffffffffffffffffffffffffffffffff021916908373ffffffffffffffffffffffffffffffffffffffff1602179055503373ffffffffffffffffffffffffffffffffffffffff168173ffffffffffffffffffffffffffffffffffffffff167f8be0079c531659141344cd1fd0a4f28419497f9722a3daafe3b4186f6b6457e060405160405180910390a350565b600e60009054906101000a900473ffffffffffffffffffffffffffffffffffffffff1673ffffffffffffffffffffffffffffffffffffffff166338bcdc1c6040518163ffffffff1660e01b8152600401600060405180830381865afa158015610d0a573d6000803e3d6000fd5b505050506040513d6000823e3d601f19601f82011682018060405250810190610d339190613330565b60119081610d4191906137d0565b50565b6000600660009054906101000a900473ffffffffffffffffffffffffffffffffffffffff16905090565b610d766119c5565b6000600d60003373ffffffffffffffffffffffffffffffffffffffff1673ffffffffffffffffffffffffffffffffffffffff16815260200190815260200160002054905060008103610df4576040517f5dce311a00000000000000000000000000000000000000000000000000000000815260040160405180910390fd5b6000600d60003373ffffffffffffffffffffffffffffffffffffffff1673ffffffffffffffffffffffffffffffffffffffff1681526020019081526020016000208190555060003373ffffffffffffffffffffffffffffffffffffffff1682604051610e5f906138d3565b60006040518083038185875af1925050503d8060008114610e9c576040519150601f19603f3d011682016040523d82523d6000602084013e610ea1565b606091505b5050905080610edc576040517fa259cac100000000000000000000000000000000000000000000000000000000815260040160405180910390fd5b813373ffffffffffffffffffffffffffffffffffffffff167f86103aca9d06378ad5eb858d2ee726267f69628ca4ff59597196865412b6338760405160405180910390a35050610f2a611a14565b565b60006008600084815260200190815260200160002060000160008373ffffffffffffffffffffffffffffffffffffffff1673ffffffffffffffffffffffffffffffffffffffff16815260200190815260200160002060009054906101000a900460ff16905092915050565b6000801b81565b816005600082815260200190815260200160002060009054906101000a900473ffffffffffffffffffffffffffffffffffffffff1673ffffffffffffffffffffffffffffffffffffffff163373ffffffffffffffffffffffffffffffffffffffff1614611040576040517f08c379a00000000000000000000000000000000000000000000000000000000081526004016110379061395a565b60405180910390fd5b6005600082815260200190815260200160002060006101000a81549073ffffffffffffffffffffffffffffffffffffffff0219169055807f7cc135e0cebb02c3480ae5d74d377283180a2601f8f644edf7987b009316c63a60405160405180910390a260006040518060400160405280600481526020017f7472756500000000000000000000000000000000000000000000000000000000815250805190602001208380519060200120036110f857600290506110fd565b600390505b80600c6000600a600088815260200190815260200160002060009054906101000a900473ffffffffffffffffffffffffffffffffffffffff1673ffffffffffffffffffffffffffffffffffffffff1673ffffffffffffffffffffffffffffffffffffffff16815260200190815260200160002060020160006101000a81548160ff0219169083600381111561119557611194612ddc565b5b021790555083600a600086815260200190815260200160002060009054906101000a900473ffffffffffffffffffffffffffffffffffffffff1673ffffffffffffffffffffffffffffffffffffffff167f5a2b7011e33ca280649ab25a0caf375babbad754f847e6a1364d7133a46282c8856040516112149190612d56565b60405180910390a350505050565b61122b82610706565b61123481611b02565b61123e8383611bff565b505050565b61124b6119c5565b60006001600381111561126157611260612ddc565b5b600c60008873ffffffffffffffffffffffffffffffffffffffff1673ffffffffffffffffffffffffffffffffffffffff16815260200190815260200160002060020160009054906101000a900460ff1660038111156112c3576112c2612ddc565b5b0361130557856040517f1e802a090000000000000000000000000000000000000000000000000000000081526004016112fc9190612f2d565b60405180910390fd5b6002600381111561131957611318612ddc565b5b600c60008873ffffffffffffffffffffffffffffffffffffffff1673ffffffffffffffffffffffffffffffffffffffff16815260200190815260200160002060020160009054906101000a900460ff16600381111561137b5761137a612ddc565b5b036113bd57856040517f6853b7d70000000000000000000000000000000000000000000000000000000081526004016113b49190612f2d565b60405180910390fd5b6003808111156113d0576113cf612ddc565b5b600c60008873ffffffffffffffffffffffffffffffffffffffff1673ffffffffffffffffffffffffffffffffffffffff16815260200190815260200160002060020160009054906101000a900460ff16600381111561143257611431612ddc565b5b14801561148157506003600c60008873ffffffffffffffffffffffffffffffffffffffff1673ffffffffffffffffffffffffffffffffffffffff16815260200190815260200160002060010154115b156114c357856040517f9a5576a60000000000000000000000000000000000000000000000000000000081526004016114ba9190612f2d565b60405180910390fd5b6003808111156114d6576114d5612ddc565b5b600c60008873ffffffffffffffffffffffffffffffffffffffff1673ffffffffffffffffffffffffffffffffffffffff16815260200190815260200160002060020160009054906101000a900460ff16600381111561153857611537612ddc565b5b0361159757600c60008773ffffffffffffffffffffffffffffffffffffffff1673ffffffffffffffffffffffffffffffffffffffff16815260200190815260200160002060010160008154809291906115909061397a565b9190505590505b60006115ad600f543063b6a9a38a60e01b611ce1565b9050600e60009054906101000a900473ffffffffffffffffffffffffffffffffffffffff1673ffffffffffffffffffffffffffffffffffffffff166338bcdc1c6040518163ffffffff1660e01b8152600401600060405180830381865afa15801561161c573d6000803e3d6000fd5b505050506040513d6000823e3d601f19601f820116820180604052508101906116459190613330565b6011908161165391906137d0565b506116db6040518060400160405280600381526020017f67657400000000000000000000000000000000000000000000000000000000008152506011600b600060018152602001908152602001600020898989896040516020016116bc969594939291906139e7565b60405160208183030381529060405283611d129092919063ffffffff16565b61175a6040518060400160405280600481526020017f70617468000000000000000000000000000000000000000000000000000000008152506040518060400160405280601381526020017f7665726669636174696f6e526573706f6e73650000000000000000000000000081525083611d129092919063ffffffff16565b600061176882601054611d45565b905087600a600083815260200190815260200160002060006101000a81548173ffffffffffffffffffffffffffffffffffffffff021916908373ffffffffffffffffffffffffffffffffffffffff160217905550604051806060016040528088888080601f016020809104026020016040519081016040528093929190818152602001838380828437600081840152601f19601f8201169050808301925050505050505081526020018481526020016001600381111561182b5761182a612ddc565b5b815250600c60008a73ffffffffffffffffffffffffffffffffffffffff1673ffffffffffffffffffffffffffffffffffffffff16815260200190815260200160002060008201518160000190816118829190613a9a565b506020820151816001015560408201518160020160006101000a81548160ff021916908360038111156118b8576118b7612ddc565b5b021790555090505086866040516118d0929190613b6c565b60405180910390207f543080fe0ccea351187b8d00acb2fa317d220c33c2b6ec61e904a04a88994122828a604051611909929190613b85565b60405180910390a250505061191c611a14565b5050505050565b61192b611a1e565b61193481611d7c565b50565b61193f611a1e565b6119476119c5565b61195081611eaa565b611958611a14565b50565b60007f01ffc9a7000000000000000000000000000000000000000000000000000000007bffffffffffffffffffffffffffffffffffffffffffffffffffffffff1916827bffffffffffffffffffffffffffffffffffffffffffffffffffffffff1916149050919050565b600260095403611a0a576040517f08c379a0000000000000000000000000000000000000000000000000000000008152600401611a0190613bfa565b60405180910390fd5b6002600981905550565b6001600981905550565b600660009054906101000a900473ffffffffffffffffffffffffffffffffffffffff1673ffffffffffffffffffffffffffffffffffffffff163373ffffffffffffffffffffffffffffffffffffffff1614611aae576040517f08c379a0000000000000000000000000000000000000000000000000000000008152600401611aa590613c66565b60405180910390fd5b565b80600260006101000a81548173ffffffffffffffffffffffffffffffffffffffff021916908373ffffffffffffffffffffffffffffffffffffffff16021790555050565b611afe8282611b16565b5050565b611b1381611b0e611bf7565b611eee565b50565b611b208282610f2c565b611bf35760016008600084815260200190815260200160002060000160008373ffffffffffffffffffffffffffffffffffffffff1673ffffffffffffffffffffffffffffffffffffffff16815260200190815260200160002060006101000a81548160ff021916908315150217905550611b98611bf7565b73ffffffffffffffffffffffffffffffffffffffff168173ffffffffffffffffffffffffffffffffffffffff16837f2f8788117e7eff1d82e926ec794901d17c78024a50270940304540a733656f0d60405160405180910390a45b5050565b600033905090565b611c098282610f2c565b15611cdd5760006008600084815260200190815260200160002060000160008373ffffffffffffffffffffffffffffffffffffffff1673ffffffffffffffffffffffffffffffffffffffff16815260200190815260200160002060006101000a81548160ff021916908315150217905550611c82611bf7565b73ffffffffffffffffffffffffffffffffffffffff168173ffffffffffffffffffffffffffffffffffffffff16837ff6391f5c32d9c69d2a47ea670b442974b53935d1edc7fd64eb21e047a839171b60405160405180910390a45b5050565b611ce96129ab565b611cf16129ab565b611d0885858584611f73909392919063ffffffff16565b9150509392505050565b611d2982846080015161202390919063ffffffff16565b611d4081846080015161202390919063ffffffff16565b505050565b6000611d74600360009054906101000a900473ffffffffffffffffffffffffffffffffffffffff168484612048565b905092915050565b3373ffffffffffffffffffffffffffffffffffffffff168173ffffffffffffffffffffffffffffffffffffffff1603611dea576040517f08c379a0000000000000000000000000000000000000000000000000000000008152600401611de190613cd2565b60405180910390fd5b80600760006101000a81548173ffffffffffffffffffffffffffffffffffffffff021916908373ffffffffffffffffffffffffffffffffffffffff1602179055508073ffffffffffffffffffffffffffffffffffffffff16600660009054906101000a900473ffffffffffffffffffffffffffffffffffffffff1673ffffffffffffffffffffffffffffffffffffffff167fed8889f560326eb138920d842192f0eb3dd22b4f139c87a2c57538e05bae127860405160405180910390a350565b80600360006101000a81548173ffffffffffffffffffffffffffffffffffffffff021916908373ffffffffffffffffffffffffffffffffffffffff16021790555050565b611ef88282610f2c565b611f6f57611f0581612114565b611f138360001c6020612141565b604051602001611f24929190613d8a565b6040516020818303038152906040526040517f08c379a0000000000000000000000000000000000000000000000000000000008152600401611f669190612d56565b60405180910390fd5b5050565b611f7b6129ab565b611f8b856080015161010061237d565b508385600001818152505082856020019073ffffffffffffffffffffffffffffffffffffffff16908173ffffffffffffffffffffffffffffffffffffffff16815250508185604001907bffffffffffffffffffffffffffffffffffffffffffffffffffffffff191690817bffffffffffffffffffffffffffffffffffffffffffffffffffffffff191681525050849050949350505050565b61203082600383516123e7565b612043818361256c90919063ffffffff16565b505050565b600080600454905060018161205d9190612a6b565b6004819055506000634042994660e01b60008087600001513089604001518760018c608001516000015160405160240161209e989796959493929190613e2c565b604051602081830303815290604052907bffffffffffffffffffffffffffffffffffffffffffffffffffffffff19166020820180517bffffffffffffffffffffffffffffffffffffffffffffffffffffffff838183161783525050505090506121098683868461258e565b925050509392505050565b606061213a8273ffffffffffffffffffffffffffffffffffffffff16601460ff16612141565b9050919050565b6060600060028360026121549190613eb1565b61215e9190612a6b565b67ffffffffffffffff81111561217757612176612f52565b5b6040519080825280601f01601f1916602001820160405280156121a95781602001600182028036833780820191505090505b5090507f3000000000000000000000000000000000000000000000000000000000000000816000815181106121e1576121e0613ef3565b5b60200101907effffffffffffffffffffffffffffffffffffffffffffffffffffffffffffff1916908160001a9053507f78000000000000000000000000000000000000000000000000000000000000008160018151811061224557612244613ef3565b5b60200101907effffffffffffffffffffffffffffffffffffffffffffffffffffffffffffff1916908160001a905350600060018460026122859190613eb1565b61228f9190612a6b565b90505b600181111561232f577f3031323334353637383961626364656600000000000000000000000000000000600f8616601081106122d1576122d0613ef3565b5b1a60f81b8282815181106122e8576122e7613ef3565b5b60200101907effffffffffffffffffffffffffffffffffffffffffffffffffffffffffffff1916908160001a905350600485901c94508061232890613f22565b9050612292565b5060008414612373576040517f08c379a000000000000000000000000000000000000000000000000000000000815260040161236a90613f97565b60405180910390fd5b8091505092915050565b612385612a18565b60006020836123949190613fe6565b146123c0576020826123a69190613fe6565b60206123b29190614017565b826123bd9190612a6b565b91505b81836020018181525050604051808452600081528281016020016040525082905092915050565b60178167ffffffffffffffff161161241e576124188160058460ff16901b60ff16178461272390919063ffffffff16565b50612567565b60ff8167ffffffffffffffff16116124745761244d601860058460ff16901b178461272390919063ffffffff16565b5061246e8167ffffffffffffffff166001856127439092919063ffffffff16565b50612566565b61ffff8167ffffffffffffffff16116124cb576124a4601960058460ff16901b178461272390919063ffffffff16565b506124c58167ffffffffffffffff166002856127439092919063ffffffff16565b50612565565b63ffffffff8167ffffffffffffffff1611612524576124fd601a60058460ff16901b178461272390919063ffffffff16565b5061251e8167ffffffffffffffff166004856127439092919063ffffffff16565b50612564565b612541601b60058460ff16901b178461272390919063ffffffff16565b506125628167ffffffffffffffff166008856127439092919063ffffffff16565b505b5b5b5b505050565b612574612a18565b61258683846000015151848551612765565b905092915050565b600030846040516020016125a39291906140fa565b604051602081830303815290604052805190602001209050846005600083815260200190815260200160002060006101000a81548173ffffffffffffffffffffffffffffffffffffffff021916908373ffffffffffffffffffffffffffffffffffffffff160217905550807fb5e6e01e79f91267dc17b4e6314d5d4d03593d2ceee0fbb452b750bd70ea5af960405160405180910390a2600260009054906101000a900473ffffffffffffffffffffffffffffffffffffffff1673ffffffffffffffffffffffffffffffffffffffff16634000aea08685856040518463ffffffff1660e01b815260040161269993929190614126565b6020604051808303816000875af11580156126b8573d6000803e3d6000fd5b505050506040513d601f19601f820116820180604052508101906126dc9190614190565b61271b576040517f08c379a00000000000000000000000000000000000000000000000000000000081526004016127129061422f565b60405180910390fd5b949350505050565b61272b612a18565b61273b8384600001515184612854565b905092915050565b61274b612a18565b61275c8485600001515185856128aa565b90509392505050565b61276d612a18565b825182111561277b57600080fd5b8460200151828561278c9190612a6b565b11156127c1576127c08560026127b1886020015188876127ac9190612a6b565b612938565b6127bb9190613eb1565b612954565b5b6000808651805187602083010193508088870111156127e05787860182525b60208701925050505b6020841061282757805182526020826128029190612a6b565b91506020816128119190612a6b565b90506020846128209190614017565b93506127e9565b60006001856020036101000a03905080198251168184511681811785525050508692505050949350505050565b61285c612a18565b8360200151831061288257612881846002866020015161287c9190613eb1565b612954565b5b8351805160208583010184815381860361289d576001820183525b5050508390509392505050565b6128b2612a18565b846020015184836128c39190612a6b565b11156128eb576128ea85600286856128db9190612a6b565b6128e59190613eb1565b612954565b5b60006001836101006128fd9190614382565b6129079190614017565b9050855183868201018583198251161781528151858801111561292a5784870182525b505085915050949350505050565b60008183111561294a5782905061294e565b8190505b92915050565b600082600001519050612967838361237d565b50612972838261256c565b50505050565b60405180606001604052806060815260200160008152602001600060038111156129a5576129a4612ddc565b5b81525090565b6040518060a0016040528060008019168152602001600073ffffffffffffffffffffffffffffffffffffffff16815260200160007bffffffffffffffffffffffffffffffffffffffffffffffffffffffff1916815260200160008152602001612a12612a18565b81525090565b604051806040016040528060608152602001600081525090565b6000819050919050565b7f4e487b7100000000000000000000000000000000000000000000000000000000600052601160045260246000fd5b6000612a7682612a32565b9150612a8183612a32565b9250828201905080821115612a9957612a98612a3c565b5b92915050565b6000604051905090565b600080fd5b600080fd5b60007fffffffff0000000000000000000000000000000000000000000000000000000082169050919050565b612ae881612ab3565b8114612af357600080fd5b50565b600081359050612b0581612adf565b92915050565b600060208284031215612b2157612b20612aa9565b5b6000612b2f84828501612af6565b91505092915050565b60008115159050919050565b612b4d81612b38565b82525050565b6000602082019050612b686000830184612b44565b92915050565b600073ffffffffffffffffffffffffffffffffffffffff82169050919050565b6000612b9982612b6e565b9050919050565b612ba981612b8e565b8114612bb457600080fd5b50565b600081359050612bc681612ba0565b92915050565b600060208284031215612be257612be1612aa9565b5b6000612bf084828501612bb7565b91505092915050565b6000819050919050565b612c0c81612bf9565b8114612c1757600080fd5b50565b600081359050612c2981612c03565b92915050565b600060208284031215612c4557612c44612aa9565b5b6000612c5384828501612c1a565b91505092915050565b612c6581612bf9565b82525050565b6000602082019050612c806000830184612c5c565b92915050565b60008060408385031215612c9d57612c9c612aa9565b5b6000612cab85828601612c1a565b9250506020612cbc85828601612bb7565b9150509250929050565b600081519050919050565b600082825260208201905092915050565b60005b83811015612d00578082015181840152602081019050612ce5565b60008484015250505050565b6000601f19601f8301169050919050565b6000612d2882612cc6565b612d328185612cd1565b9350612d42818560208601612ce2565b612d4b81612d0c565b840191505092915050565b60006020820190508181036000830152612d708184612d1d565b905092915050565b600081519050919050565b600082825260208201905092915050565b6000612d9f82612d78565b612da98185612d83565b9350612db9818560208601612ce2565b612dc281612d0c565b840191505092915050565b612dd681612a32565b82525050565b7f4e487b7100000000000000000000000000000000000000000000000000000000600052602160045260246000fd5b60048110612e1c57612e1b612ddc565b5b50565b6000819050612e2d82612e0b565b919050565b6000612e3d82612e1f565b9050919050565b612e4d81612e32565b82525050565b60006060830160008301518482036000860152612e708282612d94565b9150506020830151612e856020860182612dcd565b506040830151612e986040860182612e44565b508091505092915050565b60006020820190508181036000830152612ebd8184612e53565b905092915050565b612ece81612a32565b8114612ed957600080fd5b50565b600081359050612eeb81612ec5565b92915050565b600060208284031215612f0757612f06612aa9565b5b6000612f1584828501612edc565b91505092915050565b612f2781612b8e565b82525050565b6000602082019050612f426000830184612f1e565b92915050565b600080fd5b600080fd5b7f4e487b7100000000000000000000000000000000000000000000000000000000600052604160045260246000fd5b612f8a82612d0c565b810181811067ffffffffffffffff82111715612fa957612fa8612f52565b5b80604052505050565b6000612fbc612a9f565b9050612fc88282612f81565b919050565b600067ffffffffffffffff821115612fe857612fe7612f52565b5b612ff182612d0c565b9050602081019050919050565b82818337600083830152505050565b600061302061301b84612fcd565b612fb2565b90508281526020810184848401111561303c5761303b612f4d565b5b613047848285612ffe565b509392505050565b600082601f83011261306457613063612f48565b5b813561307484826020860161300d565b91505092915050565b6000806040838503121561309457613093612aa9565b5b60006130a285828601612c1a565b925050602083013567ffffffffffffffff8111156130c3576130c2612aae565b5b6130cf8582860161304f565b9150509250929050565b600080fd5b600080fd5b60008083601f8401126130f9576130f8612f48565b5b8235905067ffffffffffffffff811115613116576131156130d9565b5b602083019150836001820283011115613132576131316130de565b5b9250929050565b60008060008060006060868803121561315557613154612aa9565b5b600061316388828901612bb7565b955050602086013567ffffffffffffffff81111561318457613183612aae565b5b613190888289016130e3565b9450945050604086013567ffffffffffffffff8111156131b3576131b2612aae565b5b6131bf888289016130e3565b92509250509295509295909350565b7f416363657373436f6e74726f6c3a2063616e206f6e6c792072656e6f756e636560008201527f20726f6c657320666f722073656c660000000000000000000000000000000000602082015250565b600061322a602f83612cd1565b9150613235826131ce565b604082019050919050565b600060208201905081810360008301526132598161321d565b9050919050565b7f4e487b7100000000000000000000000000000000000000000000000000000000600052602260045260246000fd5b600060028204905060018216806132a757607f821691505b6020821081036132ba576132b9613260565b5b50919050565b60006132d36132ce84612fcd565b612fb2565b9050828152602081018484840111156132ef576132ee612f4d565b5b6132fa848285612ce2565b509392505050565b600082601f83011261331757613316612f48565b5b81516133278482602086016132c0565b91505092915050565b60006020828403121561334657613345612aa9565b5b600082015167ffffffffffffffff81111561336457613363612aae565b5b61337084828501613302565b91505092915050565b600081905092915050565b600061338f82612cc6565b6133998185613379565b93506133a9818560208601612ce2565b80840191505092915050565b60008190508160005260206000209050919050565b600081546133d78161328f565b6133e18186613379565b945060018216600081146133fc576001811461341157613444565b60ff1983168652811515820286019350613444565b61341a856133b5565b60005b8381101561343c5781548189015260018201915060208101905061341d565b838801955050505b50505092915050565b7f3f7573657249643d000000000000000000000000000000000000000000000000600082015250565b6000613483600883613379565b915061348e8261344d565b600882019050919050565b7f7465737400000000000000000000000000000000000000000000000000000000600082015250565b60006134cf600483613379565b91506134da82613499565b600482019050919050565b7f2666696e6765725072696e743d00000000000000000000000000000000000000600082015250565b600061351b600d83613379565b9150613526826134e5565b600d82019050919050565b7f66696e6765725072696e74000000000000000000000000000000000000000000600082015250565b6000613567600b83613379565b915061357282613531565b600b82019050919050565b60006135898285613384565b915061359582846133ca565b91506135a082613476565b91506135ab826134c2565b91506135b68261350e565b91506135c18261355a565b91508190509392505050565b7f4d7573742062652070726f706f736564206f776e657200000000000000000000600082015250565b6000613603601683612cd1565b915061360e826135cd565b602082019050919050565b60006020820190508181036000830152613632816135f6565b9050919050565b60006020601f8301049050919050565b600082821b905092915050565b6000600883026136867fffffffffffffffffffffffffffffffffffffffffffffffffffffffffffffffff82613649565b6136908683613649565b95508019841693508086168417925050509392505050565b6000819050919050565b60006136cd6136c86136c384612a32565b6136a8565b612a32565b9050919050565b6000819050919050565b6136e7836136b2565b6136fb6136f3826136d4565b848454613656565b825550505050565b600090565b613710613703565b61371b8184846136de565b505050565b5b8181101561373f57613734600082613708565b600181019050613721565b5050565b601f82111561378457613755816133b5565b61375e84613639565b8101602085101561376d578190505b61378161377985613639565b830182613720565b50505b505050565b600082821c905092915050565b60006137a760001984600802613789565b1980831691505092915050565b60006137c08383613796565b9150826002028217905092915050565b6137d982612cc6565b67ffffffffffffffff8111156137f2576137f1612f52565b5b6137fc825461328f565b613807828285613743565b600060209050601f83116001811461383a5760008415613828578287015190505b61383285826137b4565b86555061389a565b601f198416613848866133b5565b60005b828110156138705784890151825560018201915060208501945060208101905061384b565b8683101561388d5784890151613889601f891682613796565b8355505b6001600288020188555050505b505050505050565b600081905092915050565b50565b60006138bd6000836138a2565b91506138c8826138ad565b600082019050919050565b60006138de826138b0565b9150819050919050565b7f536f75726365206d75737420626520746865206f7261636c65206f662074686560008201527f2072657175657374000000000000000000000000000000000000000000000000602082015250565b6000613944602883612cd1565b915061394f826138e8565b604082019050919050565b6000602082019050818103600083015261397381613937565b9050919050565b600061398582612a32565b91507fffffffffffffffffffffffffffffffffffffffffffffffffffffffffffffffff82036139b7576139b6612a3c565b5b600182019050919050565b60006139ce83856138a2565b93506139db838584612ffe565b82840190509392505050565b60006139f382896133ca565b91506139ff82886133ca565b9150613a0a82613476565b9150613a178286886139c2565b9150613a228261350e565b9150613a2f8284866139c2565b9150819050979650505050505050565b60008190508160005260206000209050919050565b601f821115613a9557613a6681613a3f565b613a6f84613639565b81016020851015613a7e578190505b613a92613a8a85613639565b830182613720565b50505b505050565b613aa382612d78565b67ffffffffffffffff811115613abc57613abb612f52565b5b613ac6825461328f565b613ad1828285613a54565b600060209050601f831160018114613b045760008415613af2578287015190505b613afc85826137b4565b865550613b64565b601f198416613b1286613a3f565b60005b82811015613b3a57848901518255600182019150602085019450602081019050613b15565b86831015613b575784890151613b53601f891682613796565b8355505b6001600288020188555050505b505050505050565b6000613b798284866139c2565b91508190509392505050565b6000604082019050613b9a6000830185612c5c565b613ba76020830184612f1e565b9392505050565b7f5265656e7472616e637947756172643a207265656e7472616e742063616c6c00600082015250565b6000613be4601f83612cd1565b9150613bef82613bae565b602082019050919050565b60006020820190508181036000830152613c1381613bd7565b9050919050565b7f4f6e6c792063616c6c61626c65206279206f776e657200000000000000000000600082015250565b6000613c50601683612cd1565b9150613c5b82613c1a565b602082019050919050565b60006020820190508181036000830152613c7f81613c43565b9050919050565b7f43616e6e6f74207472616e7366657220746f2073656c66000000000000000000600082015250565b6000613cbc601783612cd1565b9150613cc782613c86565b602082019050919050565b60006020820190508181036000830152613ceb81613caf565b9050919050565b7f416363657373436f6e74726f6c3a206163636f756e7420000000000000000000600082015250565b6000613d28601783613379565b9150613d3382613cf2565b601782019050919050565b7f206973206d697373696e6720726f6c6520000000000000000000000000000000600082015250565b6000613d74601183613379565b9150613d7f82613d3e565b601182019050919050565b6000613d9582613d1b565b9150613da18285613384565b9150613dac82613d67565b9150613db88284613384565b91508190509392505050565b613dcd81612a32565b82525050565b613ddc81612ab3565b82525050565b600082825260208201905092915050565b6000613dfe82612d78565b613e088185613de2565b9350613e18818560208601612ce2565b613e2181612d0c565b840191505092915050565b600061010082019050613e42600083018b612f1e565b613e4f602083018a613dc4565b613e5c6040830189612c5c565b613e696060830188612f1e565b613e766080830187613dd3565b613e8360a0830186613dc4565b613e9060c0830185613dc4565b81810360e0830152613ea28184613df3565b90509998505050505050505050565b6000613ebc82612a32565b9150613ec783612a32565b9250828202613ed581612a32565b91508282048414831517613eec57613eeb612a3c565b5b5092915050565b7f4e487b7100000000000000000000000000000000000000000000000000000000600052603260045260246000fd5b6000613f2d82612a32565b915060008203613f4057613f3f612a3c565b5b600182039050919050565b7f537472696e67733a20686578206c656e67746820696e73756666696369656e74600082015250565b6000613f81602083612cd1565b9150613f8c82613f4b565b602082019050919050565b60006020820190508181036000830152613fb081613f74565b9050919050565b7f4e487b7100000000000000000000000000000000000000000000000000000000600052601260045260246000fd5b6000613ff182612a32565b9150613ffc83612a32565b92508261400c5761400b613fb7565b5b828206905092915050565b600061402282612a32565b915061402d83612a32565b925082820390508181111561404557614044612a3c565b5b92915050565b600061406661406161405c84612b6e565b6136a8565b612b6e565b9050919050565b60006140788261404b565b9050919050565b600061408a8261406d565b9050919050565b60008160601b9050919050565b60006140a982614091565b9050919050565b60006140bb8261409e565b9050919050565b6140d36140ce8261407f565b6140b0565b82525050565b6000819050919050565b6140f46140ef82612a32565b6140d9565b82525050565b600061410682856140c2565b60148201915061411682846140e3565b6020820191508190509392505050565b600060608201905061413b6000830186612f1e565b6141486020830185613dc4565b818103604083015261415a8184613df3565b9050949350505050565b61416d81612b38565b811461417857600080fd5b50565b60008151905061418a81614164565b92915050565b6000602082840312156141a6576141a5612aa9565b5b60006141b48482850161417b565b91505092915050565b7f756e61626c6520746f207472616e73666572416e6443616c6c20746f206f726160008201527f636c650000000000000000000000000000000000000000000000000000000000602082015250565b6000614219602383612cd1565b9150614224826141bd565b604082019050919050565b600060208201905081810360008301526142488161420c565b9050919050565b60008160011c9050919050565b6000808291508390505b60018511156142a65780860481111561428257614281612a3c565b5b60018516156142915780820291505b808102905061429f8561424f565b9450614266565b94509492505050565b6000826142bf576001905061437b565b816142cd576000905061437b565b81600181146142e357600281146142ed5761431c565b600191505061437b565b60ff8411156142ff576142fe612a3c565b5b8360020a91508482111561431657614315612a3c565b5b5061437b565b5060208310610133831016604e8410600b84101617156143515782820a90508381111561434c5761434b612a3c565b5b61437b565b61435e848484600161425c565b9250905081840481111561437557614374612a3c565b5b81810290505b9392505050565b600061438d82612a32565b915061439883612a32565b92506143c57fffffffffffffffffffffffffffffffffffffffffffffffffffffffffffffffff84846142af565b90509291505056fea2646970667358221220f32b7320ff2f117038d66c5855da75897c538ef5e48cff6a4bb9b258cbc2aaac64736f6c63430008110033",
  "devdoc": {
    "kind": "dev",
    "methods": {
      "fulfillMultipleParameters(bytes32,string)": {
        "details": "This is called by the oracle. recordChainlinkFulfillment must be used."
      },
      "getRoleAdmin(bytes32)": {
        "details": "Returns the admin role that controls `role`. See {grantRole} and {revokeRole}. To change a role's admin, use {_setRoleAdmin}."
      },
      "grantRole(bytes32,address)": {
        "details": "Grants `role` to `account`. If `account` had not been already granted `role`, emits a {RoleGranted} event. Requirements: - the caller must have ``role``'s admin role. May emit a {RoleGranted} event."
      },
      "hasRole(bytes32,address)": {
        "details": "Returns `true` if `account` has been granted `role`."
      },
      "renounceRole(bytes32,address)": {
        "details": "Revokes `role` from the calling account. Roles are often managed via {grantRole} and {revokeRole}: this function's purpose is to provide a mechanism for accounts to lose their privileges if they are compromised (such as when a trusted device is misplaced). If the calling account had been revoked `role`, emits a {RoleRevoked} event. Requirements: - the caller must be `account`. May emit a {RoleRevoked} event."
      },
      "revokeRole(bytes32,address)": {
        "details": "Revokes `role` from `account`. If `account` had been granted `role`, emits a {RoleRevoked} event. Requirements: - the caller must have ``role``'s admin role. May emit a {RoleRevoked} event."
      },
      "supportsInterface(bytes4)": {
        "details": "See {IERC165-supportsInterface}."
      }
    },
    "version": 1
  },
  "userdoc": {
    "kind": "user",
    "methods": {
      "acceptOwnership()": {
        "notice": "Allows an ownership transfer to be completed by the recipient."
      },
      "constructor": {
        "notice": "Initialize the link token and target oracle Goerli Testnet details: Link Token: 0x326C977E6efc84E512bB9C30f76E30c160eD06FB Oracle: 0xCC79157eb46F5624204f47AB42b3906cAA40eaB7 (Chainlink DevRel) jobId: 0x3764383061363338366566353433613361626235323831376636373037653362   _Fee 100000000000000000 _oP 0x04B0601D72dAEEA5D88D5d3B3495854FEe6cCf36"
      },
      "fulfillMultipleParameters(bytes32,string)": {
        "notice": "Fulfillment function for multiple parameters in a single request"
      },
      "owner()": {
        "notice": "Get the current owner"
      },
      "transferOwnership(address)": {
        "notice": "Allows an owner to begin transferring ownership to a new address, pending."
      },
      "verifyFingerPrint(address,bytes,bytes)": {
        "notice": "Create a Chainlink request to retrieve API response, find the target data, then multiply by 1000000000000000000 (to remove decimal places from data)."
      },
      "withdrawLink()": {
        "notice": "this allow Buyer whose offer is expire or over by other buyer ."
      }
    },
    "notice": "THIS IS AN EXAMPLE CONTRACT WHICH USES HARDCODED VALUES FOR CLARITY. THIS EXAMPLE USES UN-AUDITED CODE. DO NOT USE THIS CODE IN PRODUCTION.",
    "version": 1
  },
  "storageLayout": {
    "storage": [
      {
        "astId": 319,
        "contract": "contracts/core/FigurePrintOracle.sol:FigurePrintOracle",
        "label": "s_ens",
        "offset": 0,
        "slot": "0",
        "type": "t_contract(ENSInterface)1156"
      },
      {
        "astId": 321,
        "contract": "contracts/core/FigurePrintOracle.sol:FigurePrintOracle",
        "label": "s_ensNode",
        "offset": 0,
        "slot": "1",
        "type": "t_bytes32"
      },
      {
        "astId": 324,
        "contract": "contracts/core/FigurePrintOracle.sol:FigurePrintOracle",
        "label": "s_link",
        "offset": 0,
        "slot": "2",
        "type": "t_contract(LinkTokenInterface)1251"
      },
      {
        "astId": 327,
        "contract": "contracts/core/FigurePrintOracle.sol:FigurePrintOracle",
        "label": "s_oracle",
        "offset": 0,
        "slot": "3",
        "type": "t_contract(OperatorInterface)1331"
      },
      {
        "astId": 330,
        "contract": "contracts/core/FigurePrintOracle.sol:FigurePrintOracle",
        "label": "s_requestCount",
        "offset": 0,
        "slot": "4",
        "type": "t_uint256"
      },
      {
        "astId": 334,
        "contract": "contracts/core/FigurePrintOracle.sol:FigurePrintOracle",
        "label": "s_pendingRequests",
        "offset": 0,
        "slot": "5",
        "type": "t_mapping(t_bytes32,t_address)"
      },
      {
        "astId": 889,
        "contract": "contracts/core/FigurePrintOracle.sol:FigurePrintOracle",
        "label": "s_owner",
        "offset": 0,
        "slot": "6",
        "type": "t_address"
      },
      {
        "astId": 891,
        "contract": "contracts/core/FigurePrintOracle.sol:FigurePrintOracle",
        "label": "s_pendingOwner",
        "offset": 0,
        "slot": "7",
        "type": "t_address"
      },
      {
        "astId": 2398,
        "contract": "contracts/core/FigurePrintOracle.sol:FigurePrintOracle",
        "label": "_roles",
        "offset": 0,
        "slot": "8",
        "type": "t_mapping(t_bytes32,t_struct(RoleData)2393_storage)"
      },
      {
        "astId": 3418,
        "contract": "contracts/core/FigurePrintOracle.sol:FigurePrintOracle",
        "label": "_status",
        "offset": 0,
        "slot": "9",
        "type": "t_uint256"
      },
      {
        "astId": 9706,
        "contract": "contracts/core/FigurePrintOracle.sol:FigurePrintOracle",
        "label": "userVerficationRequest",
        "offset": 0,
        "slot": "10",
        "type": "t_mapping(t_bytes32,t_address)"
      },
      {
        "astId": 9710,
        "contract": "contracts/core/FigurePrintOracle.sol:FigurePrintOracle",
        "label": "apis",
        "offset": 0,
        "slot": "11",
        "type": "t_mapping(t_uint256,t_string_storage)"
      },
      {
        "astId": 9715,
        "contract": "contracts/core/FigurePrintOracle.sol:FigurePrintOracle",
        "label": "userVerficationRecord",
        "offset": 0,
        "slot": "12",
        "type": "t_mapping(t_address,t_struct(VerifcaitonRecord)11179_storage)"
      },
      {
        "astId": 9719,
        "contract": "contracts/core/FigurePrintOracle.sol:FigurePrintOracle",
        "label": "amounts",
        "offset": 0,
        "slot": "13",
        "type": "t_mapping(t_address,t_uint256)"
      },
      {
        "astId": 9722,
        "contract": "contracts/core/FigurePrintOracle.sol:FigurePrintOracle",
        "label": "orcaleUrlProvider",
        "offset": 0,
        "slot": "14",
        "type": "t_contract(OrcaleUrlProvider)10269"
      },
      {
        "astId": 9724,
        "contract": "contracts/core/FigurePrintOracle.sol:FigurePrintOracle",
        "label": "jobId",
        "offset": 0,
        "slot": "15",
        "type": "t_bytes32"
      },
      {
        "astId": 9726,
        "contract": "contracts/core/FigurePrintOracle.sol:FigurePrintOracle",
        "label": "fee",
        "offset": 0,
        "slot": "16",
        "type": "t_uint256"
      },
      {
        "astId": 9728,
        "contract": "contracts/core/FigurePrintOracle.sol:FigurePrintOracle",
        "label": "baseUrl",
        "offset": 0,
        "slot": "17",
        "type": "t_string_storage"
      }
    ],
    "types": {
      "t_address": {
        "encoding": "inplace",
        "label": "address",
        "numberOfBytes": "20"
      },
      "t_bool": {
        "encoding": "inplace",
        "label": "bool",
        "numberOfBytes": "1"
      },
      "t_bytes32": {
        "encoding": "inplace",
        "label": "bytes32",
        "numberOfBytes": "32"
      },
      "t_bytes_storage": {
        "encoding": "bytes",
        "label": "bytes",
        "numberOfBytes": "32"
      },
      "t_contract(ENSInterface)1156": {
        "encoding": "inplace",
        "label": "contract ENSInterface",
        "numberOfBytes": "20"
      },
      "t_contract(LinkTokenInterface)1251": {
        "encoding": "inplace",
        "label": "contract LinkTokenInterface",
        "numberOfBytes": "20"
      },
      "t_contract(OperatorInterface)1331": {
        "encoding": "inplace",
        "label": "contract OperatorInterface",
        "numberOfBytes": "20"
      },
      "t_contract(OrcaleUrlProvider)10269": {
        "encoding": "inplace",
        "label": "contract OrcaleUrlProvider",
        "numberOfBytes": "20"
      },
      "t_enum(VerficationStatus)11184": {
        "encoding": "inplace",
        "label": "enum VerficationStatus",
        "numberOfBytes": "1"
      },
      "t_mapping(t_address,t_bool)": {
        "encoding": "mapping",
        "key": "t_address",
        "label": "mapping(address => bool)",
        "numberOfBytes": "32",
        "value": "t_bool"
      },
      "t_mapping(t_address,t_struct(VerifcaitonRecord)11179_storage)": {
        "encoding": "mapping",
        "key": "t_address",
        "label": "mapping(address => struct VerifcaitonRecord)",
        "numberOfBytes": "32",
        "value": "t_struct(VerifcaitonRecord)11179_storage"
      },
      "t_mapping(t_address,t_uint256)": {
        "encoding": "mapping",
        "key": "t_address",
        "label": "mapping(address => uint256)",
        "numberOfBytes": "32",
        "value": "t_uint256"
      },
      "t_mapping(t_bytes32,t_address)": {
        "encoding": "mapping",
        "key": "t_bytes32",
        "label": "mapping(bytes32 => address)",
        "numberOfBytes": "32",
        "value": "t_address"
      },
      "t_mapping(t_bytes32,t_struct(RoleData)2393_storage)": {
        "encoding": "mapping",
        "key": "t_bytes32",
        "label": "mapping(bytes32 => struct AccessControl.RoleData)",
        "numberOfBytes": "32",
        "value": "t_struct(RoleData)2393_storage"
      },
      "t_mapping(t_uint256,t_string_storage)": {
        "encoding": "mapping",
        "key": "t_uint256",
        "label": "mapping(uint256 => string)",
        "numberOfBytes": "32",
        "value": "t_string_storage"
      },
      "t_string_storage": {
        "encoding": "bytes",
        "label": "string",
        "numberOfBytes": "32"
      },
      "t_struct(RoleData)2393_storage": {
        "encoding": "inplace",
        "label": "struct AccessControl.RoleData",
        "members": [
          {
            "astId": 2390,
            "contract": "contracts/core/FigurePrintOracle.sol:FigurePrintOracle",
            "label": "members",
            "offset": 0,
            "slot": "0",
            "type": "t_mapping(t_address,t_bool)"
          },
          {
            "astId": 2392,
            "contract": "contracts/core/FigurePrintOracle.sol:FigurePrintOracle",
            "label": "adminRole",
            "offset": 0,
            "slot": "1",
            "type": "t_bytes32"
          }
        ],
        "numberOfBytes": "64"
      },
      "t_struct(VerifcaitonRecord)11179_storage": {
        "encoding": "inplace",
        "label": "struct VerifcaitonRecord",
        "members": [
          {
            "astId": 11173,
            "contract": "contracts/core/FigurePrintOracle.sol:FigurePrintOracle",
            "label": "userId",
            "offset": 0,
            "slot": "0",
            "type": "t_bytes_storage"
          },
          {
            "astId": 11175,
            "contract": "contracts/core/FigurePrintOracle.sol:FigurePrintOracle",
            "label": "numberTries",
            "offset": 0,
            "slot": "1",
            "type": "t_uint256"
          },
          {
            "astId": 11178,
            "contract": "contracts/core/FigurePrintOracle.sol:FigurePrintOracle",
            "label": "status",
            "offset": 0,
            "slot": "2",
            "type": "t_enum(VerficationStatus)11184"
          }
        ],
        "numberOfBytes": "96"
      },
      "t_uint256": {
        "encoding": "inplace",
        "label": "uint256",
        "numberOfBytes": "32"
      }
    }
  }
}