{
  "address": "0xCf7Ed3AccA5a467e9e704C703E8D87F634fB0Fc9",
  "abi": [
    {
      "inputs": [
        {
          "internalType": "address",
          "name": "_linkToken",
          "type": "address"
        },
        {
          "internalType": "address",
          "name": "_oricle",
          "type": "address"
        },
        {
          "internalType": "bytes32",
          "name": "_jobId",
          "type": "bytes32"
        },
        {
          "internalType": "uint256",
          "name": "_fee",
          "type": "uint256"
        },
        {
          "internalType": "address",
          "name": "_orcaleUrlProvider",
          "type": "address"
        }
      ],
      "stateMutability": "nonpayable",
      "type": "constructor"
    },
    {
      "inputs": [
        {
          "internalType": "address",
          "name": "userAddress",
          "type": "address"
        }
      ],
      "name": "FigurePrintOracle__ExceedNumberTries",
      "type": "error"
    },
    {
      "inputs": [],
      "name": "FigurePrintOracle__FailToWithDrawAmount",
      "type": "error"
    },
    {
      "inputs": [],
      "name": "FigurePrintOracle__NoAmountForWithDraw",
      "type": "error"
    },
    {
      "inputs": [],
      "name": "FigurePrintOracle__NotVerifer",
      "type": "error"
    },
    {
      "inputs": [
        {
          "internalType": "address",
          "name": "userAddress",
          "type": "address"
        }
      ],
      "name": "FigurePrintOracle__RequestAlreadyExist",
      "type": "error"
    },
    {
      "inputs": [
        {
          "internalType": "address",
          "name": "userAddress",
          "type": "address"
        }
      ],
      "name": "FigurePrintOracle__VerficationAlreadyDone",
      "type": "error"
    },
    {
      "anonymous": false,
      "inputs": [
        {
          "indexed": true,
          "internalType": "bytes32",
          "name": "id",
          "type": "bytes32"
        }
      ],
      "name": "ChainlinkCancelled",
      "type": "event"
    },
    {
      "anonymous": false,
      "inputs": [
        {
          "indexed": true,
          "internalType": "bytes32",
          "name": "id",
          "type": "bytes32"
        }
      ],
      "name": "ChainlinkFulfilled",
      "type": "event"
    },
    {
      "anonymous": false,
      "inputs": [
        {
          "indexed": true,
          "internalType": "bytes32",
          "name": "id",
          "type": "bytes32"
        }
      ],
      "name": "ChainlinkRequested",
      "type": "event"
    },
    {
      "anonymous": false,
      "inputs": [
        {
          "indexed": true,
          "internalType": "address",
          "name": "buyer",
          "type": "address"
        },
        {
          "indexed": true,
          "internalType": "uint256",
          "name": "amount",
          "type": "uint256"
        }
      ],
      "name": "FallbackCalled",
      "type": "event"
    },
    {
      "anonymous": false,
      "inputs": [
        {
          "indexed": true,
          "internalType": "address",
          "name": "from",
          "type": "address"
        },
        {
          "indexed": true,
          "internalType": "address",
          "name": "to",
          "type": "address"
        }
      ],
      "name": "OwnershipTransferRequested",
      "type": "event"
    },
    {
      "anonymous": false,
      "inputs": [
        {
          "indexed": true,
          "internalType": "address",
          "name": "from",
          "type": "address"
        },
        {
          "indexed": true,
          "internalType": "address",
          "name": "to",
          "type": "address"
        }
      ],
      "name": "OwnershipTransferred",
      "type": "event"
    },
    {
      "anonymous": false,
      "inputs": [
        {
          "indexed": true,
          "internalType": "address",
          "name": "buyer",
          "type": "address"
        },
        {
          "indexed": true,
          "internalType": "uint256",
          "name": "amount",
          "type": "uint256"
        }
      ],
      "name": "ReceivedCalled",
      "type": "event"
    },
    {
      "anonymous": false,
      "inputs": [
        {
          "indexed": true,
          "internalType": "bytes32",
          "name": "role",
          "type": "bytes32"
        },
        {
          "indexed": true,
          "internalType": "bytes32",
          "name": "previousAdminRole",
          "type": "bytes32"
        },
        {
          "indexed": true,
          "internalType": "bytes32",
          "name": "newAdminRole",
          "type": "bytes32"
        }
      ],
      "name": "RoleAdminChanged",
      "type": "event"
    },
    {
      "anonymous": false,
      "inputs": [
        {
          "indexed": true,
          "internalType": "bytes32",
          "name": "role",
          "type": "bytes32"
        },
        {
          "indexed": true,
          "internalType": "address",
          "name": "account",
          "type": "address"
        },
        {
          "indexed": true,
          "internalType": "address",
          "name": "sender",
          "type": "address"
        }
      ],
      "name": "RoleGranted",
      "type": "event"
    },
    {
      "anonymous": false,
      "inputs": [
        {
          "indexed": true,
          "internalType": "bytes32",
          "name": "role",
          "type": "bytes32"
        },
        {
          "indexed": true,
          "internalType": "address",
          "name": "account",
          "type": "address"
        },
        {
          "indexed": true,
          "internalType": "address",
          "name": "sender",
          "type": "address"
        }
      ],
      "name": "RoleRevoked",
      "type": "event"
    },
    {
      "anonymous": false,
      "inputs": [
        {
          "indexed": true,
          "internalType": "address",
          "name": "userAddress",
          "type": "address"
        },
        {
          "indexed": true,
          "internalType": "bytes32",
          "name": "requestId",
          "type": "bytes32"
        },
        {
          "indexed": false,
          "internalType": "string",
          "name": "isVerfied",
          "type": "string"
        }
      ],
      "name": "VerifationResponse",
      "type": "event"
    },
    {
      "anonymous": false,
      "inputs": [
        {
          "indexed": true,
          "internalType": "bytes",
          "name": "userId",
          "type": "bytes"
        },
        {
          "indexed": false,
          "internalType": "bytes32",
          "name": "requestId",
          "type": "bytes32"
        },
        {
          "indexed": false,
          "internalType": "address",
          "name": "userAddress",
          "type": "address"
        }
      ],
      "name": "VerifyFingerPrint",
      "type": "event"
    },
    {
      "anonymous": false,
      "inputs": [
        {
          "indexed": true,
          "internalType": "address",
          "name": "buyer",
          "type": "address"
        },
        {
          "indexed": true,
          "internalType": "uint256",
          "name": "amount",
          "type": "uint256"
        }
      ],
      "name": "WithDrawAmount",
      "type": "event"
    },
    {
      "inputs": [],
      "name": "DEFAULT_ADMIN_ROLE",
      "outputs": [
        {
          "internalType": "bytes32",
          "name": "",
          "type": "bytes32"
        }
      ],
      "stateMutability": "view",
      "type": "function"
    },
    {
      "inputs": [],
      "name": "acceptOwnership",
      "outputs": [],
      "stateMutability": "nonpayable",
      "type": "function"
    },
    {
      "inputs": [],
      "name": "baseUrl",
      "outputs": [
        {
          "internalType": "string",
          "name": "",
          "type": "string"
        }
      ],
      "stateMutability": "view",
      "type": "function"
    },
    {
      "inputs": [
        {
          "internalType": "address",
          "name": "userAddress",
          "type": "address"
        }
      ],
      "name": "burnUserRecord",
      "outputs": [],
      "stateMutability": "nonpayable",
      "type": "function"
    },
    {
      "inputs": [
        {
          "internalType": "bytes32",
          "name": "_requestId",
          "type": "bytes32"
        },
        {
          "internalType": "string",
          "name": "isVerfied",
          "type": "string"
        }
      ],
      "name": "fulfillMultipleParameters",
      "outputs": [],
      "stateMutability": "nonpayable",
      "type": "function"
    },
    {
      "inputs": [],
      "name": "getBaseURI",
      "outputs": [
        {
          "internalType": "string",
          "name": "",
          "type": "string"
        }
      ],
      "stateMutability": "view",
      "type": "function"
    },
    {
      "inputs": [
        {
          "internalType": "bytes32",
          "name": "role",
          "type": "bytes32"
        }
      ],
      "name": "getRoleAdmin",
      "outputs": [
        {
          "internalType": "bytes32",
          "name": "",
          "type": "bytes32"
        }
      ],
      "stateMutability": "view",
      "type": "function"
    },
    {
      "inputs": [
        {
          "internalType": "address",
          "name": "userAddress",
          "type": "address"
        }
      ],
      "name": "getUserRecord",
      "outputs": [
        {
          "components": [
            {
              "internalType": "bytes",
              "name": "userId",
              "type": "bytes"
            },
            {
              "internalType": "uint256",
              "name": "numberTries",
              "type": "uint256"
            },
            {
              "internalType": "enum VerficationStatus",
              "name": "status",
              "type": "uint8"
            }
          ],
          "internalType": "struct VerifcaitonRecord",
          "name": "",
          "type": "tuple"
        }
      ],
      "stateMutability": "view",
      "type": "function"
    },
    {
      "inputs": [
        {
          "internalType": "bytes32",
          "name": "role",
          "type": "bytes32"
        },
        {
          "internalType": "address",
          "name": "account",
          "type": "address"
        }
      ],
      "name": "grantRole",
      "outputs": [],
      "stateMutability": "nonpayable",
      "type": "function"
    },
    {
      "inputs": [
        {
          "internalType": "bytes32",
          "name": "role",
          "type": "bytes32"
        },
        {
          "internalType": "address",
          "name": "account",
          "type": "address"
        }
      ],
      "name": "hasRole",
      "outputs": [
        {
          "internalType": "bool",
          "name": "",
          "type": "bool"
        }
      ],
      "stateMutability": "view",
      "type": "function"
    },
    {
      "inputs": [],
      "name": "owner",
      "outputs": [
        {
          "internalType": "address",
          "name": "",
          "type": "address"
        }
      ],
      "stateMutability": "view",
      "type": "function"
    },
    {
      "inputs": [
        {
          "internalType": "bytes32",
          "name": "role",
          "type": "bytes32"
        },
        {
          "internalType": "address",
          "name": "account",
          "type": "address"
        }
      ],
      "name": "renounceRole",
      "outputs": [],
      "stateMutability": "nonpayable",
      "type": "function"
    },
    {
      "inputs": [
        {
          "internalType": "bytes32",
          "name": "role",
          "type": "bytes32"
        },
        {
          "internalType": "address",
          "name": "account",
          "type": "address"
        }
      ],
      "name": "revokeRole",
      "outputs": [],
      "stateMutability": "nonpayable",
      "type": "function"
    },
    {
      "inputs": [
        {
          "internalType": "address",
          "name": "oricle",
          "type": "address"
        }
      ],
      "name": "setChainLinkOracle",
      "outputs": [],
      "stateMutability": "nonpayable",
      "type": "function"
    },
    {
      "inputs": [
        {
          "internalType": "address",
          "name": "linkToken",
          "type": "address"
        }
      ],
      "name": "setChainLinkToken",
      "outputs": [],
      "stateMutability": "nonpayable",
      "type": "function"
    },
    {
      "inputs": [
        {
          "internalType": "uint256",
          "name": "_fee",
          "type": "uint256"
        }
      ],
      "name": "setFee",
      "outputs": [],
      "stateMutability": "nonpayable",
      "type": "function"
    },
    {
      "inputs": [
        {
          "internalType": "bytes32",
          "name": "_jobId",
          "type": "bytes32"
        }
      ],
      "name": "setJobId",
      "outputs": [],
      "stateMutability": "nonpayable",
      "type": "function"
    },
    {
      "inputs": [
        {
          "internalType": "address",
          "name": "verifer",
          "type": "address"
        }
      ],
      "name": "setVeriferRole",
      "outputs": [],
      "stateMutability": "nonpayable",
      "type": "function"
    },
    {
      "inputs": [
        {
          "internalType": "bytes4",
          "name": "interfaceId",
          "type": "bytes4"
        }
      ],
      "name": "supportsInterface",
      "outputs": [
        {
          "internalType": "bool",
          "name": "",
          "type": "bool"
        }
      ],
      "stateMutability": "view",
      "type": "function"
    },
    {
      "inputs": [
        {
          "internalType": "address",
          "name": "to",
          "type": "address"
        }
      ],
      "name": "transferOwnership",
      "outputs": [],
      "stateMutability": "nonpayable",
      "type": "function"
    },
    {
      "inputs": [],
      "name": "updateBaseURI",
      "outputs": [],
      "stateMutability": "nonpayable",
      "type": "function"
    },
    {
      "inputs": [
        {
          "internalType": "address",
          "name": "userAddress",
          "type": "address"
        },
        {
          "internalType": "bytes",
          "name": "userId",
          "type": "bytes"
        },
        {
          "internalType": "bytes",
          "name": "fingerPrint",
          "type": "bytes"
        }
      ],
      "name": "verifyFingerPrint",
      "outputs": [],
      "stateMutability": "nonpayable",
      "type": "function"
    },
    {
      "inputs": [],
      "name": "withdrawLink",
      "outputs": [],
      "stateMutability": "payable",
      "type": "function"
    },
    {
      "stateMutability": "payable",
      "type": "receive"
    }
  ],
  "transactionHash": "0x1c8ed14ab27ed567b5cd3e91f8aaf5c52519d1e79eaea651fe6986d1c295c59d",
  "args": [
    "0xe7f1725E7734CE288F8367e1Bb143E90bb3F0512",
    "0x9fE46736679d2D9a65F0992F2272dE9f3c7fa6e0",
    "0x3764383061363338366566353433613361626235323831376636373037653362",
    "1000000000000000000",
    "0xf39Fd6e51aad88F6F4ce6aB8827279cffFb92266"
  ],
  "numDeployments": 1,
  "solcInputHash": "2d605e1ec7fec7f7cadba5b4acf876ad",
  "bytecode": "0x608060405260016004553480156200001657600080fd5b5060405162004cd038038062004cd083398181016040528101906200003c91906200050a565b338060008073ffffffffffffffffffffffffffffffffffffffff168273ffffffffffffffffffffffffffffffffffffffff1603620000b1576040517f08c379a0000000000000000000000000000000000000000000000000000000008152600401620000a890620005f3565b60405180910390fd5b81600660006101000a81548173ffffffffffffffffffffffffffffffffffffffff021916908373ffffffffffffffffffffffffffffffffffffffff160217905550600073ffffffffffffffffffffffffffffffffffffffff168173ffffffffffffffffffffffffffffffffffffffff1614620001395762000138816200027160201b60201c565b5b50505060016009819055506200015585620003a260201b60201c565b6200016684620003e660201b60201c565b82600f819055508160108190555080600e60006101000a81548173ffffffffffffffffffffffffffffffffffffffff021916908373ffffffffffffffffffffffffffffffffffffffff1602179055506040518060400160405280600681526020017f6765745572690000000000000000000000000000000000000000000000000000815250600b600080815260200190815260200160002090816200020c919062000885565b506040518060400160405280600a81526020017f6765744164647265737300000000000000000000000000000000000000000000815250600b600060018152602001908152602001600020908162000265919062000885565b505050505050620009de565b3373ffffffffffffffffffffffffffffffffffffffff168173ffffffffffffffffffffffffffffffffffffffff1603620002e2576040517f08c379a0000000000000000000000000000000000000000000000000000000008152600401620002d990620009bc565b60405180910390fd5b80600760006101000a81548173ffffffffffffffffffffffffffffffffffffffff021916908373ffffffffffffffffffffffffffffffffffffffff1602179055508073ffffffffffffffffffffffffffffffffffffffff16600660009054906101000a900473ffffffffffffffffffffffffffffffffffffffff1673ffffffffffffffffffffffffffffffffffffffff167fed8889f560326eb138920d842192f0eb3dd22b4f139c87a2c57538e05bae127860405160405180910390a350565b80600260006101000a81548173ffffffffffffffffffffffffffffffffffffffff021916908373ffffffffffffffffffffffffffffffffffffffff16021790555050565b80600360006101000a81548173ffffffffffffffffffffffffffffffffffffffff021916908373ffffffffffffffffffffffffffffffffffffffff16021790555050565b600080fd5b600073ffffffffffffffffffffffffffffffffffffffff82169050919050565b60006200045c826200042f565b9050919050565b6200046e816200044f565b81146200047a57600080fd5b50565b6000815190506200048e8162000463565b92915050565b6000819050919050565b620004a98162000494565b8114620004b557600080fd5b50565b600081519050620004c9816200049e565b92915050565b6000819050919050565b620004e481620004cf565b8114620004f057600080fd5b50565b6000815190506200050481620004d9565b92915050565b600080600080600060a086880312156200052957620005286200042a565b5b600062000539888289016200047d565b95505060206200054c888289016200047d565b94505060406200055f88828901620004b8565b93505060606200057288828901620004f3565b925050608062000585888289016200047d565b9150509295509295909350565b600082825260208201905092915050565b7f43616e6e6f7420736574206f776e657220746f207a65726f0000000000000000600082015250565b6000620005db60188362000592565b9150620005e882620005a3565b602082019050919050565b600060208201905081810360008301526200060e81620005cc565b9050919050565b600081519050919050565b7f4e487b7100000000000000000000000000000000000000000000000000000000600052604160045260246000fd5b7f4e487b7100000000000000000000000000000000000000000000000000000000600052602260045260246000fd5b600060028204905060018216806200069757607f821691505b602082108103620006ad57620006ac6200064f565b5b50919050565b60008190508160005260206000209050919050565b60006020601f8301049050919050565b600082821b905092915050565b600060088302620007177fffffffffffffffffffffffffffffffffffffffffffffffffffffffffffffffff82620006d8565b620007238683620006d8565b95508019841693508086168417925050509392505050565b6000819050919050565b600062000766620007606200075a84620004cf565b6200073b565b620004cf565b9050919050565b6000819050919050565b620007828362000745565b6200079a62000791826200076d565b848454620006e5565b825550505050565b600090565b620007b1620007a2565b620007be81848462000777565b505050565b5b81811015620007e657620007da600082620007a7565b600181019050620007c4565b5050565b601f8211156200083557620007ff81620006b3565b6200080a84620006c8565b810160208510156200081a578190505b620008326200082985620006c8565b830182620007c3565b50505b505050565b600082821c905092915050565b60006200085a600019846008026200083a565b1980831691505092915050565b600062000875838362000847565b9150826002028217905092915050565b620008908262000615565b67ffffffffffffffff811115620008ac57620008ab62000620565b5b620008b882546200067e565b620008c5828285620007ea565b600060209050601f831160018114620008fd5760008415620008e8578287015190505b620008f4858262000867565b86555062000964565b601f1984166200090d86620006b3565b60005b82811015620009375784890151825560018201915060208501945060208101905062000910565b8683101562000957578489015162000953601f89168262000847565b8355505b6001600288020188555050505b505050505050565b7f43616e6e6f74207472616e7366657220746f2073656c66000000000000000000600082015250565b6000620009a460178362000592565b9150620009b1826200096c565b602082019050919050565b60006020820190508181036000830152620009d78162000995565b9050919050565b6142e280620009ee6000396000f3fe6080604052600436106101445760003560e01c8063714c5398116100b6578063a217fddf1161006f578063a217fddf146104b6578063b6a9a38a146104e1578063d547741f1461050a578063f0aca82214610533578063f2fde38b1461055c578063f896f7c414610585576101e5565b8063714c5398146103eb57806379ba50971461041657806386a2c5031461042d5780638da5cb5b146104445780638dc654a21461046f57806391d1485414610479576101e5565b80632f2ff15d116101085780632f2ff15d146102df57806336568abe14610308578063508954f8146103315780635bcabf041461035a57806367e2efc61461038557806369fe0e2d146103c2576101e5565b806301ffc9a7146101ea578063247afee414610227578063248a9ca314610250578063257676a81461028d57806326ae9afb146102b6576101e5565b366101e55734600d60003373ffffffffffffffffffffffffffffffffffffffff1673ffffffffffffffffffffffffffffffffffffffff168152602001908152602001600020600082825461019891906129f5565b92505081905550343373ffffffffffffffffffffffffffffffffffffffff167f985c6b576d54b73e8b271365890eadef9d88dfe168128904b21fa0b128fd78ea60405160405180910390a3005b600080fd5b3480156101f657600080fd5b50610211600480360381019061020c9190612a95565b6105ae565b60405161021e9190612add565b60405180910390f35b34801561023357600080fd5b5061024e60048036038101906102499190612b56565b610628565b005b34801561025c57600080fd5b5061027760048036038101906102729190612bb9565b610706565b6040516102849190612bf5565b60405180910390f35b34801561029957600080fd5b506102b460048036038101906102af9190612b56565b610726565b005b3480156102c257600080fd5b506102dd60048036038101906102d89190612b56565b61074a565b005b3480156102eb57600080fd5b5061030660048036038101906103019190612c10565b61078f565b005b34801561031457600080fd5b5061032f600480360381019061032a9190612c10565b6107b0565b005b34801561033d57600080fd5b5061035860048036038101906103539190612bb9565b610833565b005b34801561036657600080fd5b5061036f610855565b60405161037c9190612ce0565b60405180910390f35b34801561039157600080fd5b506103ac60048036038101906103a79190612b56565b6108e3565b6040516103b99190612e2d565b60405180910390f35b3480156103ce57600080fd5b506103e960048036038101906103e49190612e7b565b610a13565b005b3480156103f757600080fd5b50610400610a35565b60405161040d9190612ce0565b60405180910390f35b34801561042257600080fd5b5061042b610ac7565b005b34801561043957600080fd5b50610442610c5e565b005b34801561045057600080fd5b50610459610d05565b6040516104669190612eb7565b60405180910390f35b610477610d2f565b005b34801561048557600080fd5b506104a0600480360381019061049b9190612c10565b610eed565b6040516104ad9190612add565b60405180910390f35b3480156104c257600080fd5b506104cb610f58565b6040516104d89190612bf5565b60405180910390f35b3480156104ed57600080fd5b5061050860048036038101906105039190613007565b610f5f565b005b34801561051657600080fd5b50610531600480360381019061052c9190612c10565b6111e3565b005b34801561053f57600080fd5b5061055a60048036038101906105559190613104565b611204565b005b34801561056857600080fd5b50610583600480360381019061057e9190612b56565b6118ad565b005b34801561059157600080fd5b506105ac60048036038101906105a79190612b56565b6118c1565b005b60007f7965db0b000000000000000000000000000000000000000000000000000000007bffffffffffffffffffffffffffffffffffffffffffffffffffffffff1916827bffffffffffffffffffffffffffffffffffffffffffffffffffffffff191614806106215750610620826118e5565b5b9050919050565b6106527f0ce23c3e399818cfee81a7ab0880f714e53d7672b08df0fa62f2843416e1ea0933610eed565b610688576040517f75ceeec000000000000000000000000000000000000000000000000000000000815260040160405180910390fd5b61069061194f565b6000600c60008373ffffffffffffffffffffffffffffffffffffffff1673ffffffffffffffffffffffffffffffffffffffff16815260200190815260200160002060020160006101000a81548160ff021916908360038111156106f6576106f5612d66565b5b021790555061070361199e565b50565b600060086000838152602001908152602001600020600101549050919050565b61072e6119a8565b61073661194f565b61073f81611a3a565b61074761199e565b50565b6107526119a8565b61075a61194f565b6107847f0ce23c3e399818cfee81a7ab0880f714e53d7672b08df0fa62f2843416e1ea0982611a7e565b61078c61199e565b50565b61079882610706565b6107a181611a8c565b6107ab8383611aa0565b505050565b6107b8611b81565b73ffffffffffffffffffffffffffffffffffffffff168173ffffffffffffffffffffffffffffffffffffffff1614610825576040517f08c379a000000000000000000000000000000000000000000000000000000000815260040161081c90613201565b60405180910390fd5b61082f8282611b89565b5050565b61083b6119a8565b61084361194f565b80600f8190555061085261199e565b50565b6011805461086290613250565b80601f016020809104026020016040519081016040528092919081815260200182805461088e90613250565b80156108db5780601f106108b0576101008083540402835291602001916108db565b820191906000526020600020905b8154815290600101906020018083116108be57829003601f168201915b505050505081565b6108eb612902565b600c60008373ffffffffffffffffffffffffffffffffffffffff1673ffffffffffffffffffffffffffffffffffffffff16815260200190815260200160002060405180606001604052908160008201805461094590613250565b80601f016020809104026020016040519081016040528092919081815260200182805461097190613250565b80156109be5780601f10610993576101008083540402835291602001916109be565b820191906000526020600020905b8154815290600101906020018083116109a157829003601f168201915b50505050508152602001600182015481526020016002820160009054906101000a900460ff1660038111156109f6576109f5612d66565b5b6003811115610a0857610a07612d66565b5b815250509050919050565b610a1b6119a8565b610a2361194f565b80601081905550610a3261199e565b50565b606060118054610a4490613250565b80601f0160208091040260200160405190810160405280929190818152602001828054610a7090613250565b8015610abd5780601f10610a9257610100808354040283529160200191610abd565b820191906000526020600020905b815481529060010190602001808311610aa057829003601f168201915b5050505050905090565b600760009054906101000a900473ffffffffffffffffffffffffffffffffffffffff1673ffffffffffffffffffffffffffffffffffffffff163373ffffffffffffffffffffffffffffffffffffffff1614610b57576040517f08c379a0000000000000000000000000000000000000000000000000000000008152600401610b4e906132cd565b60405180910390fd5b6000600660009054906101000a900473ffffffffffffffffffffffffffffffffffffffff16905033600660006101000a81548173ffffffffffffffffffffffffffffffffffffffff021916908373ffffffffffffffffffffffffffffffffffffffff1602179055506000600760006101000a81548173ffffffffffffffffffffffffffffffffffffffff021916908373ffffffffffffffffffffffffffffffffffffffff1602179055503373ffffffffffffffffffffffffffffffffffffffff168173ffffffffffffffffffffffffffffffffffffffff167f8be0079c531659141344cd1fd0a4f28419497f9722a3daafe3b4186f6b6457e060405160405180910390a350565b600e60009054906101000a900473ffffffffffffffffffffffffffffffffffffffff1673ffffffffffffffffffffffffffffffffffffffff166338bcdc1c6040518163ffffffff1660e01b8152600401600060405180830381865afa158015610ccb573d6000803e3d6000fd5b505050506040513d6000823e3d601f19601f82011682018060405250810190610cf4919061335d565b60119081610d029190613552565b50565b6000600660009054906101000a900473ffffffffffffffffffffffffffffffffffffffff16905090565b610d3761194f565b6000600d60003373ffffffffffffffffffffffffffffffffffffffff1673ffffffffffffffffffffffffffffffffffffffff16815260200190815260200160002054905060008103610db5576040517f5dce311a00000000000000000000000000000000000000000000000000000000815260040160405180910390fd5b6000600d60003373ffffffffffffffffffffffffffffffffffffffff1673ffffffffffffffffffffffffffffffffffffffff1681526020019081526020016000208190555060003373ffffffffffffffffffffffffffffffffffffffff1682604051610e2090613655565b60006040518083038185875af1925050503d8060008114610e5d576040519150601f19603f3d011682016040523d82523d6000602084013e610e62565b606091505b5050905080610e9d576040517fa259cac100000000000000000000000000000000000000000000000000000000815260040160405180910390fd5b813373ffffffffffffffffffffffffffffffffffffffff167f86103aca9d06378ad5eb858d2ee726267f69628ca4ff59597196865412b6338760405160405180910390a35050610eeb61199e565b565b60006008600084815260200190815260200160002060000160008373ffffffffffffffffffffffffffffffffffffffff1673ffffffffffffffffffffffffffffffffffffffff16815260200190815260200160002060009054906101000a900460ff16905092915050565b6000801b81565b816005600082815260200190815260200160002060009054906101000a900473ffffffffffffffffffffffffffffffffffffffff1673ffffffffffffffffffffffffffffffffffffffff163373ffffffffffffffffffffffffffffffffffffffff1614611001576040517f08c379a0000000000000000000000000000000000000000000000000000000008152600401610ff8906136dc565b60405180910390fd5b6005600082815260200190815260200160002060006101000a81549073ffffffffffffffffffffffffffffffffffffffff0219169055807f7cc135e0cebb02c3480ae5d74d377283180a2601f8f644edf7987b009316c63a60405160405180910390a260006040518060400160405280600481526020017f7472756500000000000000000000000000000000000000000000000000000000815250805190602001208380519060200120036110b957600290506110be565b600390505b80600c6000600a600088815260200190815260200160002060009054906101000a900473ffffffffffffffffffffffffffffffffffffffff1673ffffffffffffffffffffffffffffffffffffffff1673ffffffffffffffffffffffffffffffffffffffff16815260200190815260200160002060020160006101000a81548160ff0219169083600381111561115657611155612d66565b5b021790555083600a600086815260200190815260200160002060009054906101000a900473ffffffffffffffffffffffffffffffffffffffff1673ffffffffffffffffffffffffffffffffffffffff167f5a2b7011e33ca280649ab25a0caf375babbad754f847e6a1364d7133a46282c8856040516111d59190612ce0565b60405180910390a350505050565b6111ec82610706565b6111f581611a8c565b6111ff8383611b89565b505050565b61122e7f0ce23c3e399818cfee81a7ab0880f714e53d7672b08df0fa62f2843416e1ea0933610eed565b611264576040517f75ceeec000000000000000000000000000000000000000000000000000000000815260040160405180910390fd5b61126c61194f565b60006001600381111561128257611281612d66565b5b600c60008673ffffffffffffffffffffffffffffffffffffffff1673ffffffffffffffffffffffffffffffffffffffff16815260200190815260200160002060020160009054906101000a900460ff1660038111156112e4576112e3612d66565b5b0361132657836040517f1e802a0900000000000000000000000000000000000000000000000000000000815260040161131d9190612eb7565b60405180910390fd5b6002600381111561133a57611339612d66565b5b600c60008673ffffffffffffffffffffffffffffffffffffffff1673ffffffffffffffffffffffffffffffffffffffff16815260200190815260200160002060020160009054906101000a900460ff16600381111561139c5761139b612d66565b5b036113de57836040517f6853b7d70000000000000000000000000000000000000000000000000000000081526004016113d59190612eb7565b60405180910390fd5b6003808111156113f1576113f0612d66565b5b600c60008673ffffffffffffffffffffffffffffffffffffffff1673ffffffffffffffffffffffffffffffffffffffff16815260200190815260200160002060020160009054906101000a900460ff16600381111561145357611452612d66565b5b1480156114a257506003600c60008673ffffffffffffffffffffffffffffffffffffffff1673ffffffffffffffffffffffffffffffffffffffff16815260200190815260200160002060010154115b156114e457836040517f9a5576a60000000000000000000000000000000000000000000000000000000081526004016114db9190612eb7565b60405180910390fd5b6003808111156114f7576114f6612d66565b5b600c60008673ffffffffffffffffffffffffffffffffffffffff1673ffffffffffffffffffffffffffffffffffffffff16815260200190815260200160002060020160009054906101000a900460ff16600381111561155957611558612d66565b5b0361156d578080611569906136fc565b9150505b6000611583600f543063b6a9a38a60e01b611c6b565b9050600e60009054906101000a900473ffffffffffffffffffffffffffffffffffffffff1673ffffffffffffffffffffffffffffffffffffffff166338bcdc1c6040518163ffffffff1660e01b8152600401600060405180830381865afa1580156115f2573d6000803e3d6000fd5b505050506040513d6000823e3d601f19601f8201168201806040525081019061161b919061335d565b601190816116299190613552565b506116ad6040518060400160405280600381526020017f67657400000000000000000000000000000000000000000000000000000000008152506011600b600060018152602001908152602001600020878760405160200161168e949392919061389b565b60405160208183030381529060405283611c9c9092919063ffffffff16565b61172c6040518060400160405280600481526020017f70617468000000000000000000000000000000000000000000000000000000008152506040518060400160405280601381526020017f7665726669636174696f6e526573706f6e73650000000000000000000000000081525083611c9c9092919063ffffffff16565b600061173a82601054611ccf565b905085600a600083815260200190815260200160002060006101000a81548173ffffffffffffffffffffffffffffffffffffffff021916908373ffffffffffffffffffffffffffffffffffffffff1602179055506040518060600160405280868152602001848152602001600160038111156117b9576117b8612d66565b5b815250600c60008873ffffffffffffffffffffffffffffffffffffffff1673ffffffffffffffffffffffffffffffffffffffff1681526020019081526020016000206000820151816000019081611810919061394a565b506020820151816001015560408201518160020160006101000a81548160ff0219169083600381111561184657611845612d66565b5b02179055509050508460405161185c9190613a1c565b60405180910390207f543080fe0ccea351187b8d00acb2fa317d220c33c2b6ec61e904a04a889941228288604051611895929190613a33565b60405180910390a25050506118a861199e565b505050565b6118b56119a8565b6118be81611d06565b50565b6118c96119a8565b6118d161194f565b6118da81611e34565b6118e261199e565b50565b60007f01ffc9a7000000000000000000000000000000000000000000000000000000007bffffffffffffffffffffffffffffffffffffffffffffffffffffffff1916827bffffffffffffffffffffffffffffffffffffffffffffffffffffffff1916149050919050565b600260095403611994576040517f08c379a000000000000000000000000000000000000000000000000000000000815260040161198b90613aa8565b60405180910390fd5b6002600981905550565b6001600981905550565b600660009054906101000a900473ffffffffffffffffffffffffffffffffffffffff1673ffffffffffffffffffffffffffffffffffffffff163373ffffffffffffffffffffffffffffffffffffffff1614611a38576040517f08c379a0000000000000000000000000000000000000000000000000000000008152600401611a2f90613b14565b60405180910390fd5b565b80600260006101000a81548173ffffffffffffffffffffffffffffffffffffffff021916908373ffffffffffffffffffffffffffffffffffffffff16021790555050565b611a888282611aa0565b5050565b611a9d81611a98611b81565b611e78565b50565b611aaa8282610eed565b611b7d5760016008600084815260200190815260200160002060000160008373ffffffffffffffffffffffffffffffffffffffff1673ffffffffffffffffffffffffffffffffffffffff16815260200190815260200160002060006101000a81548160ff021916908315150217905550611b22611b81565b73ffffffffffffffffffffffffffffffffffffffff168173ffffffffffffffffffffffffffffffffffffffff16837f2f8788117e7eff1d82e926ec794901d17c78024a50270940304540a733656f0d60405160405180910390a45b5050565b600033905090565b611b938282610eed565b15611c675760006008600084815260200190815260200160002060000160008373ffffffffffffffffffffffffffffffffffffffff1673ffffffffffffffffffffffffffffffffffffffff16815260200190815260200160002060006101000a81548160ff021916908315150217905550611c0c611b81565b73ffffffffffffffffffffffffffffffffffffffff168173ffffffffffffffffffffffffffffffffffffffff16837ff6391f5c32d9c69d2a47ea670b442974b53935d1edc7fd64eb21e047a839171b60405160405180910390a45b5050565b611c73612935565b611c7b612935565b611c9285858584611efd909392919063ffffffff16565b9150509392505050565b611cb3828460800151611fad90919063ffffffff16565b611cca818460800151611fad90919063ffffffff16565b505050565b6000611cfe600360009054906101000a900473ffffffffffffffffffffffffffffffffffffffff168484611fd2565b905092915050565b3373ffffffffffffffffffffffffffffffffffffffff168173ffffffffffffffffffffffffffffffffffffffff1603611d74576040517f08c379a0000000000000000000000000000000000000000000000000000000008152600401611d6b90613b80565b60405180910390fd5b80600760006101000a81548173ffffffffffffffffffffffffffffffffffffffff021916908373ffffffffffffffffffffffffffffffffffffffff1602179055508073ffffffffffffffffffffffffffffffffffffffff16600660009054906101000a900473ffffffffffffffffffffffffffffffffffffffff1673ffffffffffffffffffffffffffffffffffffffff167fed8889f560326eb138920d842192f0eb3dd22b4f139c87a2c57538e05bae127860405160405180910390a350565b80600360006101000a81548173ffffffffffffffffffffffffffffffffffffffff021916908373ffffffffffffffffffffffffffffffffffffffff16021790555050565b611e828282610eed565b611ef957611e8f8161209e565b611e9d8360001c60206120cb565b604051602001611eae929190613c69565b6040516020818303038152906040526040517f08c379a0000000000000000000000000000000000000000000000000000000008152600401611ef09190612ce0565b60405180910390fd5b5050565b611f05612935565b611f158560800151610100612307565b508385600001818152505082856020019073ffffffffffffffffffffffffffffffffffffffff16908173ffffffffffffffffffffffffffffffffffffffff16815250508185604001907bffffffffffffffffffffffffffffffffffffffffffffffffffffffff191690817bffffffffffffffffffffffffffffffffffffffffffffffffffffffff191681525050849050949350505050565b611fba8260038351612371565b611fcd81836124f690919063ffffffff16565b505050565b6000806004549050600181611fe791906129f5565b6004819055506000634042994660e01b60008087600001513089604001518760018c6080015160000151604051602401612028989796959493929190613d0b565b604051602081830303815290604052907bffffffffffffffffffffffffffffffffffffffffffffffffffffffff19166020820180517bffffffffffffffffffffffffffffffffffffffffffffffffffffffff8381831617835250505050905061209386838684612518565b925050509392505050565b60606120c48273ffffffffffffffffffffffffffffffffffffffff16601460ff166120cb565b9050919050565b6060600060028360026120de9190613d90565b6120e891906129f5565b67ffffffffffffffff81111561210157612100612edc565b5b6040519080825280601f01601f1916602001820160405280156121335781602001600182028036833780820191505090505b5090507f30000000000000000000000000000000000000000000000000000000000000008160008151811061216b5761216a613dd2565b5b60200101907effffffffffffffffffffffffffffffffffffffffffffffffffffffffffffff1916908160001a9053507f7800000000000000000000000000000000000000000000000000000000000000816001815181106121cf576121ce613dd2565b5b60200101907effffffffffffffffffffffffffffffffffffffffffffffffffffffffffffff1916908160001a9053506000600184600261220f9190613d90565b61221991906129f5565b90505b60018111156122b9577f3031323334353637383961626364656600000000000000000000000000000000600f86166010811061225b5761225a613dd2565b5b1a60f81b82828151811061227257612271613dd2565b5b60200101907effffffffffffffffffffffffffffffffffffffffffffffffffffffffffffff1916908160001a905350600485901c9450806122b290613e01565b905061221c565b50600084146122fd576040517f08c379a00000000000000000000000000000000000000000000000000000000081526004016122f490613e76565b60405180910390fd5b8091505092915050565b61230f6129a2565b600060208361231e9190613ec5565b1461234a576020826123309190613ec5565b602061233c9190613ef6565b8261234791906129f5565b91505b81836020018181525050604051808452600081528281016020016040525082905092915050565b60178167ffffffffffffffff16116123a8576123a28160058460ff16901b60ff1617846126ad90919063ffffffff16565b506124f1565b60ff8167ffffffffffffffff16116123fe576123d7601860058460ff16901b17846126ad90919063ffffffff16565b506123f88167ffffffffffffffff166001856126cd9092919063ffffffff16565b506124f0565b61ffff8167ffffffffffffffff16116124555761242e601960058460ff16901b17846126ad90919063ffffffff16565b5061244f8167ffffffffffffffff166002856126cd9092919063ffffffff16565b506124ef565b63ffffffff8167ffffffffffffffff16116124ae57612487601a60058460ff16901b17846126ad90919063ffffffff16565b506124a88167ffffffffffffffff166004856126cd9092919063ffffffff16565b506124ee565b6124cb601b60058460ff16901b17846126ad90919063ffffffff16565b506124ec8167ffffffffffffffff166008856126cd9092919063ffffffff16565b505b5b5b5b505050565b6124fe6129a2565b612510838460000151518485516126ef565b905092915050565b6000308460405160200161252d929190613fd9565b604051602081830303815290604052805190602001209050846005600083815260200190815260200160002060006101000a81548173ffffffffffffffffffffffffffffffffffffffff021916908373ffffffffffffffffffffffffffffffffffffffff160217905550807fb5e6e01e79f91267dc17b4e6314d5d4d03593d2ceee0fbb452b750bd70ea5af960405160405180910390a2600260009054906101000a900473ffffffffffffffffffffffffffffffffffffffff1673ffffffffffffffffffffffffffffffffffffffff16634000aea08685856040518463ffffffff1660e01b815260040161262393929190614005565b6020604051808303816000875af1158015612642573d6000803e3d6000fd5b505050506040513d601f19601f82011682018060405250810190612666919061406f565b6126a5576040517f08c379a000000000000000000000000000000000000000000000000000000000815260040161269c9061410e565b60405180910390fd5b949350505050565b6126b56129a2565b6126c583846000015151846127de565b905092915050565b6126d56129a2565b6126e6848560000151518585612834565b90509392505050565b6126f76129a2565b825182111561270557600080fd5b8460200151828561271691906129f5565b111561274b5761274a85600261273b8860200151888761273691906129f5565b6128c2565b6127459190613d90565b6128de565b5b60008086518051876020830101935080888701111561276a5787860182525b60208701925050505b602084106127b1578051825260208261278c91906129f5565b915060208161279b91906129f5565b90506020846127aa9190613ef6565b9350612773565b60006001856020036101000a03905080198251168184511681811785525050508692505050949350505050565b6127e66129a2565b8360200151831061280c5761280b84600286602001516128069190613d90565b6128de565b5b83518051602085830101848153818603612827576001820183525b5050508390509392505050565b61283c6129a2565b8460200151848361284d91906129f5565b111561287557612874856002868561286591906129f5565b61286f9190613d90565b6128de565b5b60006001836101006128879190614261565b6128919190613ef6565b905085518386820101858319825116178152815185880111156128b45784870182525b505085915050949350505050565b6000818311156128d4578290506128d8565b8190505b92915050565b6000826000015190506128f18383612307565b506128fc83826124f6565b50505050565b604051806060016040528060608152602001600081526020016000600381111561292f5761292e612d66565b5b81525090565b6040518060a0016040528060008019168152602001600073ffffffffffffffffffffffffffffffffffffffff16815260200160007bffffffffffffffffffffffffffffffffffffffffffffffffffffffff191681526020016000815260200161299c6129a2565b81525090565b604051806040016040528060608152602001600081525090565b6000819050919050565b7f4e487b7100000000000000000000000000000000000000000000000000000000600052601160045260246000fd5b6000612a00826129bc565b9150612a0b836129bc565b9250828201905080821115612a2357612a226129c6565b5b92915050565b6000604051905090565b600080fd5b600080fd5b60007fffffffff0000000000000000000000000000000000000000000000000000000082169050919050565b612a7281612a3d565b8114612a7d57600080fd5b50565b600081359050612a8f81612a69565b92915050565b600060208284031215612aab57612aaa612a33565b5b6000612ab984828501612a80565b91505092915050565b60008115159050919050565b612ad781612ac2565b82525050565b6000602082019050612af26000830184612ace565b92915050565b600073ffffffffffffffffffffffffffffffffffffffff82169050919050565b6000612b2382612af8565b9050919050565b612b3381612b18565b8114612b3e57600080fd5b50565b600081359050612b5081612b2a565b92915050565b600060208284031215612b6c57612b6b612a33565b5b6000612b7a84828501612b41565b91505092915050565b6000819050919050565b612b9681612b83565b8114612ba157600080fd5b50565b600081359050612bb381612b8d565b92915050565b600060208284031215612bcf57612bce612a33565b5b6000612bdd84828501612ba4565b91505092915050565b612bef81612b83565b82525050565b6000602082019050612c0a6000830184612be6565b92915050565b60008060408385031215612c2757612c26612a33565b5b6000612c3585828601612ba4565b9250506020612c4685828601612b41565b9150509250929050565b600081519050919050565b600082825260208201905092915050565b60005b83811015612c8a578082015181840152602081019050612c6f565b60008484015250505050565b6000601f19601f8301169050919050565b6000612cb282612c50565b612cbc8185612c5b565b9350612ccc818560208601612c6c565b612cd581612c96565b840191505092915050565b60006020820190508181036000830152612cfa8184612ca7565b905092915050565b600081519050919050565b600082825260208201905092915050565b6000612d2982612d02565b612d338185612d0d565b9350612d43818560208601612c6c565b612d4c81612c96565b840191505092915050565b612d60816129bc565b82525050565b7f4e487b7100000000000000000000000000000000000000000000000000000000600052602160045260246000fd5b60048110612da657612da5612d66565b5b50565b6000819050612db782612d95565b919050565b6000612dc782612da9565b9050919050565b612dd781612dbc565b82525050565b60006060830160008301518482036000860152612dfa8282612d1e565b9150506020830151612e0f6020860182612d57565b506040830151612e226040860182612dce565b508091505092915050565b60006020820190508181036000830152612e478184612ddd565b905092915050565b612e58816129bc565b8114612e6357600080fd5b50565b600081359050612e7581612e4f565b92915050565b600060208284031215612e9157612e90612a33565b5b6000612e9f84828501612e66565b91505092915050565b612eb181612b18565b82525050565b6000602082019050612ecc6000830184612ea8565b92915050565b600080fd5b600080fd5b7f4e487b7100000000000000000000000000000000000000000000000000000000600052604160045260246000fd5b612f1482612c96565b810181811067ffffffffffffffff82111715612f3357612f32612edc565b5b80604052505050565b6000612f46612a29565b9050612f528282612f0b565b919050565b600067ffffffffffffffff821115612f7257612f71612edc565b5b612f7b82612c96565b9050602081019050919050565b82818337600083830152505050565b6000612faa612fa584612f57565b612f3c565b905082815260208101848484011115612fc657612fc5612ed7565b5b612fd1848285612f88565b509392505050565b600082601f830112612fee57612fed612ed2565b5b8135612ffe848260208601612f97565b91505092915050565b6000806040838503121561301e5761301d612a33565b5b600061302c85828601612ba4565b925050602083013567ffffffffffffffff81111561304d5761304c612a38565b5b61305985828601612fd9565b9150509250929050565b600067ffffffffffffffff82111561307e5761307d612edc565b5b61308782612c96565b9050602081019050919050565b60006130a76130a284613063565b612f3c565b9050828152602081018484840111156130c3576130c2612ed7565b5b6130ce848285612f88565b509392505050565b600082601f8301126130eb576130ea612ed2565b5b81356130fb848260208601613094565b91505092915050565b60008060006060848603121561311d5761311c612a33565b5b600061312b86828701612b41565b935050602084013567ffffffffffffffff81111561314c5761314b612a38565b5b613158868287016130d6565b925050604084013567ffffffffffffffff81111561317957613178612a38565b5b613185868287016130d6565b9150509250925092565b7f416363657373436f6e74726f6c3a2063616e206f6e6c792072656e6f756e636560008201527f20726f6c657320666f722073656c660000000000000000000000000000000000602082015250565b60006131eb602f83612c5b565b91506131f68261318f565b604082019050919050565b6000602082019050818103600083015261321a816131de565b9050919050565b7f4e487b7100000000000000000000000000000000000000000000000000000000600052602260045260246000fd5b6000600282049050600182168061326857607f821691505b60208210810361327b5761327a613221565b5b50919050565b7f4d7573742062652070726f706f736564206f776e657200000000000000000000600082015250565b60006132b7601683612c5b565b91506132c282613281565b602082019050919050565b600060208201905081810360008301526132e6816132aa565b9050919050565b60006133006132fb84612f57565b612f3c565b90508281526020810184848401111561331c5761331b612ed7565b5b613327848285612c6c565b509392505050565b600082601f83011261334457613343612ed2565b5b81516133548482602086016132ed565b91505092915050565b60006020828403121561337357613372612a33565b5b600082015167ffffffffffffffff81111561339157613390612a38565b5b61339d8482850161332f565b91505092915050565b60008190508160005260206000209050919050565b60006020601f8301049050919050565b600082821b905092915050565b6000600883026134087fffffffffffffffffffffffffffffffffffffffffffffffffffffffffffffffff826133cb565b61341286836133cb565b95508019841693508086168417925050509392505050565b6000819050919050565b600061344f61344a613445846129bc565b61342a565b6129bc565b9050919050565b6000819050919050565b61346983613434565b61347d61347582613456565b8484546133d8565b825550505050565b600090565b613492613485565b61349d818484613460565b505050565b5b818110156134c1576134b660008261348a565b6001810190506134a3565b5050565b601f821115613506576134d7816133a6565b6134e0846133bb565b810160208510156134ef578190505b6135036134fb856133bb565b8301826134a2565b50505b505050565b600082821c905092915050565b60006135296000198460080261350b565b1980831691505092915050565b60006135428383613518565b9150826002028217905092915050565b61355b82612c50565b67ffffffffffffffff81111561357457613573612edc565b5b61357e8254613250565b6135898282856134c5565b600060209050601f8311600181146135bc57600084156135aa578287015190505b6135b48582613536565b86555061361c565b601f1984166135ca866133a6565b60005b828110156135f2578489015182556001820191506020850194506020810190506135cd565b8683101561360f578489015161360b601f891682613518565b8355505b6001600288020188555050505b505050505050565b600081905092915050565b50565b600061363f600083613624565b915061364a8261362f565b600082019050919050565b600061366082613632565b9150819050919050565b7f536f75726365206d75737420626520746865206f7261636c65206f662074686560008201527f2072657175657374000000000000000000000000000000000000000000000000602082015250565b60006136c6602883612c5b565b91506136d18261366a565b604082019050919050565b600060208201905081810360008301526136f5816136b9565b9050919050565b6000613707826129bc565b91507fffffffffffffffffffffffffffffffffffffffffffffffffffffffffffffffff8203613739576137386129c6565b5b600182019050919050565b600081905092915050565b6000815461375c81613250565b6137668186613744565b945060018216600081146137815760018114613796576137c9565b60ff19831686528115158202860193506137c9565b61379f856133a6565b60005b838110156137c1578154818901526001820191506020810190506137a2565b838801955050505b50505092915050565b7f3f7573657249643d000000000000000000000000000000000000000000000000600082015250565b6000613808600883613744565b9150613813826137d2565b600882019050919050565b600061382982612d02565b6138338185613624565b9350613843818560208601612c6c565b80840191505092915050565b7f2666696e6765725072696e743d00000000000000000000000000000000000000600082015250565b6000613885600d83613744565b91506138908261384f565b600d82019050919050565b60006138a7828761374f565b91506138b3828661374f565b91506138be826137fb565b91506138ca828561381e565b91506138d582613878565b91506138e1828461381e565b915081905095945050505050565b60008190508160005260206000209050919050565b601f82111561394557613916816138ef565b61391f846133bb565b8101602085101561392e578190505b61394261393a856133bb565b8301826134a2565b50505b505050565b61395382612d02565b67ffffffffffffffff81111561396c5761396b612edc565b5b6139768254613250565b613981828285613904565b600060209050601f8311600181146139b457600084156139a2578287015190505b6139ac8582613536565b865550613a14565b601f1984166139c2866138ef565b60005b828110156139ea578489015182556001820191506020850194506020810190506139c5565b86831015613a075784890151613a03601f891682613518565b8355505b6001600288020188555050505b505050505050565b6000613a28828461381e565b915081905092915050565b6000604082019050613a486000830185612be6565b613a556020830184612ea8565b9392505050565b7f5265656e7472616e637947756172643a207265656e7472616e742063616c6c00600082015250565b6000613a92601f83612c5b565b9150613a9d82613a5c565b602082019050919050565b60006020820190508181036000830152613ac181613a85565b9050919050565b7f4f6e6c792063616c6c61626c65206279206f776e657200000000000000000000600082015250565b6000613afe601683612c5b565b9150613b0982613ac8565b602082019050919050565b60006020820190508181036000830152613b2d81613af1565b9050919050565b7f43616e6e6f74207472616e7366657220746f2073656c66000000000000000000600082015250565b6000613b6a601783612c5b565b9150613b7582613b34565b602082019050919050565b60006020820190508181036000830152613b9981613b5d565b9050919050565b7f416363657373436f6e74726f6c3a206163636f756e7420000000000000000000600082015250565b6000613bd6601783613744565b9150613be182613ba0565b601782019050919050565b6000613bf782612c50565b613c018185613744565b9350613c11818560208601612c6c565b80840191505092915050565b7f206973206d697373696e6720726f6c6520000000000000000000000000000000600082015250565b6000613c53601183613744565b9150613c5e82613c1d565b601182019050919050565b6000613c7482613bc9565b9150613c808285613bec565b9150613c8b82613c46565b9150613c978284613bec565b91508190509392505050565b613cac816129bc565b82525050565b613cbb81612a3d565b82525050565b600082825260208201905092915050565b6000613cdd82612d02565b613ce78185613cc1565b9350613cf7818560208601612c6c565b613d0081612c96565b840191505092915050565b600061010082019050613d21600083018b612ea8565b613d2e602083018a613ca3565b613d3b6040830189612be6565b613d486060830188612ea8565b613d556080830187613cb2565b613d6260a0830186613ca3565b613d6f60c0830185613ca3565b81810360e0830152613d818184613cd2565b90509998505050505050505050565b6000613d9b826129bc565b9150613da6836129bc565b9250828202613db4816129bc565b91508282048414831517613dcb57613dca6129c6565b5b5092915050565b7f4e487b7100000000000000000000000000000000000000000000000000000000600052603260045260246000fd5b6000613e0c826129bc565b915060008203613e1f57613e1e6129c6565b5b600182039050919050565b7f537472696e67733a20686578206c656e67746820696e73756666696369656e74600082015250565b6000613e60602083612c5b565b9150613e6b82613e2a565b602082019050919050565b60006020820190508181036000830152613e8f81613e53565b9050919050565b7f4e487b7100000000000000000000000000000000000000000000000000000000600052601260045260246000fd5b6000613ed0826129bc565b9150613edb836129bc565b925082613eeb57613eea613e96565b5b828206905092915050565b6000613f01826129bc565b9150613f0c836129bc565b9250828203905081811115613f2457613f236129c6565b5b92915050565b6000613f45613f40613f3b84612af8565b61342a565b612af8565b9050919050565b6000613f5782613f2a565b9050919050565b6000613f6982613f4c565b9050919050565b60008160601b9050919050565b6000613f8882613f70565b9050919050565b6000613f9a82613f7d565b9050919050565b613fb2613fad82613f5e565b613f8f565b82525050565b6000819050919050565b613fd3613fce826129bc565b613fb8565b82525050565b6000613fe58285613fa1565b601482019150613ff58284613fc2565b6020820191508190509392505050565b600060608201905061401a6000830186612ea8565b6140276020830185613ca3565b81810360408301526140398184613cd2565b9050949350505050565b61404c81612ac2565b811461405757600080fd5b50565b60008151905061406981614043565b92915050565b60006020828403121561408557614084612a33565b5b60006140938482850161405a565b91505092915050565b7f756e61626c6520746f207472616e73666572416e6443616c6c20746f206f726160008201527f636c650000000000000000000000000000000000000000000000000000000000602082015250565b60006140f8602383612c5b565b91506141038261409c565b604082019050919050565b60006020820190508181036000830152614127816140eb565b9050919050565b60008160011c9050919050565b6000808291508390505b600185111561418557808604811115614161576141606129c6565b5b60018516156141705780820291505b808102905061417e8561412e565b9450614145565b94509492505050565b60008261419e576001905061425a565b816141ac576000905061425a565b81600181146141c257600281146141cc576141fb565b600191505061425a565b60ff8411156141de576141dd6129c6565b5b8360020a9150848211156141f5576141f46129c6565b5b5061425a565b5060208310610133831016604e8410600b84101617156142305782820a90508381111561422b5761422a6129c6565b5b61425a565b61423d848484600161413b565b92509050818404811115614254576142536129c6565b5b81810290505b9392505050565b600061426c826129bc565b9150614277836129bc565b92506142a47fffffffffffffffffffffffffffffffffffffffffffffffffffffffffffffffff848461418e565b90509291505056fea26469706673582212201bfacc9d899fb77240f3e8b67eafbcefdd724b4a0ddb2be78441f74138ffb2c864736f6c63430008110033",
  "devdoc": {
    "kind": "dev",
    "methods": {
      "fulfillMultipleParameters(bytes32,string)": {
        "details": "This is called by the oracle. recordChainlinkFulfillment must be used."
      },
      "getRoleAdmin(bytes32)": {
        "details": "Returns the admin role that controls `role`. See {grantRole} and {revokeRole}. To change a role's admin, use {_setRoleAdmin}."
      },
      "grantRole(bytes32,address)": {
        "details": "Grants `role` to `account`. If `account` had not been already granted `role`, emits a {RoleGranted} event. Requirements: - the caller must have ``role``'s admin role. May emit a {RoleGranted} event."
      },
      "hasRole(bytes32,address)": {
        "details": "Returns `true` if `account` has been granted `role`."
      },
      "renounceRole(bytes32,address)": {
        "details": "Revokes `role` from the calling account. Roles are often managed via {grantRole} and {revokeRole}: this function's purpose is to provide a mechanism for accounts to lose their privileges if they are compromised (such as when a trusted device is misplaced). If the calling account had been revoked `role`, emits a {RoleRevoked} event. Requirements: - the caller must be `account`. May emit a {RoleRevoked} event."
      },
      "revokeRole(bytes32,address)": {
        "details": "Revokes `role` from `account`. If `account` had been granted `role`, emits a {RoleRevoked} event. Requirements: - the caller must have ``role``'s admin role. May emit a {RoleRevoked} event."
      },
      "supportsInterface(bytes4)": {
        "details": "See {IERC165-supportsInterface}."
      }
    },
    "version": 1
  },
  "userdoc": {
    "kind": "user",
    "methods": {
      "acceptOwnership()": {
        "notice": "Allows an ownership transfer to be completed by the recipient."
      },
      "constructor": {
        "notice": "Initialize the link token and target oracle Goerli Testnet details: Link Token: 0x326C977E6efc84E512bB9C30f76E30c160eD06FB Oracle: 0xCC79157eb46F5624204f47AB42b3906cAA40eaB7 (Chainlink DevRel) jobId: 0x3764383061363338366566353433613361626235323831376636373037653362   _Fee 100000000000000000 _oP 0xb0e264DddD55Ec329977F846bEFbd028350c6641"
      },
      "fulfillMultipleParameters(bytes32,string)": {
        "notice": "Fulfillment function for multiple parameters in a single request"
      },
      "owner()": {
        "notice": "Get the current owner"
      },
      "transferOwnership(address)": {
        "notice": "Allows an owner to begin transferring ownership to a new address, pending."
      },
      "verifyFingerPrint(address,bytes,bytes)": {
        "notice": "Create a Chainlink request to retrieve API response, find the target data, then multiply by 1000000000000000000 (to remove decimal places from data)."
      },
      "withdrawLink()": {
        "notice": "this allow Buyer whose offer is expire or over by other buyer ."
      }
    },
    "notice": "THIS IS AN EXAMPLE CONTRACT WHICH USES HARDCODED VALUES FOR CLARITY. THIS EXAMPLE USES UN-AUDITED CODE. DO NOT USE THIS CODE IN PRODUCTION.",
    "version": 1
  },
  "storageLayout": {
    "storage": [
      {
        "astId": 319,
        "contract": "contracts/core/FigurePrintOracle.sol:FigurePrintOracle",
        "label": "s_ens",
        "offset": 0,
        "slot": "0",
        "type": "t_contract(ENSInterface)1156"
      },
      {
        "astId": 321,
        "contract": "contracts/core/FigurePrintOracle.sol:FigurePrintOracle",
        "label": "s_ensNode",
        "offset": 0,
        "slot": "1",
        "type": "t_bytes32"
      },
      {
        "astId": 324,
        "contract": "contracts/core/FigurePrintOracle.sol:FigurePrintOracle",
        "label": "s_link",
        "offset": 0,
        "slot": "2",
        "type": "t_contract(LinkTokenInterface)1251"
      },
      {
        "astId": 327,
        "contract": "contracts/core/FigurePrintOracle.sol:FigurePrintOracle",
        "label": "s_oracle",
        "offset": 0,
        "slot": "3",
        "type": "t_contract(OperatorInterface)1331"
      },
      {
        "astId": 330,
        "contract": "contracts/core/FigurePrintOracle.sol:FigurePrintOracle",
        "label": "s_requestCount",
        "offset": 0,
        "slot": "4",
        "type": "t_uint256"
      },
      {
        "astId": 334,
        "contract": "contracts/core/FigurePrintOracle.sol:FigurePrintOracle",
        "label": "s_pendingRequests",
        "offset": 0,
        "slot": "5",
        "type": "t_mapping(t_bytes32,t_address)"
      },
      {
        "astId": 889,
        "contract": "contracts/core/FigurePrintOracle.sol:FigurePrintOracle",
        "label": "s_owner",
        "offset": 0,
        "slot": "6",
        "type": "t_address"
      },
      {
        "astId": 891,
        "contract": "contracts/core/FigurePrintOracle.sol:FigurePrintOracle",
        "label": "s_pendingOwner",
        "offset": 0,
        "slot": "7",
        "type": "t_address"
      },
      {
        "astId": 2398,
        "contract": "contracts/core/FigurePrintOracle.sol:FigurePrintOracle",
        "label": "_roles",
        "offset": 0,
        "slot": "8",
        "type": "t_mapping(t_bytes32,t_struct(RoleData)2393_storage)"
      },
      {
        "astId": 3418,
        "contract": "contracts/core/FigurePrintOracle.sol:FigurePrintOracle",
        "label": "_status",
        "offset": 0,
        "slot": "9",
        "type": "t_uint256"
      },
      {
        "astId": 9703,
        "contract": "contracts/core/FigurePrintOracle.sol:FigurePrintOracle",
        "label": "userVerficationRequest",
        "offset": 0,
        "slot": "10",
        "type": "t_mapping(t_bytes32,t_address)"
      },
      {
        "astId": 9707,
        "contract": "contracts/core/FigurePrintOracle.sol:FigurePrintOracle",
        "label": "apis",
        "offset": 0,
        "slot": "11",
        "type": "t_mapping(t_uint256,t_string_storage)"
      },
      {
        "astId": 9712,
        "contract": "contracts/core/FigurePrintOracle.sol:FigurePrintOracle",
        "label": "userVerficationRecord",
        "offset": 0,
        "slot": "12",
        "type": "t_mapping(t_address,t_struct(VerifcaitonRecord)10852_storage)"
      },
      {
        "astId": 9716,
        "contract": "contracts/core/FigurePrintOracle.sol:FigurePrintOracle",
        "label": "amounts",
        "offset": 0,
        "slot": "13",
        "type": "t_mapping(t_address,t_uint256)"
      },
      {
        "astId": 9719,
        "contract": "contracts/core/FigurePrintOracle.sol:FigurePrintOracle",
        "label": "orcaleUrlProvider",
        "offset": 0,
        "slot": "14",
        "type": "t_contract(OrcaleUrlProvider)10247"
      },
      {
        "astId": 9721,
        "contract": "contracts/core/FigurePrintOracle.sol:FigurePrintOracle",
        "label": "jobId",
        "offset": 0,
        "slot": "15",
        "type": "t_bytes32"
      },
      {
        "astId": 9723,
        "contract": "contracts/core/FigurePrintOracle.sol:FigurePrintOracle",
        "label": "fee",
        "offset": 0,
        "slot": "16",
        "type": "t_uint256"
      },
      {
        "astId": 9725,
        "contract": "contracts/core/FigurePrintOracle.sol:FigurePrintOracle",
        "label": "baseUrl",
        "offset": 0,
        "slot": "17",
        "type": "t_string_storage"
      }
    ],
    "types": {
      "t_address": {
        "encoding": "inplace",
        "label": "address",
        "numberOfBytes": "20"
      },
      "t_bool": {
        "encoding": "inplace",
        "label": "bool",
        "numberOfBytes": "1"
      },
      "t_bytes32": {
        "encoding": "inplace",
        "label": "bytes32",
        "numberOfBytes": "32"
      },
      "t_bytes_storage": {
        "encoding": "bytes",
        "label": "bytes",
        "numberOfBytes": "32"
      },
      "t_contract(ENSInterface)1156": {
        "encoding": "inplace",
        "label": "contract ENSInterface",
        "numberOfBytes": "20"
      },
      "t_contract(LinkTokenInterface)1251": {
        "encoding": "inplace",
        "label": "contract LinkTokenInterface",
        "numberOfBytes": "20"
      },
      "t_contract(OperatorInterface)1331": {
        "encoding": "inplace",
        "label": "contract OperatorInterface",
        "numberOfBytes": "20"
      },
      "t_contract(OrcaleUrlProvider)10247": {
        "encoding": "inplace",
        "label": "contract OrcaleUrlProvider",
        "numberOfBytes": "20"
      },
      "t_enum(VerficationStatus)10857": {
        "encoding": "inplace",
        "label": "enum VerficationStatus",
        "numberOfBytes": "1"
      },
      "t_mapping(t_address,t_bool)": {
        "encoding": "mapping",
        "key": "t_address",
        "label": "mapping(address => bool)",
        "numberOfBytes": "32",
        "value": "t_bool"
      },
      "t_mapping(t_address,t_struct(VerifcaitonRecord)10852_storage)": {
        "encoding": "mapping",
        "key": "t_address",
        "label": "mapping(address => struct VerifcaitonRecord)",
        "numberOfBytes": "32",
        "value": "t_struct(VerifcaitonRecord)10852_storage"
      },
      "t_mapping(t_address,t_uint256)": {
        "encoding": "mapping",
        "key": "t_address",
        "label": "mapping(address => uint256)",
        "numberOfBytes": "32",
        "value": "t_uint256"
      },
      "t_mapping(t_bytes32,t_address)": {
        "encoding": "mapping",
        "key": "t_bytes32",
        "label": "mapping(bytes32 => address)",
        "numberOfBytes": "32",
        "value": "t_address"
      },
      "t_mapping(t_bytes32,t_struct(RoleData)2393_storage)": {
        "encoding": "mapping",
        "key": "t_bytes32",
        "label": "mapping(bytes32 => struct AccessControl.RoleData)",
        "numberOfBytes": "32",
        "value": "t_struct(RoleData)2393_storage"
      },
      "t_mapping(t_uint256,t_string_storage)": {
        "encoding": "mapping",
        "key": "t_uint256",
        "label": "mapping(uint256 => string)",
        "numberOfBytes": "32",
        "value": "t_string_storage"
      },
      "t_string_storage": {
        "encoding": "bytes",
        "label": "string",
        "numberOfBytes": "32"
      },
      "t_struct(RoleData)2393_storage": {
        "encoding": "inplace",
        "label": "struct AccessControl.RoleData",
        "members": [
          {
            "astId": 2390,
            "contract": "contracts/core/FigurePrintOracle.sol:FigurePrintOracle",
            "label": "members",
            "offset": 0,
            "slot": "0",
            "type": "t_mapping(t_address,t_bool)"
          },
          {
            "astId": 2392,
            "contract": "contracts/core/FigurePrintOracle.sol:FigurePrintOracle",
            "label": "adminRole",
            "offset": 0,
            "slot": "1",
            "type": "t_bytes32"
          }
        ],
        "numberOfBytes": "64"
      },
      "t_struct(VerifcaitonRecord)10852_storage": {
        "encoding": "inplace",
        "label": "struct VerifcaitonRecord",
        "members": [
          {
            "astId": 10846,
            "contract": "contracts/core/FigurePrintOracle.sol:FigurePrintOracle",
            "label": "userId",
            "offset": 0,
            "slot": "0",
            "type": "t_bytes_storage"
          },
          {
            "astId": 10848,
            "contract": "contracts/core/FigurePrintOracle.sol:FigurePrintOracle",
            "label": "numberTries",
            "offset": 0,
            "slot": "1",
            "type": "t_uint256"
          },
          {
            "astId": 10851,
            "contract": "contracts/core/FigurePrintOracle.sol:FigurePrintOracle",
            "label": "status",
            "offset": 0,
            "slot": "2",
            "type": "t_enum(VerficationStatus)10857"
          }
        ],
        "numberOfBytes": "96"
      },
      "t_uint256": {
        "encoding": "inplace",
        "label": "uint256",
        "numberOfBytes": "32"
      }
    }
  }
}