{
  "address": "0x5FC8d32690cc91D4c39d9d3abcBD16989F875707",
  "abi": [
    {
      "inputs": [
        {
          "internalType": "address",
          "name": "_linkToken",
          "type": "address"
        },
        {
          "internalType": "address",
          "name": "_oricle",
          "type": "address"
        },
        {
          "internalType": "bytes32",
          "name": "_jobId",
          "type": "bytes32"
        },
        {
          "internalType": "uint256",
          "name": "_fee",
          "type": "uint256"
        },
        {
          "internalType": "address",
          "name": "_orcaleUrlProvider",
          "type": "address"
        }
      ],
      "stateMutability": "nonpayable",
      "type": "constructor"
    },
    {
      "inputs": [
        {
          "internalType": "address",
          "name": "userAddress",
          "type": "address"
        }
      ],
      "name": "FigurePrintOracle__ExceedNumberTries",
      "type": "error"
    },
    {
      "inputs": [],
      "name": "FigurePrintOracle__FailToWithDrawAmount",
      "type": "error"
    },
    {
      "inputs": [],
      "name": "FigurePrintOracle__NoAmountForWithDraw",
      "type": "error"
    },
    {
      "inputs": [],
      "name": "FigurePrintOracle__NotVerifer",
      "type": "error"
    },
    {
      "inputs": [
        {
          "internalType": "address",
          "name": "userAddress",
          "type": "address"
        }
      ],
      "name": "FigurePrintOracle__RequestAlreadyExist",
      "type": "error"
    },
    {
      "inputs": [
        {
          "internalType": "address",
          "name": "userAddress",
          "type": "address"
        }
      ],
      "name": "FigurePrintOracle__VerficationAlreadyDone",
      "type": "error"
    },
    {
      "anonymous": false,
      "inputs": [
        {
          "indexed": true,
          "internalType": "bytes32",
          "name": "id",
          "type": "bytes32"
        }
      ],
      "name": "ChainlinkCancelled",
      "type": "event"
    },
    {
      "anonymous": false,
      "inputs": [
        {
          "indexed": true,
          "internalType": "bytes32",
          "name": "id",
          "type": "bytes32"
        }
      ],
      "name": "ChainlinkFulfilled",
      "type": "event"
    },
    {
      "anonymous": false,
      "inputs": [
        {
          "indexed": true,
          "internalType": "bytes32",
          "name": "id",
          "type": "bytes32"
        }
      ],
      "name": "ChainlinkRequested",
      "type": "event"
    },
    {
      "anonymous": false,
      "inputs": [
        {
          "indexed": true,
          "internalType": "address",
          "name": "buyer",
          "type": "address"
        },
        {
          "indexed": true,
          "internalType": "uint256",
          "name": "amount",
          "type": "uint256"
        }
      ],
      "name": "FallbackCalled",
      "type": "event"
    },
    {
      "anonymous": false,
      "inputs": [
        {
          "indexed": true,
          "internalType": "address",
          "name": "from",
          "type": "address"
        },
        {
          "indexed": true,
          "internalType": "address",
          "name": "to",
          "type": "address"
        }
      ],
      "name": "OwnershipTransferRequested",
      "type": "event"
    },
    {
      "anonymous": false,
      "inputs": [
        {
          "indexed": true,
          "internalType": "address",
          "name": "from",
          "type": "address"
        },
        {
          "indexed": true,
          "internalType": "address",
          "name": "to",
          "type": "address"
        }
      ],
      "name": "OwnershipTransferred",
      "type": "event"
    },
    {
      "anonymous": false,
      "inputs": [
        {
          "indexed": true,
          "internalType": "address",
          "name": "buyer",
          "type": "address"
        },
        {
          "indexed": true,
          "internalType": "uint256",
          "name": "amount",
          "type": "uint256"
        }
      ],
      "name": "ReceivedCalled",
      "type": "event"
    },
    {
      "anonymous": false,
      "inputs": [
        {
          "indexed": true,
          "internalType": "bytes32",
          "name": "role",
          "type": "bytes32"
        },
        {
          "indexed": true,
          "internalType": "bytes32",
          "name": "previousAdminRole",
          "type": "bytes32"
        },
        {
          "indexed": true,
          "internalType": "bytes32",
          "name": "newAdminRole",
          "type": "bytes32"
        }
      ],
      "name": "RoleAdminChanged",
      "type": "event"
    },
    {
      "anonymous": false,
      "inputs": [
        {
          "indexed": true,
          "internalType": "bytes32",
          "name": "role",
          "type": "bytes32"
        },
        {
          "indexed": true,
          "internalType": "address",
          "name": "account",
          "type": "address"
        },
        {
          "indexed": true,
          "internalType": "address",
          "name": "sender",
          "type": "address"
        }
      ],
      "name": "RoleGranted",
      "type": "event"
    },
    {
      "anonymous": false,
      "inputs": [
        {
          "indexed": true,
          "internalType": "bytes32",
          "name": "role",
          "type": "bytes32"
        },
        {
          "indexed": true,
          "internalType": "address",
          "name": "account",
          "type": "address"
        },
        {
          "indexed": true,
          "internalType": "address",
          "name": "sender",
          "type": "address"
        }
      ],
      "name": "RoleRevoked",
      "type": "event"
    },
    {
      "anonymous": false,
      "inputs": [
        {
          "indexed": true,
          "internalType": "address",
          "name": "userAddress",
          "type": "address"
        },
        {
          "indexed": true,
          "internalType": "bytes32",
          "name": "requestId",
          "type": "bytes32"
        },
        {
          "indexed": true,
          "internalType": "string",
          "name": "uri",
          "type": "string"
        },
        {
          "indexed": false,
          "internalType": "string",
          "name": "isVerfied",
          "type": "string"
        }
      ],
      "name": "VerifationResponse",
      "type": "event"
    },
    {
      "anonymous": false,
      "inputs": [
        {
          "indexed": true,
          "internalType": "string",
          "name": "userId",
          "type": "string"
        },
        {
          "indexed": false,
          "internalType": "bytes32",
          "name": "requestId",
          "type": "bytes32"
        },
        {
          "indexed": false,
          "internalType": "address",
          "name": "userAddress",
          "type": "address"
        }
      ],
      "name": "VerifyFingerPrint",
      "type": "event"
    },
    {
      "anonymous": false,
      "inputs": [
        {
          "indexed": true,
          "internalType": "address",
          "name": "buyer",
          "type": "address"
        },
        {
          "indexed": true,
          "internalType": "uint256",
          "name": "amount",
          "type": "uint256"
        }
      ],
      "name": "WithDrawAmount",
      "type": "event"
    },
    {
      "inputs": [],
      "name": "DEFAULT_ADMIN_ROLE",
      "outputs": [
        {
          "internalType": "bytes32",
          "name": "",
          "type": "bytes32"
        }
      ],
      "stateMutability": "view",
      "type": "function"
    },
    {
      "inputs": [],
      "name": "acceptOwnership",
      "outputs": [],
      "stateMutability": "nonpayable",
      "type": "function"
    },
    {
      "inputs": [],
      "name": "baseUrl",
      "outputs": [
        {
          "internalType": "string",
          "name": "",
          "type": "string"
        }
      ],
      "stateMutability": "view",
      "type": "function"
    },
    {
      "inputs": [
        {
          "internalType": "address",
          "name": "userAddress",
          "type": "address"
        }
      ],
      "name": "burnUserRecord",
      "outputs": [],
      "stateMutability": "nonpayable",
      "type": "function"
    },
    {
      "inputs": [
        {
          "internalType": "bytes32",
          "name": "_requestId",
          "type": "bytes32"
        },
        {
          "internalType": "string",
          "name": "isVerfied",
          "type": "string"
        },
        {
          "internalType": "string",
          "name": "uri",
          "type": "string"
        }
      ],
      "name": "fulfillMultipleParameters",
      "outputs": [],
      "stateMutability": "nonpayable",
      "type": "function"
    },
    {
      "inputs": [],
      "name": "getBaseURI",
      "outputs": [
        {
          "internalType": "string",
          "name": "",
          "type": "string"
        }
      ],
      "stateMutability": "view",
      "type": "function"
    },
    {
      "inputs": [
        {
          "internalType": "bytes32",
          "name": "role",
          "type": "bytes32"
        }
      ],
      "name": "getRoleAdmin",
      "outputs": [
        {
          "internalType": "bytes32",
          "name": "",
          "type": "bytes32"
        }
      ],
      "stateMutability": "view",
      "type": "function"
    },
    {
      "inputs": [
        {
          "internalType": "address",
          "name": "userAddress",
          "type": "address"
        }
      ],
      "name": "getUserRecord",
      "outputs": [
        {
          "components": [
            {
              "internalType": "string",
              "name": "userId",
              "type": "string"
            },
            {
              "internalType": "uint256",
              "name": "numberTries",
              "type": "uint256"
            },
            {
              "internalType": "string",
              "name": "uri",
              "type": "string"
            },
            {
              "internalType": "enum VerficationStatus",
              "name": "status",
              "type": "uint8"
            }
          ],
          "internalType": "struct VerifcaitonRecord",
          "name": "",
          "type": "tuple"
        }
      ],
      "stateMutability": "view",
      "type": "function"
    },
    {
      "inputs": [
        {
          "internalType": "bytes32",
          "name": "role",
          "type": "bytes32"
        },
        {
          "internalType": "address",
          "name": "account",
          "type": "address"
        }
      ],
      "name": "grantRole",
      "outputs": [],
      "stateMutability": "nonpayable",
      "type": "function"
    },
    {
      "inputs": [
        {
          "internalType": "bytes32",
          "name": "role",
          "type": "bytes32"
        },
        {
          "internalType": "address",
          "name": "account",
          "type": "address"
        }
      ],
      "name": "hasRole",
      "outputs": [
        {
          "internalType": "bool",
          "name": "",
          "type": "bool"
        }
      ],
      "stateMutability": "view",
      "type": "function"
    },
    {
      "inputs": [],
      "name": "owner",
      "outputs": [
        {
          "internalType": "address",
          "name": "",
          "type": "address"
        }
      ],
      "stateMutability": "view",
      "type": "function"
    },
    {
      "inputs": [
        {
          "internalType": "bytes32",
          "name": "role",
          "type": "bytes32"
        },
        {
          "internalType": "address",
          "name": "account",
          "type": "address"
        }
      ],
      "name": "renounceRole",
      "outputs": [],
      "stateMutability": "nonpayable",
      "type": "function"
    },
    {
      "inputs": [
        {
          "internalType": "bytes32",
          "name": "role",
          "type": "bytes32"
        },
        {
          "internalType": "address",
          "name": "account",
          "type": "address"
        }
      ],
      "name": "revokeRole",
      "outputs": [],
      "stateMutability": "nonpayable",
      "type": "function"
    },
    {
      "inputs": [
        {
          "internalType": "address",
          "name": "oricle",
          "type": "address"
        }
      ],
      "name": "setChainLinkOracle",
      "outputs": [],
      "stateMutability": "nonpayable",
      "type": "function"
    },
    {
      "inputs": [
        {
          "internalType": "address",
          "name": "linkToken",
          "type": "address"
        }
      ],
      "name": "setChainLinkToken",
      "outputs": [],
      "stateMutability": "nonpayable",
      "type": "function"
    },
    {
      "inputs": [
        {
          "internalType": "uint256",
          "name": "_fee",
          "type": "uint256"
        }
      ],
      "name": "setFee",
      "outputs": [],
      "stateMutability": "nonpayable",
      "type": "function"
    },
    {
      "inputs": [
        {
          "internalType": "bytes32",
          "name": "_jobId",
          "type": "bytes32"
        }
      ],
      "name": "setJobId",
      "outputs": [],
      "stateMutability": "nonpayable",
      "type": "function"
    },
    {
      "inputs": [
        {
          "internalType": "address",
          "name": "verifer",
          "type": "address"
        }
      ],
      "name": "setVeriferRole",
      "outputs": [],
      "stateMutability": "nonpayable",
      "type": "function"
    },
    {
      "inputs": [
        {
          "internalType": "bytes4",
          "name": "interfaceId",
          "type": "bytes4"
        }
      ],
      "name": "supportsInterface",
      "outputs": [
        {
          "internalType": "bool",
          "name": "",
          "type": "bool"
        }
      ],
      "stateMutability": "view",
      "type": "function"
    },
    {
      "inputs": [
        {
          "internalType": "address",
          "name": "to",
          "type": "address"
        }
      ],
      "name": "transferOwnership",
      "outputs": [],
      "stateMutability": "nonpayable",
      "type": "function"
    },
    {
      "inputs": [
        {
          "internalType": "address",
          "name": "userAddress",
          "type": "address"
        },
        {
          "internalType": "string",
          "name": "userId",
          "type": "string"
        },
        {
          "internalType": "bytes",
          "name": "fingerPrint",
          "type": "bytes"
        }
      ],
      "name": "verifyFingerPrint",
      "outputs": [],
      "stateMutability": "nonpayable",
      "type": "function"
    },
    {
      "inputs": [],
      "name": "withdrawLink",
      "outputs": [],
      "stateMutability": "payable",
      "type": "function"
    },
    {
      "stateMutability": "payable",
      "type": "receive"
    }
  ],
  "transactionHash": "0x2fae044b38025a6f26319b54fef3ed432fae225e93dbb87eeefdb046e059080c",
  "args": [
    "0xCf7Ed3AccA5a467e9e704C703E8D87F634fB0Fc9",
    "0xDc64a140Aa3E981100a9becA4E685f962f0cF6C9",
    "0x3764383061363338366566353433613361626235323831376636373037653362",
    "1000000000000000000",
    "0xf39Fd6e51aad88F6F4ce6aB8827279cffFb92266"
  ],
  "numDeployments": 1,
  "solcInputHash": "93857aa87fd9db384da907498762e089",
  "bytecode": "0x608060405260016004553480156200001657600080fd5b5060405162004e2338038062004e2383398181016040528101906200003c91906200050a565b338060008073ffffffffffffffffffffffffffffffffffffffff168273ffffffffffffffffffffffffffffffffffffffff1603620000b1576040517f08c379a0000000000000000000000000000000000000000000000000000000008152600401620000a890620005f3565b60405180910390fd5b81600660006101000a81548173ffffffffffffffffffffffffffffffffffffffff021916908373ffffffffffffffffffffffffffffffffffffffff160217905550600073ffffffffffffffffffffffffffffffffffffffff168173ffffffffffffffffffffffffffffffffffffffff1614620001395762000138816200027160201b60201c565b5b50505060016009819055506200015585620003a260201b60201c565b6200016684620003e660201b60201c565b82600f819055508160108190555080600e60006101000a81548173ffffffffffffffffffffffffffffffffffffffff021916908373ffffffffffffffffffffffffffffffffffffffff1602179055506040518060400160405280600a81526020017f6765744164647265737300000000000000000000000000000000000000000000815250600b600080815260200190815260200160002090816200020c919062000885565b506040518060400160405280600a81526020017f6765745665726669747900000000000000000000000000000000000000000000815250600b600060018152602001908152602001600020908162000265919062000885565b505050505050620009de565b3373ffffffffffffffffffffffffffffffffffffffff168173ffffffffffffffffffffffffffffffffffffffff1603620002e2576040517f08c379a0000000000000000000000000000000000000000000000000000000008152600401620002d990620009bc565b60405180910390fd5b80600760006101000a81548173ffffffffffffffffffffffffffffffffffffffff021916908373ffffffffffffffffffffffffffffffffffffffff1602179055508073ffffffffffffffffffffffffffffffffffffffff16600660009054906101000a900473ffffffffffffffffffffffffffffffffffffffff1673ffffffffffffffffffffffffffffffffffffffff167fed8889f560326eb138920d842192f0eb3dd22b4f139c87a2c57538e05bae127860405160405180910390a350565b80600260006101000a81548173ffffffffffffffffffffffffffffffffffffffff021916908373ffffffffffffffffffffffffffffffffffffffff16021790555050565b80600360006101000a81548173ffffffffffffffffffffffffffffffffffffffff021916908373ffffffffffffffffffffffffffffffffffffffff16021790555050565b600080fd5b600073ffffffffffffffffffffffffffffffffffffffff82169050919050565b60006200045c826200042f565b9050919050565b6200046e816200044f565b81146200047a57600080fd5b50565b6000815190506200048e8162000463565b92915050565b6000819050919050565b620004a98162000494565b8114620004b557600080fd5b50565b600081519050620004c9816200049e565b92915050565b6000819050919050565b620004e481620004cf565b8114620004f057600080fd5b50565b6000815190506200050481620004d9565b92915050565b600080600080600060a086880312156200052957620005286200042a565b5b600062000539888289016200047d565b95505060206200054c888289016200047d565b94505060406200055f88828901620004b8565b93505060606200057288828901620004f3565b925050608062000585888289016200047d565b9150509295509295909350565b600082825260208201905092915050565b7f43616e6e6f7420736574206f776e657220746f207a65726f0000000000000000600082015250565b6000620005db60188362000592565b9150620005e882620005a3565b602082019050919050565b600060208201905081810360008301526200060e81620005cc565b9050919050565b600081519050919050565b7f4e487b7100000000000000000000000000000000000000000000000000000000600052604160045260246000fd5b7f4e487b7100000000000000000000000000000000000000000000000000000000600052602260045260246000fd5b600060028204905060018216806200069757607f821691505b602082108103620006ad57620006ac6200064f565b5b50919050565b60008190508160005260206000209050919050565b60006020601f8301049050919050565b600082821b905092915050565b600060088302620007177fffffffffffffffffffffffffffffffffffffffffffffffffffffffffffffffff82620006d8565b620007238683620006d8565b95508019841693508086168417925050509392505050565b6000819050919050565b600062000766620007606200075a84620004cf565b6200073b565b620004cf565b9050919050565b6000819050919050565b620007828362000745565b6200079a62000791826200076d565b848454620006e5565b825550505050565b600090565b620007b1620007a2565b620007be81848462000777565b505050565b5b81811015620007e657620007da600082620007a7565b600181019050620007c4565b5050565b601f8211156200083557620007ff81620006b3565b6200080a84620006c8565b810160208510156200081a578190505b620008326200082985620006c8565b830182620007c3565b50505b505050565b600082821c905092915050565b60006200085a600019846008026200083a565b1980831691505092915050565b600062000875838362000847565b9150826002028217905092915050565b620008908262000615565b67ffffffffffffffff811115620008ac57620008ab62000620565b5b620008b882546200067e565b620008c5828285620007ea565b600060209050601f831160018114620008fd5760008415620008e8578287015190505b620008f4858262000867565b86555062000964565b601f1984166200090d86620006b3565b60005b82811015620009375784890151825560018201915060208501945060208101905062000910565b8683101562000957578489015162000953601f89168262000847565b8355505b6001600288020188555050505b505050505050565b7f43616e6e6f74207472616e7366657220746f2073656c66000000000000000000600082015250565b6000620009a460178362000592565b9150620009b1826200096c565b602082019050919050565b60006020820190508181036000830152620009d78162000995565b9050919050565b61443580620009ee6000396000f3fe6080604052600436106101395760003560e01c8063714c5398116100ab5780638dc654a21161006f5780638dc654a21461049f57806391d14854146104a9578063a217fddf146104e6578063d547741f14610511578063f2fde38b1461053a578063f896f7c414610563576101da565b8063714c5398146103e057806379ba50971461040b5780637e81180b146104225780638922c2091461044b5780638da5cb5b14610474576101da565b80632f2ff15d116100fd5780632f2ff15d146102d457806336568abe146102fd578063508954f8146103265780635bcabf041461034f57806367e2efc61461037a57806369fe0e2d146103b7576101da565b806301ffc9a7146101df578063247afee41461021c578063248a9ca314610245578063257676a81461028257806326ae9afb146102ab576101da565b366101da5734600d60003373ffffffffffffffffffffffffffffffffffffffff1673ffffffffffffffffffffffffffffffffffffffff168152602001908152602001600020600082825461018d9190612b89565b92505081905550343373ffffffffffffffffffffffffffffffffffffffff167f985c6b576d54b73e8b271365890eadef9d88dfe168128904b21fa0b128fd78ea60405160405180910390a3005b600080fd5b3480156101eb57600080fd5b5061020660048036038101906102019190612c29565b61058c565b6040516102139190612c71565b60405180910390f35b34801561022857600080fd5b50610243600480360381019061023e9190612cea565b610606565b005b34801561025157600080fd5b5061026c60048036038101906102679190612d4d565b6106e4565b6040516102799190612d89565b60405180910390f35b34801561028e57600080fd5b506102a960048036038101906102a49190612cea565b610704565b005b3480156102b757600080fd5b506102d260048036038101906102cd9190612cea565b610728565b005b3480156102e057600080fd5b506102fb60048036038101906102f69190612da4565b61076d565b005b34801561030957600080fd5b50610324600480360381019061031f9190612da4565b61078e565b005b34801561033257600080fd5b5061034d60048036038101906103489190612d4d565b610811565b005b34801561035b57600080fd5b50610364610833565b6040516103719190612e74565b60405180910390f35b34801561038657600080fd5b506103a1600480360381019061039c9190612cea565b6108c1565b6040516103ae9190612fd0565b60405180910390f35b3480156103c357600080fd5b506103de60048036038101906103d9919061301e565b610a83565b005b3480156103ec57600080fd5b506103f5610aa5565b6040516104029190612e74565b60405180910390f35b34801561041757600080fd5b50610420610b37565b005b34801561042e57600080fd5b5061044960048036038101906104449190613221565b610cce565b005b34801561045757600080fd5b50610472600480360381019061046d91906132ac565b6114a1565b005b34801561048057600080fd5b506104896117bf565b6040516104969190613346565b60405180910390f35b6104a76117e9565b005b3480156104b557600080fd5b506104d060048036038101906104cb9190612da4565b6119a7565b6040516104dd9190612c71565b60405180910390f35b3480156104f257600080fd5b506104fb611a12565b6040516105089190612d89565b60405180910390f35b34801561051d57600080fd5b5061053860048036038101906105339190612da4565b611a19565b005b34801561054657600080fd5b50610561600480360381019061055c9190612cea565b611a3a565b005b34801561056f57600080fd5b5061058a60048036038101906105859190612cea565b611a4e565b005b60007f7965db0b000000000000000000000000000000000000000000000000000000007bffffffffffffffffffffffffffffffffffffffffffffffffffffffff1916827bffffffffffffffffffffffffffffffffffffffffffffffffffffffff191614806105ff57506105fe82611a72565b5b9050919050565b6106307f0ce23c3e399818cfee81a7ab0880f714e53d7672b08df0fa62f2843416e1ea09336119a7565b610666576040517f75ceeec000000000000000000000000000000000000000000000000000000000815260040160405180910390fd5b61066e611adc565b6000600c60008373ffffffffffffffffffffffffffffffffffffffff1673ffffffffffffffffffffffffffffffffffffffff16815260200190815260200160002060030160006101000a81548160ff021916908360038111156106d4576106d3612eef565b5b02179055506106e1611b2b565b50565b600060086000838152602001908152602001600020600101549050919050565b61070c611b35565b610714611adc565b61071d81611bc7565b610725611b2b565b50565b610730611b35565b610738611adc565b6107627f0ce23c3e399818cfee81a7ab0880f714e53d7672b08df0fa62f2843416e1ea0982611c0b565b61076a611b2b565b50565b610776826106e4565b61077f81611c19565b6107898383611c2d565b505050565b610796611d0e565b73ffffffffffffffffffffffffffffffffffffffff168173ffffffffffffffffffffffffffffffffffffffff1614610803576040517f08c379a00000000000000000000000000000000000000000000000000000000081526004016107fa906133d3565b60405180910390fd5b61080d8282611d16565b5050565b610819611b35565b610821611adc565b80600f81905550610830611b2b565b50565b6011805461084090613422565b80601f016020809104026020016040519081016040528092919081815260200182805461086c90613422565b80156108b95780601f1061088e576101008083540402835291602001916108b9565b820191906000526020600020905b81548152906001019060200180831161089c57829003601f168201915b505050505081565b6108c9612a8f565b600c60008373ffffffffffffffffffffffffffffffffffffffff1673ffffffffffffffffffffffffffffffffffffffff16815260200190815260200160002060405180608001604052908160008201805461092390613422565b80601f016020809104026020016040519081016040528092919081815260200182805461094f90613422565b801561099c5780601f106109715761010080835404028352916020019161099c565b820191906000526020600020905b81548152906001019060200180831161097f57829003601f168201915b50505050508152602001600182015481526020016002820180546109bf90613422565b80601f01602080910402602001604051908101604052809291908181526020018280546109eb90613422565b8015610a385780601f10610a0d57610100808354040283529160200191610a38565b820191906000526020600020905b815481529060010190602001808311610a1b57829003601f168201915b505050505081526020016003820160009054906101000a900460ff166003811115610a6657610a65612eef565b5b6003811115610a7857610a77612eef565b5b815250509050919050565b610a8b611b35565b610a93611adc565b80601081905550610aa2611b2b565b50565b606060118054610ab490613422565b80601f0160208091040260200160405190810160405280929190818152602001828054610ae090613422565b8015610b2d5780601f10610b0257610100808354040283529160200191610b2d565b820191906000526020600020905b815481529060010190602001808311610b1057829003601f168201915b5050505050905090565b600760009054906101000a900473ffffffffffffffffffffffffffffffffffffffff1673ffffffffffffffffffffffffffffffffffffffff163373ffffffffffffffffffffffffffffffffffffffff1614610bc7576040517f08c379a0000000000000000000000000000000000000000000000000000000008152600401610bbe9061349f565b60405180910390fd5b6000600660009054906101000a900473ffffffffffffffffffffffffffffffffffffffff16905033600660006101000a81548173ffffffffffffffffffffffffffffffffffffffff021916908373ffffffffffffffffffffffffffffffffffffffff1602179055506000600760006101000a81548173ffffffffffffffffffffffffffffffffffffffff021916908373ffffffffffffffffffffffffffffffffffffffff1602179055503373ffffffffffffffffffffffffffffffffffffffff168173ffffffffffffffffffffffffffffffffffffffff167f8be0079c531659141344cd1fd0a4f28419497f9722a3daafe3b4186f6b6457e060405160405180910390a350565b610cf87f0ce23c3e399818cfee81a7ab0880f714e53d7672b08df0fa62f2843416e1ea09336119a7565b610d2e576040517f75ceeec000000000000000000000000000000000000000000000000000000000815260040160405180910390fd5b610d36611adc565b600060016003811115610d4c57610d4b612eef565b5b600c60008673ffffffffffffffffffffffffffffffffffffffff1673ffffffffffffffffffffffffffffffffffffffff16815260200190815260200160002060030160009054906101000a900460ff166003811115610dae57610dad612eef565b5b03610df057836040517f1e802a09000000000000000000000000000000000000000000000000000000008152600401610de79190613346565b60405180910390fd5b60026003811115610e0457610e03612eef565b5b600c60008673ffffffffffffffffffffffffffffffffffffffff1673ffffffffffffffffffffffffffffffffffffffff16815260200190815260200160002060030160009054906101000a900460ff166003811115610e6657610e65612eef565b5b03610ea857836040517f6853b7d7000000000000000000000000000000000000000000000000000000008152600401610e9f9190613346565b60405180910390fd5b600380811115610ebb57610eba612eef565b5b600c60008673ffffffffffffffffffffffffffffffffffffffff1673ffffffffffffffffffffffffffffffffffffffff16815260200190815260200160002060030160009054906101000a900460ff166003811115610f1d57610f1c612eef565b5b148015610f6c57506003600c60008673ffffffffffffffffffffffffffffffffffffffff1673ffffffffffffffffffffffffffffffffffffffff16815260200190815260200160002060010154115b15610fae57836040517f9a5576a6000000000000000000000000000000000000000000000000000000008152600401610fa59190613346565b60405180910390fd5b600380811115610fc157610fc0612eef565b5b600c60008673ffffffffffffffffffffffffffffffffffffffff1673ffffffffffffffffffffffffffffffffffffffff16815260200190815260200160002060030160009054906101000a900460ff16600381111561102357611022612eef565b5b03611037578080611033906134bf565b9150505b600061104d600f5430638922c20960e01b611df8565b9050600e60009054906101000a900473ffffffffffffffffffffffffffffffffffffffff1673ffffffffffffffffffffffffffffffffffffffff166338bcdc1c6040518163ffffffff1660e01b8152600401600060405180830381865afa1580156110bc573d6000803e3d6000fd5b505050506040513d6000823e3d601f19601f820116820180604052508101906110e59190613577565b601190816110f3919061376c565b506111776040518060400160405280600381526020017f67657400000000000000000000000000000000000000000000000000000000008152506011600b600060018152602001908152602001600020878760405160200161115894939291906139dc565b60405160208183030381529060405283611e299092919063ffffffff16565b6111f66040518060400160405280600581526020017f70617468310000000000000000000000000000000000000000000000000000008152506040518060400160405280601381526020017f7665726669636174696f6e526573706f6e73650000000000000000000000000081525083611e299092919063ffffffff16565b6112766040518060400160405280600381526020017f67657400000000000000000000000000000000000000000000000000000000008152506011600b60008081526020019081526020016000208860405160200161125793929190613ac4565b60405160208183030381529060405283611e299092919063ffffffff16565b6112f56040518060400160405280600581526020017f70617468320000000000000000000000000000000000000000000000000000008152506040518060400160405280600381526020017f757269000000000000000000000000000000000000000000000000000000000081525083611e299092919063ffffffff16565b600061130382601054611e5c565b905085600a600083815260200190815260200160002060006101000a81548173ffffffffffffffffffffffffffffffffffffffff021916908373ffffffffffffffffffffffffffffffffffffffff16021790555060405180608001604052808681526020018481526020016040518060200160405280600081525081526020016001600381111561139757611396612eef565b5b815250600c60008873ffffffffffffffffffffffffffffffffffffffff1673ffffffffffffffffffffffffffffffffffffffff16815260200190815260200160002060008201518160000190816113ee919061376c565b5060208201518160010155604082015181600201908161140e919061376c565b5060608201518160030160006101000a81548160ff0219169083600381111561143a57611439612eef565b5b0217905550905050846040516114509190613b04565b60405180910390207f81b9915f8d77f9e0edef9fd1a62dca1faf0964531eef53511235900b0e8e17248288604051611489929190613b1b565b60405180910390a250505061149c611b2b565b505050565b826005600082815260200190815260200160002060009054906101000a900473ffffffffffffffffffffffffffffffffffffffff1673ffffffffffffffffffffffffffffffffffffffff163373ffffffffffffffffffffffffffffffffffffffff1614611543576040517f08c379a000000000000000000000000000000000000000000000000000000000815260040161153a90613bb6565b60405180910390fd5b6005600082815260200190815260200160002060006101000a81549073ffffffffffffffffffffffffffffffffffffffff0219169055807f7cc135e0cebb02c3480ae5d74d377283180a2601f8f644edf7987b009316c63a60405160405180910390a260006040518060400160405280600481526020017f7472756500000000000000000000000000000000000000000000000000000000815250805190602001208480519060200120036115fb5760029050611600565b600390505b80600c6000600a600089815260200190815260200160002060009054906101000a900473ffffffffffffffffffffffffffffffffffffffff1673ffffffffffffffffffffffffffffffffffffffff1673ffffffffffffffffffffffffffffffffffffffff16815260200190815260200160002060030160006101000a81548160ff0219169083600381111561169857611697612eef565b5b021790555082600c6000600a600089815260200190815260200160002060009054906101000a900473ffffffffffffffffffffffffffffffffffffffff1673ffffffffffffffffffffffffffffffffffffffff1673ffffffffffffffffffffffffffffffffffffffff168152602001908152602001600020600201908161171f919061376c565b508260405161172e9190613b04565b604051809103902085600a600088815260200190815260200160002060009054906101000a900473ffffffffffffffffffffffffffffffffffffffff1673ffffffffffffffffffffffffffffffffffffffff167ff59522eb2f06915d4c22f21aa4111229451c3df42d31aa09be88dc1ed7bb5cf3876040516117b09190612e74565b60405180910390a45050505050565b6000600660009054906101000a900473ffffffffffffffffffffffffffffffffffffffff16905090565b6117f1611adc565b6000600d60003373ffffffffffffffffffffffffffffffffffffffff1673ffffffffffffffffffffffffffffffffffffffff1681526020019081526020016000205490506000810361186f576040517f5dce311a00000000000000000000000000000000000000000000000000000000815260040160405180910390fd5b6000600d60003373ffffffffffffffffffffffffffffffffffffffff1673ffffffffffffffffffffffffffffffffffffffff1681526020019081526020016000208190555060003373ffffffffffffffffffffffffffffffffffffffff16826040516118da90613bfc565b60006040518083038185875af1925050503d8060008114611917576040519150601f19603f3d011682016040523d82523d6000602084013e61191c565b606091505b5050905080611957576040517fa259cac100000000000000000000000000000000000000000000000000000000815260040160405180910390fd5b813373ffffffffffffffffffffffffffffffffffffffff167f86103aca9d06378ad5eb858d2ee726267f69628ca4ff59597196865412b6338760405160405180910390a350506119a5611b2b565b565b60006008600084815260200190815260200160002060000160008373ffffffffffffffffffffffffffffffffffffffff1673ffffffffffffffffffffffffffffffffffffffff16815260200190815260200160002060009054906101000a900460ff16905092915050565b6000801b81565b611a22826106e4565b611a2b81611c19565b611a358383611d16565b505050565b611a42611b35565b611a4b81611e93565b50565b611a56611b35565b611a5e611adc565b611a6781611fc1565b611a6f611b2b565b50565b60007f01ffc9a7000000000000000000000000000000000000000000000000000000007bffffffffffffffffffffffffffffffffffffffffffffffffffffffff1916827bffffffffffffffffffffffffffffffffffffffffffffffffffffffff1916149050919050565b600260095403611b21576040517f08c379a0000000000000000000000000000000000000000000000000000000008152600401611b1890613c5d565b60405180910390fd5b6002600981905550565b6001600981905550565b600660009054906101000a900473ffffffffffffffffffffffffffffffffffffffff1673ffffffffffffffffffffffffffffffffffffffff163373ffffffffffffffffffffffffffffffffffffffff1614611bc5576040517f08c379a0000000000000000000000000000000000000000000000000000000008152600401611bbc90613cc9565b60405180910390fd5b565b80600260006101000a81548173ffffffffffffffffffffffffffffffffffffffff021916908373ffffffffffffffffffffffffffffffffffffffff16021790555050565b611c158282611c2d565b5050565b611c2a81611c25611d0e565b612005565b50565b611c3782826119a7565b611d0a5760016008600084815260200190815260200160002060000160008373ffffffffffffffffffffffffffffffffffffffff1673ffffffffffffffffffffffffffffffffffffffff16815260200190815260200160002060006101000a81548160ff021916908315150217905550611caf611d0e565b73ffffffffffffffffffffffffffffffffffffffff168173ffffffffffffffffffffffffffffffffffffffff16837f2f8788117e7eff1d82e926ec794901d17c78024a50270940304540a733656f0d60405160405180910390a45b5050565b600033905090565b611d2082826119a7565b15611df45760006008600084815260200190815260200160002060000160008373ffffffffffffffffffffffffffffffffffffffff1673ffffffffffffffffffffffffffffffffffffffff16815260200190815260200160002060006101000a81548160ff021916908315150217905550611d99611d0e565b73ffffffffffffffffffffffffffffffffffffffff168173ffffffffffffffffffffffffffffffffffffffff16837ff6391f5c32d9c69d2a47ea670b442974b53935d1edc7fd64eb21e047a839171b60405160405180910390a45b5050565b611e00612ac9565b611e08612ac9565b611e1f8585858461208a909392919063ffffffff16565b9150509392505050565b611e4082846080015161213a90919063ffffffff16565b611e5781846080015161213a90919063ffffffff16565b505050565b6000611e8b600360009054906101000a900473ffffffffffffffffffffffffffffffffffffffff16848461215f565b905092915050565b3373ffffffffffffffffffffffffffffffffffffffff168173ffffffffffffffffffffffffffffffffffffffff1603611f01576040517f08c379a0000000000000000000000000000000000000000000000000000000008152600401611ef890613d35565b60405180910390fd5b80600760006101000a81548173ffffffffffffffffffffffffffffffffffffffff021916908373ffffffffffffffffffffffffffffffffffffffff1602179055508073ffffffffffffffffffffffffffffffffffffffff16600660009054906101000a900473ffffffffffffffffffffffffffffffffffffffff1673ffffffffffffffffffffffffffffffffffffffff167fed8889f560326eb138920d842192f0eb3dd22b4f139c87a2c57538e05bae127860405160405180910390a350565b80600360006101000a81548173ffffffffffffffffffffffffffffffffffffffff021916908373ffffffffffffffffffffffffffffffffffffffff16021790555050565b61200f82826119a7565b6120865761201c8161222b565b61202a8360001c6020612258565b60405160200161203b929190613ded565b6040516020818303038152906040526040517f08c379a000000000000000000000000000000000000000000000000000000000815260040161207d9190612e74565b60405180910390fd5b5050565b612092612ac9565b6120a28560800151610100612494565b508385600001818152505082856020019073ffffffffffffffffffffffffffffffffffffffff16908173ffffffffffffffffffffffffffffffffffffffff16815250508185604001907bffffffffffffffffffffffffffffffffffffffffffffffffffffffff191690817bffffffffffffffffffffffffffffffffffffffffffffffffffffffff191681525050849050949350505050565b61214782600383516124fe565b61215a818361268390919063ffffffff16565b505050565b60008060045490506001816121749190612b89565b6004819055506000634042994660e01b60008087600001513089604001518760018c60800151600001516040516024016121b5989796959493929190613e8f565b604051602081830303815290604052907bffffffffffffffffffffffffffffffffffffffffffffffffffffffff19166020820180517bffffffffffffffffffffffffffffffffffffffffffffffffffffffff83818316178352505050509050612220868386846126a5565b925050509392505050565b60606122518273ffffffffffffffffffffffffffffffffffffffff16601460ff16612258565b9050919050565b60606000600283600261226b9190613f14565b6122759190612b89565b67ffffffffffffffff81111561228e5761228d613055565b5b6040519080825280601f01601f1916602001820160405280156122c05781602001600182028036833780820191505090505b5090507f3000000000000000000000000000000000000000000000000000000000000000816000815181106122f8576122f7613f56565b5b60200101907effffffffffffffffffffffffffffffffffffffffffffffffffffffffffffff1916908160001a9053507f78000000000000000000000000000000000000000000000000000000000000008160018151811061235c5761235b613f56565b5b60200101907effffffffffffffffffffffffffffffffffffffffffffffffffffffffffffff1916908160001a9053506000600184600261239c9190613f14565b6123a69190612b89565b90505b6001811115612446577f3031323334353637383961626364656600000000000000000000000000000000600f8616601081106123e8576123e7613f56565b5b1a60f81b8282815181106123ff576123fe613f56565b5b60200101907effffffffffffffffffffffffffffffffffffffffffffffffffffffffffffff1916908160001a905350600485901c94508061243f90613f85565b90506123a9565b506000841461248a576040517f08c379a000000000000000000000000000000000000000000000000000000000815260040161248190613ffa565b60405180910390fd5b8091505092915050565b61249c612b36565b60006020836124ab9190614049565b146124d7576020826124bd9190614049565b60206124c9919061407a565b826124d49190612b89565b91505b81836020018181525050604051808452600081528281016020016040525082905092915050565b60178167ffffffffffffffff16116125355761252f8160058460ff16901b60ff16178461283a90919063ffffffff16565b5061267e565b60ff8167ffffffffffffffff161161258b57612564601860058460ff16901b178461283a90919063ffffffff16565b506125858167ffffffffffffffff1660018561285a9092919063ffffffff16565b5061267d565b61ffff8167ffffffffffffffff16116125e2576125bb601960058460ff16901b178461283a90919063ffffffff16565b506125dc8167ffffffffffffffff1660028561285a9092919063ffffffff16565b5061267c565b63ffffffff8167ffffffffffffffff161161263b57612614601a60058460ff16901b178461283a90919063ffffffff16565b506126358167ffffffffffffffff1660048561285a9092919063ffffffff16565b5061267b565b612658601b60058460ff16901b178461283a90919063ffffffff16565b506126798167ffffffffffffffff1660088561285a9092919063ffffffff16565b505b5b5b5b505050565b61268b612b36565b61269d8384600001515184855161287c565b905092915050565b600030846040516020016126ba92919061412c565b604051602081830303815290604052805190602001209050846005600083815260200190815260200160002060006101000a81548173ffffffffffffffffffffffffffffffffffffffff021916908373ffffffffffffffffffffffffffffffffffffffff160217905550807fb5e6e01e79f91267dc17b4e6314d5d4d03593d2ceee0fbb452b750bd70ea5af960405160405180910390a2600260009054906101000a900473ffffffffffffffffffffffffffffffffffffffff1673ffffffffffffffffffffffffffffffffffffffff16634000aea08685856040518463ffffffff1660e01b81526004016127b093929190614158565b6020604051808303816000875af11580156127cf573d6000803e3d6000fd5b505050506040513d601f19601f820116820180604052508101906127f391906141c2565b612832576040517f08c379a000000000000000000000000000000000000000000000000000000000815260040161282990614261565b60405180910390fd5b949350505050565b612842612b36565b612852838460000151518461296b565b905092915050565b612862612b36565b6128738485600001515185856129c1565b90509392505050565b612884612b36565b825182111561289257600080fd5b846020015182856128a39190612b89565b11156128d8576128d78560026128c8886020015188876128c39190612b89565b612a4f565b6128d29190613f14565b612a6b565b5b6000808651805187602083010193508088870111156128f75787860182525b60208701925050505b6020841061293e57805182526020826129199190612b89565b91506020816129289190612b89565b9050602084612937919061407a565b9350612900565b60006001856020036101000a03905080198251168184511681811785525050508692505050949350505050565b612973612b36565b836020015183106129995761299884600286602001516129939190613f14565b612a6b565b5b835180516020858301018481538186036129b4576001820183525b5050508390509392505050565b6129c9612b36565b846020015184836129da9190612b89565b1115612a0257612a0185600286856129f29190612b89565b6129fc9190613f14565b612a6b565b5b6000600183610100612a1491906143b4565b612a1e919061407a565b90508551838682010185831982511617815281518588011115612a415784870182525b505085915050949350505050565b600081831115612a6157829050612a65565b8190505b92915050565b600082600001519050612a7e8383612494565b50612a898382612683565b50505050565b604051806080016040528060608152602001600081526020016060815260200160006003811115612ac357612ac2612eef565b5b81525090565b6040518060a0016040528060008019168152602001600073ffffffffffffffffffffffffffffffffffffffff16815260200160007bffffffffffffffffffffffffffffffffffffffffffffffffffffffff1916815260200160008152602001612b30612b36565b81525090565b604051806040016040528060608152602001600081525090565b6000819050919050565b7f4e487b7100000000000000000000000000000000000000000000000000000000600052601160045260246000fd5b6000612b9482612b50565b9150612b9f83612b50565b9250828201905080821115612bb757612bb6612b5a565b5b92915050565b6000604051905090565b600080fd5b600080fd5b60007fffffffff0000000000000000000000000000000000000000000000000000000082169050919050565b612c0681612bd1565b8114612c1157600080fd5b50565b600081359050612c2381612bfd565b92915050565b600060208284031215612c3f57612c3e612bc7565b5b6000612c4d84828501612c14565b91505092915050565b60008115159050919050565b612c6b81612c56565b82525050565b6000602082019050612c866000830184612c62565b92915050565b600073ffffffffffffffffffffffffffffffffffffffff82169050919050565b6000612cb782612c8c565b9050919050565b612cc781612cac565b8114612cd257600080fd5b50565b600081359050612ce481612cbe565b92915050565b600060208284031215612d0057612cff612bc7565b5b6000612d0e84828501612cd5565b91505092915050565b6000819050919050565b612d2a81612d17565b8114612d3557600080fd5b50565b600081359050612d4781612d21565b92915050565b600060208284031215612d6357612d62612bc7565b5b6000612d7184828501612d38565b91505092915050565b612d8381612d17565b82525050565b6000602082019050612d9e6000830184612d7a565b92915050565b60008060408385031215612dbb57612dba612bc7565b5b6000612dc985828601612d38565b9250506020612dda85828601612cd5565b9150509250929050565b600081519050919050565b600082825260208201905092915050565b60005b83811015612e1e578082015181840152602081019050612e03565b60008484015250505050565b6000601f19601f8301169050919050565b6000612e4682612de4565b612e508185612def565b9350612e60818560208601612e00565b612e6981612e2a565b840191505092915050565b60006020820190508181036000830152612e8e8184612e3b565b905092915050565b600082825260208201905092915050565b6000612eb282612de4565b612ebc8185612e96565b9350612ecc818560208601612e00565b612ed581612e2a565b840191505092915050565b612ee981612b50565b82525050565b7f4e487b7100000000000000000000000000000000000000000000000000000000600052602160045260246000fd5b60048110612f2f57612f2e612eef565b5b50565b6000819050612f4082612f1e565b919050565b6000612f5082612f32565b9050919050565b612f6081612f45565b82525050565b60006080830160008301518482036000860152612f838282612ea7565b9150506020830151612f986020860182612ee0565b5060408301518482036040860152612fb08282612ea7565b9150506060830151612fc56060860182612f57565b508091505092915050565b60006020820190508181036000830152612fea8184612f66565b905092915050565b612ffb81612b50565b811461300657600080fd5b50565b60008135905061301881612ff2565b92915050565b60006020828403121561303457613033612bc7565b5b600061304284828501613009565b91505092915050565b600080fd5b600080fd5b7f4e487b7100000000000000000000000000000000000000000000000000000000600052604160045260246000fd5b61308d82612e2a565b810181811067ffffffffffffffff821117156130ac576130ab613055565b5b80604052505050565b60006130bf612bbd565b90506130cb8282613084565b919050565b600067ffffffffffffffff8211156130eb576130ea613055565b5b6130f482612e2a565b9050602081019050919050565b82818337600083830152505050565b600061312361311e846130d0565b6130b5565b90508281526020810184848401111561313f5761313e613050565b5b61314a848285613101565b509392505050565b600082601f8301126131675761316661304b565b5b8135613177848260208601613110565b91505092915050565b600067ffffffffffffffff82111561319b5761319a613055565b5b6131a482612e2a565b9050602081019050919050565b60006131c46131bf84613180565b6130b5565b9050828152602081018484840111156131e0576131df613050565b5b6131eb848285613101565b509392505050565b600082601f8301126132085761320761304b565b5b81356132188482602086016131b1565b91505092915050565b60008060006060848603121561323a57613239612bc7565b5b600061324886828701612cd5565b935050602084013567ffffffffffffffff81111561326957613268612bcc565b5b61327586828701613152565b925050604084013567ffffffffffffffff81111561329657613295612bcc565b5b6132a2868287016131f3565b9150509250925092565b6000806000606084860312156132c5576132c4612bc7565b5b60006132d386828701612d38565b935050602084013567ffffffffffffffff8111156132f4576132f3612bcc565b5b61330086828701613152565b925050604084013567ffffffffffffffff81111561332157613320612bcc565b5b61332d86828701613152565b9150509250925092565b61334081612cac565b82525050565b600060208201905061335b6000830184613337565b92915050565b7f416363657373436f6e74726f6c3a2063616e206f6e6c792072656e6f756e636560008201527f20726f6c657320666f722073656c660000000000000000000000000000000000602082015250565b60006133bd602f83612def565b91506133c882613361565b604082019050919050565b600060208201905081810360008301526133ec816133b0565b9050919050565b7f4e487b7100000000000000000000000000000000000000000000000000000000600052602260045260246000fd5b6000600282049050600182168061343a57607f821691505b60208210810361344d5761344c6133f3565b5b50919050565b7f4d7573742062652070726f706f736564206f776e657200000000000000000000600082015250565b6000613489601683612def565b915061349482613453565b602082019050919050565b600060208201905081810360008301526134b88161347c565b9050919050565b60006134ca82612b50565b91507fffffffffffffffffffffffffffffffffffffffffffffffffffffffffffffffff82036134fc576134fb612b5a565b5b600182019050919050565b600061351a613515846130d0565b6130b5565b90508281526020810184848401111561353657613535613050565b5b613541848285612e00565b509392505050565b600082601f83011261355e5761355d61304b565b5b815161356e848260208601613507565b91505092915050565b60006020828403121561358d5761358c612bc7565b5b600082015167ffffffffffffffff8111156135ab576135aa612bcc565b5b6135b784828501613549565b91505092915050565b60008190508160005260206000209050919050565b60006020601f8301049050919050565b600082821b905092915050565b6000600883026136227fffffffffffffffffffffffffffffffffffffffffffffffffffffffffffffffff826135e5565b61362c86836135e5565b95508019841693508086168417925050509392505050565b6000819050919050565b600061366961366461365f84612b50565b613644565b612b50565b9050919050565b6000819050919050565b6136838361364e565b61369761368f82613670565b8484546135f2565b825550505050565b600090565b6136ac61369f565b6136b781848461367a565b505050565b5b818110156136db576136d06000826136a4565b6001810190506136bd565b5050565b601f821115613720576136f1816135c0565b6136fa846135d5565b81016020851015613709578190505b61371d613715856135d5565b8301826136bc565b50505b505050565b600082821c905092915050565b600061374360001984600802613725565b1980831691505092915050565b600061375c8383613732565b9150826002028217905092915050565b61377582612de4565b67ffffffffffffffff81111561378e5761378d613055565b5b6137988254613422565b6137a38282856136df565b600060209050601f8311600181146137d657600084156137c4578287015190505b6137ce8582613750565b865550613836565b601f1984166137e4866135c0565b60005b8281101561380c578489015182556001820191506020850194506020810190506137e7565b868310156138295784890151613825601f891682613732565b8355505b6001600288020188555050505b505050505050565b600081905092915050565b6000815461385681613422565b613860818661383e565b9450600182166000811461387b5760018114613890576138c3565b60ff19831686528115158202860193506138c3565b613899856135c0565b60005b838110156138bb5781548189015260018201915060208101905061389c565b838801955050505b50505092915050565b7f3f7573657249643d000000000000000000000000000000000000000000000000600082015250565b600061390260088361383e565b915061390d826138cc565b600882019050919050565b600061392382612de4565b61392d818561383e565b935061393d818560208601612e00565b80840191505092915050565b7f2666696e6765725072696e743d00000000000000000000000000000000000000600082015250565b600061397f600d8361383e565b915061398a82613949565b600d82019050919050565b600081519050919050565b600081905092915050565b60006139b682613995565b6139c081856139a0565b93506139d0818560208601612e00565b80840191505092915050565b60006139e88287613849565b91506139f48286613849565b91506139ff826138f5565b9150613a0b8285613918565b9150613a1682613972565b9150613a2282846139ab565b915081905095945050505050565b7f3f616464726573733d0000000000000000000000000000000000000000000000600082015250565b6000613a6660098361383e565b9150613a7182613a30565b600982019050919050565b60008160601b9050919050565b6000613a9482613a7c565b9050919050565b6000613aa682613a89565b9050919050565b613abe613ab982612cac565b613a9b565b82525050565b6000613ad08286613849565b9150613adc8285613849565b9150613ae782613a59565b9150613af38284613aad565b601482019150819050949350505050565b6000613b108284613918565b915081905092915050565b6000604082019050613b306000830185612d7a565b613b3d6020830184613337565b9392505050565b7f536f75726365206d75737420626520746865206f7261636c65206f662074686560008201527f2072657175657374000000000000000000000000000000000000000000000000602082015250565b6000613ba0602883612def565b9150613bab82613b44565b604082019050919050565b60006020820190508181036000830152613bcf81613b93565b9050919050565b50565b6000613be66000836139a0565b9150613bf182613bd6565b600082019050919050565b6000613c0782613bd9565b9150819050919050565b7f5265656e7472616e637947756172643a207265656e7472616e742063616c6c00600082015250565b6000613c47601f83612def565b9150613c5282613c11565b602082019050919050565b60006020820190508181036000830152613c7681613c3a565b9050919050565b7f4f6e6c792063616c6c61626c65206279206f776e657200000000000000000000600082015250565b6000613cb3601683612def565b9150613cbe82613c7d565b602082019050919050565b60006020820190508181036000830152613ce281613ca6565b9050919050565b7f43616e6e6f74207472616e7366657220746f2073656c66000000000000000000600082015250565b6000613d1f601783612def565b9150613d2a82613ce9565b602082019050919050565b60006020820190508181036000830152613d4e81613d12565b9050919050565b7f416363657373436f6e74726f6c3a206163636f756e7420000000000000000000600082015250565b6000613d8b60178361383e565b9150613d9682613d55565b601782019050919050565b7f206973206d697373696e6720726f6c6520000000000000000000000000000000600082015250565b6000613dd760118361383e565b9150613de282613da1565b601182019050919050565b6000613df882613d7e565b9150613e048285613918565b9150613e0f82613dca565b9150613e1b8284613918565b91508190509392505050565b613e3081612b50565b82525050565b613e3f81612bd1565b82525050565b600082825260208201905092915050565b6000613e6182613995565b613e6b8185613e45565b9350613e7b818560208601612e00565b613e8481612e2a565b840191505092915050565b600061010082019050613ea5600083018b613337565b613eb2602083018a613e27565b613ebf6040830189612d7a565b613ecc6060830188613337565b613ed96080830187613e36565b613ee660a0830186613e27565b613ef360c0830185613e27565b81810360e0830152613f058184613e56565b90509998505050505050505050565b6000613f1f82612b50565b9150613f2a83612b50565b9250828202613f3881612b50565b91508282048414831517613f4f57613f4e612b5a565b5b5092915050565b7f4e487b7100000000000000000000000000000000000000000000000000000000600052603260045260246000fd5b6000613f9082612b50565b915060008203613fa357613fa2612b5a565b5b600182039050919050565b7f537472696e67733a20686578206c656e67746820696e73756666696369656e74600082015250565b6000613fe4602083612def565b9150613fef82613fae565b602082019050919050565b6000602082019050818103600083015261401381613fd7565b9050919050565b7f4e487b7100000000000000000000000000000000000000000000000000000000600052601260045260246000fd5b600061405482612b50565b915061405f83612b50565b92508261406f5761406e61401a565b5b828206905092915050565b600061408582612b50565b915061409083612b50565b92508282039050818111156140a8576140a7612b5a565b5b92915050565b60006140c96140c46140bf84612c8c565b613644565b612c8c565b9050919050565b60006140db826140ae565b9050919050565b60006140ed826140d0565b9050919050565b614105614100826140e2565b613a9b565b82525050565b6000819050919050565b61412661412182612b50565b61410b565b82525050565b600061413882856140f4565b6014820191506141488284614115565b6020820191508190509392505050565b600060608201905061416d6000830186613337565b61417a6020830185613e27565b818103604083015261418c8184613e56565b9050949350505050565b61419f81612c56565b81146141aa57600080fd5b50565b6000815190506141bc81614196565b92915050565b6000602082840312156141d8576141d7612bc7565b5b60006141e6848285016141ad565b91505092915050565b7f756e61626c6520746f207472616e73666572416e6443616c6c20746f206f726160008201527f636c650000000000000000000000000000000000000000000000000000000000602082015250565b600061424b602383612def565b9150614256826141ef565b604082019050919050565b6000602082019050818103600083015261427a8161423e565b9050919050565b60008160011c9050919050565b6000808291508390505b60018511156142d8578086048111156142b4576142b3612b5a565b5b60018516156142c35780820291505b80810290506142d185614281565b9450614298565b94509492505050565b6000826142f157600190506143ad565b816142ff57600090506143ad565b8160018114614315576002811461431f5761434e565b60019150506143ad565b60ff84111561433157614330612b5a565b5b8360020a91508482111561434857614347612b5a565b5b506143ad565b5060208310610133831016604e8410600b84101617156143835782820a90508381111561437e5761437d612b5a565b5b6143ad565b614390848484600161428e565b925090508184048111156143a7576143a6612b5a565b5b81810290505b9392505050565b60006143bf82612b50565b91506143ca83612b50565b92506143f77fffffffffffffffffffffffffffffffffffffffffffffffffffffffffffffffff84846142e1565b90509291505056fea2646970667358221220ed5714c25c64d9730697b20f4666b495f47ad07f54378e34bc462dfb37412b5d64736f6c63430008110033",
  "devdoc": {
    "kind": "dev",
    "methods": {
      "fulfillMultipleParameters(bytes32,string,string)": {
        "details": "This is called by the oracle. recordChainlinkFulfillment must be used."
      },
      "getRoleAdmin(bytes32)": {
        "details": "Returns the admin role that controls `role`. See {grantRole} and {revokeRole}. To change a role's admin, use {_setRoleAdmin}."
      },
      "grantRole(bytes32,address)": {
        "details": "Grants `role` to `account`. If `account` had not been already granted `role`, emits a {RoleGranted} event. Requirements: - the caller must have ``role``'s admin role. May emit a {RoleGranted} event."
      },
      "hasRole(bytes32,address)": {
        "details": "Returns `true` if `account` has been granted `role`."
      },
      "renounceRole(bytes32,address)": {
        "details": "Revokes `role` from the calling account. Roles are often managed via {grantRole} and {revokeRole}: this function's purpose is to provide a mechanism for accounts to lose their privileges if they are compromised (such as when a trusted device is misplaced). If the calling account had been revoked `role`, emits a {RoleRevoked} event. Requirements: - the caller must be `account`. May emit a {RoleRevoked} event."
      },
      "revokeRole(bytes32,address)": {
        "details": "Revokes `role` from `account`. If `account` had been granted `role`, emits a {RoleRevoked} event. Requirements: - the caller must have ``role``'s admin role. May emit a {RoleRevoked} event."
      },
      "supportsInterface(bytes4)": {
        "details": "See {IERC165-supportsInterface}."
      }
    },
    "version": 1
  },
  "userdoc": {
    "kind": "user",
    "methods": {
      "acceptOwnership()": {
        "notice": "Allows an ownership transfer to be completed by the recipient."
      },
      "constructor": {
        "notice": "Initialize the link token and target oracle Goerli Testnet details: Link Token: 0x326C977E6efc84E512bB9C30f76E30c160eD06FB Oracle: 0xCC79157eb46F5624204f47AB42b3906cAA40eaB7 (Chainlink DevRel) jobId: ca98366cc7314957b8c012c72f05aeeb"
      },
      "fulfillMultipleParameters(bytes32,string,string)": {
        "notice": "Fulfillment function for multiple parameters in a single request"
      },
      "owner()": {
        "notice": "Get the current owner"
      },
      "transferOwnership(address)": {
        "notice": "Allows an owner to begin transferring ownership to a new address, pending."
      },
      "verifyFingerPrint(address,string,bytes)": {
        "notice": "Create a Chainlink request to retrieve API response, find the target data, then multiply by 1000000000000000000 (to remove decimal places from data)."
      },
      "withdrawLink()": {
        "notice": "this allow Buyer whose offer is expire or over by other buyer ."
      }
    },
    "notice": "THIS IS AN EXAMPLE CONTRACT WHICH USES HARDCODED VALUES FOR CLARITY. THIS EXAMPLE USES UN-AUDITED CODE. DO NOT USE THIS CODE IN PRODUCTION.",
    "version": 1
  },
  "storageLayout": {
    "storage": [
      {
        "astId": 319,
        "contract": "contracts/core/FigurePrintOracle.sol:FigurePrintOracle",
        "label": "s_ens",
        "offset": 0,
        "slot": "0",
        "type": "t_contract(ENSInterface)1156"
      },
      {
        "astId": 321,
        "contract": "contracts/core/FigurePrintOracle.sol:FigurePrintOracle",
        "label": "s_ensNode",
        "offset": 0,
        "slot": "1",
        "type": "t_bytes32"
      },
      {
        "astId": 324,
        "contract": "contracts/core/FigurePrintOracle.sol:FigurePrintOracle",
        "label": "s_link",
        "offset": 0,
        "slot": "2",
        "type": "t_contract(LinkTokenInterface)1251"
      },
      {
        "astId": 327,
        "contract": "contracts/core/FigurePrintOracle.sol:FigurePrintOracle",
        "label": "s_oracle",
        "offset": 0,
        "slot": "3",
        "type": "t_contract(OperatorInterface)1331"
      },
      {
        "astId": 330,
        "contract": "contracts/core/FigurePrintOracle.sol:FigurePrintOracle",
        "label": "s_requestCount",
        "offset": 0,
        "slot": "4",
        "type": "t_uint256"
      },
      {
        "astId": 334,
        "contract": "contracts/core/FigurePrintOracle.sol:FigurePrintOracle",
        "label": "s_pendingRequests",
        "offset": 0,
        "slot": "5",
        "type": "t_mapping(t_bytes32,t_address)"
      },
      {
        "astId": 889,
        "contract": "contracts/core/FigurePrintOracle.sol:FigurePrintOracle",
        "label": "s_owner",
        "offset": 0,
        "slot": "6",
        "type": "t_address"
      },
      {
        "astId": 891,
        "contract": "contracts/core/FigurePrintOracle.sol:FigurePrintOracle",
        "label": "s_pendingOwner",
        "offset": 0,
        "slot": "7",
        "type": "t_address"
      },
      {
        "astId": 2398,
        "contract": "contracts/core/FigurePrintOracle.sol:FigurePrintOracle",
        "label": "_roles",
        "offset": 0,
        "slot": "8",
        "type": "t_mapping(t_bytes32,t_struct(RoleData)2393_storage)"
      },
      {
        "astId": 7715,
        "contract": "contracts/core/FigurePrintOracle.sol:FigurePrintOracle",
        "label": "_status",
        "offset": 0,
        "slot": "9",
        "type": "t_uint256"
      },
      {
        "astId": 15359,
        "contract": "contracts/core/FigurePrintOracle.sol:FigurePrintOracle",
        "label": "userVerficationRequest",
        "offset": 0,
        "slot": "10",
        "type": "t_mapping(t_bytes32,t_address)"
      },
      {
        "astId": 15363,
        "contract": "contracts/core/FigurePrintOracle.sol:FigurePrintOracle",
        "label": "apis",
        "offset": 0,
        "slot": "11",
        "type": "t_mapping(t_uint256,t_string_storage)"
      },
      {
        "astId": 15368,
        "contract": "contracts/core/FigurePrintOracle.sol:FigurePrintOracle",
        "label": "userVerficationRecord",
        "offset": 0,
        "slot": "12",
        "type": "t_mapping(t_address,t_struct(VerifcaitonRecord)16969_storage)"
      },
      {
        "astId": 15372,
        "contract": "contracts/core/FigurePrintOracle.sol:FigurePrintOracle",
        "label": "amounts",
        "offset": 0,
        "slot": "13",
        "type": "t_mapping(t_address,t_uint256)"
      },
      {
        "astId": 15375,
        "contract": "contracts/core/FigurePrintOracle.sol:FigurePrintOracle",
        "label": "orcaleUrlProvider",
        "offset": 0,
        "slot": "14",
        "type": "t_contract(OrcaleUrlProvider)15931"
      },
      {
        "astId": 15377,
        "contract": "contracts/core/FigurePrintOracle.sol:FigurePrintOracle",
        "label": "jobId",
        "offset": 0,
        "slot": "15",
        "type": "t_bytes32"
      },
      {
        "astId": 15379,
        "contract": "contracts/core/FigurePrintOracle.sol:FigurePrintOracle",
        "label": "fee",
        "offset": 0,
        "slot": "16",
        "type": "t_uint256"
      },
      {
        "astId": 15381,
        "contract": "contracts/core/FigurePrintOracle.sol:FigurePrintOracle",
        "label": "baseUrl",
        "offset": 0,
        "slot": "17",
        "type": "t_string_storage"
      }
    ],
    "types": {
      "t_address": {
        "encoding": "inplace",
        "label": "address",
        "numberOfBytes": "20"
      },
      "t_bool": {
        "encoding": "inplace",
        "label": "bool",
        "numberOfBytes": "1"
      },
      "t_bytes32": {
        "encoding": "inplace",
        "label": "bytes32",
        "numberOfBytes": "32"
      },
      "t_contract(ENSInterface)1156": {
        "encoding": "inplace",
        "label": "contract ENSInterface",
        "numberOfBytes": "20"
      },
      "t_contract(LinkTokenInterface)1251": {
        "encoding": "inplace",
        "label": "contract LinkTokenInterface",
        "numberOfBytes": "20"
      },
      "t_contract(OperatorInterface)1331": {
        "encoding": "inplace",
        "label": "contract OperatorInterface",
        "numberOfBytes": "20"
      },
      "t_contract(OrcaleUrlProvider)15931": {
        "encoding": "inplace",
        "label": "contract OrcaleUrlProvider",
        "numberOfBytes": "20"
      },
      "t_enum(VerficationStatus)16974": {
        "encoding": "inplace",
        "label": "enum VerficationStatus",
        "numberOfBytes": "1"
      },
      "t_mapping(t_address,t_bool)": {
        "encoding": "mapping",
        "key": "t_address",
        "label": "mapping(address => bool)",
        "numberOfBytes": "32",
        "value": "t_bool"
      },
      "t_mapping(t_address,t_struct(VerifcaitonRecord)16969_storage)": {
        "encoding": "mapping",
        "key": "t_address",
        "label": "mapping(address => struct VerifcaitonRecord)",
        "numberOfBytes": "32",
        "value": "t_struct(VerifcaitonRecord)16969_storage"
      },
      "t_mapping(t_address,t_uint256)": {
        "encoding": "mapping",
        "key": "t_address",
        "label": "mapping(address => uint256)",
        "numberOfBytes": "32",
        "value": "t_uint256"
      },
      "t_mapping(t_bytes32,t_address)": {
        "encoding": "mapping",
        "key": "t_bytes32",
        "label": "mapping(bytes32 => address)",
        "numberOfBytes": "32",
        "value": "t_address"
      },
      "t_mapping(t_bytes32,t_struct(RoleData)2393_storage)": {
        "encoding": "mapping",
        "key": "t_bytes32",
        "label": "mapping(bytes32 => struct AccessControl.RoleData)",
        "numberOfBytes": "32",
        "value": "t_struct(RoleData)2393_storage"
      },
      "t_mapping(t_uint256,t_string_storage)": {
        "encoding": "mapping",
        "key": "t_uint256",
        "label": "mapping(uint256 => string)",
        "numberOfBytes": "32",
        "value": "t_string_storage"
      },
      "t_string_storage": {
        "encoding": "bytes",
        "label": "string",
        "numberOfBytes": "32"
      },
      "t_struct(RoleData)2393_storage": {
        "encoding": "inplace",
        "label": "struct AccessControl.RoleData",
        "members": [
          {
            "astId": 2390,
            "contract": "contracts/core/FigurePrintOracle.sol:FigurePrintOracle",
            "label": "members",
            "offset": 0,
            "slot": "0",
            "type": "t_mapping(t_address,t_bool)"
          },
          {
            "astId": 2392,
            "contract": "contracts/core/FigurePrintOracle.sol:FigurePrintOracle",
            "label": "adminRole",
            "offset": 0,
            "slot": "1",
            "type": "t_bytes32"
          }
        ],
        "numberOfBytes": "64"
      },
      "t_struct(VerifcaitonRecord)16969_storage": {
        "encoding": "inplace",
        "label": "struct VerifcaitonRecord",
        "members": [
          {
            "astId": 16961,
            "contract": "contracts/core/FigurePrintOracle.sol:FigurePrintOracle",
            "label": "userId",
            "offset": 0,
            "slot": "0",
            "type": "t_string_storage"
          },
          {
            "astId": 16963,
            "contract": "contracts/core/FigurePrintOracle.sol:FigurePrintOracle",
            "label": "numberTries",
            "offset": 0,
            "slot": "1",
            "type": "t_uint256"
          },
          {
            "astId": 16965,
            "contract": "contracts/core/FigurePrintOracle.sol:FigurePrintOracle",
            "label": "uri",
            "offset": 0,
            "slot": "2",
            "type": "t_string_storage"
          },
          {
            "astId": 16968,
            "contract": "contracts/core/FigurePrintOracle.sol:FigurePrintOracle",
            "label": "status",
            "offset": 0,
            "slot": "3",
            "type": "t_enum(VerficationStatus)16974"
          }
        ],
        "numberOfBytes": "128"
      },
      "t_uint256": {
        "encoding": "inplace",
        "label": "uint256",
        "numberOfBytes": "32"
      }
    }
  }
}