{
  "address": "0x5FC8d32690cc91D4c39d9d3abcBD16989F875707",
  "abi": [
    {
      "inputs": [
        {
          "internalType": "address",
          "name": "_linkToken",
          "type": "address"
        },
        {
          "internalType": "address",
          "name": "_oricle",
          "type": "address"
        },
        {
          "internalType": "bytes32",
          "name": "_jobId",
          "type": "bytes32"
        },
        {
          "internalType": "uint256",
          "name": "_fee",
          "type": "uint256"
        },
        {
          "internalType": "address",
          "name": "_orcaleUrlProvider",
          "type": "address"
        }
      ],
      "stateMutability": "nonpayable",
      "type": "constructor"
    },
    {
      "inputs": [
        {
          "internalType": "address",
          "name": "userAddress",
          "type": "address"
        }
      ],
      "name": "FigurePrintOracle__ExceedNumberTries",
      "type": "error"
    },
    {
      "inputs": [],
      "name": "FigurePrintOracle__FailToWithDrawAmount",
      "type": "error"
    },
    {
      "inputs": [],
      "name": "FigurePrintOracle__NoAmountForWithDraw",
      "type": "error"
    },
    {
      "inputs": [],
      "name": "FigurePrintOracle__NotVerifer",
      "type": "error"
    },
    {
      "inputs": [
        {
          "internalType": "address",
          "name": "userAddress",
          "type": "address"
        }
      ],
      "name": "FigurePrintOracle__RequestAlreadyExist",
      "type": "error"
    },
    {
      "inputs": [
        {
          "internalType": "address",
          "name": "userAddress",
          "type": "address"
        }
      ],
      "name": "FigurePrintOracle__VerficationAlreadyDone",
      "type": "error"
    },
    {
      "anonymous": false,
      "inputs": [
        {
          "indexed": true,
          "internalType": "bytes32",
          "name": "id",
          "type": "bytes32"
        }
      ],
      "name": "ChainlinkCancelled",
      "type": "event"
    },
    {
      "anonymous": false,
      "inputs": [
        {
          "indexed": true,
          "internalType": "bytes32",
          "name": "id",
          "type": "bytes32"
        }
      ],
      "name": "ChainlinkFulfilled",
      "type": "event"
    },
    {
      "anonymous": false,
      "inputs": [
        {
          "indexed": true,
          "internalType": "bytes32",
          "name": "id",
          "type": "bytes32"
        }
      ],
      "name": "ChainlinkRequested",
      "type": "event"
    },
    {
      "anonymous": false,
      "inputs": [
        {
          "indexed": true,
          "internalType": "address",
          "name": "buyer",
          "type": "address"
        },
        {
          "indexed": true,
          "internalType": "uint256",
          "name": "amount",
          "type": "uint256"
        }
      ],
      "name": "FallbackCalled",
      "type": "event"
    },
    {
      "anonymous": false,
      "inputs": [
        {
          "indexed": true,
          "internalType": "address",
          "name": "from",
          "type": "address"
        },
        {
          "indexed": true,
          "internalType": "address",
          "name": "to",
          "type": "address"
        }
      ],
      "name": "OwnershipTransferRequested",
      "type": "event"
    },
    {
      "anonymous": false,
      "inputs": [
        {
          "indexed": true,
          "internalType": "address",
          "name": "from",
          "type": "address"
        },
        {
          "indexed": true,
          "internalType": "address",
          "name": "to",
          "type": "address"
        }
      ],
      "name": "OwnershipTransferred",
      "type": "event"
    },
    {
      "anonymous": false,
      "inputs": [
        {
          "indexed": true,
          "internalType": "address",
          "name": "buyer",
          "type": "address"
        },
        {
          "indexed": true,
          "internalType": "uint256",
          "name": "amount",
          "type": "uint256"
        }
      ],
      "name": "ReceivedCalled",
      "type": "event"
    },
    {
      "anonymous": false,
      "inputs": [
        {
          "indexed": true,
          "internalType": "bytes32",
          "name": "role",
          "type": "bytes32"
        },
        {
          "indexed": true,
          "internalType": "bytes32",
          "name": "previousAdminRole",
          "type": "bytes32"
        },
        {
          "indexed": true,
          "internalType": "bytes32",
          "name": "newAdminRole",
          "type": "bytes32"
        }
      ],
      "name": "RoleAdminChanged",
      "type": "event"
    },
    {
      "anonymous": false,
      "inputs": [
        {
          "indexed": true,
          "internalType": "bytes32",
          "name": "role",
          "type": "bytes32"
        },
        {
          "indexed": true,
          "internalType": "address",
          "name": "account",
          "type": "address"
        },
        {
          "indexed": true,
          "internalType": "address",
          "name": "sender",
          "type": "address"
        }
      ],
      "name": "RoleGranted",
      "type": "event"
    },
    {
      "anonymous": false,
      "inputs": [
        {
          "indexed": true,
          "internalType": "bytes32",
          "name": "role",
          "type": "bytes32"
        },
        {
          "indexed": true,
          "internalType": "address",
          "name": "account",
          "type": "address"
        },
        {
          "indexed": true,
          "internalType": "address",
          "name": "sender",
          "type": "address"
        }
      ],
      "name": "RoleRevoked",
      "type": "event"
    },
    {
      "anonymous": false,
      "inputs": [
        {
          "indexed": true,
          "internalType": "address",
          "name": "oricle",
          "type": "address"
        }
      ],
      "name": "SetChainLinkOracle",
      "type": "event"
    },
    {
      "anonymous": false,
      "inputs": [
        {
          "indexed": true,
          "internalType": "address",
          "name": "linkToken",
          "type": "address"
        }
      ],
      "name": "SetChainLinkToken",
      "type": "event"
    },
    {
      "anonymous": false,
      "inputs": [
        {
          "indexed": true,
          "internalType": "uint256",
          "name": "fee",
          "type": "uint256"
        }
      ],
      "name": "SetFee",
      "type": "event"
    },
    {
      "anonymous": false,
      "inputs": [
        {
          "indexed": true,
          "internalType": "bytes32",
          "name": "jobId",
          "type": "bytes32"
        }
      ],
      "name": "SetJobId",
      "type": "event"
    },
    {
      "anonymous": false,
      "inputs": [
        {
          "indexed": true,
          "internalType": "address",
          "name": "verifer",
          "type": "address"
        }
      ],
      "name": "SetVeriferRole",
      "type": "event"
    },
    {
      "anonymous": false,
      "inputs": [
        {
          "indexed": true,
          "internalType": "address",
          "name": "userAddress",
          "type": "address"
        },
        {
          "indexed": true,
          "internalType": "bytes32",
          "name": "requestId",
          "type": "bytes32"
        },
        {
          "indexed": false,
          "internalType": "string",
          "name": "isVerfied",
          "type": "string"
        }
      ],
      "name": "VerifationResponse",
      "type": "event"
    },
    {
      "anonymous": false,
      "inputs": [
        {
          "indexed": true,
          "internalType": "bytes",
          "name": "userId",
          "type": "bytes"
        },
        {
          "indexed": false,
          "internalType": "bytes32",
          "name": "requestId",
          "type": "bytes32"
        },
        {
          "indexed": false,
          "internalType": "address",
          "name": "userAddress",
          "type": "address"
        }
      ],
      "name": "VerifyFingerPrint",
      "type": "event"
    },
    {
      "anonymous": false,
      "inputs": [
        {
          "indexed": true,
          "internalType": "address",
          "name": "buyer",
          "type": "address"
        },
        {
          "indexed": true,
          "internalType": "uint256",
          "name": "amount",
          "type": "uint256"
        }
      ],
      "name": "WithDrawAmount",
      "type": "event"
    },
    {
      "inputs": [],
      "name": "DEFAULT_ADMIN_ROLE",
      "outputs": [
        {
          "internalType": "bytes32",
          "name": "",
          "type": "bytes32"
        }
      ],
      "stateMutability": "view",
      "type": "function"
    },
    {
      "inputs": [],
      "name": "acceptOwnership",
      "outputs": [],
      "stateMutability": "nonpayable",
      "type": "function"
    },
    {
      "inputs": [],
      "name": "baseUrl",
      "outputs": [
        {
          "internalType": "string",
          "name": "",
          "type": "string"
        }
      ],
      "stateMutability": "view",
      "type": "function"
    },
    {
      "inputs": [
        {
          "internalType": "address",
          "name": "userAddress",
          "type": "address"
        }
      ],
      "name": "burnUserRecord",
      "outputs": [],
      "stateMutability": "nonpayable",
      "type": "function"
    },
    {
      "inputs": [
        {
          "internalType": "enum VerficationStatus",
          "name": "status",
          "type": "uint8"
        },
        {
          "internalType": "uint256",
          "name": "numberTries",
          "type": "uint256"
        }
      ],
      "name": "createUserSimpleRecord",
      "outputs": [],
      "stateMutability": "nonpayable",
      "type": "function"
    },
    {
      "inputs": [
        {
          "internalType": "bytes32",
          "name": "_requestId",
          "type": "bytes32"
        },
        {
          "internalType": "string",
          "name": "isVerfied",
          "type": "string"
        }
      ],
      "name": "fulfillMultipleParameters",
      "outputs": [],
      "stateMutability": "nonpayable",
      "type": "function"
    },
    {
      "inputs": [],
      "name": "getBaseURI",
      "outputs": [
        {
          "internalType": "string",
          "name": "",
          "type": "string"
        }
      ],
      "stateMutability": "view",
      "type": "function"
    },
    {
      "inputs": [],
      "name": "getChainLinkOracle",
      "outputs": [
        {
          "internalType": "address",
          "name": "",
          "type": "address"
        }
      ],
      "stateMutability": "view",
      "type": "function"
    },
    {
      "inputs": [],
      "name": "getChainLinkToken",
      "outputs": [
        {
          "internalType": "address",
          "name": "",
          "type": "address"
        }
      ],
      "stateMutability": "view",
      "type": "function"
    },
    {
      "inputs": [],
      "name": "getFee",
      "outputs": [
        {
          "internalType": "uint256",
          "name": "",
          "type": "uint256"
        }
      ],
      "stateMutability": "view",
      "type": "function"
    },
    {
      "inputs": [],
      "name": "getJobId",
      "outputs": [
        {
          "internalType": "bytes32",
          "name": "",
          "type": "bytes32"
        }
      ],
      "stateMutability": "view",
      "type": "function"
    },
    {
      "inputs": [
        {
          "internalType": "bytes32",
          "name": "role",
          "type": "bytes32"
        }
      ],
      "name": "getRoleAdmin",
      "outputs": [
        {
          "internalType": "bytes32",
          "name": "",
          "type": "bytes32"
        }
      ],
      "stateMutability": "view",
      "type": "function"
    },
    {
      "inputs": [
        {
          "internalType": "address",
          "name": "userAddress",
          "type": "address"
        }
      ],
      "name": "getUserRecord",
      "outputs": [
        {
          "internalType": "enum VerficationStatus",
          "name": "",
          "type": "uint8"
        }
      ],
      "stateMutability": "view",
      "type": "function"
    },
    {
      "inputs": [
        {
          "internalType": "address",
          "name": "userAddress",
          "type": "address"
        }
      ],
      "name": "getUserVerification",
      "outputs": [
        {
          "internalType": "bool",
          "name": "",
          "type": "bool"
        }
      ],
      "stateMutability": "view",
      "type": "function"
    },
    {
      "inputs": [],
      "name": "getVerifier",
      "outputs": [
        {
          "internalType": "bool",
          "name": "",
          "type": "bool"
        }
      ],
      "stateMutability": "view",
      "type": "function"
    },
    {
      "inputs": [
        {
          "internalType": "bytes32",
          "name": "role",
          "type": "bytes32"
        },
        {
          "internalType": "address",
          "name": "account",
          "type": "address"
        }
      ],
      "name": "grantRole",
      "outputs": [],
      "stateMutability": "nonpayable",
      "type": "function"
    },
    {
      "inputs": [
        {
          "internalType": "bytes32",
          "name": "role",
          "type": "bytes32"
        },
        {
          "internalType": "address",
          "name": "account",
          "type": "address"
        }
      ],
      "name": "hasRole",
      "outputs": [
        {
          "internalType": "bool",
          "name": "",
          "type": "bool"
        }
      ],
      "stateMutability": "view",
      "type": "function"
    },
    {
      "inputs": [],
      "name": "owner",
      "outputs": [
        {
          "internalType": "address",
          "name": "",
          "type": "address"
        }
      ],
      "stateMutability": "view",
      "type": "function"
    },
    {
      "inputs": [
        {
          "internalType": "bytes32",
          "name": "role",
          "type": "bytes32"
        },
        {
          "internalType": "address",
          "name": "account",
          "type": "address"
        }
      ],
      "name": "renounceRole",
      "outputs": [],
      "stateMutability": "nonpayable",
      "type": "function"
    },
    {
      "inputs": [
        {
          "internalType": "bytes32",
          "name": "role",
          "type": "bytes32"
        },
        {
          "internalType": "address",
          "name": "account",
          "type": "address"
        }
      ],
      "name": "revokeRole",
      "outputs": [],
      "stateMutability": "nonpayable",
      "type": "function"
    },
    {
      "inputs": [
        {
          "internalType": "address",
          "name": "oricle",
          "type": "address"
        }
      ],
      "name": "setChainLinkOracle",
      "outputs": [],
      "stateMutability": "nonpayable",
      "type": "function"
    },
    {
      "inputs": [
        {
          "internalType": "address",
          "name": "linkToken",
          "type": "address"
        }
      ],
      "name": "setChainLinkToken",
      "outputs": [],
      "stateMutability": "nonpayable",
      "type": "function"
    },
    {
      "inputs": [
        {
          "internalType": "uint256",
          "name": "_fee",
          "type": "uint256"
        }
      ],
      "name": "setFee",
      "outputs": [],
      "stateMutability": "nonpayable",
      "type": "function"
    },
    {
      "inputs": [
        {
          "internalType": "bytes32",
          "name": "_jobId",
          "type": "bytes32"
        }
      ],
      "name": "setJobId",
      "outputs": [],
      "stateMutability": "nonpayable",
      "type": "function"
    },
    {
      "inputs": [
        {
          "internalType": "address",
          "name": "verifer",
          "type": "address"
        }
      ],
      "name": "setVeriferRole",
      "outputs": [],
      "stateMutability": "nonpayable",
      "type": "function"
    },
    {
      "inputs": [
        {
          "internalType": "bytes4",
          "name": "interfaceId",
          "type": "bytes4"
        }
      ],
      "name": "supportsInterface",
      "outputs": [
        {
          "internalType": "bool",
          "name": "",
          "type": "bool"
        }
      ],
      "stateMutability": "view",
      "type": "function"
    },
    {
      "inputs": [
        {
          "internalType": "address",
          "name": "to",
          "type": "address"
        }
      ],
      "name": "transferOwnership",
      "outputs": [],
      "stateMutability": "nonpayable",
      "type": "function"
    },
    {
      "inputs": [],
      "name": "updateBaseURI",
      "outputs": [],
      "stateMutability": "nonpayable",
      "type": "function"
    },
    {
      "inputs": [
        {
          "internalType": "address",
          "name": "userAddress",
          "type": "address"
        },
        {
          "internalType": "bytes",
          "name": "userId",
          "type": "bytes"
        },
        {
          "internalType": "bytes",
          "name": "fingerPrint",
          "type": "bytes"
        }
      ],
      "name": "verifyFingerPrint",
      "outputs": [],
      "stateMutability": "nonpayable",
      "type": "function"
    },
    {
      "inputs": [],
      "name": "withdrawLink",
      "outputs": [],
      "stateMutability": "payable",
      "type": "function"
    },
    {
      "stateMutability": "payable",
      "type": "receive"
    }
  ],
  "transactionHash": "0xaf5326fe4efa9b6ccfc576d8b0eb546ff012e9ed0adf5d5fa24f1469969b79fa",
  "args": [
    "0xCf7Ed3AccA5a467e9e704C703E8D87F634fB0Fc9",
    "0xDc64a140Aa3E981100a9becA4E685f962f0cF6C9",
    "0x3764383061363338366566353433613361626235323831376636373037653362",
    "100000000000000000",
    "0x5FbDB2315678afecb367f032d93F642f64180aa3"
  ],
  "numDeployments": 1,
  "solcInputHash": "a5547834cc7928f37798cdbca23c772a",
  "bytecode": "0x608060405260016004553480156200001657600080fd5b50604051620053523803806200535283398181016040528101906200003c91906200050a565b338060008073ffffffffffffffffffffffffffffffffffffffff168273ffffffffffffffffffffffffffffffffffffffff1603620000b1576040517f08c379a0000000000000000000000000000000000000000000000000000000008152600401620000a890620005f3565b60405180910390fd5b81600660006101000a81548173ffffffffffffffffffffffffffffffffffffffff021916908373ffffffffffffffffffffffffffffffffffffffff160217905550600073ffffffffffffffffffffffffffffffffffffffff168173ffffffffffffffffffffffffffffffffffffffff1614620001395762000138816200027160201b60201c565b5b50505060016009819055506200015585620003a260201b60201c565b6200016684620003e660201b60201c565b82600f819055508160108190555080600e60006101000a81548173ffffffffffffffffffffffffffffffffffffffff021916908373ffffffffffffffffffffffffffffffffffffffff1602179055506040518060400160405280600681526020017f6765745572690000000000000000000000000000000000000000000000000000815250600b600080815260200190815260200160002090816200020c919062000885565b506040518060400160405280600a81526020017f6765745665726669747900000000000000000000000000000000000000000000815250600b600060018152602001908152602001600020908162000265919062000885565b505050505050620009de565b3373ffffffffffffffffffffffffffffffffffffffff168173ffffffffffffffffffffffffffffffffffffffff1603620002e2576040517f08c379a0000000000000000000000000000000000000000000000000000000008152600401620002d990620009bc565b60405180910390fd5b80600760006101000a81548173ffffffffffffffffffffffffffffffffffffffff021916908373ffffffffffffffffffffffffffffffffffffffff1602179055508073ffffffffffffffffffffffffffffffffffffffff16600660009054906101000a900473ffffffffffffffffffffffffffffffffffffffff1673ffffffffffffffffffffffffffffffffffffffff167fed8889f560326eb138920d842192f0eb3dd22b4f139c87a2c57538e05bae127860405160405180910390a350565b80600260006101000a81548173ffffffffffffffffffffffffffffffffffffffff021916908373ffffffffffffffffffffffffffffffffffffffff16021790555050565b80600360006101000a81548173ffffffffffffffffffffffffffffffffffffffff021916908373ffffffffffffffffffffffffffffffffffffffff16021790555050565b600080fd5b600073ffffffffffffffffffffffffffffffffffffffff82169050919050565b60006200045c826200042f565b9050919050565b6200046e816200044f565b81146200047a57600080fd5b50565b6000815190506200048e8162000463565b92915050565b6000819050919050565b620004a98162000494565b8114620004b557600080fd5b50565b600081519050620004c9816200049e565b92915050565b6000819050919050565b620004e481620004cf565b8114620004f057600080fd5b50565b6000815190506200050481620004d9565b92915050565b600080600080600060a086880312156200052957620005286200042a565b5b600062000539888289016200047d565b95505060206200054c888289016200047d565b94505060406200055f88828901620004b8565b93505060606200057288828901620004f3565b925050608062000585888289016200047d565b9150509295509295909350565b600082825260208201905092915050565b7f43616e6e6f7420736574206f776e657220746f207a65726f0000000000000000600082015250565b6000620005db60188362000592565b9150620005e882620005a3565b602082019050919050565b600060208201905081810360008301526200060e81620005cc565b9050919050565b600081519050919050565b7f4e487b7100000000000000000000000000000000000000000000000000000000600052604160045260246000fd5b7f4e487b7100000000000000000000000000000000000000000000000000000000600052602260045260246000fd5b600060028204905060018216806200069757607f821691505b602082108103620006ad57620006ac6200064f565b5b50919050565b60008190508160005260206000209050919050565b60006020601f8301049050919050565b600082821b905092915050565b600060088302620007177fffffffffffffffffffffffffffffffffffffffffffffffffffffffffffffffff82620006d8565b620007238683620006d8565b95508019841693508086168417925050509392505050565b6000819050919050565b600062000766620007606200075a84620004cf565b6200073b565b620004cf565b9050919050565b6000819050919050565b620007828362000745565b6200079a62000791826200076d565b848454620006e5565b825550505050565b600090565b620007b1620007a2565b620007be81848462000777565b505050565b5b81811015620007e657620007da600082620007a7565b600181019050620007c4565b5050565b601f8211156200083557620007ff81620006b3565b6200080a84620006c8565b810160208510156200081a578190505b620008326200082985620006c8565b830182620007c3565b50505b505050565b600082821c905092915050565b60006200085a600019846008026200083a565b1980831691505092915050565b600062000875838362000847565b9150826002028217905092915050565b620008908262000615565b67ffffffffffffffff811115620008ac57620008ab62000620565b5b620008b882546200067e565b620008c5828285620007ea565b600060209050601f831160018114620008fd5760008415620008e8578287015190505b620008f4858262000867565b86555062000964565b601f1984166200090d86620006b3565b60005b82811015620009375784890151825560018201915060208501945060208101905062000910565b8683101562000957578489015162000953601f89168262000847565b8355505b6001600288020188555050505b505050505050565b7f43616e6e6f74207472616e7366657220746f2073656c66000000000000000000600082015250565b6000620009a460178362000592565b9150620009b1826200096c565b602082019050919050565b60006020820190508181036000830152620009d78162000995565b9050919050565b61496480620009ee6000396000f3fe6080604052600436106101d15760003560e01c806386a2c503116100f7578063b36c6d1f11610095578063d547741f11610064578063d547741f146106d4578063f0aca822146106fd578063f2fde38b14610726578063f896f7c41461074f57610272565b8063b36c6d1f14610618578063b6a9a38a14610655578063bdf21ca31461067e578063ced72f87146106a957610272565b806391d14854116100d157806391d148541461055c578063a217fddf14610599578063afcfd63e146105c4578063b02f7fe0146105ed57610272565b806386a2c503146105105780638da5cb5b146105275780638dc654a21461055257610272565b806336568abe1161016f57806367e2efc61161013e57806367e2efc61461046857806369fe0e2d146104a5578063714c5398146104ce57806379ba5097146104f957610272565b806336568abe146103c057806346657fe9146103e9578063508954f8146104145780635bcabf041461043d57610272565b8063248a9ca3116101ab578063248a9ca314610308578063257676a81461034557806326ae9afb1461036e5780632f2ff15d1461039757610272565b806301ffc9a71461027757806317e13d08146102b4578063247afee4146102df57610272565b366102725734600d60003373ffffffffffffffffffffffffffffffffffffffff1673ffffffffffffffffffffffffffffffffffffffff16815260200190815260200160002060008282546102259190612ffc565b92505081905550343373ffffffffffffffffffffffffffffffffffffffff167f985c6b576d54b73e8b271365890eadef9d88dfe168128904b21fa0b128fd78ea60405160405180910390a3005b600080fd5b34801561028357600080fd5b5061029e6004803603810190610299919061309c565b610778565b6040516102ab91906130e4565b60405180910390f35b3480156102c057600080fd5b506102c96107f2565b6040516102d69190613140565b60405180910390f35b3480156102eb57600080fd5b5061030660048036038101906103019190613187565b610801565b005b34801561031457600080fd5b5061032f600480360381019061032a91906131ea565b6108df565b60405161033c9190613226565b60405180910390f35b34801561035157600080fd5b5061036c60048036038101906103679190613187565b6108ff565b005b34801561037a57600080fd5b5061039560048036038101906103909190613187565b610966565b005b3480156103a357600080fd5b506103be60048036038101906103b99190613241565b6109ee565b005b3480156103cc57600080fd5b506103e760048036038101906103e29190613241565b610a0f565b005b3480156103f557600080fd5b506103fe610a92565b60405161040b91906130e4565b60405180910390f35b34801561042057600080fd5b5061043b600480360381019061043691906131ea565b610ac3565b005b34801561044957600080fd5b50610452610b14565b60405161045f9190613311565b60405180910390f35b34801561047457600080fd5b5061048f600480360381019061048a9190613187565b610ba2565b60405161049c91906133aa565b60405180910390f35b3480156104b157600080fd5b506104cc60048036038101906104c791906133f1565b610bfb565b005b3480156104da57600080fd5b506104e3610c4b565b6040516104f09190613311565b60405180910390f35b34801561050557600080fd5b5061050e610d1c565b005b34801561051c57600080fd5b50610525610eb3565b005b34801561053357600080fd5b5061053c610f5a565b6040516105499190613140565b60405180910390f35b61055a610f84565b005b34801561056857600080fd5b50610583600480360381019061057e9190613241565b611142565b60405161059091906130e4565b60405180910390f35b3480156105a557600080fd5b506105ae6111ad565b6040516105bb9190613226565b60405180910390f35b3480156105d057600080fd5b506105eb60048036038101906105e69190613443565b6111b4565b005b3480156105f957600080fd5b506106026112c9565b60405161060f9190613226565b60405180910390f35b34801561062457600080fd5b5061063f600480360381019061063a9190613187565b6112d3565b60405161064c91906130e4565b60405180910390f35b34801561066157600080fd5b5061067c600480360381019061067791906135b8565b6114e2565b005b34801561068a57600080fd5b50610693611766565b6040516106a09190613140565b60405180910390f35b3480156106b557600080fd5b506106be611775565b6040516106cb9190613623565b60405180910390f35b3480156106e057600080fd5b506106fb60048036038101906106f69190613241565b61177f565b005b34801561070957600080fd5b50610724600480360381019061071f919061369e565b6117a0565b005b34801561073257600080fd5b5061074d60048036038101906107489190613187565b611e50565b005b34801561075b57600080fd5b5061077660048036038101906107719190613187565b611e64565b005b60007f7965db0b000000000000000000000000000000000000000000000000000000007bffffffffffffffffffffffffffffffffffffffffffffffffffffffff1916827bffffffffffffffffffffffffffffffffffffffffffffffffffffffff191614806107eb57506107ea82611ecb565b5b9050919050565b60006107fc611f35565b905090565b61082b7f0ce23c3e399818cfee81a7ab0880f714e53d7672b08df0fa62f2843416e1ea0933611142565b610861576040517f75ceeec000000000000000000000000000000000000000000000000000000000815260040160405180910390fd5b610869611f5f565b6000600c60008373ffffffffffffffffffffffffffffffffffffffff1673ffffffffffffffffffffffffffffffffffffffff16815260200190815260200160002060020160006101000a81548160ff021916908360038111156108cf576108ce613333565b5b02179055506108dc611fae565b50565b600060086000838152602001908152602001600020600101549050919050565b610907611fb8565b61090f611f5f565b6109188161204a565b8073ffffffffffffffffffffffffffffffffffffffff167f5e3d2635439ab4dc3736bc942632356666683c34e3e8f6892afd53984d41b5f160405160405180910390a2610963611fae565b50565b61096e611fb8565b610976611f5f565b6109a07f0ce23c3e399818cfee81a7ab0880f714e53d7672b08df0fa62f2843416e1ea098261208e565b8073ffffffffffffffffffffffffffffffffffffffff167f6eabbe94796eb4c01e3a72abf06679438f1cadee7da57c4c03fd5c0a481edebd60405160405180910390a26109eb611fae565b50565b6109f7826108df565b610a008161209c565b610a0a83836120b0565b505050565b610a17612191565b73ffffffffffffffffffffffffffffffffffffffff168173ffffffffffffffffffffffffffffffffffffffff1614610a84576040517f08c379a0000000000000000000000000000000000000000000000000000000008152600401610a7b906137a5565b60405180910390fd5b610a8e8282612199565b5050565b6000610abe7f0ce23c3e399818cfee81a7ab0880f714e53d7672b08df0fa62f2843416e1ea0933611142565b905090565b610acb611fb8565b610ad3611f5f565b80600f81905550600f547f3f65354ad8878ee58ec2edb43f1061482ae0944d2888b5a9655a240c94e68c9b60405160405180910390a2610b11611fae565b50565b60118054610b21906137f4565b80601f0160208091040260200160405190810160405280929190818152602001828054610b4d906137f4565b8015610b9a5780601f10610b6f57610100808354040283529160200191610b9a565b820191906000526020600020905b815481529060010190602001808311610b7d57829003601f168201915b505050505081565b6000600c60008373ffffffffffffffffffffffffffffffffffffffff1673ffffffffffffffffffffffffffffffffffffffff16815260200190815260200160002060020160009054906101000a900460ff169050919050565b610c03611fb8565b610c0b611f5f565b806010819055506010547e172ddfc5ae88d08b3de01a5a187667c37a5a53989e8c175055cb6c993792a760405160405180910390a2610c48611fae565b50565b6060600e60009054906101000a900473ffffffffffffffffffffffffffffffffffffffff1673ffffffffffffffffffffffffffffffffffffffff166338bcdc1c6040518163ffffffff1660e01b8152600401600060405180830381865afa158015610cba573d6000803e3d6000fd5b505050506040513d6000823e3d601f19601f82011682018060405250810190610ce39190613895565b600b600060018152602001908152602001600020604051602001610d08929190613ae2565b604051602081830303815290604052905090565b600760009054906101000a900473ffffffffffffffffffffffffffffffffffffffff1673ffffffffffffffffffffffffffffffffffffffff163373ffffffffffffffffffffffffffffffffffffffff1614610dac576040517f08c379a0000000000000000000000000000000000000000000000000000000008152600401610da390613b7e565b60405180910390fd5b6000600660009054906101000a900473ffffffffffffffffffffffffffffffffffffffff16905033600660006101000a81548173ffffffffffffffffffffffffffffffffffffffff021916908373ffffffffffffffffffffffffffffffffffffffff1602179055506000600760006101000a81548173ffffffffffffffffffffffffffffffffffffffff021916908373ffffffffffffffffffffffffffffffffffffffff1602179055503373ffffffffffffffffffffffffffffffffffffffff168173ffffffffffffffffffffffffffffffffffffffff167f8be0079c531659141344cd1fd0a4f28419497f9722a3daafe3b4186f6b6457e060405160405180910390a350565b600e60009054906101000a900473ffffffffffffffffffffffffffffffffffffffff1673ffffffffffffffffffffffffffffffffffffffff166338bcdc1c6040518163ffffffff1660e01b8152600401600060405180830381865afa158015610f20573d6000803e3d6000fd5b505050506040513d6000823e3d601f19601f82011682018060405250810190610f499190613895565b60119081610f579190613d35565b50565b6000600660009054906101000a900473ffffffffffffffffffffffffffffffffffffffff16905090565b610f8c611f5f565b6000600d60003373ffffffffffffffffffffffffffffffffffffffff1673ffffffffffffffffffffffffffffffffffffffff1681526020019081526020016000205490506000810361100a576040517f5dce311a00000000000000000000000000000000000000000000000000000000815260040160405180910390fd5b6000600d60003373ffffffffffffffffffffffffffffffffffffffff1673ffffffffffffffffffffffffffffffffffffffff1681526020019081526020016000208190555060003373ffffffffffffffffffffffffffffffffffffffff168260405161107590613e38565b60006040518083038185875af1925050503d80600081146110b2576040519150601f19603f3d011682016040523d82523d6000602084013e6110b7565b606091505b50509050806110f2576040517fa259cac100000000000000000000000000000000000000000000000000000000815260040160405180910390fd5b813373ffffffffffffffffffffffffffffffffffffffff167f86103aca9d06378ad5eb858d2ee726267f69628ca4ff59597196865412b6338760405160405180910390a35050611140611fae565b565b60006008600084815260200190815260200160002060000160008373ffffffffffffffffffffffffffffffffffffffff1673ffffffffffffffffffffffffffffffffffffffff16815260200190815260200160002060009054906101000a900460ff16905092915050565b6000801b81565b60008067ffffffffffffffff8111156111d0576111cf61348d565b5b6040519080825280601f01601f1916602001820160405280156112025781602001600182028036833780820191505090505b509050604051806060016040528082815260200183815260200184600381111561122f5761122e613333565b5b815250600c60003373ffffffffffffffffffffffffffffffffffffffff1673ffffffffffffffffffffffffffffffffffffffff16815260200190815260200160002060008201518160000190816112869190613eb3565b506020820151816001015560408201518160020160006101000a81548160ff021916908360038111156112bc576112bb613333565b5b0217905550905050505050565b6000600f54905090565b60008060038111156112e8576112e7613333565b5b600c60008473ffffffffffffffffffffffffffffffffffffffff1673ffffffffffffffffffffffffffffffffffffffff16815260200190815260200160002060020160009054906101000a900460ff16600381111561134a57611349613333565b5b14806113c957506001600381111561136557611364613333565b5b600c60008473ffffffffffffffffffffffffffffffffffffffff1673ffffffffffffffffffffffffffffffffffffffff16815260200190815260200160002060020160009054906101000a900460ff1660038111156113c7576113c6613333565b5b145b8061144657506003808111156113e2576113e1613333565b5b600c60008473ffffffffffffffffffffffffffffffffffffffff1673ffffffffffffffffffffffffffffffffffffffff16815260200190815260200160002060020160009054906101000a900460ff16600381111561144457611443613333565b5b145b1561145457600090506114dd565b6002600381111561146857611467613333565b5b600c60008473ffffffffffffffffffffffffffffffffffffffff1673ffffffffffffffffffffffffffffffffffffffff16815260200190815260200160002060020160009054906101000a900460ff1660038111156114ca576114c9613333565b5b036114d857600190506114dd565b600090505b919050565b816005600082815260200190815260200160002060009054906101000a900473ffffffffffffffffffffffffffffffffffffffff1673ffffffffffffffffffffffffffffffffffffffff163373ffffffffffffffffffffffffffffffffffffffff1614611584576040517f08c379a000000000000000000000000000000000000000000000000000000000815260040161157b90613ff7565b60405180910390fd5b6005600082815260200190815260200160002060006101000a81549073ffffffffffffffffffffffffffffffffffffffff0219169055807f7cc135e0cebb02c3480ae5d74d377283180a2601f8f644edf7987b009316c63a60405160405180910390a260006040518060400160405280600481526020017f74727565000000000000000000000000000000000000000000000000000000008152508051906020012083805190602001200361163c5760029050611641565b600390505b80600c6000600a600088815260200190815260200160002060009054906101000a900473ffffffffffffffffffffffffffffffffffffffff1673ffffffffffffffffffffffffffffffffffffffff1673ffffffffffffffffffffffffffffffffffffffff16815260200190815260200160002060020160006101000a81548160ff021916908360038111156116d9576116d8613333565b5b021790555083600a600086815260200190815260200160002060009054906101000a900473ffffffffffffffffffffffffffffffffffffffff1673ffffffffffffffffffffffffffffffffffffffff167f5a2b7011e33ca280649ab25a0caf375babbad754f847e6a1364d7133a46282c8856040516117589190613311565b60405180910390a350505050565b600061177061227b565b905090565b6000601054905090565b611788826108df565b6117918161209c565b61179b8383612199565b505050565b6117a8611f5f565b6117d27f0ce23c3e399818cfee81a7ab0880f714e53d7672b08df0fa62f2843416e1ea0933611142565b611808576040517f75ceeec000000000000000000000000000000000000000000000000000000000815260040160405180910390fd5b600080600c60008873ffffffffffffffffffffffffffffffffffffffff1673ffffffffffffffffffffffffffffffffffffffff168152602001908152602001600020604051806060016040529081600082018054611865906137f4565b80601f0160208091040260200160405190810160405280929190818152602001828054611891906137f4565b80156118de5780601f106118b3576101008083540402835291602001916118de565b820191906000526020600020905b8154815290600101906020018083116118c157829003601f168201915b50505050508152602001600182015481526020016002820160009054906101000a900460ff16600381111561191657611915613333565b5b600381111561192857611927613333565b5b8152505090506001600381111561194257611941613333565b5b8160400151600381111561195957611958613333565b5b0361199b57866040517f1e802a090000000000000000000000000000000000000000000000000000000081526004016119929190613140565b60405180910390fd5b600260038111156119af576119ae613333565b5b816040015160038111156119c6576119c5613333565b5b03611a0857866040517f6853b7d70000000000000000000000000000000000000000000000000000000081526004016119ff9190613140565b60405180910390fd5b600380811115611a1b57611a1a613333565b5b81604001516003811115611a3257611a31613333565b5b148015611a43575060038160200151115b15611a8557866040517f9a5576a6000000000000000000000000000000000000000000000000000000008152600401611a7c9190613140565b60405180910390fd5b600380811115611a9857611a97613333565b5b81604001516003811115611aaf57611aae613333565b5b03611ac3578180611abf90614017565b9250505b6000611ad9600f543063b6a9a38a60e01b6122a5565b9050600e60009054906101000a900473ffffffffffffffffffffffffffffffffffffffff1673ffffffffffffffffffffffffffffffffffffffff166338bcdc1c6040518163ffffffff1660e01b8152600401600060405180830381865afa158015611b48573d6000803e3d6000fd5b505050506040513d6000823e3d601f19601f82011682018060405250810190611b719190613895565b60119081611b7f9190613d35565b50611c076040518060400160405280600381526020017f67657400000000000000000000000000000000000000000000000000000000008152506011600b6000600181526020019081526020016000208a8a8a8a604051602001611be896959493929190614084565b604051602081830303815290604052836122d69092919063ffffffff16565b611c866040518060400160405280600481526020017f70617468000000000000000000000000000000000000000000000000000000008152506040518060400160405280601381526020017f7665726669636174696f6e526573706f6e736500000000000000000000000000815250836122d69092919063ffffffff16565b6000611c9482601054612309565b905088600a600083815260200190815260200160002060006101000a81548173ffffffffffffffffffffffffffffffffffffffff021916908373ffffffffffffffffffffffffffffffffffffffff160217905550604051806060016040528089898080601f016020809104026020016040519081016040528093929190818152602001838380828437600081840152601f19601f82011690508083019250505050505050815260200185815260200160016003811115611d5757611d56613333565b5b815250600c60008b73ffffffffffffffffffffffffffffffffffffffff1673ffffffffffffffffffffffffffffffffffffffff1681526020019081526020016000206000820151816000019081611dae9190613eb3565b506020820151816001015560408201518160020160006101000a81548160ff02191690836003811115611de457611de3613333565b5b02179055509050508787604051611dfc9291906140dc565b60405180910390207f543080fe0ccea351187b8d00acb2fa317d220c33c2b6ec61e904a04a88994122828b604051611e359291906140f5565b60405180910390a250505050611e49611fae565b5050505050565b611e58611fb8565b611e6181612340565b50565b611e6c611fb8565b611e74611f5f565b611e7d8161246e565b8073ffffffffffffffffffffffffffffffffffffffff167f3745ccb9c8a1c1c446e2297df7c98c09eafc0c0111d351e79b3b280ea646d9e660405160405180910390a2611ec8611fae565b50565b60007f01ffc9a7000000000000000000000000000000000000000000000000000000007bffffffffffffffffffffffffffffffffffffffffffffffffffffffff1916827bffffffffffffffffffffffffffffffffffffffffffffffffffffffff1916149050919050565b6000600260009054906101000a900473ffffffffffffffffffffffffffffffffffffffff16905090565b600260095403611fa4576040517f08c379a0000000000000000000000000000000000000000000000000000000008152600401611f9b9061416a565b60405180910390fd5b6002600981905550565b6001600981905550565b600660009054906101000a900473ffffffffffffffffffffffffffffffffffffffff1673ffffffffffffffffffffffffffffffffffffffff163373ffffffffffffffffffffffffffffffffffffffff1614612048576040517f08c379a000000000000000000000000000000000000000000000000000000000815260040161203f906141d6565b60405180910390fd5b565b80600260006101000a81548173ffffffffffffffffffffffffffffffffffffffff021916908373ffffffffffffffffffffffffffffffffffffffff16021790555050565b61209882826120b0565b5050565b6120ad816120a8612191565b6124b2565b50565b6120ba8282611142565b61218d5760016008600084815260200190815260200160002060000160008373ffffffffffffffffffffffffffffffffffffffff1673ffffffffffffffffffffffffffffffffffffffff16815260200190815260200160002060006101000a81548160ff021916908315150217905550612132612191565b73ffffffffffffffffffffffffffffffffffffffff168173ffffffffffffffffffffffffffffffffffffffff16837f2f8788117e7eff1d82e926ec794901d17c78024a50270940304540a733656f0d60405160405180910390a45b5050565b600033905090565b6121a38282611142565b156122775760006008600084815260200190815260200160002060000160008373ffffffffffffffffffffffffffffffffffffffff1673ffffffffffffffffffffffffffffffffffffffff16815260200190815260200160002060006101000a81548160ff02191690831515021790555061221c612191565b73ffffffffffffffffffffffffffffffffffffffff168173ffffffffffffffffffffffffffffffffffffffff16837ff6391f5c32d9c69d2a47ea670b442974b53935d1edc7fd64eb21e047a839171b60405160405180910390a45b5050565b6000600360009054906101000a900473ffffffffffffffffffffffffffffffffffffffff16905090565b6122ad612f3c565b6122b5612f3c565b6122cc85858584612537909392919063ffffffff16565b9150509392505050565b6122ed8284608001516125e790919063ffffffff16565b6123048184608001516125e790919063ffffffff16565b505050565b6000612338600360009054906101000a900473ffffffffffffffffffffffffffffffffffffffff16848461260c565b905092915050565b3373ffffffffffffffffffffffffffffffffffffffff168173ffffffffffffffffffffffffffffffffffffffff16036123ae576040517f08c379a00000000000000000000000000000000000000000000000000000000081526004016123a590614242565b60405180910390fd5b80600760006101000a81548173ffffffffffffffffffffffffffffffffffffffff021916908373ffffffffffffffffffffffffffffffffffffffff1602179055508073ffffffffffffffffffffffffffffffffffffffff16600660009054906101000a900473ffffffffffffffffffffffffffffffffffffffff1673ffffffffffffffffffffffffffffffffffffffff167fed8889f560326eb138920d842192f0eb3dd22b4f139c87a2c57538e05bae127860405160405180910390a350565b80600360006101000a81548173ffffffffffffffffffffffffffffffffffffffff021916908373ffffffffffffffffffffffffffffffffffffffff16021790555050565b6124bc8282611142565b612533576124c9816126d8565b6124d78360001c6020612705565b6040516020016124e89291906142fa565b6040516020818303038152906040526040517f08c379a000000000000000000000000000000000000000000000000000000000815260040161252a9190613311565b60405180910390fd5b5050565b61253f612f3c565b61254f8560800151610100612941565b508385600001818152505082856020019073ffffffffffffffffffffffffffffffffffffffff16908173ffffffffffffffffffffffffffffffffffffffff16815250508185604001907bffffffffffffffffffffffffffffffffffffffffffffffffffffffff191690817bffffffffffffffffffffffffffffffffffffffffffffffffffffffff191681525050849050949350505050565b6125f482600383516129ab565b6126078183612b3090919063ffffffff16565b505050565b60008060045490506001816126219190612ffc565b6004819055506000634042994660e01b60008087600001513089604001518760018c608001516000015160405160240161266298979695949392919061438d565b604051602081830303815290604052907bffffffffffffffffffffffffffffffffffffffffffffffffffffffff19166020820180517bffffffffffffffffffffffffffffffffffffffffffffffffffffffff838183161783525050505090506126cd86838684612b52565b925050509392505050565b60606126fe8273ffffffffffffffffffffffffffffffffffffffff16601460ff16612705565b9050919050565b6060600060028360026127189190614412565b6127229190612ffc565b67ffffffffffffffff81111561273b5761273a61348d565b5b6040519080825280601f01601f19166020018201604052801561276d5781602001600182028036833780820191505090505b5090507f3000000000000000000000000000000000000000000000000000000000000000816000815181106127a5576127a4614454565b5b60200101907effffffffffffffffffffffffffffffffffffffffffffffffffffffffffffff1916908160001a9053507f78000000000000000000000000000000000000000000000000000000000000008160018151811061280957612808614454565b5b60200101907effffffffffffffffffffffffffffffffffffffffffffffffffffffffffffff1916908160001a905350600060018460026128499190614412565b6128539190612ffc565b90505b60018111156128f3577f3031323334353637383961626364656600000000000000000000000000000000600f86166010811061289557612894614454565b5b1a60f81b8282815181106128ac576128ab614454565b5b60200101907effffffffffffffffffffffffffffffffffffffffffffffffffffffffffffff1916908160001a905350600485901c9450806128ec90614483565b9050612856565b5060008414612937576040517f08c379a000000000000000000000000000000000000000000000000000000000815260040161292e906144f8565b60405180910390fd5b8091505092915050565b612949612fa9565b60006020836129589190614547565b146129845760208261296a9190614547565b60206129769190614578565b826129819190612ffc565b91505b81836020018181525050604051808452600081528281016020016040525082905092915050565b60178167ffffffffffffffff16116129e2576129dc8160058460ff16901b60ff161784612ce790919063ffffffff16565b50612b2b565b60ff8167ffffffffffffffff1611612a3857612a11601860058460ff16901b1784612ce790919063ffffffff16565b50612a328167ffffffffffffffff16600185612d079092919063ffffffff16565b50612b2a565b61ffff8167ffffffffffffffff1611612a8f57612a68601960058460ff16901b1784612ce790919063ffffffff16565b50612a898167ffffffffffffffff16600285612d079092919063ffffffff16565b50612b29565b63ffffffff8167ffffffffffffffff1611612ae857612ac1601a60058460ff16901b1784612ce790919063ffffffff16565b50612ae28167ffffffffffffffff16600485612d079092919063ffffffff16565b50612b28565b612b05601b60058460ff16901b1784612ce790919063ffffffff16565b50612b268167ffffffffffffffff16600885612d079092919063ffffffff16565b505b5b5b5b505050565b612b38612fa9565b612b4a83846000015151848551612d29565b905092915050565b60003084604051602001612b6792919061465b565b604051602081830303815290604052805190602001209050846005600083815260200190815260200160002060006101000a81548173ffffffffffffffffffffffffffffffffffffffff021916908373ffffffffffffffffffffffffffffffffffffffff160217905550807fb5e6e01e79f91267dc17b4e6314d5d4d03593d2ceee0fbb452b750bd70ea5af960405160405180910390a2600260009054906101000a900473ffffffffffffffffffffffffffffffffffffffff1673ffffffffffffffffffffffffffffffffffffffff16634000aea08685856040518463ffffffff1660e01b8152600401612c5d93929190614687565b6020604051808303816000875af1158015612c7c573d6000803e3d6000fd5b505050506040513d601f19601f82011682018060405250810190612ca091906146f1565b612cdf576040517f08c379a0000000000000000000000000000000000000000000000000000000008152600401612cd690614790565b60405180910390fd5b949350505050565b612cef612fa9565b612cff8384600001515184612e18565b905092915050565b612d0f612fa9565b612d20848560000151518585612e6e565b90509392505050565b612d31612fa9565b8251821115612d3f57600080fd5b84602001518285612d509190612ffc565b1115612d8557612d84856002612d7588602001518887612d709190612ffc565b612efc565b612d7f9190614412565b612f18565b5b600080865180518760208301019350808887011115612da45787860182525b60208701925050505b60208410612deb5780518252602082612dc69190612ffc565b9150602081612dd59190612ffc565b9050602084612de49190614578565b9350612dad565b60006001856020036101000a03905080198251168184511681811785525050508692505050949350505050565b612e20612fa9565b83602001518310612e4657612e458460028660200151612e409190614412565b612f18565b5b83518051602085830101848153818603612e61576001820183525b5050508390509392505050565b612e76612fa9565b84602001518483612e879190612ffc565b1115612eaf57612eae8560028685612e9f9190612ffc565b612ea99190614412565b612f18565b5b6000600183610100612ec191906148e3565b612ecb9190614578565b90508551838682010185831982511617815281518588011115612eee5784870182525b505085915050949350505050565b600081831115612f0e57829050612f12565b8190505b92915050565b600082600001519050612f2b8383612941565b50612f368382612b30565b50505050565b6040518060a0016040528060008019168152602001600073ffffffffffffffffffffffffffffffffffffffff16815260200160007bffffffffffffffffffffffffffffffffffffffffffffffffffffffff1916815260200160008152602001612fa3612fa9565b81525090565b604051806040016040528060608152602001600081525090565b6000819050919050565b7f4e487b7100000000000000000000000000000000000000000000000000000000600052601160045260246000fd5b600061300782612fc3565b915061301283612fc3565b925082820190508082111561302a57613029612fcd565b5b92915050565b6000604051905090565b600080fd5b600080fd5b60007fffffffff0000000000000000000000000000000000000000000000000000000082169050919050565b61307981613044565b811461308457600080fd5b50565b60008135905061309681613070565b92915050565b6000602082840312156130b2576130b161303a565b5b60006130c084828501613087565b91505092915050565b60008115159050919050565b6130de816130c9565b82525050565b60006020820190506130f960008301846130d5565b92915050565b600073ffffffffffffffffffffffffffffffffffffffff82169050919050565b600061312a826130ff565b9050919050565b61313a8161311f565b82525050565b60006020820190506131556000830184613131565b92915050565b6131648161311f565b811461316f57600080fd5b50565b6000813590506131818161315b565b92915050565b60006020828403121561319d5761319c61303a565b5b60006131ab84828501613172565b91505092915050565b6000819050919050565b6131c7816131b4565b81146131d257600080fd5b50565b6000813590506131e4816131be565b92915050565b600060208284031215613200576131ff61303a565b5b600061320e848285016131d5565b91505092915050565b613220816131b4565b82525050565b600060208201905061323b6000830184613217565b92915050565b600080604083850312156132585761325761303a565b5b6000613266858286016131d5565b925050602061327785828601613172565b9150509250929050565b600081519050919050565b600082825260208201905092915050565b60005b838110156132bb5780820151818401526020810190506132a0565b60008484015250505050565b6000601f19601f8301169050919050565b60006132e382613281565b6132ed818561328c565b93506132fd81856020860161329d565b613306816132c7565b840191505092915050565b6000602082019050818103600083015261332b81846132d8565b905092915050565b7f4e487b7100000000000000000000000000000000000000000000000000000000600052602160045260246000fd5b6004811061337357613372613333565b5b50565b600081905061338482613362565b919050565b600061339482613376565b9050919050565b6133a481613389565b82525050565b60006020820190506133bf600083018461339b565b92915050565b6133ce81612fc3565b81146133d957600080fd5b50565b6000813590506133eb816133c5565b92915050565b6000602082840312156134075761340661303a565b5b6000613415848285016133dc565b91505092915050565b6004811061342b57600080fd5b50565b60008135905061343d8161341e565b92915050565b6000806040838503121561345a5761345961303a565b5b60006134688582860161342e565b9250506020613479858286016133dc565b9150509250929050565b600080fd5b600080fd5b7f4e487b7100000000000000000000000000000000000000000000000000000000600052604160045260246000fd5b6134c5826132c7565b810181811067ffffffffffffffff821117156134e4576134e361348d565b5b80604052505050565b60006134f7613030565b905061350382826134bc565b919050565b600067ffffffffffffffff8211156135235761352261348d565b5b61352c826132c7565b9050602081019050919050565b82818337600083830152505050565b600061355b61355684613508565b6134ed565b90508281526020810184848401111561357757613576613488565b5b613582848285613539565b509392505050565b600082601f83011261359f5761359e613483565b5b81356135af848260208601613548565b91505092915050565b600080604083850312156135cf576135ce61303a565b5b60006135dd858286016131d5565b925050602083013567ffffffffffffffff8111156135fe576135fd61303f565b5b61360a8582860161358a565b9150509250929050565b61361d81612fc3565b82525050565b60006020820190506136386000830184613614565b92915050565b600080fd5b600080fd5b60008083601f84011261365e5761365d613483565b5b8235905067ffffffffffffffff81111561367b5761367a61363e565b5b60208301915083600182028301111561369757613696613643565b5b9250929050565b6000806000806000606086880312156136ba576136b961303a565b5b60006136c888828901613172565b955050602086013567ffffffffffffffff8111156136e9576136e861303f565b5b6136f588828901613648565b9450945050604086013567ffffffffffffffff8111156137185761371761303f565b5b61372488828901613648565b92509250509295509295909350565b7f416363657373436f6e74726f6c3a2063616e206f6e6c792072656e6f756e636560008201527f20726f6c657320666f722073656c660000000000000000000000000000000000602082015250565b600061378f602f8361328c565b915061379a82613733565b604082019050919050565b600060208201905081810360008301526137be81613782565b9050919050565b7f4e487b7100000000000000000000000000000000000000000000000000000000600052602260045260246000fd5b6000600282049050600182168061380c57607f821691505b60208210810361381f5761381e6137c5565b5b50919050565b600061383861383384613508565b6134ed565b90508281526020810184848401111561385457613853613488565b5b61385f84828561329d565b509392505050565b600082601f83011261387c5761387b613483565b5b815161388c848260208601613825565b91505092915050565b6000602082840312156138ab576138aa61303a565b5b600082015167ffffffffffffffff8111156138c9576138c861303f565b5b6138d584828501613867565b91505092915050565b600081905092915050565b60006138f482613281565b6138fe81856138de565b935061390e81856020860161329d565b80840191505092915050565b60008190508160005260206000209050919050565b6000815461393c816137f4565b61394681866138de565b945060018216600081146139615760018114613976576139a9565b60ff19831686528115158202860193506139a9565b61397f8561391a565b60005b838110156139a157815481890152600182019150602081019050613982565b838801955050505b50505092915050565b7f3f7573657249643d000000000000000000000000000000000000000000000000600082015250565b60006139e86008836138de565b91506139f3826139b2565b600882019050919050565b7f7465737400000000000000000000000000000000000000000000000000000000600082015250565b6000613a346004836138de565b9150613a3f826139fe565b600482019050919050565b7f2666696e6765725072696e743d00000000000000000000000000000000000000600082015250565b6000613a80600d836138de565b9150613a8b82613a4a565b600d82019050919050565b7f66696e6765725072696e74000000000000000000000000000000000000000000600082015250565b6000613acc600b836138de565b9150613ad782613a96565b600b82019050919050565b6000613aee82856138e9565b9150613afa828461392f565b9150613b05826139db565b9150613b1082613a27565b9150613b1b82613a73565b9150613b2682613abf565b91508190509392505050565b7f4d7573742062652070726f706f736564206f776e657200000000000000000000600082015250565b6000613b6860168361328c565b9150613b7382613b32565b602082019050919050565b60006020820190508181036000830152613b9781613b5b565b9050919050565b60006020601f8301049050919050565b600082821b905092915050565b600060088302613beb7fffffffffffffffffffffffffffffffffffffffffffffffffffffffffffffffff82613bae565b613bf58683613bae565b95508019841693508086168417925050509392505050565b6000819050919050565b6000613c32613c2d613c2884612fc3565b613c0d565b612fc3565b9050919050565b6000819050919050565b613c4c83613c17565b613c60613c5882613c39565b848454613bbb565b825550505050565b600090565b613c75613c68565b613c80818484613c43565b505050565b5b81811015613ca457613c99600082613c6d565b600181019050613c86565b5050565b601f821115613ce957613cba8161391a565b613cc384613b9e565b81016020851015613cd2578190505b613ce6613cde85613b9e565b830182613c85565b50505b505050565b600082821c905092915050565b6000613d0c60001984600802613cee565b1980831691505092915050565b6000613d258383613cfb565b9150826002028217905092915050565b613d3e82613281565b67ffffffffffffffff811115613d5757613d5661348d565b5b613d6182546137f4565b613d6c828285613ca8565b600060209050601f831160018114613d9f5760008415613d8d578287015190505b613d978582613d19565b865550613dff565b601f198416613dad8661391a565b60005b82811015613dd557848901518255600182019150602085019450602081019050613db0565b86831015613df25784890151613dee601f891682613cfb565b8355505b6001600288020188555050505b505050505050565b600081905092915050565b50565b6000613e22600083613e07565b9150613e2d82613e12565b600082019050919050565b6000613e4382613e15565b9150819050919050565b600081519050919050565b60008190508160005260206000209050919050565b601f821115613eae57613e7f81613e58565b613e8884613b9e565b81016020851015613e97578190505b613eab613ea385613b9e565b830182613c85565b50505b505050565b613ebc82613e4d565b67ffffffffffffffff811115613ed557613ed461348d565b5b613edf82546137f4565b613eea828285613e6d565b600060209050601f831160018114613f1d5760008415613f0b578287015190505b613f158582613d19565b865550613f7d565b601f198416613f2b86613e58565b60005b82811015613f5357848901518255600182019150602085019450602081019050613f2e565b86831015613f705784890151613f6c601f891682613cfb565b8355505b6001600288020188555050505b505050505050565b7f536f75726365206d75737420626520746865206f7261636c65206f662074686560008201527f2072657175657374000000000000000000000000000000000000000000000000602082015250565b6000613fe160288361328c565b9150613fec82613f85565b604082019050919050565b6000602082019050818103600083015261401081613fd4565b9050919050565b600061402282612fc3565b91507fffffffffffffffffffffffffffffffffffffffffffffffffffffffffffffffff820361405457614053612fcd565b5b600182019050919050565b600061406b8385613e07565b9350614078838584613539565b82840190509392505050565b6000614090828961392f565b915061409c828861392f565b91506140a7826139db565b91506140b482868861405f565b91506140bf82613a73565b91506140cc82848661405f565b9150819050979650505050505050565b60006140e982848661405f565b91508190509392505050565b600060408201905061410a6000830185613217565b6141176020830184613131565b9392505050565b7f5265656e7472616e637947756172643a207265656e7472616e742063616c6c00600082015250565b6000614154601f8361328c565b915061415f8261411e565b602082019050919050565b6000602082019050818103600083015261418381614147565b9050919050565b7f4f6e6c792063616c6c61626c65206279206f776e657200000000000000000000600082015250565b60006141c060168361328c565b91506141cb8261418a565b602082019050919050565b600060208201905081810360008301526141ef816141b3565b9050919050565b7f43616e6e6f74207472616e7366657220746f2073656c66000000000000000000600082015250565b600061422c60178361328c565b9150614237826141f6565b602082019050919050565b6000602082019050818103600083015261425b8161421f565b9050919050565b7f416363657373436f6e74726f6c3a206163636f756e7420000000000000000000600082015250565b60006142986017836138de565b91506142a382614262565b601782019050919050565b7f206973206d697373696e6720726f6c6520000000000000000000000000000000600082015250565b60006142e46011836138de565b91506142ef826142ae565b601182019050919050565b60006143058261428b565b915061431182856138e9565b915061431c826142d7565b915061432882846138e9565b91508190509392505050565b61433d81613044565b82525050565b600082825260208201905092915050565b600061435f82613e4d565b6143698185614343565b935061437981856020860161329d565b614382816132c7565b840191505092915050565b6000610100820190506143a3600083018b613131565b6143b0602083018a613614565b6143bd6040830189613217565b6143ca6060830188613131565b6143d76080830187614334565b6143e460a0830186613614565b6143f160c0830185613614565b81810360e08301526144038184614354565b90509998505050505050505050565b600061441d82612fc3565b915061442883612fc3565b925082820261443681612fc3565b9150828204841483151761444d5761444c612fcd565b5b5092915050565b7f4e487b7100000000000000000000000000000000000000000000000000000000600052603260045260246000fd5b600061448e82612fc3565b9150600082036144a1576144a0612fcd565b5b600182039050919050565b7f537472696e67733a20686578206c656e67746820696e73756666696369656e74600082015250565b60006144e260208361328c565b91506144ed826144ac565b602082019050919050565b60006020820190508181036000830152614511816144d5565b9050919050565b7f4e487b7100000000000000000000000000000000000000000000000000000000600052601260045260246000fd5b600061455282612fc3565b915061455d83612fc3565b92508261456d5761456c614518565b5b828206905092915050565b600061458382612fc3565b915061458e83612fc3565b92508282039050818111156145a6576145a5612fcd565b5b92915050565b60006145c76145c26145bd846130ff565b613c0d565b6130ff565b9050919050565b60006145d9826145ac565b9050919050565b60006145eb826145ce565b9050919050565b60008160601b9050919050565b600061460a826145f2565b9050919050565b600061461c826145ff565b9050919050565b61463461462f826145e0565b614611565b82525050565b6000819050919050565b61465561465082612fc3565b61463a565b82525050565b60006146678285614623565b6014820191506146778284614644565b6020820191508190509392505050565b600060608201905061469c6000830186613131565b6146a96020830185613614565b81810360408301526146bb8184614354565b9050949350505050565b6146ce816130c9565b81146146d957600080fd5b50565b6000815190506146eb816146c5565b92915050565b6000602082840312156147075761470661303a565b5b6000614715848285016146dc565b91505092915050565b7f756e61626c6520746f207472616e73666572416e6443616c6c20746f206f726160008201527f636c650000000000000000000000000000000000000000000000000000000000602082015250565b600061477a60238361328c565b91506147858261471e565b604082019050919050565b600060208201905081810360008301526147a98161476d565b9050919050565b60008160011c9050919050565b6000808291508390505b6001851115614807578086048111156147e3576147e2612fcd565b5b60018516156147f25780820291505b8081029050614800856147b0565b94506147c7565b94509492505050565b60008261482057600190506148dc565b8161482e57600090506148dc565b8160018114614844576002811461484e5761487d565b60019150506148dc565b60ff8411156148605761485f612fcd565b5b8360020a91508482111561487757614876612fcd565b5b506148dc565b5060208310610133831016604e8410600b84101617156148b25782820a9050838111156148ad576148ac612fcd565b5b6148dc565b6148bf84848460016147bd565b925090508184048111156148d6576148d5612fcd565b5b81810290505b9392505050565b60006148ee82612fc3565b91506148f983612fc3565b92506149267fffffffffffffffffffffffffffffffffffffffffffffffffffffffffffffffff8484614810565b90509291505056fea2646970667358221220fa7928c341e42b775b6cf707fb4024aeeb0ceecc7a1a797e878d678efe72b82f64736f6c63430008110033",
  "devdoc": {
    "kind": "dev",
    "methods": {
      "fulfillMultipleParameters(bytes32,string)": {
        "details": "This is called by the oracle. recordChainlinkFulfillment must be used."
      },
      "getRoleAdmin(bytes32)": {
        "details": "Returns the admin role that controls `role`. See {grantRole} and {revokeRole}. To change a role's admin, use {_setRoleAdmin}."
      },
      "grantRole(bytes32,address)": {
        "details": "Grants `role` to `account`. If `account` had not been already granted `role`, emits a {RoleGranted} event. Requirements: - the caller must have ``role``'s admin role. May emit a {RoleGranted} event."
      },
      "hasRole(bytes32,address)": {
        "details": "Returns `true` if `account` has been granted `role`."
      },
      "renounceRole(bytes32,address)": {
        "details": "Revokes `role` from the calling account. Roles are often managed via {grantRole} and {revokeRole}: this function's purpose is to provide a mechanism for accounts to lose their privileges if they are compromised (such as when a trusted device is misplaced). If the calling account had been revoked `role`, emits a {RoleRevoked} event. Requirements: - the caller must be `account`. May emit a {RoleRevoked} event."
      },
      "revokeRole(bytes32,address)": {
        "details": "Revokes `role` from `account`. If `account` had been granted `role`, emits a {RoleRevoked} event. Requirements: - the caller must have ``role``'s admin role. May emit a {RoleRevoked} event."
      },
      "supportsInterface(bytes4)": {
        "details": "See {IERC165-supportsInterface}."
      }
    },
    "version": 1
  },
  "userdoc": {
    "kind": "user",
    "methods": {
      "acceptOwnership()": {
        "notice": "Allows an ownership transfer to be completed by the recipient."
      },
      "constructor": {
        "notice": "Initialize the link token and target oracle Goerli Testnet details: Link Token: 0x326C977E6efc84E512bB9C30f76E30c160eD06FB Oracle: 0xCC79157eb46F5624204f47AB42b3906cAA40eaB7 (Chainlink DevRel) jobId: 0x3764383061363338366566353433613361626235323831376636373037653362   _Fee 100000000000000000 _oP 0x04B0601D72dAEEA5D88D5d3B3495854FEe6cCf36"
      },
      "fulfillMultipleParameters(bytes32,string)": {
        "notice": "Fulfillment function for multiple parameters in a single request"
      },
      "owner()": {
        "notice": "Get the current owner"
      },
      "transferOwnership(address)": {
        "notice": "Allows an owner to begin transferring ownership to a new address, pending."
      },
      "verifyFingerPrint(address,bytes,bytes)": {
        "notice": "Create a Chainlink request to retrieve API response, find the target data, then multiply by 1000000000000000000 (to remove decimal places from data)."
      },
      "withdrawLink()": {
        "notice": "this allow Buyer whose offer is expire or over by other buyer ."
      }
    },
    "notice": "THIS IS AN EXAMPLE CONTRACT WHICH USES HARDCODED VALUES FOR CLARITY. THIS EXAMPLE USES UN-AUDITED CODE. DO NOT USE THIS CODE IN PRODUCTION.",
    "version": 1
  },
  "storageLayout": {
    "storage": [
      {
        "astId": 319,
        "contract": "contracts/core/FigurePrintOracle.sol:FigurePrintOracle",
        "label": "s_ens",
        "offset": 0,
        "slot": "0",
        "type": "t_contract(ENSInterface)1156"
      },
      {
        "astId": 321,
        "contract": "contracts/core/FigurePrintOracle.sol:FigurePrintOracle",
        "label": "s_ensNode",
        "offset": 0,
        "slot": "1",
        "type": "t_bytes32"
      },
      {
        "astId": 324,
        "contract": "contracts/core/FigurePrintOracle.sol:FigurePrintOracle",
        "label": "s_link",
        "offset": 0,
        "slot": "2",
        "type": "t_contract(LinkTokenInterface)1251"
      },
      {
        "astId": 327,
        "contract": "contracts/core/FigurePrintOracle.sol:FigurePrintOracle",
        "label": "s_oracle",
        "offset": 0,
        "slot": "3",
        "type": "t_contract(OperatorInterface)1331"
      },
      {
        "astId": 330,
        "contract": "contracts/core/FigurePrintOracle.sol:FigurePrintOracle",
        "label": "s_requestCount",
        "offset": 0,
        "slot": "4",
        "type": "t_uint256"
      },
      {
        "astId": 334,
        "contract": "contracts/core/FigurePrintOracle.sol:FigurePrintOracle",
        "label": "s_pendingRequests",
        "offset": 0,
        "slot": "5",
        "type": "t_mapping(t_bytes32,t_address)"
      },
      {
        "astId": 889,
        "contract": "contracts/core/FigurePrintOracle.sol:FigurePrintOracle",
        "label": "s_owner",
        "offset": 0,
        "slot": "6",
        "type": "t_address"
      },
      {
        "astId": 891,
        "contract": "contracts/core/FigurePrintOracle.sol:FigurePrintOracle",
        "label": "s_pendingOwner",
        "offset": 0,
        "slot": "7",
        "type": "t_address"
      },
      {
        "astId": 2398,
        "contract": "contracts/core/FigurePrintOracle.sol:FigurePrintOracle",
        "label": "_roles",
        "offset": 0,
        "slot": "8",
        "type": "t_mapping(t_bytes32,t_struct(RoleData)2393_storage)"
      },
      {
        "astId": 3418,
        "contract": "contracts/core/FigurePrintOracle.sol:FigurePrintOracle",
        "label": "_status",
        "offset": 0,
        "slot": "9",
        "type": "t_uint256"
      },
      {
        "astId": 10821,
        "contract": "contracts/core/FigurePrintOracle.sol:FigurePrintOracle",
        "label": "userVerficationRequest",
        "offset": 0,
        "slot": "10",
        "type": "t_mapping(t_bytes32,t_address)"
      },
      {
        "astId": 10825,
        "contract": "contracts/core/FigurePrintOracle.sol:FigurePrintOracle",
        "label": "apis",
        "offset": 0,
        "slot": "11",
        "type": "t_mapping(t_uint256,t_string_storage)"
      },
      {
        "astId": 10830,
        "contract": "contracts/core/FigurePrintOracle.sol:FigurePrintOracle",
        "label": "userVerficationRecord",
        "offset": 0,
        "slot": "12",
        "type": "t_mapping(t_address,t_struct(VerifcaitonRecord)12345_storage)"
      },
      {
        "astId": 10834,
        "contract": "contracts/core/FigurePrintOracle.sol:FigurePrintOracle",
        "label": "amounts",
        "offset": 0,
        "slot": "13",
        "type": "t_mapping(t_address,t_uint256)"
      },
      {
        "astId": 10837,
        "contract": "contracts/core/FigurePrintOracle.sol:FigurePrintOracle",
        "label": "orcaleUrlProvider",
        "offset": 0,
        "slot": "14",
        "type": "t_contract(OrcaleUrlProvider)11521"
      },
      {
        "astId": 10839,
        "contract": "contracts/core/FigurePrintOracle.sol:FigurePrintOracle",
        "label": "jobId",
        "offset": 0,
        "slot": "15",
        "type": "t_bytes32"
      },
      {
        "astId": 10841,
        "contract": "contracts/core/FigurePrintOracle.sol:FigurePrintOracle",
        "label": "fee",
        "offset": 0,
        "slot": "16",
        "type": "t_uint256"
      },
      {
        "astId": 10843,
        "contract": "contracts/core/FigurePrintOracle.sol:FigurePrintOracle",
        "label": "baseUrl",
        "offset": 0,
        "slot": "17",
        "type": "t_string_storage"
      }
    ],
    "types": {
      "t_address": {
        "encoding": "inplace",
        "label": "address",
        "numberOfBytes": "20"
      },
      "t_bool": {
        "encoding": "inplace",
        "label": "bool",
        "numberOfBytes": "1"
      },
      "t_bytes32": {
        "encoding": "inplace",
        "label": "bytes32",
        "numberOfBytes": "32"
      },
      "t_bytes_storage": {
        "encoding": "bytes",
        "label": "bytes",
        "numberOfBytes": "32"
      },
      "t_contract(ENSInterface)1156": {
        "encoding": "inplace",
        "label": "contract ENSInterface",
        "numberOfBytes": "20"
      },
      "t_contract(LinkTokenInterface)1251": {
        "encoding": "inplace",
        "label": "contract LinkTokenInterface",
        "numberOfBytes": "20"
      },
      "t_contract(OperatorInterface)1331": {
        "encoding": "inplace",
        "label": "contract OperatorInterface",
        "numberOfBytes": "20"
      },
      "t_contract(OrcaleUrlProvider)11521": {
        "encoding": "inplace",
        "label": "contract OrcaleUrlProvider",
        "numberOfBytes": "20"
      },
      "t_enum(VerficationStatus)12350": {
        "encoding": "inplace",
        "label": "enum VerficationStatus",
        "numberOfBytes": "1"
      },
      "t_mapping(t_address,t_bool)": {
        "encoding": "mapping",
        "key": "t_address",
        "label": "mapping(address => bool)",
        "numberOfBytes": "32",
        "value": "t_bool"
      },
      "t_mapping(t_address,t_struct(VerifcaitonRecord)12345_storage)": {
        "encoding": "mapping",
        "key": "t_address",
        "label": "mapping(address => struct VerifcaitonRecord)",
        "numberOfBytes": "32",
        "value": "t_struct(VerifcaitonRecord)12345_storage"
      },
      "t_mapping(t_address,t_uint256)": {
        "encoding": "mapping",
        "key": "t_address",
        "label": "mapping(address => uint256)",
        "numberOfBytes": "32",
        "value": "t_uint256"
      },
      "t_mapping(t_bytes32,t_address)": {
        "encoding": "mapping",
        "key": "t_bytes32",
        "label": "mapping(bytes32 => address)",
        "numberOfBytes": "32",
        "value": "t_address"
      },
      "t_mapping(t_bytes32,t_struct(RoleData)2393_storage)": {
        "encoding": "mapping",
        "key": "t_bytes32",
        "label": "mapping(bytes32 => struct AccessControl.RoleData)",
        "numberOfBytes": "32",
        "value": "t_struct(RoleData)2393_storage"
      },
      "t_mapping(t_uint256,t_string_storage)": {
        "encoding": "mapping",
        "key": "t_uint256",
        "label": "mapping(uint256 => string)",
        "numberOfBytes": "32",
        "value": "t_string_storage"
      },
      "t_string_storage": {
        "encoding": "bytes",
        "label": "string",
        "numberOfBytes": "32"
      },
      "t_struct(RoleData)2393_storage": {
        "encoding": "inplace",
        "label": "struct AccessControl.RoleData",
        "members": [
          {
            "astId": 2390,
            "contract": "contracts/core/FigurePrintOracle.sol:FigurePrintOracle",
            "label": "members",
            "offset": 0,
            "slot": "0",
            "type": "t_mapping(t_address,t_bool)"
          },
          {
            "astId": 2392,
            "contract": "contracts/core/FigurePrintOracle.sol:FigurePrintOracle",
            "label": "adminRole",
            "offset": 0,
            "slot": "1",
            "type": "t_bytes32"
          }
        ],
        "numberOfBytes": "64"
      },
      "t_struct(VerifcaitonRecord)12345_storage": {
        "encoding": "inplace",
        "label": "struct VerifcaitonRecord",
        "members": [
          {
            "astId": 12339,
            "contract": "contracts/core/FigurePrintOracle.sol:FigurePrintOracle",
            "label": "userId",
            "offset": 0,
            "slot": "0",
            "type": "t_bytes_storage"
          },
          {
            "astId": 12341,
            "contract": "contracts/core/FigurePrintOracle.sol:FigurePrintOracle",
            "label": "numberTries",
            "offset": 0,
            "slot": "1",
            "type": "t_uint256"
          },
          {
            "astId": 12344,
            "contract": "contracts/core/FigurePrintOracle.sol:FigurePrintOracle",
            "label": "status",
            "offset": 0,
            "slot": "2",
            "type": "t_enum(VerficationStatus)12350"
          }
        ],
        "numberOfBytes": "96"
      },
      "t_uint256": {
        "encoding": "inplace",
        "label": "uint256",
        "numberOfBytes": "32"
      }
    }
  }
}