{
  "address": "0x5FbDB2315678afecb367f032d93F642f64180aa3",
  "abi": [
    {
      "inputs": [],
      "stateMutability": "nonpayable",
      "type": "constructor"
    },
    {
      "anonymous": false,
      "inputs": [
        {
          "indexed": true,
          "internalType": "address",
          "name": "owner",
          "type": "address"
        },
        {
          "indexed": true,
          "internalType": "address",
          "name": "approved",
          "type": "address"
        },
        {
          "indexed": true,
          "internalType": "uint256",
          "name": "tokenId",
          "type": "uint256"
        }
      ],
      "name": "Approval",
      "type": "event"
    },
    {
      "anonymous": false,
      "inputs": [
        {
          "indexed": true,
          "internalType": "address",
          "name": "owner",
          "type": "address"
        },
        {
          "indexed": true,
          "internalType": "address",
          "name": "operator",
          "type": "address"
        },
        {
          "indexed": false,
          "internalType": "bool",
          "name": "approved",
          "type": "bool"
        }
      ],
      "name": "ApprovalForAll",
      "type": "event"
    },
    {
      "anonymous": false,
      "inputs": [
        {
          "indexed": true,
          "internalType": "address",
          "name": "delegator",
          "type": "address"
        },
        {
          "indexed": true,
          "internalType": "address",
          "name": "fromDelegate",
          "type": "address"
        },
        {
          "indexed": true,
          "internalType": "address",
          "name": "toDelegate",
          "type": "address"
        }
      ],
      "name": "DelegateChanged",
      "type": "event"
    },
    {
      "anonymous": false,
      "inputs": [
        {
          "indexed": true,
          "internalType": "address",
          "name": "delegate",
          "type": "address"
        },
        {
          "indexed": false,
          "internalType": "uint256",
          "name": "previousBalance",
          "type": "uint256"
        },
        {
          "indexed": false,
          "internalType": "uint256",
          "name": "newBalance",
          "type": "uint256"
        }
      ],
      "name": "DelegateVotesChanged",
      "type": "event"
    },
    {
      "anonymous": false,
      "inputs": [
        {
          "indexed": true,
          "internalType": "address",
          "name": "from",
          "type": "address"
        },
        {
          "indexed": true,
          "internalType": "address",
          "name": "to",
          "type": "address"
        },
        {
          "indexed": true,
          "internalType": "uint256",
          "name": "tokenId",
          "type": "uint256"
        }
      ],
      "name": "Transfer",
      "type": "event"
    },
    {
      "inputs": [],
      "name": "DOMAIN_SEPARATOR",
      "outputs": [
        {
          "internalType": "bytes32",
          "name": "",
          "type": "bytes32"
        }
      ],
      "stateMutability": "view",
      "type": "function"
    },
    {
      "inputs": [
        {
          "internalType": "address",
          "name": "to",
          "type": "address"
        },
        {
          "internalType": "uint256",
          "name": "tokenId",
          "type": "uint256"
        }
      ],
      "name": "approve",
      "outputs": [],
      "stateMutability": "nonpayable",
      "type": "function"
    },
    {
      "inputs": [
        {
          "internalType": "address",
          "name": "owner",
          "type": "address"
        }
      ],
      "name": "balanceOf",
      "outputs": [
        {
          "internalType": "uint256",
          "name": "",
          "type": "uint256"
        }
      ],
      "stateMutability": "view",
      "type": "function"
    },
    {
      "inputs": [
        {
          "internalType": "address",
          "name": "delegatee",
          "type": "address"
        }
      ],
      "name": "delegate",
      "outputs": [],
      "stateMutability": "nonpayable",
      "type": "function"
    },
    {
      "inputs": [
        {
          "internalType": "address",
          "name": "delegatee",
          "type": "address"
        },
        {
          "internalType": "uint256",
          "name": "nonce",
          "type": "uint256"
        },
        {
          "internalType": "uint256",
          "name": "expiry",
          "type": "uint256"
        },
        {
          "internalType": "uint8",
          "name": "v",
          "type": "uint8"
        },
        {
          "internalType": "bytes32",
          "name": "r",
          "type": "bytes32"
        },
        {
          "internalType": "bytes32",
          "name": "s",
          "type": "bytes32"
        }
      ],
      "name": "delegateBySig",
      "outputs": [],
      "stateMutability": "nonpayable",
      "type": "function"
    },
    {
      "inputs": [
        {
          "internalType": "address",
          "name": "account",
          "type": "address"
        }
      ],
      "name": "delegates",
      "outputs": [
        {
          "internalType": "address",
          "name": "",
          "type": "address"
        }
      ],
      "stateMutability": "view",
      "type": "function"
    },
    {
      "inputs": [
        {
          "internalType": "uint256",
          "name": "tokenId",
          "type": "uint256"
        }
      ],
      "name": "getApproved",
      "outputs": [
        {
          "internalType": "address",
          "name": "",
          "type": "address"
        }
      ],
      "stateMutability": "view",
      "type": "function"
    },
    {
      "inputs": [
        {
          "internalType": "uint256",
          "name": "blockNumber",
          "type": "uint256"
        }
      ],
      "name": "getPastTotalSupply",
      "outputs": [
        {
          "internalType": "uint256",
          "name": "",
          "type": "uint256"
        }
      ],
      "stateMutability": "view",
      "type": "function"
    },
    {
      "inputs": [
        {
          "internalType": "address",
          "name": "account",
          "type": "address"
        },
        {
          "internalType": "uint256",
          "name": "blockNumber",
          "type": "uint256"
        }
      ],
      "name": "getPastVotes",
      "outputs": [
        {
          "internalType": "uint256",
          "name": "",
          "type": "uint256"
        }
      ],
      "stateMutability": "view",
      "type": "function"
    },
    {
      "inputs": [
        {
          "internalType": "address",
          "name": "account",
          "type": "address"
        }
      ],
      "name": "getVotes",
      "outputs": [
        {
          "internalType": "uint256",
          "name": "",
          "type": "uint256"
        }
      ],
      "stateMutability": "view",
      "type": "function"
    },
    {
      "inputs": [
        {
          "internalType": "address",
          "name": "owner",
          "type": "address"
        },
        {
          "internalType": "address",
          "name": "operator",
          "type": "address"
        }
      ],
      "name": "isApprovedForAll",
      "outputs": [
        {
          "internalType": "bool",
          "name": "",
          "type": "bool"
        }
      ],
      "stateMutability": "view",
      "type": "function"
    },
    {
      "inputs": [],
      "name": "name",
      "outputs": [
        {
          "internalType": "string",
          "name": "",
          "type": "string"
        }
      ],
      "stateMutability": "view",
      "type": "function"
    },
    {
      "inputs": [
        {
          "internalType": "address",
          "name": "owner",
          "type": "address"
        }
      ],
      "name": "nonces",
      "outputs": [
        {
          "internalType": "uint256",
          "name": "",
          "type": "uint256"
        }
      ],
      "stateMutability": "view",
      "type": "function"
    },
    {
      "inputs": [
        {
          "internalType": "uint256",
          "name": "tokenId",
          "type": "uint256"
        }
      ],
      "name": "ownerOf",
      "outputs": [
        {
          "internalType": "address",
          "name": "",
          "type": "address"
        }
      ],
      "stateMutability": "view",
      "type": "function"
    },
    {
      "inputs": [
        {
          "internalType": "address",
          "name": "from",
          "type": "address"
        },
        {
          "internalType": "address",
          "name": "to",
          "type": "address"
        },
        {
          "internalType": "uint256",
          "name": "tokenId",
          "type": "uint256"
        }
      ],
      "name": "safeTransferFrom",
      "outputs": [],
      "stateMutability": "nonpayable",
      "type": "function"
    },
    {
      "inputs": [
        {
          "internalType": "address",
          "name": "from",
          "type": "address"
        },
        {
          "internalType": "address",
          "name": "to",
          "type": "address"
        },
        {
          "internalType": "uint256",
          "name": "tokenId",
          "type": "uint256"
        },
        {
          "internalType": "bytes",
          "name": "data",
          "type": "bytes"
        }
      ],
      "name": "safeTransferFrom",
      "outputs": [],
      "stateMutability": "nonpayable",
      "type": "function"
    },
    {
      "inputs": [
        {
          "internalType": "address",
          "name": "operator",
          "type": "address"
        },
        {
          "internalType": "bool",
          "name": "approved",
          "type": "bool"
        }
      ],
      "name": "setApprovalForAll",
      "outputs": [],
      "stateMutability": "nonpayable",
      "type": "function"
    },
    {
      "inputs": [
        {
          "internalType": "bytes4",
          "name": "interfaceId",
          "type": "bytes4"
        }
      ],
      "name": "supportsInterface",
      "outputs": [
        {
          "internalType": "bool",
          "name": "",
          "type": "bool"
        }
      ],
      "stateMutability": "view",
      "type": "function"
    },
    {
      "inputs": [],
      "name": "symbol",
      "outputs": [
        {
          "internalType": "string",
          "name": "",
          "type": "string"
        }
      ],
      "stateMutability": "view",
      "type": "function"
    },
    {
      "inputs": [],
      "name": "tokenCount",
      "outputs": [
        {
          "internalType": "uint256",
          "name": "",
          "type": "uint256"
        }
      ],
      "stateMutability": "view",
      "type": "function"
    },
    {
      "inputs": [
        {
          "internalType": "uint256",
          "name": "tokenId",
          "type": "uint256"
        }
      ],
      "name": "tokenURI",
      "outputs": [
        {
          "internalType": "string",
          "name": "",
          "type": "string"
        }
      ],
      "stateMutability": "view",
      "type": "function"
    },
    {
      "inputs": [
        {
          "internalType": "address",
          "name": "from",
          "type": "address"
        },
        {
          "internalType": "address",
          "name": "to",
          "type": "address"
        },
        {
          "internalType": "uint256",
          "name": "tokenId",
          "type": "uint256"
        }
      ],
      "name": "transferFrom",
      "outputs": [],
      "stateMutability": "nonpayable",
      "type": "function"
    }
  ],
  "transactionHash": "0xbae53e949c6b89254258466b9512b00460e98e60fe91b4171d58b667047e0fe7",
  "args": [],
  "numDeployments": 1,
  "solcInputHash": "ef8704ee3a6d7e43ac3011f41e659c9f",
  "bytecode": "0x6101406040523480156200001257600080fd5b506040518060400160405280600f81526020016e23b7bb32b93730b731b2aa37b5b2b760891b8152506040518060400160405280600281526020016111d560f21b8152506040518060400160405280600f81526020016e23b7bb32b93730b731b2aa37b5b2b760891b8152506040518060400160405280600281526020016111d560f21b8152508160009080519060200190620000b192919062000998565b508051620000c790600190602084019062000998565b5050825160208085019190912083518483012060e08290526101008190524660a0818152604080517f8b73c3c69bb8fe3d512ecc4cf759cc79239f7b179b0ffacaa9a75d522b39400f81880181905281830187905260608201869052608082019490945230818401528151808203909301835260c0019052805194019390932091935091906080523060c0526101205250506001600a8190556200016f925033915062000175565b62000abc565b6200018c82826200019060201b620009851760201c565b5050565b6001600160a01b038216620001ec5760405162461bcd60e51b815260206004820181905260248201527f4552433732313a206d696e7420746f20746865207a65726f206164647265737360448201526064015b60405180910390fd5b6000818152600260205260409020546001600160a01b031615620002535760405162461bcd60e51b815260206004820152601c60248201527f4552433732313a20746f6b656e20616c7265616479206d696e746564000000006044820152606401620001e3565b6200026360008383600162000341565b6000818152600260205260409020546001600160a01b031615620002ca5760405162461bcd60e51b815260206004820152601c60248201527f4552433732313a20746f6b656e20616c7265616479206d696e746564000000006044820152606401620001e3565b6001600160a01b038216600081815260036020908152604080832080546001019055848352600290915280822080546001600160a01b0319168417905551839291907fddf252ad1be2c89b69c2b068fc378daa952ba7f163c4a11628f55a4df523b3ef908290a46200018c600083836001620003d1565b6001811115620003cb576001600160a01b038416156200038b576001600160a01b038416600090815260036020526040812080548392906200038590849062000a4a565b90915550505b6001600160a01b03831615620003cb576001600160a01b03831660009081526003602052604081208054839290620003c590849062000a64565b90915550505b50505050565b620003cb84848484620003ea60201b62000b281760201c565b620003f784848362000410565b620003cb84848484620003cb60201b620007df1760201c565b6001600160a01b0383166200044a5762000447620004bd60201b62000b3817826008620004d260201b62000b44179092919060201c565b50505b6001600160a01b0382166200048457620004816200050c60201b62000b7c17826008620004d260201b62000b44179092919060201c565b50505b6001600160a01b03838116600090815260066020526040808220548584168352912054620004b8929182169116836200051a565b505050565b6000620004cb828462000a64565b9392505050565b600080620004ff85620004f9620004e9826200066b565b6001600160e01b0316868860201c565b620006b8565b915091505b935093915050565b6000620004cb828462000a4a565b816001600160a01b0316836001600160a01b0316141580156200053d5750600081115b15620004b8576001600160a01b03831615620005d5576001600160a01b03831660009081526007602090815260408220829162000592919062000b7c6200050c821b1790869062000b44620004d2821b17901c565b91509150846001600160a01b031660008051602062002ef88339815191528383604051620005ca929190918252602082015260400190565b60405180910390a250505b6001600160a01b03821615620004b8576001600160a01b03821660009081526007602090815260408220829162000624919062000b38620004bd821b1790869062000b44620004d2821b17901c565b91509150836001600160a01b031660008051602062002ef883398151915283836040516200065c929190918252602082015260400190565b60405180910390a25050505050565b80546000908015620006af5762000697836200068960018462000a4a565b600091825260209091200190565b5464010000000090046001600160e01b0316620004cb565b60009392505050565b600080620006f584600001620006d9436200070b60201b62000b881760201c565b620006ef866200077660201b62000bf11760201c565b620007e1565b6001600160e01b03918216969116945092505050565b600063ffffffff821115620007725760405162461bcd60e51b815260206004820152602660248201527f53616665436173743a2076616c756520646f65736e27742066697420696e203360448201526532206269747360d01b6064820152608401620001e3565b5090565b60006001600160e01b03821115620007725760405162461bcd60e51b815260206004820152602760248201527f53616665436173743a2076616c756520646f65736e27742066697420696e20326044820152663234206269747360c81b6064820152608401620001e3565b8254600090819080156200093d57600062000803876200068960018562000a4a565b60408051808201909152905463ffffffff8082168084526401000000009092046001600160e01b031660208401529192509087161015620008875760405162461bcd60e51b815260206004820152601760248201527f436865636b706f696e743a20696e76616c6964206b65790000000000000000006044820152606401620001e3565b8563ffffffff16816000015163ffffffff161415620008dc5784620008b3886200068960018662000a4a565b80546001600160e01b03929092166401000000000263ffffffff9092169190911790556200092c565b6040805180820190915263ffffffff80881682526001600160e01b0380881660208085019182528b54600181018d5560008d81529190912094519151909216640100000000029216919091179101555b602001519250839150620005049050565b50506040805180820190915263ffffffff80851682526001600160e01b0380851660208085019182528854600181018a5560008a81529182209551925190931664010000000002919093161792019190915590508162000504565b828054620009a69062000a7f565b90600052602060002090601f016020900481019282620009ca576000855562000a15565b82601f10620009e557805160ff191683800117855562000a15565b8280016001018555821562000a15579182015b8281111562000a15578251825591602001919060010190620009f8565b50620007729291505b8082111562000772576000815560010162000a1e565b634e487b7160e01b600052601160045260246000fd5b60008282101562000a5f5762000a5f62000a34565b500390565b6000821982111562000a7a5762000a7a62000a34565b500190565b600181811c9082168062000a9457607f821691505b6020821081141562000ab657634e487b7160e01b600052602260045260246000fd5b50919050565b60805160a05160c05160e05161010051610120516123ec62000b0c6000396000610fac01526000610ffb01526000610fd601526000610f2f01526000610f5901526000610f8301526123ec6000f3fe608060405234801561001057600080fd5b50600436106101425760003560e01c806370a08231116100b85780639f181b5e1161007c5780639f181b5e146102b9578063a22cb465146102c2578063b88d4fde146102d5578063c3cda520146102e8578063c87b56dd146102fb578063e985e9c51461030e57600080fd5b806370a08231146102655780637ecebe00146102785780638e539e8c1461028b57806395d89b411461029e5780639ab24eb0146102a657600080fd5b80633644e5151161010a5780633644e515146101d75780633a46b1a8146101ed57806342842e0e14610200578063587cde1e146102135780635c19a95c1461023f5780636352211e1461025257600080fd5b806301ffc9a71461014757806306fdde031461016f578063081812fc14610184578063095ea7b3146101af57806323b872dd146101c4575b600080fd5b61015a610155366004611e82565b61034a565b60405190151581526020015b60405180910390f35b61017761039c565b6040516101669190611ef7565b610197610192366004611f0a565b61042e565b6040516001600160a01b039091168152602001610166565b6101c26101bd366004611f3f565b610455565b005b6101c26101d2366004611f69565b610570565b6101df6105a1565b604051908152602001610166565b6101df6101fb366004611f3f565b6105b0565b6101c261020e366004611f69565b6105d9565b610197610221366004611fa5565b6001600160a01b039081166000908152600660205260409020541690565b6101c261024d366004611fa5565b6105f4565b610197610260366004611f0a565b610603565b6101df610273366004611fa5565b610663565b6101df610286366004611fa5565b6106e9565b6101df610299366004611f0a565b610707565b610177610763565b6101df6102b4366004611fa5565b610772565b6101df600a5481565b6101c26102d0366004611fc0565b6107a2565b6101c26102e3366004612012565b6107ad565b6101c26102f63660046120ee565b6107e5565b610177610309366004611f0a565b610912565b61015a61031c36600461214e565b6001600160a01b03918216600090815260056020908152604080832093909416825291909152205460ff1690565b60006001600160e01b031982166380ac58cd60e01b148061037b57506001600160e01b03198216635b5e139f60e01b145b8061039657506301ffc9a760e01b6001600160e01b03198316145b92915050565b6060600080546103ab90612181565b80601f01602080910402602001604051908101604052809291908181526020018280546103d790612181565b80156104245780601f106103f957610100808354040283529160200191610424565b820191906000526020600020905b81548152906001019060200180831161040757829003601f168201915b5050505050905090565b600061043982610c5a565b506000908152600460205260409020546001600160a01b031690565b600061046082610603565b9050806001600160a01b0316836001600160a01b031614156104d35760405162461bcd60e51b815260206004820152602160248201527f4552433732313a20617070726f76616c20746f2063757272656e74206f776e656044820152603960f91b60648201526084015b60405180910390fd5b336001600160a01b03821614806104ef57506104ef813361031c565b6105615760405162461bcd60e51b815260206004820152603d60248201527f4552433732313a20617070726f76652063616c6c6572206973206e6f7420746f60448201527f6b656e206f776e6572206f7220617070726f76656420666f7220616c6c00000060648201526084016104ca565b61056b8383610cbc565b505050565b61057a3382610d2a565b6105965760405162461bcd60e51b81526004016104ca906121b6565b61056b838383610da9565b60006105ab610f22565b905090565b6001600160a01b03821660009081526007602052604081206105d29083611049565b9392505050565b61056b838383604051806020016040528060008152506107ad565b336105ff8183611165565b5050565b6000818152600260205260408120546001600160a01b0316806103965760405162461bcd60e51b8152602060048201526018602482015277115490cdcc8c4e881a5b9d985b1a59081d1bdad95b88125160421b60448201526064016104ca565b60006001600160a01b0382166106cd5760405162461bcd60e51b815260206004820152602960248201527f4552433732313a2061646472657373207a65726f206973206e6f7420612076616044820152683634b21037bbb732b960b91b60648201526084016104ca565b506001600160a01b031660009081526003602052604090205490565b6001600160a01b038116600090815260096020526040812054610396565b60004382106107585760405162461bcd60e51b815260206004820152601a60248201527f566f7465733a20626c6f636b206e6f7420796574206d696e656400000000000060448201526064016104ca565b610396600883611049565b6060600180546103ab90612181565b6001600160a01b0381166000908152600760205260408120610793906111d7565b6001600160e01b031692915050565b6105ff338383611211565b6107b73383610d2a565b6107d35760405162461bcd60e51b81526004016104ca906121b6565b6107df848484846112e0565b50505050565b834211156108355760405162461bcd60e51b815260206004820152601860248201527f566f7465733a207369676e61747572652065787069726564000000000000000060448201526064016104ca565b604080517fe48329057bfd03d55e49b547132e39cffd9c1820ad7b9d4c5307691425d15adf60208201526001600160a01b0388169181019190915260608101869052608081018590526000906108af906108a79060a00160405160208183030381529060405280519060200120611313565b858585611361565b90506108ba81611389565b86146108ff5760405162461bcd60e51b8152602060048201526014602482015273566f7465733a20696e76616c6964206e6f6e636560601b60448201526064016104ca565b6109098188611165565b50505050505050565b606061091d82610c5a565b600061093460408051602081019091526000815290565b9050600081511161095457604051806020016040528060008152506105d2565b8061095e846113b1565b60405160200161096f929190612203565b6040516020818303038152906040529392505050565b6001600160a01b0382166109db5760405162461bcd60e51b815260206004820181905260248201527f4552433732313a206d696e7420746f20746865207a65726f206164647265737360448201526064016104ca565b6000818152600260205260409020546001600160a01b031615610a405760405162461bcd60e51b815260206004820152601c60248201527f4552433732313a20746f6b656e20616c7265616479206d696e7465640000000060448201526064016104ca565b610a4e60008383600161144e565b6000818152600260205260409020546001600160a01b031615610ab35760405162461bcd60e51b815260206004820152601c60248201527f4552433732313a20746f6b656e20616c7265616479206d696e7465640000000060448201526064016104ca565b6001600160a01b038216600081815260036020908152604080832080546001019055848352600290915280822080546001600160a01b0319168417905551839291907fddf252ad1be2c89b69c2b068fc378daa952ba7f163c4a11628f55a4df523b3ef908290a46105ff6000838360016114d6565b610b338484836114e2565b6107df565b60006105d28284612248565b600080610b6f85610b6a610b57886111d7565b6001600160e01b0316868863ffffffff16565b611552565b915091505b935093915050565b60006105d28284612260565b600063ffffffff821115610bed5760405162461bcd60e51b815260206004820152602660248201527f53616665436173743a2076616c756520646f65736e27742066697420696e203360448201526532206269747360d01b60648201526084016104ca565b5090565b60006001600160e01b03821115610bed5760405162461bcd60e51b815260206004820152602760248201527f53616665436173743a2076616c756520646f65736e27742066697420696e20326044820152663234206269747360c81b60648201526084016104ca565b6000818152600260205260409020546001600160a01b0316610cb95760405162461bcd60e51b8152602060048201526018602482015277115490cdcc8c4e881a5b9d985b1a59081d1bdad95b88125160421b60448201526064016104ca565b50565b600081815260046020526040902080546001600160a01b0319166001600160a01b0384169081179091558190610cf182610603565b6001600160a01b03167f8c5be1e5ebec7d5bd14f71427d1e84f3dd0314c0f7b2291e5b200ac8c7c3b92560405160405180910390a45050565b600080610d3683610603565b9050806001600160a01b0316846001600160a01b03161480610d7d57506001600160a01b0380821660009081526005602090815260408083209388168352929052205460ff165b80610da15750836001600160a01b0316610d968461042e565b6001600160a01b0316145b949350505050565b826001600160a01b0316610dbc82610603565b6001600160a01b031614610de25760405162461bcd60e51b81526004016104ca90612277565b6001600160a01b038216610e445760405162461bcd60e51b8152602060048201526024808201527f4552433732313a207472616e7366657220746f20746865207a65726f206164646044820152637265737360e01b60648201526084016104ca565b610e51838383600161144e565b826001600160a01b0316610e6482610603565b6001600160a01b031614610e8a5760405162461bcd60e51b81526004016104ca90612277565b600081815260046020908152604080832080546001600160a01b03199081169091556001600160a01b0387811680865260038552838620805460001901905590871680865283862080546001019055868652600290945282852080549092168417909155905184937fddf252ad1be2c89b69c2b068fc378daa952ba7f163c4a11628f55a4df523b3ef91a461056b83838360016114d6565b6000306001600160a01b037f000000000000000000000000000000000000000000000000000000000000000016148015610f7b57507f000000000000000000000000000000000000000000000000000000000000000046145b15610fa557507f000000000000000000000000000000000000000000000000000000000000000090565b50604080517f00000000000000000000000000000000000000000000000000000000000000006020808301919091527f0000000000000000000000000000000000000000000000000000000000000000828401527f000000000000000000000000000000000000000000000000000000000000000060608301524660808301523060a0808401919091528351808403909101815260c0909201909252805191012090565b600043821061109a5760405162461bcd60e51b815260206004820181905260248201527f436865636b706f696e74733a20626c6f636b206e6f7420796574206d696e656460448201526064016104ca565b60006110a583610b88565b845490915060008160058111156111035760006110c184611586565b6110cb9085612260565b60008981526020902090915081015463ffffffff90811690861610156110f357809150611101565b6110fe816001612248565b92505b505b60006111118886858561166b565b9050801561114d5761113688611128600184612260565b600091825260209091200190565b5464010000000090046001600160e01b0316611150565b60005b6001600160e01b031698975050505050505050565b6001600160a01b0382811660008181526006602052604080822080548686166001600160a01b0319821681179092559151919094169392849290917f3134e8a2e6d97e929a7e54011ea5485d7d196dd5f0ba4d4ef95803e8e3fc257f9190a461056b81836111d2866116c1565b6116cc565b80546000908015611208576111f183611128600184612260565b5464010000000090046001600160e01b03166105d2565b60009392505050565b816001600160a01b0316836001600160a01b031614156112735760405162461bcd60e51b815260206004820152601960248201527f4552433732313a20617070726f766520746f2063616c6c65720000000000000060448201526064016104ca565b6001600160a01b03838116600081815260056020908152604080832094871680845294825291829020805460ff191686151590811790915591519182527f17307eab39ab6107e8899845ad3d59bd9653f200f220920489ca2b5937696c31910160405180910390a3505050565b6112eb848484610da9565b6112f784848484611809565b6107df5760405162461bcd60e51b81526004016104ca906122bc565b6000610396611320610f22565b8360405161190160f01b6020820152602281018390526042810182905260009060620160405160208183030381529060405280519060200120905092915050565b600080600061137287878787611913565b9150915061137f816119d7565b5095945050505050565b6001600160a01b03811660009081526009602052604090208054600181018255905b50919050565b606060006113be83611b25565b600101905060008167ffffffffffffffff8111156113de576113de611ffc565b6040519080825280601f01601f191660200182016040528015611408576020820181803683370190505b5090508181016020015b600019016f181899199a1a9b1b9c1cb0b131b232b360811b600a86061a8153600a850494508461144157611446565b611412565b509392505050565b60018111156107df576001600160a01b03841615611494576001600160a01b0384166000908152600360205260408120805483929061148e908490612260565b90915550505b6001600160a01b038316156107df576001600160a01b038316600090815260036020526040812080548392906114cb908490612248565b909155505050505050565b6107df84848484610b28565b6001600160a01b038316611501576114fe6008610b3883610b44565b50505b6001600160a01b0382166115205761151d6008610b7c83610b44565b50505b6001600160a01b0383811660009081526006602052604080822054858416835291205461056b929182169116836116cc565b6000806115708461156243610b88565b61156b86610bf1565b611bfd565b6001600160e01b03918216969116945092505050565b60008161159557506000919050565b600060016115a284611da7565b901c6001901b905060018184816115bb576115bb61230e565b048201901c905060018184816115d3576115d361230e565b048201901c905060018184816115eb576115eb61230e565b048201901c905060018184816116035761160361230e565b048201901c9050600181848161161b5761161b61230e565b048201901c905060018184816116335761163361230e565b048201901c9050600181848161164b5761164b61230e565b048201901c90506105d2818285816116655761166561230e565b04611e3b565b60005b818310156114465760006116828484611e51565b60008781526020902090915063ffffffff86169082015463ffffffff1611156116ad578092506116bb565b6116b8816001612248565b93505b5061166e565b600061039682610663565b816001600160a01b0316836001600160a01b0316141580156116ee5750600081115b1561056b576001600160a01b0383161561177c576001600160a01b0383166000908152600760205260408120819061172990610b7c85610b44565b91509150846001600160a01b03167fdec2bacdd2f05b59de34da9b523dff8be42e5e38e818c82fdb0bae774387a7248383604051611771929190918252602082015260400190565b60405180910390a250505b6001600160a01b0382161561056b576001600160a01b038216600090815260076020526040812081906117b290610b3885610b44565b91509150836001600160a01b03167fdec2bacdd2f05b59de34da9b523dff8be42e5e38e818c82fdb0bae774387a72483836040516117fa929190918252602082015260400190565b60405180910390a25050505050565b60006001600160a01b0384163b1561190b57604051630a85bd0160e11b81526001600160a01b0385169063150b7a029061184d903390899088908890600401612324565b602060405180830381600087803b15801561186757600080fd5b505af1925050508015611897575060408051601f3d908101601f1916820190925261189491810190612361565b60015b6118f1573d8080156118c5576040519150601f19603f3d011682016040523d82523d6000602084013e6118ca565b606091505b5080516118e95760405162461bcd60e51b81526004016104ca906122bc565b805181602001fd5b6001600160e01b031916630a85bd0160e11b149050610da1565b506001610da1565b6000807f7fffffffffffffffffffffffffffffff5d576e7357a4501ddfe92f46681b20a083111561194a57506000905060036119ce565b6040805160008082526020820180845289905260ff881692820192909252606081018690526080810185905260019060a0016020604051602081039080840390855afa15801561199e573d6000803e3d6000fd5b5050604051601f1901519150506001600160a01b0381166119c7576000600192509250506119ce565b9150600090505b94509492505050565b60008160048111156119eb576119eb61237e565b14156119f45750565b6001816004811115611a0857611a0861237e565b1415611a565760405162461bcd60e51b815260206004820152601860248201527f45434453413a20696e76616c6964207369676e6174757265000000000000000060448201526064016104ca565b6002816004811115611a6a57611a6a61237e565b1415611ab85760405162461bcd60e51b815260206004820152601f60248201527f45434453413a20696e76616c6964207369676e6174757265206c656e6774680060448201526064016104ca565b6003816004811115611acc57611acc61237e565b1415610cb95760405162461bcd60e51b815260206004820152602260248201527f45434453413a20696e76616c6964207369676e6174757265202773272076616c604482015261756560f01b60648201526084016104ca565b60008072184f03e93ff9f4daa797ed6e38ed64bf6a1f0160401b8310611b645772184f03e93ff9f4daa797ed6e38ed64bf6a1f0160401b830492506040015b6d04ee2d6d415b85acef81000000008310611b90576d04ee2d6d415b85acef8100000000830492506020015b662386f26fc100008310611bae57662386f26fc10000830492506010015b6305f5e1008310611bc6576305f5e100830492506008015b6127108310611bda57612710830492506004015b60648310611bec576064830492506002015b600a83106103965760010192915050565b825460009081908015611d4d576000611c1b87611128600185612260565b60408051808201909152905463ffffffff8082168084526401000000009092046001600160e01b031660208401529192509087161015611c9d5760405162461bcd60e51b815260206004820152601760248201527f436865636b706f696e743a20696e76616c6964206b657900000000000000000060448201526064016104ca565b8563ffffffff16816000015163ffffffff161415611ced5784611cc588611128600186612260565b80546001600160e01b03929092166401000000000263ffffffff909216919091179055611d3d565b6040805180820190915263ffffffff80881682526001600160e01b0380881660208085019182528b54600181018d5560008d81529190912094519151909216640100000000029216919091179101555b602001519250839150610b749050565b50506040805180820190915263ffffffff80851682526001600160e01b0380851660208085019182528854600181018a5560008a815291822095519251909316640100000000029190931617920191909155905081610b74565b600080608083901c15611dbc57608092831c92015b604083901c15611dce57604092831c92015b602083901c15611de057602092831c92015b601083901c15611df257601092831c92015b600883901c15611e0457600892831c92015b600483901c15611e1657600492831c92015b600283901c15611e2857600292831c92015b600183901c156103965760010192915050565b6000818310611e4a57816105d2565b5090919050565b6000611e606002848418612394565b6105d290848416612248565b6001600160e01b031981168114610cb957600080fd5b600060208284031215611e9457600080fd5b81356105d281611e6c565b60005b83811015611eba578181015183820152602001611ea2565b838111156107df5750506000910152565b60008151808452611ee3816020860160208601611e9f565b601f01601f19169290920160200192915050565b6020815260006105d26020830184611ecb565b600060208284031215611f1c57600080fd5b5035919050565b80356001600160a01b0381168114611f3a57600080fd5b919050565b60008060408385031215611f5257600080fd5b611f5b83611f23565b946020939093013593505050565b600080600060608486031215611f7e57600080fd5b611f8784611f23565b9250611f9560208501611f23565b9150604084013590509250925092565b600060208284031215611fb757600080fd5b6105d282611f23565b60008060408385031215611fd357600080fd5b611fdc83611f23565b915060208301358015158114611ff157600080fd5b809150509250929050565b634e487b7160e01b600052604160045260246000fd5b6000806000806080858703121561202857600080fd5b61203185611f23565b935061203f60208601611f23565b925060408501359150606085013567ffffffffffffffff8082111561206357600080fd5b818701915087601f83011261207757600080fd5b81358181111561208957612089611ffc565b604051601f8201601f19908116603f011681019083821181831017156120b1576120b1611ffc565b816040528281528a60208487010111156120ca57600080fd5b82602086016020830137600060208483010152809550505050505092959194509250565b60008060008060008060c0878903121561210757600080fd5b61211087611f23565b95506020870135945060408701359350606087013560ff8116811461213457600080fd5b9598949750929560808101359460a0909101359350915050565b6000806040838503121561216157600080fd5b61216a83611f23565b915061217860208401611f23565b90509250929050565b600181811c9082168061219557607f821691505b602082108114156113ab57634e487b7160e01b600052602260045260246000fd5b6020808252602d908201527f4552433732313a2063616c6c6572206973206e6f7420746f6b656e206f776e6560408201526c1c881bdc88185c1c1c9bdd9959609a1b606082015260800190565b60008351612215818460208801611e9f565b835190830190612229818360208801611e9f565b01949350505050565b634e487b7160e01b600052601160045260246000fd5b6000821982111561225b5761225b612232565b500190565b60008282101561227257612272612232565b500390565b60208082526025908201527f4552433732313a207472616e736665722066726f6d20696e636f72726563742060408201526437bbb732b960d91b606082015260800190565b60208082526032908201527f4552433732313a207472616e7366657220746f206e6f6e20455243373231526560408201527131b2b4bb32b91034b6b83632b6b2b73a32b960711b606082015260800190565b634e487b7160e01b600052601260045260246000fd5b6001600160a01b038581168252841660208201526040810183905260806060820181905260009061235790830184611ecb565b9695505050505050565b60006020828403121561237357600080fd5b81516105d281611e6c565b634e487b7160e01b600052602160045260246000fd5b6000826123b157634e487b7160e01b600052601260045260246000fd5b50049056fea264697066735822122071e292892e2091f0c32ed5093e5e7c698b69733c6ad7744f59d5c340e7cb1c1464736f6c63430008090033dec2bacdd2f05b59de34da9b523dff8be42e5e38e818c82fdb0bae774387a724",
  "devdoc": {
    "kind": "dev",
    "methods": {
      "DOMAIN_SEPARATOR()": {
        "details": "Returns the contract's {EIP712} domain separator."
      },
      "approve(address,uint256)": {
        "details": "See {IERC721-approve}."
      },
      "balanceOf(address)": {
        "details": "See {IERC721-balanceOf}."
      },
      "delegate(address)": {
        "details": "Delegates votes from the sender to `delegatee`."
      },
      "delegateBySig(address,uint256,uint256,uint8,bytes32,bytes32)": {
        "details": "Delegates votes from signer to `delegatee`."
      },
      "delegates(address)": {
        "details": "Returns the delegate that `account` has chosen."
      },
      "getApproved(uint256)": {
        "details": "See {IERC721-getApproved}."
      },
      "getPastTotalSupply(uint256)": {
        "details": "Returns the total supply of votes available at the end of a past block (`blockNumber`). NOTE: This value is the sum of all available votes, which is not necessarily the sum of all delegated votes. Votes that have not been delegated are still part of total supply, even though they would not participate in a vote. Requirements: - `blockNumber` must have been already mined"
      },
      "getPastVotes(address,uint256)": {
        "details": "Returns the amount of votes that `account` had at the end of a past block (`blockNumber`). Requirements: - `blockNumber` must have been already mined"
      },
      "getVotes(address)": {
        "details": "Returns the current amount of votes that `account` has."
      },
      "isApprovedForAll(address,address)": {
        "details": "See {IERC721-isApprovedForAll}."
      },
      "name()": {
        "details": "See {IERC721Metadata-name}."
      },
      "nonces(address)": {
        "details": "Returns an address nonce."
      },
      "ownerOf(uint256)": {
        "details": "See {IERC721-ownerOf}."
      },
      "safeTransferFrom(address,address,uint256)": {
        "details": "See {IERC721-safeTransferFrom}."
      },
      "safeTransferFrom(address,address,uint256,bytes)": {
        "details": "See {IERC721-safeTransferFrom}."
      },
      "setApprovalForAll(address,bool)": {
        "details": "See {IERC721-setApprovalForAll}."
      },
      "supportsInterface(bytes4)": {
        "details": "See {IERC165-supportsInterface}."
      },
      "symbol()": {
        "details": "See {IERC721Metadata-symbol}."
      },
      "tokenURI(uint256)": {
        "details": "See {IERC721Metadata-tokenURI}."
      },
      "transferFrom(address,address,uint256)": {
        "details": "See {IERC721-transferFrom}."
      }
    },
    "version": 1
  },
  "userdoc": {
    "kind": "user",
    "methods": {},
    "version": 1
  },
  "storageLayout": {
    "storage": [
      {
        "astId": 6281,
        "contract": "contracts/GovernanceNFT.sol:GovernanceNFT",
        "label": "_name",
        "offset": 0,
        "slot": "0",
        "type": "t_string_storage"
      },
      {
        "astId": 6283,
        "contract": "contracts/GovernanceNFT.sol:GovernanceNFT",
        "label": "_symbol",
        "offset": 0,
        "slot": "1",
        "type": "t_string_storage"
      },
      {
        "astId": 6287,
        "contract": "contracts/GovernanceNFT.sol:GovernanceNFT",
        "label": "_owners",
        "offset": 0,
        "slot": "2",
        "type": "t_mapping(t_uint256,t_address)"
      },
      {
        "astId": 6291,
        "contract": "contracts/GovernanceNFT.sol:GovernanceNFT",
        "label": "_balances",
        "offset": 0,
        "slot": "3",
        "type": "t_mapping(t_address,t_uint256)"
      },
      {
        "astId": 6295,
        "contract": "contracts/GovernanceNFT.sol:GovernanceNFT",
        "label": "_tokenApprovals",
        "offset": 0,
        "slot": "4",
        "type": "t_mapping(t_uint256,t_address)"
      },
      {
        "astId": 6301,
        "contract": "contracts/GovernanceNFT.sol:GovernanceNFT",
        "label": "_operatorApprovals",
        "offset": 0,
        "slot": "5",
        "type": "t_mapping(t_address,t_mapping(t_address,t_bool))"
      },
      {
        "astId": 4196,
        "contract": "contracts/GovernanceNFT.sol:GovernanceNFT",
        "label": "_delegation",
        "offset": 0,
        "slot": "6",
        "type": "t_mapping(t_address,t_address)"
      },
      {
        "astId": 4201,
        "contract": "contracts/GovernanceNFT.sol:GovernanceNFT",
        "label": "_delegateCheckpoints",
        "offset": 0,
        "slot": "7",
        "type": "t_mapping(t_address,t_struct(History)7754_storage)"
      },
      {
        "astId": 4204,
        "contract": "contracts/GovernanceNFT.sol:GovernanceNFT",
        "label": "_totalCheckpoints",
        "offset": 0,
        "slot": "8",
        "type": "t_struct(History)7754_storage"
      },
      {
        "astId": 4209,
        "contract": "contracts/GovernanceNFT.sol:GovernanceNFT",
        "label": "_nonces",
        "offset": 0,
        "slot": "9",
        "type": "t_mapping(t_address,t_struct(Counter)9140_storage)"
      },
      {
        "astId": 12938,
        "contract": "contracts/GovernanceNFT.sol:GovernanceNFT",
        "label": "tokenCount",
        "offset": 0,
        "slot": "10",
        "type": "t_uint256"
      }
    ],
    "types": {
      "t_address": {
        "encoding": "inplace",
        "label": "address",
        "numberOfBytes": "20"
      },
      "t_array(t_struct(Checkpoint)7759_storage)dyn_storage": {
        "base": "t_struct(Checkpoint)7759_storage",
        "encoding": "dynamic_array",
        "label": "struct Checkpoints.Checkpoint[]",
        "numberOfBytes": "32"
      },
      "t_bool": {
        "encoding": "inplace",
        "label": "bool",
        "numberOfBytes": "1"
      },
      "t_mapping(t_address,t_address)": {
        "encoding": "mapping",
        "key": "t_address",
        "label": "mapping(address => address)",
        "numberOfBytes": "32",
        "value": "t_address"
      },
      "t_mapping(t_address,t_bool)": {
        "encoding": "mapping",
        "key": "t_address",
        "label": "mapping(address => bool)",
        "numberOfBytes": "32",
        "value": "t_bool"
      },
      "t_mapping(t_address,t_mapping(t_address,t_bool))": {
        "encoding": "mapping",
        "key": "t_address",
        "label": "mapping(address => mapping(address => bool))",
        "numberOfBytes": "32",
        "value": "t_mapping(t_address,t_bool)"
      },
      "t_mapping(t_address,t_struct(Counter)9140_storage)": {
        "encoding": "mapping",
        "key": "t_address",
        "label": "mapping(address => struct Counters.Counter)",
        "numberOfBytes": "32",
        "value": "t_struct(Counter)9140_storage"
      },
      "t_mapping(t_address,t_struct(History)7754_storage)": {
        "encoding": "mapping",
        "key": "t_address",
        "label": "mapping(address => struct Checkpoints.History)",
        "numberOfBytes": "32",
        "value": "t_struct(History)7754_storage"
      },
      "t_mapping(t_address,t_uint256)": {
        "encoding": "mapping",
        "key": "t_address",
        "label": "mapping(address => uint256)",
        "numberOfBytes": "32",
        "value": "t_uint256"
      },
      "t_mapping(t_uint256,t_address)": {
        "encoding": "mapping",
        "key": "t_uint256",
        "label": "mapping(uint256 => address)",
        "numberOfBytes": "32",
        "value": "t_address"
      },
      "t_string_storage": {
        "encoding": "bytes",
        "label": "string",
        "numberOfBytes": "32"
      },
      "t_struct(Checkpoint)7759_storage": {
        "encoding": "inplace",
        "label": "struct Checkpoints.Checkpoint",
        "members": [
          {
            "astId": 7756,
            "contract": "contracts/GovernanceNFT.sol:GovernanceNFT",
            "label": "_blockNumber",
            "offset": 0,
            "slot": "0",
            "type": "t_uint32"
          },
          {
            "astId": 7758,
            "contract": "contracts/GovernanceNFT.sol:GovernanceNFT",
            "label": "_value",
            "offset": 4,
            "slot": "0",
            "type": "t_uint224"
          }
        ],
        "numberOfBytes": "32"
      },
      "t_struct(Counter)9140_storage": {
        "encoding": "inplace",
        "label": "struct Counters.Counter",
        "members": [
          {
            "astId": 9139,
            "contract": "contracts/GovernanceNFT.sol:GovernanceNFT",
            "label": "_value",
            "offset": 0,
            "slot": "0",
            "type": "t_uint256"
          }
        ],
        "numberOfBytes": "32"
      },
      "t_struct(History)7754_storage": {
        "encoding": "inplace",
        "label": "struct Checkpoints.History",
        "members": [
          {
            "astId": 7753,
            "contract": "contracts/GovernanceNFT.sol:GovernanceNFT",
            "label": "_checkpoints",
            "offset": 0,
            "slot": "0",
            "type": "t_array(t_struct(Checkpoint)7759_storage)dyn_storage"
          }
        ],
        "numberOfBytes": "32"
      },
      "t_uint224": {
        "encoding": "inplace",
        "label": "uint224",
        "numberOfBytes": "28"
      },
      "t_uint256": {
        "encoding": "inplace",
        "label": "uint256",
        "numberOfBytes": "32"
      },
      "t_uint32": {
        "encoding": "inplace",
        "label": "uint32",
        "numberOfBytes": "4"
      }
    }
  }
}