{
  "address": "0x0165878A594ca255338adfa4d48449f69242Eb8F",
  "abi": [
    {
      "inputs": [
        {
          "internalType": "address payable",
          "name": "_figureprintOracle",
          "type": "address"
        },
        {
          "internalType": "string",
          "name": "name",
          "type": "string"
        },
        {
          "internalType": "string",
          "name": "symbol",
          "type": "string"
        },
        {
          "internalType": "string",
          "name": "signingDomain",
          "type": "string"
        },
        {
          "internalType": "string",
          "name": "signatureVersion",
          "type": "string"
        }
      ],
      "stateMutability": "nonpayable",
      "type": "constructor"
    },
    {
      "inputs": [
        {
          "internalType": "uint256",
          "name": "tokenId",
          "type": "uint256"
        },
        {
          "internalType": "address",
          "name": "from",
          "type": "address"
        }
      ],
      "name": "GovernanceNFT__DirectMintNotAllow",
      "type": "error"
    },
    {
      "inputs": [],
      "name": "GovernanceNFT__FirstVerifyIdenetity",
      "type": "error"
    },
    {
      "inputs": [
        {
          "internalType": "uint256",
          "name": "tokenId",
          "type": "uint256"
        },
        {
          "internalType": "address",
          "name": "from",
          "type": "address"
        }
      ],
      "name": "GovernanceNFT__TransferNoAllowed",
      "type": "error"
    },
    {
      "inputs": [
        {
          "internalType": "string",
          "name": "userId",
          "type": "string"
        },
        {
          "internalType": "address",
          "name": "userAddress",
          "type": "address"
        }
      ],
      "name": "GovernanceNFT__UserIdAlreadyIssued",
      "type": "error"
    },
    {
      "inputs": [],
      "name": "GovernanceNFT__VerficationStillPending",
      "type": "error"
    },
    {
      "inputs": [],
      "name": "GovernanceNFT__VerficationStillRejected",
      "type": "error"
    },
    {
      "anonymous": false,
      "inputs": [
        {
          "indexed": true,
          "internalType": "address",
          "name": "owner",
          "type": "address"
        },
        {
          "indexed": true,
          "internalType": "address",
          "name": "approved",
          "type": "address"
        },
        {
          "indexed": true,
          "internalType": "uint256",
          "name": "tokenId",
          "type": "uint256"
        }
      ],
      "name": "Approval",
      "type": "event"
    },
    {
      "anonymous": false,
      "inputs": [
        {
          "indexed": true,
          "internalType": "address",
          "name": "owner",
          "type": "address"
        },
        {
          "indexed": true,
          "internalType": "address",
          "name": "operator",
          "type": "address"
        },
        {
          "indexed": false,
          "internalType": "bool",
          "name": "approved",
          "type": "bool"
        }
      ],
      "name": "ApprovalForAll",
      "type": "event"
    },
    {
      "anonymous": false,
      "inputs": [
        {
          "indexed": true,
          "internalType": "address",
          "name": "delegator",
          "type": "address"
        },
        {
          "indexed": true,
          "internalType": "address",
          "name": "fromDelegate",
          "type": "address"
        },
        {
          "indexed": true,
          "internalType": "address",
          "name": "toDelegate",
          "type": "address"
        }
      ],
      "name": "DelegateChanged",
      "type": "event"
    },
    {
      "anonymous": false,
      "inputs": [
        {
          "indexed": true,
          "internalType": "address",
          "name": "delegate",
          "type": "address"
        },
        {
          "indexed": false,
          "internalType": "uint256",
          "name": "previousBalance",
          "type": "uint256"
        },
        {
          "indexed": false,
          "internalType": "uint256",
          "name": "newBalance",
          "type": "uint256"
        }
      ],
      "name": "DelegateVotesChanged",
      "type": "event"
    },
    {
      "anonymous": false,
      "inputs": [
        {
          "indexed": true,
          "internalType": "string",
          "name": "userId",
          "type": "string"
        },
        {
          "indexed": false,
          "internalType": "address",
          "name": "userAddres",
          "type": "address"
        }
      ],
      "name": "IdVerifedAndIssued",
      "type": "event"
    },
    {
      "anonymous": false,
      "inputs": [
        {
          "indexed": true,
          "internalType": "address",
          "name": "from",
          "type": "address"
        },
        {
          "indexed": true,
          "internalType": "address",
          "name": "to",
          "type": "address"
        },
        {
          "indexed": true,
          "internalType": "uint256",
          "name": "tokenId",
          "type": "uint256"
        }
      ],
      "name": "Transfer",
      "type": "event"
    },
    {
      "inputs": [],
      "name": "DOMAIN_SEPARATOR",
      "outputs": [
        {
          "internalType": "bytes32",
          "name": "",
          "type": "bytes32"
        }
      ],
      "stateMutability": "view",
      "type": "function"
    },
    {
      "inputs": [
        {
          "internalType": "address",
          "name": "to",
          "type": "address"
        },
        {
          "internalType": "uint256",
          "name": "tokenId",
          "type": "uint256"
        }
      ],
      "name": "approve",
      "outputs": [],
      "stateMutability": "nonpayable",
      "type": "function"
    },
    {
      "inputs": [
        {
          "internalType": "address",
          "name": "owner",
          "type": "address"
        }
      ],
      "name": "balanceOf",
      "outputs": [
        {
          "internalType": "uint256",
          "name": "",
          "type": "uint256"
        }
      ],
      "stateMutability": "view",
      "type": "function"
    },
    {
      "inputs": [
        {
          "internalType": "address",
          "name": "delegatee",
          "type": "address"
        }
      ],
      "name": "delegate",
      "outputs": [],
      "stateMutability": "nonpayable",
      "type": "function"
    },
    {
      "inputs": [
        {
          "internalType": "address",
          "name": "delegatee",
          "type": "address"
        },
        {
          "internalType": "uint256",
          "name": "nonce",
          "type": "uint256"
        },
        {
          "internalType": "uint256",
          "name": "expiry",
          "type": "uint256"
        },
        {
          "internalType": "uint8",
          "name": "v",
          "type": "uint8"
        },
        {
          "internalType": "bytes32",
          "name": "r",
          "type": "bytes32"
        },
        {
          "internalType": "bytes32",
          "name": "s",
          "type": "bytes32"
        }
      ],
      "name": "delegateBySig",
      "outputs": [],
      "stateMutability": "nonpayable",
      "type": "function"
    },
    {
      "inputs": [
        {
          "internalType": "address",
          "name": "account",
          "type": "address"
        }
      ],
      "name": "delegates",
      "outputs": [
        {
          "internalType": "address",
          "name": "",
          "type": "address"
        }
      ],
      "stateMutability": "view",
      "type": "function"
    },
    {
      "inputs": [
        {
          "internalType": "uint256",
          "name": "tokenId",
          "type": "uint256"
        }
      ],
      "name": "getApproved",
      "outputs": [
        {
          "internalType": "address",
          "name": "",
          "type": "address"
        }
      ],
      "stateMutability": "view",
      "type": "function"
    },
    {
      "inputs": [],
      "name": "getIdCount",
      "outputs": [
        {
          "internalType": "uint256",
          "name": "",
          "type": "uint256"
        }
      ],
      "stateMutability": "view",
      "type": "function"
    },
    {
      "inputs": [
        {
          "internalType": "uint256",
          "name": "blockNumber",
          "type": "uint256"
        }
      ],
      "name": "getPastTotalSupply",
      "outputs": [
        {
          "internalType": "uint256",
          "name": "",
          "type": "uint256"
        }
      ],
      "stateMutability": "view",
      "type": "function"
    },
    {
      "inputs": [
        {
          "internalType": "address",
          "name": "account",
          "type": "address"
        },
        {
          "internalType": "uint256",
          "name": "blockNumber",
          "type": "uint256"
        }
      ],
      "name": "getPastVotes",
      "outputs": [
        {
          "internalType": "uint256",
          "name": "",
          "type": "uint256"
        }
      ],
      "stateMutability": "view",
      "type": "function"
    },
    {
      "inputs": [
        {
          "internalType": "address",
          "name": "account",
          "type": "address"
        }
      ],
      "name": "getVotes",
      "outputs": [
        {
          "internalType": "uint256",
          "name": "",
          "type": "uint256"
        }
      ],
      "stateMutability": "view",
      "type": "function"
    },
    {
      "inputs": [
        {
          "internalType": "address",
          "name": "owner",
          "type": "address"
        },
        {
          "internalType": "address",
          "name": "operator",
          "type": "address"
        }
      ],
      "name": "isApprovedForAll",
      "outputs": [
        {
          "internalType": "bool",
          "name": "",
          "type": "bool"
        }
      ],
      "stateMutability": "view",
      "type": "function"
    },
    {
      "inputs": [],
      "name": "name",
      "outputs": [
        {
          "internalType": "string",
          "name": "",
          "type": "string"
        }
      ],
      "stateMutability": "view",
      "type": "function"
    },
    {
      "inputs": [
        {
          "internalType": "address",
          "name": "owner",
          "type": "address"
        }
      ],
      "name": "nonces",
      "outputs": [
        {
          "internalType": "uint256",
          "name": "",
          "type": "uint256"
        }
      ],
      "stateMutability": "view",
      "type": "function"
    },
    {
      "inputs": [
        {
          "internalType": "uint256",
          "name": "tokenId",
          "type": "uint256"
        }
      ],
      "name": "ownerOf",
      "outputs": [
        {
          "internalType": "address",
          "name": "",
          "type": "address"
        }
      ],
      "stateMutability": "view",
      "type": "function"
    },
    {
      "inputs": [],
      "name": "redeem",
      "outputs": [],
      "stateMutability": "nonpayable",
      "type": "function"
    },
    {
      "inputs": [
        {
          "internalType": "address",
          "name": "from",
          "type": "address"
        },
        {
          "internalType": "address",
          "name": "",
          "type": "address"
        },
        {
          "internalType": "uint256",
          "name": "tokenId",
          "type": "uint256"
        }
      ],
      "name": "safeTransferFrom",
      "outputs": [],
      "stateMutability": "nonpayable",
      "type": "function"
    },
    {
      "inputs": [
        {
          "internalType": "address",
          "name": "from",
          "type": "address"
        },
        {
          "internalType": "address",
          "name": "",
          "type": "address"
        },
        {
          "internalType": "uint256",
          "name": "tokenId",
          "type": "uint256"
        },
        {
          "internalType": "bytes",
          "name": "",
          "type": "bytes"
        }
      ],
      "name": "safeTransferFrom",
      "outputs": [],
      "stateMutability": "nonpayable",
      "type": "function"
    },
    {
      "inputs": [
        {
          "internalType": "address",
          "name": "operator",
          "type": "address"
        },
        {
          "internalType": "bool",
          "name": "approved",
          "type": "bool"
        }
      ],
      "name": "setApprovalForAll",
      "outputs": [],
      "stateMutability": "nonpayable",
      "type": "function"
    },
    {
      "inputs": [
        {
          "internalType": "bytes4",
          "name": "interfaceId",
          "type": "bytes4"
        }
      ],
      "name": "supportsInterface",
      "outputs": [
        {
          "internalType": "bool",
          "name": "",
          "type": "bool"
        }
      ],
      "stateMutability": "view",
      "type": "function"
    },
    {
      "inputs": [],
      "name": "symbol",
      "outputs": [
        {
          "internalType": "string",
          "name": "",
          "type": "string"
        }
      ],
      "stateMutability": "view",
      "type": "function"
    },
    {
      "inputs": [
        {
          "internalType": "uint256",
          "name": "tokenId",
          "type": "uint256"
        }
      ],
      "name": "tokenURI",
      "outputs": [
        {
          "internalType": "string",
          "name": "",
          "type": "string"
        }
      ],
      "stateMutability": "view",
      "type": "function"
    },
    {
      "inputs": [
        {
          "internalType": "address",
          "name": "from",
          "type": "address"
        },
        {
          "internalType": "address",
          "name": "",
          "type": "address"
        },
        {
          "internalType": "uint256",
          "name": "tokenId",
          "type": "uint256"
        }
      ],
      "name": "transferFrom",
      "outputs": [],
      "stateMutability": "nonpayable",
      "type": "function"
    },
    {
      "inputs": [
        {
          "internalType": "string",
          "name": "userId",
          "type": "string"
        },
        {
          "internalType": "bytes",
          "name": "fingerPrint",
          "type": "bytes"
        }
      ],
      "name": "verifyFingerPrint",
      "outputs": [],
      "stateMutability": "nonpayable",
      "type": "function"
    }
  ],
  "transactionHash": "0xd774903598c86646b6fe93d19ec1dbaa84dd1ef638139f6c06428296173aedb7",
  "args": [
    "0x5FC8d32690cc91D4c39d9d3abcBD16989F875707",
    "User-Identity",
    "786",
    "User-Identity",
    "1"
  ],
  "numDeployments": 1,
  "solcInputHash": "93857aa87fd9db384da907498762e089",
  "bytecode": "0x6101406040523480156200001257600080fd5b50604051620050f7380380620050f7833981810160405281019062000038919062000394565b8181858581600090816200004d9190620006e3565b5080600190816200005f9190620006e3565b50505060008280519060200120905060008280519060200120905060007f8b73c3c69bb8fe3d512ecc4cf759cc79239f7b179b0ffacaa9a75d522b39400f90508260e081815250508161010081815250504660a08181525050620000cb8184846200016060201b60201c565b608081815250503073ffffffffffffffffffffffffffffffffffffffff1660c08173ffffffffffffffffffffffffffffffffffffffff1681525050806101208181525050505050505084600c60006101000a81548173ffffffffffffffffffffffffffffffffffffffff021916908373ffffffffffffffffffffffffffffffffffffffff160217905550505050505062000878565b600083838346306040516020016200017d9594939291906200081b565b6040516020818303038152906040528051906020012090509392505050565b6000604051905090565b600080fd5b600080fd5b600073ffffffffffffffffffffffffffffffffffffffff82169050919050565b6000620001dd82620001b0565b9050919050565b620001ef81620001d0565b8114620001fb57600080fd5b50565b6000815190506200020f81620001e4565b92915050565b600080fd5b600080fd5b6000601f19601f8301169050919050565b7f4e487b7100000000000000000000000000000000000000000000000000000000600052604160045260246000fd5b6200026a826200021f565b810181811067ffffffffffffffff821117156200028c576200028b62000230565b5b80604052505050565b6000620002a16200019c565b9050620002af82826200025f565b919050565b600067ffffffffffffffff821115620002d257620002d162000230565b5b620002dd826200021f565b9050602081019050919050565b60005b838110156200030a578082015181840152602081019050620002ed565b60008484015250505050565b60006200032d6200032784620002b4565b62000295565b9050828152602081018484840111156200034c576200034b6200021a565b5b62000359848285620002ea565b509392505050565b600082601f83011262000379576200037862000215565b5b81516200038b84826020860162000316565b91505092915050565b600080600080600060a08688031215620003b357620003b2620001a6565b5b6000620003c388828901620001fe565b955050602086015167ffffffffffffffff811115620003e757620003e6620001ab565b5b620003f58882890162000361565b945050604086015167ffffffffffffffff811115620004195762000418620001ab565b5b620004278882890162000361565b935050606086015167ffffffffffffffff8111156200044b576200044a620001ab565b5b620004598882890162000361565b925050608086015167ffffffffffffffff8111156200047d576200047c620001ab565b5b6200048b8882890162000361565b9150509295509295909350565b600081519050919050565b7f4e487b7100000000000000000000000000000000000000000000000000000000600052602260045260246000fd5b60006002820490506001821680620004eb57607f821691505b602082108103620005015762000500620004a3565b5b50919050565b60008190508160005260206000209050919050565b60006020601f8301049050919050565b600082821b905092915050565b6000600883026200056b7fffffffffffffffffffffffffffffffffffffffffffffffffffffffffffffffff826200052c565b6200057786836200052c565b95508019841693508086168417925050509392505050565b6000819050919050565b6000819050919050565b6000620005c4620005be620005b8846200058f565b62000599565b6200058f565b9050919050565b6000819050919050565b620005e083620005a3565b620005f8620005ef82620005cb565b84845462000539565b825550505050565b600090565b6200060f62000600565b6200061c818484620005d5565b505050565b5b8181101562000644576200063860008262000605565b60018101905062000622565b5050565b601f82111562000693576200065d8162000507565b62000668846200051c565b8101602085101562000678578190505b6200069062000687856200051c565b83018262000621565b50505b505050565b600082821c905092915050565b6000620006b86000198460080262000698565b1980831691505092915050565b6000620006d38383620006a5565b9150826002028217905092915050565b620006ee8262000498565b67ffffffffffffffff8111156200070a576200070962000230565b5b620007168254620004d2565b6200072382828562000648565b600060209050601f8311600181146200075b576000841562000746578287015190505b620007528582620006c5565b865550620007c2565b601f1984166200076b8662000507565b60005b8281101562000795578489015182556001820191506020850194506020810190506200076e565b86831015620007b55784890151620007b1601f891682620006a5565b8355505b6001600288020188555050505b505050505050565b6000819050919050565b620007df81620007ca565b82525050565b620007f0816200058f565b82525050565b60006200080382620001b0565b9050919050565b6200081581620007f6565b82525050565b600060a082019050620008326000830188620007d4565b620008416020830187620007d4565b620008506040830186620007d4565b6200085f6060830185620007e5565b6200086e60808301846200080a565b9695505050505050565b60805160a05160c05160e051610100516101205161482f620008c86000396000611396015260006113d8015260006113b7015260006112ec015260006113420152600061136b015261482f6000f3fe608060405234801561001057600080fd5b50600436106101585760003560e01c80637ecebe00116100c3578063b88d4fde1161007c578063b88d4fde1461040f578063be040fb01461042b578063c3cda52014610435578063c87b56dd14610451578063db5890ee14610481578063e985e9c51461049f57610158565b80637ecebe00146103295780638e539e8c1461035957806395d89b41146103895780639ab24eb0146103a7578063a0ee0398146103d7578063a22cb465146103f357610158565b80633a46b1a8116101155780633a46b1a81461023157806342842e0e14610261578063587cde1e1461027d5780635c19a95c146102ad5780636352211e146102c957806370a08231146102f957610158565b806301ffc9a71461015d57806306fdde031461018d578063081812fc146101ab578063095ea7b3146101db57806323b872dd146101f75780633644e51514610213575b600080fd5b61017760048036038101906101729190612ef6565b6104cf565b6040516101849190612f3e565b60405180910390f35b6101956105b1565b6040516101a29190612fe9565b60405180910390f35b6101c560048036038101906101c09190613041565b610643565b6040516101d291906130af565b60405180910390f35b6101f560048036038101906101f091906130f6565b610689565b005b610211600480360381019061020c9190613136565b6107a0565b005b61021b6107df565b60405161022891906131a2565b60405180910390f35b61024b600480360381019061024691906130f6565b6107ee565b60405161025891906131cc565b60405180910390f35b61027b60048036038101906102769190613136565b610849565b005b610297600480360381019061029291906131e7565b610888565b6040516102a491906130af565b60405180910390f35b6102c760048036038101906102c291906131e7565b6108f1565b005b6102e360048036038101906102de9190613041565b61090b565b6040516102f091906130af565b60405180910390f35b610313600480360381019061030e91906131e7565b610991565b60405161032091906131cc565b60405180910390f35b610343600480360381019061033e91906131e7565b610a48565b60405161035091906131cc565b60405180910390f35b610373600480360381019061036e9190613041565b610a98565b60405161038091906131cc565b60405180910390f35b610391610af7565b60405161039e9190612fe9565b60405180910390f35b6103c160048036038101906103bc91906131e7565b610b89565b6040516103ce91906131cc565b60405180910390f35b6103f160048036038101906103ec91906133ea565b610bf7565b005b61040d6004803603810190610408919061348e565b610cdc565b005b610429600480360381019061042491906134ce565b610cf2565b005b610433610d31565b005b61044f600480360381019061044a91906135b6565b610fb7565b005b61046b60048036038101906104669190613041565b6110bb565b6040516104789190612fe9565b60405180910390f35b6104896110cd565b60405161049691906131cc565b60405180910390f35b6104b960048036038101906104b49190613643565b6110de565b6040516104c69190612f3e565b60405180910390f35b60007f80ac58cd000000000000000000000000000000000000000000000000000000007bffffffffffffffffffffffffffffffffffffffffffffffffffffffff1916827bffffffffffffffffffffffffffffffffffffffffffffffffffffffff1916148061059a57507f5b5e139f000000000000000000000000000000000000000000000000000000007bffffffffffffffffffffffffffffffffffffffffffffffffffffffff1916827bffffffffffffffffffffffffffffffffffffffffffffffffffffffff1916145b806105aa57506105a982611172565b5b9050919050565b6060600080546105c0906136b2565b80601f01602080910402602001604051908101604052809291908181526020018280546105ec906136b2565b80156106395780601f1061060e57610100808354040283529160200191610639565b820191906000526020600020905b81548152906001019060200180831161061c57829003601f168201915b5050505050905090565b600061064e826111dc565b6004600083815260200190815260200160002060009054906101000a900473ffffffffffffffffffffffffffffffffffffffff169050919050565b60006106948261090b565b90508073ffffffffffffffffffffffffffffffffffffffff168373ffffffffffffffffffffffffffffffffffffffff1603610704576040517f08c379a00000000000000000000000000000000000000000000000000000000081526004016106fb90613755565b60405180910390fd5b8073ffffffffffffffffffffffffffffffffffffffff16610723611227565b73ffffffffffffffffffffffffffffffffffffffff16148061075257506107518161074c611227565b6110de565b5b610791576040517f08c379a0000000000000000000000000000000000000000000000000000000008152600401610788906137e7565b60405180910390fd5b61079b838361122f565b505050565b80836040517f96f739720000000000000000000000000000000000000000000000000000000081526004016107d6929190613807565b60405180910390fd5b60006107e96112e8565b905090565b600061084182600860008673ffffffffffffffffffffffffffffffffffffffff1673ffffffffffffffffffffffffffffffffffffffff16815260200190815260200160002061140290919063ffffffff16565b905092915050565b80836040517f96f7397200000000000000000000000000000000000000000000000000000000815260040161087f929190613807565b60405180910390fd5b6000600760008373ffffffffffffffffffffffffffffffffffffffff1673ffffffffffffffffffffffffffffffffffffffff16815260200190815260200160002060009054906101000a900473ffffffffffffffffffffffffffffffffffffffff169050919050565b60006108fb611227565b90506109078183611567565b5050565b6000806109178361167b565b9050600073ffffffffffffffffffffffffffffffffffffffff168173ffffffffffffffffffffffffffffffffffffffff1603610988576040517f08c379a000000000000000000000000000000000000000000000000000000000815260040161097f9061387c565b60405180910390fd5b80915050919050565b60008073ffffffffffffffffffffffffffffffffffffffff168273ffffffffffffffffffffffffffffffffffffffff1603610a01576040517f08c379a00000000000000000000000000000000000000000000000000000000081526004016109f89061390e565b60405180910390fd5b600360008373ffffffffffffffffffffffffffffffffffffffff1673ffffffffffffffffffffffffffffffffffffffff168152602001908152602001600020549050919050565b6000610a91600a60008473ffffffffffffffffffffffffffffffffffffffff1673ffffffffffffffffffffffffffffffffffffffff1681526020019081526020016000206116b8565b9050919050565b6000438210610adc576040517f08c379a0000000000000000000000000000000000000000000000000000000008152600401610ad39061397a565b60405180910390fd5b610af082600961140290919063ffffffff16565b9050919050565b606060018054610b06906136b2565b80601f0160208091040260200160405190810160405280929190818152602001828054610b32906136b2565b8015610b7f5780601f10610b5457610100808354040283529160200191610b7f565b820191906000526020600020905b815481529060010190602001808311610b6257829003601f168201915b5050505050905090565b6000610bd2600860008473ffffffffffffffffffffffffffffffffffffffff1673ffffffffffffffffffffffffffffffffffffffff1681526020019081526020016000206116c6565b7bffffffffffffffffffffffffffffffffffffffffffffffffffffffff169050919050565b6000610c0233610991565b1115610c475781336040517f6ed18983000000000000000000000000000000000000000000000000000000008152600401610c3e92919061399a565b60405180910390fd5b600c60009054906101000a900473ffffffffffffffffffffffffffffffffffffffff1673ffffffffffffffffffffffffffffffffffffffff16637e81180b3384846040518463ffffffff1660e01b8152600401610ca693929190613a1f565b600060405180830381600087803b158015610cc057600080fd5b505af1158015610cd4573d6000803e3d6000fd5b505050505050565b610cee610ce7611227565b8383611730565b5050565b81846040517f96f73972000000000000000000000000000000000000000000000000000000008152600401610d28929190613807565b60405180910390fd5b6000600c60009054906101000a900473ffffffffffffffffffffffffffffffffffffffff1673ffffffffffffffffffffffffffffffffffffffff166367e2efc6336040518263ffffffff1660e01b8152600401610d8e91906130af565b600060405180830381865afa158015610dab573d6000803e3d6000fd5b505050506040513d6000823e3d601f19601f82011682018060405250810190610dd49190613bc8565b9050610de0600b61189c565b6000610dec600b6116b8565b905060006003811115610e0257610e01613c11565b5b82606001516003811115610e1957610e18613c11565b5b03610e50576040517fa327aa6e00000000000000000000000000000000000000000000000000000000815260040160405180910390fd5b60026003811115610e6457610e63613c11565b5b82606001516003811115610e7b57610e7a613c11565b5b03610eee57610e8a33826118b2565b610e98818360400151611acf565b8160000151604051610eaa9190613c7c565b60405180910390207fb73edb4a53ab5c1b92005f045c681306e181d89db6db10f7d9dd56a03c85b74933604051610ee191906130af565b60405180910390a2610fb3565b60016003811115610f0257610f01613c11565b5b82606001516003811115610f1957610f18613c11565b5b03610f50576040517f6758744d00000000000000000000000000000000000000000000000000000000815260040160405180910390fd5b60016003811115610f6457610f63613c11565b5b82606001516003811115610f7b57610f7a613c11565b5b03610fb2576040517fe6cedaf300000000000000000000000000000000000000000000000000000000815260040160405180910390fd5b5b5050565b83421115610ffa576040517f08c379a0000000000000000000000000000000000000000000000000000000008152600401610ff190613cdf565b60405180910390fd5b600061105c6110547fe48329057bfd03d55e49b547132e39cffd9c1820ad7b9d4c5307691425d15adf8989896040516020016110399493929190613cff565b60405160208183030381529060405280519060200120611b3c565b858585611b56565b905061106781611b81565b86146110a8576040517f08c379a000000000000000000000000000000000000000000000000000000000815260040161109f90613d90565b60405180910390fd5b6110b28188611567565b50505050505050565b60606110c682611bdf565b9050919050565b60006110d9600b6116b8565b905090565b6000600560008473ffffffffffffffffffffffffffffffffffffffff1673ffffffffffffffffffffffffffffffffffffffff16815260200190815260200160002060008373ffffffffffffffffffffffffffffffffffffffff1673ffffffffffffffffffffffffffffffffffffffff16815260200190815260200160002060009054906101000a900460ff16905092915050565b60007f01ffc9a7000000000000000000000000000000000000000000000000000000007bffffffffffffffffffffffffffffffffffffffffffffffffffffffff1916827bffffffffffffffffffffffffffffffffffffffffffffffffffffffff1916149050919050565b6111e581611cf1565b611224576040517f08c379a000000000000000000000000000000000000000000000000000000000815260040161121b9061387c565b60405180910390fd5b50565b600033905090565b816004600083815260200190815260200160002060006101000a81548173ffffffffffffffffffffffffffffffffffffffff021916908373ffffffffffffffffffffffffffffffffffffffff160217905550808273ffffffffffffffffffffffffffffffffffffffff166112a28361090b565b73ffffffffffffffffffffffffffffffffffffffff167f8c5be1e5ebec7d5bd14f71427d1e84f3dd0314c0f7b2291e5b200ac8c7c3b92560405160405180910390a45050565b60007f000000000000000000000000000000000000000000000000000000000000000073ffffffffffffffffffffffffffffffffffffffff163073ffffffffffffffffffffffffffffffffffffffff1614801561136457507f000000000000000000000000000000000000000000000000000000000000000046145b15611391577f000000000000000000000000000000000000000000000000000000000000000090506113ff565b6113fc7f00000000000000000000000000000000000000000000000000000000000000007f00000000000000000000000000000000000000000000000000000000000000007f0000000000000000000000000000000000000000000000000000000000000000611d32565b90505b90565b6000438210611446576040517f08c379a000000000000000000000000000000000000000000000000000000000815260040161143d90613dfc565b60405180910390fd5b600061145183611d6c565b905060008460000180549050905060008082905060058311156114d457600061147984611dbf565b846114849190613e4b565b90506114938860000182611eb8565b60000160009054906101000a900463ffffffff1663ffffffff168563ffffffff1610156114c2578091506114d2565b6001816114cf9190613e7f565b92505b505b60006114e588600001868585611ecd565b90506000811461153957611508886000016001836115039190613e4b565b611eb8565b60000160049054906101000a90047bffffffffffffffffffffffffffffffffffffffffffffffffffffffff1661153c565b60005b7bffffffffffffffffffffffffffffffffffffffffffffffffffffffff169550505050505092915050565b600061157283610888565b905081600760008573ffffffffffffffffffffffffffffffffffffffff1673ffffffffffffffffffffffffffffffffffffffff16815260200190815260200160002060006101000a81548173ffffffffffffffffffffffffffffffffffffffff021916908373ffffffffffffffffffffffffffffffffffffffff1602179055508173ffffffffffffffffffffffffffffffffffffffff168173ffffffffffffffffffffffffffffffffffffffff168473ffffffffffffffffffffffffffffffffffffffff167f3134e8a2e6d97e929a7e54011ea5485d7d196dd5f0ba4d4ef95803e8e3fc257f60405160405180910390a4611676818361167186611f40565b611f52565b505050565b60006002600083815260200190815260200160002060009054906101000a900473ffffffffffffffffffffffffffffffffffffffff169050919050565b600081600001549050919050565b6000808260000180549050905060008114611725576116f4836000016001836116ef9190613e4b565b611eb8565b60000160049054906101000a90047bffffffffffffffffffffffffffffffffffffffffffffffffffffffff16611728565b60005b915050919050565b8173ffffffffffffffffffffffffffffffffffffffff168373ffffffffffffffffffffffffffffffffffffffff160361179e576040517f08c379a000000000000000000000000000000000000000000000000000000000815260040161179590613eff565b60405180910390fd5b80600560008573ffffffffffffffffffffffffffffffffffffffff1673ffffffffffffffffffffffffffffffffffffffff16815260200190815260200160002060008473ffffffffffffffffffffffffffffffffffffffff1673ffffffffffffffffffffffffffffffffffffffff16815260200190815260200160002060006101000a81548160ff0219169083151502179055508173ffffffffffffffffffffffffffffffffffffffff168373ffffffffffffffffffffffffffffffffffffffff167f17307eab39ab6107e8899845ad3d59bd9653f200f220920489ca2b5937696c318360405161188f9190612f3e565b60405180910390a3505050565b6001816000016000828254019250508190555050565b600073ffffffffffffffffffffffffffffffffffffffff168273ffffffffffffffffffffffffffffffffffffffff1603611921576040517f08c379a000000000000000000000000000000000000000000000000000000000815260040161191890613f6b565b60405180910390fd5b61192a81611cf1565b1561196a576040517f08c379a000000000000000000000000000000000000000000000000000000000815260040161196190613fd7565b60405180910390fd5b61197860008383600161215f565b61198181611cf1565b156119c1576040517f08c379a00000000000000000000000000000000000000000000000000000000081526004016119b890613fd7565b60405180910390fd5b6001600360008473ffffffffffffffffffffffffffffffffffffffff1673ffffffffffffffffffffffffffffffffffffffff16815260200190815260200160002060008282540192505081905550816002600083815260200190815260200160002060006101000a81548173ffffffffffffffffffffffffffffffffffffffff021916908373ffffffffffffffffffffffffffffffffffffffff160217905550808273ffffffffffffffffffffffffffffffffffffffff16600073ffffffffffffffffffffffffffffffffffffffff167fddf252ad1be2c89b69c2b068fc378daa952ba7f163c4a11628f55a4df523b3ef60405160405180910390a4611acb600083836001612285565b5050565b611ad882611cf1565b611b17576040517f08c379a0000000000000000000000000000000000000000000000000000000008152600401611b0e90614069565b60405180910390fd5b80600660008481526020019081526020016000209081611b379190614235565b505050565b6000611b4f611b496112e8565b83612297565b9050919050565b6000806000611b67878787876122ca565b91509150611b74816123ac565b8192505050949350505050565b600080600a60008473ffffffffffffffffffffffffffffffffffffffff1673ffffffffffffffffffffffffffffffffffffffff1681526020019081526020016000209050611bce816116b8565b9150611bd98161189c565b50919050565b6060611bea826111dc565b6000600660008481526020019081526020016000208054611c0a906136b2565b80601f0160208091040260200160405190810160405280929190818152602001828054611c36906136b2565b8015611c835780601f10611c5857610100808354040283529160200191611c83565b820191906000526020600020905b815481529060010190602001808311611c6657829003601f168201915b505050505090506000611c94612512565b90506000815103611ca9578192505050611cec565b600082511115611cde578082604051602001611cc6929190614307565b60405160208183030381529060405292505050611cec565b611ce784612529565b925050505b919050565b60008073ffffffffffffffffffffffffffffffffffffffff16611d138361167b565b73ffffffffffffffffffffffffffffffffffffffff1614159050919050565b60008383834630604051602001611d4d95949392919061432b565b6040516020818303038152906040528051906020012090509392505050565b600063ffffffff8016821115611db7576040517f08c379a0000000000000000000000000000000000000000000000000000000008152600401611dae906143f0565b60405180910390fd5b819050919050565b6000808203611dd15760009050611eb3565b60006001611dde84612591565b901c6001901b90506001818481611df857611df7614410565b5b048201901c90506001818481611e1157611e10614410565b5b048201901c90506001818481611e2a57611e29614410565b5b048201901c90506001818481611e4357611e42614410565b5b048201901c90506001818481611e5c57611e5b614410565b5b048201901c90506001818481611e7557611e74614410565b5b048201901c90506001818481611e8e57611e8d614410565b5b048201901c9050611eaf81828581611ea957611ea8614410565b5b04612672565b9150505b919050565b60008260005281602060002001905092915050565b60005b81831015611f35576000611ee4848461268b565b90508463ffffffff16611ef78783611eb8565b60000160009054906101000a900463ffffffff1663ffffffff161115611f1f57809250611f2f565b600181611f2c9190613e7f565b93505b50611ed0565b819050949350505050565b6000611f4b82610991565b9050919050565b8173ffffffffffffffffffffffffffffffffffffffff168373ffffffffffffffffffffffffffffffffffffffff1614158015611f8e5750600081115b1561215a57600073ffffffffffffffffffffffffffffffffffffffff168373ffffffffffffffffffffffffffffffffffffffff16146120765760008061201f6126b184600860008973ffffffffffffffffffffffffffffffffffffffff1673ffffffffffffffffffffffffffffffffffffffff1681526020019081526020016000206126c79092919063ffffffff16565b915091508473ffffffffffffffffffffffffffffffffffffffff167fdec2bacdd2f05b59de34da9b523dff8be42e5e38e818c82fdb0bae774387a724838360405161206b92919061443f565b60405180910390a250505b600073ffffffffffffffffffffffffffffffffffffffff168273ffffffffffffffffffffffffffffffffffffffff16146121595760008061210261271384600860008873ffffffffffffffffffffffffffffffffffffffff1673ffffffffffffffffffffffffffffffffffffffff1681526020019081526020016000206126c79092919063ffffffff16565b915091508373ffffffffffffffffffffffffffffffffffffffff167fdec2bacdd2f05b59de34da9b523dff8be42e5e38e818c82fdb0bae774387a724838360405161214e92919061443f565b60405180910390a250505b5b505050565b600181111561227f57600073ffffffffffffffffffffffffffffffffffffffff168473ffffffffffffffffffffffffffffffffffffffff16146121f35780600360008673ffffffffffffffffffffffffffffffffffffffff1673ffffffffffffffffffffffffffffffffffffffff16815260200190815260200160002060008282546121eb9190613e4b565b925050819055505b600073ffffffffffffffffffffffffffffffffffffffff168373ffffffffffffffffffffffffffffffffffffffff161461227e5780600360008573ffffffffffffffffffffffffffffffffffffffff1673ffffffffffffffffffffffffffffffffffffffff16815260200190815260200160002060008282546122769190613e7f565b925050819055505b5b50505050565b61229184848484612729565b50505050565b600082826040516020016122ac9291906144d5565b60405160208183030381529060405280519060200120905092915050565b6000807f7fffffffffffffffffffffffffffffff5d576e7357a4501ddfe92f46681b20a08360001c11156123055760006003915091506123a3565b60006001878787876040516000815260200160405260405161232a949392919061451b565b6020604051602081039080840390855afa15801561234c573d6000803e3d6000fd5b505050602060405103519050600073ffffffffffffffffffffffffffffffffffffffff168173ffffffffffffffffffffffffffffffffffffffff160361239a576000600192509250506123a3565b80600092509250505b94509492505050565b600060048111156123c0576123bf613c11565b5b8160048111156123d3576123d2613c11565b5b031561250f57600160048111156123ed576123ec613c11565b5b816004811115612400576123ff613c11565b5b03612440576040517f08c379a0000000000000000000000000000000000000000000000000000000008152600401612437906145ac565b60405180910390fd5b6002600481111561245457612453613c11565b5b81600481111561246757612466613c11565b5b036124a7576040517f08c379a000000000000000000000000000000000000000000000000000000000815260040161249e90614618565b60405180910390fd5b600360048111156124bb576124ba613c11565b5b8160048111156124ce576124cd613c11565b5b0361250e576040517f08c379a0000000000000000000000000000000000000000000000000000000008152600401612505906146aa565b60405180910390fd5b5b50565b606060405180602001604052806000815250905090565b6060612534826111dc565b600061253e612512565b9050600081511161255e5760405180602001604052806000815250612589565b8061256884612746565b604051602001612579929190614307565b6040516020818303038152906040525b915050919050565b600080600090506000608084901c11156125b357608083901c92506080810190505b6000604084901c11156125ce57604083901c92506040810190505b6000602084901c11156125e957602083901c92506020810190505b6000601084901c111561260457601083901c92506010810190505b6000600884901c111561261f57600883901c92506008810190505b6000600484901c111561263a57600483901c92506004810190505b6000600284901c111561265557600283901c92506002810190505b6000600184901c1115612669576001810190505b80915050919050565b60008183106126815781612683565b825b905092915050565b6000600282841861269c91906146ca565b8284166126a99190613e7f565b905092915050565b600081836126bf9190613e4b565b905092915050565b600080612707856127026126da886116c6565b7bffffffffffffffffffffffffffffffffffffffffffffffffffffffff16868863ffffffff16565b612814565b91509150935093915050565b600081836127219190613e7f565b905092915050565b612734848483612882565b61274084848484612940565b50505050565b60606000600161275584612946565b01905060008167ffffffffffffffff8111156127745761277361321e565b5b6040519080825280601f01601f1916602001820160405280156127a65781602001600182028036833780820191505090505b509050600082602001820190505b600115612809578080600190039150507f3031323334353637383961626364656600000000000000000000000000000000600a86061a8153600a85816127fd576127fc614410565b5b049450600085036127b4575b819350505050919050565b6000806128358460000161282743611d6c565b61283086612a99565b612b04565b817bffffffffffffffffffffffffffffffffffffffffffffffffffffffff169150807bffffffffffffffffffffffffffffffffffffffffffffffffffffffff169050915091509250929050565b600073ffffffffffffffffffffffffffffffffffffffff168373ffffffffffffffffffffffffffffffffffffffff16036128d1576128ce6127138260096126c79092919063ffffffff16565b50505b600073ffffffffffffffffffffffffffffffffffffffff168273ffffffffffffffffffffffffffffffffffffffff16036129205761291d6126b18260096126c79092919063ffffffff16565b50505b61293b61292c84610888565b61293584610888565b83611f52565b505050565b50505050565b600080600090507a184f03e93ff9f4daa797ed6e38ed64bf6a1f01000000000000000083106129a4577a184f03e93ff9f4daa797ed6e38ed64bf6a1f010000000000000000838161299a57612999614410565b5b0492506040810190505b6d04ee2d6d415b85acef810000000083106129e1576d04ee2d6d415b85acef810000000083816129d7576129d6614410565b5b0492506020810190505b662386f26fc100008310612a1057662386f26fc100008381612a0657612a05614410565b5b0492506010810190505b6305f5e1008310612a39576305f5e1008381612a2f57612a2e614410565b5b0492506008810190505b6127108310612a5e576127108381612a5457612a53614410565b5b0492506004810190505b60648310612a815760648381612a7757612a76614410565b5b0492506002810190505b600a8310612a90576001810190505b80915050919050565b60007bffffffffffffffffffffffffffffffffffffffffffffffffffffffff8016821115612afc576040517f08c379a0000000000000000000000000000000000000000000000000000000008152600401612af39061476d565b60405180910390fd5b819050919050565b6000806000858054905090506000811115612d9a576000612b3187600184612b2c9190613e4b565b611eb8565b6040518060400160405290816000820160009054906101000a900463ffffffff1663ffffffff1663ffffffff1681526020016000820160049054906101000a90047bffffffffffffffffffffffffffffffffffffffffffffffffffffffff167bffffffffffffffffffffffffffffffffffffffffffffffffffffffff167bffffffffffffffffffffffffffffffffffffffffffffffffffffffff168152505090508563ffffffff16816000015163ffffffff161115612c25576040517f08c379a0000000000000000000000000000000000000000000000000000000008152600401612c1c906147d9565b60405180910390fd5b8563ffffffff16816000015163ffffffff1603612ca95784612c5388600185612c4e9190613e4b565b611eb8565b60000160046101000a8154817bffffffffffffffffffffffffffffffffffffffffffffffffffffffff02191690837bffffffffffffffffffffffffffffffffffffffffffffffffffffffff160217905550612d89565b8660405180604001604052808863ffffffff168152602001877bffffffffffffffffffffffffffffffffffffffffffffffffffffffff168152509080600181540180825580915050600190039060005260206000200160009091909190915060008201518160000160006101000a81548163ffffffff021916908363ffffffff16021790555060208201518160000160046101000a8154817bffffffffffffffffffffffffffffffffffffffffffffffffffffffff02191690837bffffffffffffffffffffffffffffffffffffffffffffffffffffffff16021790555050505b806020015185935093505050612e82565b8560405180604001604052808763ffffffff168152602001867bffffffffffffffffffffffffffffffffffffffffffffffffffffffff168152509080600181540180825580915050600190039060005260206000200160009091909190915060008201518160000160006101000a81548163ffffffff021916908363ffffffff16021790555060208201518160000160046101000a8154817bffffffffffffffffffffffffffffffffffffffffffffffffffffffff02191690837bffffffffffffffffffffffffffffffffffffffffffffffffffffffff160217905550505060008492509250505b935093915050565b6000604051905090565b600080fd5b600080fd5b60007fffffffff0000000000000000000000000000000000000000000000000000000082169050919050565b612ed381612e9e565b8114612ede57600080fd5b50565b600081359050612ef081612eca565b92915050565b600060208284031215612f0c57612f0b612e94565b5b6000612f1a84828501612ee1565b91505092915050565b60008115159050919050565b612f3881612f23565b82525050565b6000602082019050612f536000830184612f2f565b92915050565b600081519050919050565b600082825260208201905092915050565b60005b83811015612f93578082015181840152602081019050612f78565b60008484015250505050565b6000601f19601f8301169050919050565b6000612fbb82612f59565b612fc58185612f64565b9350612fd5818560208601612f75565b612fde81612f9f565b840191505092915050565b600060208201905081810360008301526130038184612fb0565b905092915050565b6000819050919050565b61301e8161300b565b811461302957600080fd5b50565b60008135905061303b81613015565b92915050565b60006020828403121561305757613056612e94565b5b60006130658482850161302c565b91505092915050565b600073ffffffffffffffffffffffffffffffffffffffff82169050919050565b60006130998261306e565b9050919050565b6130a98161308e565b82525050565b60006020820190506130c460008301846130a0565b92915050565b6130d38161308e565b81146130de57600080fd5b50565b6000813590506130f0816130ca565b92915050565b6000806040838503121561310d5761310c612e94565b5b600061311b858286016130e1565b925050602061312c8582860161302c565b9150509250929050565b60008060006060848603121561314f5761314e612e94565b5b600061315d868287016130e1565b935050602061316e868287016130e1565b925050604061317f8682870161302c565b9150509250925092565b6000819050919050565b61319c81613189565b82525050565b60006020820190506131b76000830184613193565b92915050565b6131c68161300b565b82525050565b60006020820190506131e160008301846131bd565b92915050565b6000602082840312156131fd576131fc612e94565b5b600061320b848285016130e1565b91505092915050565b600080fd5b600080fd5b7f4e487b7100000000000000000000000000000000000000000000000000000000600052604160045260246000fd5b61325682612f9f565b810181811067ffffffffffffffff821117156132755761327461321e565b5b80604052505050565b6000613288612e8a565b9050613294828261324d565b919050565b600067ffffffffffffffff8211156132b4576132b361321e565b5b6132bd82612f9f565b9050602081019050919050565b82818337600083830152505050565b60006132ec6132e784613299565b61327e565b90508281526020810184848401111561330857613307613219565b5b6133138482856132ca565b509392505050565b600082601f8301126133305761332f613214565b5b81356133408482602086016132d9565b91505092915050565b600067ffffffffffffffff8211156133645761336361321e565b5b61336d82612f9f565b9050602081019050919050565b600061338d61338884613349565b61327e565b9050828152602081018484840111156133a9576133a8613219565b5b6133b48482856132ca565b509392505050565b600082601f8301126133d1576133d0613214565b5b81356133e184826020860161337a565b91505092915050565b6000806040838503121561340157613400612e94565b5b600083013567ffffffffffffffff81111561341f5761341e612e99565b5b61342b8582860161331b565b925050602083013567ffffffffffffffff81111561344c5761344b612e99565b5b613458858286016133bc565b9150509250929050565b61346b81612f23565b811461347657600080fd5b50565b60008135905061348881613462565b92915050565b600080604083850312156134a5576134a4612e94565b5b60006134b3858286016130e1565b92505060206134c485828601613479565b9150509250929050565b600080600080608085870312156134e8576134e7612e94565b5b60006134f6878288016130e1565b9450506020613507878288016130e1565b93505060406135188782880161302c565b925050606085013567ffffffffffffffff81111561353957613538612e99565b5b613545878288016133bc565b91505092959194509250565b600060ff82169050919050565b61356781613551565b811461357257600080fd5b50565b6000813590506135848161355e565b92915050565b61359381613189565b811461359e57600080fd5b50565b6000813590506135b08161358a565b92915050565b60008060008060008060c087890312156135d3576135d2612e94565b5b60006135e189828a016130e1565b96505060206135f289828a0161302c565b955050604061360389828a0161302c565b945050606061361489828a01613575565b935050608061362589828a016135a1565b92505060a061363689828a016135a1565b9150509295509295509295565b6000806040838503121561365a57613659612e94565b5b6000613668858286016130e1565b9250506020613679858286016130e1565b9150509250929050565b7f4e487b7100000000000000000000000000000000000000000000000000000000600052602260045260246000fd5b600060028204905060018216806136ca57607f821691505b6020821081036136dd576136dc613683565b5b50919050565b7f4552433732313a20617070726f76616c20746f2063757272656e74206f776e6560008201527f7200000000000000000000000000000000000000000000000000000000000000602082015250565b600061373f602183612f64565b915061374a826136e3565b604082019050919050565b6000602082019050818103600083015261376e81613732565b9050919050565b7f4552433732313a20617070726f76652063616c6c6572206973206e6f7420746f60008201527f6b656e206f776e6572206f7220617070726f76656420666f7220616c6c000000602082015250565b60006137d1603d83612f64565b91506137dc82613775565b604082019050919050565b60006020820190508181036000830152613800816137c4565b9050919050565b600060408201905061381c60008301856131bd565b61382960208301846130a0565b9392505050565b7f4552433732313a20696e76616c696420746f6b656e2049440000000000000000600082015250565b6000613866601883612f64565b915061387182613830565b602082019050919050565b6000602082019050818103600083015261389581613859565b9050919050565b7f4552433732313a2061646472657373207a65726f206973206e6f74206120766160008201527f6c6964206f776e65720000000000000000000000000000000000000000000000602082015250565b60006138f8602983612f64565b91506139038261389c565b604082019050919050565b60006020820190508181036000830152613927816138eb565b9050919050565b7f566f7465733a20626c6f636b206e6f7420796574206d696e6564000000000000600082015250565b6000613964601a83612f64565b915061396f8261392e565b602082019050919050565b6000602082019050818103600083015261399381613957565b9050919050565b600060408201905081810360008301526139b48185612fb0565b90506139c360208301846130a0565b9392505050565b600081519050919050565b600082825260208201905092915050565b60006139f1826139ca565b6139fb81856139d5565b9350613a0b818560208601612f75565b613a1481612f9f565b840191505092915050565b6000606082019050613a3460008301866130a0565b8181036020830152613a468185612fb0565b90508181036040830152613a5a81846139e6565b9050949350505050565b600080fd5b600080fd5b6000613a81613a7c84613299565b61327e565b905082815260208101848484011115613a9d57613a9c613219565b5b613aa8848285612f75565b509392505050565b600082601f830112613ac557613ac4613214565b5b8151613ad5848260208601613a6e565b91505092915050565b600081519050613aed81613015565b92915050565b60048110613b0057600080fd5b50565b600081519050613b1281613af3565b92915050565b600060808284031215613b2e57613b2d613a64565b5b613b38608061327e565b9050600082015167ffffffffffffffff811115613b5857613b57613a69565b5b613b6484828501613ab0565b6000830152506020613b7884828501613ade565b602083015250604082015167ffffffffffffffff811115613b9c57613b9b613a69565b5b613ba884828501613ab0565b6040830152506060613bbc84828501613b03565b60608301525092915050565b600060208284031215613bde57613bdd612e94565b5b600082015167ffffffffffffffff811115613bfc57613bfb612e99565b5b613c0884828501613b18565b91505092915050565b7f4e487b7100000000000000000000000000000000000000000000000000000000600052602160045260246000fd5b600081905092915050565b6000613c5682612f59565b613c608185613c40565b9350613c70818560208601612f75565b80840191505092915050565b6000613c888284613c4b565b915081905092915050565b7f566f7465733a207369676e617475726520657870697265640000000000000000600082015250565b6000613cc9601883612f64565b9150613cd482613c93565b602082019050919050565b60006020820190508181036000830152613cf881613cbc565b9050919050565b6000608082019050613d146000830187613193565b613d2160208301866130a0565b613d2e60408301856131bd565b613d3b60608301846131bd565b95945050505050565b7f566f7465733a20696e76616c6964206e6f6e6365000000000000000000000000600082015250565b6000613d7a601483612f64565b9150613d8582613d44565b602082019050919050565b60006020820190508181036000830152613da981613d6d565b9050919050565b7f436865636b706f696e74733a20626c6f636b206e6f7420796574206d696e6564600082015250565b6000613de6602083612f64565b9150613df182613db0565b602082019050919050565b60006020820190508181036000830152613e1581613dd9565b9050919050565b7f4e487b7100000000000000000000000000000000000000000000000000000000600052601160045260246000fd5b6000613e568261300b565b9150613e618361300b565b9250828203905081811115613e7957613e78613e1c565b5b92915050565b6000613e8a8261300b565b9150613e958361300b565b9250828201905080821115613ead57613eac613e1c565b5b92915050565b7f4552433732313a20617070726f766520746f2063616c6c657200000000000000600082015250565b6000613ee9601983612f64565b9150613ef482613eb3565b602082019050919050565b60006020820190508181036000830152613f1881613edc565b9050919050565b7f4552433732313a206d696e7420746f20746865207a65726f2061646472657373600082015250565b6000613f55602083612f64565b9150613f6082613f1f565b602082019050919050565b60006020820190508181036000830152613f8481613f48565b9050919050565b7f4552433732313a20746f6b656e20616c7265616479206d696e74656400000000600082015250565b6000613fc1601c83612f64565b9150613fcc82613f8b565b602082019050919050565b60006020820190508181036000830152613ff081613fb4565b9050919050565b7f45524337323155524953746f726167653a2055524920736574206f66206e6f6e60008201527f6578697374656e7420746f6b656e000000000000000000000000000000000000602082015250565b6000614053602e83612f64565b915061405e82613ff7565b604082019050919050565b6000602082019050818103600083015261408281614046565b9050919050565b60008190508160005260206000209050919050565b60006020601f8301049050919050565b600082821b905092915050565b6000600883026140eb7fffffffffffffffffffffffffffffffffffffffffffffffffffffffffffffffff826140ae565b6140f586836140ae565b95508019841693508086168417925050509392505050565b6000819050919050565b600061413261412d6141288461300b565b61410d565b61300b565b9050919050565b6000819050919050565b61414c83614117565b61416061415882614139565b8484546140bb565b825550505050565b600090565b614175614168565b614180818484614143565b505050565b5b818110156141a45761419960008261416d565b600181019050614186565b5050565b601f8211156141e9576141ba81614089565b6141c38461409e565b810160208510156141d2578190505b6141e66141de8561409e565b830182614185565b50505b505050565b600082821c905092915050565b600061420c600019846008026141ee565b1980831691505092915050565b600061422583836141fb565b9150826002028217905092915050565b61423e82612f59565b67ffffffffffffffff8111156142575761425661321e565b5b61426182546136b2565b61426c8282856141a8565b600060209050601f83116001811461429f576000841561428d578287015190505b6142978582614219565b8655506142ff565b601f1984166142ad86614089565b60005b828110156142d5578489015182556001820191506020850194506020810190506142b0565b868310156142f257848901516142ee601f8916826141fb565b8355505b6001600288020188555050505b505050505050565b60006143138285613c4b565b915061431f8284613c4b565b91508190509392505050565b600060a0820190506143406000830188613193565b61434d6020830187613193565b61435a6040830186613193565b61436760608301856131bd565b61437460808301846130a0565b9695505050505050565b7f53616665436173743a2076616c756520646f65736e27742066697420696e203360008201527f3220626974730000000000000000000000000000000000000000000000000000602082015250565b60006143da602683612f64565b91506143e58261437e565b604082019050919050565b60006020820190508181036000830152614409816143cd565b9050919050565b7f4e487b7100000000000000000000000000000000000000000000000000000000600052601260045260246000fd5b600060408201905061445460008301856131bd565b61446160208301846131bd565b9392505050565b7f1901000000000000000000000000000000000000000000000000000000000000600082015250565b600061449e600283613c40565b91506144a982614468565b600282019050919050565b6000819050919050565b6144cf6144ca82613189565b6144b4565b82525050565b60006144e082614491565b91506144ec82856144be565b6020820191506144fc82846144be565b6020820191508190509392505050565b61451581613551565b82525050565b60006080820190506145306000830187613193565b61453d602083018661450c565b61454a6040830185613193565b6145576060830184613193565b95945050505050565b7f45434453413a20696e76616c6964207369676e61747572650000000000000000600082015250565b6000614596601883612f64565b91506145a182614560565b602082019050919050565b600060208201905081810360008301526145c581614589565b9050919050565b7f45434453413a20696e76616c6964207369676e6174757265206c656e67746800600082015250565b6000614602601f83612f64565b915061460d826145cc565b602082019050919050565b60006020820190508181036000830152614631816145f5565b9050919050565b7f45434453413a20696e76616c6964207369676e6174757265202773272076616c60008201527f7565000000000000000000000000000000000000000000000000000000000000602082015250565b6000614694602283612f64565b915061469f82614638565b604082019050919050565b600060208201905081810360008301526146c381614687565b9050919050565b60006146d58261300b565b91506146e08361300b565b9250826146f0576146ef614410565b5b828204905092915050565b7f53616665436173743a2076616c756520646f65736e27742066697420696e203260008201527f3234206269747300000000000000000000000000000000000000000000000000602082015250565b6000614757602783612f64565b9150614762826146fb565b604082019050919050565b600060208201905081810360008301526147868161474a565b9050919050565b7f436865636b706f696e743a20696e76616c6964206b6579000000000000000000600082015250565b60006147c3601783612f64565b91506147ce8261478d565b602082019050919050565b600060208201905081810360008301526147f2816147b6565b905091905056fea264697066735822122094b86a561a93f8f14647360462a7dcdf3f387078df08c37a440279474a503b4364736f6c63430008110033",
  "devdoc": {
    "kind": "dev",
    "methods": {
      "DOMAIN_SEPARATOR()": {
        "details": "Returns the contract's {EIP712} domain separator."
      },
      "approve(address,uint256)": {
        "details": "See {IERC721-approve}."
      },
      "balanceOf(address)": {
        "details": "See {IERC721-balanceOf}."
      },
      "delegate(address)": {
        "details": "Delegates votes from the sender to `delegatee`."
      },
      "delegateBySig(address,uint256,uint256,uint8,bytes32,bytes32)": {
        "details": "Delegates votes from signer to `delegatee`."
      },
      "delegates(address)": {
        "details": "Returns the delegate that `account` has chosen."
      },
      "getApproved(uint256)": {
        "details": "See {IERC721-getApproved}."
      },
      "getPastTotalSupply(uint256)": {
        "details": "Returns the total supply of votes available at the end of a past block (`blockNumber`). NOTE: This value is the sum of all available votes, which is not necessarily the sum of all delegated votes. Votes that have not been delegated are still part of total supply, even though they would not participate in a vote. Requirements: - `blockNumber` must have been already mined"
      },
      "getPastVotes(address,uint256)": {
        "details": "Returns the amount of votes that `account` had at the end of a past block (`blockNumber`). Requirements: - `blockNumber` must have been already mined"
      },
      "getVotes(address)": {
        "details": "Returns the current amount of votes that `account` has."
      },
      "isApprovedForAll(address,address)": {
        "details": "See {IERC721-isApprovedForAll}."
      },
      "name()": {
        "details": "See {IERC721Metadata-name}."
      },
      "nonces(address)": {
        "details": "Returns an address nonce."
      },
      "ownerOf(uint256)": {
        "details": "See {IERC721-ownerOf}."
      },
      "safeTransferFrom(address,address,uint256)": {
        "details": "See {IERC721-safeTransferFrom}."
      },
      "safeTransferFrom(address,address,uint256,bytes)": {
        "details": "See {IERC721-safeTransferFrom}."
      },
      "setApprovalForAll(address,bool)": {
        "details": "See {IERC721-setApprovalForAll}."
      },
      "supportsInterface(bytes4)": {
        "details": "See {IERC165-supportsInterface}."
      },
      "symbol()": {
        "details": "See {IERC721Metadata-symbol}."
      }
    },
    "version": 1
  },
  "userdoc": {
    "kind": "user",
    "methods": {
      "redeem()": {
        "notice": "Redeems an NFTVoucher for an actual NFT, creating it in the process."
      }
    },
    "version": 1
  },
  "storageLayout": {
    "storage": [
      {
        "astId": 7825,
        "contract": "contracts/core/UserIdentityNFT.sol:UserIdentityNFT",
        "label": "_name",
        "offset": 0,
        "slot": "0",
        "type": "t_string_storage"
      },
      {
        "astId": 7827,
        "contract": "contracts/core/UserIdentityNFT.sol:UserIdentityNFT",
        "label": "_symbol",
        "offset": 0,
        "slot": "1",
        "type": "t_string_storage"
      },
      {
        "astId": 7831,
        "contract": "contracts/core/UserIdentityNFT.sol:UserIdentityNFT",
        "label": "_owners",
        "offset": 0,
        "slot": "2",
        "type": "t_mapping(t_uint256,t_address)"
      },
      {
        "astId": 7835,
        "contract": "contracts/core/UserIdentityNFT.sol:UserIdentityNFT",
        "label": "_balances",
        "offset": 0,
        "slot": "3",
        "type": "t_mapping(t_address,t_uint256)"
      },
      {
        "astId": 7839,
        "contract": "contracts/core/UserIdentityNFT.sol:UserIdentityNFT",
        "label": "_tokenApprovals",
        "offset": 0,
        "slot": "4",
        "type": "t_mapping(t_uint256,t_address)"
      },
      {
        "astId": 7845,
        "contract": "contracts/core/UserIdentityNFT.sol:UserIdentityNFT",
        "label": "_operatorApprovals",
        "offset": 0,
        "slot": "5",
        "type": "t_mapping(t_address,t_mapping(t_address,t_bool))"
      },
      {
        "astId": 8891,
        "contract": "contracts/core/UserIdentityNFT.sol:UserIdentityNFT",
        "label": "_tokenURIs",
        "offset": 0,
        "slot": "6",
        "type": "t_mapping(t_uint256,t_string_storage)"
      },
      {
        "astId": 6570,
        "contract": "contracts/core/UserIdentityNFT.sol:UserIdentityNFT",
        "label": "_delegation",
        "offset": 0,
        "slot": "7",
        "type": "t_mapping(t_address,t_address)"
      },
      {
        "astId": 6575,
        "contract": "contracts/core/UserIdentityNFT.sol:UserIdentityNFT",
        "label": "_delegateCheckpoints",
        "offset": 0,
        "slot": "8",
        "type": "t_mapping(t_address,t_struct(History)9423_storage)"
      },
      {
        "astId": 6578,
        "contract": "contracts/core/UserIdentityNFT.sol:UserIdentityNFT",
        "label": "_totalCheckpoints",
        "offset": 0,
        "slot": "9",
        "type": "t_struct(History)9423_storage"
      },
      {
        "astId": 6583,
        "contract": "contracts/core/UserIdentityNFT.sol:UserIdentityNFT",
        "label": "_nonces",
        "offset": 0,
        "slot": "10",
        "type": "t_mapping(t_address,t_struct(Counter)10809_storage)"
      },
      {
        "astId": 15952,
        "contract": "contracts/core/UserIdentityNFT.sol:UserIdentityNFT",
        "label": "idCount",
        "offset": 0,
        "slot": "11",
        "type": "t_struct(Counter)10809_storage"
      },
      {
        "astId": 15955,
        "contract": "contracts/core/UserIdentityNFT.sol:UserIdentityNFT",
        "label": "figureprintOracle",
        "offset": 0,
        "slot": "12",
        "type": "t_contract(FigurePrintOracle)15886"
      }
    ],
    "types": {
      "t_address": {
        "encoding": "inplace",
        "label": "address",
        "numberOfBytes": "20"
      },
      "t_array(t_struct(Checkpoint)9428_storage)dyn_storage": {
        "base": "t_struct(Checkpoint)9428_storage",
        "encoding": "dynamic_array",
        "label": "struct Checkpoints.Checkpoint[]",
        "numberOfBytes": "32"
      },
      "t_bool": {
        "encoding": "inplace",
        "label": "bool",
        "numberOfBytes": "1"
      },
      "t_contract(FigurePrintOracle)15886": {
        "encoding": "inplace",
        "label": "contract FigurePrintOracle",
        "numberOfBytes": "20"
      },
      "t_mapping(t_address,t_address)": {
        "encoding": "mapping",
        "key": "t_address",
        "label": "mapping(address => address)",
        "numberOfBytes": "32",
        "value": "t_address"
      },
      "t_mapping(t_address,t_bool)": {
        "encoding": "mapping",
        "key": "t_address",
        "label": "mapping(address => bool)",
        "numberOfBytes": "32",
        "value": "t_bool"
      },
      "t_mapping(t_address,t_mapping(t_address,t_bool))": {
        "encoding": "mapping",
        "key": "t_address",
        "label": "mapping(address => mapping(address => bool))",
        "numberOfBytes": "32",
        "value": "t_mapping(t_address,t_bool)"
      },
      "t_mapping(t_address,t_struct(Counter)10809_storage)": {
        "encoding": "mapping",
        "key": "t_address",
        "label": "mapping(address => struct Counters.Counter)",
        "numberOfBytes": "32",
        "value": "t_struct(Counter)10809_storage"
      },
      "t_mapping(t_address,t_struct(History)9423_storage)": {
        "encoding": "mapping",
        "key": "t_address",
        "label": "mapping(address => struct Checkpoints.History)",
        "numberOfBytes": "32",
        "value": "t_struct(History)9423_storage"
      },
      "t_mapping(t_address,t_uint256)": {
        "encoding": "mapping",
        "key": "t_address",
        "label": "mapping(address => uint256)",
        "numberOfBytes": "32",
        "value": "t_uint256"
      },
      "t_mapping(t_uint256,t_address)": {
        "encoding": "mapping",
        "key": "t_uint256",
        "label": "mapping(uint256 => address)",
        "numberOfBytes": "32",
        "value": "t_address"
      },
      "t_mapping(t_uint256,t_string_storage)": {
        "encoding": "mapping",
        "key": "t_uint256",
        "label": "mapping(uint256 => string)",
        "numberOfBytes": "32",
        "value": "t_string_storage"
      },
      "t_string_storage": {
        "encoding": "bytes",
        "label": "string",
        "numberOfBytes": "32"
      },
      "t_struct(Checkpoint)9428_storage": {
        "encoding": "inplace",
        "label": "struct Checkpoints.Checkpoint",
        "members": [
          {
            "astId": 9425,
            "contract": "contracts/core/UserIdentityNFT.sol:UserIdentityNFT",
            "label": "_blockNumber",
            "offset": 0,
            "slot": "0",
            "type": "t_uint32"
          },
          {
            "astId": 9427,
            "contract": "contracts/core/UserIdentityNFT.sol:UserIdentityNFT",
            "label": "_value",
            "offset": 4,
            "slot": "0",
            "type": "t_uint224"
          }
        ],
        "numberOfBytes": "32"
      },
      "t_struct(Counter)10809_storage": {
        "encoding": "inplace",
        "label": "struct Counters.Counter",
        "members": [
          {
            "astId": 10808,
            "contract": "contracts/core/UserIdentityNFT.sol:UserIdentityNFT",
            "label": "_value",
            "offset": 0,
            "slot": "0",
            "type": "t_uint256"
          }
        ],
        "numberOfBytes": "32"
      },
      "t_struct(History)9423_storage": {
        "encoding": "inplace",
        "label": "struct Checkpoints.History",
        "members": [
          {
            "astId": 9422,
            "contract": "contracts/core/UserIdentityNFT.sol:UserIdentityNFT",
            "label": "_checkpoints",
            "offset": 0,
            "slot": "0",
            "type": "t_array(t_struct(Checkpoint)9428_storage)dyn_storage"
          }
        ],
        "numberOfBytes": "32"
      },
      "t_uint224": {
        "encoding": "inplace",
        "label": "uint224",
        "numberOfBytes": "28"
      },
      "t_uint256": {
        "encoding": "inplace",
        "label": "uint256",
        "numberOfBytes": "32"
      },
      "t_uint32": {
        "encoding": "inplace",
        "label": "uint32",
        "numberOfBytes": "4"
      }
    }
  }
}