{
  "address": "0xDc64a140Aa3E981100a9becA4E685f962f0cF6C9",
  "abi": [
    {
      "inputs": [
        {
          "internalType": "address payable",
          "name": "_figureprintOracle",
          "type": "address"
        },
        {
          "internalType": "string",
          "name": "name",
          "type": "string"
        },
        {
          "internalType": "string",
          "name": "symbol",
          "type": "string"
        },
        {
          "internalType": "string",
          "name": "signingDomain",
          "type": "string"
        },
        {
          "internalType": "string",
          "name": "signatureVersion",
          "type": "string"
        }
      ],
      "stateMutability": "nonpayable",
      "type": "constructor"
    },
    {
      "inputs": [
        {
          "internalType": "uint256",
          "name": "tokenId",
          "type": "uint256"
        },
        {
          "internalType": "address",
          "name": "from",
          "type": "address"
        }
      ],
      "name": "GovernanceNFT__DirectMintNotAllow",
      "type": "error"
    },
    {
      "inputs": [],
      "name": "GovernanceNFT__FirstVerifyIdenetity",
      "type": "error"
    },
    {
      "inputs": [],
      "name": "GovernanceNFT__NotValidUserToRedeem",
      "type": "error"
    },
    {
      "inputs": [
        {
          "internalType": "uint256",
          "name": "tokenId",
          "type": "uint256"
        },
        {
          "internalType": "address",
          "name": "from",
          "type": "address"
        }
      ],
      "name": "GovernanceNFT__TransferNoAllowed",
      "type": "error"
    },
    {
      "inputs": [
        {
          "internalType": "bytes",
          "name": "userId",
          "type": "bytes"
        },
        {
          "internalType": "address",
          "name": "userAddress",
          "type": "address"
        }
      ],
      "name": "GovernanceNFT__UserIdAlreadyIssued",
      "type": "error"
    },
    {
      "inputs": [],
      "name": "GovernanceNFT__VerficationStillPending",
      "type": "error"
    },
    {
      "inputs": [],
      "name": "GovernanceNFT__VerficationStillRejected",
      "type": "error"
    },
    {
      "anonymous": false,
      "inputs": [
        {
          "indexed": true,
          "internalType": "address",
          "name": "owner",
          "type": "address"
        },
        {
          "indexed": true,
          "internalType": "address",
          "name": "approved",
          "type": "address"
        },
        {
          "indexed": true,
          "internalType": "uint256",
          "name": "tokenId",
          "type": "uint256"
        }
      ],
      "name": "Approval",
      "type": "event"
    },
    {
      "anonymous": false,
      "inputs": [
        {
          "indexed": true,
          "internalType": "address",
          "name": "owner",
          "type": "address"
        },
        {
          "indexed": true,
          "internalType": "address",
          "name": "operator",
          "type": "address"
        },
        {
          "indexed": false,
          "internalType": "bool",
          "name": "approved",
          "type": "bool"
        }
      ],
      "name": "ApprovalForAll",
      "type": "event"
    },
    {
      "anonymous": false,
      "inputs": [
        {
          "indexed": true,
          "internalType": "address",
          "name": "delegator",
          "type": "address"
        },
        {
          "indexed": true,
          "internalType": "address",
          "name": "fromDelegate",
          "type": "address"
        },
        {
          "indexed": true,
          "internalType": "address",
          "name": "toDelegate",
          "type": "address"
        }
      ],
      "name": "DelegateChanged",
      "type": "event"
    },
    {
      "anonymous": false,
      "inputs": [
        {
          "indexed": true,
          "internalType": "address",
          "name": "delegate",
          "type": "address"
        },
        {
          "indexed": false,
          "internalType": "uint256",
          "name": "previousBalance",
          "type": "uint256"
        },
        {
          "indexed": false,
          "internalType": "uint256",
          "name": "newBalance",
          "type": "uint256"
        }
      ],
      "name": "DelegateVotesChanged",
      "type": "event"
    },
    {
      "anonymous": false,
      "inputs": [
        {
          "indexed": true,
          "internalType": "bytes",
          "name": "userId",
          "type": "bytes"
        },
        {
          "indexed": false,
          "internalType": "address",
          "name": "userAddres",
          "type": "address"
        }
      ],
      "name": "IdVerifedAndIssued",
      "type": "event"
    },
    {
      "anonymous": false,
      "inputs": [
        {
          "indexed": true,
          "internalType": "address",
          "name": "from",
          "type": "address"
        },
        {
          "indexed": true,
          "internalType": "address",
          "name": "to",
          "type": "address"
        },
        {
          "indexed": true,
          "internalType": "uint256",
          "name": "tokenId",
          "type": "uint256"
        }
      ],
      "name": "Transfer",
      "type": "event"
    },
    {
      "inputs": [],
      "name": "CLAME_USERID_VOUCHER",
      "outputs": [
        {
          "internalType": "bytes32",
          "name": "",
          "type": "bytes32"
        }
      ],
      "stateMutability": "view",
      "type": "function"
    },
    {
      "inputs": [],
      "name": "DOMAIN_SEPARATOR",
      "outputs": [
        {
          "internalType": "bytes32",
          "name": "",
          "type": "bytes32"
        }
      ],
      "stateMutability": "view",
      "type": "function"
    },
    {
      "inputs": [
        {
          "internalType": "address",
          "name": "to",
          "type": "address"
        },
        {
          "internalType": "uint256",
          "name": "tokenId",
          "type": "uint256"
        }
      ],
      "name": "approve",
      "outputs": [],
      "stateMutability": "nonpayable",
      "type": "function"
    },
    {
      "inputs": [
        {
          "internalType": "address",
          "name": "owner",
          "type": "address"
        }
      ],
      "name": "balanceOf",
      "outputs": [
        {
          "internalType": "uint256",
          "name": "",
          "type": "uint256"
        }
      ],
      "stateMutability": "view",
      "type": "function"
    },
    {
      "inputs": [
        {
          "internalType": "address",
          "name": "delegatee",
          "type": "address"
        }
      ],
      "name": "delegate",
      "outputs": [],
      "stateMutability": "nonpayable",
      "type": "function"
    },
    {
      "inputs": [
        {
          "internalType": "address",
          "name": "delegatee",
          "type": "address"
        },
        {
          "internalType": "uint256",
          "name": "nonce",
          "type": "uint256"
        },
        {
          "internalType": "uint256",
          "name": "expiry",
          "type": "uint256"
        },
        {
          "internalType": "uint8",
          "name": "v",
          "type": "uint8"
        },
        {
          "internalType": "bytes32",
          "name": "r",
          "type": "bytes32"
        },
        {
          "internalType": "bytes32",
          "name": "s",
          "type": "bytes32"
        }
      ],
      "name": "delegateBySig",
      "outputs": [],
      "stateMutability": "nonpayable",
      "type": "function"
    },
    {
      "inputs": [
        {
          "internalType": "address",
          "name": "account",
          "type": "address"
        }
      ],
      "name": "delegates",
      "outputs": [
        {
          "internalType": "address",
          "name": "",
          "type": "address"
        }
      ],
      "stateMutability": "view",
      "type": "function"
    },
    {
      "inputs": [
        {
          "internalType": "uint256",
          "name": "tokenId",
          "type": "uint256"
        }
      ],
      "name": "getApproved",
      "outputs": [
        {
          "internalType": "address",
          "name": "",
          "type": "address"
        }
      ],
      "stateMutability": "view",
      "type": "function"
    },
    {
      "inputs": [],
      "name": "getIdCount",
      "outputs": [
        {
          "internalType": "uint256",
          "name": "",
          "type": "uint256"
        }
      ],
      "stateMutability": "view",
      "type": "function"
    },
    {
      "inputs": [
        {
          "internalType": "uint256",
          "name": "blockNumber",
          "type": "uint256"
        }
      ],
      "name": "getPastTotalSupply",
      "outputs": [
        {
          "internalType": "uint256",
          "name": "",
          "type": "uint256"
        }
      ],
      "stateMutability": "view",
      "type": "function"
    },
    {
      "inputs": [
        {
          "internalType": "address",
          "name": "account",
          "type": "address"
        },
        {
          "internalType": "uint256",
          "name": "blockNumber",
          "type": "uint256"
        }
      ],
      "name": "getPastVotes",
      "outputs": [
        {
          "internalType": "uint256",
          "name": "",
          "type": "uint256"
        }
      ],
      "stateMutability": "view",
      "type": "function"
    },
    {
      "inputs": [
        {
          "internalType": "address",
          "name": "account",
          "type": "address"
        }
      ],
      "name": "getVotes",
      "outputs": [
        {
          "internalType": "uint256",
          "name": "",
          "type": "uint256"
        }
      ],
      "stateMutability": "view",
      "type": "function"
    },
    {
      "inputs": [
        {
          "internalType": "address",
          "name": "owner",
          "type": "address"
        },
        {
          "internalType": "address",
          "name": "operator",
          "type": "address"
        }
      ],
      "name": "isApprovedForAll",
      "outputs": [
        {
          "internalType": "bool",
          "name": "",
          "type": "bool"
        }
      ],
      "stateMutability": "view",
      "type": "function"
    },
    {
      "inputs": [],
      "name": "name",
      "outputs": [
        {
          "internalType": "string",
          "name": "",
          "type": "string"
        }
      ],
      "stateMutability": "view",
      "type": "function"
    },
    {
      "inputs": [
        {
          "internalType": "address",
          "name": "owner",
          "type": "address"
        }
      ],
      "name": "nonces",
      "outputs": [
        {
          "internalType": "uint256",
          "name": "",
          "type": "uint256"
        }
      ],
      "stateMutability": "view",
      "type": "function"
    },
    {
      "inputs": [
        {
          "internalType": "uint256",
          "name": "tokenId",
          "type": "uint256"
        }
      ],
      "name": "ownerOf",
      "outputs": [
        {
          "internalType": "address",
          "name": "",
          "type": "address"
        }
      ],
      "stateMutability": "view",
      "type": "function"
    },
    {
      "inputs": [
        {
          "components": [
            {
              "internalType": "string",
              "name": "uri",
              "type": "string"
            },
            {
              "internalType": "bytes",
              "name": "userId",
              "type": "bytes"
            },
            {
              "internalType": "bytes",
              "name": "fingerPrint",
              "type": "bytes"
            },
            {
              "internalType": "bytes",
              "name": "signature",
              "type": "bytes"
            }
          ],
          "internalType": "struct UserIdVoucher",
          "name": "voucher",
          "type": "tuple"
        }
      ],
      "name": "redeem",
      "outputs": [],
      "stateMutability": "nonpayable",
      "type": "function"
    },
    {
      "inputs": [
        {
          "internalType": "address",
          "name": "from",
          "type": "address"
        },
        {
          "internalType": "address",
          "name": "",
          "type": "address"
        },
        {
          "internalType": "uint256",
          "name": "tokenId",
          "type": "uint256"
        }
      ],
      "name": "safeTransferFrom",
      "outputs": [],
      "stateMutability": "nonpayable",
      "type": "function"
    },
    {
      "inputs": [
        {
          "internalType": "address",
          "name": "from",
          "type": "address"
        },
        {
          "internalType": "address",
          "name": "",
          "type": "address"
        },
        {
          "internalType": "uint256",
          "name": "tokenId",
          "type": "uint256"
        },
        {
          "internalType": "bytes",
          "name": "",
          "type": "bytes"
        }
      ],
      "name": "safeTransferFrom",
      "outputs": [],
      "stateMutability": "nonpayable",
      "type": "function"
    },
    {
      "inputs": [
        {
          "internalType": "address",
          "name": "operator",
          "type": "address"
        },
        {
          "internalType": "bool",
          "name": "approved",
          "type": "bool"
        }
      ],
      "name": "setApprovalForAll",
      "outputs": [],
      "stateMutability": "nonpayable",
      "type": "function"
    },
    {
      "inputs": [
        {
          "internalType": "bytes4",
          "name": "interfaceId",
          "type": "bytes4"
        }
      ],
      "name": "supportsInterface",
      "outputs": [
        {
          "internalType": "bool",
          "name": "",
          "type": "bool"
        }
      ],
      "stateMutability": "view",
      "type": "function"
    },
    {
      "inputs": [],
      "name": "symbol",
      "outputs": [
        {
          "internalType": "string",
          "name": "",
          "type": "string"
        }
      ],
      "stateMutability": "view",
      "type": "function"
    },
    {
      "inputs": [
        {
          "internalType": "uint256",
          "name": "tokenId",
          "type": "uint256"
        }
      ],
      "name": "tokenURI",
      "outputs": [
        {
          "internalType": "string",
          "name": "",
          "type": "string"
        }
      ],
      "stateMutability": "view",
      "type": "function"
    },
    {
      "inputs": [
        {
          "internalType": "address",
          "name": "from",
          "type": "address"
        },
        {
          "internalType": "address",
          "name": "",
          "type": "address"
        },
        {
          "internalType": "uint256",
          "name": "tokenId",
          "type": "uint256"
        }
      ],
      "name": "transferFrom",
      "outputs": [],
      "stateMutability": "nonpayable",
      "type": "function"
    },
    {
      "inputs": [
        {
          "internalType": "bytes",
          "name": "userId",
          "type": "bytes"
        },
        {
          "internalType": "bytes",
          "name": "fingerPrint",
          "type": "bytes"
        }
      ],
      "name": "verifyFingerPrint",
      "outputs": [],
      "stateMutability": "nonpayable",
      "type": "function"
    },
    {
      "inputs": [
        {
          "components": [
            {
              "internalType": "string",
              "name": "uri",
              "type": "string"
            },
            {
              "internalType": "bytes",
              "name": "userId",
              "type": "bytes"
            },
            {
              "internalType": "bytes",
              "name": "fingerPrint",
              "type": "bytes"
            },
            {
              "internalType": "bytes",
              "name": "signature",
              "type": "bytes"
            }
          ],
          "internalType": "struct UserIdVoucher",
          "name": "voucher",
          "type": "tuple"
        }
      ],
      "name": "verifySignature",
      "outputs": [
        {
          "internalType": "address",
          "name": "",
          "type": "address"
        }
      ],
      "stateMutability": "view",
      "type": "function"
    }
  ],
  "transactionHash": "0x5db0fa0a65668c61fe486a822b0ac466c8c53e0f54704c4b006860743bc4de35",
  "args": [
    "0xCf7Ed3AccA5a467e9e704C703E8D87F634fB0Fc9",
    "User-Identity",
    "786",
    "User-Identity",
    "1"
  ],
  "numDeployments": 1,
  "solcInputHash": "5c707cec2a886f1d91835754be9ed0f4",
  "bytecode": "0x6101406040523480156200001257600080fd5b506040516200555038038062005550833981810160405281019062000038919062000394565b8181858581600090816200004d9190620006e3565b5080600190816200005f9190620006e3565b50505060008280519060200120905060008280519060200120905060007f8b73c3c69bb8fe3d512ecc4cf759cc79239f7b179b0ffacaa9a75d522b39400f90508260e081815250508161010081815250504660a08181525050620000cb8184846200016060201b60201c565b608081815250503073ffffffffffffffffffffffffffffffffffffffff1660c08173ffffffffffffffffffffffffffffffffffffffff1681525050806101208181525050505050505084600c60006101000a81548173ffffffffffffffffffffffffffffffffffffffff021916908373ffffffffffffffffffffffffffffffffffffffff160217905550505050505062000878565b600083838346306040516020016200017d9594939291906200081b565b6040516020818303038152906040528051906020012090509392505050565b6000604051905090565b600080fd5b600080fd5b600073ffffffffffffffffffffffffffffffffffffffff82169050919050565b6000620001dd82620001b0565b9050919050565b620001ef81620001d0565b8114620001fb57600080fd5b50565b6000815190506200020f81620001e4565b92915050565b600080fd5b600080fd5b6000601f19601f8301169050919050565b7f4e487b7100000000000000000000000000000000000000000000000000000000600052604160045260246000fd5b6200026a826200021f565b810181811067ffffffffffffffff821117156200028c576200028b62000230565b5b80604052505050565b6000620002a16200019c565b9050620002af82826200025f565b919050565b600067ffffffffffffffff821115620002d257620002d162000230565b5b620002dd826200021f565b9050602081019050919050565b60005b838110156200030a578082015181840152602081019050620002ed565b60008484015250505050565b60006200032d6200032784620002b4565b62000295565b9050828152602081018484840111156200034c576200034b6200021a565b5b62000359848285620002ea565b509392505050565b600082601f83011262000379576200037862000215565b5b81516200038b84826020860162000316565b91505092915050565b600080600080600060a08688031215620003b357620003b2620001a6565b5b6000620003c388828901620001fe565b955050602086015167ffffffffffffffff811115620003e757620003e6620001ab565b5b620003f58882890162000361565b945050604086015167ffffffffffffffff811115620004195762000418620001ab565b5b620004278882890162000361565b935050606086015167ffffffffffffffff8111156200044b576200044a620001ab565b5b620004598882890162000361565b925050608086015167ffffffffffffffff8111156200047d576200047c620001ab565b5b6200048b8882890162000361565b9150509295509295909350565b600081519050919050565b7f4e487b7100000000000000000000000000000000000000000000000000000000600052602260045260246000fd5b60006002820490506001821680620004eb57607f821691505b602082108103620005015762000500620004a3565b5b50919050565b60008190508160005260206000209050919050565b60006020601f8301049050919050565b600082821b905092915050565b6000600883026200056b7fffffffffffffffffffffffffffffffffffffffffffffffffffffffffffffffff826200052c565b6200057786836200052c565b95508019841693508086168417925050509392505050565b6000819050919050565b6000819050919050565b6000620005c4620005be620005b8846200058f565b62000599565b6200058f565b9050919050565b6000819050919050565b620005e083620005a3565b620005f8620005ef82620005cb565b84845462000539565b825550505050565b600090565b6200060f62000600565b6200061c818484620005d5565b505050565b5b8181101562000644576200063860008262000605565b60018101905062000622565b5050565b601f82111562000693576200065d8162000507565b62000668846200051c565b8101602085101562000678578190505b6200069062000687856200051c565b83018262000621565b50505b505050565b600082821c905092915050565b6000620006b86000198460080262000698565b1980831691505092915050565b6000620006d38383620006a5565b9150826002028217905092915050565b620006ee8262000498565b67ffffffffffffffff8111156200070a576200070962000230565b5b620007168254620004d2565b6200072382828562000648565b600060209050601f8311600181146200075b576000841562000746578287015190505b620007528582620006c5565b865550620007c2565b601f1984166200076b8662000507565b60005b8281101562000795578489015182556001820191506020850194506020810190506200076e565b86831015620007b55784890151620007b1601f891682620006a5565b8355505b6001600288020188555050505b505050505050565b6000819050919050565b620007df81620007ca565b82525050565b620007f0816200058f565b82525050565b60006200080382620001b0565b9050919050565b6200081581620007f6565b82525050565b600060a082019050620008326000830188620007d4565b620008416020830187620007d4565b620008506040830186620007d4565b6200085f6060830185620007e5565b6200086e60808301846200080a565b9695505050505050565b60805160a05160c05160e0516101005161012051614c88620008c86000396000611583015260006115c5015260006115a4015260006114d90152600061152f015260006115580152614c886000f3fe608060405234801561001057600080fd5b506004361061018e5760003560e01c806370a08231116100de5780639ab24eb011610097578063c3cda52011610071578063c3cda520146104cb578063c87b56dd146104e7578063db5890ee14610517578063e985e9c5146105355761018e565b80639ab24eb014610463578063a22cb46514610493578063b88d4fde146104af5761018e565b806370a082311461036757806373f2d272146103975780637ecebe00146103b55780638483de56146103e55780638e539e8c1461041557806395d89b41146104455761018e565b80633a0899421161014b578063587cde1e11610125578063587cde1e146102cf5780635c19a95c146102ff5780636352211e1461031b578063696efb851461034b5761018e565b80633a089942146102675780633a46b1a81461028357806342842e0e146102b35761018e565b806301ffc9a71461019357806306fdde03146101c3578063081812fc146101e1578063095ea7b31461021157806323b872dd1461022d5780633644e51514610249575b600080fd5b6101ad60048036038101906101a891906131e8565b610565565b6040516101ba9190613230565b60405180910390f35b6101cb610647565b6040516101d891906132db565b60405180910390f35b6101fb60048036038101906101f69190613333565b6106d9565b60405161020891906133a1565b60405180910390f35b61022b600480360381019061022691906133e8565b61071f565b005b61024760048036038101906102429190613428565b610836565b005b610251610875565b60405161025e9190613494565b60405180910390f35b610281600480360381019061027c91906135e4565b610884565b005b61029d600480360381019061029891906133e8565b610969565b6040516102aa919061366b565b60405180910390f35b6102cd60048036038101906102c89190613428565b6109c4565b005b6102e960048036038101906102e49190613686565b610a03565b6040516102f691906133a1565b60405180910390f35b61031960048036038101906103149190613686565b610a6c565b005b61033560048036038101906103309190613333565b610a86565b60405161034291906133a1565b60405180910390f35b610365600480360381019061036091906136d7565b610b0c565b005b610381600480360381019061037c9190613686565b610e54565b60405161038e919061366b565b60405180910390f35b61039f610f0b565b6040516103ac9190613494565b60405180910390f35b6103cf60048036038101906103ca9190613686565b610f2e565b6040516103dc919061366b565b60405180910390f35b6103ff60048036038101906103fa91906136d7565b610f7e565b60405161040c91906133a1565b60405180910390f35b61042f600480360381019061042a9190613333565b610ff0565b60405161043c919061366b565b60405180910390f35b61044d61104f565b60405161045a91906132db565b60405180910390f35b61047d60048036038101906104789190613686565b6110e1565b60405161048a919061366b565b60405180910390f35b6104ad60048036038101906104a8919061374c565b61114f565b005b6104c960048036038101906104c4919061378c565b611165565b005b6104e560048036038101906104e09190613874565b6111a4565b005b61050160048036038101906104fc9190613333565b6112a8565b60405161050e91906132db565b60405180910390f35b61051f6112ba565b60405161052c919061366b565b60405180910390f35b61054f600480360381019061054a9190613901565b6112cb565b60405161055c9190613230565b60405180910390f35b60007f80ac58cd000000000000000000000000000000000000000000000000000000007bffffffffffffffffffffffffffffffffffffffffffffffffffffffff1916827bffffffffffffffffffffffffffffffffffffffffffffffffffffffff1916148061063057507f5b5e139f000000000000000000000000000000000000000000000000000000007bffffffffffffffffffffffffffffffffffffffffffffffffffffffff1916827bffffffffffffffffffffffffffffffffffffffffffffffffffffffff1916145b80610640575061063f8261135f565b5b9050919050565b60606000805461065690613970565b80601f016020809104026020016040519081016040528092919081815260200182805461068290613970565b80156106cf5780601f106106a4576101008083540402835291602001916106cf565b820191906000526020600020905b8154815290600101906020018083116106b257829003601f168201915b5050505050905090565b60006106e4826113c9565b6004600083815260200190815260200160002060009054906101000a900473ffffffffffffffffffffffffffffffffffffffff169050919050565b600061072a82610a86565b90508073ffffffffffffffffffffffffffffffffffffffff168373ffffffffffffffffffffffffffffffffffffffff160361079a576040517f08c379a000000000000000000000000000000000000000000000000000000000815260040161079190613a13565b60405180910390fd5b8073ffffffffffffffffffffffffffffffffffffffff166107b9611414565b73ffffffffffffffffffffffffffffffffffffffff1614806107e857506107e7816107e2611414565b6112cb565b5b610827576040517f08c379a000000000000000000000000000000000000000000000000000000000815260040161081e90613aa5565b60405180910390fd5b610831838361141c565b505050565b80836040517f96f7397200000000000000000000000000000000000000000000000000000000815260040161086c929190613ac5565b60405180910390fd5b600061087f6114d5565b905090565b600061088f33610e54565b11156108d45781336040517fb90626ea0000000000000000000000000000000000000000000000000000000081526004016108cb929190613b43565b60405180910390fd5b600c60009054906101000a900473ffffffffffffffffffffffffffffffffffffffff1673ffffffffffffffffffffffffffffffffffffffff1663f0aca8223384846040518463ffffffff1660e01b815260040161093393929190613b73565b600060405180830381600087803b15801561094d57600080fd5b505af1158015610961573d6000803e3d6000fd5b505050505050565b60006109bc82600860008673ffffffffffffffffffffffffffffffffffffffff1673ffffffffffffffffffffffffffffffffffffffff1681526020019081526020016000206115ef90919063ffffffff16565b905092915050565b80836040517f96f739720000000000000000000000000000000000000000000000000000000081526004016109fa929190613ac5565b60405180910390fd5b6000600760008373ffffffffffffffffffffffffffffffffffffffff1673ffffffffffffffffffffffffffffffffffffffff16815260200190815260200160002060009054906101000a900473ffffffffffffffffffffffffffffffffffffffff169050919050565b6000610a76611414565b9050610a828183611754565b5050565b600080610a9283611868565b9050600073ffffffffffffffffffffffffffffffffffffffff168173ffffffffffffffffffffffffffffffffffffffff1603610b03576040517f08c379a0000000000000000000000000000000000000000000000000000000008152600401610afa90613c04565b60405180910390fd5b80915050919050565b6000600c60009054906101000a900473ffffffffffffffffffffffffffffffffffffffff1673ffffffffffffffffffffffffffffffffffffffff166367e2efc6336040518263ffffffff1660e01b8152600401610b6991906133a1565b600060405180830381865afa158015610b86573d6000803e3d6000fd5b505050506040513d6000823e3d601f19601f82011682018060405250810190610baf9190613d58565b9050610bbb600b6118a5565b6000610bc7600b6118bb565b905060006003811115610bdd57610bdc613da1565b5b82604001516003811115610bf457610bf3613da1565b5b03610c2b576040517fa327aa6e00000000000000000000000000000000000000000000000000000000815260040160405180910390fd5b60026003811115610c3f57610c3e613da1565b5b82604001516003811115610c5657610c55613da1565b5b03610d8a576000610c6684610f7e565b90503373ffffffffffffffffffffffffffffffffffffffff168173ffffffffffffffffffffffffffffffffffffffff1614610ccd576040517f0f0ed78100000000000000000000000000000000000000000000000000000000815260040160405180910390fd5b610cd733836118c9565b610d3382858060000190610ceb9190613ddf565b8080601f016020809104026020016040519081016040528093929190818152602001838380828437600081840152601f19601f82011690508083019250505050505050611ae6565b8260000151604051610d459190613e7e565b60405180910390207fa98aec5c4ec5237f4092b86df30fd24a9675fa7452542e9fab92c30d396953c133604051610d7c91906133a1565b60405180910390a250610e4f565b60016003811115610d9e57610d9d613da1565b5b82604001516003811115610db557610db4613da1565b5b03610dec576040517f6758744d00000000000000000000000000000000000000000000000000000000815260040160405180910390fd5b60016003811115610e0057610dff613da1565b5b82604001516003811115610e1757610e16613da1565b5b03610e4e576040517fe6cedaf300000000000000000000000000000000000000000000000000000000815260040160405180910390fd5b5b505050565b60008073ffffffffffffffffffffffffffffffffffffffff168273ffffffffffffffffffffffffffffffffffffffff1603610ec4576040517f08c379a0000000000000000000000000000000000000000000000000000000008152600401610ebb90613f07565b60405180910390fd5b600360008373ffffffffffffffffffffffffffffffffffffffff1673ffffffffffffffffffffffffffffffffffffffff168152602001908152602001600020549050919050565b7e5165dbde6c98ff3dd217e399994c50c9b2dcb0e924050ef97159c4f0f162a681565b6000610f77600a60008473ffffffffffffffffffffffffffffffffffffffff1673ffffffffffffffffffffffffffffffffffffffff1681526020019081526020016000206118bb565b9050919050565b600080610f8a83611b53565b9050610fe881848060600190610fa09190613f27565b8080601f016020809104026020016040519081016040528093929190818152602001838380828437600081840152601f19601f82011690508083019250505050505050611be0565b915050919050565b6000438210611034576040517f08c379a000000000000000000000000000000000000000000000000000000000815260040161102b90613fd6565b60405180910390fd5b6110488260096115ef90919063ffffffff16565b9050919050565b60606001805461105e90613970565b80601f016020809104026020016040519081016040528092919081815260200182805461108a90613970565b80156110d75780601f106110ac576101008083540402835291602001916110d7565b820191906000526020600020905b8154815290600101906020018083116110ba57829003601f168201915b5050505050905090565b600061112a600860008473ffffffffffffffffffffffffffffffffffffffff1673ffffffffffffffffffffffffffffffffffffffff168152602001908152602001600020611c07565b7bffffffffffffffffffffffffffffffffffffffffffffffffffffffff169050919050565b61116161115a611414565b8383611c71565b5050565b81846040517f96f7397200000000000000000000000000000000000000000000000000000000815260040161119b929190613ac5565b60405180910390fd5b834211156111e7576040517f08c379a00000000000000000000000000000000000000000000000000000000081526004016111de90614042565b60405180910390fd5b60006112496112417fe48329057bfd03d55e49b547132e39cffd9c1820ad7b9d4c5307691425d15adf8989896040516020016112269493929190614062565b60405160208183030381529060405280519060200120611ddd565b858585611df7565b905061125481611e22565b8614611295576040517f08c379a000000000000000000000000000000000000000000000000000000000815260040161128c906140f3565b60405180910390fd5b61129f8188611754565b50505050505050565b60606112b382611e80565b9050919050565b60006112c6600b6118bb565b905090565b6000600560008473ffffffffffffffffffffffffffffffffffffffff1673ffffffffffffffffffffffffffffffffffffffff16815260200190815260200160002060008373ffffffffffffffffffffffffffffffffffffffff1673ffffffffffffffffffffffffffffffffffffffff16815260200190815260200160002060009054906101000a900460ff16905092915050565b60007f01ffc9a7000000000000000000000000000000000000000000000000000000007bffffffffffffffffffffffffffffffffffffffffffffffffffffffff1916827bffffffffffffffffffffffffffffffffffffffffffffffffffffffff1916149050919050565b6113d281611f92565b611411576040517f08c379a000000000000000000000000000000000000000000000000000000000815260040161140890613c04565b60405180910390fd5b50565b600033905090565b816004600083815260200190815260200160002060006101000a81548173ffffffffffffffffffffffffffffffffffffffff021916908373ffffffffffffffffffffffffffffffffffffffff160217905550808273ffffffffffffffffffffffffffffffffffffffff1661148f83610a86565b73ffffffffffffffffffffffffffffffffffffffff167f8c5be1e5ebec7d5bd14f71427d1e84f3dd0314c0f7b2291e5b200ac8c7c3b92560405160405180910390a45050565b60007f000000000000000000000000000000000000000000000000000000000000000073ffffffffffffffffffffffffffffffffffffffff163073ffffffffffffffffffffffffffffffffffffffff1614801561155157507f000000000000000000000000000000000000000000000000000000000000000046145b1561157e577f000000000000000000000000000000000000000000000000000000000000000090506115ec565b6115e97f00000000000000000000000000000000000000000000000000000000000000007f00000000000000000000000000000000000000000000000000000000000000007f0000000000000000000000000000000000000000000000000000000000000000611fd3565b90505b90565b6000438210611633576040517f08c379a000000000000000000000000000000000000000000000000000000000815260040161162a9061415f565b60405180910390fd5b600061163e8361200d565b905060008460000180549050905060008082905060058311156116c157600061166684612060565b8461167191906141ae565b90506116808860000182612159565b60000160009054906101000a900463ffffffff1663ffffffff168563ffffffff1610156116af578091506116bf565b6001816116bc91906141e2565b92505b505b60006116d28860000186858561216e565b905060008114611726576116f5886000016001836116f091906141ae565b612159565b60000160049054906101000a90047bffffffffffffffffffffffffffffffffffffffffffffffffffffffff16611729565b60005b7bffffffffffffffffffffffffffffffffffffffffffffffffffffffff169550505050505092915050565b600061175f83610a03565b905081600760008573ffffffffffffffffffffffffffffffffffffffff1673ffffffffffffffffffffffffffffffffffffffff16815260200190815260200160002060006101000a81548173ffffffffffffffffffffffffffffffffffffffff021916908373ffffffffffffffffffffffffffffffffffffffff1602179055508173ffffffffffffffffffffffffffffffffffffffff168173ffffffffffffffffffffffffffffffffffffffff168473ffffffffffffffffffffffffffffffffffffffff167f3134e8a2e6d97e929a7e54011ea5485d7d196dd5f0ba4d4ef95803e8e3fc257f60405160405180910390a4611863818361185e866121e1565b6121f3565b505050565b60006002600083815260200190815260200160002060009054906101000a900473ffffffffffffffffffffffffffffffffffffffff169050919050565b6001816000016000828254019250508190555050565b600081600001549050919050565b600073ffffffffffffffffffffffffffffffffffffffff168273ffffffffffffffffffffffffffffffffffffffff1603611938576040517f08c379a000000000000000000000000000000000000000000000000000000000815260040161192f90614262565b60405180910390fd5b61194181611f92565b15611981576040517f08c379a0000000000000000000000000000000000000000000000000000000008152600401611978906142ce565b60405180910390fd5b61198f600083836001612400565b61199881611f92565b156119d8576040517f08c379a00000000000000000000000000000000000000000000000000000000081526004016119cf906142ce565b60405180910390fd5b6001600360008473ffffffffffffffffffffffffffffffffffffffff1673ffffffffffffffffffffffffffffffffffffffff16815260200190815260200160002060008282540192505081905550816002600083815260200190815260200160002060006101000a81548173ffffffffffffffffffffffffffffffffffffffff021916908373ffffffffffffffffffffffffffffffffffffffff160217905550808273ffffffffffffffffffffffffffffffffffffffff16600073ffffffffffffffffffffffffffffffffffffffff167fddf252ad1be2c89b69c2b068fc378daa952ba7f163c4a11628f55a4df523b3ef60405160405180910390a4611ae2600083836001612526565b5050565b611aef82611f92565b611b2e576040517f08c379a0000000000000000000000000000000000000000000000000000000008152600401611b2590614360565b60405180910390fd5b80600660008481526020019081526020016000209081611b4e919061452c565b505050565b6000611bd97e5165dbde6c98ff3dd217e399994c50c9b2dcb0e924050ef97159c4f0f162a6838060000190611b889190613ddf565b858060200190611b989190613f27565b878060400190611ba89190613f27565b604051602001611bbe9796959493929190614658565b60405160208183030381529060405280519060200120611ddd565b9050919050565b6000806000611bef8585612538565b91509150611bfc81612589565b819250505092915050565b6000808260000180549050905060008114611c6657611c3583600001600183611c3091906141ae565b612159565b60000160049054906101000a90047bffffffffffffffffffffffffffffffffffffffffffffffffffffffff16611c69565b60005b915050919050565b8173ffffffffffffffffffffffffffffffffffffffff168373ffffffffffffffffffffffffffffffffffffffff1603611cdf576040517f08c379a0000000000000000000000000000000000000000000000000000000008152600401611cd690614704565b60405180910390fd5b80600560008573ffffffffffffffffffffffffffffffffffffffff1673ffffffffffffffffffffffffffffffffffffffff16815260200190815260200160002060008473ffffffffffffffffffffffffffffffffffffffff1673ffffffffffffffffffffffffffffffffffffffff16815260200190815260200160002060006101000a81548160ff0219169083151502179055508173ffffffffffffffffffffffffffffffffffffffff168373ffffffffffffffffffffffffffffffffffffffff167f17307eab39ab6107e8899845ad3d59bd9653f200f220920489ca2b5937696c3183604051611dd09190613230565b60405180910390a3505050565b6000611df0611dea6114d5565b836126ef565b9050919050565b6000806000611e0887878787612722565b91509150611e1581612589565b8192505050949350505050565b600080600a60008473ffffffffffffffffffffffffffffffffffffffff1673ffffffffffffffffffffffffffffffffffffffff1681526020019081526020016000209050611e6f816118bb565b9150611e7a816118a5565b50919050565b6060611e8b826113c9565b6000600660008481526020019081526020016000208054611eab90613970565b80601f0160208091040260200160405190810160405280929190818152602001828054611ed790613970565b8015611f245780601f10611ef957610100808354040283529160200191611f24565b820191906000526020600020905b815481529060010190602001808311611f0757829003601f168201915b505050505090506000611f35612804565b90506000815103611f4a578192505050611f8d565b600082511115611f7f578082604051602001611f67929190614760565b60405160208183030381529060405292505050611f8d565b611f888461281b565b925050505b919050565b60008073ffffffffffffffffffffffffffffffffffffffff16611fb483611868565b73ffffffffffffffffffffffffffffffffffffffff1614159050919050565b60008383834630604051602001611fee959493929190614784565b6040516020818303038152906040528051906020012090509392505050565b600063ffffffff8016821115612058576040517f08c379a000000000000000000000000000000000000000000000000000000000815260040161204f90614849565b60405180910390fd5b819050919050565b60008082036120725760009050612154565b6000600161207f84612883565b901c6001901b9050600181848161209957612098614869565b5b048201901c905060018184816120b2576120b1614869565b5b048201901c905060018184816120cb576120ca614869565b5b048201901c905060018184816120e4576120e3614869565b5b048201901c905060018184816120fd576120fc614869565b5b048201901c9050600181848161211657612115614869565b5b048201901c9050600181848161212f5761212e614869565b5b048201901c90506121508182858161214a57612149614869565b5b04612964565b9150505b919050565b60008260005281602060002001905092915050565b60005b818310156121d6576000612185848461297d565b90508463ffffffff166121988783612159565b60000160009054906101000a900463ffffffff1663ffffffff1611156121c0578092506121d0565b6001816121cd91906141e2565b93505b50612171565b819050949350505050565b60006121ec82610e54565b9050919050565b8173ffffffffffffffffffffffffffffffffffffffff168373ffffffffffffffffffffffffffffffffffffffff161415801561222f5750600081115b156123fb57600073ffffffffffffffffffffffffffffffffffffffff168373ffffffffffffffffffffffffffffffffffffffff1614612317576000806122c06129a384600860008973ffffffffffffffffffffffffffffffffffffffff1673ffffffffffffffffffffffffffffffffffffffff1681526020019081526020016000206129b99092919063ffffffff16565b915091508473ffffffffffffffffffffffffffffffffffffffff167fdec2bacdd2f05b59de34da9b523dff8be42e5e38e818c82fdb0bae774387a724838360405161230c929190614898565b60405180910390a250505b600073ffffffffffffffffffffffffffffffffffffffff168273ffffffffffffffffffffffffffffffffffffffff16146123fa576000806123a3612a0584600860008873ffffffffffffffffffffffffffffffffffffffff1673ffffffffffffffffffffffffffffffffffffffff1681526020019081526020016000206129b99092919063ffffffff16565b915091508373ffffffffffffffffffffffffffffffffffffffff167fdec2bacdd2f05b59de34da9b523dff8be42e5e38e818c82fdb0bae774387a72483836040516123ef929190614898565b60405180910390a250505b5b505050565b600181111561252057600073ffffffffffffffffffffffffffffffffffffffff168473ffffffffffffffffffffffffffffffffffffffff16146124945780600360008673ffffffffffffffffffffffffffffffffffffffff1673ffffffffffffffffffffffffffffffffffffffff168152602001908152602001600020600082825461248c91906141ae565b925050819055505b600073ffffffffffffffffffffffffffffffffffffffff168373ffffffffffffffffffffffffffffffffffffffff161461251f5780600360008573ffffffffffffffffffffffffffffffffffffffff1673ffffffffffffffffffffffffffffffffffffffff168152602001908152602001600020600082825461251791906141e2565b925050819055505b5b50505050565b61253284848484612a1b565b50505050565b60008060418351036125795760008060006020860151925060408601519150606086015160001a905061256d87828585612722565b94509450505050612582565b60006002915091505b9250929050565b6000600481111561259d5761259c613da1565b5b8160048111156125b0576125af613da1565b5b03156126ec57600160048111156125ca576125c9613da1565b5b8160048111156125dd576125dc613da1565b5b0361261d576040517f08c379a00000000000000000000000000000000000000000000000000000000081526004016126149061490d565b60405180910390fd5b6002600481111561263157612630613da1565b5b81600481111561264457612643613da1565b5b03612684576040517f08c379a000000000000000000000000000000000000000000000000000000000815260040161267b90614979565b60405180910390fd5b6003600481111561269857612697613da1565b5b8160048111156126ab576126aa613da1565b5b036126eb576040517f08c379a00000000000000000000000000000000000000000000000000000000081526004016126e290614a0b565b60405180910390fd5b5b50565b60008282604051602001612704929190614a98565b60405160208183030381529060405280519060200120905092915050565b6000807f7fffffffffffffffffffffffffffffff5d576e7357a4501ddfe92f46681b20a08360001c111561275d5760006003915091506127fb565b6000600187878787604051600081526020016040526040516127829493929190614ade565b6020604051602081039080840390855afa1580156127a4573d6000803e3d6000fd5b505050602060405103519050600073ffffffffffffffffffffffffffffffffffffffff168173ffffffffffffffffffffffffffffffffffffffff16036127f2576000600192509250506127fb565b80600092509250505b94509492505050565b606060405180602001604052806000815250905090565b6060612826826113c9565b6000612830612804565b90506000815111612850576040518060200160405280600081525061287b565b8061285a84612a38565b60405160200161286b929190614760565b6040516020818303038152906040525b915050919050565b600080600090506000608084901c11156128a557608083901c92506080810190505b6000604084901c11156128c057604083901c92506040810190505b6000602084901c11156128db57602083901c92506020810190505b6000601084901c11156128f657601083901c92506010810190505b6000600884901c111561291157600883901c92506008810190505b6000600484901c111561292c57600483901c92506004810190505b6000600284901c111561294757600283901c92506002810190505b6000600184901c111561295b576001810190505b80915050919050565b60008183106129735781612975565b825b905092915050565b6000600282841861298e9190614b23565b82841661299b91906141e2565b905092915050565b600081836129b191906141ae565b905092915050565b6000806129f9856129f46129cc88611c07565b7bffffffffffffffffffffffffffffffffffffffffffffffffffffffff16868863ffffffff16565b612b06565b91509150935093915050565b60008183612a1391906141e2565b905092915050565b612a26848483612b74565b612a3284848484612c32565b50505050565b606060006001612a4784612c38565b01905060008167ffffffffffffffff811115612a6657612a656134b9565b5b6040519080825280601f01601f191660200182016040528015612a985781602001600182028036833780820191505090505b509050600082602001820190505b600115612afb578080600190039150507f3031323334353637383961626364656600000000000000000000000000000000600a86061a8153600a8581612aef57612aee614869565b5b04945060008503612aa6575b819350505050919050565b600080612b2784600001612b194361200d565b612b2286612d8b565b612df6565b817bffffffffffffffffffffffffffffffffffffffffffffffffffffffff169150807bffffffffffffffffffffffffffffffffffffffffffffffffffffffff169050915091509250929050565b600073ffffffffffffffffffffffffffffffffffffffff168373ffffffffffffffffffffffffffffffffffffffff1603612bc357612bc0612a058260096129b99092919063ffffffff16565b50505b600073ffffffffffffffffffffffffffffffffffffffff168273ffffffffffffffffffffffffffffffffffffffff1603612c1257612c0f6129a38260096129b99092919063ffffffff16565b50505b612c2d612c1e84610a03565b612c2784610a03565b836121f3565b505050565b50505050565b600080600090507a184f03e93ff9f4daa797ed6e38ed64bf6a1f0100000000000000008310612c96577a184f03e93ff9f4daa797ed6e38ed64bf6a1f0100000000000000008381612c8c57612c8b614869565b5b0492506040810190505b6d04ee2d6d415b85acef81000000008310612cd3576d04ee2d6d415b85acef81000000008381612cc957612cc8614869565b5b0492506020810190505b662386f26fc100008310612d0257662386f26fc100008381612cf857612cf7614869565b5b0492506010810190505b6305f5e1008310612d2b576305f5e1008381612d2157612d20614869565b5b0492506008810190505b6127108310612d50576127108381612d4657612d45614869565b5b0492506004810190505b60648310612d735760648381612d6957612d68614869565b5b0492506002810190505b600a8310612d82576001810190505b80915050919050565b60007bffffffffffffffffffffffffffffffffffffffffffffffffffffffff8016821115612dee576040517f08c379a0000000000000000000000000000000000000000000000000000000008152600401612de590614bc6565b60405180910390fd5b819050919050565b600080600085805490509050600081111561308c576000612e2387600184612e1e91906141ae565b612159565b6040518060400160405290816000820160009054906101000a900463ffffffff1663ffffffff1663ffffffff1681526020016000820160049054906101000a90047bffffffffffffffffffffffffffffffffffffffffffffffffffffffff167bffffffffffffffffffffffffffffffffffffffffffffffffffffffff167bffffffffffffffffffffffffffffffffffffffffffffffffffffffff168152505090508563ffffffff16816000015163ffffffff161115612f17576040517f08c379a0000000000000000000000000000000000000000000000000000000008152600401612f0e90614c32565b60405180910390fd5b8563ffffffff16816000015163ffffffff1603612f9b5784612f4588600185612f4091906141ae565b612159565b60000160046101000a8154817bffffffffffffffffffffffffffffffffffffffffffffffffffffffff02191690837bffffffffffffffffffffffffffffffffffffffffffffffffffffffff16021790555061307b565b8660405180604001604052808863ffffffff168152602001877bffffffffffffffffffffffffffffffffffffffffffffffffffffffff168152509080600181540180825580915050600190039060005260206000200160009091909190915060008201518160000160006101000a81548163ffffffff021916908363ffffffff16021790555060208201518160000160046101000a8154817bffffffffffffffffffffffffffffffffffffffffffffffffffffffff02191690837bffffffffffffffffffffffffffffffffffffffffffffffffffffffff16021790555050505b806020015185935093505050613174565b8560405180604001604052808763ffffffff168152602001867bffffffffffffffffffffffffffffffffffffffffffffffffffffffff168152509080600181540180825580915050600190039060005260206000200160009091909190915060008201518160000160006101000a81548163ffffffff021916908363ffffffff16021790555060208201518160000160046101000a8154817bffffffffffffffffffffffffffffffffffffffffffffffffffffffff02191690837bffffffffffffffffffffffffffffffffffffffffffffffffffffffff160217905550505060008492509250505b935093915050565b6000604051905090565b600080fd5b600080fd5b60007fffffffff0000000000000000000000000000000000000000000000000000000082169050919050565b6131c581613190565b81146131d057600080fd5b50565b6000813590506131e2816131bc565b92915050565b6000602082840312156131fe576131fd613186565b5b600061320c848285016131d3565b91505092915050565b60008115159050919050565b61322a81613215565b82525050565b60006020820190506132456000830184613221565b92915050565b600081519050919050565b600082825260208201905092915050565b60005b8381101561328557808201518184015260208101905061326a565b60008484015250505050565b6000601f19601f8301169050919050565b60006132ad8261324b565b6132b78185613256565b93506132c7818560208601613267565b6132d081613291565b840191505092915050565b600060208201905081810360008301526132f581846132a2565b905092915050565b6000819050919050565b613310816132fd565b811461331b57600080fd5b50565b60008135905061332d81613307565b92915050565b60006020828403121561334957613348613186565b5b60006133578482850161331e565b91505092915050565b600073ffffffffffffffffffffffffffffffffffffffff82169050919050565b600061338b82613360565b9050919050565b61339b81613380565b82525050565b60006020820190506133b66000830184613392565b92915050565b6133c581613380565b81146133d057600080fd5b50565b6000813590506133e2816133bc565b92915050565b600080604083850312156133ff576133fe613186565b5b600061340d858286016133d3565b925050602061341e8582860161331e565b9150509250929050565b60008060006060848603121561344157613440613186565b5b600061344f868287016133d3565b9350506020613460868287016133d3565b92505060406134718682870161331e565b9150509250925092565b6000819050919050565b61348e8161347b565b82525050565b60006020820190506134a96000830184613485565b92915050565b600080fd5b600080fd5b7f4e487b7100000000000000000000000000000000000000000000000000000000600052604160045260246000fd5b6134f182613291565b810181811067ffffffffffffffff821117156135105761350f6134b9565b5b80604052505050565b600061352361317c565b905061352f82826134e8565b919050565b600067ffffffffffffffff82111561354f5761354e6134b9565b5b61355882613291565b9050602081019050919050565b82818337600083830152505050565b600061358761358284613534565b613519565b9050828152602081018484840111156135a3576135a26134b4565b5b6135ae848285613565565b509392505050565b600082601f8301126135cb576135ca6134af565b5b81356135db848260208601613574565b91505092915050565b600080604083850312156135fb576135fa613186565b5b600083013567ffffffffffffffff8111156136195761361861318b565b5b613625858286016135b6565b925050602083013567ffffffffffffffff8111156136465761364561318b565b5b613652858286016135b6565b9150509250929050565b613665816132fd565b82525050565b6000602082019050613680600083018461365c565b92915050565b60006020828403121561369c5761369b613186565b5b60006136aa848285016133d3565b91505092915050565b600080fd5b6000608082840312156136ce576136cd6136b3565b5b81905092915050565b6000602082840312156136ed576136ec613186565b5b600082013567ffffffffffffffff81111561370b5761370a61318b565b5b613717848285016136b8565b91505092915050565b61372981613215565b811461373457600080fd5b50565b60008135905061374681613720565b92915050565b6000806040838503121561376357613762613186565b5b6000613771858286016133d3565b925050602061378285828601613737565b9150509250929050565b600080600080608085870312156137a6576137a5613186565b5b60006137b4878288016133d3565b94505060206137c5878288016133d3565b93505060406137d68782880161331e565b925050606085013567ffffffffffffffff8111156137f7576137f661318b565b5b613803878288016135b6565b91505092959194509250565b600060ff82169050919050565b6138258161380f565b811461383057600080fd5b50565b6000813590506138428161381c565b92915050565b6138518161347b565b811461385c57600080fd5b50565b60008135905061386e81613848565b92915050565b60008060008060008060c0878903121561389157613890613186565b5b600061389f89828a016133d3565b96505060206138b089828a0161331e565b95505060406138c189828a0161331e565b94505060606138d289828a01613833565b93505060806138e389828a0161385f565b92505060a06138f489828a0161385f565b9150509295509295509295565b6000806040838503121561391857613917613186565b5b6000613926858286016133d3565b9250506020613937858286016133d3565b9150509250929050565b7f4e487b7100000000000000000000000000000000000000000000000000000000600052602260045260246000fd5b6000600282049050600182168061398857607f821691505b60208210810361399b5761399a613941565b5b50919050565b7f4552433732313a20617070726f76616c20746f2063757272656e74206f776e6560008201527f7200000000000000000000000000000000000000000000000000000000000000602082015250565b60006139fd602183613256565b9150613a08826139a1565b604082019050919050565b60006020820190508181036000830152613a2c816139f0565b9050919050565b7f4552433732313a20617070726f76652063616c6c6572206973206e6f7420746f60008201527f6b656e206f776e6572206f7220617070726f76656420666f7220616c6c000000602082015250565b6000613a8f603d83613256565b9150613a9a82613a33565b604082019050919050565b60006020820190508181036000830152613abe81613a82565b9050919050565b6000604082019050613ada600083018561365c565b613ae76020830184613392565b9392505050565b600081519050919050565b600082825260208201905092915050565b6000613b1582613aee565b613b1f8185613af9565b9350613b2f818560208601613267565b613b3881613291565b840191505092915050565b60006040820190508181036000830152613b5d8185613b0a565b9050613b6c6020830184613392565b9392505050565b6000606082019050613b886000830186613392565b8181036020830152613b9a8185613b0a565b90508181036040830152613bae8184613b0a565b9050949350505050565b7f4552433732313a20696e76616c696420746f6b656e2049440000000000000000600082015250565b6000613bee601883613256565b9150613bf982613bb8565b602082019050919050565b60006020820190508181036000830152613c1d81613be1565b9050919050565b600080fd5b600080fd5b6000613c41613c3c84613534565b613519565b905082815260208101848484011115613c5d57613c5c6134b4565b5b613c68848285613267565b509392505050565b600082601f830112613c8557613c846134af565b5b8151613c95848260208601613c2e565b91505092915050565b600081519050613cad81613307565b92915050565b60048110613cc057600080fd5b50565b600081519050613cd281613cb3565b92915050565b600060608284031215613cee57613ced613c24565b5b613cf86060613519565b9050600082015167ffffffffffffffff811115613d1857613d17613c29565b5b613d2484828501613c70565b6000830152506020613d3884828501613c9e565b6020830152506040613d4c84828501613cc3565b60408301525092915050565b600060208284031215613d6e57613d6d613186565b5b600082015167ffffffffffffffff811115613d8c57613d8b61318b565b5b613d9884828501613cd8565b91505092915050565b7f4e487b7100000000000000000000000000000000000000000000000000000000600052602160045260246000fd5b600080fd5b600080fd5b600080fd5b60008083356001602003843603038112613dfc57613dfb613dd0565b5b80840192508235915067ffffffffffffffff821115613e1e57613e1d613dd5565b5b602083019250600182023603831315613e3a57613e39613dda565b5b509250929050565b600081905092915050565b6000613e5882613aee565b613e628185613e42565b9350613e72818560208601613267565b80840191505092915050565b6000613e8a8284613e4d565b915081905092915050565b7f4552433732313a2061646472657373207a65726f206973206e6f74206120766160008201527f6c6964206f776e65720000000000000000000000000000000000000000000000602082015250565b6000613ef1602983613256565b9150613efc82613e95565b604082019050919050565b60006020820190508181036000830152613f2081613ee4565b9050919050565b60008083356001602003843603038112613f4457613f43613dd0565b5b80840192508235915067ffffffffffffffff821115613f6657613f65613dd5565b5b602083019250600182023603831315613f8257613f81613dda565b5b509250929050565b7f566f7465733a20626c6f636b206e6f7420796574206d696e6564000000000000600082015250565b6000613fc0601a83613256565b9150613fcb82613f8a565b602082019050919050565b60006020820190508181036000830152613fef81613fb3565b9050919050565b7f566f7465733a207369676e617475726520657870697265640000000000000000600082015250565b600061402c601883613256565b915061403782613ff6565b602082019050919050565b6000602082019050818103600083015261405b8161401f565b9050919050565b60006080820190506140776000830187613485565b6140846020830186613392565b614091604083018561365c565b61409e606083018461365c565b95945050505050565b7f566f7465733a20696e76616c6964206e6f6e6365000000000000000000000000600082015250565b60006140dd601483613256565b91506140e8826140a7565b602082019050919050565b6000602082019050818103600083015261410c816140d0565b9050919050565b7f436865636b706f696e74733a20626c6f636b206e6f7420796574206d696e6564600082015250565b6000614149602083613256565b915061415482614113565b602082019050919050565b600060208201905081810360008301526141788161413c565b9050919050565b7f4e487b7100000000000000000000000000000000000000000000000000000000600052601160045260246000fd5b60006141b9826132fd565b91506141c4836132fd565b92508282039050818111156141dc576141db61417f565b5b92915050565b60006141ed826132fd565b91506141f8836132fd565b92508282019050808211156142105761420f61417f565b5b92915050565b7f4552433732313a206d696e7420746f20746865207a65726f2061646472657373600082015250565b600061424c602083613256565b915061425782614216565b602082019050919050565b6000602082019050818103600083015261427b8161423f565b9050919050565b7f4552433732313a20746f6b656e20616c7265616479206d696e74656400000000600082015250565b60006142b8601c83613256565b91506142c382614282565b602082019050919050565b600060208201905081810360008301526142e7816142ab565b9050919050565b7f45524337323155524953746f726167653a2055524920736574206f66206e6f6e60008201527f6578697374656e7420746f6b656e000000000000000000000000000000000000602082015250565b600061434a602e83613256565b9150614355826142ee565b604082019050919050565b600060208201905081810360008301526143798161433d565b9050919050565b60008190508160005260206000209050919050565b60006020601f8301049050919050565b600082821b905092915050565b6000600883026143e27fffffffffffffffffffffffffffffffffffffffffffffffffffffffffffffffff826143a5565b6143ec86836143a5565b95508019841693508086168417925050509392505050565b6000819050919050565b600061442961442461441f846132fd565b614404565b6132fd565b9050919050565b6000819050919050565b6144438361440e565b61445761444f82614430565b8484546143b2565b825550505050565b600090565b61446c61445f565b61447781848461443a565b505050565b5b8181101561449b57614490600082614464565b60018101905061447d565b5050565b601f8211156144e0576144b181614380565b6144ba84614395565b810160208510156144c9578190505b6144dd6144d585614395565b83018261447c565b50505b505050565b600082821c905092915050565b6000614503600019846008026144e5565b1980831691505092915050565b600061451c83836144f2565b9150826002028217905092915050565b6145358261324b565b67ffffffffffffffff81111561454e5761454d6134b9565b5b6145588254613970565b61456382828561449f565b600060209050601f8311600181146145965760008415614584578287015190505b61458e8582614510565b8655506145f6565b601f1984166145a486614380565b60005b828110156145cc578489015182556001820191506020850194506020810190506145a7565b868310156145e957848901516145e5601f8916826144f2565b8355505b6001600288020188555050505b505050505050565b600061460a8385613256565b9350614617838584613565565b61462083613291565b840190509392505050565b60006146378385613af9565b9350614644838584613565565b61464d83613291565b840190509392505050565b600060808201905061466d600083018a613485565b818103602083015261468081888a6145fe565b9050818103604083015261469581868861462b565b905081810360608301526146aa81848661462b565b905098975050505050505050565b7f4552433732313a20617070726f766520746f2063616c6c657200000000000000600082015250565b60006146ee601983613256565b91506146f9826146b8565b602082019050919050565b6000602082019050818103600083015261471d816146e1565b9050919050565b600081905092915050565b600061473a8261324b565b6147448185614724565b9350614754818560208601613267565b80840191505092915050565b600061476c828561472f565b9150614778828461472f565b91508190509392505050565b600060a0820190506147996000830188613485565b6147a66020830187613485565b6147b36040830186613485565b6147c0606083018561365c565b6147cd6080830184613392565b9695505050505050565b7f53616665436173743a2076616c756520646f65736e27742066697420696e203360008201527f3220626974730000000000000000000000000000000000000000000000000000602082015250565b6000614833602683613256565b915061483e826147d7565b604082019050919050565b6000602082019050818103600083015261486281614826565b9050919050565b7f4e487b7100000000000000000000000000000000000000000000000000000000600052601260045260246000fd5b60006040820190506148ad600083018561365c565b6148ba602083018461365c565b9392505050565b7f45434453413a20696e76616c6964207369676e61747572650000000000000000600082015250565b60006148f7601883613256565b9150614902826148c1565b602082019050919050565b60006020820190508181036000830152614926816148ea565b9050919050565b7f45434453413a20696e76616c6964207369676e6174757265206c656e67746800600082015250565b6000614963601f83613256565b915061496e8261492d565b602082019050919050565b6000602082019050818103600083015261499281614956565b9050919050565b7f45434453413a20696e76616c6964207369676e6174757265202773272076616c60008201527f7565000000000000000000000000000000000000000000000000000000000000602082015250565b60006149f5602283613256565b9150614a0082614999565b604082019050919050565b60006020820190508181036000830152614a24816149e8565b9050919050565b7f1901000000000000000000000000000000000000000000000000000000000000600082015250565b6000614a61600283614724565b9150614a6c82614a2b565b600282019050919050565b6000819050919050565b614a92614a8d8261347b565b614a77565b82525050565b6000614aa382614a54565b9150614aaf8285614a81565b602082019150614abf8284614a81565b6020820191508190509392505050565b614ad88161380f565b82525050565b6000608082019050614af36000830187613485565b614b006020830186614acf565b614b0d6040830185613485565b614b1a6060830184613485565b95945050505050565b6000614b2e826132fd565b9150614b39836132fd565b925082614b4957614b48614869565b5b828204905092915050565b7f53616665436173743a2076616c756520646f65736e27742066697420696e203260008201527f3234206269747300000000000000000000000000000000000000000000000000602082015250565b6000614bb0602783613256565b9150614bbb82614b54565b604082019050919050565b60006020820190508181036000830152614bdf81614ba3565b9050919050565b7f436865636b706f696e743a20696e76616c6964206b6579000000000000000000600082015250565b6000614c1c601783613256565b9150614c2782614be6565b602082019050919050565b60006020820190508181036000830152614c4b81614c0f565b905091905056fea264697066735822122083e1ed0f577423c75628a3ebd1cbd6c55fd919cd7f4d7cb3ae43ce12b9af740064736f6c63430008110033",
  "devdoc": {
    "kind": "dev",
    "methods": {
      "DOMAIN_SEPARATOR()": {
        "details": "Returns the contract's {EIP712} domain separator."
      },
      "approve(address,uint256)": {
        "details": "See {IERC721-approve}."
      },
      "balanceOf(address)": {
        "details": "See {IERC721-balanceOf}."
      },
      "delegate(address)": {
        "details": "Delegates votes from the sender to `delegatee`."
      },
      "delegateBySig(address,uint256,uint256,uint8,bytes32,bytes32)": {
        "details": "Delegates votes from signer to `delegatee`."
      },
      "delegates(address)": {
        "details": "Returns the delegate that `account` has chosen."
      },
      "getApproved(uint256)": {
        "details": "See {IERC721-getApproved}."
      },
      "getPastTotalSupply(uint256)": {
        "details": "Returns the total supply of votes available at the end of a past block (`blockNumber`). NOTE: This value is the sum of all available votes, which is not necessarily the sum of all delegated votes. Votes that have not been delegated are still part of total supply, even though they would not participate in a vote. Requirements: - `blockNumber` must have been already mined"
      },
      "getPastVotes(address,uint256)": {
        "details": "Returns the amount of votes that `account` had at the end of a past block (`blockNumber`). Requirements: - `blockNumber` must have been already mined"
      },
      "getVotes(address)": {
        "details": "Returns the current amount of votes that `account` has."
      },
      "isApprovedForAll(address,address)": {
        "details": "See {IERC721-isApprovedForAll}."
      },
      "name()": {
        "details": "See {IERC721Metadata-name}."
      },
      "nonces(address)": {
        "details": "Returns an address nonce."
      },
      "ownerOf(uint256)": {
        "details": "See {IERC721-ownerOf}."
      },
      "safeTransferFrom(address,address,uint256)": {
        "details": "See {IERC721-safeTransferFrom}."
      },
      "safeTransferFrom(address,address,uint256,bytes)": {
        "details": "See {IERC721-safeTransferFrom}."
      },
      "setApprovalForAll(address,bool)": {
        "details": "See {IERC721-setApprovalForAll}."
      },
      "supportsInterface(bytes4)": {
        "details": "See {IERC165-supportsInterface}."
      },
      "symbol()": {
        "details": "See {IERC721Metadata-symbol}."
      },
      "verifySignature((string,bytes,bytes,bytes))": {
        "details": "Will revert if the signature is invalid. Does not verify that the signer is authorized to mint NFTs.",
        "params": {
          "voucher": "An NFTVoucher describing an unminted NFT."
        }
      }
    },
    "version": 1
  },
  "userdoc": {
    "kind": "user",
    "methods": {
      "redeem((string,bytes,bytes,bytes))": {
        "notice": "Redeems an NFTVoucher for an actual NFT, creating it in the process."
      },
      "verifySignature((string,bytes,bytes,bytes))": {
        "notice": "Verifies the signature for a given NFTVoucher, returning the address of the signer."
      }
    },
    "version": 1
  },
  "storageLayout": {
    "storage": [
      {
        "astId": 7825,
        "contract": "contracts/core/UserIdentityNFT.sol:UserIdentityNFT",
        "label": "_name",
        "offset": 0,
        "slot": "0",
        "type": "t_string_storage"
      },
      {
        "astId": 7827,
        "contract": "contracts/core/UserIdentityNFT.sol:UserIdentityNFT",
        "label": "_symbol",
        "offset": 0,
        "slot": "1",
        "type": "t_string_storage"
      },
      {
        "astId": 7831,
        "contract": "contracts/core/UserIdentityNFT.sol:UserIdentityNFT",
        "label": "_owners",
        "offset": 0,
        "slot": "2",
        "type": "t_mapping(t_uint256,t_address)"
      },
      {
        "astId": 7835,
        "contract": "contracts/core/UserIdentityNFT.sol:UserIdentityNFT",
        "label": "_balances",
        "offset": 0,
        "slot": "3",
        "type": "t_mapping(t_address,t_uint256)"
      },
      {
        "astId": 7839,
        "contract": "contracts/core/UserIdentityNFT.sol:UserIdentityNFT",
        "label": "_tokenApprovals",
        "offset": 0,
        "slot": "4",
        "type": "t_mapping(t_uint256,t_address)"
      },
      {
        "astId": 7845,
        "contract": "contracts/core/UserIdentityNFT.sol:UserIdentityNFT",
        "label": "_operatorApprovals",
        "offset": 0,
        "slot": "5",
        "type": "t_mapping(t_address,t_mapping(t_address,t_bool))"
      },
      {
        "astId": 8891,
        "contract": "contracts/core/UserIdentityNFT.sol:UserIdentityNFT",
        "label": "_tokenURIs",
        "offset": 0,
        "slot": "6",
        "type": "t_mapping(t_uint256,t_string_storage)"
      },
      {
        "astId": 6570,
        "contract": "contracts/core/UserIdentityNFT.sol:UserIdentityNFT",
        "label": "_delegation",
        "offset": 0,
        "slot": "7",
        "type": "t_mapping(t_address,t_address)"
      },
      {
        "astId": 6575,
        "contract": "contracts/core/UserIdentityNFT.sol:UserIdentityNFT",
        "label": "_delegateCheckpoints",
        "offset": 0,
        "slot": "8",
        "type": "t_mapping(t_address,t_struct(History)9423_storage)"
      },
      {
        "astId": 6578,
        "contract": "contracts/core/UserIdentityNFT.sol:UserIdentityNFT",
        "label": "_totalCheckpoints",
        "offset": 0,
        "slot": "9",
        "type": "t_struct(History)9423_storage"
      },
      {
        "astId": 6583,
        "contract": "contracts/core/UserIdentityNFT.sol:UserIdentityNFT",
        "label": "_nonces",
        "offset": 0,
        "slot": "10",
        "type": "t_mapping(t_address,t_struct(Counter)10809_storage)"
      },
      {
        "astId": 15943,
        "contract": "contracts/core/UserIdentityNFT.sol:UserIdentityNFT",
        "label": "idCount",
        "offset": 0,
        "slot": "11",
        "type": "t_struct(Counter)10809_storage"
      },
      {
        "astId": 15946,
        "contract": "contracts/core/UserIdentityNFT.sol:UserIdentityNFT",
        "label": "figureprintOracle",
        "offset": 0,
        "slot": "12",
        "type": "t_contract(FigurePrintOracle)15876"
      }
    ],
    "types": {
      "t_address": {
        "encoding": "inplace",
        "label": "address",
        "numberOfBytes": "20"
      },
      "t_array(t_struct(Checkpoint)9428_storage)dyn_storage": {
        "base": "t_struct(Checkpoint)9428_storage",
        "encoding": "dynamic_array",
        "label": "struct Checkpoints.Checkpoint[]",
        "numberOfBytes": "32"
      },
      "t_bool": {
        "encoding": "inplace",
        "label": "bool",
        "numberOfBytes": "1"
      },
      "t_contract(FigurePrintOracle)15876": {
        "encoding": "inplace",
        "label": "contract FigurePrintOracle",
        "numberOfBytes": "20"
      },
      "t_mapping(t_address,t_address)": {
        "encoding": "mapping",
        "key": "t_address",
        "label": "mapping(address => address)",
        "numberOfBytes": "32",
        "value": "t_address"
      },
      "t_mapping(t_address,t_bool)": {
        "encoding": "mapping",
        "key": "t_address",
        "label": "mapping(address => bool)",
        "numberOfBytes": "32",
        "value": "t_bool"
      },
      "t_mapping(t_address,t_mapping(t_address,t_bool))": {
        "encoding": "mapping",
        "key": "t_address",
        "label": "mapping(address => mapping(address => bool))",
        "numberOfBytes": "32",
        "value": "t_mapping(t_address,t_bool)"
      },
      "t_mapping(t_address,t_struct(Counter)10809_storage)": {
        "encoding": "mapping",
        "key": "t_address",
        "label": "mapping(address => struct Counters.Counter)",
        "numberOfBytes": "32",
        "value": "t_struct(Counter)10809_storage"
      },
      "t_mapping(t_address,t_struct(History)9423_storage)": {
        "encoding": "mapping",
        "key": "t_address",
        "label": "mapping(address => struct Checkpoints.History)",
        "numberOfBytes": "32",
        "value": "t_struct(History)9423_storage"
      },
      "t_mapping(t_address,t_uint256)": {
        "encoding": "mapping",
        "key": "t_address",
        "label": "mapping(address => uint256)",
        "numberOfBytes": "32",
        "value": "t_uint256"
      },
      "t_mapping(t_uint256,t_address)": {
        "encoding": "mapping",
        "key": "t_uint256",
        "label": "mapping(uint256 => address)",
        "numberOfBytes": "32",
        "value": "t_address"
      },
      "t_mapping(t_uint256,t_string_storage)": {
        "encoding": "mapping",
        "key": "t_uint256",
        "label": "mapping(uint256 => string)",
        "numberOfBytes": "32",
        "value": "t_string_storage"
      },
      "t_string_storage": {
        "encoding": "bytes",
        "label": "string",
        "numberOfBytes": "32"
      },
      "t_struct(Checkpoint)9428_storage": {
        "encoding": "inplace",
        "label": "struct Checkpoints.Checkpoint",
        "members": [
          {
            "astId": 9425,
            "contract": "contracts/core/UserIdentityNFT.sol:UserIdentityNFT",
            "label": "_blockNumber",
            "offset": 0,
            "slot": "0",
            "type": "t_uint32"
          },
          {
            "astId": 9427,
            "contract": "contracts/core/UserIdentityNFT.sol:UserIdentityNFT",
            "label": "_value",
            "offset": 4,
            "slot": "0",
            "type": "t_uint224"
          }
        ],
        "numberOfBytes": "32"
      },
      "t_struct(Counter)10809_storage": {
        "encoding": "inplace",
        "label": "struct Counters.Counter",
        "members": [
          {
            "astId": 10808,
            "contract": "contracts/core/UserIdentityNFT.sol:UserIdentityNFT",
            "label": "_value",
            "offset": 0,
            "slot": "0",
            "type": "t_uint256"
          }
        ],
        "numberOfBytes": "32"
      },
      "t_struct(History)9423_storage": {
        "encoding": "inplace",
        "label": "struct Checkpoints.History",
        "members": [
          {
            "astId": 9422,
            "contract": "contracts/core/UserIdentityNFT.sol:UserIdentityNFT",
            "label": "_checkpoints",
            "offset": 0,
            "slot": "0",
            "type": "t_array(t_struct(Checkpoint)9428_storage)dyn_storage"
          }
        ],
        "numberOfBytes": "32"
      },
      "t_uint224": {
        "encoding": "inplace",
        "label": "uint224",
        "numberOfBytes": "28"
      },
      "t_uint256": {
        "encoding": "inplace",
        "label": "uint256",
        "numberOfBytes": "32"
      },
      "t_uint32": {
        "encoding": "inplace",
        "label": "uint32",
        "numberOfBytes": "4"
      }
    }
  }
}