{
  "address": "0xA51c1fc2f0D1a1b8494Ed1FE312d7C3a78Ed91C0",
  "abi": [
    {
      "inputs": [
        {
          "internalType": "string",
          "name": "name",
          "type": "string"
        },
        {
          "internalType": "string",
          "name": "symbol",
          "type": "string"
        },
        {
          "internalType": "string",
          "name": "signingDomain",
          "type": "string"
        },
        {
          "internalType": "string",
          "name": "signatureVersion",
          "type": "string"
        }
      ],
      "stateMutability": "nonpayable",
      "type": "constructor"
    },
    {
      "inputs": [
        {
          "internalType": "uint256",
          "name": "tokenId",
          "type": "uint256"
        },
        {
          "internalType": "address",
          "name": "from",
          "type": "address"
        }
      ],
      "name": "UserIdentityNFT__DirectMintNotAllow",
      "type": "error"
    },
    {
      "inputs": [],
      "name": "UserIdentityNFT__FirstVerifyIdenetity",
      "type": "error"
    },
    {
      "inputs": [],
      "name": "UserIdentityNFT__NotValidUserToRedeem",
      "type": "error"
    },
    {
      "inputs": [
        {
          "internalType": "uint256",
          "name": "tokenId",
          "type": "uint256"
        },
        {
          "internalType": "address",
          "name": "from",
          "type": "address"
        }
      ],
      "name": "UserIdentityNFT__TransferNoAllowed",
      "type": "error"
    },
    {
      "inputs": [
        {
          "internalType": "bytes",
          "name": "userId",
          "type": "bytes"
        },
        {
          "internalType": "address",
          "name": "userAddress",
          "type": "address"
        }
      ],
      "name": "UserIdentityNFT__UserIdAlreadyIssued",
      "type": "error"
    },
    {
      "inputs": [],
      "name": "UserIdentityNFT__VerficationStillFail",
      "type": "error"
    },
    {
      "inputs": [],
      "name": "UserIdentityNFT__VerficationStillPending",
      "type": "error"
    },
    {
      "anonymous": false,
      "inputs": [
        {
          "indexed": true,
          "internalType": "address",
          "name": "owner",
          "type": "address"
        },
        {
          "indexed": true,
          "internalType": "address",
          "name": "approved",
          "type": "address"
        },
        {
          "indexed": true,
          "internalType": "uint256",
          "name": "tokenId",
          "type": "uint256"
        }
      ],
      "name": "Approval",
      "type": "event"
    },
    {
      "anonymous": false,
      "inputs": [
        {
          "indexed": true,
          "internalType": "address",
          "name": "owner",
          "type": "address"
        },
        {
          "indexed": true,
          "internalType": "address",
          "name": "operator",
          "type": "address"
        },
        {
          "indexed": false,
          "internalType": "bool",
          "name": "approved",
          "type": "bool"
        }
      ],
      "name": "ApprovalForAll",
      "type": "event"
    },
    {
      "anonymous": false,
      "inputs": [
        {
          "indexed": true,
          "internalType": "address",
          "name": "delegator",
          "type": "address"
        },
        {
          "indexed": true,
          "internalType": "address",
          "name": "fromDelegate",
          "type": "address"
        },
        {
          "indexed": true,
          "internalType": "address",
          "name": "toDelegate",
          "type": "address"
        }
      ],
      "name": "DelegateChanged",
      "type": "event"
    },
    {
      "anonymous": false,
      "inputs": [
        {
          "indexed": true,
          "internalType": "address",
          "name": "delegate",
          "type": "address"
        },
        {
          "indexed": false,
          "internalType": "uint256",
          "name": "previousBalance",
          "type": "uint256"
        },
        {
          "indexed": false,
          "internalType": "uint256",
          "name": "newBalance",
          "type": "uint256"
        }
      ],
      "name": "DelegateVotesChanged",
      "type": "event"
    },
    {
      "anonymous": false,
      "inputs": [
        {
          "indexed": true,
          "internalType": "bytes",
          "name": "userId",
          "type": "bytes"
        },
        {
          "indexed": false,
          "internalType": "address",
          "name": "userAddres",
          "type": "address"
        },
        {
          "indexed": false,
          "internalType": "enum VerficationStatus",
          "name": "status",
          "type": "uint8"
        }
      ],
      "name": "IdVerifedAndIssued",
      "type": "event"
    },
    {
      "anonymous": false,
      "inputs": [
        {
          "indexed": true,
          "internalType": "address",
          "name": "previousOwner",
          "type": "address"
        },
        {
          "indexed": true,
          "internalType": "address",
          "name": "newOwner",
          "type": "address"
        }
      ],
      "name": "OwnershipTransferred",
      "type": "event"
    },
    {
      "anonymous": false,
      "inputs": [
        {
          "indexed": true,
          "internalType": "address",
          "name": "from",
          "type": "address"
        },
        {
          "indexed": true,
          "internalType": "address",
          "name": "to",
          "type": "address"
        },
        {
          "indexed": true,
          "internalType": "uint256",
          "name": "tokenId",
          "type": "uint256"
        }
      ],
      "name": "Transfer",
      "type": "event"
    },
    {
      "inputs": [],
      "name": "CLAME_USERID_VOUCHER",
      "outputs": [
        {
          "internalType": "bytes32",
          "name": "",
          "type": "bytes32"
        }
      ],
      "stateMutability": "view",
      "type": "function"
    },
    {
      "inputs": [],
      "name": "DOMAIN_SEPARATOR",
      "outputs": [
        {
          "internalType": "bytes32",
          "name": "",
          "type": "bytes32"
        }
      ],
      "stateMutability": "view",
      "type": "function"
    },
    {
      "inputs": [
        {
          "internalType": "address",
          "name": "to",
          "type": "address"
        },
        {
          "internalType": "uint256",
          "name": "tokenId",
          "type": "uint256"
        }
      ],
      "name": "approve",
      "outputs": [],
      "stateMutability": "nonpayable",
      "type": "function"
    },
    {
      "inputs": [
        {
          "internalType": "address",
          "name": "owner",
          "type": "address"
        }
      ],
      "name": "balanceOf",
      "outputs": [
        {
          "internalType": "uint256",
          "name": "",
          "type": "uint256"
        }
      ],
      "stateMutability": "view",
      "type": "function"
    },
    {
      "inputs": [],
      "name": "compaire",
      "outputs": [
        {
          "internalType": "bool",
          "name": "",
          "type": "bool"
        }
      ],
      "stateMutability": "nonpayable",
      "type": "function"
    },
    {
      "inputs": [
        {
          "internalType": "address",
          "name": "delegatee",
          "type": "address"
        }
      ],
      "name": "delegate",
      "outputs": [],
      "stateMutability": "nonpayable",
      "type": "function"
    },
    {
      "inputs": [
        {
          "internalType": "address",
          "name": "delegatee",
          "type": "address"
        },
        {
          "internalType": "uint256",
          "name": "nonce",
          "type": "uint256"
        },
        {
          "internalType": "uint256",
          "name": "expiry",
          "type": "uint256"
        },
        {
          "internalType": "uint8",
          "name": "v",
          "type": "uint8"
        },
        {
          "internalType": "bytes32",
          "name": "r",
          "type": "bytes32"
        },
        {
          "internalType": "bytes32",
          "name": "s",
          "type": "bytes32"
        }
      ],
      "name": "delegateBySig",
      "outputs": [],
      "stateMutability": "nonpayable",
      "type": "function"
    },
    {
      "inputs": [
        {
          "internalType": "address",
          "name": "account",
          "type": "address"
        }
      ],
      "name": "delegates",
      "outputs": [
        {
          "internalType": "address",
          "name": "",
          "type": "address"
        }
      ],
      "stateMutability": "view",
      "type": "function"
    },
    {
      "inputs": [
        {
          "internalType": "uint256",
          "name": "tokenId",
          "type": "uint256"
        }
      ],
      "name": "getApproved",
      "outputs": [
        {
          "internalType": "address",
          "name": "",
          "type": "address"
        }
      ],
      "stateMutability": "view",
      "type": "function"
    },
    {
      "inputs": [],
      "name": "getFingerPrintAddress",
      "outputs": [
        {
          "internalType": "address",
          "name": "",
          "type": "address"
        }
      ],
      "stateMutability": "view",
      "type": "function"
    },
    {
      "inputs": [],
      "name": "getIdCount",
      "outputs": [
        {
          "internalType": "uint256",
          "name": "",
          "type": "uint256"
        }
      ],
      "stateMutability": "view",
      "type": "function"
    },
    {
      "inputs": [
        {
          "internalType": "uint256",
          "name": "blockNumber",
          "type": "uint256"
        }
      ],
      "name": "getPastTotalSupply",
      "outputs": [
        {
          "internalType": "uint256",
          "name": "",
          "type": "uint256"
        }
      ],
      "stateMutability": "view",
      "type": "function"
    },
    {
      "inputs": [
        {
          "internalType": "address",
          "name": "account",
          "type": "address"
        },
        {
          "internalType": "uint256",
          "name": "blockNumber",
          "type": "uint256"
        }
      ],
      "name": "getPastVotes",
      "outputs": [
        {
          "internalType": "uint256",
          "name": "",
          "type": "uint256"
        }
      ],
      "stateMutability": "view",
      "type": "function"
    },
    {
      "inputs": [
        {
          "internalType": "address",
          "name": "account",
          "type": "address"
        }
      ],
      "name": "getVotes",
      "outputs": [
        {
          "internalType": "uint256",
          "name": "",
          "type": "uint256"
        }
      ],
      "stateMutability": "view",
      "type": "function"
    },
    {
      "inputs": [],
      "name": "getfigureprintOracleAddress",
      "outputs": [
        {
          "internalType": "address",
          "name": "",
          "type": "address"
        }
      ],
      "stateMutability": "view",
      "type": "function"
    },
    {
      "inputs": [],
      "name": "getfigureprintOracleResponse",
      "outputs": [
        {
          "components": [
            {
              "internalType": "bytes",
              "name": "userId",
              "type": "bytes"
            },
            {
              "internalType": "uint256",
              "name": "numberTries",
              "type": "uint256"
            },
            {
              "internalType": "enum VerficationStatus",
              "name": "status",
              "type": "uint8"
            }
          ],
          "internalType": "struct VerifcaitonRecord",
          "name": "",
          "type": "tuple"
        }
      ],
      "stateMutability": "view",
      "type": "function"
    },
    {
      "inputs": [
        {
          "internalType": "address",
          "name": "owner",
          "type": "address"
        },
        {
          "internalType": "address",
          "name": "operator",
          "type": "address"
        }
      ],
      "name": "isApprovedForAll",
      "outputs": [
        {
          "internalType": "bool",
          "name": "",
          "type": "bool"
        }
      ],
      "stateMutability": "view",
      "type": "function"
    },
    {
      "inputs": [],
      "name": "name",
      "outputs": [
        {
          "internalType": "string",
          "name": "",
          "type": "string"
        }
      ],
      "stateMutability": "view",
      "type": "function"
    },
    {
      "inputs": [
        {
          "internalType": "address",
          "name": "owner",
          "type": "address"
        }
      ],
      "name": "nonces",
      "outputs": [
        {
          "internalType": "uint256",
          "name": "",
          "type": "uint256"
        }
      ],
      "stateMutability": "view",
      "type": "function"
    },
    {
      "inputs": [],
      "name": "owner",
      "outputs": [
        {
          "internalType": "address",
          "name": "",
          "type": "address"
        }
      ],
      "stateMutability": "view",
      "type": "function"
    },
    {
      "inputs": [
        {
          "internalType": "uint256",
          "name": "tokenId",
          "type": "uint256"
        }
      ],
      "name": "ownerOf",
      "outputs": [
        {
          "internalType": "address",
          "name": "",
          "type": "address"
        }
      ],
      "stateMutability": "view",
      "type": "function"
    },
    {
      "inputs": [
        {
          "components": [
            {
              "internalType": "string",
              "name": "uri",
              "type": "string"
            },
            {
              "internalType": "bytes",
              "name": "userId",
              "type": "bytes"
            },
            {
              "internalType": "bytes",
              "name": "fingerPrint",
              "type": "bytes"
            },
            {
              "internalType": "bytes",
              "name": "signature",
              "type": "bytes"
            }
          ],
          "internalType": "struct UserIdVoucher",
          "name": "voucher",
          "type": "tuple"
        }
      ],
      "name": "redeem",
      "outputs": [],
      "stateMutability": "nonpayable",
      "type": "function"
    },
    {
      "inputs": [],
      "name": "renounceOwnership",
      "outputs": [],
      "stateMutability": "nonpayable",
      "type": "function"
    },
    {
      "inputs": [
        {
          "internalType": "address",
          "name": "from",
          "type": "address"
        },
        {
          "internalType": "address",
          "name": "to",
          "type": "address"
        },
        {
          "internalType": "uint256",
          "name": "tokenId",
          "type": "uint256"
        }
      ],
      "name": "safeTransferFrom",
      "outputs": [],
      "stateMutability": "nonpayable",
      "type": "function"
    },
    {
      "inputs": [
        {
          "internalType": "address",
          "name": "from",
          "type": "address"
        },
        {
          "internalType": "address",
          "name": "to",
          "type": "address"
        },
        {
          "internalType": "uint256",
          "name": "tokenId",
          "type": "uint256"
        },
        {
          "internalType": "bytes",
          "name": "data",
          "type": "bytes"
        }
      ],
      "name": "safeTransferFrom",
      "outputs": [],
      "stateMutability": "nonpayable",
      "type": "function"
    },
    {
      "inputs": [
        {
          "internalType": "address",
          "name": "operator",
          "type": "address"
        },
        {
          "internalType": "bool",
          "name": "approved",
          "type": "bool"
        }
      ],
      "name": "setApprovalForAll",
      "outputs": [],
      "stateMutability": "nonpayable",
      "type": "function"
    },
    {
      "inputs": [
        {
          "internalType": "address payable",
          "name": "_figureprintOracle",
          "type": "address"
        }
      ],
      "name": "setFingerPrintAddress",
      "outputs": [],
      "stateMutability": "nonpayable",
      "type": "function"
    },
    {
      "inputs": [
        {
          "internalType": "bytes4",
          "name": "interfaceId",
          "type": "bytes4"
        }
      ],
      "name": "supportsInterface",
      "outputs": [
        {
          "internalType": "bool",
          "name": "",
          "type": "bool"
        }
      ],
      "stateMutability": "view",
      "type": "function"
    },
    {
      "inputs": [],
      "name": "symbol",
      "outputs": [
        {
          "internalType": "string",
          "name": "",
          "type": "string"
        }
      ],
      "stateMutability": "view",
      "type": "function"
    },
    {
      "inputs": [
        {
          "internalType": "uint256",
          "name": "tokenId",
          "type": "uint256"
        }
      ],
      "name": "tokenURI",
      "outputs": [
        {
          "internalType": "string",
          "name": "",
          "type": "string"
        }
      ],
      "stateMutability": "view",
      "type": "function"
    },
    {
      "inputs": [
        {
          "internalType": "address",
          "name": "from",
          "type": "address"
        },
        {
          "internalType": "address",
          "name": "",
          "type": "address"
        },
        {
          "internalType": "uint256",
          "name": "tokenId",
          "type": "uint256"
        }
      ],
      "name": "transferFrom",
      "outputs": [],
      "stateMutability": "nonpayable",
      "type": "function"
    },
    {
      "inputs": [
        {
          "internalType": "address",
          "name": "newOwner",
          "type": "address"
        }
      ],
      "name": "transferOwnership",
      "outputs": [],
      "stateMutability": "nonpayable",
      "type": "function"
    },
    {
      "inputs": [
        {
          "internalType": "bytes",
          "name": "userId",
          "type": "bytes"
        },
        {
          "internalType": "bytes",
          "name": "fingerPrint",
          "type": "bytes"
        }
      ],
      "name": "verifyFingerPrint",
      "outputs": [],
      "stateMutability": "nonpayable",
      "type": "function"
    },
    {
      "inputs": [
        {
          "components": [
            {
              "internalType": "string",
              "name": "uri",
              "type": "string"
            },
            {
              "internalType": "bytes",
              "name": "userId",
              "type": "bytes"
            },
            {
              "internalType": "bytes",
              "name": "fingerPrint",
              "type": "bytes"
            },
            {
              "internalType": "bytes",
              "name": "signature",
              "type": "bytes"
            }
          ],
          "internalType": "struct UserIdVoucher",
          "name": "voucher",
          "type": "tuple"
        }
      ],
      "name": "verifySignature",
      "outputs": [
        {
          "internalType": "address",
          "name": "",
          "type": "address"
        }
      ],
      "stateMutability": "view",
      "type": "function"
    }
  ],
  "transactionHash": "0x5a769845771b7d43cbb373582dd24075db5daeb0f53f87b8c10db02137b945d3",
  "args": [
    "User-Identity",
    "786",
    "User-Identity",
    "1"
  ],
  "numDeployments": 2,
  "solcInputHash": "b59272eb8035bc063c3aaafa488fd3b0",
  "bytecode": "0x6101406040523480156200001257600080fd5b506040516200669c3803806200669c8339818101604052810190620000389190620003e3565b8181858581600090816200004d91906200071c565b5080600190816200005f91906200071c565b50505062000082620000766200014660201b60201c565b6200014e60201b60201c565b600160088190555060008280519060200120905060008280519060200120905060007f8b73c3c69bb8fe3d512ecc4cf759cc79239f7b179b0ffacaa9a75d522b39400f90508260e081815250508161010081815250504660a08181525050620000f38184846200021460201b60201c565b608081815250503073ffffffffffffffffffffffffffffffffffffffff1660c08173ffffffffffffffffffffffffffffffffffffffff1681525050806101208181525050505050505050505050620008d1565b600033905090565b6000600760009054906101000a900473ffffffffffffffffffffffffffffffffffffffff16905081600760006101000a81548173ffffffffffffffffffffffffffffffffffffffff021916908373ffffffffffffffffffffffffffffffffffffffff1602179055508173ffffffffffffffffffffffffffffffffffffffff168173ffffffffffffffffffffffffffffffffffffffff167f8be0079c531659141344cd1fd0a4f28419497f9722a3daafe3b4186f6b6457e060405160405180910390a35050565b600083838346306040516020016200023195949392919062000874565b6040516020818303038152906040528051906020012090509392505050565b6000604051905090565b600080fd5b600080fd5b600080fd5b600080fd5b6000601f19601f8301169050919050565b7f4e487b7100000000000000000000000000000000000000000000000000000000600052604160045260246000fd5b620002b9826200026e565b810181811067ffffffffffffffff82111715620002db57620002da6200027f565b5b80604052505050565b6000620002f062000250565b9050620002fe8282620002ae565b919050565b600067ffffffffffffffff8211156200032157620003206200027f565b5b6200032c826200026e565b9050602081019050919050565b60005b83811015620003595780820151818401526020810190506200033c565b60008484015250505050565b60006200037c620003768462000303565b620002e4565b9050828152602081018484840111156200039b576200039a62000269565b5b620003a884828562000339565b509392505050565b600082601f830112620003c857620003c762000264565b5b8151620003da84826020860162000365565b91505092915050565b600080600080608085870312156200040057620003ff6200025a565b5b600085015167ffffffffffffffff8111156200042157620004206200025f565b5b6200042f87828801620003b0565b945050602085015167ffffffffffffffff8111156200045357620004526200025f565b5b6200046187828801620003b0565b935050604085015167ffffffffffffffff8111156200048557620004846200025f565b5b6200049387828801620003b0565b925050606085015167ffffffffffffffff811115620004b757620004b66200025f565b5b620004c587828801620003b0565b91505092959194509250565b600081519050919050565b7f4e487b7100000000000000000000000000000000000000000000000000000000600052602260045260246000fd5b600060028204905060018216806200052457607f821691505b6020821081036200053a5762000539620004dc565b5b50919050565b60008190508160005260206000209050919050565b60006020601f8301049050919050565b600082821b905092915050565b600060088302620005a47fffffffffffffffffffffffffffffffffffffffffffffffffffffffffffffffff8262000565565b620005b0868362000565565b95508019841693508086168417925050509392505050565b6000819050919050565b6000819050919050565b6000620005fd620005f7620005f184620005c8565b620005d2565b620005c8565b9050919050565b6000819050919050565b6200061983620005dc565b62000631620006288262000604565b84845462000572565b825550505050565b600090565b6200064862000639565b620006558184846200060e565b505050565b5b818110156200067d57620006716000826200063e565b6001810190506200065b565b5050565b601f821115620006cc57620006968162000540565b620006a18462000555565b81016020851015620006b1578190505b620006c9620006c08562000555565b8301826200065a565b50505b505050565b600082821c905092915050565b6000620006f160001984600802620006d1565b1980831691505092915050565b60006200070c8383620006de565b9150826002028217905092915050565b6200072782620004d1565b67ffffffffffffffff8111156200074357620007426200027f565b5b6200074f82546200050b565b6200075c82828562000681565b600060209050601f8311600181146200079457600084156200077f578287015190505b6200078b8582620006fe565b865550620007fb565b601f198416620007a48662000540565b60005b82811015620007ce57848901518255600182019150602085019450602081019050620007a7565b86831015620007ee5784890151620007ea601f891682620006de565b8355505b6001600288020188555050505b505050505050565b6000819050919050565b620008188162000803565b82525050565b6200082981620005c8565b82525050565b600073ffffffffffffffffffffffffffffffffffffffff82169050919050565b60006200085c826200082f565b9050919050565b6200086e816200084f565b82525050565b600060a0820190506200088b60008301886200080d565b6200089a60208301876200080d565b620008a960408301866200080d565b620008b860608301856200081e565b620008c7608083018462000863565b9695505050505050565b60805160a05160c05160e0516101005161012051615d7b62000921600039600061192a0152600061196c0152600061194b01526000611880015260006118d6015260006118ff0152615d7b6000f3fe608060405234801561001057600080fd5b50600436106102065760003560e01c8063715018a61161011a578063a22cb465116100ad578063c87b56dd1161007c578063c87b56dd146105ff578063d63222c31461062f578063db5890ee1461064b578063e985e9c514610669578063f2fde38b1461069957610206565b8063a22cb4651461058d578063b88d4fde146105a9578063c3a50d2c146105c5578063c3cda520146105e357610206565b80638da5cb5b116100e95780638da5cb5b146104f15780638e539e8c1461050f57806395d89b411461053f5780639ab24eb01461055d57610206565b8063715018a61461046957806373f2d272146104735780637ecebe00146104915780638483de56146104c157610206565b80633a46b1a81161019d578063587cde1e1161016c578063587cde1e146103a15780635c19a95c146103d15780636352211e146103ed578063696efb851461041d57806370a082311461043957610206565b80633a46b1a81461031957806342842e0e146103495780634a8cb25c14610365578063505105431461038357610206565b80630a2b1fab116101d95780630a2b1fab146102a557806323b872dd146102c35780633644e515146102df5780633a089942146102fd57610206565b806301ffc9a71461020b57806306fdde031461023b578063081812fc14610259578063095ea7b314610289575b600080fd5b61022560048036038101906102209190613d1c565b6106b5565b6040516102329190613d64565b60405180910390f35b610243610797565b6040516102509190613e0f565b60405180910390f35b610273600480360381019061026e9190613e67565b610829565b6040516102809190613ed5565b60405180910390f35b6102a3600480360381019061029e9190613f1c565b61086f565b005b6102ad610986565b6040516102ba9190613d64565b60405180910390f35b6102dd60048036038101906102d89190613f5c565b610999565b005b6102e76109d8565b6040516102f49190613fc8565b60405180910390f35b61031760048036038101906103129190614118565b6109e7565b005b610333600480360381019061032e9190613f1c565b610acc565b604051610340919061419f565b60405180910390f35b610363600480360381019061035e9190613f5c565b610b27565b005b61036d610b47565b60405161037a9190613ed5565b60405180910390f35b61038b610b71565b60405161039891906142e5565b60405180910390f35b6103bb60048036038101906103b69190614307565b610c25565b6040516103c89190613ed5565b60405180910390f35b6103eb60048036038101906103e69190614307565b610c8e565b005b61040760048036038101906104029190613e67565b610ca8565b6040516104149190613ed5565b60405180910390f35b61043760048036038101906104329190614358565b610d2e565b005b610453600480360381019061044e9190614307565b61107b565b604051610460919061419f565b60405180910390f35b610471611132565b005b61047b611146565b6040516104889190613fc8565b60405180910390f35b6104ab60048036038101906104a69190614307565b611169565b6040516104b8919061419f565b60405180910390f35b6104db60048036038101906104d69190614358565b6111b9565b6040516104e89190613ed5565b60405180910390f35b6104f961122b565b6040516105069190613ed5565b60405180910390f35b61052960048036038101906105249190613e67565b611255565b604051610536919061419f565b60405180910390f35b6105476112b4565b6040516105549190613e0f565b60405180910390f35b61057760048036038101906105729190614307565b611346565b604051610584919061419f565b60405180910390f35b6105a760048036038101906105a291906143cd565b6113b4565b005b6105c360048036038101906105be919061440d565b6113ca565b005b6105cd61142c565b6040516105da9190613ed5565b60405180910390f35b6105fd60048036038101906105f891906144f5565b611456565b005b61061960048036038101906106149190613e67565b61155a565b6040516106269190613e0f565b60405180910390f35b610649600480360381019061064491906145c0565b61156c565b005b6106536115c8565b604051610660919061419f565b60405180910390f35b610683600480360381019061067e91906145ed565b6115d9565b6040516106909190613d64565b60405180910390f35b6106b360048036038101906106ae9190614307565b61166d565b005b60007f80ac58cd000000000000000000000000000000000000000000000000000000007bffffffffffffffffffffffffffffffffffffffffffffffffffffffff1916827bffffffffffffffffffffffffffffffffffffffffffffffffffffffff1916148061078057507f5b5e139f000000000000000000000000000000000000000000000000000000007bffffffffffffffffffffffffffffffffffffffffffffffffffffffff1916827bffffffffffffffffffffffffffffffffffffffffffffffffffffffff1916145b80610790575061078f826116f0565b5b9050919050565b6060600080546107a69061465c565b80601f01602080910402602001604051908101604052809291908181526020018280546107d29061465c565b801561081f5780601f106107f45761010080835404028352916020019161081f565b820191906000526020600020905b81548152906001019060200180831161080257829003601f168201915b5050505050905090565b60006108348261175a565b6004600083815260200190815260200160002060009054906101000a900473ffffffffffffffffffffffffffffffffffffffff169050919050565b600061087a82610ca8565b90508073ffffffffffffffffffffffffffffffffffffffff168373ffffffffffffffffffffffffffffffffffffffff16036108ea576040517f08c379a00000000000000000000000000000000000000000000000000000000081526004016108e1906146ff565b60405180910390fd5b8073ffffffffffffffffffffffffffffffffffffffff166109096117a5565b73ffffffffffffffffffffffffffffffffffffffff1614806109385750610937816109326117a5565b6115d9565b5b610977576040517f08c379a000000000000000000000000000000000000000000000000000000000815260040161096e90614791565b60405180910390fd5b61098183836117ad565b505050565b6000610992600d611866565b6001905090565b80836040517f205e68480000000000000000000000000000000000000000000000000000000081526004016109cf9291906147b1565b60405180910390fd5b60006109e261187c565b905090565b60006109f23361107b565b1115610a375781336040517fc894777e000000000000000000000000000000000000000000000000000000008152600401610a2e929190614824565b60405180910390fd5b600e60009054906101000a900473ffffffffffffffffffffffffffffffffffffffff1673ffffffffffffffffffffffffffffffffffffffff1663f0aca8223384846040518463ffffffff1660e01b8152600401610a9693929190614854565b600060405180830381600087803b158015610ab057600080fd5b505af1158015610ac4573d6000803e3d6000fd5b505050505050565b6000610b1f82600a60008673ffffffffffffffffffffffffffffffffffffffff1673ffffffffffffffffffffffffffffffffffffffff16815260200190815260200160002061199690919063ffffffff16565b905092915050565b610b42838383604051806020016040528060008152506113ca565b505050565b6000600e60009054906101000a900473ffffffffffffffffffffffffffffffffffffffff16905090565b610b79613c7d565b6000600e60009054906101000a900473ffffffffffffffffffffffffffffffffffffffff1673ffffffffffffffffffffffffffffffffffffffff166367e2efc6336040518263ffffffff1660e01b8152600401610bd69190613ed5565b600060405180830381865afa158015610bf3573d6000803e3d6000fd5b505050506040513d6000823e3d601f19601f82011682018060405250810190610c1c91906149cd565b90508091505090565b6000600960008373ffffffffffffffffffffffffffffffffffffffff1673ffffffffffffffffffffffffffffffffffffffff16815260200190815260200160002060009054906101000a900473ffffffffffffffffffffffffffffffffffffffff169050919050565b6000610c986117a5565b9050610ca48183611afb565b5050565b600080610cb483611c0f565b9050600073ffffffffffffffffffffffffffffffffffffffff168173ffffffffffffffffffffffffffffffffffffffff1603610d25576040517f08c379a0000000000000000000000000000000000000000000000000000000008152600401610d1c90614a62565b60405180910390fd5b80915050919050565b6000600e60009054906101000a900473ffffffffffffffffffffffffffffffffffffffff1673ffffffffffffffffffffffffffffffffffffffff166367e2efc6336040518263ffffffff1660e01b8152600401610d8b9190613ed5565b600060405180830381865afa158015610da8573d6000803e3d6000fd5b505050506040513d6000823e3d601f19601f82011682018060405250810190610dd191906149cd565b905060006003811115610de757610de661421e565b5b81604001516003811115610dfe57610dfd61421e565b5b03610e35576040517f2efca46300000000000000000000000000000000000000000000000000000000815260040160405180910390fd5b60026003811115610e4957610e4861421e565b5b81604001516003811115610e6057610e5f61421e565b5b03610fb3576000610e70836111b9565b90503373ffffffffffffffffffffffffffffffffffffffff168173ffffffffffffffffffffffffffffffffffffffff1614610ed7576040517fc2f3d34f00000000000000000000000000000000000000000000000000000000815260040160405180910390fd5b610ee1600d611866565b6000610eed600d611c4c565b9050610ef93382611c5a565b610f5581858060000190610f0d9190614a91565b8080601f016020809104026020016040519081016040528093929190818152602001838380828437600081840152601f19601f82011690508083019250505050505050611e77565b8260000151604051610f679190614b30565b60405180910390207f4ced97229ab164c3cda3718290ac3e4418672e643a3b6af7f5188812410a200f338560400151604051610fa4929190614b56565b60405180910390a25050611077565b60016003811115610fc757610fc661421e565b5b81604001516003811115610fde57610fdd61421e565b5b03611015576040517fcc260bff00000000000000000000000000000000000000000000000000000000815260040160405180910390fd5b6003808111156110285761102761421e565b5b8160400151600381111561103f5761103e61421e565b5b03611076576040517f7236ca2f00000000000000000000000000000000000000000000000000000000815260040160405180910390fd5b5b5050565b60008073ffffffffffffffffffffffffffffffffffffffff168273ffffffffffffffffffffffffffffffffffffffff16036110eb576040517f08c379a00000000000000000000000000000000000000000000000000000000081526004016110e290614bf1565b60405180910390fd5b600360008373ffffffffffffffffffffffffffffffffffffffff1673ffffffffffffffffffffffffffffffffffffffff168152602001908152602001600020549050919050565b61113a611ee4565b6111446000611f62565b565b7e5165dbde6c98ff3dd217e399994c50c9b2dcb0e924050ef97159c4f0f162a681565b60006111b2600c60008473ffffffffffffffffffffffffffffffffffffffff1673ffffffffffffffffffffffffffffffffffffffff168152602001908152602001600020611c4c565b9050919050565b6000806111c583612028565b9050611223818480606001906111db9190614c11565b8080601f016020809104026020016040519081016040528093929190818152602001838380828437600081840152601f19601f820116905080830192505050505050506120f4565b915050919050565b6000600760009054906101000a900473ffffffffffffffffffffffffffffffffffffffff16905090565b6000438210611299576040517f08c379a000000000000000000000000000000000000000000000000000000000815260040161129090614cc0565b60405180910390fd5b6112ad82600b61199690919063ffffffff16565b9050919050565b6060600180546112c39061465c565b80601f01602080910402602001604051908101604052809291908181526020018280546112ef9061465c565b801561133c5780601f106113115761010080835404028352916020019161133c565b820191906000526020600020905b81548152906001019060200180831161131f57829003601f168201915b5050505050905090565b600061138f600a60008473ffffffffffffffffffffffffffffffffffffffff1673ffffffffffffffffffffffffffffffffffffffff16815260200190815260200160002061211b565b7bffffffffffffffffffffffffffffffffffffffffffffffffffffffff169050919050565b6113c66113bf6117a5565b8383612185565b5050565b6113db6113d56117a5565b836122f1565b61141a576040517f08c379a000000000000000000000000000000000000000000000000000000000815260040161141190614d52565b60405180910390fd5b61142684848484612386565b50505050565b6000600e60009054906101000a900473ffffffffffffffffffffffffffffffffffffffff16905090565b83421115611499576040517f08c379a000000000000000000000000000000000000000000000000000000000815260040161149090614dbe565b60405180910390fd5b60006114fb6114f37fe48329057bfd03d55e49b547132e39cffd9c1820ad7b9d4c5307691425d15adf8989896040516020016114d89493929190614dde565b604051602081830303815290604052805190602001206123e2565b8585856123fc565b905061150681612427565b8614611547576040517f08c379a000000000000000000000000000000000000000000000000000000000815260040161153e90614e6f565b60405180910390fd5b6115518188611afb565b50505050505050565b606061156582612485565b9050919050565b611574611ee4565b61157c612597565b80600e60006101000a81548173ffffffffffffffffffffffffffffffffffffffff021916908373ffffffffffffffffffffffffffffffffffffffff1602179055506115c56125e6565b50565b60006115d4600d611c4c565b905090565b6000600560008473ffffffffffffffffffffffffffffffffffffffff1673ffffffffffffffffffffffffffffffffffffffff16815260200190815260200160002060008373ffffffffffffffffffffffffffffffffffffffff1673ffffffffffffffffffffffffffffffffffffffff16815260200190815260200160002060009054906101000a900460ff16905092915050565b611675611ee4565b600073ffffffffffffffffffffffffffffffffffffffff168173ffffffffffffffffffffffffffffffffffffffff16036116e4576040517f08c379a00000000000000000000000000000000000000000000000000000000081526004016116db90614f01565b60405180910390fd5b6116ed81611f62565b50565b60007f01ffc9a7000000000000000000000000000000000000000000000000000000007bffffffffffffffffffffffffffffffffffffffffffffffffffffffff1916827bffffffffffffffffffffffffffffffffffffffffffffffffffffffff1916149050919050565b611763816125f0565b6117a2576040517f08c379a000000000000000000000000000000000000000000000000000000000815260040161179990614a62565b60405180910390fd5b50565b600033905090565b816004600083815260200190815260200160002060006101000a81548173ffffffffffffffffffffffffffffffffffffffff021916908373ffffffffffffffffffffffffffffffffffffffff160217905550808273ffffffffffffffffffffffffffffffffffffffff1661182083610ca8565b73ffffffffffffffffffffffffffffffffffffffff167f8c5be1e5ebec7d5bd14f71427d1e84f3dd0314c0f7b2291e5b200ac8c7c3b92560405160405180910390a45050565b6001816000016000828254019250508190555050565b60007f000000000000000000000000000000000000000000000000000000000000000073ffffffffffffffffffffffffffffffffffffffff163073ffffffffffffffffffffffffffffffffffffffff161480156118f857507f000000000000000000000000000000000000000000000000000000000000000046145b15611925577f00000000000000000000000000000000000000000000000000000000000000009050611993565b6119907f00000000000000000000000000000000000000000000000000000000000000007f00000000000000000000000000000000000000000000000000000000000000007f0000000000000000000000000000000000000000000000000000000000000000612631565b90505b90565b60004382106119da576040517f08c379a00000000000000000000000000000000000000000000000000000000081526004016119d190614f6d565b60405180910390fd5b60006119e58361266b565b90506000846000018054905090506000808290506005831115611a68576000611a0d846126be565b84611a189190614fbc565b9050611a2788600001826127b7565b60000160009054906101000a900463ffffffff1663ffffffff168563ffffffff161015611a5657809150611a66565b600181611a639190614ff0565b92505b505b6000611a79886000018685856127cc565b905060008114611acd57611a9c88600001600183611a979190614fbc565b6127b7565b60000160049054906101000a90047bffffffffffffffffffffffffffffffffffffffffffffffffffffffff16611ad0565b60005b7bffffffffffffffffffffffffffffffffffffffffffffffffffffffff169550505050505092915050565b6000611b0683610c25565b905081600960008573ffffffffffffffffffffffffffffffffffffffff1673ffffffffffffffffffffffffffffffffffffffff16815260200190815260200160002060006101000a81548173ffffffffffffffffffffffffffffffffffffffff021916908373ffffffffffffffffffffffffffffffffffffffff1602179055508173ffffffffffffffffffffffffffffffffffffffff168173ffffffffffffffffffffffffffffffffffffffff168473ffffffffffffffffffffffffffffffffffffffff167f3134e8a2e6d97e929a7e54011ea5485d7d196dd5f0ba4d4ef95803e8e3fc257f60405160405180910390a4611c0a8183611c058661283f565b612851565b505050565b60006002600083815260200190815260200160002060009054906101000a900473ffffffffffffffffffffffffffffffffffffffff169050919050565b600081600001549050919050565b600073ffffffffffffffffffffffffffffffffffffffff168273ffffffffffffffffffffffffffffffffffffffff1603611cc9576040517f08c379a0000000000000000000000000000000000000000000000000000000008152600401611cc090615070565b60405180910390fd5b611cd2816125f0565b15611d12576040517f08c379a0000000000000000000000000000000000000000000000000000000008152600401611d09906150dc565b60405180910390fd5b611d20600083836001612a5e565b611d29816125f0565b15611d69576040517f08c379a0000000000000000000000000000000000000000000000000000000008152600401611d60906150dc565b60405180910390fd5b6001600360008473ffffffffffffffffffffffffffffffffffffffff1673ffffffffffffffffffffffffffffffffffffffff16815260200190815260200160002060008282540192505081905550816002600083815260200190815260200160002060006101000a81548173ffffffffffffffffffffffffffffffffffffffff021916908373ffffffffffffffffffffffffffffffffffffffff160217905550808273ffffffffffffffffffffffffffffffffffffffff16600073ffffffffffffffffffffffffffffffffffffffff167fddf252ad1be2c89b69c2b068fc378daa952ba7f163c4a11628f55a4df523b3ef60405160405180910390a4611e73600083836001612b84565b5050565b611e80826125f0565b611ebf576040517f08c379a0000000000000000000000000000000000000000000000000000000008152600401611eb69061516e565b60405180910390fd5b80600660008481526020019081526020016000209081611edf919061533a565b505050565b611eec6117a5565b73ffffffffffffffffffffffffffffffffffffffff16611f0a61122b565b73ffffffffffffffffffffffffffffffffffffffff1614611f60576040517f08c379a0000000000000000000000000000000000000000000000000000000008152600401611f5790615458565b60405180910390fd5b565b6000600760009054906101000a900473ffffffffffffffffffffffffffffffffffffffff16905081600760006101000a81548173ffffffffffffffffffffffffffffffffffffffff021916908373ffffffffffffffffffffffffffffffffffffffff1602179055508173ffffffffffffffffffffffffffffffffffffffff168173ffffffffffffffffffffffffffffffffffffffff167f8be0079c531659141344cd1fd0a4f28419497f9722a3daafe3b4186f6b6457e060405160405180910390a35050565b60006120ed7e5165dbde6c98ff3dd217e399994c50c9b2dcb0e924050ef97159c4f0f162a683806000019061205d9190614a91565b60405161206b92919061549d565b60405180910390208480602001906120839190614c11565b60405161209192919061549d565b60405180910390208580604001906120a99190614c11565b6040516120b792919061549d565b60405180910390206040516020016120d294939291906154b6565b604051602081830303815290604052805190602001206123e2565b9050919050565b60008060006121038585612b96565b9150915061211081612be7565b819250505092915050565b600080826000018054905090506000811461217a57612149836000016001836121449190614fbc565b6127b7565b60000160049054906101000a90047bffffffffffffffffffffffffffffffffffffffffffffffffffffffff1661217d565b60005b915050919050565b8173ffffffffffffffffffffffffffffffffffffffff168373ffffffffffffffffffffffffffffffffffffffff16036121f3576040517f08c379a00000000000000000000000000000000000000000000000000000000081526004016121ea90615547565b60405180910390fd5b80600560008573ffffffffffffffffffffffffffffffffffffffff1673ffffffffffffffffffffffffffffffffffffffff16815260200190815260200160002060008473ffffffffffffffffffffffffffffffffffffffff1673ffffffffffffffffffffffffffffffffffffffff16815260200190815260200160002060006101000a81548160ff0219169083151502179055508173ffffffffffffffffffffffffffffffffffffffff168373ffffffffffffffffffffffffffffffffffffffff167f17307eab39ab6107e8899845ad3d59bd9653f200f220920489ca2b5937696c31836040516122e49190613d64565b60405180910390a3505050565b6000806122fd83610ca8565b90508073ffffffffffffffffffffffffffffffffffffffff168473ffffffffffffffffffffffffffffffffffffffff16148061233f575061233e81856115d9565b5b8061237d57508373ffffffffffffffffffffffffffffffffffffffff1661236584610829565b73ffffffffffffffffffffffffffffffffffffffff16145b91505092915050565b612391848484612d4d565b61239d84848484613046565b6123dc576040517f08c379a00000000000000000000000000000000000000000000000000000000081526004016123d3906155d9565b60405180910390fd5b50505050565b60006123f56123ef61187c565b836131cd565b9050919050565b600080600061240d87878787613200565b9150915061241a81612be7565b8192505050949350505050565b600080600c60008473ffffffffffffffffffffffffffffffffffffffff1673ffffffffffffffffffffffffffffffffffffffff168152602001908152602001600020905061247481611c4c565b915061247f81611866565b50919050565b60606124908261175a565b60006006600084815260200190815260200160002080546124b09061465c565b80601f01602080910402602001604051908101604052809291908181526020018280546124dc9061465c565b80156125295780601f106124fe57610100808354040283529160200191612529565b820191906000526020600020905b81548152906001019060200180831161250c57829003601f168201915b50505050509050600061253a6132e2565b9050600081510361254f578192505050612592565b60008251111561258457808260405160200161256c929190615635565b60405160208183030381529060405292505050612592565b61258d846132f9565b925050505b919050565b6002600854036125dc576040517f08c379a00000000000000000000000000000000000000000000000000000000081526004016125d3906156a5565b60405180910390fd5b6002600881905550565b6001600881905550565b60008073ffffffffffffffffffffffffffffffffffffffff1661261283611c0f565b73ffffffffffffffffffffffffffffffffffffffff1614159050919050565b6000838383463060405160200161264c9594939291906156c5565b6040516020818303038152906040528051906020012090509392505050565b600063ffffffff80168211156126b6576040517f08c379a00000000000000000000000000000000000000000000000000000000081526004016126ad9061578a565b60405180910390fd5b819050919050565b60008082036126d057600090506127b2565b600060016126dd84613361565b901c6001901b905060018184816126f7576126f66157aa565b5b048201901c905060018184816127105761270f6157aa565b5b048201901c90506001818481612729576127286157aa565b5b048201901c90506001818481612742576127416157aa565b5b048201901c9050600181848161275b5761275a6157aa565b5b048201901c90506001818481612774576127736157aa565b5b048201901c9050600181848161278d5761278c6157aa565b5b048201901c90506127ae818285816127a8576127a76157aa565b5b04613442565b9150505b919050565b60008260005281602060002001905092915050565b60005b818310156128345760006127e3848461345b565b90508463ffffffff166127f687836127b7565b60000160009054906101000a900463ffffffff1663ffffffff16111561281e5780925061282e565b60018161282b9190614ff0565b93505b506127cf565b819050949350505050565b600061284a8261107b565b9050919050565b8173ffffffffffffffffffffffffffffffffffffffff168373ffffffffffffffffffffffffffffffffffffffff161415801561288d5750600081115b15612a5957600073ffffffffffffffffffffffffffffffffffffffff168373ffffffffffffffffffffffffffffffffffffffff16146129755760008061291e61348184600a60008973ffffffffffffffffffffffffffffffffffffffff1673ffffffffffffffffffffffffffffffffffffffff1681526020019081526020016000206134979092919063ffffffff16565b915091508473ffffffffffffffffffffffffffffffffffffffff167fdec2bacdd2f05b59de34da9b523dff8be42e5e38e818c82fdb0bae774387a724838360405161296a9291906157d9565b60405180910390a250505b600073ffffffffffffffffffffffffffffffffffffffff168273ffffffffffffffffffffffffffffffffffffffff1614612a5857600080612a016134e384600a60008873ffffffffffffffffffffffffffffffffffffffff1673ffffffffffffffffffffffffffffffffffffffff1681526020019081526020016000206134979092919063ffffffff16565b915091508373ffffffffffffffffffffffffffffffffffffffff167fdec2bacdd2f05b59de34da9b523dff8be42e5e38e818c82fdb0bae774387a7248383604051612a4d9291906157d9565b60405180910390a250505b5b505050565b6001811115612b7e57600073ffffffffffffffffffffffffffffffffffffffff168473ffffffffffffffffffffffffffffffffffffffff1614612af25780600360008673ffffffffffffffffffffffffffffffffffffffff1673ffffffffffffffffffffffffffffffffffffffff1681526020019081526020016000206000828254612aea9190614fbc565b925050819055505b600073ffffffffffffffffffffffffffffffffffffffff168373ffffffffffffffffffffffffffffffffffffffff1614612b7d5780600360008573ffffffffffffffffffffffffffffffffffffffff1673ffffffffffffffffffffffffffffffffffffffff1681526020019081526020016000206000828254612b759190614ff0565b925050819055505b5b50505050565b612b90848484846134f9565b50505050565b6000806041835103612bd75760008060006020860151925060408601519150606086015160001a9050612bcb87828585613200565b94509450505050612be0565b60006002915091505b9250929050565b60006004811115612bfb57612bfa61421e565b5b816004811115612c0e57612c0d61421e565b5b0315612d4a5760016004811115612c2857612c2761421e565b5b816004811115612c3b57612c3a61421e565b5b03612c7b576040517f08c379a0000000000000000000000000000000000000000000000000000000008152600401612c729061584e565b60405180910390fd5b60026004811115612c8f57612c8e61421e565b5b816004811115612ca257612ca161421e565b5b03612ce2576040517f08c379a0000000000000000000000000000000000000000000000000000000008152600401612cd9906158ba565b60405180910390fd5b60036004811115612cf657612cf561421e565b5b816004811115612d0957612d0861421e565b5b03612d49576040517f08c379a0000000000000000000000000000000000000000000000000000000008152600401612d409061594c565b60405180910390fd5b5b50565b8273ffffffffffffffffffffffffffffffffffffffff16612d6d82610ca8565b73ffffffffffffffffffffffffffffffffffffffff1614612dc3576040517f08c379a0000000000000000000000000000000000000000000000000000000008152600401612dba906159de565b60405180910390fd5b600073ffffffffffffffffffffffffffffffffffffffff168273ffffffffffffffffffffffffffffffffffffffff1603612e32576040517f08c379a0000000000000000000000000000000000000000000000000000000008152600401612e2990615a70565b60405180910390fd5b612e3f8383836001612a5e565b8273ffffffffffffffffffffffffffffffffffffffff16612e5f82610ca8565b73ffffffffffffffffffffffffffffffffffffffff1614612eb5576040517f08c379a0000000000000000000000000000000000000000000000000000000008152600401612eac906159de565b60405180910390fd5b6004600082815260200190815260200160002060006101000a81549073ffffffffffffffffffffffffffffffffffffffff02191690556001600360008573ffffffffffffffffffffffffffffffffffffffff1673ffffffffffffffffffffffffffffffffffffffff168152602001908152602001600020600082825403925050819055506001600360008473ffffffffffffffffffffffffffffffffffffffff1673ffffffffffffffffffffffffffffffffffffffff16815260200190815260200160002060008282540192505081905550816002600083815260200190815260200160002060006101000a81548173ffffffffffffffffffffffffffffffffffffffff021916908373ffffffffffffffffffffffffffffffffffffffff160217905550808273ffffffffffffffffffffffffffffffffffffffff168473ffffffffffffffffffffffffffffffffffffffff167fddf252ad1be2c89b69c2b068fc378daa952ba7f163c4a11628f55a4df523b3ef60405160405180910390a46130418383836001612b84565b505050565b60006130678473ffffffffffffffffffffffffffffffffffffffff16613516565b156131c0578373ffffffffffffffffffffffffffffffffffffffff1663150b7a026130906117a5565b8786866040518563ffffffff1660e01b81526004016130b29493929190615a90565b6020604051808303816000875af19250505080156130ee57506040513d601f19601f820116820180604052508101906130eb9190615af1565b60015b613170573d806000811461311e576040519150601f19603f3d011682016040523d82523d6000602084013e613123565b606091505b506000815103613168576040517f08c379a000000000000000000000000000000000000000000000000000000000815260040161315f906155d9565b60405180910390fd5b805181602001fd5b63150b7a0260e01b7bffffffffffffffffffffffffffffffffffffffffffffffffffffffff1916817bffffffffffffffffffffffffffffffffffffffffffffffffffffffff1916149150506131c5565b600190505b949350505050565b600082826040516020016131e2929190615b8b565b60405160208183030381529060405280519060200120905092915050565b6000807f7fffffffffffffffffffffffffffffff5d576e7357a4501ddfe92f46681b20a08360001c111561323b5760006003915091506132d9565b6000600187878787604051600081526020016040526040516132609493929190615bd1565b6020604051602081039080840390855afa158015613282573d6000803e3d6000fd5b505050602060405103519050600073ffffffffffffffffffffffffffffffffffffffff168173ffffffffffffffffffffffffffffffffffffffff16036132d0576000600192509250506132d9565b80600092509250505b94509492505050565b606060405180602001604052806000815250905090565b60606133048261175a565b600061330e6132e2565b9050600081511161332e5760405180602001604052806000815250613359565b8061333884613539565b604051602001613349929190615635565b6040516020818303038152906040525b915050919050565b600080600090506000608084901c111561338357608083901c92506080810190505b6000604084901c111561339e57604083901c92506040810190505b6000602084901c11156133b957602083901c92506020810190505b6000601084901c11156133d457601083901c92506010810190505b6000600884901c11156133ef57600883901c92506008810190505b6000600484901c111561340a57600483901c92506004810190505b6000600284901c111561342557600283901c92506002810190505b6000600184901c1115613439576001810190505b80915050919050565b60008183106134515781613453565b825b905092915050565b6000600282841861346c9190615c16565b8284166134799190614ff0565b905092915050565b6000818361348f9190614fbc565b905092915050565b6000806134d7856134d26134aa8861211b565b7bffffffffffffffffffffffffffffffffffffffffffffffffffffffff16868863ffffffff16565b613607565b91509150935093915050565b600081836134f19190614ff0565b905092915050565b613504848483613675565b61351084848484613733565b50505050565b6000808273ffffffffffffffffffffffffffffffffffffffff163b119050919050565b60606000600161354884613739565b01905060008167ffffffffffffffff81111561356757613566613fed565b5b6040519080825280601f01601f1916602001820160405280156135995781602001600182028036833780820191505090505b509050600082602001820190505b6001156135fc578080600190039150507f3031323334353637383961626364656600000000000000000000000000000000600a86061a8153600a85816135f0576135ef6157aa565b5b049450600085036135a7575b819350505050919050565b6000806136288460000161361a4361266b565b6136238661388c565b6138f7565b817bffffffffffffffffffffffffffffffffffffffffffffffffffffffff169150807bffffffffffffffffffffffffffffffffffffffffffffffffffffffff169050915091509250929050565b600073ffffffffffffffffffffffffffffffffffffffff168373ffffffffffffffffffffffffffffffffffffffff16036136c4576136c16134e382600b6134979092919063ffffffff16565b50505b600073ffffffffffffffffffffffffffffffffffffffff168273ffffffffffffffffffffffffffffffffffffffff16036137135761371061348182600b6134979092919063ffffffff16565b50505b61372e61371f84610c25565b61372884610c25565b83612851565b505050565b50505050565b600080600090507a184f03e93ff9f4daa797ed6e38ed64bf6a1f0100000000000000008310613797577a184f03e93ff9f4daa797ed6e38ed64bf6a1f010000000000000000838161378d5761378c6157aa565b5b0492506040810190505b6d04ee2d6d415b85acef810000000083106137d4576d04ee2d6d415b85acef810000000083816137ca576137c96157aa565b5b0492506020810190505b662386f26fc10000831061380357662386f26fc1000083816137f9576137f86157aa565b5b0492506010810190505b6305f5e100831061382c576305f5e1008381613822576138216157aa565b5b0492506008810190505b6127108310613851576127108381613847576138466157aa565b5b0492506004810190505b60648310613874576064838161386a576138696157aa565b5b0492506002810190505b600a8310613883576001810190505b80915050919050565b60007bffffffffffffffffffffffffffffffffffffffffffffffffffffffff80168211156138ef576040517f08c379a00000000000000000000000000000000000000000000000000000000081526004016138e690615cb9565b60405180910390fd5b819050919050565b6000806000858054905090506000811115613b8d5760006139248760018461391f9190614fbc565b6127b7565b6040518060400160405290816000820160009054906101000a900463ffffffff1663ffffffff1663ffffffff1681526020016000820160049054906101000a90047bffffffffffffffffffffffffffffffffffffffffffffffffffffffff167bffffffffffffffffffffffffffffffffffffffffffffffffffffffff167bffffffffffffffffffffffffffffffffffffffffffffffffffffffff168152505090508563ffffffff16816000015163ffffffff161115613a18576040517f08c379a0000000000000000000000000000000000000000000000000000000008152600401613a0f90615d25565b60405180910390fd5b8563ffffffff16816000015163ffffffff1603613a9c5784613a4688600185613a419190614fbc565b6127b7565b60000160046101000a8154817bffffffffffffffffffffffffffffffffffffffffffffffffffffffff02191690837bffffffffffffffffffffffffffffffffffffffffffffffffffffffff160217905550613b7c565b8660405180604001604052808863ffffffff168152602001877bffffffffffffffffffffffffffffffffffffffffffffffffffffffff168152509080600181540180825580915050600190039060005260206000200160009091909190915060008201518160000160006101000a81548163ffffffff021916908363ffffffff16021790555060208201518160000160046101000a8154817bffffffffffffffffffffffffffffffffffffffffffffffffffffffff02191690837bffffffffffffffffffffffffffffffffffffffffffffffffffffffff16021790555050505b806020015185935093505050613c75565b8560405180604001604052808763ffffffff168152602001867bffffffffffffffffffffffffffffffffffffffffffffffffffffffff168152509080600181540180825580915050600190039060005260206000200160009091909190915060008201518160000160006101000a81548163ffffffff021916908363ffffffff16021790555060208201518160000160046101000a8154817bffffffffffffffffffffffffffffffffffffffffffffffffffffffff02191690837bffffffffffffffffffffffffffffffffffffffffffffffffffffffff160217905550505060008492509250505b935093915050565b6040518060600160405280606081526020016000815260200160006003811115613caa57613ca961421e565b5b81525090565b6000604051905090565b600080fd5b600080fd5b60007fffffffff0000000000000000000000000000000000000000000000000000000082169050919050565b613cf981613cc4565b8114613d0457600080fd5b50565b600081359050613d1681613cf0565b92915050565b600060208284031215613d3257613d31613cba565b5b6000613d4084828501613d07565b91505092915050565b60008115159050919050565b613d5e81613d49565b82525050565b6000602082019050613d796000830184613d55565b92915050565b600081519050919050565b600082825260208201905092915050565b60005b83811015613db9578082015181840152602081019050613d9e565b60008484015250505050565b6000601f19601f8301169050919050565b6000613de182613d7f565b613deb8185613d8a565b9350613dfb818560208601613d9b565b613e0481613dc5565b840191505092915050565b60006020820190508181036000830152613e298184613dd6565b905092915050565b6000819050919050565b613e4481613e31565b8114613e4f57600080fd5b50565b600081359050613e6181613e3b565b92915050565b600060208284031215613e7d57613e7c613cba565b5b6000613e8b84828501613e52565b91505092915050565b600073ffffffffffffffffffffffffffffffffffffffff82169050919050565b6000613ebf82613e94565b9050919050565b613ecf81613eb4565b82525050565b6000602082019050613eea6000830184613ec6565b92915050565b613ef981613eb4565b8114613f0457600080fd5b50565b600081359050613f1681613ef0565b92915050565b60008060408385031215613f3357613f32613cba565b5b6000613f4185828601613f07565b9250506020613f5285828601613e52565b9150509250929050565b600080600060608486031215613f7557613f74613cba565b5b6000613f8386828701613f07565b9350506020613f9486828701613f07565b9250506040613fa586828701613e52565b9150509250925092565b6000819050919050565b613fc281613faf565b82525050565b6000602082019050613fdd6000830184613fb9565b92915050565b600080fd5b600080fd5b7f4e487b7100000000000000000000000000000000000000000000000000000000600052604160045260246000fd5b61402582613dc5565b810181811067ffffffffffffffff8211171561404457614043613fed565b5b80604052505050565b6000614057613cb0565b9050614063828261401c565b919050565b600067ffffffffffffffff82111561408357614082613fed565b5b61408c82613dc5565b9050602081019050919050565b82818337600083830152505050565b60006140bb6140b684614068565b61404d565b9050828152602081018484840111156140d7576140d6613fe8565b5b6140e2848285614099565b509392505050565b600082601f8301126140ff576140fe613fe3565b5b813561410f8482602086016140a8565b91505092915050565b6000806040838503121561412f5761412e613cba565b5b600083013567ffffffffffffffff81111561414d5761414c613cbf565b5b614159858286016140ea565b925050602083013567ffffffffffffffff81111561417a57614179613cbf565b5b614186858286016140ea565b9150509250929050565b61419981613e31565b82525050565b60006020820190506141b46000830184614190565b92915050565b600081519050919050565b600082825260208201905092915050565b60006141e1826141ba565b6141eb81856141c5565b93506141fb818560208601613d9b565b61420481613dc5565b840191505092915050565b61421881613e31565b82525050565b7f4e487b7100000000000000000000000000000000000000000000000000000000600052602160045260246000fd5b6004811061425e5761425d61421e565b5b50565b600081905061426f8261424d565b919050565b600061427f82614261565b9050919050565b61428f81614274565b82525050565b600060608301600083015184820360008601526142b282826141d6565b91505060208301516142c7602086018261420f565b5060408301516142da6040860182614286565b508091505092915050565b600060208201905081810360008301526142ff8184614295565b905092915050565b60006020828403121561431d5761431c613cba565b5b600061432b84828501613f07565b91505092915050565b600080fd5b60006080828403121561434f5761434e614334565b5b81905092915050565b60006020828403121561436e5761436d613cba565b5b600082013567ffffffffffffffff81111561438c5761438b613cbf565b5b61439884828501614339565b91505092915050565b6143aa81613d49565b81146143b557600080fd5b50565b6000813590506143c7816143a1565b92915050565b600080604083850312156143e4576143e3613cba565b5b60006143f285828601613f07565b9250506020614403858286016143b8565b9150509250929050565b6000806000806080858703121561442757614426613cba565b5b600061443587828801613f07565b945050602061444687828801613f07565b935050604061445787828801613e52565b925050606085013567ffffffffffffffff81111561447857614477613cbf565b5b614484878288016140ea565b91505092959194509250565b600060ff82169050919050565b6144a681614490565b81146144b157600080fd5b50565b6000813590506144c38161449d565b92915050565b6144d281613faf565b81146144dd57600080fd5b50565b6000813590506144ef816144c9565b92915050565b60008060008060008060c0878903121561451257614511613cba565b5b600061452089828a01613f07565b965050602061453189828a01613e52565b955050604061454289828a01613e52565b945050606061455389828a016144b4565b935050608061456489828a016144e0565b92505060a061457589828a016144e0565b9150509295509295509295565b600061458d82613e94565b9050919050565b61459d81614582565b81146145a857600080fd5b50565b6000813590506145ba81614594565b92915050565b6000602082840312156145d6576145d5613cba565b5b60006145e4848285016145ab565b91505092915050565b6000806040838503121561460457614603613cba565b5b600061461285828601613f07565b925050602061462385828601613f07565b9150509250929050565b7f4e487b7100000000000000000000000000000000000000000000000000000000600052602260045260246000fd5b6000600282049050600182168061467457607f821691505b6020821081036146875761468661462d565b5b50919050565b7f4552433732313a20617070726f76616c20746f2063757272656e74206f776e6560008201527f7200000000000000000000000000000000000000000000000000000000000000602082015250565b60006146e9602183613d8a565b91506146f48261468d565b604082019050919050565b60006020820190508181036000830152614718816146dc565b9050919050565b7f4552433732313a20617070726f76652063616c6c6572206973206e6f7420746f60008201527f6b656e206f776e6572206f7220617070726f76656420666f7220616c6c000000602082015250565b600061477b603d83613d8a565b91506147868261471f565b604082019050919050565b600060208201905081810360008301526147aa8161476e565b9050919050565b60006040820190506147c66000830185614190565b6147d36020830184613ec6565b9392505050565b600082825260208201905092915050565b60006147f6826141ba565b61480081856147da565b9350614810818560208601613d9b565b61481981613dc5565b840191505092915050565b6000604082019050818103600083015261483e81856147eb565b905061484d6020830184613ec6565b9392505050565b60006060820190506148696000830186613ec6565b818103602083015261487b81856147eb565b9050818103604083015261488f81846147eb565b9050949350505050565b600080fd5b600080fd5b60006148b66148b184614068565b61404d565b9050828152602081018484840111156148d2576148d1613fe8565b5b6148dd848285613d9b565b509392505050565b600082601f8301126148fa576148f9613fe3565b5b815161490a8482602086016148a3565b91505092915050565b60008151905061492281613e3b565b92915050565b6004811061493557600080fd5b50565b60008151905061494781614928565b92915050565b60006060828403121561496357614962614899565b5b61496d606061404d565b9050600082015167ffffffffffffffff81111561498d5761498c61489e565b5b614999848285016148e5565b60008301525060206149ad84828501614913565b60208301525060406149c184828501614938565b60408301525092915050565b6000602082840312156149e3576149e2613cba565b5b600082015167ffffffffffffffff811115614a0157614a00613cbf565b5b614a0d8482850161494d565b91505092915050565b7f4552433732313a20696e76616c696420746f6b656e2049440000000000000000600082015250565b6000614a4c601883613d8a565b9150614a5782614a16565b602082019050919050565b60006020820190508181036000830152614a7b81614a3f565b9050919050565b600080fd5b600080fd5b600080fd5b60008083356001602003843603038112614aae57614aad614a82565b5b80840192508235915067ffffffffffffffff821115614ad057614acf614a87565b5b602083019250600182023603831315614aec57614aeb614a8c565b5b509250929050565b600081905092915050565b6000614b0a826141ba565b614b148185614af4565b9350614b24818560208601613d9b565b80840191505092915050565b6000614b3c8284614aff565b915081905092915050565b614b5081614274565b82525050565b6000604082019050614b6b6000830185613ec6565b614b786020830184614b47565b9392505050565b7f4552433732313a2061646472657373207a65726f206973206e6f74206120766160008201527f6c6964206f776e65720000000000000000000000000000000000000000000000602082015250565b6000614bdb602983613d8a565b9150614be682614b7f565b604082019050919050565b60006020820190508181036000830152614c0a81614bce565b9050919050565b60008083356001602003843603038112614c2e57614c2d614a82565b5b80840192508235915067ffffffffffffffff821115614c5057614c4f614a87565b5b602083019250600182023603831315614c6c57614c6b614a8c565b5b509250929050565b7f566f7465733a20626c6f636b206e6f7420796574206d696e6564000000000000600082015250565b6000614caa601a83613d8a565b9150614cb582614c74565b602082019050919050565b60006020820190508181036000830152614cd981614c9d565b9050919050565b7f4552433732313a2063616c6c6572206973206e6f7420746f6b656e206f776e6560008201527f72206f7220617070726f76656400000000000000000000000000000000000000602082015250565b6000614d3c602d83613d8a565b9150614d4782614ce0565b604082019050919050565b60006020820190508181036000830152614d6b81614d2f565b9050919050565b7f566f7465733a207369676e617475726520657870697265640000000000000000600082015250565b6000614da8601883613d8a565b9150614db382614d72565b602082019050919050565b60006020820190508181036000830152614dd781614d9b565b9050919050565b6000608082019050614df36000830187613fb9565b614e006020830186613ec6565b614e0d6040830185614190565b614e1a6060830184614190565b95945050505050565b7f566f7465733a20696e76616c6964206e6f6e6365000000000000000000000000600082015250565b6000614e59601483613d8a565b9150614e6482614e23565b602082019050919050565b60006020820190508181036000830152614e8881614e4c565b9050919050565b7f4f776e61626c653a206e6577206f776e657220697320746865207a65726f206160008201527f6464726573730000000000000000000000000000000000000000000000000000602082015250565b6000614eeb602683613d8a565b9150614ef682614e8f565b604082019050919050565b60006020820190508181036000830152614f1a81614ede565b9050919050565b7f436865636b706f696e74733a20626c6f636b206e6f7420796574206d696e6564600082015250565b6000614f57602083613d8a565b9150614f6282614f21565b602082019050919050565b60006020820190508181036000830152614f8681614f4a565b9050919050565b7f4e487b7100000000000000000000000000000000000000000000000000000000600052601160045260246000fd5b6000614fc782613e31565b9150614fd283613e31565b9250828203905081811115614fea57614fe9614f8d565b5b92915050565b6000614ffb82613e31565b915061500683613e31565b925082820190508082111561501e5761501d614f8d565b5b92915050565b7f4552433732313a206d696e7420746f20746865207a65726f2061646472657373600082015250565b600061505a602083613d8a565b915061506582615024565b602082019050919050565b600060208201905081810360008301526150898161504d565b9050919050565b7f4552433732313a20746f6b656e20616c7265616479206d696e74656400000000600082015250565b60006150c6601c83613d8a565b91506150d182615090565b602082019050919050565b600060208201905081810360008301526150f5816150b9565b9050919050565b7f45524337323155524953746f726167653a2055524920736574206f66206e6f6e60008201527f6578697374656e7420746f6b656e000000000000000000000000000000000000602082015250565b6000615158602e83613d8a565b9150615163826150fc565b604082019050919050565b600060208201905081810360008301526151878161514b565b9050919050565b60008190508160005260206000209050919050565b60006020601f8301049050919050565b600082821b905092915050565b6000600883026151f07fffffffffffffffffffffffffffffffffffffffffffffffffffffffffffffffff826151b3565b6151fa86836151b3565b95508019841693508086168417925050509392505050565b6000819050919050565b600061523761523261522d84613e31565b615212565b613e31565b9050919050565b6000819050919050565b6152518361521c565b61526561525d8261523e565b8484546151c0565b825550505050565b600090565b61527a61526d565b615285818484615248565b505050565b5b818110156152a95761529e600082615272565b60018101905061528b565b5050565b601f8211156152ee576152bf8161518e565b6152c8846151a3565b810160208510156152d7578190505b6152eb6152e3856151a3565b83018261528a565b50505b505050565b600082821c905092915050565b6000615311600019846008026152f3565b1980831691505092915050565b600061532a8383615300565b9150826002028217905092915050565b61534382613d7f565b67ffffffffffffffff81111561535c5761535b613fed565b5b615366825461465c565b6153718282856152ad565b600060209050601f8311600181146153a45760008415615392578287015190505b61539c858261531e565b865550615404565b601f1984166153b28661518e565b60005b828110156153da578489015182556001820191506020850194506020810190506153b5565b868310156153f757848901516153f3601f891682615300565b8355505b6001600288020188555050505b505050505050565b7f4f776e61626c653a2063616c6c6572206973206e6f7420746865206f776e6572600082015250565b6000615442602083613d8a565b915061544d8261540c565b602082019050919050565b6000602082019050818103600083015261547181615435565b9050919050565b60006154848385614af4565b9350615491838584614099565b82840190509392505050565b60006154aa828486615478565b91508190509392505050565b60006080820190506154cb6000830187613fb9565b6154d86020830186613fb9565b6154e56040830185613fb9565b6154f26060830184613fb9565b95945050505050565b7f4552433732313a20617070726f766520746f2063616c6c657200000000000000600082015250565b6000615531601983613d8a565b915061553c826154fb565b602082019050919050565b6000602082019050818103600083015261556081615524565b9050919050565b7f4552433732313a207472616e7366657220746f206e6f6e20455243373231526560008201527f63656976657220696d706c656d656e7465720000000000000000000000000000602082015250565b60006155c3603283613d8a565b91506155ce82615567565b604082019050919050565b600060208201905081810360008301526155f2816155b6565b9050919050565b600081905092915050565b600061560f82613d7f565b61561981856155f9565b9350615629818560208601613d9b565b80840191505092915050565b60006156418285615604565b915061564d8284615604565b91508190509392505050565b7f5265656e7472616e637947756172643a207265656e7472616e742063616c6c00600082015250565b600061568f601f83613d8a565b915061569a82615659565b602082019050919050565b600060208201905081810360008301526156be81615682565b9050919050565b600060a0820190506156da6000830188613fb9565b6156e76020830187613fb9565b6156f46040830186613fb9565b6157016060830185614190565b61570e6080830184613ec6565b9695505050505050565b7f53616665436173743a2076616c756520646f65736e27742066697420696e203360008201527f3220626974730000000000000000000000000000000000000000000000000000602082015250565b6000615774602683613d8a565b915061577f82615718565b604082019050919050565b600060208201905081810360008301526157a381615767565b9050919050565b7f4e487b7100000000000000000000000000000000000000000000000000000000600052601260045260246000fd5b60006040820190506157ee6000830185614190565b6157fb6020830184614190565b9392505050565b7f45434453413a20696e76616c6964207369676e61747572650000000000000000600082015250565b6000615838601883613d8a565b915061584382615802565b602082019050919050565b600060208201905081810360008301526158678161582b565b9050919050565b7f45434453413a20696e76616c6964207369676e6174757265206c656e67746800600082015250565b60006158a4601f83613d8a565b91506158af8261586e565b602082019050919050565b600060208201905081810360008301526158d381615897565b9050919050565b7f45434453413a20696e76616c6964207369676e6174757265202773272076616c60008201527f7565000000000000000000000000000000000000000000000000000000000000602082015250565b6000615936602283613d8a565b9150615941826158da565b604082019050919050565b6000602082019050818103600083015261596581615929565b9050919050565b7f4552433732313a207472616e736665722066726f6d20696e636f72726563742060008201527f6f776e6572000000000000000000000000000000000000000000000000000000602082015250565b60006159c8602583613d8a565b91506159d38261596c565b604082019050919050565b600060208201905081810360008301526159f7816159bb565b9050919050565b7f4552433732313a207472616e7366657220746f20746865207a65726f2061646460008201527f7265737300000000000000000000000000000000000000000000000000000000602082015250565b6000615a5a602483613d8a565b9150615a65826159fe565b604082019050919050565b60006020820190508181036000830152615a8981615a4d565b9050919050565b6000608082019050615aa56000830187613ec6565b615ab26020830186613ec6565b615abf6040830185614190565b8181036060830152615ad181846147eb565b905095945050505050565b600081519050615aeb81613cf0565b92915050565b600060208284031215615b0757615b06613cba565b5b6000615b1584828501615adc565b91505092915050565b7f1901000000000000000000000000000000000000000000000000000000000000600082015250565b6000615b546002836155f9565b9150615b5f82615b1e565b600282019050919050565b6000819050919050565b615b85615b8082613faf565b615b6a565b82525050565b6000615b9682615b47565b9150615ba28285615b74565b602082019150615bb28284615b74565b6020820191508190509392505050565b615bcb81614490565b82525050565b6000608082019050615be66000830187613fb9565b615bf36020830186615bc2565b615c006040830185613fb9565b615c0d6060830184613fb9565b95945050505050565b6000615c2182613e31565b9150615c2c83613e31565b925082615c3c57615c3b6157aa565b5b828204905092915050565b7f53616665436173743a2076616c756520646f65736e27742066697420696e203260008201527f3234206269747300000000000000000000000000000000000000000000000000602082015250565b6000615ca3602783613d8a565b9150615cae82615c47565b604082019050919050565b60006020820190508181036000830152615cd281615c96565b9050919050565b7f436865636b706f696e743a20696e76616c6964206b6579000000000000000000600082015250565b6000615d0f601783613d8a565b9150615d1a82615cd9565b602082019050919050565b60006020820190508181036000830152615d3e81615d02565b905091905056fea26469706673582212203d1584c884683fba418eb06f826636dffc0194fe32c573ad730a226481150b3764736f6c63430008110033",
  "devdoc": {
    "kind": "dev",
    "methods": {
      "DOMAIN_SEPARATOR()": {
        "details": "Returns the contract's {EIP712} domain separator."
      },
      "approve(address,uint256)": {
        "details": "See {IERC721-approve}."
      },
      "balanceOf(address)": {
        "details": "See {IERC721-balanceOf}."
      },
      "delegate(address)": {
        "details": "Delegates votes from the sender to `delegatee`."
      },
      "delegateBySig(address,uint256,uint256,uint8,bytes32,bytes32)": {
        "details": "Delegates votes from signer to `delegatee`."
      },
      "delegates(address)": {
        "details": "Returns the delegate that `account` has chosen."
      },
      "getApproved(uint256)": {
        "details": "See {IERC721-getApproved}."
      },
      "getPastTotalSupply(uint256)": {
        "details": "Returns the total supply of votes available at the end of a past block (`blockNumber`). NOTE: This value is the sum of all available votes, which is not necessarily the sum of all delegated votes. Votes that have not been delegated are still part of total supply, even though they would not participate in a vote. Requirements: - `blockNumber` must have been already mined"
      },
      "getPastVotes(address,uint256)": {
        "details": "Returns the amount of votes that `account` had at the end of a past block (`blockNumber`). Requirements: - `blockNumber` must have been already mined"
      },
      "getVotes(address)": {
        "details": "Returns the current amount of votes that `account` has."
      },
      "isApprovedForAll(address,address)": {
        "details": "See {IERC721-isApprovedForAll}."
      },
      "name()": {
        "details": "See {IERC721Metadata-name}."
      },
      "nonces(address)": {
        "details": "Returns an address nonce."
      },
      "owner()": {
        "details": "Returns the address of the current owner."
      },
      "ownerOf(uint256)": {
        "details": "See {IERC721-ownerOf}."
      },
      "renounceOwnership()": {
        "details": "Leaves the contract without owner. It will not be possible to call `onlyOwner` functions anymore. Can only be called by the current owner. NOTE: Renouncing ownership will leave the contract without an owner, thereby removing any functionality that is only available to the owner."
      },
      "safeTransferFrom(address,address,uint256)": {
        "details": "See {IERC721-safeTransferFrom}."
      },
      "safeTransferFrom(address,address,uint256,bytes)": {
        "details": "See {IERC721-safeTransferFrom}."
      },
      "setApprovalForAll(address,bool)": {
        "details": "See {IERC721-setApprovalForAll}."
      },
      "supportsInterface(bytes4)": {
        "details": "See {IERC165-supportsInterface}."
      },
      "symbol()": {
        "details": "See {IERC721Metadata-symbol}."
      },
      "transferOwnership(address)": {
        "details": "Transfers ownership of the contract to a new account (`newOwner`). Can only be called by the current owner."
      },
      "verifySignature((string,bytes,bytes,bytes))": {
        "details": "Will revert if the signature is invalid. Does not verify that the signer is authorized to mint NFTs.",
        "params": {
          "voucher": "An NFTVoucher describing an unminted NFT."
        }
      }
    },
    "version": 1
  },
  "userdoc": {
    "kind": "user",
    "methods": {
      "redeem((string,bytes,bytes,bytes))": {
        "notice": "Redeems an NFTVoucher for an actual NFT, creating it in the process."
      },
      "verifySignature((string,bytes,bytes,bytes))": {
        "notice": "Verifies the signature for a given NFTVoucher, returning the address of the signer."
      }
    },
    "version": 1
  },
  "storageLayout": {
    "storage": [
      {
        "astId": 3487,
        "contract": "contracts/core/UserIdentityNFT.sol:UserIdentityNFT",
        "label": "_name",
        "offset": 0,
        "slot": "0",
        "type": "t_string_storage"
      },
      {
        "astId": 3489,
        "contract": "contracts/core/UserIdentityNFT.sol:UserIdentityNFT",
        "label": "_symbol",
        "offset": 0,
        "slot": "1",
        "type": "t_string_storage"
      },
      {
        "astId": 3493,
        "contract": "contracts/core/UserIdentityNFT.sol:UserIdentityNFT",
        "label": "_owners",
        "offset": 0,
        "slot": "2",
        "type": "t_mapping(t_uint256,t_address)"
      },
      {
        "astId": 3497,
        "contract": "contracts/core/UserIdentityNFT.sol:UserIdentityNFT",
        "label": "_balances",
        "offset": 0,
        "slot": "3",
        "type": "t_mapping(t_address,t_uint256)"
      },
      {
        "astId": 3501,
        "contract": "contracts/core/UserIdentityNFT.sol:UserIdentityNFT",
        "label": "_tokenApprovals",
        "offset": 0,
        "slot": "4",
        "type": "t_mapping(t_uint256,t_address)"
      },
      {
        "astId": 3507,
        "contract": "contracts/core/UserIdentityNFT.sol:UserIdentityNFT",
        "label": "_operatorApprovals",
        "offset": 0,
        "slot": "5",
        "type": "t_mapping(t_address,t_mapping(t_address,t_bool))"
      },
      {
        "astId": 4553,
        "contract": "contracts/core/UserIdentityNFT.sol:UserIdentityNFT",
        "label": "_tokenURIs",
        "offset": 0,
        "slot": "6",
        "type": "t_mapping(t_uint256,t_string_storage)"
      },
      {
        "astId": 2770,
        "contract": "contracts/core/UserIdentityNFT.sol:UserIdentityNFT",
        "label": "_owner",
        "offset": 0,
        "slot": "7",
        "type": "t_address"
      },
      {
        "astId": 3418,
        "contract": "contracts/core/UserIdentityNFT.sol:UserIdentityNFT",
        "label": "_status",
        "offset": 0,
        "slot": "8",
        "type": "t_uint256"
      },
      {
        "astId": 2984,
        "contract": "contracts/core/UserIdentityNFT.sol:UserIdentityNFT",
        "label": "_delegation",
        "offset": 0,
        "slot": "9",
        "type": "t_mapping(t_address,t_address)"
      },
      {
        "astId": 2989,
        "contract": "contracts/core/UserIdentityNFT.sol:UserIdentityNFT",
        "label": "_delegateCheckpoints",
        "offset": 0,
        "slot": "10",
        "type": "t_mapping(t_address,t_struct(History)5085_storage)"
      },
      {
        "astId": 2992,
        "contract": "contracts/core/UserIdentityNFT.sol:UserIdentityNFT",
        "label": "_totalCheckpoints",
        "offset": 0,
        "slot": "11",
        "type": "t_struct(History)5085_storage"
      },
      {
        "astId": 2997,
        "contract": "contracts/core/UserIdentityNFT.sol:UserIdentityNFT",
        "label": "_nonces",
        "offset": 0,
        "slot": "12",
        "type": "t_mapping(t_address,t_struct(Counter)6471_storage)"
      },
      {
        "astId": 10294,
        "contract": "contracts/core/UserIdentityNFT.sol:UserIdentityNFT",
        "label": "idCount",
        "offset": 0,
        "slot": "13",
        "type": "t_struct(Counter)6471_storage"
      },
      {
        "astId": 10297,
        "contract": "contracts/core/UserIdentityNFT.sol:UserIdentityNFT",
        "label": "figureprintOracle",
        "offset": 0,
        "slot": "14",
        "type": "t_contract(FigurePrintOracle)10221"
      }
    ],
    "types": {
      "t_address": {
        "encoding": "inplace",
        "label": "address",
        "numberOfBytes": "20"
      },
      "t_array(t_struct(Checkpoint)5090_storage)dyn_storage": {
        "base": "t_struct(Checkpoint)5090_storage",
        "encoding": "dynamic_array",
        "label": "struct Checkpoints.Checkpoint[]",
        "numberOfBytes": "32"
      },
      "t_bool": {
        "encoding": "inplace",
        "label": "bool",
        "numberOfBytes": "1"
      },
      "t_contract(FigurePrintOracle)10221": {
        "encoding": "inplace",
        "label": "contract FigurePrintOracle",
        "numberOfBytes": "20"
      },
      "t_mapping(t_address,t_address)": {
        "encoding": "mapping",
        "key": "t_address",
        "label": "mapping(address => address)",
        "numberOfBytes": "32",
        "value": "t_address"
      },
      "t_mapping(t_address,t_bool)": {
        "encoding": "mapping",
        "key": "t_address",
        "label": "mapping(address => bool)",
        "numberOfBytes": "32",
        "value": "t_bool"
      },
      "t_mapping(t_address,t_mapping(t_address,t_bool))": {
        "encoding": "mapping",
        "key": "t_address",
        "label": "mapping(address => mapping(address => bool))",
        "numberOfBytes": "32",
        "value": "t_mapping(t_address,t_bool)"
      },
      "t_mapping(t_address,t_struct(Counter)6471_storage)": {
        "encoding": "mapping",
        "key": "t_address",
        "label": "mapping(address => struct Counters.Counter)",
        "numberOfBytes": "32",
        "value": "t_struct(Counter)6471_storage"
      },
      "t_mapping(t_address,t_struct(History)5085_storage)": {
        "encoding": "mapping",
        "key": "t_address",
        "label": "mapping(address => struct Checkpoints.History)",
        "numberOfBytes": "32",
        "value": "t_struct(History)5085_storage"
      },
      "t_mapping(t_address,t_uint256)": {
        "encoding": "mapping",
        "key": "t_address",
        "label": "mapping(address => uint256)",
        "numberOfBytes": "32",
        "value": "t_uint256"
      },
      "t_mapping(t_uint256,t_address)": {
        "encoding": "mapping",
        "key": "t_uint256",
        "label": "mapping(uint256 => address)",
        "numberOfBytes": "32",
        "value": "t_address"
      },
      "t_mapping(t_uint256,t_string_storage)": {
        "encoding": "mapping",
        "key": "t_uint256",
        "label": "mapping(uint256 => string)",
        "numberOfBytes": "32",
        "value": "t_string_storage"
      },
      "t_string_storage": {
        "encoding": "bytes",
        "label": "string",
        "numberOfBytes": "32"
      },
      "t_struct(Checkpoint)5090_storage": {
        "encoding": "inplace",
        "label": "struct Checkpoints.Checkpoint",
        "members": [
          {
            "astId": 5087,
            "contract": "contracts/core/UserIdentityNFT.sol:UserIdentityNFT",
            "label": "_blockNumber",
            "offset": 0,
            "slot": "0",
            "type": "t_uint32"
          },
          {
            "astId": 5089,
            "contract": "contracts/core/UserIdentityNFT.sol:UserIdentityNFT",
            "label": "_value",
            "offset": 4,
            "slot": "0",
            "type": "t_uint224"
          }
        ],
        "numberOfBytes": "32"
      },
      "t_struct(Counter)6471_storage": {
        "encoding": "inplace",
        "label": "struct Counters.Counter",
        "members": [
          {
            "astId": 6470,
            "contract": "contracts/core/UserIdentityNFT.sol:UserIdentityNFT",
            "label": "_value",
            "offset": 0,
            "slot": "0",
            "type": "t_uint256"
          }
        ],
        "numberOfBytes": "32"
      },
      "t_struct(History)5085_storage": {
        "encoding": "inplace",
        "label": "struct Checkpoints.History",
        "members": [
          {
            "astId": 5084,
            "contract": "contracts/core/UserIdentityNFT.sol:UserIdentityNFT",
            "label": "_checkpoints",
            "offset": 0,
            "slot": "0",
            "type": "t_array(t_struct(Checkpoint)5090_storage)dyn_storage"
          }
        ],
        "numberOfBytes": "32"
      },
      "t_uint224": {
        "encoding": "inplace",
        "label": "uint224",
        "numberOfBytes": "28"
      },
      "t_uint256": {
        "encoding": "inplace",
        "label": "uint256",
        "numberOfBytes": "32"
      },
      "t_uint32": {
        "encoding": "inplace",
        "label": "uint32",
        "numberOfBytes": "4"
      }
    }
  }
}