{
  "address": "0xDc64a140Aa3E981100a9becA4E685f962f0cF6C9",
  "abi": [
    {
      "inputs": [
        {
          "internalType": "address payable",
          "name": "_figureprintOracle",
          "type": "address"
        },
        {
          "internalType": "string",
          "name": "name",
          "type": "string"
        },
        {
          "internalType": "string",
          "name": "symbol",
          "type": "string"
        },
        {
          "internalType": "string",
          "name": "signingDomain",
          "type": "string"
        },
        {
          "internalType": "string",
          "name": "signatureVersion",
          "type": "string"
        }
      ],
      "stateMutability": "nonpayable",
      "type": "constructor"
    },
    {
      "inputs": [
        {
          "internalType": "uint256",
          "name": "tokenId",
          "type": "uint256"
        },
        {
          "internalType": "address",
          "name": "from",
          "type": "address"
        }
      ],
      "name": "UserIdentityNFT__DirectMintNotAllow",
      "type": "error"
    },
    {
      "inputs": [],
      "name": "UserIdentityNFT__FirstVerifyIdenetity",
      "type": "error"
    },
    {
      "inputs": [],
      "name": "UserIdentityNFT__NotValidUserToRedeem",
      "type": "error"
    },
    {
      "inputs": [
        {
          "internalType": "uint256",
          "name": "tokenId",
          "type": "uint256"
        },
        {
          "internalType": "address",
          "name": "from",
          "type": "address"
        }
      ],
      "name": "UserIdentityNFT__TransferNoAllowed",
      "type": "error"
    },
    {
      "inputs": [
        {
          "internalType": "bytes",
          "name": "userId",
          "type": "bytes"
        },
        {
          "internalType": "address",
          "name": "userAddress",
          "type": "address"
        }
      ],
      "name": "UserIdentityNFT__UserIdAlreadyIssued",
      "type": "error"
    },
    {
      "inputs": [],
      "name": "UserIdentityNFT__VerficationStillFail",
      "type": "error"
    },
    {
      "inputs": [],
      "name": "UserIdentityNFT__VerficationStillPending",
      "type": "error"
    },
    {
      "anonymous": false,
      "inputs": [
        {
          "indexed": true,
          "internalType": "address",
          "name": "owner",
          "type": "address"
        },
        {
          "indexed": true,
          "internalType": "address",
          "name": "approved",
          "type": "address"
        },
        {
          "indexed": true,
          "internalType": "uint256",
          "name": "tokenId",
          "type": "uint256"
        }
      ],
      "name": "Approval",
      "type": "event"
    },
    {
      "anonymous": false,
      "inputs": [
        {
          "indexed": true,
          "internalType": "address",
          "name": "owner",
          "type": "address"
        },
        {
          "indexed": true,
          "internalType": "address",
          "name": "operator",
          "type": "address"
        },
        {
          "indexed": false,
          "internalType": "bool",
          "name": "approved",
          "type": "bool"
        }
      ],
      "name": "ApprovalForAll",
      "type": "event"
    },
    {
      "anonymous": false,
      "inputs": [
        {
          "indexed": true,
          "internalType": "address",
          "name": "delegator",
          "type": "address"
        },
        {
          "indexed": true,
          "internalType": "address",
          "name": "fromDelegate",
          "type": "address"
        },
        {
          "indexed": true,
          "internalType": "address",
          "name": "toDelegate",
          "type": "address"
        }
      ],
      "name": "DelegateChanged",
      "type": "event"
    },
    {
      "anonymous": false,
      "inputs": [
        {
          "indexed": true,
          "internalType": "address",
          "name": "delegate",
          "type": "address"
        },
        {
          "indexed": false,
          "internalType": "uint256",
          "name": "previousBalance",
          "type": "uint256"
        },
        {
          "indexed": false,
          "internalType": "uint256",
          "name": "newBalance",
          "type": "uint256"
        }
      ],
      "name": "DelegateVotesChanged",
      "type": "event"
    },
    {
      "anonymous": false,
      "inputs": [
        {
          "indexed": true,
          "internalType": "bytes",
          "name": "userId",
          "type": "bytes"
        },
        {
          "indexed": false,
          "internalType": "address",
          "name": "userAddres",
          "type": "address"
        },
        {
          "indexed": false,
          "internalType": "enum VerficationStatus",
          "name": "status",
          "type": "uint8"
        }
      ],
      "name": "IdVerifedAndIssued",
      "type": "event"
    },
    {
      "anonymous": false,
      "inputs": [
        {
          "indexed": true,
          "internalType": "address",
          "name": "from",
          "type": "address"
        },
        {
          "indexed": true,
          "internalType": "address",
          "name": "to",
          "type": "address"
        },
        {
          "indexed": true,
          "internalType": "uint256",
          "name": "tokenId",
          "type": "uint256"
        }
      ],
      "name": "Transfer",
      "type": "event"
    },
    {
      "inputs": [],
      "name": "CLAME_USERID_VOUCHER",
      "outputs": [
        {
          "internalType": "bytes32",
          "name": "",
          "type": "bytes32"
        }
      ],
      "stateMutability": "view",
      "type": "function"
    },
    {
      "inputs": [],
      "name": "DOMAIN_SEPARATOR",
      "outputs": [
        {
          "internalType": "bytes32",
          "name": "",
          "type": "bytes32"
        }
      ],
      "stateMutability": "view",
      "type": "function"
    },
    {
      "inputs": [
        {
          "internalType": "address",
          "name": "to",
          "type": "address"
        },
        {
          "internalType": "uint256",
          "name": "tokenId",
          "type": "uint256"
        }
      ],
      "name": "approve",
      "outputs": [],
      "stateMutability": "nonpayable",
      "type": "function"
    },
    {
      "inputs": [
        {
          "internalType": "address",
          "name": "owner",
          "type": "address"
        }
      ],
      "name": "balanceOf",
      "outputs": [
        {
          "internalType": "uint256",
          "name": "",
          "type": "uint256"
        }
      ],
      "stateMutability": "view",
      "type": "function"
    },
    {
      "inputs": [],
      "name": "compaire",
      "outputs": [
        {
          "internalType": "bool",
          "name": "",
          "type": "bool"
        }
      ],
      "stateMutability": "nonpayable",
      "type": "function"
    },
    {
      "inputs": [
        {
          "internalType": "address",
          "name": "delegatee",
          "type": "address"
        }
      ],
      "name": "delegate",
      "outputs": [],
      "stateMutability": "nonpayable",
      "type": "function"
    },
    {
      "inputs": [
        {
          "internalType": "address",
          "name": "delegatee",
          "type": "address"
        },
        {
          "internalType": "uint256",
          "name": "nonce",
          "type": "uint256"
        },
        {
          "internalType": "uint256",
          "name": "expiry",
          "type": "uint256"
        },
        {
          "internalType": "uint8",
          "name": "v",
          "type": "uint8"
        },
        {
          "internalType": "bytes32",
          "name": "r",
          "type": "bytes32"
        },
        {
          "internalType": "bytes32",
          "name": "s",
          "type": "bytes32"
        }
      ],
      "name": "delegateBySig",
      "outputs": [],
      "stateMutability": "nonpayable",
      "type": "function"
    },
    {
      "inputs": [
        {
          "internalType": "address",
          "name": "account",
          "type": "address"
        }
      ],
      "name": "delegates",
      "outputs": [
        {
          "internalType": "address",
          "name": "",
          "type": "address"
        }
      ],
      "stateMutability": "view",
      "type": "function"
    },
    {
      "inputs": [
        {
          "internalType": "uint256",
          "name": "tokenId",
          "type": "uint256"
        }
      ],
      "name": "getApproved",
      "outputs": [
        {
          "internalType": "address",
          "name": "",
          "type": "address"
        }
      ],
      "stateMutability": "view",
      "type": "function"
    },
    {
      "inputs": [],
      "name": "getIdCount",
      "outputs": [
        {
          "internalType": "uint256",
          "name": "",
          "type": "uint256"
        }
      ],
      "stateMutability": "view",
      "type": "function"
    },
    {
      "inputs": [
        {
          "internalType": "uint256",
          "name": "blockNumber",
          "type": "uint256"
        }
      ],
      "name": "getPastTotalSupply",
      "outputs": [
        {
          "internalType": "uint256",
          "name": "",
          "type": "uint256"
        }
      ],
      "stateMutability": "view",
      "type": "function"
    },
    {
      "inputs": [
        {
          "internalType": "address",
          "name": "account",
          "type": "address"
        },
        {
          "internalType": "uint256",
          "name": "blockNumber",
          "type": "uint256"
        }
      ],
      "name": "getPastVotes",
      "outputs": [
        {
          "internalType": "uint256",
          "name": "",
          "type": "uint256"
        }
      ],
      "stateMutability": "view",
      "type": "function"
    },
    {
      "inputs": [
        {
          "internalType": "address",
          "name": "account",
          "type": "address"
        }
      ],
      "name": "getVotes",
      "outputs": [
        {
          "internalType": "uint256",
          "name": "",
          "type": "uint256"
        }
      ],
      "stateMutability": "view",
      "type": "function"
    },
    {
      "inputs": [],
      "name": "getfigureprintOracleAddress",
      "outputs": [
        {
          "internalType": "address",
          "name": "",
          "type": "address"
        }
      ],
      "stateMutability": "view",
      "type": "function"
    },
    {
      "inputs": [],
      "name": "getfigureprintOracleResponse",
      "outputs": [
        {
          "components": [
            {
              "internalType": "bytes",
              "name": "userId",
              "type": "bytes"
            },
            {
              "internalType": "uint256",
              "name": "numberTries",
              "type": "uint256"
            },
            {
              "internalType": "enum VerficationStatus",
              "name": "status",
              "type": "uint8"
            }
          ],
          "internalType": "struct VerifcaitonRecord",
          "name": "",
          "type": "tuple"
        }
      ],
      "stateMutability": "view",
      "type": "function"
    },
    {
      "inputs": [
        {
          "internalType": "address",
          "name": "owner",
          "type": "address"
        },
        {
          "internalType": "address",
          "name": "operator",
          "type": "address"
        }
      ],
      "name": "isApprovedForAll",
      "outputs": [
        {
          "internalType": "bool",
          "name": "",
          "type": "bool"
        }
      ],
      "stateMutability": "view",
      "type": "function"
    },
    {
      "inputs": [],
      "name": "name",
      "outputs": [
        {
          "internalType": "string",
          "name": "",
          "type": "string"
        }
      ],
      "stateMutability": "view",
      "type": "function"
    },
    {
      "inputs": [
        {
          "internalType": "address",
          "name": "owner",
          "type": "address"
        }
      ],
      "name": "nonces",
      "outputs": [
        {
          "internalType": "uint256",
          "name": "",
          "type": "uint256"
        }
      ],
      "stateMutability": "view",
      "type": "function"
    },
    {
      "inputs": [
        {
          "internalType": "uint256",
          "name": "tokenId",
          "type": "uint256"
        }
      ],
      "name": "ownerOf",
      "outputs": [
        {
          "internalType": "address",
          "name": "",
          "type": "address"
        }
      ],
      "stateMutability": "view",
      "type": "function"
    },
    {
      "inputs": [
        {
          "components": [
            {
              "internalType": "string",
              "name": "uri",
              "type": "string"
            },
            {
              "internalType": "bytes",
              "name": "userId",
              "type": "bytes"
            },
            {
              "internalType": "bytes",
              "name": "fingerPrint",
              "type": "bytes"
            },
            {
              "internalType": "bytes",
              "name": "signature",
              "type": "bytes"
            }
          ],
          "internalType": "struct UserIdVoucher",
          "name": "voucher",
          "type": "tuple"
        }
      ],
      "name": "redeem",
      "outputs": [],
      "stateMutability": "nonpayable",
      "type": "function"
    },
    {
      "inputs": [
        {
          "internalType": "address",
          "name": "from",
          "type": "address"
        },
        {
          "internalType": "address",
          "name": "to",
          "type": "address"
        },
        {
          "internalType": "uint256",
          "name": "tokenId",
          "type": "uint256"
        }
      ],
      "name": "safeTransferFrom",
      "outputs": [],
      "stateMutability": "nonpayable",
      "type": "function"
    },
    {
      "inputs": [
        {
          "internalType": "address",
          "name": "from",
          "type": "address"
        },
        {
          "internalType": "address",
          "name": "to",
          "type": "address"
        },
        {
          "internalType": "uint256",
          "name": "tokenId",
          "type": "uint256"
        },
        {
          "internalType": "bytes",
          "name": "data",
          "type": "bytes"
        }
      ],
      "name": "safeTransferFrom",
      "outputs": [],
      "stateMutability": "nonpayable",
      "type": "function"
    },
    {
      "inputs": [
        {
          "internalType": "address",
          "name": "operator",
          "type": "address"
        },
        {
          "internalType": "bool",
          "name": "approved",
          "type": "bool"
        }
      ],
      "name": "setApprovalForAll",
      "outputs": [],
      "stateMutability": "nonpayable",
      "type": "function"
    },
    {
      "inputs": [
        {
          "internalType": "bytes4",
          "name": "interfaceId",
          "type": "bytes4"
        }
      ],
      "name": "supportsInterface",
      "outputs": [
        {
          "internalType": "bool",
          "name": "",
          "type": "bool"
        }
      ],
      "stateMutability": "view",
      "type": "function"
    },
    {
      "inputs": [],
      "name": "symbol",
      "outputs": [
        {
          "internalType": "string",
          "name": "",
          "type": "string"
        }
      ],
      "stateMutability": "view",
      "type": "function"
    },
    {
      "inputs": [
        {
          "internalType": "uint256",
          "name": "tokenId",
          "type": "uint256"
        }
      ],
      "name": "tokenURI",
      "outputs": [
        {
          "internalType": "string",
          "name": "",
          "type": "string"
        }
      ],
      "stateMutability": "view",
      "type": "function"
    },
    {
      "inputs": [
        {
          "internalType": "address",
          "name": "from",
          "type": "address"
        },
        {
          "internalType": "address",
          "name": "",
          "type": "address"
        },
        {
          "internalType": "uint256",
          "name": "tokenId",
          "type": "uint256"
        }
      ],
      "name": "transferFrom",
      "outputs": [],
      "stateMutability": "nonpayable",
      "type": "function"
    },
    {
      "inputs": [
        {
          "internalType": "bytes",
          "name": "userId",
          "type": "bytes"
        },
        {
          "internalType": "bytes",
          "name": "fingerPrint",
          "type": "bytes"
        }
      ],
      "name": "verifyFingerPrint",
      "outputs": [],
      "stateMutability": "nonpayable",
      "type": "function"
    },
    {
      "inputs": [
        {
          "components": [
            {
              "internalType": "string",
              "name": "uri",
              "type": "string"
            },
            {
              "internalType": "bytes",
              "name": "userId",
              "type": "bytes"
            },
            {
              "internalType": "bytes",
              "name": "fingerPrint",
              "type": "bytes"
            },
            {
              "internalType": "bytes",
              "name": "signature",
              "type": "bytes"
            }
          ],
          "internalType": "struct UserIdVoucher",
          "name": "voucher",
          "type": "tuple"
        }
      ],
      "name": "verifySignature",
      "outputs": [
        {
          "internalType": "address",
          "name": "",
          "type": "address"
        }
      ],
      "stateMutability": "view",
      "type": "function"
    }
  ],
  "transactionHash": "0xc546fd0cd5d15e07bd8503a3956ba0445c8c8a90dc1adcefd99338b788c8933e",
  "args": [
    "0xCf7Ed3AccA5a467e9e704C703E8D87F634fB0Fc9",
    "User-Identity",
    "786",
    "User-Identity",
    "1"
  ],
  "numDeployments": 1,
  "solcInputHash": "e35109fbea13f34cb0f076266063f3fe",
  "bytecode": "0x6101406040523480156200001257600080fd5b50604051620060d5380380620060d5833981810160405281019062000038919062000394565b8181858581600090816200004d9190620006e3565b5080600190816200005f9190620006e3565b50505060008280519060200120905060008280519060200120905060007f8b73c3c69bb8fe3d512ecc4cf759cc79239f7b179b0ffacaa9a75d522b39400f90508260e081815250508161010081815250504660a08181525050620000cb8184846200016060201b60201c565b608081815250503073ffffffffffffffffffffffffffffffffffffffff1660c08173ffffffffffffffffffffffffffffffffffffffff1681525050806101208181525050505050505084600c60006101000a81548173ffffffffffffffffffffffffffffffffffffffff021916908373ffffffffffffffffffffffffffffffffffffffff160217905550505050505062000878565b600083838346306040516020016200017d9594939291906200081b565b6040516020818303038152906040528051906020012090509392505050565b6000604051905090565b600080fd5b600080fd5b600073ffffffffffffffffffffffffffffffffffffffff82169050919050565b6000620001dd82620001b0565b9050919050565b620001ef81620001d0565b8114620001fb57600080fd5b50565b6000815190506200020f81620001e4565b92915050565b600080fd5b600080fd5b6000601f19601f8301169050919050565b7f4e487b7100000000000000000000000000000000000000000000000000000000600052604160045260246000fd5b6200026a826200021f565b810181811067ffffffffffffffff821117156200028c576200028b62000230565b5b80604052505050565b6000620002a16200019c565b9050620002af82826200025f565b919050565b600067ffffffffffffffff821115620002d257620002d162000230565b5b620002dd826200021f565b9050602081019050919050565b60005b838110156200030a578082015181840152602081019050620002ed565b60008484015250505050565b60006200032d6200032784620002b4565b62000295565b9050828152602081018484840111156200034c576200034b6200021a565b5b62000359848285620002ea565b509392505050565b600082601f83011262000379576200037862000215565b5b81516200038b84826020860162000316565b91505092915050565b600080600080600060a08688031215620003b357620003b2620001a6565b5b6000620003c388828901620001fe565b955050602086015167ffffffffffffffff811115620003e757620003e6620001ab565b5b620003f58882890162000361565b945050604086015167ffffffffffffffff811115620004195762000418620001ab565b5b620004278882890162000361565b935050606086015167ffffffffffffffff8111156200044b576200044a620001ab565b5b620004598882890162000361565b925050608086015167ffffffffffffffff8111156200047d576200047c620001ab565b5b6200048b8882890162000361565b9150509295509295909350565b600081519050919050565b7f4e487b7100000000000000000000000000000000000000000000000000000000600052602260045260246000fd5b60006002820490506001821680620004eb57607f821691505b602082108103620005015762000500620004a3565b5b50919050565b60008190508160005260206000209050919050565b60006020601f8301049050919050565b600082821b905092915050565b6000600883026200056b7fffffffffffffffffffffffffffffffffffffffffffffffffffffffffffffffff826200052c565b6200057786836200052c565b95508019841693508086168417925050509392505050565b6000819050919050565b6000819050919050565b6000620005c4620005be620005b8846200058f565b62000599565b6200058f565b9050919050565b6000819050919050565b620005e083620005a3565b620005f8620005ef82620005cb565b84845462000539565b825550505050565b600090565b6200060f62000600565b6200061c818484620005d5565b505050565b5b8181101562000644576200063860008262000605565b60018101905062000622565b5050565b601f82111562000693576200065d8162000507565b62000668846200051c565b8101602085101562000678578190505b6200069062000687856200051c565b83018262000621565b50505b505050565b600082821c905092915050565b6000620006b86000198460080262000698565b1980831691505092915050565b6000620006d38383620006a5565b9150826002028217905092915050565b620006ee8262000498565b67ffffffffffffffff8111156200070a576200070962000230565b5b620007168254620004d2565b6200072382828562000648565b600060209050601f8311600181146200075b576000841562000746578287015190505b620007528582620006c5565b865550620007c2565b601f1984166200076b8662000507565b60005b8281101562000795578489015182556001820191506020850194506020810190506200076e565b86831015620007b55784890151620007b1601f891682620006a5565b8355505b6001600288020188555050505b505050505050565b6000819050919050565b620007df81620007ca565b82525050565b620007f0816200058f565b82525050565b60006200080382620001b0565b9050919050565b6200081581620007f6565b82525050565b600060a082019050620008326000830188620007d4565b620008416020830187620007d4565b620008506040830186620007d4565b6200085f6060830185620007e5565b6200086e60808301846200080a565b9695505050505050565b60805160a05160c05160e051610100516101205161580d620008c8600039600061172e015260006117700152600061174f01526000611684015260006116da01526000611703015261580d6000f3fe608060405234801561001057600080fd5b50600436106101cf5760003560e01c80636352211e1161010457806395d89b41116100a2578063c3cda52011610071578063c3cda52014610566578063c87b56dd14610582578063db5890ee146105b2578063e985e9c5146105d0576101cf565b806395d89b41146104e05780639ab24eb0146104fe578063a22cb4651461052e578063b88d4fde1461054a576101cf565b806373f2d272116100de57806373f2d272146104325780637ecebe00146104505780638483de56146104805780638e539e8c146104b0576101cf565b80636352211e146103b6578063696efb85146103e657806370a0823114610402576101cf565b80633a089942116101715780634a8cb25c1161014b5780634a8cb25c1461032e578063505105431461034c578063587cde1e1461036a5780635c19a95c1461039a576101cf565b80633a089942146102c65780633a46b1a8146102e257806342842e0e14610312576101cf565b8063095ea7b3116101ad578063095ea7b3146102525780630a2b1fab1461026e57806323b872dd1461028c5780633644e515146102a8576101cf565b806301ffc9a7146101d457806306fdde0314610204578063081812fc14610222575b600080fd5b6101ee60048036038101906101e99190613983565b610600565b6040516101fb91906139cb565b60405180910390f35b61020c6106e2565b6040516102199190613a76565b60405180910390f35b61023c60048036038101906102379190613ace565b610774565b6040516102499190613b3c565b60405180910390f35b61026c60048036038101906102679190613b83565b6107ba565b005b6102766108d1565b60405161028391906139cb565b60405180910390f35b6102a660048036038101906102a19190613bc3565b6108e4565b005b6102b0610923565b6040516102bd9190613c2f565b60405180910390f35b6102e060048036038101906102db9190613d7f565b610932565b005b6102fc60048036038101906102f79190613b83565b610a17565b6040516103099190613e06565b60405180910390f35b61032c60048036038101906103279190613bc3565b610a72565b005b610336610a92565b6040516103439190613b3c565b60405180910390f35b610354610abc565b6040516103619190613f4c565b60405180910390f35b610384600480360381019061037f9190613f6e565b610b70565b6040516103919190613b3c565b60405180910390f35b6103b460048036038101906103af9190613f6e565b610bd9565b005b6103d060048036038101906103cb9190613ace565b610bf3565b6040516103dd9190613b3c565b60405180910390f35b61040060048036038101906103fb9190613fbf565b610c79565b005b61041c60048036038101906104179190613f6e565b610fc6565b6040516104299190613e06565b60405180910390f35b61043a61107d565b6040516104479190613c2f565b60405180910390f35b61046a60048036038101906104659190613f6e565b6110a0565b6040516104779190613e06565b60405180910390f35b61049a60048036038101906104959190613fbf565b6110f0565b6040516104a79190613b3c565b60405180910390f35b6104ca60048036038101906104c59190613ace565b611162565b6040516104d79190613e06565b60405180910390f35b6104e86111c1565b6040516104f59190613a76565b60405180910390f35b61051860048036038101906105139190613f6e565b611253565b6040516105259190613e06565b60405180910390f35b61054860048036038101906105439190614034565b6112c1565b005b610564600480360381019061055f9190614074565b6112d7565b005b610580600480360381019061057b919061415c565b611339565b005b61059c60048036038101906105979190613ace565b61143d565b6040516105a99190613a76565b60405180910390f35b6105ba61144f565b6040516105c79190613e06565b60405180910390f35b6105ea60048036038101906105e591906141e9565b611460565b6040516105f791906139cb565b60405180910390f35b60007f80ac58cd000000000000000000000000000000000000000000000000000000007bffffffffffffffffffffffffffffffffffffffffffffffffffffffff1916827bffffffffffffffffffffffffffffffffffffffffffffffffffffffff191614806106cb57507f5b5e139f000000000000000000000000000000000000000000000000000000007bffffffffffffffffffffffffffffffffffffffffffffffffffffffff1916827bffffffffffffffffffffffffffffffffffffffffffffffffffffffff1916145b806106db57506106da826114f4565b5b9050919050565b6060600080546106f190614258565b80601f016020809104026020016040519081016040528092919081815260200182805461071d90614258565b801561076a5780601f1061073f5761010080835404028352916020019161076a565b820191906000526020600020905b81548152906001019060200180831161074d57829003601f168201915b5050505050905090565b600061077f8261155e565b6004600083815260200190815260200160002060009054906101000a900473ffffffffffffffffffffffffffffffffffffffff169050919050565b60006107c582610bf3565b90508073ffffffffffffffffffffffffffffffffffffffff168373ffffffffffffffffffffffffffffffffffffffff1603610835576040517f08c379a000000000000000000000000000000000000000000000000000000000815260040161082c906142fb565b60405180910390fd5b8073ffffffffffffffffffffffffffffffffffffffff166108546115a9565b73ffffffffffffffffffffffffffffffffffffffff16148061088357506108828161087d6115a9565b611460565b5b6108c2576040517f08c379a00000000000000000000000000000000000000000000000000000000081526004016108b99061438d565b60405180910390fd5b6108cc83836115b1565b505050565b60006108dd600b61166a565b6001905090565b80836040517f205e684800000000000000000000000000000000000000000000000000000000815260040161091a9291906143ad565b60405180910390fd5b600061092d611680565b905090565b600061093d33610fc6565b11156109825781336040517fc894777e000000000000000000000000000000000000000000000000000000008152600401610979929190614420565b60405180910390fd5b600c60009054906101000a900473ffffffffffffffffffffffffffffffffffffffff1673ffffffffffffffffffffffffffffffffffffffff1663f0aca8223384846040518463ffffffff1660e01b81526004016109e193929190614450565b600060405180830381600087803b1580156109fb57600080fd5b505af1158015610a0f573d6000803e3d6000fd5b505050505050565b6000610a6a82600860008673ffffffffffffffffffffffffffffffffffffffff1673ffffffffffffffffffffffffffffffffffffffff16815260200190815260200160002061179a90919063ffffffff16565b905092915050565b610a8d838383604051806020016040528060008152506112d7565b505050565b6000600c60009054906101000a900473ffffffffffffffffffffffffffffffffffffffff16905090565b610ac46138e4565b6000600c60009054906101000a900473ffffffffffffffffffffffffffffffffffffffff1673ffffffffffffffffffffffffffffffffffffffff166367e2efc6336040518263ffffffff1660e01b8152600401610b219190613b3c565b600060405180830381865afa158015610b3e573d6000803e3d6000fd5b505050506040513d6000823e3d601f19601f82011682018060405250810190610b6791906145c9565b90508091505090565b6000600760008373ffffffffffffffffffffffffffffffffffffffff1673ffffffffffffffffffffffffffffffffffffffff16815260200190815260200160002060009054906101000a900473ffffffffffffffffffffffffffffffffffffffff169050919050565b6000610be36115a9565b9050610bef81836118ff565b5050565b600080610bff83611a13565b9050600073ffffffffffffffffffffffffffffffffffffffff168173ffffffffffffffffffffffffffffffffffffffff1603610c70576040517f08c379a0000000000000000000000000000000000000000000000000000000008152600401610c679061465e565b60405180910390fd5b80915050919050565b6000600c60009054906101000a900473ffffffffffffffffffffffffffffffffffffffff1673ffffffffffffffffffffffffffffffffffffffff166367e2efc6336040518263ffffffff1660e01b8152600401610cd69190613b3c565b600060405180830381865afa158015610cf3573d6000803e3d6000fd5b505050506040513d6000823e3d601f19601f82011682018060405250810190610d1c91906145c9565b905060006003811115610d3257610d31613e85565b5b81604001516003811115610d4957610d48613e85565b5b03610d80576040517f2efca46300000000000000000000000000000000000000000000000000000000815260040160405180910390fd5b60026003811115610d9457610d93613e85565b5b81604001516003811115610dab57610daa613e85565b5b03610efe576000610dbb836110f0565b90503373ffffffffffffffffffffffffffffffffffffffff168173ffffffffffffffffffffffffffffffffffffffff1614610e22576040517fc2f3d34f00000000000000000000000000000000000000000000000000000000815260040160405180910390fd5b610e2c600b61166a565b6000610e38600b611a50565b9050610e443382611a5e565b610ea081858060000190610e58919061468d565b8080601f016020809104026020016040519081016040528093929190818152602001838380828437600081840152601f19601f82011690508083019250505050505050611c7b565b8260000151604051610eb2919061472c565b60405180910390207f4ced97229ab164c3cda3718290ac3e4418672e643a3b6af7f5188812410a200f338560400151604051610eef929190614752565b60405180910390a25050610fc2565b60016003811115610f1257610f11613e85565b5b81604001516003811115610f2957610f28613e85565b5b03610f60576040517fcc260bff00000000000000000000000000000000000000000000000000000000815260040160405180910390fd5b600380811115610f7357610f72613e85565b5b81604001516003811115610f8a57610f89613e85565b5b03610fc1576040517f7236ca2f00000000000000000000000000000000000000000000000000000000815260040160405180910390fd5b5b5050565b60008073ffffffffffffffffffffffffffffffffffffffff168273ffffffffffffffffffffffffffffffffffffffff1603611036576040517f08c379a000000000000000000000000000000000000000000000000000000000815260040161102d906147ed565b60405180910390fd5b600360008373ffffffffffffffffffffffffffffffffffffffff1673ffffffffffffffffffffffffffffffffffffffff168152602001908152602001600020549050919050565b7e5165dbde6c98ff3dd217e399994c50c9b2dcb0e924050ef97159c4f0f162a681565b60006110e9600a60008473ffffffffffffffffffffffffffffffffffffffff1673ffffffffffffffffffffffffffffffffffffffff168152602001908152602001600020611a50565b9050919050565b6000806110fc83611ce8565b905061115a81848060600190611112919061480d565b8080601f016020809104026020016040519081016040528093929190818152602001838380828437600081840152601f19601f82011690508083019250505050505050611db4565b915050919050565b60004382106111a6576040517f08c379a000000000000000000000000000000000000000000000000000000000815260040161119d906148bc565b60405180910390fd5b6111ba82600961179a90919063ffffffff16565b9050919050565b6060600180546111d090614258565b80601f01602080910402602001604051908101604052809291908181526020018280546111fc90614258565b80156112495780601f1061121e57610100808354040283529160200191611249565b820191906000526020600020905b81548152906001019060200180831161122c57829003601f168201915b5050505050905090565b600061129c600860008473ffffffffffffffffffffffffffffffffffffffff1673ffffffffffffffffffffffffffffffffffffffff168152602001908152602001600020611ddb565b7bffffffffffffffffffffffffffffffffffffffffffffffffffffffff169050919050565b6112d36112cc6115a9565b8383611e45565b5050565b6112e86112e26115a9565b83611fb1565b611327576040517f08c379a000000000000000000000000000000000000000000000000000000000815260040161131e9061494e565b60405180910390fd5b61133384848484612046565b50505050565b8342111561137c576040517f08c379a0000000000000000000000000000000000000000000000000000000008152600401611373906149ba565b60405180910390fd5b60006113de6113d67fe48329057bfd03d55e49b547132e39cffd9c1820ad7b9d4c5307691425d15adf8989896040516020016113bb94939291906149da565b604051602081830303815290604052805190602001206120a2565b8585856120bc565b90506113e9816120e7565b861461142a576040517f08c379a000000000000000000000000000000000000000000000000000000000815260040161142190614a6b565b60405180910390fd5b61143481886118ff565b50505050505050565b606061144882612145565b9050919050565b600061145b600b611a50565b905090565b6000600560008473ffffffffffffffffffffffffffffffffffffffff1673ffffffffffffffffffffffffffffffffffffffff16815260200190815260200160002060008373ffffffffffffffffffffffffffffffffffffffff1673ffffffffffffffffffffffffffffffffffffffff16815260200190815260200160002060009054906101000a900460ff16905092915050565b60007f01ffc9a7000000000000000000000000000000000000000000000000000000007bffffffffffffffffffffffffffffffffffffffffffffffffffffffff1916827bffffffffffffffffffffffffffffffffffffffffffffffffffffffff1916149050919050565b61156781612257565b6115a6576040517f08c379a000000000000000000000000000000000000000000000000000000000815260040161159d9061465e565b60405180910390fd5b50565b600033905090565b816004600083815260200190815260200160002060006101000a81548173ffffffffffffffffffffffffffffffffffffffff021916908373ffffffffffffffffffffffffffffffffffffffff160217905550808273ffffffffffffffffffffffffffffffffffffffff1661162483610bf3565b73ffffffffffffffffffffffffffffffffffffffff167f8c5be1e5ebec7d5bd14f71427d1e84f3dd0314c0f7b2291e5b200ac8c7c3b92560405160405180910390a45050565b6001816000016000828254019250508190555050565b60007f000000000000000000000000000000000000000000000000000000000000000073ffffffffffffffffffffffffffffffffffffffff163073ffffffffffffffffffffffffffffffffffffffff161480156116fc57507f000000000000000000000000000000000000000000000000000000000000000046145b15611729577f00000000000000000000000000000000000000000000000000000000000000009050611797565b6117947f00000000000000000000000000000000000000000000000000000000000000007f00000000000000000000000000000000000000000000000000000000000000007f0000000000000000000000000000000000000000000000000000000000000000612298565b90505b90565b60004382106117de576040517f08c379a00000000000000000000000000000000000000000000000000000000081526004016117d590614ad7565b60405180910390fd5b60006117e9836122d2565b9050600084600001805490509050600080829050600583111561186c57600061181184612325565b8461181c9190614b26565b905061182b886000018261241e565b60000160009054906101000a900463ffffffff1663ffffffff168563ffffffff16101561185a5780915061186a565b6001816118679190614b5a565b92505b505b600061187d88600001868585612433565b9050600081146118d1576118a08860000160018361189b9190614b26565b61241e565b60000160049054906101000a90047bffffffffffffffffffffffffffffffffffffffffffffffffffffffff166118d4565b60005b7bffffffffffffffffffffffffffffffffffffffffffffffffffffffff169550505050505092915050565b600061190a83610b70565b905081600760008573ffffffffffffffffffffffffffffffffffffffff1673ffffffffffffffffffffffffffffffffffffffff16815260200190815260200160002060006101000a81548173ffffffffffffffffffffffffffffffffffffffff021916908373ffffffffffffffffffffffffffffffffffffffff1602179055508173ffffffffffffffffffffffffffffffffffffffff168173ffffffffffffffffffffffffffffffffffffffff168473ffffffffffffffffffffffffffffffffffffffff167f3134e8a2e6d97e929a7e54011ea5485d7d196dd5f0ba4d4ef95803e8e3fc257f60405160405180910390a4611a0e8183611a09866124a6565b6124b8565b505050565b60006002600083815260200190815260200160002060009054906101000a900473ffffffffffffffffffffffffffffffffffffffff169050919050565b600081600001549050919050565b600073ffffffffffffffffffffffffffffffffffffffff168273ffffffffffffffffffffffffffffffffffffffff1603611acd576040517f08c379a0000000000000000000000000000000000000000000000000000000008152600401611ac490614bda565b60405180910390fd5b611ad681612257565b15611b16576040517f08c379a0000000000000000000000000000000000000000000000000000000008152600401611b0d90614c46565b60405180910390fd5b611b246000838360016126c5565b611b2d81612257565b15611b6d576040517f08c379a0000000000000000000000000000000000000000000000000000000008152600401611b6490614c46565b60405180910390fd5b6001600360008473ffffffffffffffffffffffffffffffffffffffff1673ffffffffffffffffffffffffffffffffffffffff16815260200190815260200160002060008282540192505081905550816002600083815260200190815260200160002060006101000a81548173ffffffffffffffffffffffffffffffffffffffff021916908373ffffffffffffffffffffffffffffffffffffffff160217905550808273ffffffffffffffffffffffffffffffffffffffff16600073ffffffffffffffffffffffffffffffffffffffff167fddf252ad1be2c89b69c2b068fc378daa952ba7f163c4a11628f55a4df523b3ef60405160405180910390a4611c776000838360016127eb565b5050565b611c8482612257565b611cc3576040517f08c379a0000000000000000000000000000000000000000000000000000000008152600401611cba90614cd8565b60405180910390fd5b80600660008481526020019081526020016000209081611ce39190614ea4565b505050565b6000611dad7e5165dbde6c98ff3dd217e399994c50c9b2dcb0e924050ef97159c4f0f162a6838060000190611d1d919061468d565b604051611d2b929190614f9b565b6040518091039020848060200190611d43919061480d565b604051611d51929190614f9b565b6040518091039020858060400190611d69919061480d565b604051611d77929190614f9b565b6040518091039020604051602001611d929493929190614fb4565b604051602081830303815290604052805190602001206120a2565b9050919050565b6000806000611dc385856127fd565b91509150611dd08161284e565b819250505092915050565b6000808260000180549050905060008114611e3a57611e0983600001600183611e049190614b26565b61241e565b60000160049054906101000a90047bffffffffffffffffffffffffffffffffffffffffffffffffffffffff16611e3d565b60005b915050919050565b8173ffffffffffffffffffffffffffffffffffffffff168373ffffffffffffffffffffffffffffffffffffffff1603611eb3576040517f08c379a0000000000000000000000000000000000000000000000000000000008152600401611eaa90615045565b60405180910390fd5b80600560008573ffffffffffffffffffffffffffffffffffffffff1673ffffffffffffffffffffffffffffffffffffffff16815260200190815260200160002060008473ffffffffffffffffffffffffffffffffffffffff1673ffffffffffffffffffffffffffffffffffffffff16815260200190815260200160002060006101000a81548160ff0219169083151502179055508173ffffffffffffffffffffffffffffffffffffffff168373ffffffffffffffffffffffffffffffffffffffff167f17307eab39ab6107e8899845ad3d59bd9653f200f220920489ca2b5937696c3183604051611fa491906139cb565b60405180910390a3505050565b600080611fbd83610bf3565b90508073ffffffffffffffffffffffffffffffffffffffff168473ffffffffffffffffffffffffffffffffffffffff161480611fff5750611ffe8185611460565b5b8061203d57508373ffffffffffffffffffffffffffffffffffffffff1661202584610774565b73ffffffffffffffffffffffffffffffffffffffff16145b91505092915050565b6120518484846129b4565b61205d84848484612cad565b61209c576040517f08c379a0000000000000000000000000000000000000000000000000000000008152600401612093906150d7565b60405180910390fd5b50505050565b60006120b56120af611680565b83612e34565b9050919050565b60008060006120cd87878787612e67565b915091506120da8161284e565b8192505050949350505050565b600080600a60008473ffffffffffffffffffffffffffffffffffffffff1673ffffffffffffffffffffffffffffffffffffffff168152602001908152602001600020905061213481611a50565b915061213f8161166a565b50919050565b60606121508261155e565b600060066000848152602001908152602001600020805461217090614258565b80601f016020809104026020016040519081016040528092919081815260200182805461219c90614258565b80156121e95780601f106121be576101008083540402835291602001916121e9565b820191906000526020600020905b8154815290600101906020018083116121cc57829003601f168201915b5050505050905060006121fa612f49565b9050600081510361220f578192505050612252565b60008251111561224457808260405160200161222c929190615133565b60405160208183030381529060405292505050612252565b61224d84612f60565b925050505b919050565b60008073ffffffffffffffffffffffffffffffffffffffff1661227983611a13565b73ffffffffffffffffffffffffffffffffffffffff1614159050919050565b600083838346306040516020016122b3959493929190615157565b6040516020818303038152906040528051906020012090509392505050565b600063ffffffff801682111561231d576040517f08c379a00000000000000000000000000000000000000000000000000000000081526004016123149061521c565b60405180910390fd5b819050919050565b60008082036123375760009050612419565b6000600161234484612fc8565b901c6001901b9050600181848161235e5761235d61523c565b5b048201901c905060018184816123775761237661523c565b5b048201901c905060018184816123905761238f61523c565b5b048201901c905060018184816123a9576123a861523c565b5b048201901c905060018184816123c2576123c161523c565b5b048201901c905060018184816123db576123da61523c565b5b048201901c905060018184816123f4576123f361523c565b5b048201901c90506124158182858161240f5761240e61523c565b5b046130a9565b9150505b919050565b60008260005281602060002001905092915050565b60005b8183101561249b57600061244a84846130c2565b90508463ffffffff1661245d878361241e565b60000160009054906101000a900463ffffffff1663ffffffff16111561248557809250612495565b6001816124929190614b5a565b93505b50612436565b819050949350505050565b60006124b182610fc6565b9050919050565b8173ffffffffffffffffffffffffffffffffffffffff168373ffffffffffffffffffffffffffffffffffffffff16141580156124f45750600081115b156126c057600073ffffffffffffffffffffffffffffffffffffffff168373ffffffffffffffffffffffffffffffffffffffff16146125dc576000806125856130e884600860008973ffffffffffffffffffffffffffffffffffffffff1673ffffffffffffffffffffffffffffffffffffffff1681526020019081526020016000206130fe9092919063ffffffff16565b915091508473ffffffffffffffffffffffffffffffffffffffff167fdec2bacdd2f05b59de34da9b523dff8be42e5e38e818c82fdb0bae774387a72483836040516125d192919061526b565b60405180910390a250505b600073ffffffffffffffffffffffffffffffffffffffff168273ffffffffffffffffffffffffffffffffffffffff16146126bf5760008061266861314a84600860008873ffffffffffffffffffffffffffffffffffffffff1673ffffffffffffffffffffffffffffffffffffffff1681526020019081526020016000206130fe9092919063ffffffff16565b915091508373ffffffffffffffffffffffffffffffffffffffff167fdec2bacdd2f05b59de34da9b523dff8be42e5e38e818c82fdb0bae774387a72483836040516126b492919061526b565b60405180910390a250505b5b505050565b60018111156127e557600073ffffffffffffffffffffffffffffffffffffffff168473ffffffffffffffffffffffffffffffffffffffff16146127595780600360008673ffffffffffffffffffffffffffffffffffffffff1673ffffffffffffffffffffffffffffffffffffffff16815260200190815260200160002060008282546127519190614b26565b925050819055505b600073ffffffffffffffffffffffffffffffffffffffff168373ffffffffffffffffffffffffffffffffffffffff16146127e45780600360008573ffffffffffffffffffffffffffffffffffffffff1673ffffffffffffffffffffffffffffffffffffffff16815260200190815260200160002060008282546127dc9190614b5a565b925050819055505b5b50505050565b6127f784848484613160565b50505050565b600080604183510361283e5760008060006020860151925060408601519150606086015160001a905061283287828585612e67565b94509450505050612847565b60006002915091505b9250929050565b6000600481111561286257612861613e85565b5b81600481111561287557612874613e85565b5b03156129b1576001600481111561288f5761288e613e85565b5b8160048111156128a2576128a1613e85565b5b036128e2576040517f08c379a00000000000000000000000000000000000000000000000000000000081526004016128d9906152e0565b60405180910390fd5b600260048111156128f6576128f5613e85565b5b81600481111561290957612908613e85565b5b03612949576040517f08c379a00000000000000000000000000000000000000000000000000000000081526004016129409061534c565b60405180910390fd5b6003600481111561295d5761295c613e85565b5b8160048111156129705761296f613e85565b5b036129b0576040517f08c379a00000000000000000000000000000000000000000000000000000000081526004016129a7906153de565b60405180910390fd5b5b50565b8273ffffffffffffffffffffffffffffffffffffffff166129d482610bf3565b73ffffffffffffffffffffffffffffffffffffffff1614612a2a576040517f08c379a0000000000000000000000000000000000000000000000000000000008152600401612a2190615470565b60405180910390fd5b600073ffffffffffffffffffffffffffffffffffffffff168273ffffffffffffffffffffffffffffffffffffffff1603612a99576040517f08c379a0000000000000000000000000000000000000000000000000000000008152600401612a9090615502565b60405180910390fd5b612aa683838360016126c5565b8273ffffffffffffffffffffffffffffffffffffffff16612ac682610bf3565b73ffffffffffffffffffffffffffffffffffffffff1614612b1c576040517f08c379a0000000000000000000000000000000000000000000000000000000008152600401612b1390615470565b60405180910390fd5b6004600082815260200190815260200160002060006101000a81549073ffffffffffffffffffffffffffffffffffffffff02191690556001600360008573ffffffffffffffffffffffffffffffffffffffff1673ffffffffffffffffffffffffffffffffffffffff168152602001908152602001600020600082825403925050819055506001600360008473ffffffffffffffffffffffffffffffffffffffff1673ffffffffffffffffffffffffffffffffffffffff16815260200190815260200160002060008282540192505081905550816002600083815260200190815260200160002060006101000a81548173ffffffffffffffffffffffffffffffffffffffff021916908373ffffffffffffffffffffffffffffffffffffffff160217905550808273ffffffffffffffffffffffffffffffffffffffff168473ffffffffffffffffffffffffffffffffffffffff167fddf252ad1be2c89b69c2b068fc378daa952ba7f163c4a11628f55a4df523b3ef60405160405180910390a4612ca883838360016127eb565b505050565b6000612cce8473ffffffffffffffffffffffffffffffffffffffff1661317d565b15612e27578373ffffffffffffffffffffffffffffffffffffffff1663150b7a02612cf76115a9565b8786866040518563ffffffff1660e01b8152600401612d199493929190615522565b6020604051808303816000875af1925050508015612d5557506040513d601f19601f82011682018060405250810190612d529190615583565b60015b612dd7573d8060008114612d85576040519150601f19603f3d011682016040523d82523d6000602084013e612d8a565b606091505b506000815103612dcf576040517f08c379a0000000000000000000000000000000000000000000000000000000008152600401612dc6906150d7565b60405180910390fd5b805181602001fd5b63150b7a0260e01b7bffffffffffffffffffffffffffffffffffffffffffffffffffffffff1916817bffffffffffffffffffffffffffffffffffffffffffffffffffffffff191614915050612e2c565b600190505b949350505050565b60008282604051602001612e4992919061561d565b60405160208183030381529060405280519060200120905092915050565b6000807f7fffffffffffffffffffffffffffffff5d576e7357a4501ddfe92f46681b20a08360001c1115612ea2576000600391509150612f40565b600060018787878760405160008152602001604052604051612ec79493929190615663565b6020604051602081039080840390855afa158015612ee9573d6000803e3d6000fd5b505050602060405103519050600073ffffffffffffffffffffffffffffffffffffffff168173ffffffffffffffffffffffffffffffffffffffff1603612f3757600060019250925050612f40565b80600092509250505b94509492505050565b606060405180602001604052806000815250905090565b6060612f6b8261155e565b6000612f75612f49565b90506000815111612f955760405180602001604052806000815250612fc0565b80612f9f846131a0565b604051602001612fb0929190615133565b6040516020818303038152906040525b915050919050565b600080600090506000608084901c1115612fea57608083901c92506080810190505b6000604084901c111561300557604083901c92506040810190505b6000602084901c111561302057602083901c92506020810190505b6000601084901c111561303b57601083901c92506010810190505b6000600884901c111561305657600883901c92506008810190505b6000600484901c111561307157600483901c92506004810190505b6000600284901c111561308c57600283901c92506002810190505b6000600184901c11156130a0576001810190505b80915050919050565b60008183106130b857816130ba565b825b905092915050565b600060028284186130d391906156a8565b8284166130e09190614b5a565b905092915050565b600081836130f69190614b26565b905092915050565b60008061313e8561313961311188611ddb565b7bffffffffffffffffffffffffffffffffffffffffffffffffffffffff16868863ffffffff16565b61326e565b91509150935093915050565b600081836131589190614b5a565b905092915050565b61316b8484836132dc565b6131778484848461339a565b50505050565b6000808273ffffffffffffffffffffffffffffffffffffffff163b119050919050565b6060600060016131af846133a0565b01905060008167ffffffffffffffff8111156131ce576131cd613c54565b5b6040519080825280601f01601f1916602001820160405280156132005781602001600182028036833780820191505090505b509050600082602001820190505b600115613263578080600190039150507f3031323334353637383961626364656600000000000000000000000000000000600a86061a8153600a85816132575761325661523c565b5b0494506000850361320e575b819350505050919050565b60008061328f84600001613281436122d2565b61328a866134f3565b61355e565b817bffffffffffffffffffffffffffffffffffffffffffffffffffffffff169150807bffffffffffffffffffffffffffffffffffffffffffffffffffffffff169050915091509250929050565b600073ffffffffffffffffffffffffffffffffffffffff168373ffffffffffffffffffffffffffffffffffffffff160361332b5761332861314a8260096130fe9092919063ffffffff16565b50505b600073ffffffffffffffffffffffffffffffffffffffff168273ffffffffffffffffffffffffffffffffffffffff160361337a576133776130e88260096130fe9092919063ffffffff16565b50505b61339561338684610b70565b61338f84610b70565b836124b8565b505050565b50505050565b600080600090507a184f03e93ff9f4daa797ed6e38ed64bf6a1f01000000000000000083106133fe577a184f03e93ff9f4daa797ed6e38ed64bf6a1f01000000000000000083816133f4576133f361523c565b5b0492506040810190505b6d04ee2d6d415b85acef8100000000831061343b576d04ee2d6d415b85acef810000000083816134315761343061523c565b5b0492506020810190505b662386f26fc10000831061346a57662386f26fc1000083816134605761345f61523c565b5b0492506010810190505b6305f5e1008310613493576305f5e10083816134895761348861523c565b5b0492506008810190505b61271083106134b85761271083816134ae576134ad61523c565b5b0492506004810190505b606483106134db57606483816134d1576134d061523c565b5b0492506002810190505b600a83106134ea576001810190505b80915050919050565b60007bffffffffffffffffffffffffffffffffffffffffffffffffffffffff8016821115613556576040517f08c379a000000000000000000000000000000000000000000000000000000000815260040161354d9061574b565b60405180910390fd5b819050919050565b60008060008580549050905060008111156137f457600061358b876001846135869190614b26565b61241e565b6040518060400160405290816000820160009054906101000a900463ffffffff1663ffffffff1663ffffffff1681526020016000820160049054906101000a90047bffffffffffffffffffffffffffffffffffffffffffffffffffffffff167bffffffffffffffffffffffffffffffffffffffffffffffffffffffff167bffffffffffffffffffffffffffffffffffffffffffffffffffffffff168152505090508563ffffffff16816000015163ffffffff16111561367f576040517f08c379a0000000000000000000000000000000000000000000000000000000008152600401613676906157b7565b60405180910390fd5b8563ffffffff16816000015163ffffffff160361370357846136ad886001856136a89190614b26565b61241e565b60000160046101000a8154817bffffffffffffffffffffffffffffffffffffffffffffffffffffffff02191690837bffffffffffffffffffffffffffffffffffffffffffffffffffffffff1602179055506137e3565b8660405180604001604052808863ffffffff168152602001877bffffffffffffffffffffffffffffffffffffffffffffffffffffffff168152509080600181540180825580915050600190039060005260206000200160009091909190915060008201518160000160006101000a81548163ffffffff021916908363ffffffff16021790555060208201518160000160046101000a8154817bffffffffffffffffffffffffffffffffffffffffffffffffffffffff02191690837bffffffffffffffffffffffffffffffffffffffffffffffffffffffff16021790555050505b8060200151859350935050506138dc565b8560405180604001604052808763ffffffff168152602001867bffffffffffffffffffffffffffffffffffffffffffffffffffffffff168152509080600181540180825580915050600190039060005260206000200160009091909190915060008201518160000160006101000a81548163ffffffff021916908363ffffffff16021790555060208201518160000160046101000a8154817bffffffffffffffffffffffffffffffffffffffffffffffffffffffff02191690837bffffffffffffffffffffffffffffffffffffffffffffffffffffffff160217905550505060008492509250505b935093915050565b604051806060016040528060608152602001600081526020016000600381111561391157613910613e85565b5b81525090565b6000604051905090565b600080fd5b600080fd5b60007fffffffff0000000000000000000000000000000000000000000000000000000082169050919050565b6139608161392b565b811461396b57600080fd5b50565b60008135905061397d81613957565b92915050565b60006020828403121561399957613998613921565b5b60006139a78482850161396e565b91505092915050565b60008115159050919050565b6139c5816139b0565b82525050565b60006020820190506139e060008301846139bc565b92915050565b600081519050919050565b600082825260208201905092915050565b60005b83811015613a20578082015181840152602081019050613a05565b60008484015250505050565b6000601f19601f8301169050919050565b6000613a48826139e6565b613a5281856139f1565b9350613a62818560208601613a02565b613a6b81613a2c565b840191505092915050565b60006020820190508181036000830152613a908184613a3d565b905092915050565b6000819050919050565b613aab81613a98565b8114613ab657600080fd5b50565b600081359050613ac881613aa2565b92915050565b600060208284031215613ae457613ae3613921565b5b6000613af284828501613ab9565b91505092915050565b600073ffffffffffffffffffffffffffffffffffffffff82169050919050565b6000613b2682613afb565b9050919050565b613b3681613b1b565b82525050565b6000602082019050613b516000830184613b2d565b92915050565b613b6081613b1b565b8114613b6b57600080fd5b50565b600081359050613b7d81613b57565b92915050565b60008060408385031215613b9a57613b99613921565b5b6000613ba885828601613b6e565b9250506020613bb985828601613ab9565b9150509250929050565b600080600060608486031215613bdc57613bdb613921565b5b6000613bea86828701613b6e565b9350506020613bfb86828701613b6e565b9250506040613c0c86828701613ab9565b9150509250925092565b6000819050919050565b613c2981613c16565b82525050565b6000602082019050613c446000830184613c20565b92915050565b600080fd5b600080fd5b7f4e487b7100000000000000000000000000000000000000000000000000000000600052604160045260246000fd5b613c8c82613a2c565b810181811067ffffffffffffffff82111715613cab57613caa613c54565b5b80604052505050565b6000613cbe613917565b9050613cca8282613c83565b919050565b600067ffffffffffffffff821115613cea57613ce9613c54565b5b613cf382613a2c565b9050602081019050919050565b82818337600083830152505050565b6000613d22613d1d84613ccf565b613cb4565b905082815260208101848484011115613d3e57613d3d613c4f565b5b613d49848285613d00565b509392505050565b600082601f830112613d6657613d65613c4a565b5b8135613d76848260208601613d0f565b91505092915050565b60008060408385031215613d9657613d95613921565b5b600083013567ffffffffffffffff811115613db457613db3613926565b5b613dc085828601613d51565b925050602083013567ffffffffffffffff811115613de157613de0613926565b5b613ded85828601613d51565b9150509250929050565b613e0081613a98565b82525050565b6000602082019050613e1b6000830184613df7565b92915050565b600081519050919050565b600082825260208201905092915050565b6000613e4882613e21565b613e528185613e2c565b9350613e62818560208601613a02565b613e6b81613a2c565b840191505092915050565b613e7f81613a98565b82525050565b7f4e487b7100000000000000000000000000000000000000000000000000000000600052602160045260246000fd5b60048110613ec557613ec4613e85565b5b50565b6000819050613ed682613eb4565b919050565b6000613ee682613ec8565b9050919050565b613ef681613edb565b82525050565b60006060830160008301518482036000860152613f198282613e3d565b9150506020830151613f2e6020860182613e76565b506040830151613f416040860182613eed565b508091505092915050565b60006020820190508181036000830152613f668184613efc565b905092915050565b600060208284031215613f8457613f83613921565b5b6000613f9284828501613b6e565b91505092915050565b600080fd5b600060808284031215613fb657613fb5613f9b565b5b81905092915050565b600060208284031215613fd557613fd4613921565b5b600082013567ffffffffffffffff811115613ff357613ff2613926565b5b613fff84828501613fa0565b91505092915050565b614011816139b0565b811461401c57600080fd5b50565b60008135905061402e81614008565b92915050565b6000806040838503121561404b5761404a613921565b5b600061405985828601613b6e565b925050602061406a8582860161401f565b9150509250929050565b6000806000806080858703121561408e5761408d613921565b5b600061409c87828801613b6e565b94505060206140ad87828801613b6e565b93505060406140be87828801613ab9565b925050606085013567ffffffffffffffff8111156140df576140de613926565b5b6140eb87828801613d51565b91505092959194509250565b600060ff82169050919050565b61410d816140f7565b811461411857600080fd5b50565b60008135905061412a81614104565b92915050565b61413981613c16565b811461414457600080fd5b50565b60008135905061415681614130565b92915050565b60008060008060008060c0878903121561417957614178613921565b5b600061418789828a01613b6e565b965050602061419889828a01613ab9565b95505060406141a989828a01613ab9565b94505060606141ba89828a0161411b565b93505060806141cb89828a01614147565b92505060a06141dc89828a01614147565b9150509295509295509295565b60008060408385031215614200576141ff613921565b5b600061420e85828601613b6e565b925050602061421f85828601613b6e565b9150509250929050565b7f4e487b7100000000000000000000000000000000000000000000000000000000600052602260045260246000fd5b6000600282049050600182168061427057607f821691505b60208210810361428357614282614229565b5b50919050565b7f4552433732313a20617070726f76616c20746f2063757272656e74206f776e6560008201527f7200000000000000000000000000000000000000000000000000000000000000602082015250565b60006142e56021836139f1565b91506142f082614289565b604082019050919050565b60006020820190508181036000830152614314816142d8565b9050919050565b7f4552433732313a20617070726f76652063616c6c6572206973206e6f7420746f60008201527f6b656e206f776e6572206f7220617070726f76656420666f7220616c6c000000602082015250565b6000614377603d836139f1565b91506143828261431b565b604082019050919050565b600060208201905081810360008301526143a68161436a565b9050919050565b60006040820190506143c26000830185613df7565b6143cf6020830184613b2d565b9392505050565b600082825260208201905092915050565b60006143f282613e21565b6143fc81856143d6565b935061440c818560208601613a02565b61441581613a2c565b840191505092915050565b6000604082019050818103600083015261443a81856143e7565b90506144496020830184613b2d565b9392505050565b60006060820190506144656000830186613b2d565b818103602083015261447781856143e7565b9050818103604083015261448b81846143e7565b9050949350505050565b600080fd5b600080fd5b60006144b26144ad84613ccf565b613cb4565b9050828152602081018484840111156144ce576144cd613c4f565b5b6144d9848285613a02565b509392505050565b600082601f8301126144f6576144f5613c4a565b5b815161450684826020860161449f565b91505092915050565b60008151905061451e81613aa2565b92915050565b6004811061453157600080fd5b50565b60008151905061454381614524565b92915050565b60006060828403121561455f5761455e614495565b5b6145696060613cb4565b9050600082015167ffffffffffffffff8111156145895761458861449a565b5b614595848285016144e1565b60008301525060206145a98482850161450f565b60208301525060406145bd84828501614534565b60408301525092915050565b6000602082840312156145df576145de613921565b5b600082015167ffffffffffffffff8111156145fd576145fc613926565b5b61460984828501614549565b91505092915050565b7f4552433732313a20696e76616c696420746f6b656e2049440000000000000000600082015250565b60006146486018836139f1565b915061465382614612565b602082019050919050565b600060208201905081810360008301526146778161463b565b9050919050565b600080fd5b600080fd5b600080fd5b600080833560016020038436030381126146aa576146a961467e565b5b80840192508235915067ffffffffffffffff8211156146cc576146cb614683565b5b6020830192506001820236038313156146e8576146e7614688565b5b509250929050565b600081905092915050565b600061470682613e21565b61471081856146f0565b9350614720818560208601613a02565b80840191505092915050565b600061473882846146fb565b915081905092915050565b61474c81613edb565b82525050565b60006040820190506147676000830185613b2d565b6147746020830184614743565b9392505050565b7f4552433732313a2061646472657373207a65726f206973206e6f74206120766160008201527f6c6964206f776e65720000000000000000000000000000000000000000000000602082015250565b60006147d76029836139f1565b91506147e28261477b565b604082019050919050565b60006020820190508181036000830152614806816147ca565b9050919050565b6000808335600160200384360303811261482a5761482961467e565b5b80840192508235915067ffffffffffffffff82111561484c5761484b614683565b5b60208301925060018202360383131561486857614867614688565b5b509250929050565b7f566f7465733a20626c6f636b206e6f7420796574206d696e6564000000000000600082015250565b60006148a6601a836139f1565b91506148b182614870565b602082019050919050565b600060208201905081810360008301526148d581614899565b9050919050565b7f4552433732313a2063616c6c6572206973206e6f7420746f6b656e206f776e6560008201527f72206f7220617070726f76656400000000000000000000000000000000000000602082015250565b6000614938602d836139f1565b9150614943826148dc565b604082019050919050565b600060208201905081810360008301526149678161492b565b9050919050565b7f566f7465733a207369676e617475726520657870697265640000000000000000600082015250565b60006149a46018836139f1565b91506149af8261496e565b602082019050919050565b600060208201905081810360008301526149d381614997565b9050919050565b60006080820190506149ef6000830187613c20565b6149fc6020830186613b2d565b614a096040830185613df7565b614a166060830184613df7565b95945050505050565b7f566f7465733a20696e76616c6964206e6f6e6365000000000000000000000000600082015250565b6000614a556014836139f1565b9150614a6082614a1f565b602082019050919050565b60006020820190508181036000830152614a8481614a48565b9050919050565b7f436865636b706f696e74733a20626c6f636b206e6f7420796574206d696e6564600082015250565b6000614ac16020836139f1565b9150614acc82614a8b565b602082019050919050565b60006020820190508181036000830152614af081614ab4565b9050919050565b7f4e487b7100000000000000000000000000000000000000000000000000000000600052601160045260246000fd5b6000614b3182613a98565b9150614b3c83613a98565b9250828203905081811115614b5457614b53614af7565b5b92915050565b6000614b6582613a98565b9150614b7083613a98565b9250828201905080821115614b8857614b87614af7565b5b92915050565b7f4552433732313a206d696e7420746f20746865207a65726f2061646472657373600082015250565b6000614bc46020836139f1565b9150614bcf82614b8e565b602082019050919050565b60006020820190508181036000830152614bf381614bb7565b9050919050565b7f4552433732313a20746f6b656e20616c7265616479206d696e74656400000000600082015250565b6000614c30601c836139f1565b9150614c3b82614bfa565b602082019050919050565b60006020820190508181036000830152614c5f81614c23565b9050919050565b7f45524337323155524953746f726167653a2055524920736574206f66206e6f6e60008201527f6578697374656e7420746f6b656e000000000000000000000000000000000000602082015250565b6000614cc2602e836139f1565b9150614ccd82614c66565b604082019050919050565b60006020820190508181036000830152614cf181614cb5565b9050919050565b60008190508160005260206000209050919050565b60006020601f8301049050919050565b600082821b905092915050565b600060088302614d5a7fffffffffffffffffffffffffffffffffffffffffffffffffffffffffffffffff82614d1d565b614d648683614d1d565b95508019841693508086168417925050509392505050565b6000819050919050565b6000614da1614d9c614d9784613a98565b614d7c565b613a98565b9050919050565b6000819050919050565b614dbb83614d86565b614dcf614dc782614da8565b848454614d2a565b825550505050565b600090565b614de4614dd7565b614def818484614db2565b505050565b5b81811015614e1357614e08600082614ddc565b600181019050614df5565b5050565b601f821115614e5857614e2981614cf8565b614e3284614d0d565b81016020851015614e41578190505b614e55614e4d85614d0d565b830182614df4565b50505b505050565b600082821c905092915050565b6000614e7b60001984600802614e5d565b1980831691505092915050565b6000614e948383614e6a565b9150826002028217905092915050565b614ead826139e6565b67ffffffffffffffff811115614ec657614ec5613c54565b5b614ed08254614258565b614edb828285614e17565b600060209050601f831160018114614f0e5760008415614efc578287015190505b614f068582614e88565b865550614f6e565b601f198416614f1c86614cf8565b60005b82811015614f4457848901518255600182019150602085019450602081019050614f1f565b86831015614f615784890151614f5d601f891682614e6a565b8355505b6001600288020188555050505b505050505050565b6000614f8283856146f0565b9350614f8f838584613d00565b82840190509392505050565b6000614fa8828486614f76565b91508190509392505050565b6000608082019050614fc96000830187613c20565b614fd66020830186613c20565b614fe36040830185613c20565b614ff06060830184613c20565b95945050505050565b7f4552433732313a20617070726f766520746f2063616c6c657200000000000000600082015250565b600061502f6019836139f1565b915061503a82614ff9565b602082019050919050565b6000602082019050818103600083015261505e81615022565b9050919050565b7f4552433732313a207472616e7366657220746f206e6f6e20455243373231526560008201527f63656976657220696d706c656d656e7465720000000000000000000000000000602082015250565b60006150c16032836139f1565b91506150cc82615065565b604082019050919050565b600060208201905081810360008301526150f0816150b4565b9050919050565b600081905092915050565b600061510d826139e6565b61511781856150f7565b9350615127818560208601613a02565b80840191505092915050565b600061513f8285615102565b915061514b8284615102565b91508190509392505050565b600060a08201905061516c6000830188613c20565b6151796020830187613c20565b6151866040830186613c20565b6151936060830185613df7565b6151a06080830184613b2d565b9695505050505050565b7f53616665436173743a2076616c756520646f65736e27742066697420696e203360008201527f3220626974730000000000000000000000000000000000000000000000000000602082015250565b60006152066026836139f1565b9150615211826151aa565b604082019050919050565b60006020820190508181036000830152615235816151f9565b9050919050565b7f4e487b7100000000000000000000000000000000000000000000000000000000600052601260045260246000fd5b60006040820190506152806000830185613df7565b61528d6020830184613df7565b9392505050565b7f45434453413a20696e76616c6964207369676e61747572650000000000000000600082015250565b60006152ca6018836139f1565b91506152d582615294565b602082019050919050565b600060208201905081810360008301526152f9816152bd565b9050919050565b7f45434453413a20696e76616c6964207369676e6174757265206c656e67746800600082015250565b6000615336601f836139f1565b915061534182615300565b602082019050919050565b6000602082019050818103600083015261536581615329565b9050919050565b7f45434453413a20696e76616c6964207369676e6174757265202773272076616c60008201527f7565000000000000000000000000000000000000000000000000000000000000602082015250565b60006153c86022836139f1565b91506153d38261536c565b604082019050919050565b600060208201905081810360008301526153f7816153bb565b9050919050565b7f4552433732313a207472616e736665722066726f6d20696e636f72726563742060008201527f6f776e6572000000000000000000000000000000000000000000000000000000602082015250565b600061545a6025836139f1565b9150615465826153fe565b604082019050919050565b600060208201905081810360008301526154898161544d565b9050919050565b7f4552433732313a207472616e7366657220746f20746865207a65726f2061646460008201527f7265737300000000000000000000000000000000000000000000000000000000602082015250565b60006154ec6024836139f1565b91506154f782615490565b604082019050919050565b6000602082019050818103600083015261551b816154df565b9050919050565b60006080820190506155376000830187613b2d565b6155446020830186613b2d565b6155516040830185613df7565b818103606083015261556381846143e7565b905095945050505050565b60008151905061557d81613957565b92915050565b60006020828403121561559957615598613921565b5b60006155a78482850161556e565b91505092915050565b7f1901000000000000000000000000000000000000000000000000000000000000600082015250565b60006155e66002836150f7565b91506155f1826155b0565b600282019050919050565b6000819050919050565b61561761561282613c16565b6155fc565b82525050565b6000615628826155d9565b91506156348285615606565b6020820191506156448284615606565b6020820191508190509392505050565b61565d816140f7565b82525050565b60006080820190506156786000830187613c20565b6156856020830186615654565b6156926040830185613c20565b61569f6060830184613c20565b95945050505050565b60006156b382613a98565b91506156be83613a98565b9250826156ce576156cd61523c565b5b828204905092915050565b7f53616665436173743a2076616c756520646f65736e27742066697420696e203260008201527f3234206269747300000000000000000000000000000000000000000000000000602082015250565b60006157356027836139f1565b9150615740826156d9565b604082019050919050565b6000602082019050818103600083015261576481615728565b9050919050565b7f436865636b706f696e743a20696e76616c6964206b6579000000000000000000600082015250565b60006157a16017836139f1565b91506157ac8261576b565b602082019050919050565b600060208201905081810360008301526157d081615794565b905091905056fea2646970667358221220d57f2ef046e99aa374e265a2ab386c073ae8703a149587148b30b6b75bd81e6564736f6c63430008110033",
  "devdoc": {
    "kind": "dev",
    "methods": {
      "DOMAIN_SEPARATOR()": {
        "details": "Returns the contract's {EIP712} domain separator."
      },
      "approve(address,uint256)": {
        "details": "See {IERC721-approve}."
      },
      "balanceOf(address)": {
        "details": "See {IERC721-balanceOf}."
      },
      "delegate(address)": {
        "details": "Delegates votes from the sender to `delegatee`."
      },
      "delegateBySig(address,uint256,uint256,uint8,bytes32,bytes32)": {
        "details": "Delegates votes from signer to `delegatee`."
      },
      "delegates(address)": {
        "details": "Returns the delegate that `account` has chosen."
      },
      "getApproved(uint256)": {
        "details": "See {IERC721-getApproved}."
      },
      "getPastTotalSupply(uint256)": {
        "details": "Returns the total supply of votes available at the end of a past block (`blockNumber`). NOTE: This value is the sum of all available votes, which is not necessarily the sum of all delegated votes. Votes that have not been delegated are still part of total supply, even though they would not participate in a vote. Requirements: - `blockNumber` must have been already mined"
      },
      "getPastVotes(address,uint256)": {
        "details": "Returns the amount of votes that `account` had at the end of a past block (`blockNumber`). Requirements: - `blockNumber` must have been already mined"
      },
      "getVotes(address)": {
        "details": "Returns the current amount of votes that `account` has."
      },
      "isApprovedForAll(address,address)": {
        "details": "See {IERC721-isApprovedForAll}."
      },
      "name()": {
        "details": "See {IERC721Metadata-name}."
      },
      "nonces(address)": {
        "details": "Returns an address nonce."
      },
      "ownerOf(uint256)": {
        "details": "See {IERC721-ownerOf}."
      },
      "safeTransferFrom(address,address,uint256)": {
        "details": "See {IERC721-safeTransferFrom}."
      },
      "safeTransferFrom(address,address,uint256,bytes)": {
        "details": "See {IERC721-safeTransferFrom}."
      },
      "setApprovalForAll(address,bool)": {
        "details": "See {IERC721-setApprovalForAll}."
      },
      "supportsInterface(bytes4)": {
        "details": "See {IERC165-supportsInterface}."
      },
      "symbol()": {
        "details": "See {IERC721Metadata-symbol}."
      },
      "verifySignature((string,bytes,bytes,bytes))": {
        "details": "Will revert if the signature is invalid. Does not verify that the signer is authorized to mint NFTs.",
        "params": {
          "voucher": "An NFTVoucher describing an unminted NFT."
        }
      }
    },
    "version": 1
  },
  "userdoc": {
    "kind": "user",
    "methods": {
      "redeem((string,bytes,bytes,bytes))": {
        "notice": "Redeems an NFTVoucher for an actual NFT, creating it in the process."
      },
      "verifySignature((string,bytes,bytes,bytes))": {
        "notice": "Verifies the signature for a given NFTVoucher, returning the address of the signer."
      }
    },
    "version": 1
  },
  "storageLayout": {
    "storage": [
      {
        "astId": 3487,
        "contract": "contracts/core/UserIdentityNFT.sol:UserIdentityNFT",
        "label": "_name",
        "offset": 0,
        "slot": "0",
        "type": "t_string_storage"
      },
      {
        "astId": 3489,
        "contract": "contracts/core/UserIdentityNFT.sol:UserIdentityNFT",
        "label": "_symbol",
        "offset": 0,
        "slot": "1",
        "type": "t_string_storage"
      },
      {
        "astId": 3493,
        "contract": "contracts/core/UserIdentityNFT.sol:UserIdentityNFT",
        "label": "_owners",
        "offset": 0,
        "slot": "2",
        "type": "t_mapping(t_uint256,t_address)"
      },
      {
        "astId": 3497,
        "contract": "contracts/core/UserIdentityNFT.sol:UserIdentityNFT",
        "label": "_balances",
        "offset": 0,
        "slot": "3",
        "type": "t_mapping(t_address,t_uint256)"
      },
      {
        "astId": 3501,
        "contract": "contracts/core/UserIdentityNFT.sol:UserIdentityNFT",
        "label": "_tokenApprovals",
        "offset": 0,
        "slot": "4",
        "type": "t_mapping(t_uint256,t_address)"
      },
      {
        "astId": 3507,
        "contract": "contracts/core/UserIdentityNFT.sol:UserIdentityNFT",
        "label": "_operatorApprovals",
        "offset": 0,
        "slot": "5",
        "type": "t_mapping(t_address,t_mapping(t_address,t_bool))"
      },
      {
        "astId": 4553,
        "contract": "contracts/core/UserIdentityNFT.sol:UserIdentityNFT",
        "label": "_tokenURIs",
        "offset": 0,
        "slot": "6",
        "type": "t_mapping(t_uint256,t_string_storage)"
      },
      {
        "astId": 2984,
        "contract": "contracts/core/UserIdentityNFT.sol:UserIdentityNFT",
        "label": "_delegation",
        "offset": 0,
        "slot": "7",
        "type": "t_mapping(t_address,t_address)"
      },
      {
        "astId": 2989,
        "contract": "contracts/core/UserIdentityNFT.sol:UserIdentityNFT",
        "label": "_delegateCheckpoints",
        "offset": 0,
        "slot": "8",
        "type": "t_mapping(t_address,t_struct(History)5085_storage)"
      },
      {
        "astId": 2992,
        "contract": "contracts/core/UserIdentityNFT.sol:UserIdentityNFT",
        "label": "_totalCheckpoints",
        "offset": 0,
        "slot": "9",
        "type": "t_struct(History)5085_storage"
      },
      {
        "astId": 2997,
        "contract": "contracts/core/UserIdentityNFT.sol:UserIdentityNFT",
        "label": "_nonces",
        "offset": 0,
        "slot": "10",
        "type": "t_mapping(t_address,t_struct(Counter)6471_storage)"
      },
      {
        "astId": 10287,
        "contract": "contracts/core/UserIdentityNFT.sol:UserIdentityNFT",
        "label": "idCount",
        "offset": 0,
        "slot": "11",
        "type": "t_struct(Counter)6471_storage"
      },
      {
        "astId": 10290,
        "contract": "contracts/core/UserIdentityNFT.sol:UserIdentityNFT",
        "label": "figureprintOracle",
        "offset": 0,
        "slot": "12",
        "type": "t_contract(FigurePrintOracle)10220"
      }
    ],
    "types": {
      "t_address": {
        "encoding": "inplace",
        "label": "address",
        "numberOfBytes": "20"
      },
      "t_array(t_struct(Checkpoint)5090_storage)dyn_storage": {
        "base": "t_struct(Checkpoint)5090_storage",
        "encoding": "dynamic_array",
        "label": "struct Checkpoints.Checkpoint[]",
        "numberOfBytes": "32"
      },
      "t_bool": {
        "encoding": "inplace",
        "label": "bool",
        "numberOfBytes": "1"
      },
      "t_contract(FigurePrintOracle)10220": {
        "encoding": "inplace",
        "label": "contract FigurePrintOracle",
        "numberOfBytes": "20"
      },
      "t_mapping(t_address,t_address)": {
        "encoding": "mapping",
        "key": "t_address",
        "label": "mapping(address => address)",
        "numberOfBytes": "32",
        "value": "t_address"
      },
      "t_mapping(t_address,t_bool)": {
        "encoding": "mapping",
        "key": "t_address",
        "label": "mapping(address => bool)",
        "numberOfBytes": "32",
        "value": "t_bool"
      },
      "t_mapping(t_address,t_mapping(t_address,t_bool))": {
        "encoding": "mapping",
        "key": "t_address",
        "label": "mapping(address => mapping(address => bool))",
        "numberOfBytes": "32",
        "value": "t_mapping(t_address,t_bool)"
      },
      "t_mapping(t_address,t_struct(Counter)6471_storage)": {
        "encoding": "mapping",
        "key": "t_address",
        "label": "mapping(address => struct Counters.Counter)",
        "numberOfBytes": "32",
        "value": "t_struct(Counter)6471_storage"
      },
      "t_mapping(t_address,t_struct(History)5085_storage)": {
        "encoding": "mapping",
        "key": "t_address",
        "label": "mapping(address => struct Checkpoints.History)",
        "numberOfBytes": "32",
        "value": "t_struct(History)5085_storage"
      },
      "t_mapping(t_address,t_uint256)": {
        "encoding": "mapping",
        "key": "t_address",
        "label": "mapping(address => uint256)",
        "numberOfBytes": "32",
        "value": "t_uint256"
      },
      "t_mapping(t_uint256,t_address)": {
        "encoding": "mapping",
        "key": "t_uint256",
        "label": "mapping(uint256 => address)",
        "numberOfBytes": "32",
        "value": "t_address"
      },
      "t_mapping(t_uint256,t_string_storage)": {
        "encoding": "mapping",
        "key": "t_uint256",
        "label": "mapping(uint256 => string)",
        "numberOfBytes": "32",
        "value": "t_string_storage"
      },
      "t_string_storage": {
        "encoding": "bytes",
        "label": "string",
        "numberOfBytes": "32"
      },
      "t_struct(Checkpoint)5090_storage": {
        "encoding": "inplace",
        "label": "struct Checkpoints.Checkpoint",
        "members": [
          {
            "astId": 5087,
            "contract": "contracts/core/UserIdentityNFT.sol:UserIdentityNFT",
            "label": "_blockNumber",
            "offset": 0,
            "slot": "0",
            "type": "t_uint32"
          },
          {
            "astId": 5089,
            "contract": "contracts/core/UserIdentityNFT.sol:UserIdentityNFT",
            "label": "_value",
            "offset": 4,
            "slot": "0",
            "type": "t_uint224"
          }
        ],
        "numberOfBytes": "32"
      },
      "t_struct(Counter)6471_storage": {
        "encoding": "inplace",
        "label": "struct Counters.Counter",
        "members": [
          {
            "astId": 6470,
            "contract": "contracts/core/UserIdentityNFT.sol:UserIdentityNFT",
            "label": "_value",
            "offset": 0,
            "slot": "0",
            "type": "t_uint256"
          }
        ],
        "numberOfBytes": "32"
      },
      "t_struct(History)5085_storage": {
        "encoding": "inplace",
        "label": "struct Checkpoints.History",
        "members": [
          {
            "astId": 5084,
            "contract": "contracts/core/UserIdentityNFT.sol:UserIdentityNFT",
            "label": "_checkpoints",
            "offset": 0,
            "slot": "0",
            "type": "t_array(t_struct(Checkpoint)5090_storage)dyn_storage"
          }
        ],
        "numberOfBytes": "32"
      },
      "t_uint224": {
        "encoding": "inplace",
        "label": "uint224",
        "numberOfBytes": "28"
      },
      "t_uint256": {
        "encoding": "inplace",
        "label": "uint256",
        "numberOfBytes": "32"
      },
      "t_uint32": {
        "encoding": "inplace",
        "label": "uint32",
        "numberOfBytes": "4"
      }
    }
  }
}