{
  "address": "0xe7f1725E7734CE288F8367e1Bb143E90bb3F0512",
  "abi": [
    {
      "inputs": [
        {
          "internalType": "string",
          "name": "name",
          "type": "string"
        },
        {
          "internalType": "string",
          "name": "symbol",
          "type": "string"
        },
        {
          "internalType": "string",
          "name": "signingDomain",
          "type": "string"
        },
        {
          "internalType": "string",
          "name": "signatureVersion",
          "type": "string"
        }
      ],
      "stateMutability": "nonpayable",
      "type": "constructor"
    },
    {
      "inputs": [
        {
          "internalType": "uint256",
          "name": "tokenId",
          "type": "uint256"
        },
        {
          "internalType": "address",
          "name": "from",
          "type": "address"
        }
      ],
      "name": "UserIdentityNFT__DirectMintNotAllow",
      "type": "error"
    },
    {
      "inputs": [],
      "name": "UserIdentityNFT__FirstVerifyIdenetity",
      "type": "error"
    },
    {
      "inputs": [],
      "name": "UserIdentityNFT__NotValidUserToRedeem",
      "type": "error"
    },
    {
      "inputs": [
        {
          "internalType": "uint256",
          "name": "tokenId",
          "type": "uint256"
        },
        {
          "internalType": "address",
          "name": "from",
          "type": "address"
        }
      ],
      "name": "UserIdentityNFT__TransferNoAllowed",
      "type": "error"
    },
    {
      "inputs": [
        {
          "internalType": "address",
          "name": "userAddress",
          "type": "address"
        }
      ],
      "name": "UserIdentityNFT__UserIdAlreadyIssued",
      "type": "error"
    },
    {
      "inputs": [],
      "name": "UserIdentityNFT__VerficationStillFail",
      "type": "error"
    },
    {
      "inputs": [],
      "name": "UserIdentityNFT__VerficationStillPending",
      "type": "error"
    },
    {
      "anonymous": false,
      "inputs": [
        {
          "indexed": true,
          "internalType": "address",
          "name": "owner",
          "type": "address"
        },
        {
          "indexed": true,
          "internalType": "address",
          "name": "approved",
          "type": "address"
        },
        {
          "indexed": true,
          "internalType": "uint256",
          "name": "tokenId",
          "type": "uint256"
        }
      ],
      "name": "Approval",
      "type": "event"
    },
    {
      "anonymous": false,
      "inputs": [
        {
          "indexed": true,
          "internalType": "address",
          "name": "owner",
          "type": "address"
        },
        {
          "indexed": true,
          "internalType": "address",
          "name": "operator",
          "type": "address"
        },
        {
          "indexed": false,
          "internalType": "bool",
          "name": "approved",
          "type": "bool"
        }
      ],
      "name": "ApprovalForAll",
      "type": "event"
    },
    {
      "anonymous": false,
      "inputs": [
        {
          "indexed": true,
          "internalType": "address",
          "name": "delegator",
          "type": "address"
        },
        {
          "indexed": true,
          "internalType": "address",
          "name": "fromDelegate",
          "type": "address"
        },
        {
          "indexed": true,
          "internalType": "address",
          "name": "toDelegate",
          "type": "address"
        }
      ],
      "name": "DelegateChanged",
      "type": "event"
    },
    {
      "anonymous": false,
      "inputs": [
        {
          "indexed": true,
          "internalType": "address",
          "name": "delegate",
          "type": "address"
        },
        {
          "indexed": false,
          "internalType": "uint256",
          "name": "previousBalance",
          "type": "uint256"
        },
        {
          "indexed": false,
          "internalType": "uint256",
          "name": "newBalance",
          "type": "uint256"
        }
      ],
      "name": "DelegateVotesChanged",
      "type": "event"
    },
    {
      "anonymous": false,
      "inputs": [
        {
          "indexed": true,
          "internalType": "bytes",
          "name": "userId",
          "type": "bytes"
        },
        {
          "indexed": false,
          "internalType": "address",
          "name": "userAddres",
          "type": "address"
        }
      ],
      "name": "IdVerifedAndIssued",
      "type": "event"
    },
    {
      "anonymous": false,
      "inputs": [
        {
          "indexed": false,
          "internalType": "address",
          "name": "figureprintOracle",
          "type": "address"
        }
      ],
      "name": "SetFingerPrintAddress",
      "type": "event"
    },
    {
      "anonymous": false,
      "inputs": [
        {
          "indexed": true,
          "internalType": "address",
          "name": "from",
          "type": "address"
        },
        {
          "indexed": true,
          "internalType": "address",
          "name": "to",
          "type": "address"
        },
        {
          "indexed": true,
          "internalType": "uint256",
          "name": "tokenId",
          "type": "uint256"
        }
      ],
      "name": "Transfer",
      "type": "event"
    },
    {
      "inputs": [],
      "name": "CLAME_USERID_VOUCHER",
      "outputs": [
        {
          "internalType": "bytes32",
          "name": "",
          "type": "bytes32"
        }
      ],
      "stateMutability": "view",
      "type": "function"
    },
    {
      "inputs": [],
      "name": "DOMAIN_SEPARATOR",
      "outputs": [
        {
          "internalType": "bytes32",
          "name": "",
          "type": "bytes32"
        }
      ],
      "stateMutability": "view",
      "type": "function"
    },
    {
      "inputs": [
        {
          "internalType": "address",
          "name": "to",
          "type": "address"
        },
        {
          "internalType": "uint256",
          "name": "tokenId",
          "type": "uint256"
        }
      ],
      "name": "approve",
      "outputs": [],
      "stateMutability": "nonpayable",
      "type": "function"
    },
    {
      "inputs": [
        {
          "internalType": "address",
          "name": "owner",
          "type": "address"
        }
      ],
      "name": "balanceOf",
      "outputs": [
        {
          "internalType": "uint256",
          "name": "",
          "type": "uint256"
        }
      ],
      "stateMutability": "view",
      "type": "function"
    },
    {
      "inputs": [],
      "name": "checkBalance",
      "outputs": [],
      "stateMutability": "view",
      "type": "function"
    },
    {
      "inputs": [
        {
          "internalType": "address",
          "name": "delegatee",
          "type": "address"
        }
      ],
      "name": "delegate",
      "outputs": [],
      "stateMutability": "nonpayable",
      "type": "function"
    },
    {
      "inputs": [
        {
          "internalType": "address",
          "name": "delegatee",
          "type": "address"
        },
        {
          "internalType": "uint256",
          "name": "nonce",
          "type": "uint256"
        },
        {
          "internalType": "uint256",
          "name": "expiry",
          "type": "uint256"
        },
        {
          "internalType": "uint8",
          "name": "v",
          "type": "uint8"
        },
        {
          "internalType": "bytes32",
          "name": "r",
          "type": "bytes32"
        },
        {
          "internalType": "bytes32",
          "name": "s",
          "type": "bytes32"
        }
      ],
      "name": "delegateBySig",
      "outputs": [],
      "stateMutability": "nonpayable",
      "type": "function"
    },
    {
      "inputs": [
        {
          "internalType": "address",
          "name": "account",
          "type": "address"
        }
      ],
      "name": "delegates",
      "outputs": [
        {
          "internalType": "address",
          "name": "",
          "type": "address"
        }
      ],
      "stateMutability": "view",
      "type": "function"
    },
    {
      "inputs": [
        {
          "internalType": "uint256",
          "name": "tokenId",
          "type": "uint256"
        }
      ],
      "name": "getApproved",
      "outputs": [
        {
          "internalType": "address",
          "name": "",
          "type": "address"
        }
      ],
      "stateMutability": "view",
      "type": "function"
    },
    {
      "inputs": [],
      "name": "getFingerPrintAddress",
      "outputs": [
        {
          "internalType": "address",
          "name": "",
          "type": "address"
        }
      ],
      "stateMutability": "view",
      "type": "function"
    },
    {
      "inputs": [],
      "name": "getIdCount",
      "outputs": [
        {
          "internalType": "uint256",
          "name": "",
          "type": "uint256"
        }
      ],
      "stateMutability": "view",
      "type": "function"
    },
    {
      "inputs": [
        {
          "internalType": "uint256",
          "name": "blockNumber",
          "type": "uint256"
        }
      ],
      "name": "getPastTotalSupply",
      "outputs": [
        {
          "internalType": "uint256",
          "name": "",
          "type": "uint256"
        }
      ],
      "stateMutability": "view",
      "type": "function"
    },
    {
      "inputs": [
        {
          "internalType": "address",
          "name": "account",
          "type": "address"
        },
        {
          "internalType": "uint256",
          "name": "blockNumber",
          "type": "uint256"
        }
      ],
      "name": "getPastVotes",
      "outputs": [
        {
          "internalType": "uint256",
          "name": "",
          "type": "uint256"
        }
      ],
      "stateMutability": "view",
      "type": "function"
    },
    {
      "inputs": [
        {
          "internalType": "address",
          "name": "account",
          "type": "address"
        }
      ],
      "name": "getVotes",
      "outputs": [
        {
          "internalType": "uint256",
          "name": "",
          "type": "uint256"
        }
      ],
      "stateMutability": "view",
      "type": "function"
    },
    {
      "inputs": [
        {
          "internalType": "address",
          "name": "owner",
          "type": "address"
        },
        {
          "internalType": "address",
          "name": "operator",
          "type": "address"
        }
      ],
      "name": "isApprovedForAll",
      "outputs": [
        {
          "internalType": "bool",
          "name": "",
          "type": "bool"
        }
      ],
      "stateMutability": "view",
      "type": "function"
    },
    {
      "inputs": [],
      "name": "name",
      "outputs": [
        {
          "internalType": "string",
          "name": "",
          "type": "string"
        }
      ],
      "stateMutability": "view",
      "type": "function"
    },
    {
      "inputs": [
        {
          "internalType": "address",
          "name": "owner",
          "type": "address"
        }
      ],
      "name": "nonces",
      "outputs": [
        {
          "internalType": "uint256",
          "name": "",
          "type": "uint256"
        }
      ],
      "stateMutability": "view",
      "type": "function"
    },
    {
      "inputs": [
        {
          "internalType": "uint256",
          "name": "tokenId",
          "type": "uint256"
        }
      ],
      "name": "ownerOf",
      "outputs": [
        {
          "internalType": "address",
          "name": "",
          "type": "address"
        }
      ],
      "stateMutability": "view",
      "type": "function"
    },
    {
      "inputs": [
        {
          "components": [
            {
              "internalType": "string",
              "name": "uri",
              "type": "string"
            },
            {
              "internalType": "bytes",
              "name": "userId",
              "type": "bytes"
            },
            {
              "internalType": "bytes",
              "name": "fingerPrint",
              "type": "bytes"
            },
            {
              "internalType": "bytes",
              "name": "signature",
              "type": "bytes"
            }
          ],
          "internalType": "struct UserIdVoucher",
          "name": "voucher",
          "type": "tuple"
        }
      ],
      "name": "redeem",
      "outputs": [],
      "stateMutability": "nonpayable",
      "type": "function"
    },
    {
      "inputs": [
        {
          "internalType": "address",
          "name": "from",
          "type": "address"
        },
        {
          "internalType": "address",
          "name": "to",
          "type": "address"
        },
        {
          "internalType": "uint256",
          "name": "tokenId",
          "type": "uint256"
        }
      ],
      "name": "safeTransferFrom",
      "outputs": [],
      "stateMutability": "nonpayable",
      "type": "function"
    },
    {
      "inputs": [
        {
          "internalType": "address",
          "name": "from",
          "type": "address"
        },
        {
          "internalType": "address",
          "name": "to",
          "type": "address"
        },
        {
          "internalType": "uint256",
          "name": "tokenId",
          "type": "uint256"
        },
        {
          "internalType": "bytes",
          "name": "data",
          "type": "bytes"
        }
      ],
      "name": "safeTransferFrom",
      "outputs": [],
      "stateMutability": "nonpayable",
      "type": "function"
    },
    {
      "inputs": [
        {
          "internalType": "address",
          "name": "operator",
          "type": "address"
        },
        {
          "internalType": "bool",
          "name": "approved",
          "type": "bool"
        }
      ],
      "name": "setApprovalForAll",
      "outputs": [],
      "stateMutability": "nonpayable",
      "type": "function"
    },
    {
      "inputs": [
        {
          "internalType": "address",
          "name": "_fingerPrintAddress",
          "type": "address"
        }
      ],
      "name": "setFingerPrintAddress",
      "outputs": [],
      "stateMutability": "nonpayable",
      "type": "function"
    },
    {
      "inputs": [
        {
          "internalType": "bytes4",
          "name": "interfaceId",
          "type": "bytes4"
        }
      ],
      "name": "supportsInterface",
      "outputs": [
        {
          "internalType": "bool",
          "name": "",
          "type": "bool"
        }
      ],
      "stateMutability": "view",
      "type": "function"
    },
    {
      "inputs": [],
      "name": "symbol",
      "outputs": [
        {
          "internalType": "string",
          "name": "",
          "type": "string"
        }
      ],
      "stateMutability": "view",
      "type": "function"
    },
    {
      "inputs": [
        {
          "internalType": "uint256",
          "name": "tokenId",
          "type": "uint256"
        }
      ],
      "name": "tokenURI",
      "outputs": [
        {
          "internalType": "string",
          "name": "",
          "type": "string"
        }
      ],
      "stateMutability": "view",
      "type": "function"
    },
    {
      "inputs": [
        {
          "internalType": "address",
          "name": "from",
          "type": "address"
        },
        {
          "internalType": "address",
          "name": "",
          "type": "address"
        },
        {
          "internalType": "uint256",
          "name": "tokenId",
          "type": "uint256"
        }
      ],
      "name": "transferFrom",
      "outputs": [],
      "stateMutability": "nonpayable",
      "type": "function"
    },
    {
      "inputs": [],
      "name": "userdata",
      "outputs": [
        {
          "internalType": "bytes",
          "name": "userId",
          "type": "bytes"
        },
        {
          "internalType": "uint256",
          "name": "numberTries",
          "type": "uint256"
        },
        {
          "internalType": "enum VerficationStatus",
          "name": "status",
          "type": "uint8"
        }
      ],
      "stateMutability": "view",
      "type": "function"
    },
    {
      "inputs": [
        {
          "internalType": "bytes",
          "name": "userId",
          "type": "bytes"
        },
        {
          "internalType": "bytes",
          "name": "fingerPrint",
          "type": "bytes"
        }
      ],
      "name": "verifyFingerPrint",
      "outputs": [],
      "stateMutability": "nonpayable",
      "type": "function"
    }
  ],
  "transactionHash": "0xcbdefc869a0c745d860162bbca9c5c24df0b925da1d8ab7c9e2eea9192e24446",
  "args": [
    "User-Identity",
    "786",
    "User-Identity",
    "1"
  ],
  "numDeployments": 1,
  "solcInputHash": "51a62c80ce2384b18a7e29a7b2fb9873",
  "bytecode": "0x6101406040523480156200001257600080fd5b5060405162005e5838038062005e588339818101604052810190620000389190620003d7565b8181858581600090816200004d919062000710565b5080600190816200005f919062000710565b505050600160078190555060008280519060200120905060008280519060200120905060007f8b73c3c69bb8fe3d512ecc4cf759cc79239f7b179b0ffacaa9a75d522b39400f90508260e081815250508161010081815250504660a08181525050620000d38184846200020860201b60201c565b608081815250503073ffffffffffffffffffffffffffffffffffffffff1660c08173ffffffffffffffffffffffffffffffffffffffff1681525050806101208181525050505050505060008067ffffffffffffffff8111156200013b576200013a62000273565b5b6040519080825280601f01601f1916602001820160405280156200016e5781602001600182028036833780820191505090505b50905060405180606001604052808281526020016000815260200160016003811115620001a0576200019f620007f7565b5b815250600e6000820151816000019081620001bc919062000896565b506020820151816001015560408201518160020160006101000a81548160ff02191690836003811115620001f557620001f4620007f7565b5b0217905550905050505050505062000a4b565b6000838383463060405160200162000225959493929190620009ee565b6040516020818303038152906040528051906020012090509392505050565b6000604051905090565b600080fd5b600080fd5b600080fd5b600080fd5b6000601f19601f8301169050919050565b7f4e487b7100000000000000000000000000000000000000000000000000000000600052604160045260246000fd5b620002ad8262000262565b810181811067ffffffffffffffff82111715620002cf57620002ce62000273565b5b80604052505050565b6000620002e462000244565b9050620002f28282620002a2565b919050565b600067ffffffffffffffff82111562000315576200031462000273565b5b620003208262000262565b9050602081019050919050565b60005b838110156200034d57808201518184015260208101905062000330565b60008484015250505050565b6000620003706200036a84620002f7565b620002d8565b9050828152602081018484840111156200038f576200038e6200025d565b5b6200039c8482856200032d565b509392505050565b600082601f830112620003bc57620003bb62000258565b5b8151620003ce84826020860162000359565b91505092915050565b60008060008060808587031215620003f457620003f36200024e565b5b600085015167ffffffffffffffff81111562000415576200041462000253565b5b6200042387828801620003a4565b945050602085015167ffffffffffffffff81111562000447576200044662000253565b5b6200045587828801620003a4565b935050604085015167ffffffffffffffff81111562000479576200047862000253565b5b6200048787828801620003a4565b925050606085015167ffffffffffffffff811115620004ab57620004aa62000253565b5b620004b987828801620003a4565b91505092959194509250565b600081519050919050565b7f4e487b7100000000000000000000000000000000000000000000000000000000600052602260045260246000fd5b600060028204905060018216806200051857607f821691505b6020821081036200052e576200052d620004d0565b5b50919050565b60008190508160005260206000209050919050565b60006020601f8301049050919050565b600082821b905092915050565b600060088302620005987fffffffffffffffffffffffffffffffffffffffffffffffffffffffffffffffff8262000559565b620005a4868362000559565b95508019841693508086168417925050509392505050565b6000819050919050565b6000819050919050565b6000620005f1620005eb620005e584620005bc565b620005c6565b620005bc565b9050919050565b6000819050919050565b6200060d83620005d0565b620006256200061c82620005f8565b84845462000566565b825550505050565b600090565b6200063c6200062d565b6200064981848462000602565b505050565b5b8181101562000671576200066560008262000632565b6001810190506200064f565b5050565b601f821115620006c0576200068a8162000534565b620006958462000549565b81016020851015620006a5578190505b620006bd620006b48562000549565b8301826200064e565b50505b505050565b600082821c905092915050565b6000620006e560001984600802620006c5565b1980831691505092915050565b6000620007008383620006d2565b9150826002028217905092915050565b6200071b82620004c5565b67ffffffffffffffff81111562000737576200073662000273565b5b620007438254620004ff565b6200075082828562000675565b600060209050601f83116001811462000788576000841562000773578287015190505b6200077f8582620006f2565b865550620007ef565b601f198416620007988662000534565b60005b82811015620007c2578489015182556001820191506020850194506020810190506200079b565b86831015620007e25784890151620007de601f891682620006d2565b8355505b6001600288020188555050505b505050505050565b7f4e487b7100000000000000000000000000000000000000000000000000000000600052602160045260246000fd5b600081519050919050565b60008190508160005260206000209050919050565b601f82111562000891576200085b8162000831565b620008668462000549565b8101602085101562000876578190505b6200088e620008858562000549565b8301826200064e565b50505b505050565b620008a18262000826565b67ffffffffffffffff811115620008bd57620008bc62000273565b5b620008c98254620004ff565b620008d682828562000846565b600060209050601f8311600181146200090e5760008415620008f9578287015190505b620009058582620006f2565b86555062000975565b601f1984166200091e8662000831565b60005b82811015620009485784890151825560018201915060208501945060208101905062000921565b8683101562000968578489015162000964601f891682620006d2565b8355505b6001600288020188555050505b505050505050565b6000819050919050565b62000992816200097d565b82525050565b620009a381620005bc565b82525050565b600073ffffffffffffffffffffffffffffffffffffffff82169050919050565b6000620009d682620009a9565b9050919050565b620009e881620009c9565b82525050565b600060a08201905062000a05600083018862000987565b62000a14602083018762000987565b62000a23604083018662000987565b62000a32606083018562000998565b62000a416080830184620009dd565b9695505050505050565b60805160a05160c05160e05161010051610120516153bd62000a9b60003960006116a4015260006116e6015260006116c5015260006115fa015260006116500152600061167901526153bd6000f3fe608060405234801561001057600080fd5b50600436106101cf5760003560e01c806373f2d27211610104578063b88d4fde116100a2578063c87b56dd11610071578063c87b56dd14610540578063d63222c314610570578063db5890ee1461058c578063e985e9c5146105aa576101cf565b8063b88d4fde146104e0578063c3a50d2c146104fc578063c3cda5201461051a578063c71daccb14610536576101cf565b806395d89b41116100de57806395d89b41146104565780639ab24eb014610474578063a22cb465146104a4578063a8445cdb146104c0576101cf565b806373f2d272146103d85780637ecebe00146103f65780638e539e8c14610426576101cf565b80633a46b1a8116101715780635c19a95c1161014b5780635c19a95c146103405780636352211e1461035c578063696efb851461038c57806370a08231146103a8576101cf565b80633a46b1a8146102c457806342842e0e146102f4578063587cde1e14610310576101cf565b8063095ea7b3116101ad578063095ea7b31461025257806323b872dd1461026e5780633644e5151461028a5780633a089942146102a8576101cf565b806301ffc9a7146101d457806306fdde0314610204578063081812fc14610222575b600080fd5b6101ee60048036038101906101e99190613798565b6105da565b6040516101fb91906137e0565b60405180910390f35b61020c6106bc565b604051610219919061388b565b60405180910390f35b61023c600480360381019061023791906138e3565b61074e565b6040516102499190613951565b60405180910390f35b61026c60048036038101906102679190613998565b610794565b005b610288600480360381019061028391906139d8565b6108ab565b005b6102926108ea565b60405161029f9190613a44565b60405180910390f35b6102c260048036038101906102bd9190613b94565b6108f9565b005b6102de60048036038101906102d99190613998565b6109e3565b6040516102eb9190613c1b565b60405180910390f35b61030e600480360381019061030991906139d8565b610a3e565b005b61032a60048036038101906103259190613c36565b610a5e565b6040516103379190613951565b60405180910390f35b61035a60048036038101906103559190613c36565b610ac7565b005b610376600480360381019061037191906138e3565b610ae1565b6040516103839190613951565b60405180910390f35b6103a660048036038101906103a19190613c87565b610b67565b005b6103c260048036038101906103bd9190613c36565b610e00565b6040516103cf9190613c1b565b60405180910390f35b6103e0610eb7565b6040516103ed9190613a44565b60405180910390f35b610410600480360381019061040b9190613c36565b610eda565b60405161041d9190613c1b565b60405180910390f35b610440600480360381019061043b91906138e3565b610f2a565b60405161044d9190613c1b565b60405180910390f35b61045e610f89565b60405161046b919061388b565b60405180910390f35b61048e60048036038101906104899190613c36565b61101b565b60405161049b9190613c1b565b60405180910390f35b6104be60048036038101906104b99190613cfc565b611089565b005b6104c861109f565b6040516104d793929190613e08565b60405180910390f35b6104fa60048036038101906104f59190613e46565b61114c565b005b6105046111ae565b6040516105119190613951565b60405180910390f35b610534600480360381019061052f9190613f2e565b6111d8565b005b61053e6112dc565b005b61055a600480360381019061055591906138e3565b61132c565b604051610567919061388b565b60405180910390f35b61058a60048036038101906105859190613c36565b61133e565b005b6105946113db565b6040516105a19190613c1b565b60405180910390f35b6105c460048036038101906105bf9190613fbb565b6113ec565b6040516105d191906137e0565b60405180910390f35b60007f80ac58cd000000000000000000000000000000000000000000000000000000007bffffffffffffffffffffffffffffffffffffffffffffffffffffffff1916827bffffffffffffffffffffffffffffffffffffffffffffffffffffffff191614806106a557507f5b5e139f000000000000000000000000000000000000000000000000000000007bffffffffffffffffffffffffffffffffffffffffffffffffffffffff1916827bffffffffffffffffffffffffffffffffffffffffffffffffffffffff1916145b806106b557506106b482611480565b5b9050919050565b6060600080546106cb9061402a565b80601f01602080910402602001604051908101604052809291908181526020018280546106f79061402a565b80156107445780601f1061071957610100808354040283529160200191610744565b820191906000526020600020905b81548152906001019060200180831161072757829003601f168201915b5050505050905090565b6000610759826114ea565b6004600083815260200190815260200160002060009054906101000a900473ffffffffffffffffffffffffffffffffffffffff169050919050565b600061079f82610ae1565b90508073ffffffffffffffffffffffffffffffffffffffff168373ffffffffffffffffffffffffffffffffffffffff160361080f576040517f08c379a0000000000000000000000000000000000000000000000000000000008152600401610806906140cd565b60405180910390fd5b8073ffffffffffffffffffffffffffffffffffffffff1661082e611535565b73ffffffffffffffffffffffffffffffffffffffff16148061085d575061085c81610857611535565b6113ec565b5b61089c576040517f08c379a00000000000000000000000000000000000000000000000000000000081526004016108939061415f565b60405180910390fd5b6108a6838361153d565b505050565b80836040517f205e68480000000000000000000000000000000000000000000000000000000081526004016108e192919061417f565b60405180910390fd5b60006108f46115f6565b905090565b6109016112dc565b600d60009054906101000a900473ffffffffffffffffffffffffffffffffffffffff1673ffffffffffffffffffffffffffffffffffffffff1663f0aca8223384846040518463ffffffff1660e01b8152600401610960939291906141a8565b600060405180830381600087803b15801561097a57600080fd5b505af115801561098e573d6000803e3d6000fd5b50505050816040516109a09190614229565b60405180910390207fa98aec5c4ec5237f4092b86df30fd24a9675fa7452542e9fab92c30d396953c1336040516109d79190613951565b60405180910390a25050565b6000610a3682600960008673ffffffffffffffffffffffffffffffffffffffff1673ffffffffffffffffffffffffffffffffffffffff16815260200190815260200160002061171090919063ffffffff16565b905092915050565b610a598383836040518060200160405280600081525061114c565b505050565b6000600860008373ffffffffffffffffffffffffffffffffffffffff1673ffffffffffffffffffffffffffffffffffffffff16815260200190815260200160002060009054906101000a900473ffffffffffffffffffffffffffffffffffffffff169050919050565b6000610ad1611535565b9050610add8183611875565b5050565b600080610aed83611989565b9050600073ffffffffffffffffffffffffffffffffffffffff168173ffffffffffffffffffffffffffffffffffffffff1603610b5e576040517f08c379a0000000000000000000000000000000000000000000000000000000008152600401610b559061428c565b60405180910390fd5b80915050919050565b6000600d60009054906101000a900473ffffffffffffffffffffffffffffffffffffffff1673ffffffffffffffffffffffffffffffffffffffff166367e2efc6336040518263ffffffff1660e01b8152600401610bc49190613951565b602060405180830381865afa158015610be1573d6000803e3d6000fd5b505050506040513d601f19601f82011682018060405250810190610c0591906142d1565b905060006003811115610c1b57610c1a613d91565b5b816003811115610c2e57610c2d613d91565b5b03610c65576040517f2efca46300000000000000000000000000000000000000000000000000000000815260040160405180910390fd5b60016003811115610c7957610c78613d91565b5b816003811115610c8c57610c8b613d91565b5b03610cc3576040517fcc260bff00000000000000000000000000000000000000000000000000000000815260040160405180910390fd5b600380811115610cd657610cd5613d91565b5b816003811115610ce957610ce8613d91565b5b03610d20576040517f7236ca2f00000000000000000000000000000000000000000000000000000000815260040160405180910390fd5b610d2a600c6119c6565b6000610d36600c6119dc565b9050610d4233826119ea565b610d9e81848060000190610d56919061430d565b8080601f016020809104026020016040519081016040528093929190818152602001838380828437600081840152601f19601f82011690508083019250505050505050611c07565b828060200190610dae9190614370565b604051610dbc9291906143f8565b60405180910390207fa98aec5c4ec5237f4092b86df30fd24a9675fa7452542e9fab92c30d396953c133604051610df39190613951565b60405180910390a2505050565b60008073ffffffffffffffffffffffffffffffffffffffff168273ffffffffffffffffffffffffffffffffffffffff1603610e70576040517f08c379a0000000000000000000000000000000000000000000000000000000008152600401610e6790614483565b60405180910390fd5b600360008373ffffffffffffffffffffffffffffffffffffffff1673ffffffffffffffffffffffffffffffffffffffff168152602001908152602001600020549050919050565b7e5165dbde6c98ff3dd217e399994c50c9b2dcb0e924050ef97159c4f0f162a681565b6000610f23600b60008473ffffffffffffffffffffffffffffffffffffffff1673ffffffffffffffffffffffffffffffffffffffff1681526020019081526020016000206119dc565b9050919050565b6000438210610f6e576040517f08c379a0000000000000000000000000000000000000000000000000000000008152600401610f65906144ef565b60405180910390fd5b610f8282600a61171090919063ffffffff16565b9050919050565b606060018054610f989061402a565b80601f0160208091040260200160405190810160405280929190818152602001828054610fc49061402a565b80156110115780601f10610fe657610100808354040283529160200191611011565b820191906000526020600020905b815481529060010190602001808311610ff457829003601f168201915b5050505050905090565b6000611064600960008473ffffffffffffffffffffffffffffffffffffffff1673ffffffffffffffffffffffffffffffffffffffff168152602001908152602001600020611c74565b7bffffffffffffffffffffffffffffffffffffffffffffffffffffffff169050919050565b61109b611094611535565b8383611cde565b5050565b600e8060000180546110b09061402a565b80601f01602080910402602001604051908101604052809291908181526020018280546110dc9061402a565b80156111295780601f106110fe57610100808354040283529160200191611129565b820191906000526020600020905b81548152906001019060200180831161110c57829003601f168201915b5050505050908060010154908060020160009054906101000a900460ff16905083565b61115d611157611535565b83611e4a565b61119c576040517f08c379a000000000000000000000000000000000000000000000000000000000815260040161119390614581565b60405180910390fd5b6111a884848484611edf565b50505050565b6000600d60009054906101000a900473ffffffffffffffffffffffffffffffffffffffff16905090565b8342111561121b576040517f08c379a0000000000000000000000000000000000000000000000000000000008152600401611212906145ed565b60405180910390fd5b600061127d6112757fe48329057bfd03d55e49b547132e39cffd9c1820ad7b9d4c5307691425d15adf89898960405160200161125a949392919061460d565b60405160208183030381529060405280519060200120611f3b565b858585611f55565b905061128881611f80565b86146112c9576040517f08c379a00000000000000000000000000000000000000000000000000000000081526004016112c09061469e565b60405180910390fd5b6112d38188611875565b50505050505050565b60006112e733610e00565b111561132a57336040517fb11f365d0000000000000000000000000000000000000000000000000000000081526004016113219190613951565b60405180910390fd5b565b606061133782611fde565b9050919050565b80600d60006101000a81548173ffffffffffffffffffffffffffffffffffffffff021916908373ffffffffffffffffffffffffffffffffffffffff1602179055507f68c6068f1a9762fde9efd004732692b2cceb4178e20930aae263dd5b52154408600d60009054906101000a900473ffffffffffffffffffffffffffffffffffffffff166040516113d09190613951565b60405180910390a150565b60006113e7600c6119dc565b905090565b6000600560008473ffffffffffffffffffffffffffffffffffffffff1673ffffffffffffffffffffffffffffffffffffffff16815260200190815260200160002060008373ffffffffffffffffffffffffffffffffffffffff1673ffffffffffffffffffffffffffffffffffffffff16815260200190815260200160002060009054906101000a900460ff16905092915050565b60007f01ffc9a7000000000000000000000000000000000000000000000000000000007bffffffffffffffffffffffffffffffffffffffffffffffffffffffff1916827bffffffffffffffffffffffffffffffffffffffffffffffffffffffff1916149050919050565b6114f3816120f0565b611532576040517f08c379a00000000000000000000000000000000000000000000000000000000081526004016115299061428c565b60405180910390fd5b50565b600033905090565b816004600083815260200190815260200160002060006101000a81548173ffffffffffffffffffffffffffffffffffffffff021916908373ffffffffffffffffffffffffffffffffffffffff160217905550808273ffffffffffffffffffffffffffffffffffffffff166115b083610ae1565b73ffffffffffffffffffffffffffffffffffffffff167f8c5be1e5ebec7d5bd14f71427d1e84f3dd0314c0f7b2291e5b200ac8c7c3b92560405160405180910390a45050565b60007f000000000000000000000000000000000000000000000000000000000000000073ffffffffffffffffffffffffffffffffffffffff163073ffffffffffffffffffffffffffffffffffffffff1614801561167257507f000000000000000000000000000000000000000000000000000000000000000046145b1561169f577f0000000000000000000000000000000000000000000000000000000000000000905061170d565b61170a7f00000000000000000000000000000000000000000000000000000000000000007f00000000000000000000000000000000000000000000000000000000000000007f0000000000000000000000000000000000000000000000000000000000000000612131565b90505b90565b6000438210611754576040517f08c379a000000000000000000000000000000000000000000000000000000000815260040161174b9061470a565b60405180910390fd5b600061175f8361216b565b905060008460000180549050905060008082905060058311156117e2576000611787846121be565b846117929190614759565b90506117a188600001826122b7565b60000160009054906101000a900463ffffffff1663ffffffff168563ffffffff1610156117d0578091506117e0565b6001816117dd919061478d565b92505b505b60006117f3886000018685856122cc565b90506000811461184757611816886000016001836118119190614759565b6122b7565b60000160049054906101000a90047bffffffffffffffffffffffffffffffffffffffffffffffffffffffff1661184a565b60005b7bffffffffffffffffffffffffffffffffffffffffffffffffffffffff169550505050505092915050565b600061188083610a5e565b905081600860008573ffffffffffffffffffffffffffffffffffffffff1673ffffffffffffffffffffffffffffffffffffffff16815260200190815260200160002060006101000a81548173ffffffffffffffffffffffffffffffffffffffff021916908373ffffffffffffffffffffffffffffffffffffffff1602179055508173ffffffffffffffffffffffffffffffffffffffff168173ffffffffffffffffffffffffffffffffffffffff168473ffffffffffffffffffffffffffffffffffffffff167f3134e8a2e6d97e929a7e54011ea5485d7d196dd5f0ba4d4ef95803e8e3fc257f60405160405180910390a4611984818361197f8661233f565b612351565b505050565b60006002600083815260200190815260200160002060009054906101000a900473ffffffffffffffffffffffffffffffffffffffff169050919050565b6001816000016000828254019250508190555050565b600081600001549050919050565b600073ffffffffffffffffffffffffffffffffffffffff168273ffffffffffffffffffffffffffffffffffffffff1603611a59576040517f08c379a0000000000000000000000000000000000000000000000000000000008152600401611a509061480d565b60405180910390fd5b611a62816120f0565b15611aa2576040517f08c379a0000000000000000000000000000000000000000000000000000000008152600401611a9990614879565b60405180910390fd5b611ab060008383600161255e565b611ab9816120f0565b15611af9576040517f08c379a0000000000000000000000000000000000000000000000000000000008152600401611af090614879565b60405180910390fd5b6001600360008473ffffffffffffffffffffffffffffffffffffffff1673ffffffffffffffffffffffffffffffffffffffff16815260200190815260200160002060008282540192505081905550816002600083815260200190815260200160002060006101000a81548173ffffffffffffffffffffffffffffffffffffffff021916908373ffffffffffffffffffffffffffffffffffffffff160217905550808273ffffffffffffffffffffffffffffffffffffffff16600073ffffffffffffffffffffffffffffffffffffffff167fddf252ad1be2c89b69c2b068fc378daa952ba7f163c4a11628f55a4df523b3ef60405160405180910390a4611c03600083836001612684565b5050565b611c10826120f0565b611c4f576040517f08c379a0000000000000000000000000000000000000000000000000000000008152600401611c469061490b565b60405180910390fd5b80600660008481526020019081526020016000209081611c6f9190614ad7565b505050565b6000808260000180549050905060008114611cd357611ca283600001600183611c9d9190614759565b6122b7565b60000160049054906101000a90047bffffffffffffffffffffffffffffffffffffffffffffffffffffffff16611cd6565b60005b915050919050565b8173ffffffffffffffffffffffffffffffffffffffff168373ffffffffffffffffffffffffffffffffffffffff1603611d4c576040517f08c379a0000000000000000000000000000000000000000000000000000000008152600401611d4390614bf5565b60405180910390fd5b80600560008573ffffffffffffffffffffffffffffffffffffffff1673ffffffffffffffffffffffffffffffffffffffff16815260200190815260200160002060008473ffffffffffffffffffffffffffffffffffffffff1673ffffffffffffffffffffffffffffffffffffffff16815260200190815260200160002060006101000a81548160ff0219169083151502179055508173ffffffffffffffffffffffffffffffffffffffff168373ffffffffffffffffffffffffffffffffffffffff167f17307eab39ab6107e8899845ad3d59bd9653f200f220920489ca2b5937696c3183604051611e3d91906137e0565b60405180910390a3505050565b600080611e5683610ae1565b90508073ffffffffffffffffffffffffffffffffffffffff168473ffffffffffffffffffffffffffffffffffffffff161480611e985750611e9781856113ec565b5b80611ed657508373ffffffffffffffffffffffffffffffffffffffff16611ebe8461074e565b73ffffffffffffffffffffffffffffffffffffffff16145b91505092915050565b611eea848484612696565b611ef68484848461298f565b611f35576040517f08c379a0000000000000000000000000000000000000000000000000000000008152600401611f2c90614c87565b60405180910390fd5b50505050565b6000611f4e611f486115f6565b83612b16565b9050919050565b6000806000611f6687878787612b49565b91509150611f7381612c2b565b8192505050949350505050565b600080600b60008473ffffffffffffffffffffffffffffffffffffffff1673ffffffffffffffffffffffffffffffffffffffff1681526020019081526020016000209050611fcd816119dc565b9150611fd8816119c6565b50919050565b6060611fe9826114ea565b60006006600084815260200190815260200160002080546120099061402a565b80601f01602080910402602001604051908101604052809291908181526020018280546120359061402a565b80156120825780601f1061205757610100808354040283529160200191612082565b820191906000526020600020905b81548152906001019060200180831161206557829003601f168201915b505050505090506000612093612d91565b905060008151036120a85781925050506120eb565b6000825111156120dd5780826040516020016120c5929190614ce3565b604051602081830303815290604052925050506120eb565b6120e684612da8565b925050505b919050565b60008073ffffffffffffffffffffffffffffffffffffffff1661211283611989565b73ffffffffffffffffffffffffffffffffffffffff1614159050919050565b6000838383463060405160200161214c959493929190614d07565b6040516020818303038152906040528051906020012090509392505050565b600063ffffffff80168211156121b6576040517f08c379a00000000000000000000000000000000000000000000000000000000081526004016121ad90614dcc565b60405180910390fd5b819050919050565b60008082036121d057600090506122b2565b600060016121dd84612e10565b901c6001901b905060018184816121f7576121f6614dec565b5b048201901c905060018184816122105761220f614dec565b5b048201901c9050600181848161222957612228614dec565b5b048201901c9050600181848161224257612241614dec565b5b048201901c9050600181848161225b5761225a614dec565b5b048201901c9050600181848161227457612273614dec565b5b048201901c9050600181848161228d5761228c614dec565b5b048201901c90506122ae818285816122a8576122a7614dec565b5b04612ef1565b9150505b919050565b60008260005281602060002001905092915050565b60005b818310156123345760006122e38484612f0a565b90508463ffffffff166122f687836122b7565b60000160009054906101000a900463ffffffff1663ffffffff16111561231e5780925061232e565b60018161232b919061478d565b93505b506122cf565b819050949350505050565b600061234a82610e00565b9050919050565b8173ffffffffffffffffffffffffffffffffffffffff168373ffffffffffffffffffffffffffffffffffffffff161415801561238d5750600081115b1561255957600073ffffffffffffffffffffffffffffffffffffffff168373ffffffffffffffffffffffffffffffffffffffff16146124755760008061241e612f3084600960008973ffffffffffffffffffffffffffffffffffffffff1673ffffffffffffffffffffffffffffffffffffffff168152602001908152602001600020612f469092919063ffffffff16565b915091508473ffffffffffffffffffffffffffffffffffffffff167fdec2bacdd2f05b59de34da9b523dff8be42e5e38e818c82fdb0bae774387a724838360405161246a929190614e1b565b60405180910390a250505b600073ffffffffffffffffffffffffffffffffffffffff168273ffffffffffffffffffffffffffffffffffffffff161461255857600080612501612f9284600960008873ffffffffffffffffffffffffffffffffffffffff1673ffffffffffffffffffffffffffffffffffffffff168152602001908152602001600020612f469092919063ffffffff16565b915091508373ffffffffffffffffffffffffffffffffffffffff167fdec2bacdd2f05b59de34da9b523dff8be42e5e38e818c82fdb0bae774387a724838360405161254d929190614e1b565b60405180910390a250505b5b505050565b600181111561267e57600073ffffffffffffffffffffffffffffffffffffffff168473ffffffffffffffffffffffffffffffffffffffff16146125f25780600360008673ffffffffffffffffffffffffffffffffffffffff1673ffffffffffffffffffffffffffffffffffffffff16815260200190815260200160002060008282546125ea9190614759565b925050819055505b600073ffffffffffffffffffffffffffffffffffffffff168373ffffffffffffffffffffffffffffffffffffffff161461267d5780600360008573ffffffffffffffffffffffffffffffffffffffff1673ffffffffffffffffffffffffffffffffffffffff1681526020019081526020016000206000828254612675919061478d565b925050819055505b5b50505050565b61269084848484612fa8565b50505050565b8273ffffffffffffffffffffffffffffffffffffffff166126b682610ae1565b73ffffffffffffffffffffffffffffffffffffffff161461270c576040517f08c379a000000000000000000000000000000000000000000000000000000000815260040161270390614eb6565b60405180910390fd5b600073ffffffffffffffffffffffffffffffffffffffff168273ffffffffffffffffffffffffffffffffffffffff160361277b576040517f08c379a000000000000000000000000000000000000000000000000000000000815260040161277290614f48565b60405180910390fd5b612788838383600161255e565b8273ffffffffffffffffffffffffffffffffffffffff166127a882610ae1565b73ffffffffffffffffffffffffffffffffffffffff16146127fe576040517f08c379a00000000000000000000000000000000000000000000000000000000081526004016127f590614eb6565b60405180910390fd5b6004600082815260200190815260200160002060006101000a81549073ffffffffffffffffffffffffffffffffffffffff02191690556001600360008573ffffffffffffffffffffffffffffffffffffffff1673ffffffffffffffffffffffffffffffffffffffff168152602001908152602001600020600082825403925050819055506001600360008473ffffffffffffffffffffffffffffffffffffffff1673ffffffffffffffffffffffffffffffffffffffff16815260200190815260200160002060008282540192505081905550816002600083815260200190815260200160002060006101000a81548173ffffffffffffffffffffffffffffffffffffffff021916908373ffffffffffffffffffffffffffffffffffffffff160217905550808273ffffffffffffffffffffffffffffffffffffffff168473ffffffffffffffffffffffffffffffffffffffff167fddf252ad1be2c89b69c2b068fc378daa952ba7f163c4a11628f55a4df523b3ef60405160405180910390a461298a8383836001612684565b505050565b60006129b08473ffffffffffffffffffffffffffffffffffffffff16612fc5565b15612b09578373ffffffffffffffffffffffffffffffffffffffff1663150b7a026129d9611535565b8786866040518563ffffffff1660e01b81526004016129fb9493929190614f68565b6020604051808303816000875af1925050508015612a3757506040513d601f19601f82011682018060405250810190612a349190614fc9565b60015b612ab9573d8060008114612a67576040519150601f19603f3d011682016040523d82523d6000602084013e612a6c565b606091505b506000815103612ab1576040517f08c379a0000000000000000000000000000000000000000000000000000000008152600401612aa890614c87565b60405180910390fd5b805181602001fd5b63150b7a0260e01b7bffffffffffffffffffffffffffffffffffffffffffffffffffffffff1916817bffffffffffffffffffffffffffffffffffffffffffffffffffffffff191614915050612b0e565b600190505b949350505050565b60008282604051602001612b2b929190615063565b60405160208183030381529060405280519060200120905092915050565b6000807f7fffffffffffffffffffffffffffffff5d576e7357a4501ddfe92f46681b20a08360001c1115612b84576000600391509150612c22565b600060018787878760405160008152602001604052604051612ba994939291906150a9565b6020604051602081039080840390855afa158015612bcb573d6000803e3d6000fd5b505050602060405103519050600073ffffffffffffffffffffffffffffffffffffffff168173ffffffffffffffffffffffffffffffffffffffff1603612c1957600060019250925050612c22565b80600092509250505b94509492505050565b60006004811115612c3f57612c3e613d91565b5b816004811115612c5257612c51613d91565b5b0315612d8e5760016004811115612c6c57612c6b613d91565b5b816004811115612c7f57612c7e613d91565b5b03612cbf576040517f08c379a0000000000000000000000000000000000000000000000000000000008152600401612cb69061513a565b60405180910390fd5b60026004811115612cd357612cd2613d91565b5b816004811115612ce657612ce5613d91565b5b03612d26576040517f08c379a0000000000000000000000000000000000000000000000000000000008152600401612d1d906151a6565b60405180910390fd5b60036004811115612d3a57612d39613d91565b5b816004811115612d4d57612d4c613d91565b5b03612d8d576040517f08c379a0000000000000000000000000000000000000000000000000000000008152600401612d8490615238565b60405180910390fd5b5b50565b606060405180602001604052806000815250905090565b6060612db3826114ea565b6000612dbd612d91565b90506000815111612ddd5760405180602001604052806000815250612e08565b80612de784612fe8565b604051602001612df8929190614ce3565b6040516020818303038152906040525b915050919050565b600080600090506000608084901c1115612e3257608083901c92506080810190505b6000604084901c1115612e4d57604083901c92506040810190505b6000602084901c1115612e6857602083901c92506020810190505b6000601084901c1115612e8357601083901c92506010810190505b6000600884901c1115612e9e57600883901c92506008810190505b6000600484901c1115612eb957600483901c92506004810190505b6000600284901c1115612ed457600283901c92506002810190505b6000600184901c1115612ee8576001810190505b80915050919050565b6000818310612f005781612f02565b825b905092915050565b60006002828418612f1b9190615258565b828416612f28919061478d565b905092915050565b60008183612f3e9190614759565b905092915050565b600080612f8685612f81612f5988611c74565b7bffffffffffffffffffffffffffffffffffffffffffffffffffffffff16868863ffffffff16565b6130b6565b91509150935093915050565b60008183612fa0919061478d565b905092915050565b612fb3848483613124565b612fbf848484846131e2565b50505050565b6000808273ffffffffffffffffffffffffffffffffffffffff163b119050919050565b606060006001612ff7846131e8565b01905060008167ffffffffffffffff81111561301657613015613a69565b5b6040519080825280601f01601f1916602001820160405280156130485781602001600182028036833780820191505090505b509050600082602001820190505b6001156130ab578080600190039150507f3031323334353637383961626364656600000000000000000000000000000000600a86061a8153600a858161309f5761309e614dec565b5b04945060008503613056575b819350505050919050565b6000806130d7846000016130c94361216b565b6130d28661333b565b6133a6565b817bffffffffffffffffffffffffffffffffffffffffffffffffffffffff169150807bffffffffffffffffffffffffffffffffffffffffffffffffffffffff169050915091509250929050565b600073ffffffffffffffffffffffffffffffffffffffff168373ffffffffffffffffffffffffffffffffffffffff160361317357613170612f9282600a612f469092919063ffffffff16565b50505b600073ffffffffffffffffffffffffffffffffffffffff168273ffffffffffffffffffffffffffffffffffffffff16036131c2576131bf612f3082600a612f469092919063ffffffff16565b50505b6131dd6131ce84610a5e565b6131d784610a5e565b83612351565b505050565b50505050565b600080600090507a184f03e93ff9f4daa797ed6e38ed64bf6a1f0100000000000000008310613246577a184f03e93ff9f4daa797ed6e38ed64bf6a1f010000000000000000838161323c5761323b614dec565b5b0492506040810190505b6d04ee2d6d415b85acef81000000008310613283576d04ee2d6d415b85acef8100000000838161327957613278614dec565b5b0492506020810190505b662386f26fc1000083106132b257662386f26fc1000083816132a8576132a7614dec565b5b0492506010810190505b6305f5e10083106132db576305f5e10083816132d1576132d0614dec565b5b0492506008810190505b61271083106133005761271083816132f6576132f5614dec565b5b0492506004810190505b60648310613323576064838161331957613318614dec565b5b0492506002810190505b600a8310613332576001810190505b80915050919050565b60007bffffffffffffffffffffffffffffffffffffffffffffffffffffffff801682111561339e576040517f08c379a0000000000000000000000000000000000000000000000000000000008152600401613395906152fb565b60405180910390fd5b819050919050565b600080600085805490509050600081111561363c5760006133d3876001846133ce9190614759565b6122b7565b6040518060400160405290816000820160009054906101000a900463ffffffff1663ffffffff1663ffffffff1681526020016000820160049054906101000a90047bffffffffffffffffffffffffffffffffffffffffffffffffffffffff167bffffffffffffffffffffffffffffffffffffffffffffffffffffffff167bffffffffffffffffffffffffffffffffffffffffffffffffffffffff168152505090508563ffffffff16816000015163ffffffff1611156134c7576040517f08c379a00000000000000000000000000000000000000000000000000000000081526004016134be90615367565b60405180910390fd5b8563ffffffff16816000015163ffffffff160361354b57846134f5886001856134f09190614759565b6122b7565b60000160046101000a8154817bffffffffffffffffffffffffffffffffffffffffffffffffffffffff02191690837bffffffffffffffffffffffffffffffffffffffffffffffffffffffff16021790555061362b565b8660405180604001604052808863ffffffff168152602001877bffffffffffffffffffffffffffffffffffffffffffffffffffffffff168152509080600181540180825580915050600190039060005260206000200160009091909190915060008201518160000160006101000a81548163ffffffff021916908363ffffffff16021790555060208201518160000160046101000a8154817bffffffffffffffffffffffffffffffffffffffffffffffffffffffff02191690837bffffffffffffffffffffffffffffffffffffffffffffffffffffffff16021790555050505b806020015185935093505050613724565b8560405180604001604052808763ffffffff168152602001867bffffffffffffffffffffffffffffffffffffffffffffffffffffffff168152509080600181540180825580915050600190039060005260206000200160009091909190915060008201518160000160006101000a81548163ffffffff021916908363ffffffff16021790555060208201518160000160046101000a8154817bffffffffffffffffffffffffffffffffffffffffffffffffffffffff02191690837bffffffffffffffffffffffffffffffffffffffffffffffffffffffff160217905550505060008492509250505b935093915050565b6000604051905090565b600080fd5b600080fd5b60007fffffffff0000000000000000000000000000000000000000000000000000000082169050919050565b61377581613740565b811461378057600080fd5b50565b6000813590506137928161376c565b92915050565b6000602082840312156137ae576137ad613736565b5b60006137bc84828501613783565b91505092915050565b60008115159050919050565b6137da816137c5565b82525050565b60006020820190506137f560008301846137d1565b92915050565b600081519050919050565b600082825260208201905092915050565b60005b8381101561383557808201518184015260208101905061381a565b60008484015250505050565b6000601f19601f8301169050919050565b600061385d826137fb565b6138678185613806565b9350613877818560208601613817565b61388081613841565b840191505092915050565b600060208201905081810360008301526138a58184613852565b905092915050565b6000819050919050565b6138c0816138ad565b81146138cb57600080fd5b50565b6000813590506138dd816138b7565b92915050565b6000602082840312156138f9576138f8613736565b5b6000613907848285016138ce565b91505092915050565b600073ffffffffffffffffffffffffffffffffffffffff82169050919050565b600061393b82613910565b9050919050565b61394b81613930565b82525050565b60006020820190506139666000830184613942565b92915050565b61397581613930565b811461398057600080fd5b50565b6000813590506139928161396c565b92915050565b600080604083850312156139af576139ae613736565b5b60006139bd85828601613983565b92505060206139ce858286016138ce565b9150509250929050565b6000806000606084860312156139f1576139f0613736565b5b60006139ff86828701613983565b9350506020613a1086828701613983565b9250506040613a21868287016138ce565b9150509250925092565b6000819050919050565b613a3e81613a2b565b82525050565b6000602082019050613a596000830184613a35565b92915050565b600080fd5b600080fd5b7f4e487b7100000000000000000000000000000000000000000000000000000000600052604160045260246000fd5b613aa182613841565b810181811067ffffffffffffffff82111715613ac057613abf613a69565b5b80604052505050565b6000613ad361372c565b9050613adf8282613a98565b919050565b600067ffffffffffffffff821115613aff57613afe613a69565b5b613b0882613841565b9050602081019050919050565b82818337600083830152505050565b6000613b37613b3284613ae4565b613ac9565b905082815260208101848484011115613b5357613b52613a64565b5b613b5e848285613b15565b509392505050565b600082601f830112613b7b57613b7a613a5f565b5b8135613b8b848260208601613b24565b91505092915050565b60008060408385031215613bab57613baa613736565b5b600083013567ffffffffffffffff811115613bc957613bc861373b565b5b613bd585828601613b66565b925050602083013567ffffffffffffffff811115613bf657613bf561373b565b5b613c0285828601613b66565b9150509250929050565b613c15816138ad565b82525050565b6000602082019050613c306000830184613c0c565b92915050565b600060208284031215613c4c57613c4b613736565b5b6000613c5a84828501613983565b91505092915050565b600080fd5b600060808284031215613c7e57613c7d613c63565b5b81905092915050565b600060208284031215613c9d57613c9c613736565b5b600082013567ffffffffffffffff811115613cbb57613cba61373b565b5b613cc784828501613c68565b91505092915050565b613cd9816137c5565b8114613ce457600080fd5b50565b600081359050613cf681613cd0565b92915050565b60008060408385031215613d1357613d12613736565b5b6000613d2185828601613983565b9250506020613d3285828601613ce7565b9150509250929050565b600081519050919050565b600082825260208201905092915050565b6000613d6382613d3c565b613d6d8185613d47565b9350613d7d818560208601613817565b613d8681613841565b840191505092915050565b7f4e487b7100000000000000000000000000000000000000000000000000000000600052602160045260246000fd5b60048110613dd157613dd0613d91565b5b50565b6000819050613de282613dc0565b919050565b6000613df282613dd4565b9050919050565b613e0281613de7565b82525050565b60006060820190508181036000830152613e228186613d58565b9050613e316020830185613c0c565b613e3e6040830184613df9565b949350505050565b60008060008060808587031215613e6057613e5f613736565b5b6000613e6e87828801613983565b9450506020613e7f87828801613983565b9350506040613e90878288016138ce565b925050606085013567ffffffffffffffff811115613eb157613eb061373b565b5b613ebd87828801613b66565b91505092959194509250565b600060ff82169050919050565b613edf81613ec9565b8114613eea57600080fd5b50565b600081359050613efc81613ed6565b92915050565b613f0b81613a2b565b8114613f1657600080fd5b50565b600081359050613f2881613f02565b92915050565b60008060008060008060c08789031215613f4b57613f4a613736565b5b6000613f5989828a01613983565b9650506020613f6a89828a016138ce565b9550506040613f7b89828a016138ce565b9450506060613f8c89828a01613eed565b9350506080613f9d89828a01613f19565b92505060a0613fae89828a01613f19565b9150509295509295509295565b60008060408385031215613fd257613fd1613736565b5b6000613fe085828601613983565b9250506020613ff185828601613983565b9150509250929050565b7f4e487b7100000000000000000000000000000000000000000000000000000000600052602260045260246000fd5b6000600282049050600182168061404257607f821691505b60208210810361405557614054613ffb565b5b50919050565b7f4552433732313a20617070726f76616c20746f2063757272656e74206f776e6560008201527f7200000000000000000000000000000000000000000000000000000000000000602082015250565b60006140b7602183613806565b91506140c28261405b565b604082019050919050565b600060208201905081810360008301526140e6816140aa565b9050919050565b7f4552433732313a20617070726f76652063616c6c6572206973206e6f7420746f60008201527f6b656e206f776e6572206f7220617070726f76656420666f7220616c6c000000602082015250565b6000614149603d83613806565b9150614154826140ed565b604082019050919050565b600060208201905081810360008301526141788161413c565b9050919050565b60006040820190506141946000830185613c0c565b6141a16020830184613942565b9392505050565b60006060820190506141bd6000830186613942565b81810360208301526141cf8185613d58565b905081810360408301526141e38184613d58565b9050949350505050565b600081905092915050565b600061420382613d3c565b61420d81856141ed565b935061421d818560208601613817565b80840191505092915050565b600061423582846141f8565b915081905092915050565b7f4552433732313a20696e76616c696420746f6b656e2049440000000000000000600082015250565b6000614276601883613806565b915061428182614240565b602082019050919050565b600060208201905081810360008301526142a581614269565b9050919050565b600481106142b957600080fd5b50565b6000815190506142cb816142ac565b92915050565b6000602082840312156142e7576142e6613736565b5b60006142f5848285016142bc565b91505092915050565b600080fd5b600080fd5b600080fd5b6000808335600160200384360303811261432a576143296142fe565b5b80840192508235915067ffffffffffffffff82111561434c5761434b614303565b5b60208301925060018202360383131561436857614367614308565b5b509250929050565b6000808335600160200384360303811261438d5761438c6142fe565b5b80840192508235915067ffffffffffffffff8211156143af576143ae614303565b5b6020830192506001820236038313156143cb576143ca614308565b5b509250929050565b60006143df83856141ed565b93506143ec838584613b15565b82840190509392505050565b60006144058284866143d3565b91508190509392505050565b7f4552433732313a2061646472657373207a65726f206973206e6f74206120766160008201527f6c6964206f776e65720000000000000000000000000000000000000000000000602082015250565b600061446d602983613806565b915061447882614411565b604082019050919050565b6000602082019050818103600083015261449c81614460565b9050919050565b7f566f7465733a20626c6f636b206e6f7420796574206d696e6564000000000000600082015250565b60006144d9601a83613806565b91506144e4826144a3565b602082019050919050565b60006020820190508181036000830152614508816144cc565b9050919050565b7f4552433732313a2063616c6c6572206973206e6f7420746f6b656e206f776e6560008201527f72206f7220617070726f76656400000000000000000000000000000000000000602082015250565b600061456b602d83613806565b91506145768261450f565b604082019050919050565b6000602082019050818103600083015261459a8161455e565b9050919050565b7f566f7465733a207369676e617475726520657870697265640000000000000000600082015250565b60006145d7601883613806565b91506145e2826145a1565b602082019050919050565b60006020820190508181036000830152614606816145ca565b9050919050565b60006080820190506146226000830187613a35565b61462f6020830186613942565b61463c6040830185613c0c565b6146496060830184613c0c565b95945050505050565b7f566f7465733a20696e76616c6964206e6f6e6365000000000000000000000000600082015250565b6000614688601483613806565b915061469382614652565b602082019050919050565b600060208201905081810360008301526146b78161467b565b9050919050565b7f436865636b706f696e74733a20626c6f636b206e6f7420796574206d696e6564600082015250565b60006146f4602083613806565b91506146ff826146be565b602082019050919050565b60006020820190508181036000830152614723816146e7565b9050919050565b7f4e487b7100000000000000000000000000000000000000000000000000000000600052601160045260246000fd5b6000614764826138ad565b915061476f836138ad565b92508282039050818111156147875761478661472a565b5b92915050565b6000614798826138ad565b91506147a3836138ad565b92508282019050808211156147bb576147ba61472a565b5b92915050565b7f4552433732313a206d696e7420746f20746865207a65726f2061646472657373600082015250565b60006147f7602083613806565b9150614802826147c1565b602082019050919050565b60006020820190508181036000830152614826816147ea565b9050919050565b7f4552433732313a20746f6b656e20616c7265616479206d696e74656400000000600082015250565b6000614863601c83613806565b915061486e8261482d565b602082019050919050565b6000602082019050818103600083015261489281614856565b9050919050565b7f45524337323155524953746f726167653a2055524920736574206f66206e6f6e60008201527f6578697374656e7420746f6b656e000000000000000000000000000000000000602082015250565b60006148f5602e83613806565b915061490082614899565b604082019050919050565b60006020820190508181036000830152614924816148e8565b9050919050565b60008190508160005260206000209050919050565b60006020601f8301049050919050565b600082821b905092915050565b60006008830261498d7fffffffffffffffffffffffffffffffffffffffffffffffffffffffffffffffff82614950565b6149978683614950565b95508019841693508086168417925050509392505050565b6000819050919050565b60006149d46149cf6149ca846138ad565b6149af565b6138ad565b9050919050565b6000819050919050565b6149ee836149b9565b614a026149fa826149db565b84845461495d565b825550505050565b600090565b614a17614a0a565b614a228184846149e5565b505050565b5b81811015614a4657614a3b600082614a0f565b600181019050614a28565b5050565b601f821115614a8b57614a5c8161492b565b614a6584614940565b81016020851015614a74578190505b614a88614a8085614940565b830182614a27565b50505b505050565b600082821c905092915050565b6000614aae60001984600802614a90565b1980831691505092915050565b6000614ac78383614a9d565b9150826002028217905092915050565b614ae0826137fb565b67ffffffffffffffff811115614af957614af8613a69565b5b614b03825461402a565b614b0e828285614a4a565b600060209050601f831160018114614b415760008415614b2f578287015190505b614b398582614abb565b865550614ba1565b601f198416614b4f8661492b565b60005b82811015614b7757848901518255600182019150602085019450602081019050614b52565b86831015614b945784890151614b90601f891682614a9d565b8355505b6001600288020188555050505b505050505050565b7f4552433732313a20617070726f766520746f2063616c6c657200000000000000600082015250565b6000614bdf601983613806565b9150614bea82614ba9565b602082019050919050565b60006020820190508181036000830152614c0e81614bd2565b9050919050565b7f4552433732313a207472616e7366657220746f206e6f6e20455243373231526560008201527f63656976657220696d706c656d656e7465720000000000000000000000000000602082015250565b6000614c71603283613806565b9150614c7c82614c15565b604082019050919050565b60006020820190508181036000830152614ca081614c64565b9050919050565b600081905092915050565b6000614cbd826137fb565b614cc78185614ca7565b9350614cd7818560208601613817565b80840191505092915050565b6000614cef8285614cb2565b9150614cfb8284614cb2565b91508190509392505050565b600060a082019050614d1c6000830188613a35565b614d296020830187613a35565b614d366040830186613a35565b614d436060830185613c0c565b614d506080830184613942565b9695505050505050565b7f53616665436173743a2076616c756520646f65736e27742066697420696e203360008201527f3220626974730000000000000000000000000000000000000000000000000000602082015250565b6000614db6602683613806565b9150614dc182614d5a565b604082019050919050565b60006020820190508181036000830152614de581614da9565b9050919050565b7f4e487b7100000000000000000000000000000000000000000000000000000000600052601260045260246000fd5b6000604082019050614e306000830185613c0c565b614e3d6020830184613c0c565b9392505050565b7f4552433732313a207472616e736665722066726f6d20696e636f72726563742060008201527f6f776e6572000000000000000000000000000000000000000000000000000000602082015250565b6000614ea0602583613806565b9150614eab82614e44565b604082019050919050565b60006020820190508181036000830152614ecf81614e93565b9050919050565b7f4552433732313a207472616e7366657220746f20746865207a65726f2061646460008201527f7265737300000000000000000000000000000000000000000000000000000000602082015250565b6000614f32602483613806565b9150614f3d82614ed6565b604082019050919050565b60006020820190508181036000830152614f6181614f25565b9050919050565b6000608082019050614f7d6000830187613942565b614f8a6020830186613942565b614f976040830185613c0c565b8181036060830152614fa98184613d58565b905095945050505050565b600081519050614fc38161376c565b92915050565b600060208284031215614fdf57614fde613736565b5b6000614fed84828501614fb4565b91505092915050565b7f1901000000000000000000000000000000000000000000000000000000000000600082015250565b600061502c600283614ca7565b915061503782614ff6565b600282019050919050565b6000819050919050565b61505d61505882613a2b565b615042565b82525050565b600061506e8261501f565b915061507a828561504c565b60208201915061508a828461504c565b6020820191508190509392505050565b6150a381613ec9565b82525050565b60006080820190506150be6000830187613a35565b6150cb602083018661509a565b6150d86040830185613a35565b6150e56060830184613a35565b95945050505050565b7f45434453413a20696e76616c6964207369676e61747572650000000000000000600082015250565b6000615124601883613806565b915061512f826150ee565b602082019050919050565b6000602082019050818103600083015261515381615117565b9050919050565b7f45434453413a20696e76616c6964207369676e6174757265206c656e67746800600082015250565b6000615190601f83613806565b915061519b8261515a565b602082019050919050565b600060208201905081810360008301526151bf81615183565b9050919050565b7f45434453413a20696e76616c6964207369676e6174757265202773272076616c60008201527f7565000000000000000000000000000000000000000000000000000000000000602082015250565b6000615222602283613806565b915061522d826151c6565b604082019050919050565b6000602082019050818103600083015261525181615215565b9050919050565b6000615263826138ad565b915061526e836138ad565b92508261527e5761527d614dec565b5b828204905092915050565b7f53616665436173743a2076616c756520646f65736e27742066697420696e203260008201527f3234206269747300000000000000000000000000000000000000000000000000602082015250565b60006152e5602783613806565b91506152f082615289565b604082019050919050565b60006020820190508181036000830152615314816152d8565b9050919050565b7f436865636b706f696e743a20696e76616c6964206b6579000000000000000000600082015250565b6000615351601783613806565b915061535c8261531b565b602082019050919050565b6000602082019050818103600083015261538081615344565b905091905056fea264697066735822122041acef1db0f2eb2abac270befd1e90ae4b36e7288a3767d391c87853d640410964736f6c63430008110033",
  "devdoc": {
    "kind": "dev",
    "methods": {
      "DOMAIN_SEPARATOR()": {
        "details": "Returns the contract's {EIP712} domain separator."
      },
      "approve(address,uint256)": {
        "details": "See {IERC721-approve}."
      },
      "balanceOf(address)": {
        "details": "See {IERC721-balanceOf}."
      },
      "delegate(address)": {
        "details": "Delegates votes from the sender to `delegatee`."
      },
      "delegateBySig(address,uint256,uint256,uint8,bytes32,bytes32)": {
        "details": "Delegates votes from signer to `delegatee`."
      },
      "delegates(address)": {
        "details": "Returns the delegate that `account` has chosen."
      },
      "getApproved(uint256)": {
        "details": "See {IERC721-getApproved}."
      },
      "getPastTotalSupply(uint256)": {
        "details": "Returns the total supply of votes available at the end of a past block (`blockNumber`). NOTE: This value is the sum of all available votes, which is not necessarily the sum of all delegated votes. Votes that have not been delegated are still part of total supply, even though they would not participate in a vote. Requirements: - `blockNumber` must have been already mined"
      },
      "getPastVotes(address,uint256)": {
        "details": "Returns the amount of votes that `account` had at the end of a past block (`blockNumber`). Requirements: - `blockNumber` must have been already mined"
      },
      "getVotes(address)": {
        "details": "Returns the current amount of votes that `account` has."
      },
      "isApprovedForAll(address,address)": {
        "details": "See {IERC721-isApprovedForAll}."
      },
      "name()": {
        "details": "See {IERC721Metadata-name}."
      },
      "nonces(address)": {
        "details": "Returns an address nonce."
      },
      "ownerOf(uint256)": {
        "details": "See {IERC721-ownerOf}."
      },
      "safeTransferFrom(address,address,uint256)": {
        "details": "See {IERC721-safeTransferFrom}."
      },
      "safeTransferFrom(address,address,uint256,bytes)": {
        "details": "See {IERC721-safeTransferFrom}."
      },
      "setApprovalForAll(address,bool)": {
        "details": "See {IERC721-setApprovalForAll}."
      },
      "supportsInterface(bytes4)": {
        "details": "See {IERC165-supportsInterface}."
      },
      "symbol()": {
        "details": "See {IERC721Metadata-symbol}."
      }
    },
    "version": 1
  },
  "userdoc": {
    "kind": "user",
    "methods": {
      "redeem((string,bytes,bytes,bytes))": {
        "notice": "Redeems an NFTVoucher for an actual NFT, creating it in the process."
      }
    },
    "version": 1
  },
  "storageLayout": {
    "storage": [
      {
        "astId": 611,
        "contract": "contracts/core/UserIdentityNFT.sol:UserIdentityNFT",
        "label": "_name",
        "offset": 0,
        "slot": "0",
        "type": "t_string_storage"
      },
      {
        "astId": 613,
        "contract": "contracts/core/UserIdentityNFT.sol:UserIdentityNFT",
        "label": "_symbol",
        "offset": 0,
        "slot": "1",
        "type": "t_string_storage"
      },
      {
        "astId": 617,
        "contract": "contracts/core/UserIdentityNFT.sol:UserIdentityNFT",
        "label": "_owners",
        "offset": 0,
        "slot": "2",
        "type": "t_mapping(t_uint256,t_address)"
      },
      {
        "astId": 621,
        "contract": "contracts/core/UserIdentityNFT.sol:UserIdentityNFT",
        "label": "_balances",
        "offset": 0,
        "slot": "3",
        "type": "t_mapping(t_address,t_uint256)"
      },
      {
        "astId": 625,
        "contract": "contracts/core/UserIdentityNFT.sol:UserIdentityNFT",
        "label": "_tokenApprovals",
        "offset": 0,
        "slot": "4",
        "type": "t_mapping(t_uint256,t_address)"
      },
      {
        "astId": 631,
        "contract": "contracts/core/UserIdentityNFT.sol:UserIdentityNFT",
        "label": "_operatorApprovals",
        "offset": 0,
        "slot": "5",
        "type": "t_mapping(t_address,t_mapping(t_address,t_bool))"
      },
      {
        "astId": 1677,
        "contract": "contracts/core/UserIdentityNFT.sol:UserIdentityNFT",
        "label": "_tokenURIs",
        "offset": 0,
        "slot": "6",
        "type": "t_mapping(t_uint256,t_string_storage)"
      },
      {
        "astId": 542,
        "contract": "contracts/core/UserIdentityNFT.sol:UserIdentityNFT",
        "label": "_status",
        "offset": 0,
        "slot": "7",
        "type": "t_uint256"
      },
      {
        "astId": 108,
        "contract": "contracts/core/UserIdentityNFT.sol:UserIdentityNFT",
        "label": "_delegation",
        "offset": 0,
        "slot": "8",
        "type": "t_mapping(t_address,t_address)"
      },
      {
        "astId": 113,
        "contract": "contracts/core/UserIdentityNFT.sol:UserIdentityNFT",
        "label": "_delegateCheckpoints",
        "offset": 0,
        "slot": "9",
        "type": "t_mapping(t_address,t_struct(History)2209_storage)"
      },
      {
        "astId": 116,
        "contract": "contracts/core/UserIdentityNFT.sol:UserIdentityNFT",
        "label": "_totalCheckpoints",
        "offset": 0,
        "slot": "10",
        "type": "t_struct(History)2209_storage"
      },
      {
        "astId": 121,
        "contract": "contracts/core/UserIdentityNFT.sol:UserIdentityNFT",
        "label": "_nonces",
        "offset": 0,
        "slot": "11",
        "type": "t_mapping(t_address,t_struct(Counter)3598_storage)"
      },
      {
        "astId": 6823,
        "contract": "contracts/core/UserIdentityNFT.sol:UserIdentityNFT",
        "label": "idCount",
        "offset": 0,
        "slot": "12",
        "type": "t_struct(Counter)3598_storage"
      },
      {
        "astId": 6825,
        "contract": "contracts/core/UserIdentityNFT.sol:UserIdentityNFT",
        "label": "figureprintOracle",
        "offset": 0,
        "slot": "13",
        "type": "t_address"
      },
      {
        "astId": 6828,
        "contract": "contracts/core/UserIdentityNFT.sol:UserIdentityNFT",
        "label": "userdata",
        "offset": 0,
        "slot": "14",
        "type": "t_struct(VerifcaitonRecord)7335_storage"
      }
    ],
    "types": {
      "t_address": {
        "encoding": "inplace",
        "label": "address",
        "numberOfBytes": "20"
      },
      "t_array(t_struct(Checkpoint)2214_storage)dyn_storage": {
        "base": "t_struct(Checkpoint)2214_storage",
        "encoding": "dynamic_array",
        "label": "struct Checkpoints.Checkpoint[]",
        "numberOfBytes": "32"
      },
      "t_bool": {
        "encoding": "inplace",
        "label": "bool",
        "numberOfBytes": "1"
      },
      "t_bytes_storage": {
        "encoding": "bytes",
        "label": "bytes",
        "numberOfBytes": "32"
      },
      "t_enum(VerficationStatus)7340": {
        "encoding": "inplace",
        "label": "enum VerficationStatus",
        "numberOfBytes": "1"
      },
      "t_mapping(t_address,t_address)": {
        "encoding": "mapping",
        "key": "t_address",
        "label": "mapping(address => address)",
        "numberOfBytes": "32",
        "value": "t_address"
      },
      "t_mapping(t_address,t_bool)": {
        "encoding": "mapping",
        "key": "t_address",
        "label": "mapping(address => bool)",
        "numberOfBytes": "32",
        "value": "t_bool"
      },
      "t_mapping(t_address,t_mapping(t_address,t_bool))": {
        "encoding": "mapping",
        "key": "t_address",
        "label": "mapping(address => mapping(address => bool))",
        "numberOfBytes": "32",
        "value": "t_mapping(t_address,t_bool)"
      },
      "t_mapping(t_address,t_struct(Counter)3598_storage)": {
        "encoding": "mapping",
        "key": "t_address",
        "label": "mapping(address => struct Counters.Counter)",
        "numberOfBytes": "32",
        "value": "t_struct(Counter)3598_storage"
      },
      "t_mapping(t_address,t_struct(History)2209_storage)": {
        "encoding": "mapping",
        "key": "t_address",
        "label": "mapping(address => struct Checkpoints.History)",
        "numberOfBytes": "32",
        "value": "t_struct(History)2209_storage"
      },
      "t_mapping(t_address,t_uint256)": {
        "encoding": "mapping",
        "key": "t_address",
        "label": "mapping(address => uint256)",
        "numberOfBytes": "32",
        "value": "t_uint256"
      },
      "t_mapping(t_uint256,t_address)": {
        "encoding": "mapping",
        "key": "t_uint256",
        "label": "mapping(uint256 => address)",
        "numberOfBytes": "32",
        "value": "t_address"
      },
      "t_mapping(t_uint256,t_string_storage)": {
        "encoding": "mapping",
        "key": "t_uint256",
        "label": "mapping(uint256 => string)",
        "numberOfBytes": "32",
        "value": "t_string_storage"
      },
      "t_string_storage": {
        "encoding": "bytes",
        "label": "string",
        "numberOfBytes": "32"
      },
      "t_struct(Checkpoint)2214_storage": {
        "encoding": "inplace",
        "label": "struct Checkpoints.Checkpoint",
        "members": [
          {
            "astId": 2211,
            "contract": "contracts/core/UserIdentityNFT.sol:UserIdentityNFT",
            "label": "_blockNumber",
            "offset": 0,
            "slot": "0",
            "type": "t_uint32"
          },
          {
            "astId": 2213,
            "contract": "contracts/core/UserIdentityNFT.sol:UserIdentityNFT",
            "label": "_value",
            "offset": 4,
            "slot": "0",
            "type": "t_uint224"
          }
        ],
        "numberOfBytes": "32"
      },
      "t_struct(Counter)3598_storage": {
        "encoding": "inplace",
        "label": "struct Counters.Counter",
        "members": [
          {
            "astId": 3597,
            "contract": "contracts/core/UserIdentityNFT.sol:UserIdentityNFT",
            "label": "_value",
            "offset": 0,
            "slot": "0",
            "type": "t_uint256"
          }
        ],
        "numberOfBytes": "32"
      },
      "t_struct(History)2209_storage": {
        "encoding": "inplace",
        "label": "struct Checkpoints.History",
        "members": [
          {
            "astId": 2208,
            "contract": "contracts/core/UserIdentityNFT.sol:UserIdentityNFT",
            "label": "_checkpoints",
            "offset": 0,
            "slot": "0",
            "type": "t_array(t_struct(Checkpoint)2214_storage)dyn_storage"
          }
        ],
        "numberOfBytes": "32"
      },
      "t_struct(VerifcaitonRecord)7335_storage": {
        "encoding": "inplace",
        "label": "struct VerifcaitonRecord",
        "members": [
          {
            "astId": 7329,
            "contract": "contracts/core/UserIdentityNFT.sol:UserIdentityNFT",
            "label": "userId",
            "offset": 0,
            "slot": "0",
            "type": "t_bytes_storage"
          },
          {
            "astId": 7331,
            "contract": "contracts/core/UserIdentityNFT.sol:UserIdentityNFT",
            "label": "numberTries",
            "offset": 0,
            "slot": "1",
            "type": "t_uint256"
          },
          {
            "astId": 7334,
            "contract": "contracts/core/UserIdentityNFT.sol:UserIdentityNFT",
            "label": "status",
            "offset": 0,
            "slot": "2",
            "type": "t_enum(VerficationStatus)7340"
          }
        ],
        "numberOfBytes": "96"
      },
      "t_uint224": {
        "encoding": "inplace",
        "label": "uint224",
        "numberOfBytes": "28"
      },
      "t_uint256": {
        "encoding": "inplace",
        "label": "uint256",
        "numberOfBytes": "32"
      },
      "t_uint32": {
        "encoding": "inplace",
        "label": "uint32",
        "numberOfBytes": "4"
      }
    }
  }
}