{
  "address": "0xe7f1725E7734CE288F8367e1Bb143E90bb3F0512",
  "abi": [
    {
      "inputs": [
        {
          "internalType": "string",
          "name": "name",
          "type": "string"
        },
        {
          "internalType": "string",
          "name": "symbol",
          "type": "string"
        },
        {
          "internalType": "string",
          "name": "signingDomain",
          "type": "string"
        },
        {
          "internalType": "string",
          "name": "signatureVersion",
          "type": "string"
        }
      ],
      "stateMutability": "nonpayable",
      "type": "constructor"
    },
    {
      "inputs": [
        {
          "internalType": "uint256",
          "name": "tokenId",
          "type": "uint256"
        },
        {
          "internalType": "address",
          "name": "from",
          "type": "address"
        }
      ],
      "name": "UserIdentityNFT__DirectMintNotAllow",
      "type": "error"
    },
    {
      "inputs": [],
      "name": "UserIdentityNFT__FirstVerifyIdenetity",
      "type": "error"
    },
    {
      "inputs": [],
      "name": "UserIdentityNFT__NotValidUserToRedeem",
      "type": "error"
    },
    {
      "inputs": [
        {
          "internalType": "uint256",
          "name": "tokenId",
          "type": "uint256"
        },
        {
          "internalType": "address",
          "name": "from",
          "type": "address"
        }
      ],
      "name": "UserIdentityNFT__TransferNoAllowed",
      "type": "error"
    },
    {
      "inputs": [
        {
          "internalType": "address",
          "name": "userAddress",
          "type": "address"
        }
      ],
      "name": "UserIdentityNFT__UserIdAlreadyIssued",
      "type": "error"
    },
    {
      "inputs": [],
      "name": "UserIdentityNFT__VerficationStillFail",
      "type": "error"
    },
    {
      "inputs": [],
      "name": "UserIdentityNFT__VerficationStillPending",
      "type": "error"
    },
    {
      "anonymous": false,
      "inputs": [
        {
          "indexed": true,
          "internalType": "address",
          "name": "owner",
          "type": "address"
        },
        {
          "indexed": true,
          "internalType": "address",
          "name": "approved",
          "type": "address"
        },
        {
          "indexed": true,
          "internalType": "uint256",
          "name": "tokenId",
          "type": "uint256"
        }
      ],
      "name": "Approval",
      "type": "event"
    },
    {
      "anonymous": false,
      "inputs": [
        {
          "indexed": true,
          "internalType": "address",
          "name": "owner",
          "type": "address"
        },
        {
          "indexed": true,
          "internalType": "address",
          "name": "operator",
          "type": "address"
        },
        {
          "indexed": false,
          "internalType": "bool",
          "name": "approved",
          "type": "bool"
        }
      ],
      "name": "ApprovalForAll",
      "type": "event"
    },
    {
      "anonymous": false,
      "inputs": [
        {
          "indexed": true,
          "internalType": "address",
          "name": "delegator",
          "type": "address"
        },
        {
          "indexed": true,
          "internalType": "address",
          "name": "fromDelegate",
          "type": "address"
        },
        {
          "indexed": true,
          "internalType": "address",
          "name": "toDelegate",
          "type": "address"
        }
      ],
      "name": "DelegateChanged",
      "type": "event"
    },
    {
      "anonymous": false,
      "inputs": [
        {
          "indexed": true,
          "internalType": "address",
          "name": "delegate",
          "type": "address"
        },
        {
          "indexed": false,
          "internalType": "uint256",
          "name": "previousBalance",
          "type": "uint256"
        },
        {
          "indexed": false,
          "internalType": "uint256",
          "name": "newBalance",
          "type": "uint256"
        }
      ],
      "name": "DelegateVotesChanged",
      "type": "event"
    },
    {
      "anonymous": false,
      "inputs": [
        {
          "indexed": true,
          "internalType": "bytes",
          "name": "userId",
          "type": "bytes"
        },
        {
          "indexed": false,
          "internalType": "address",
          "name": "userAddres",
          "type": "address"
        }
      ],
      "name": "IdVerifedAndIssued",
      "type": "event"
    },
    {
      "anonymous": false,
      "inputs": [
        {
          "indexed": false,
          "internalType": "address",
          "name": "figureprintOracle",
          "type": "address"
        }
      ],
      "name": "SetFingerPrintAddress",
      "type": "event"
    },
    {
      "anonymous": false,
      "inputs": [
        {
          "indexed": true,
          "internalType": "address",
          "name": "from",
          "type": "address"
        },
        {
          "indexed": true,
          "internalType": "address",
          "name": "to",
          "type": "address"
        },
        {
          "indexed": true,
          "internalType": "uint256",
          "name": "tokenId",
          "type": "uint256"
        }
      ],
      "name": "Transfer",
      "type": "event"
    },
    {
      "inputs": [],
      "name": "CLAME_USERID_VOUCHER",
      "outputs": [
        {
          "internalType": "bytes32",
          "name": "",
          "type": "bytes32"
        }
      ],
      "stateMutability": "view",
      "type": "function"
    },
    {
      "inputs": [],
      "name": "DOMAIN_SEPARATOR",
      "outputs": [
        {
          "internalType": "bytes32",
          "name": "",
          "type": "bytes32"
        }
      ],
      "stateMutability": "view",
      "type": "function"
    },
    {
      "inputs": [
        {
          "internalType": "address",
          "name": "to",
          "type": "address"
        },
        {
          "internalType": "uint256",
          "name": "tokenId",
          "type": "uint256"
        }
      ],
      "name": "approve",
      "outputs": [],
      "stateMutability": "nonpayable",
      "type": "function"
    },
    {
      "inputs": [
        {
          "internalType": "address",
          "name": "owner",
          "type": "address"
        }
      ],
      "name": "balanceOf",
      "outputs": [
        {
          "internalType": "uint256",
          "name": "",
          "type": "uint256"
        }
      ],
      "stateMutability": "view",
      "type": "function"
    },
    {
      "inputs": [],
      "name": "checkBalance",
      "outputs": [],
      "stateMutability": "view",
      "type": "function"
    },
    {
      "inputs": [],
      "name": "createSimpleNFT",
      "outputs": [],
      "stateMutability": "nonpayable",
      "type": "function"
    },
    {
      "inputs": [
        {
          "internalType": "address",
          "name": "delegatee",
          "type": "address"
        }
      ],
      "name": "delegate",
      "outputs": [],
      "stateMutability": "nonpayable",
      "type": "function"
    },
    {
      "inputs": [
        {
          "internalType": "address",
          "name": "delegatee",
          "type": "address"
        },
        {
          "internalType": "uint256",
          "name": "nonce",
          "type": "uint256"
        },
        {
          "internalType": "uint256",
          "name": "expiry",
          "type": "uint256"
        },
        {
          "internalType": "uint8",
          "name": "v",
          "type": "uint8"
        },
        {
          "internalType": "bytes32",
          "name": "r",
          "type": "bytes32"
        },
        {
          "internalType": "bytes32",
          "name": "s",
          "type": "bytes32"
        }
      ],
      "name": "delegateBySig",
      "outputs": [],
      "stateMutability": "nonpayable",
      "type": "function"
    },
    {
      "inputs": [
        {
          "internalType": "address",
          "name": "account",
          "type": "address"
        }
      ],
      "name": "delegates",
      "outputs": [
        {
          "internalType": "address",
          "name": "",
          "type": "address"
        }
      ],
      "stateMutability": "view",
      "type": "function"
    },
    {
      "inputs": [
        {
          "internalType": "uint256",
          "name": "tokenId",
          "type": "uint256"
        }
      ],
      "name": "getApproved",
      "outputs": [
        {
          "internalType": "address",
          "name": "",
          "type": "address"
        }
      ],
      "stateMutability": "view",
      "type": "function"
    },
    {
      "inputs": [],
      "name": "getFingerPrintAddress",
      "outputs": [
        {
          "internalType": "address",
          "name": "",
          "type": "address"
        }
      ],
      "stateMutability": "view",
      "type": "function"
    },
    {
      "inputs": [],
      "name": "getIdCount",
      "outputs": [
        {
          "internalType": "uint256",
          "name": "",
          "type": "uint256"
        }
      ],
      "stateMutability": "view",
      "type": "function"
    },
    {
      "inputs": [
        {
          "internalType": "uint256",
          "name": "blockNumber",
          "type": "uint256"
        }
      ],
      "name": "getPastTotalSupply",
      "outputs": [
        {
          "internalType": "uint256",
          "name": "",
          "type": "uint256"
        }
      ],
      "stateMutability": "view",
      "type": "function"
    },
    {
      "inputs": [
        {
          "internalType": "address",
          "name": "account",
          "type": "address"
        },
        {
          "internalType": "uint256",
          "name": "blockNumber",
          "type": "uint256"
        }
      ],
      "name": "getPastVotes",
      "outputs": [
        {
          "internalType": "uint256",
          "name": "",
          "type": "uint256"
        }
      ],
      "stateMutability": "view",
      "type": "function"
    },
    {
      "inputs": [
        {
          "internalType": "address",
          "name": "account",
          "type": "address"
        }
      ],
      "name": "getVotes",
      "outputs": [
        {
          "internalType": "uint256",
          "name": "",
          "type": "uint256"
        }
      ],
      "stateMutability": "view",
      "type": "function"
    },
    {
      "inputs": [
        {
          "internalType": "address",
          "name": "owner",
          "type": "address"
        },
        {
          "internalType": "address",
          "name": "operator",
          "type": "address"
        }
      ],
      "name": "isApprovedForAll",
      "outputs": [
        {
          "internalType": "bool",
          "name": "",
          "type": "bool"
        }
      ],
      "stateMutability": "view",
      "type": "function"
    },
    {
      "inputs": [],
      "name": "name",
      "outputs": [
        {
          "internalType": "string",
          "name": "",
          "type": "string"
        }
      ],
      "stateMutability": "view",
      "type": "function"
    },
    {
      "inputs": [
        {
          "internalType": "address",
          "name": "owner",
          "type": "address"
        }
      ],
      "name": "nonces",
      "outputs": [
        {
          "internalType": "uint256",
          "name": "",
          "type": "uint256"
        }
      ],
      "stateMutability": "view",
      "type": "function"
    },
    {
      "inputs": [
        {
          "internalType": "uint256",
          "name": "tokenId",
          "type": "uint256"
        }
      ],
      "name": "ownerOf",
      "outputs": [
        {
          "internalType": "address",
          "name": "",
          "type": "address"
        }
      ],
      "stateMutability": "view",
      "type": "function"
    },
    {
      "inputs": [
        {
          "components": [
            {
              "internalType": "string",
              "name": "uri",
              "type": "string"
            },
            {
              "internalType": "bytes",
              "name": "userId",
              "type": "bytes"
            },
            {
              "internalType": "bytes",
              "name": "fingerPrint",
              "type": "bytes"
            },
            {
              "internalType": "bytes",
              "name": "signature",
              "type": "bytes"
            }
          ],
          "internalType": "struct UserIdVoucher",
          "name": "voucher",
          "type": "tuple"
        }
      ],
      "name": "redeem",
      "outputs": [],
      "stateMutability": "nonpayable",
      "type": "function"
    },
    {
      "inputs": [
        {
          "internalType": "address",
          "name": "from",
          "type": "address"
        },
        {
          "internalType": "address",
          "name": "to",
          "type": "address"
        },
        {
          "internalType": "uint256",
          "name": "tokenId",
          "type": "uint256"
        }
      ],
      "name": "safeTransferFrom",
      "outputs": [],
      "stateMutability": "nonpayable",
      "type": "function"
    },
    {
      "inputs": [
        {
          "internalType": "address",
          "name": "from",
          "type": "address"
        },
        {
          "internalType": "address",
          "name": "to",
          "type": "address"
        },
        {
          "internalType": "uint256",
          "name": "tokenId",
          "type": "uint256"
        },
        {
          "internalType": "bytes",
          "name": "data",
          "type": "bytes"
        }
      ],
      "name": "safeTransferFrom",
      "outputs": [],
      "stateMutability": "nonpayable",
      "type": "function"
    },
    {
      "inputs": [
        {
          "internalType": "address",
          "name": "operator",
          "type": "address"
        },
        {
          "internalType": "bool",
          "name": "approved",
          "type": "bool"
        }
      ],
      "name": "setApprovalForAll",
      "outputs": [],
      "stateMutability": "nonpayable",
      "type": "function"
    },
    {
      "inputs": [
        {
          "internalType": "address",
          "name": "_fingerPrintAddress",
          "type": "address"
        }
      ],
      "name": "setFingerPrintAddress",
      "outputs": [],
      "stateMutability": "nonpayable",
      "type": "function"
    },
    {
      "inputs": [
        {
          "internalType": "bytes4",
          "name": "interfaceId",
          "type": "bytes4"
        }
      ],
      "name": "supportsInterface",
      "outputs": [
        {
          "internalType": "bool",
          "name": "",
          "type": "bool"
        }
      ],
      "stateMutability": "view",
      "type": "function"
    },
    {
      "inputs": [],
      "name": "symbol",
      "outputs": [
        {
          "internalType": "string",
          "name": "",
          "type": "string"
        }
      ],
      "stateMutability": "view",
      "type": "function"
    },
    {
      "inputs": [
        {
          "internalType": "uint256",
          "name": "tokenId",
          "type": "uint256"
        }
      ],
      "name": "tokenURI",
      "outputs": [
        {
          "internalType": "string",
          "name": "",
          "type": "string"
        }
      ],
      "stateMutability": "view",
      "type": "function"
    },
    {
      "inputs": [
        {
          "internalType": "address",
          "name": "from",
          "type": "address"
        },
        {
          "internalType": "address",
          "name": "",
          "type": "address"
        },
        {
          "internalType": "uint256",
          "name": "tokenId",
          "type": "uint256"
        }
      ],
      "name": "transferFrom",
      "outputs": [],
      "stateMutability": "nonpayable",
      "type": "function"
    },
    {
      "inputs": [
        {
          "internalType": "bytes",
          "name": "userId",
          "type": "bytes"
        },
        {
          "internalType": "bytes",
          "name": "fingerPrint",
          "type": "bytes"
        }
      ],
      "name": "verifyFingerPrint",
      "outputs": [],
      "stateMutability": "nonpayable",
      "type": "function"
    },
    {
      "inputs": [
        {
          "components": [
            {
              "internalType": "string",
              "name": "uri",
              "type": "string"
            },
            {
              "internalType": "bytes",
              "name": "userId",
              "type": "bytes"
            },
            {
              "internalType": "bytes",
              "name": "fingerPrint",
              "type": "bytes"
            },
            {
              "internalType": "bytes",
              "name": "signature",
              "type": "bytes"
            }
          ],
          "internalType": "struct UserIdVoucher",
          "name": "voucher",
          "type": "tuple"
        }
      ],
      "name": "verifySignature",
      "outputs": [
        {
          "internalType": "address",
          "name": "",
          "type": "address"
        }
      ],
      "stateMutability": "view",
      "type": "function"
    }
  ],
  "transactionHash": "0xc7143e5683a94ee8e77f04db8e4faf894d39cb00e929a1194d2dce8b6d254e9c",
  "args": [
    "User-Identity",
    "786",
    "User-Identity",
    "1"
  ],
  "numDeployments": 1,
  "solcInputHash": "8a41333c9741c50e8069609b6c9dc9d7",
  "bytecode": "0x6101406040523480156200001257600080fd5b5060405162006f7b38038062006f7b833981810160405281019062000038919062001153565b8181858581600090816200004d91906200148c565b5080600190816200005f91906200148c565b505050600160078190555060008280519060200120905060008280519060200120905060007f8b73c3c69bb8fe3d512ecc4cf759cc79239f7b179b0ffacaa9a75d522b39400f90508260e081815250508161010081815250504660a08181525050620000d38184846200017060201b60201c565b608081815250503073ffffffffffffffffffffffffffffffffffffffff1660c08173ffffffffffffffffffffffffffffffffffffffff1681525050806101208181525050505050505062000133600c620001ac60201b620015411760201c565b60006200014c600c620001c260201b620015571760201c565b9050620001653382620001d060201b620015651760201c565b5050505050620019aa565b600083838346306040516020016200018d959493929190620015e4565b6040516020818303038152906040528051906020012090509392505050565b6001816000016000828254019250508190555050565b600081600001549050919050565b600073ffffffffffffffffffffffffffffffffffffffff168273ffffffffffffffffffffffffffffffffffffffff160362000242576040517f08c379a00000000000000000000000000000000000000000000000000000000081526004016200023990620016a2565b60405180910390fd5b62000253816200041660201b60201c565b1562000296576040517f08c379a00000000000000000000000000000000000000000000000000000000081526004016200028d9062001714565b60405180910390fd5b620002ac6000838360016200045f60201b60201c565b620002bd816200041660201b60201c565b1562000300576040517f08c379a0000000000000000000000000000000000000000000000000000000008152600401620002f79062001714565b60405180910390fd5b6001600360008473ffffffffffffffffffffffffffffffffffffffff1673ffffffffffffffffffffffffffffffffffffffff16815260200190815260200160002060008282540192505081905550816002600083815260200190815260200160002060006101000a81548173ffffffffffffffffffffffffffffffffffffffff021916908373ffffffffffffffffffffffffffffffffffffffff160217905550808273ffffffffffffffffffffffffffffffffffffffff16600073ffffffffffffffffffffffffffffffffffffffff167fddf252ad1be2c89b69c2b068fc378daa952ba7f163c4a11628f55a4df523b3ef60405160405180910390a4620004126000838360016200058c60201b60201c565b5050565b60008073ffffffffffffffffffffffffffffffffffffffff166200044083620005ab60201b60201c565b73ffffffffffffffffffffffffffffffffffffffff1614159050919050565b60018111156200058657600073ffffffffffffffffffffffffffffffffffffffff168473ffffffffffffffffffffffffffffffffffffffff1614620004f75780600360008673ffffffffffffffffffffffffffffffffffffffff1673ffffffffffffffffffffffffffffffffffffffff1681526020019081526020016000206000828254620004ef919062001765565b925050819055505b600073ffffffffffffffffffffffffffffffffffffffff168373ffffffffffffffffffffffffffffffffffffffff1614620005855780600360008573ffffffffffffffffffffffffffffffffffffffff1673ffffffffffffffffffffffffffffffffffffffff16815260200190815260200160002060008282546200057d9190620017a0565b925050819055505b5b50505050565b620005a584848484620005e860201b620017821760201c565b50505050565b60006002600083815260200190815260200160002060009054906101000a900473ffffffffffffffffffffffffffffffffffffffff169050919050565b620005fb8484836200061a60201b60201c565b62000614848484846200071260201b6200179f1760201c565b50505050565b600073ffffffffffffffffffffffffffffffffffffffff168373ffffffffffffffffffffffffffffffffffffffff16036200067a57620006776200071860201b620017a51782600a6200073060201b620017bb179092919060201c565b50505b600073ffffffffffffffffffffffffffffffffffffffff168273ffffffffffffffffffffffffffffffffffffffff1603620006da57620006d76200078a60201b620018071782600a6200073060201b620017bb179092919060201c565b50505b6200070d620006ef84620007a260201b60201c565b6200070084620007a260201b60201c565b836200080b60201b60201c565b505050565b50505050565b60008183620007289190620017a0565b905092915050565b6000806200077e85620007726200074d8862000a4060201b60201c565b7bffffffffffffffffffffffffffffffffffffffffffffffffffffffff16868860201c565b62000ab660201b60201c565b91509150935093915050565b600081836200079a919062001765565b905092915050565b6000600860008373ffffffffffffffffffffffffffffffffffffffff1673ffffffffffffffffffffffffffffffffffffffff16815260200190815260200160002060009054906101000a900473ffffffffffffffffffffffffffffffffffffffff169050919050565b8173ffffffffffffffffffffffffffffffffffffffff168373ffffffffffffffffffffffffffffffffffffffff1614158015620008485750600081115b1562000a3b57600073ffffffffffffffffffffffffffffffffffffffff168373ffffffffffffffffffffffffffffffffffffffff16146200094457600080620008eb6200078a60201b620018071784600960008973ffffffffffffffffffffffffffffffffffffffff1673ffffffffffffffffffffffffffffffffffffffff1681526020019081526020016000206200073060201b620017bb179092919060201c565b915091508473ffffffffffffffffffffffffffffffffffffffff167fdec2bacdd2f05b59de34da9b523dff8be42e5e38e818c82fdb0bae774387a724838360405162000939929190620017db565b60405180910390a250505b600073ffffffffffffffffffffffffffffffffffffffff168273ffffffffffffffffffffffffffffffffffffffff161462000a3a57600080620009e16200071860201b620017a51784600960008873ffffffffffffffffffffffffffffffffffffffff1673ffffffffffffffffffffffffffffffffffffffff1681526020019081526020016000206200073060201b620017bb179092919060201c565b915091508373ffffffffffffffffffffffffffffffffffffffff167fdec2bacdd2f05b59de34da9b523dff8be42e5e38e818c82fdb0bae774387a724838360405162000a2f929190620017db565b60405180910390a250505b5b505050565b600080826000018054905090506000811462000aab5762000a798360000160018362000a6d919062001765565b62000b4660201b60201c565b60000160049054906101000a90047bffffffffffffffffffffffffffffffffffffffffffffffffffffffff1662000aae565b60005b915050919050565b60008062000af98460000162000ad74362000b5b60201b6200181d1760201c565b62000aed8662000bb160201b620018701760201c565b62000c1f60201b60201c565b817bffffffffffffffffffffffffffffffffffffffffffffffffffffffff169150807bffffffffffffffffffffffffffffffffffffffffffffffffffffffff169050915091509250929050565b60008260005281602060002001905092915050565b600063ffffffff801682111562000ba9576040517f08c379a000000000000000000000000000000000000000000000000000000000815260040162000ba0906200187e565b60405180910390fd5b819050919050565b60007bffffffffffffffffffffffffffffffffffffffffffffffffffffffff801682111562000c17576040517f08c379a000000000000000000000000000000000000000000000000000000000815260040162000c0e9062001916565b60405180910390fd5b819050919050565b600080600085805490509050600081111562000ed057600062000c578760018462000c4b919062001765565b62000b4660201b60201c565b6040518060400160405290816000820160009054906101000a900463ffffffff1663ffffffff1663ffffffff1681526020016000820160049054906101000a90047bffffffffffffffffffffffffffffffffffffffffffffffffffffffff167bffffffffffffffffffffffffffffffffffffffffffffffffffffffff167bffffffffffffffffffffffffffffffffffffffffffffffffffffffff168152505090508563ffffffff16816000015163ffffffff16111562000d4e576040517f08c379a000000000000000000000000000000000000000000000000000000000815260040162000d459062001988565b60405180910390fd5b8563ffffffff16816000015163ffffffff160362000dde578462000d878860018562000d7b919062001765565b62000b4660201b60201c565b60000160046101000a8154817bffffffffffffffffffffffffffffffffffffffffffffffffffffffff02191690837bffffffffffffffffffffffffffffffffffffffffffffffffffffffff16021790555062000ebe565b8660405180604001604052808863ffffffff168152602001877bffffffffffffffffffffffffffffffffffffffffffffffffffffffff168152509080600181540180825580915050600190039060005260206000200160009091909190915060008201518160000160006101000a81548163ffffffff021916908363ffffffff16021790555060208201518160000160046101000a8154817bffffffffffffffffffffffffffffffffffffffffffffffffffffffff02191690837bffffffffffffffffffffffffffffffffffffffffffffffffffffffff16021790555050505b80602001518593509350505062000fb8565b8560405180604001604052808763ffffffff168152602001867bffffffffffffffffffffffffffffffffffffffffffffffffffffffff168152509080600181540180825580915050600190039060005260206000200160009091909190915060008201518160000160006101000a81548163ffffffff021916908363ffffffff16021790555060208201518160000160046101000a8154817bffffffffffffffffffffffffffffffffffffffffffffffffffffffff02191690837bffffffffffffffffffffffffffffffffffffffffffffffffffffffff160217905550505060008492509250505b935093915050565b6000604051905090565b600080fd5b600080fd5b600080fd5b600080fd5b6000601f19601f8301169050919050565b7f4e487b7100000000000000000000000000000000000000000000000000000000600052604160045260246000fd5b620010298262000fde565b810181811067ffffffffffffffff821117156200104b576200104a62000fef565b5b80604052505050565b60006200106062000fc0565b90506200106e82826200101e565b919050565b600067ffffffffffffffff82111562001091576200109062000fef565b5b6200109c8262000fde565b9050602081019050919050565b60005b83811015620010c9578082015181840152602081019050620010ac565b60008484015250505050565b6000620010ec620010e68462001073565b62001054565b9050828152602081018484840111156200110b576200110a62000fd9565b5b62001118848285620010a9565b509392505050565b600082601f83011262001138576200113762000fd4565b5b81516200114a848260208601620010d5565b91505092915050565b6000806000806080858703121562001170576200116f62000fca565b5b600085015167ffffffffffffffff81111562001191576200119062000fcf565b5b6200119f8782880162001120565b945050602085015167ffffffffffffffff811115620011c357620011c262000fcf565b5b620011d18782880162001120565b935050604085015167ffffffffffffffff811115620011f557620011f462000fcf565b5b620012038782880162001120565b925050606085015167ffffffffffffffff81111562001227576200122662000fcf565b5b620012358782880162001120565b91505092959194509250565b600081519050919050565b7f4e487b7100000000000000000000000000000000000000000000000000000000600052602260045260246000fd5b600060028204905060018216806200129457607f821691505b602082108103620012aa57620012a96200124c565b5b50919050565b60008190508160005260206000209050919050565b60006020601f8301049050919050565b600082821b905092915050565b600060088302620013147fffffffffffffffffffffffffffffffffffffffffffffffffffffffffffffffff82620012d5565b620013208683620012d5565b95508019841693508086168417925050509392505050565b6000819050919050565b6000819050919050565b60006200136d62001367620013618462001338565b62001342565b62001338565b9050919050565b6000819050919050565b62001389836200134c565b620013a1620013988262001374565b848454620012e2565b825550505050565b600090565b620013b8620013a9565b620013c58184846200137e565b505050565b5b81811015620013ed57620013e1600082620013ae565b600181019050620013cb565b5050565b601f8211156200143c576200140681620012b0565b6200141184620012c5565b8101602085101562001421578190505b620014396200143085620012c5565b830182620013ca565b50505b505050565b600082821c905092915050565b6000620014616000198460080262001441565b1980831691505092915050565b60006200147c83836200144e565b9150826002028217905092915050565b620014978262001241565b67ffffffffffffffff811115620014b357620014b262000fef565b5b620014bf82546200127b565b620014cc828285620013f1565b600060209050601f831160018114620015045760008415620014ef578287015190505b620014fb85826200146e565b8655506200156b565b601f1984166200151486620012b0565b60005b828110156200153e5784890151825560018201915060208501945060208101905062001517565b868310156200155e57848901516200155a601f8916826200144e565b8355505b6001600288020188555050505b505050505050565b6000819050919050565b620015888162001573565b82525050565b620015998162001338565b82525050565b600073ffffffffffffffffffffffffffffffffffffffff82169050919050565b6000620015cc826200159f565b9050919050565b620015de81620015bf565b82525050565b600060a082019050620015fb60008301886200157d565b6200160a60208301876200157d565b6200161960408301866200157d565b6200162860608301856200158e565b620016376080830184620015d3565b9695505050505050565b600082825260208201905092915050565b7f4552433732313a206d696e7420746f20746865207a65726f2061646472657373600082015250565b60006200168a60208362001641565b9150620016978262001652565b602082019050919050565b60006020820190508181036000830152620016bd816200167b565b9050919050565b7f4552433732313a20746f6b656e20616c7265616479206d696e74656400000000600082015250565b6000620016fc601c8362001641565b91506200170982620016c4565b602082019050919050565b600060208201905081810360008301526200172f81620016ed565b9050919050565b7f4e487b7100000000000000000000000000000000000000000000000000000000600052601160045260246000fd5b6000620017728262001338565b91506200177f8362001338565b92508282039050818111156200179a576200179962001736565b5b92915050565b6000620017ad8262001338565b9150620017ba8362001338565b9250828201905080821115620017d557620017d462001736565b5b92915050565b6000604082019050620017f260008301856200158e565b6200180160208301846200158e565b9392505050565b7f53616665436173743a2076616c756520646f65736e27742066697420696e203360008201527f3220626974730000000000000000000000000000000000000000000000000000602082015250565b60006200186660268362001641565b9150620018738262001808565b604082019050919050565b60006020820190508181036000830152620018998162001857565b9050919050565b7f53616665436173743a2076616c756520646f65736e27742066697420696e203260008201527f3234206269747300000000000000000000000000000000000000000000000000602082015250565b6000620018fe60278362001641565b91506200190b82620018a0565b604082019050919050565b600060208201905081810360008301526200193181620018ef565b9050919050565b7f436865636b706f696e743a20696e76616c6964206b6579000000000000000000600082015250565b60006200197060178362001641565b91506200197d8262001938565b602082019050919050565b60006020820190508181036000830152620019a38162001961565b9050919050565b60805160a05160c05160e0516101005161012051615581620019fa6000396000611aff01526000611b4101526000611b2001526000611a5501526000611aab01526000611ad401526155816000f3fe608060405234801561001057600080fd5b50600436106101da5760003560e01c806373f2d27211610104578063b88d4fde116100a2578063c87b56dd11610071578063c87b56dd14610565578063d63222c314610595578063db5890ee146105b1578063e985e9c5146105cf576101da565b8063b88d4fde14610505578063c3a50d2c14610521578063c3cda5201461053f578063c71daccb1461055b576101da565b80638e539e8c116100de5780638e539e8c1461046b57806395d89b411461049b5780639ab24eb0146104b9578063a22cb465146104e9576101da565b806373f2d272146103ed5780637ecebe001461040b5780638483de561461043b576101da565b80633a46b1a81161017c5780635c19a95c1161014b5780635c19a95c146103555780636352211e14610371578063696efb85146103a157806370a08231146103bd576101da565b80633a46b1a8146102cf57806342842e0e146102ff5780634f9179b31461031b578063587cde1e14610325576101da565b8063095ea7b3116101b8578063095ea7b31461025d57806323b872dd146102795780633644e515146102955780633a089942146102b3576101da565b806301ffc9a7146101df57806306fdde031461020f578063081812fc1461022d575b600080fd5b6101f960048036038101906101f4919061399d565b6105ff565b60405161020691906139e5565b60405180910390f35b6102176106e1565b6040516102249190613a90565b60405180910390f35b61024760048036038101906102429190613ae8565b610773565b6040516102549190613b56565b60405180910390f35b61027760048036038101906102729190613b9d565b6107b9565b005b610293600480360381019061028e9190613bdd565b6108d0565b005b61029d61090f565b6040516102aa9190613c49565b60405180910390f35b6102cd60048036038101906102c89190613d99565b61091e565b005b6102e960048036038101906102e49190613b9d565b610a08565b6040516102f69190613e20565b60405180910390f35b61031960048036038101906103149190613bdd565b610a63565b005b610323610a83565b005b61033f600480360381019061033a9190613e3b565b610ae7565b60405161034c9190613b56565b60405180910390f35b61036f600480360381019061036a9190613e3b565b610b50565b005b61038b60048036038101906103869190613ae8565b610b6a565b6040516103989190613b56565b60405180910390f35b6103bb60048036038101906103b69190613e8c565b610bf0565b005b6103d760048036038101906103d29190613e3b565b610efc565b6040516103e49190613e20565b60405180910390f35b6103f5610fb3565b6040516104029190613c49565b60405180910390f35b61042560048036038101906104209190613e3b565b610fd6565b6040516104329190613e20565b60405180910390f35b61045560048036038101906104509190613e8c565b611026565b6040516104629190613b56565b60405180910390f35b61048560048036038101906104809190613ae8565b611098565b6040516104929190613e20565b60405180910390f35b6104a36110f7565b6040516104b09190613a90565b60405180910390f35b6104d360048036038101906104ce9190613e3b565b611189565b6040516104e09190613e20565b60405180910390f35b61050360048036038101906104fe9190613f01565b6111f7565b005b61051f600480360381019061051a9190613f41565b61120d565b005b61052961126f565b6040516105369190613b56565b60405180910390f35b61055960048036038101906105549190614029565b611299565b005b61056361139d565b005b61057f600480360381019061057a9190613ae8565b6113ed565b60405161058c9190613a90565b60405180910390f35b6105af60048036038101906105aa9190613e3b565b6113ff565b005b6105b961149c565b6040516105c69190613e20565b60405180910390f35b6105e960048036038101906105e491906140b6565b6114ad565b6040516105f691906139e5565b60405180910390f35b60007f80ac58cd000000000000000000000000000000000000000000000000000000007bffffffffffffffffffffffffffffffffffffffffffffffffffffffff1916827bffffffffffffffffffffffffffffffffffffffffffffffffffffffff191614806106ca57507f5b5e139f000000000000000000000000000000000000000000000000000000007bffffffffffffffffffffffffffffffffffffffffffffffffffffffff1916827bffffffffffffffffffffffffffffffffffffffffffffffffffffffff1916145b806106da57506106d9826118db565b5b9050919050565b6060600080546106f090614125565b80601f016020809104026020016040519081016040528092919081815260200182805461071c90614125565b80156107695780601f1061073e57610100808354040283529160200191610769565b820191906000526020600020905b81548152906001019060200180831161074c57829003601f168201915b5050505050905090565b600061077e82611945565b6004600083815260200190815260200160002060009054906101000a900473ffffffffffffffffffffffffffffffffffffffff169050919050565b60006107c482610b6a565b90508073ffffffffffffffffffffffffffffffffffffffff168373ffffffffffffffffffffffffffffffffffffffff1603610834576040517f08c379a000000000000000000000000000000000000000000000000000000000815260040161082b906141c8565b60405180910390fd5b8073ffffffffffffffffffffffffffffffffffffffff16610853611990565b73ffffffffffffffffffffffffffffffffffffffff16148061088257506108818161087c611990565b6114ad565b5b6108c1576040517f08c379a00000000000000000000000000000000000000000000000000000000081526004016108b89061425a565b60405180910390fd5b6108cb8383611998565b505050565b80836040517f205e684800000000000000000000000000000000000000000000000000000000815260040161090692919061427a565b60405180910390fd5b6000610919611a51565b905090565b61092661139d565b600d60009054906101000a900473ffffffffffffffffffffffffffffffffffffffff1673ffffffffffffffffffffffffffffffffffffffff1663f0aca8223384846040518463ffffffff1660e01b8152600401610985939291906142f8565b600060405180830381600087803b15801561099f57600080fd5b505af11580156109b3573d6000803e3d6000fd5b50505050816040516109c59190614379565b60405180910390207fa98aec5c4ec5237f4092b86df30fd24a9675fa7452542e9fab92c30d396953c1336040516109fc9190613b56565b60405180910390a25050565b6000610a5b82600960008673ffffffffffffffffffffffffffffffffffffffff1673ffffffffffffffffffffffffffffffffffffffff168152602001908152602001600020611b6b90919063ffffffff16565b905092915050565b610a7e8383836040518060200160405280600081525061120d565b505050565b610a8d600c611541565b6000610a99600c611557565b9050610aa53382611565565b610ae4816040518060400160405280600881526020017f7465737420757269000000000000000000000000000000000000000000000000815250611cd0565b50565b6000600860008373ffffffffffffffffffffffffffffffffffffffff1673ffffffffffffffffffffffffffffffffffffffff16815260200190815260200160002060009054906101000a900473ffffffffffffffffffffffffffffffffffffffff169050919050565b6000610b5a611990565b9050610b668183611d3d565b5050565b600080610b7683611e51565b9050600073ffffffffffffffffffffffffffffffffffffffff168173ffffffffffffffffffffffffffffffffffffffff1603610be7576040517f08c379a0000000000000000000000000000000000000000000000000000000008152600401610bde906143dc565b60405180910390fd5b80915050919050565b6000600d60009054906101000a900473ffffffffffffffffffffffffffffffffffffffff1673ffffffffffffffffffffffffffffffffffffffff166367e2efc6336040518263ffffffff1660e01b8152600401610c4d9190613b56565b602060405180830381865afa158015610c6a573d6000803e3d6000fd5b505050506040513d601f19601f82011682018060405250810190610c8e9190614421565b905060006003811115610ca457610ca361444e565b5b816003811115610cb757610cb661444e565b5b03610cee576040517f2efca46300000000000000000000000000000000000000000000000000000000815260040160405180910390fd5b60016003811115610d0257610d0161444e565b5b816003811115610d1557610d1461444e565b5b03610d4c576040517fcc260bff00000000000000000000000000000000000000000000000000000000815260040160405180910390fd5b600380811115610d5f57610d5e61444e565b5b816003811115610d7257610d7161444e565b5b03610da9576040517f7236ca2f00000000000000000000000000000000000000000000000000000000815260040160405180910390fd5b6000610db483611026565b90503373ffffffffffffffffffffffffffffffffffffffff168173ffffffffffffffffffffffffffffffffffffffff1614610e1b576040517fc2f3d34f00000000000000000000000000000000000000000000000000000000815260040160405180910390fd5b610e25600c611541565b6000610e31600c611557565b9050610e3d3382611565565b610e9981858060000190610e51919061448c565b8080601f016020809104026020016040519081016040528093929190818152602001838380828437600081840152601f19601f82011690508083019250505050505050611cd0565b838060200190610ea991906144ef565b604051610eb7929190614577565b60405180910390207fa98aec5c4ec5237f4092b86df30fd24a9675fa7452542e9fab92c30d396953c133604051610eee9190613b56565b60405180910390a250505050565b60008073ffffffffffffffffffffffffffffffffffffffff168273ffffffffffffffffffffffffffffffffffffffff1603610f6c576040517f08c379a0000000000000000000000000000000000000000000000000000000008152600401610f6390614602565b60405180910390fd5b600360008373ffffffffffffffffffffffffffffffffffffffff1673ffffffffffffffffffffffffffffffffffffffff168152602001908152602001600020549050919050565b7e5165dbde6c98ff3dd217e399994c50c9b2dcb0e924050ef97159c4f0f162a681565b600061101f600b60008473ffffffffffffffffffffffffffffffffffffffff1673ffffffffffffffffffffffffffffffffffffffff168152602001908152602001600020611557565b9050919050565b60008061103283611e8e565b90506110908184806060019061104891906144ef565b8080601f016020809104026020016040519081016040528093929190818152602001838380828437600081840152601f19601f82011690508083019250505050505050611f5a565b915050919050565b60004382106110dc576040517f08c379a00000000000000000000000000000000000000000000000000000000081526004016110d39061466e565b60405180910390fd5b6110f082600a611b6b90919063ffffffff16565b9050919050565b60606001805461110690614125565b80601f016020809104026020016040519081016040528092919081815260200182805461113290614125565b801561117f5780601f106111545761010080835404028352916020019161117f565b820191906000526020600020905b81548152906001019060200180831161116257829003601f168201915b5050505050905090565b60006111d2600960008473ffffffffffffffffffffffffffffffffffffffff1673ffffffffffffffffffffffffffffffffffffffff168152602001908152602001600020611f81565b7bffffffffffffffffffffffffffffffffffffffffffffffffffffffff169050919050565b611209611202611990565b8383611feb565b5050565b61121e611218611990565b83612157565b61125d576040517f08c379a000000000000000000000000000000000000000000000000000000000815260040161125490614700565b60405180910390fd5b611269848484846121ec565b50505050565b6000600d60009054906101000a900473ffffffffffffffffffffffffffffffffffffffff16905090565b834211156112dc576040517f08c379a00000000000000000000000000000000000000000000000000000000081526004016112d39061476c565b60405180910390fd5b600061133e6113367fe48329057bfd03d55e49b547132e39cffd9c1820ad7b9d4c5307691425d15adf89898960405160200161131b949392919061478c565b60405160208183030381529060405280519060200120612248565b858585612262565b90506113498161228d565b861461138a576040517f08c379a00000000000000000000000000000000000000000000000000000000081526004016113819061481d565b60405180910390fd5b6113948188611d3d565b50505050505050565b60006113a833610efc565b11156113eb57336040517fb11f365d0000000000000000000000000000000000000000000000000000000081526004016113e29190613b56565b60405180910390fd5b565b60606113f8826122eb565b9050919050565b80600d60006101000a81548173ffffffffffffffffffffffffffffffffffffffff021916908373ffffffffffffffffffffffffffffffffffffffff1602179055507f68c6068f1a9762fde9efd004732692b2cceb4178e20930aae263dd5b52154408600d60009054906101000a900473ffffffffffffffffffffffffffffffffffffffff166040516114919190613b56565b60405180910390a150565b60006114a8600c611557565b905090565b6000600560008473ffffffffffffffffffffffffffffffffffffffff1673ffffffffffffffffffffffffffffffffffffffff16815260200190815260200160002060008373ffffffffffffffffffffffffffffffffffffffff1673ffffffffffffffffffffffffffffffffffffffff16815260200190815260200160002060009054906101000a900460ff16905092915050565b6001816000016000828254019250508190555050565b600081600001549050919050565b600073ffffffffffffffffffffffffffffffffffffffff168273ffffffffffffffffffffffffffffffffffffffff16036115d4576040517f08c379a00000000000000000000000000000000000000000000000000000000081526004016115cb90614889565b60405180910390fd5b6115dd816123fd565b1561161d576040517f08c379a0000000000000000000000000000000000000000000000000000000008152600401611614906148f5565b60405180910390fd5b61162b60008383600161243e565b611634816123fd565b15611674576040517f08c379a000000000000000000000000000000000000000000000000000000000815260040161166b906148f5565b60405180910390fd5b6001600360008473ffffffffffffffffffffffffffffffffffffffff1673ffffffffffffffffffffffffffffffffffffffff16815260200190815260200160002060008282540192505081905550816002600083815260200190815260200160002060006101000a81548173ffffffffffffffffffffffffffffffffffffffff021916908373ffffffffffffffffffffffffffffffffffffffff160217905550808273ffffffffffffffffffffffffffffffffffffffff16600073ffffffffffffffffffffffffffffffffffffffff167fddf252ad1be2c89b69c2b068fc378daa952ba7f163c4a11628f55a4df523b3ef60405160405180910390a461177e600083836001612564565b5050565b61178d848483612576565b6117998484848461179f565b50505050565b50505050565b600081836117b39190614944565b905092915050565b6000806117fb856117f66117ce88611f81565b7bffffffffffffffffffffffffffffffffffffffffffffffffffffffff16868863ffffffff16565b612634565b91509150935093915050565b600081836118159190614978565b905092915050565b600063ffffffff8016821115611868576040517f08c379a000000000000000000000000000000000000000000000000000000000815260040161185f90614a1e565b60405180910390fd5b819050919050565b60007bffffffffffffffffffffffffffffffffffffffffffffffffffffffff80168211156118d3576040517f08c379a00000000000000000000000000000000000000000000000000000000081526004016118ca90614ab0565b60405180910390fd5b819050919050565b60007f01ffc9a7000000000000000000000000000000000000000000000000000000007bffffffffffffffffffffffffffffffffffffffffffffffffffffffff1916827bffffffffffffffffffffffffffffffffffffffffffffffffffffffff1916149050919050565b61194e816123fd565b61198d576040517f08c379a0000000000000000000000000000000000000000000000000000000008152600401611984906143dc565b60405180910390fd5b50565b600033905090565b816004600083815260200190815260200160002060006101000a81548173ffffffffffffffffffffffffffffffffffffffff021916908373ffffffffffffffffffffffffffffffffffffffff160217905550808273ffffffffffffffffffffffffffffffffffffffff16611a0b83610b6a565b73ffffffffffffffffffffffffffffffffffffffff167f8c5be1e5ebec7d5bd14f71427d1e84f3dd0314c0f7b2291e5b200ac8c7c3b92560405160405180910390a45050565b60007f000000000000000000000000000000000000000000000000000000000000000073ffffffffffffffffffffffffffffffffffffffff163073ffffffffffffffffffffffffffffffffffffffff16148015611acd57507f000000000000000000000000000000000000000000000000000000000000000046145b15611afa577f00000000000000000000000000000000000000000000000000000000000000009050611b68565b611b657f00000000000000000000000000000000000000000000000000000000000000007f00000000000000000000000000000000000000000000000000000000000000007f00000000000000000000000000000000000000000000000000000000000000006126a2565b90505b90565b6000438210611baf576040517f08c379a0000000000000000000000000000000000000000000000000000000008152600401611ba690614b1c565b60405180910390fd5b6000611bba8361181d565b90506000846000018054905090506000808290506005831115611c3d576000611be2846126dc565b84611bed9190614978565b9050611bfc88600001826127d5565b60000160009054906101000a900463ffffffff1663ffffffff168563ffffffff161015611c2b57809150611c3b565b600181611c389190614944565b92505b505b6000611c4e886000018685856127ea565b905060008114611ca257611c7188600001600183611c6c9190614978565b6127d5565b60000160049054906101000a90047bffffffffffffffffffffffffffffffffffffffffffffffffffffffff16611ca5565b60005b7bffffffffffffffffffffffffffffffffffffffffffffffffffffffff169550505050505092915050565b611cd9826123fd565b611d18576040517f08c379a0000000000000000000000000000000000000000000000000000000008152600401611d0f90614bae565b60405180910390fd5b80600660008481526020019081526020016000209081611d389190614d7a565b505050565b6000611d4883610ae7565b905081600860008573ffffffffffffffffffffffffffffffffffffffff1673ffffffffffffffffffffffffffffffffffffffff16815260200190815260200160002060006101000a81548173ffffffffffffffffffffffffffffffffffffffff021916908373ffffffffffffffffffffffffffffffffffffffff1602179055508173ffffffffffffffffffffffffffffffffffffffff168173ffffffffffffffffffffffffffffffffffffffff168473ffffffffffffffffffffffffffffffffffffffff167f3134e8a2e6d97e929a7e54011ea5485d7d196dd5f0ba4d4ef95803e8e3fc257f60405160405180910390a4611e4c8183611e478661285d565b61286f565b505050565b60006002600083815260200190815260200160002060009054906101000a900473ffffffffffffffffffffffffffffffffffffffff169050919050565b6000611f537e5165dbde6c98ff3dd217e399994c50c9b2dcb0e924050ef97159c4f0f162a6838060000190611ec3919061448c565b604051611ed1929190614577565b6040518091039020848060200190611ee991906144ef565b604051611ef7929190614577565b6040518091039020858060400190611f0f91906144ef565b604051611f1d929190614577565b6040518091039020604051602001611f389493929190614e4c565b60405160208183030381529060405280519060200120612248565b9050919050565b6000806000611f698585612a7c565b91509150611f7681612acd565b819250505092915050565b6000808260000180549050905060008114611fe057611faf83600001600183611faa9190614978565b6127d5565b60000160049054906101000a90047bffffffffffffffffffffffffffffffffffffffffffffffffffffffff16611fe3565b60005b915050919050565b8173ffffffffffffffffffffffffffffffffffffffff168373ffffffffffffffffffffffffffffffffffffffff1603612059576040517f08c379a000000000000000000000000000000000000000000000000000000000815260040161205090614edd565b60405180910390fd5b80600560008573ffffffffffffffffffffffffffffffffffffffff1673ffffffffffffffffffffffffffffffffffffffff16815260200190815260200160002060008473ffffffffffffffffffffffffffffffffffffffff1673ffffffffffffffffffffffffffffffffffffffff16815260200190815260200160002060006101000a81548160ff0219169083151502179055508173ffffffffffffffffffffffffffffffffffffffff168373ffffffffffffffffffffffffffffffffffffffff167f17307eab39ab6107e8899845ad3d59bd9653f200f220920489ca2b5937696c318360405161214a91906139e5565b60405180910390a3505050565b60008061216383610b6a565b90508073ffffffffffffffffffffffffffffffffffffffff168473ffffffffffffffffffffffffffffffffffffffff1614806121a557506121a481856114ad565b5b806121e357508373ffffffffffffffffffffffffffffffffffffffff166121cb84610773565b73ffffffffffffffffffffffffffffffffffffffff16145b91505092915050565b6121f7848484612c33565b61220384848484612f2c565b612242576040517f08c379a000000000000000000000000000000000000000000000000000000000815260040161223990614f6f565b60405180910390fd5b50505050565b600061225b612255611a51565b836130b3565b9050919050565b6000806000612273878787876130e6565b9150915061228081612acd565b8192505050949350505050565b600080600b60008473ffffffffffffffffffffffffffffffffffffffff1673ffffffffffffffffffffffffffffffffffffffff16815260200190815260200160002090506122da81611557565b91506122e581611541565b50919050565b60606122f682611945565b600060066000848152602001908152602001600020805461231690614125565b80601f016020809104026020016040519081016040528092919081815260200182805461234290614125565b801561238f5780601f106123645761010080835404028352916020019161238f565b820191906000526020600020905b81548152906001019060200180831161237257829003601f168201915b5050505050905060006123a06131c8565b905060008151036123b55781925050506123f8565b6000825111156123ea5780826040516020016123d2929190614fcb565b604051602081830303815290604052925050506123f8565b6123f3846131df565b925050505b919050565b60008073ffffffffffffffffffffffffffffffffffffffff1661241f83611e51565b73ffffffffffffffffffffffffffffffffffffffff1614159050919050565b600181111561255e57600073ffffffffffffffffffffffffffffffffffffffff168473ffffffffffffffffffffffffffffffffffffffff16146124d25780600360008673ffffffffffffffffffffffffffffffffffffffff1673ffffffffffffffffffffffffffffffffffffffff16815260200190815260200160002060008282546124ca9190614978565b925050819055505b600073ffffffffffffffffffffffffffffffffffffffff168373ffffffffffffffffffffffffffffffffffffffff161461255d5780600360008573ffffffffffffffffffffffffffffffffffffffff1673ffffffffffffffffffffffffffffffffffffffff16815260200190815260200160002060008282546125559190614944565b925050819055505b5b50505050565b61257084848484611782565b50505050565b600073ffffffffffffffffffffffffffffffffffffffff168373ffffffffffffffffffffffffffffffffffffffff16036125c5576125c26117a582600a6117bb9092919063ffffffff16565b50505b600073ffffffffffffffffffffffffffffffffffffffff168273ffffffffffffffffffffffffffffffffffffffff16036126145761261161180782600a6117bb9092919063ffffffff16565b50505b61262f61262084610ae7565b61262984610ae7565b8361286f565b505050565b600080612655846000016126474361181d565b61265086611870565b613247565b817bffffffffffffffffffffffffffffffffffffffffffffffffffffffff169150807bffffffffffffffffffffffffffffffffffffffffffffffffffffffff169050915091509250929050565b600083838346306040516020016126bd959493929190614fef565b6040516020818303038152906040528051906020012090509392505050565b60008082036126ee57600090506127d0565b600060016126fb846135cd565b901c6001901b9050600181848161271557612714615042565b5b048201901c9050600181848161272e5761272d615042565b5b048201901c9050600181848161274757612746615042565b5b048201901c905060018184816127605761275f615042565b5b048201901c9050600181848161277957612778615042565b5b048201901c9050600181848161279257612791615042565b5b048201901c905060018184816127ab576127aa615042565b5b048201901c90506127cc818285816127c6576127c5615042565b5b046136ae565b9150505b919050565b60008260005281602060002001905092915050565b60005b8183101561285257600061280184846136c7565b90508463ffffffff1661281487836127d5565b60000160009054906101000a900463ffffffff1663ffffffff16111561283c5780925061284c565b6001816128499190614944565b93505b506127ed565b819050949350505050565b600061286882610efc565b9050919050565b8173ffffffffffffffffffffffffffffffffffffffff168373ffffffffffffffffffffffffffffffffffffffff16141580156128ab5750600081115b15612a7757600073ffffffffffffffffffffffffffffffffffffffff168373ffffffffffffffffffffffffffffffffffffffff16146129935760008061293c61180784600960008973ffffffffffffffffffffffffffffffffffffffff1673ffffffffffffffffffffffffffffffffffffffff1681526020019081526020016000206117bb9092919063ffffffff16565b915091508473ffffffffffffffffffffffffffffffffffffffff167fdec2bacdd2f05b59de34da9b523dff8be42e5e38e818c82fdb0bae774387a7248383604051612988929190615071565b60405180910390a250505b600073ffffffffffffffffffffffffffffffffffffffff168273ffffffffffffffffffffffffffffffffffffffff1614612a7657600080612a1f6117a584600960008873ffffffffffffffffffffffffffffffffffffffff1673ffffffffffffffffffffffffffffffffffffffff1681526020019081526020016000206117bb9092919063ffffffff16565b915091508373ffffffffffffffffffffffffffffffffffffffff167fdec2bacdd2f05b59de34da9b523dff8be42e5e38e818c82fdb0bae774387a7248383604051612a6b929190615071565b60405180910390a250505b5b505050565b6000806041835103612abd5760008060006020860151925060408601519150606086015160001a9050612ab1878285856130e6565b94509450505050612ac6565b60006002915091505b9250929050565b60006004811115612ae157612ae061444e565b5b816004811115612af457612af361444e565b5b0315612c305760016004811115612b0e57612b0d61444e565b5b816004811115612b2157612b2061444e565b5b03612b61576040517f08c379a0000000000000000000000000000000000000000000000000000000008152600401612b58906150e6565b60405180910390fd5b60026004811115612b7557612b7461444e565b5b816004811115612b8857612b8761444e565b5b03612bc8576040517f08c379a0000000000000000000000000000000000000000000000000000000008152600401612bbf90615152565b60405180910390fd5b60036004811115612bdc57612bdb61444e565b5b816004811115612bef57612bee61444e565b5b03612c2f576040517f08c379a0000000000000000000000000000000000000000000000000000000008152600401612c26906151e4565b60405180910390fd5b5b50565b8273ffffffffffffffffffffffffffffffffffffffff16612c5382610b6a565b73ffffffffffffffffffffffffffffffffffffffff1614612ca9576040517f08c379a0000000000000000000000000000000000000000000000000000000008152600401612ca090615276565b60405180910390fd5b600073ffffffffffffffffffffffffffffffffffffffff168273ffffffffffffffffffffffffffffffffffffffff1603612d18576040517f08c379a0000000000000000000000000000000000000000000000000000000008152600401612d0f90615308565b60405180910390fd5b612d25838383600161243e565b8273ffffffffffffffffffffffffffffffffffffffff16612d4582610b6a565b73ffffffffffffffffffffffffffffffffffffffff1614612d9b576040517f08c379a0000000000000000000000000000000000000000000000000000000008152600401612d9290615276565b60405180910390fd5b6004600082815260200190815260200160002060006101000a81549073ffffffffffffffffffffffffffffffffffffffff02191690556001600360008573ffffffffffffffffffffffffffffffffffffffff1673ffffffffffffffffffffffffffffffffffffffff168152602001908152602001600020600082825403925050819055506001600360008473ffffffffffffffffffffffffffffffffffffffff1673ffffffffffffffffffffffffffffffffffffffff16815260200190815260200160002060008282540192505081905550816002600083815260200190815260200160002060006101000a81548173ffffffffffffffffffffffffffffffffffffffff021916908373ffffffffffffffffffffffffffffffffffffffff160217905550808273ffffffffffffffffffffffffffffffffffffffff168473ffffffffffffffffffffffffffffffffffffffff167fddf252ad1be2c89b69c2b068fc378daa952ba7f163c4a11628f55a4df523b3ef60405160405180910390a4612f278383836001612564565b505050565b6000612f4d8473ffffffffffffffffffffffffffffffffffffffff166136ed565b156130a6578373ffffffffffffffffffffffffffffffffffffffff1663150b7a02612f76611990565b8786866040518563ffffffff1660e01b8152600401612f989493929190615328565b6020604051808303816000875af1925050508015612fd457506040513d601f19601f82011682018060405250810190612fd19190615389565b60015b613056573d8060008114613004576040519150601f19603f3d011682016040523d82523d6000602084013e613009565b606091505b50600081510361304e576040517f08c379a000000000000000000000000000000000000000000000000000000000815260040161304590614f6f565b60405180910390fd5b805181602001fd5b63150b7a0260e01b7bffffffffffffffffffffffffffffffffffffffffffffffffffffffff1916817bffffffffffffffffffffffffffffffffffffffffffffffffffffffff1916149150506130ab565b600190505b949350505050565b600082826040516020016130c8929190615423565b60405160208183030381529060405280519060200120905092915050565b6000807f7fffffffffffffffffffffffffffffff5d576e7357a4501ddfe92f46681b20a08360001c11156131215760006003915091506131bf565b6000600187878787604051600081526020016040526040516131469493929190615469565b6020604051602081039080840390855afa158015613168573d6000803e3d6000fd5b505050602060405103519050600073ffffffffffffffffffffffffffffffffffffffff168173ffffffffffffffffffffffffffffffffffffffff16036131b6576000600192509250506131bf565b80600092509250505b94509492505050565b606060405180602001604052806000815250905090565b60606131ea82611945565b60006131f46131c8565b90506000815111613214576040518060200160405280600081525061323f565b8061321e84613710565b60405160200161322f929190614fcb565b6040516020818303038152906040525b915050919050565b60008060008580549050905060008111156134dd5760006132748760018461326f9190614978565b6127d5565b6040518060400160405290816000820160009054906101000a900463ffffffff1663ffffffff1663ffffffff1681526020016000820160049054906101000a90047bffffffffffffffffffffffffffffffffffffffffffffffffffffffff167bffffffffffffffffffffffffffffffffffffffffffffffffffffffff167bffffffffffffffffffffffffffffffffffffffffffffffffffffffff168152505090508563ffffffff16816000015163ffffffff161115613368576040517f08c379a000000000000000000000000000000000000000000000000000000000815260040161335f906154fa565b60405180910390fd5b8563ffffffff16816000015163ffffffff16036133ec5784613396886001856133919190614978565b6127d5565b60000160046101000a8154817bffffffffffffffffffffffffffffffffffffffffffffffffffffffff02191690837bffffffffffffffffffffffffffffffffffffffffffffffffffffffff1602179055506134cc565b8660405180604001604052808863ffffffff168152602001877bffffffffffffffffffffffffffffffffffffffffffffffffffffffff168152509080600181540180825580915050600190039060005260206000200160009091909190915060008201518160000160006101000a81548163ffffffff021916908363ffffffff16021790555060208201518160000160046101000a8154817bffffffffffffffffffffffffffffffffffffffffffffffffffffffff02191690837bffffffffffffffffffffffffffffffffffffffffffffffffffffffff16021790555050505b8060200151859350935050506135c5565b8560405180604001604052808763ffffffff168152602001867bffffffffffffffffffffffffffffffffffffffffffffffffffffffff168152509080600181540180825580915050600190039060005260206000200160009091909190915060008201518160000160006101000a81548163ffffffff021916908363ffffffff16021790555060208201518160000160046101000a8154817bffffffffffffffffffffffffffffffffffffffffffffffffffffffff02191690837bffffffffffffffffffffffffffffffffffffffffffffffffffffffff160217905550505060008492509250505b935093915050565b600080600090506000608084901c11156135ef57608083901c92506080810190505b6000604084901c111561360a57604083901c92506040810190505b6000602084901c111561362557602083901c92506020810190505b6000601084901c111561364057601083901c92506010810190505b6000600884901c111561365b57600883901c92506008810190505b6000600484901c111561367657600483901c92506004810190505b6000600284901c111561369157600283901c92506002810190505b6000600184901c11156136a5576001810190505b80915050919050565b60008183106136bd57816136bf565b825b905092915050565b600060028284186136d8919061551a565b8284166136e59190614944565b905092915050565b6000808273ffffffffffffffffffffffffffffffffffffffff163b119050919050565b60606000600161371f846137de565b01905060008167ffffffffffffffff81111561373e5761373d613c6e565b5b6040519080825280601f01601f1916602001820160405280156137705781602001600182028036833780820191505090505b509050600082602001820190505b6001156137d3578080600190039150507f3031323334353637383961626364656600000000000000000000000000000000600a86061a8153600a85816137c7576137c6615042565b5b0494506000850361377e575b819350505050919050565b600080600090507a184f03e93ff9f4daa797ed6e38ed64bf6a1f010000000000000000831061383c577a184f03e93ff9f4daa797ed6e38ed64bf6a1f010000000000000000838161383257613831615042565b5b0492506040810190505b6d04ee2d6d415b85acef81000000008310613879576d04ee2d6d415b85acef8100000000838161386f5761386e615042565b5b0492506020810190505b662386f26fc1000083106138a857662386f26fc10000838161389e5761389d615042565b5b0492506010810190505b6305f5e10083106138d1576305f5e10083816138c7576138c6615042565b5b0492506008810190505b61271083106138f65761271083816138ec576138eb615042565b5b0492506004810190505b60648310613919576064838161390f5761390e615042565b5b0492506002810190505b600a8310613928576001810190505b80915050919050565b6000604051905090565b600080fd5b600080fd5b60007fffffffff0000000000000000000000000000000000000000000000000000000082169050919050565b61397a81613945565b811461398557600080fd5b50565b60008135905061399781613971565b92915050565b6000602082840312156139b3576139b261393b565b5b60006139c184828501613988565b91505092915050565b60008115159050919050565b6139df816139ca565b82525050565b60006020820190506139fa60008301846139d6565b92915050565b600081519050919050565b600082825260208201905092915050565b60005b83811015613a3a578082015181840152602081019050613a1f565b60008484015250505050565b6000601f19601f8301169050919050565b6000613a6282613a00565b613a6c8185613a0b565b9350613a7c818560208601613a1c565b613a8581613a46565b840191505092915050565b60006020820190508181036000830152613aaa8184613a57565b905092915050565b6000819050919050565b613ac581613ab2565b8114613ad057600080fd5b50565b600081359050613ae281613abc565b92915050565b600060208284031215613afe57613afd61393b565b5b6000613b0c84828501613ad3565b91505092915050565b600073ffffffffffffffffffffffffffffffffffffffff82169050919050565b6000613b4082613b15565b9050919050565b613b5081613b35565b82525050565b6000602082019050613b6b6000830184613b47565b92915050565b613b7a81613b35565b8114613b8557600080fd5b50565b600081359050613b9781613b71565b92915050565b60008060408385031215613bb457613bb361393b565b5b6000613bc285828601613b88565b9250506020613bd385828601613ad3565b9150509250929050565b600080600060608486031215613bf657613bf561393b565b5b6000613c0486828701613b88565b9350506020613c1586828701613b88565b9250506040613c2686828701613ad3565b9150509250925092565b6000819050919050565b613c4381613c30565b82525050565b6000602082019050613c5e6000830184613c3a565b92915050565b600080fd5b600080fd5b7f4e487b7100000000000000000000000000000000000000000000000000000000600052604160045260246000fd5b613ca682613a46565b810181811067ffffffffffffffff82111715613cc557613cc4613c6e565b5b80604052505050565b6000613cd8613931565b9050613ce48282613c9d565b919050565b600067ffffffffffffffff821115613d0457613d03613c6e565b5b613d0d82613a46565b9050602081019050919050565b82818337600083830152505050565b6000613d3c613d3784613ce9565b613cce565b905082815260208101848484011115613d5857613d57613c69565b5b613d63848285613d1a565b509392505050565b600082601f830112613d8057613d7f613c64565b5b8135613d90848260208601613d29565b91505092915050565b60008060408385031215613db057613daf61393b565b5b600083013567ffffffffffffffff811115613dce57613dcd613940565b5b613dda85828601613d6b565b925050602083013567ffffffffffffffff811115613dfb57613dfa613940565b5b613e0785828601613d6b565b9150509250929050565b613e1a81613ab2565b82525050565b6000602082019050613e356000830184613e11565b92915050565b600060208284031215613e5157613e5061393b565b5b6000613e5f84828501613b88565b91505092915050565b600080fd5b600060808284031215613e8357613e82613e68565b5b81905092915050565b600060208284031215613ea257613ea161393b565b5b600082013567ffffffffffffffff811115613ec057613ebf613940565b5b613ecc84828501613e6d565b91505092915050565b613ede816139ca565b8114613ee957600080fd5b50565b600081359050613efb81613ed5565b92915050565b60008060408385031215613f1857613f1761393b565b5b6000613f2685828601613b88565b9250506020613f3785828601613eec565b9150509250929050565b60008060008060808587031215613f5b57613f5a61393b565b5b6000613f6987828801613b88565b9450506020613f7a87828801613b88565b9350506040613f8b87828801613ad3565b925050606085013567ffffffffffffffff811115613fac57613fab613940565b5b613fb887828801613d6b565b91505092959194509250565b600060ff82169050919050565b613fda81613fc4565b8114613fe557600080fd5b50565b600081359050613ff781613fd1565b92915050565b61400681613c30565b811461401157600080fd5b50565b60008135905061402381613ffd565b92915050565b60008060008060008060c087890312156140465761404561393b565b5b600061405489828a01613b88565b965050602061406589828a01613ad3565b955050604061407689828a01613ad3565b945050606061408789828a01613fe8565b935050608061409889828a01614014565b92505060a06140a989828a01614014565b9150509295509295509295565b600080604083850312156140cd576140cc61393b565b5b60006140db85828601613b88565b92505060206140ec85828601613b88565b9150509250929050565b7f4e487b7100000000000000000000000000000000000000000000000000000000600052602260045260246000fd5b6000600282049050600182168061413d57607f821691505b6020821081036141505761414f6140f6565b5b50919050565b7f4552433732313a20617070726f76616c20746f2063757272656e74206f776e6560008201527f7200000000000000000000000000000000000000000000000000000000000000602082015250565b60006141b2602183613a0b565b91506141bd82614156565b604082019050919050565b600060208201905081810360008301526141e1816141a5565b9050919050565b7f4552433732313a20617070726f76652063616c6c6572206973206e6f7420746f60008201527f6b656e206f776e6572206f7220617070726f76656420666f7220616c6c000000602082015250565b6000614244603d83613a0b565b915061424f826141e8565b604082019050919050565b6000602082019050818103600083015261427381614237565b9050919050565b600060408201905061428f6000830185613e11565b61429c6020830184613b47565b9392505050565b600081519050919050565b600082825260208201905092915050565b60006142ca826142a3565b6142d481856142ae565b93506142e4818560208601613a1c565b6142ed81613a46565b840191505092915050565b600060608201905061430d6000830186613b47565b818103602083015261431f81856142bf565b9050818103604083015261433381846142bf565b9050949350505050565b600081905092915050565b6000614353826142a3565b61435d818561433d565b935061436d818560208601613a1c565b80840191505092915050565b60006143858284614348565b915081905092915050565b7f4552433732313a20696e76616c696420746f6b656e2049440000000000000000600082015250565b60006143c6601883613a0b565b91506143d182614390565b602082019050919050565b600060208201905081810360008301526143f5816143b9565b9050919050565b6004811061440957600080fd5b50565b60008151905061441b816143fc565b92915050565b6000602082840312156144375761443661393b565b5b60006144458482850161440c565b91505092915050565b7f4e487b7100000000000000000000000000000000000000000000000000000000600052602160045260246000fd5b600080fd5b600080fd5b600080fd5b600080833560016020038436030381126144a9576144a861447d565b5b80840192508235915067ffffffffffffffff8211156144cb576144ca614482565b5b6020830192506001820236038313156144e7576144e6614487565b5b509250929050565b6000808335600160200384360303811261450c5761450b61447d565b5b80840192508235915067ffffffffffffffff82111561452e5761452d614482565b5b60208301925060018202360383131561454a57614549614487565b5b509250929050565b600061455e838561433d565b935061456b838584613d1a565b82840190509392505050565b6000614584828486614552565b91508190509392505050565b7f4552433732313a2061646472657373207a65726f206973206e6f74206120766160008201527f6c6964206f776e65720000000000000000000000000000000000000000000000602082015250565b60006145ec602983613a0b565b91506145f782614590565b604082019050919050565b6000602082019050818103600083015261461b816145df565b9050919050565b7f566f7465733a20626c6f636b206e6f7420796574206d696e6564000000000000600082015250565b6000614658601a83613a0b565b915061466382614622565b602082019050919050565b600060208201905081810360008301526146878161464b565b9050919050565b7f4552433732313a2063616c6c6572206973206e6f7420746f6b656e206f776e6560008201527f72206f7220617070726f76656400000000000000000000000000000000000000602082015250565b60006146ea602d83613a0b565b91506146f58261468e565b604082019050919050565b60006020820190508181036000830152614719816146dd565b9050919050565b7f566f7465733a207369676e617475726520657870697265640000000000000000600082015250565b6000614756601883613a0b565b915061476182614720565b602082019050919050565b6000602082019050818103600083015261478581614749565b9050919050565b60006080820190506147a16000830187613c3a565b6147ae6020830186613b47565b6147bb6040830185613e11565b6147c86060830184613e11565b95945050505050565b7f566f7465733a20696e76616c6964206e6f6e6365000000000000000000000000600082015250565b6000614807601483613a0b565b9150614812826147d1565b602082019050919050565b60006020820190508181036000830152614836816147fa565b9050919050565b7f4552433732313a206d696e7420746f20746865207a65726f2061646472657373600082015250565b6000614873602083613a0b565b915061487e8261483d565b602082019050919050565b600060208201905081810360008301526148a281614866565b9050919050565b7f4552433732313a20746f6b656e20616c7265616479206d696e74656400000000600082015250565b60006148df601c83613a0b565b91506148ea826148a9565b602082019050919050565b6000602082019050818103600083015261490e816148d2565b9050919050565b7f4e487b7100000000000000000000000000000000000000000000000000000000600052601160045260246000fd5b600061494f82613ab2565b915061495a83613ab2565b925082820190508082111561497257614971614915565b5b92915050565b600061498382613ab2565b915061498e83613ab2565b92508282039050818111156149a6576149a5614915565b5b92915050565b7f53616665436173743a2076616c756520646f65736e27742066697420696e203360008201527f3220626974730000000000000000000000000000000000000000000000000000602082015250565b6000614a08602683613a0b565b9150614a13826149ac565b604082019050919050565b60006020820190508181036000830152614a37816149fb565b9050919050565b7f53616665436173743a2076616c756520646f65736e27742066697420696e203260008201527f3234206269747300000000000000000000000000000000000000000000000000602082015250565b6000614a9a602783613a0b565b9150614aa582614a3e565b604082019050919050565b60006020820190508181036000830152614ac981614a8d565b9050919050565b7f436865636b706f696e74733a20626c6f636b206e6f7420796574206d696e6564600082015250565b6000614b06602083613a0b565b9150614b1182614ad0565b602082019050919050565b60006020820190508181036000830152614b3581614af9565b9050919050565b7f45524337323155524953746f726167653a2055524920736574206f66206e6f6e60008201527f6578697374656e7420746f6b656e000000000000000000000000000000000000602082015250565b6000614b98602e83613a0b565b9150614ba382614b3c565b604082019050919050565b60006020820190508181036000830152614bc781614b8b565b9050919050565b60008190508160005260206000209050919050565b60006020601f8301049050919050565b600082821b905092915050565b600060088302614c307fffffffffffffffffffffffffffffffffffffffffffffffffffffffffffffffff82614bf3565b614c3a8683614bf3565b95508019841693508086168417925050509392505050565b6000819050919050565b6000614c77614c72614c6d84613ab2565b614c52565b613ab2565b9050919050565b6000819050919050565b614c9183614c5c565b614ca5614c9d82614c7e565b848454614c00565b825550505050565b600090565b614cba614cad565b614cc5818484614c88565b505050565b5b81811015614ce957614cde600082614cb2565b600181019050614ccb565b5050565b601f821115614d2e57614cff81614bce565b614d0884614be3565b81016020851015614d17578190505b614d2b614d2385614be3565b830182614cca565b50505b505050565b600082821c905092915050565b6000614d5160001984600802614d33565b1980831691505092915050565b6000614d6a8383614d40565b9150826002028217905092915050565b614d8382613a00565b67ffffffffffffffff811115614d9c57614d9b613c6e565b5b614da68254614125565b614db1828285614ced565b600060209050601f831160018114614de45760008415614dd2578287015190505b614ddc8582614d5e565b865550614e44565b601f198416614df286614bce565b60005b82811015614e1a57848901518255600182019150602085019450602081019050614df5565b86831015614e375784890151614e33601f891682614d40565b8355505b6001600288020188555050505b505050505050565b6000608082019050614e616000830187613c3a565b614e6e6020830186613c3a565b614e7b6040830185613c3a565b614e886060830184613c3a565b95945050505050565b7f4552433732313a20617070726f766520746f2063616c6c657200000000000000600082015250565b6000614ec7601983613a0b565b9150614ed282614e91565b602082019050919050565b60006020820190508181036000830152614ef681614eba565b9050919050565b7f4552433732313a207472616e7366657220746f206e6f6e20455243373231526560008201527f63656976657220696d706c656d656e7465720000000000000000000000000000602082015250565b6000614f59603283613a0b565b9150614f6482614efd565b604082019050919050565b60006020820190508181036000830152614f8881614f4c565b9050919050565b600081905092915050565b6000614fa582613a00565b614faf8185614f8f565b9350614fbf818560208601613a1c565b80840191505092915050565b6000614fd78285614f9a565b9150614fe38284614f9a565b91508190509392505050565b600060a0820190506150046000830188613c3a565b6150116020830187613c3a565b61501e6040830186613c3a565b61502b6060830185613e11565b6150386080830184613b47565b9695505050505050565b7f4e487b7100000000000000000000000000000000000000000000000000000000600052601260045260246000fd5b60006040820190506150866000830185613e11565b6150936020830184613e11565b9392505050565b7f45434453413a20696e76616c6964207369676e61747572650000000000000000600082015250565b60006150d0601883613a0b565b91506150db8261509a565b602082019050919050565b600060208201905081810360008301526150ff816150c3565b9050919050565b7f45434453413a20696e76616c6964207369676e6174757265206c656e67746800600082015250565b600061513c601f83613a0b565b915061514782615106565b602082019050919050565b6000602082019050818103600083015261516b8161512f565b9050919050565b7f45434453413a20696e76616c6964207369676e6174757265202773272076616c60008201527f7565000000000000000000000000000000000000000000000000000000000000602082015250565b60006151ce602283613a0b565b91506151d982615172565b604082019050919050565b600060208201905081810360008301526151fd816151c1565b9050919050565b7f4552433732313a207472616e736665722066726f6d20696e636f72726563742060008201527f6f776e6572000000000000000000000000000000000000000000000000000000602082015250565b6000615260602583613a0b565b915061526b82615204565b604082019050919050565b6000602082019050818103600083015261528f81615253565b9050919050565b7f4552433732313a207472616e7366657220746f20746865207a65726f2061646460008201527f7265737300000000000000000000000000000000000000000000000000000000602082015250565b60006152f2602483613a0b565b91506152fd82615296565b604082019050919050565b60006020820190508181036000830152615321816152e5565b9050919050565b600060808201905061533d6000830187613b47565b61534a6020830186613b47565b6153576040830185613e11565b818103606083015261536981846142bf565b905095945050505050565b60008151905061538381613971565b92915050565b60006020828403121561539f5761539e61393b565b5b60006153ad84828501615374565b91505092915050565b7f1901000000000000000000000000000000000000000000000000000000000000600082015250565b60006153ec600283614f8f565b91506153f7826153b6565b600282019050919050565b6000819050919050565b61541d61541882613c30565b615402565b82525050565b600061542e826153df565b915061543a828561540c565b60208201915061544a828461540c565b6020820191508190509392505050565b61546381613fc4565b82525050565b600060808201905061547e6000830187613c3a565b61548b602083018661545a565b6154986040830185613c3a565b6154a56060830184613c3a565b95945050505050565b7f436865636b706f696e743a20696e76616c6964206b6579000000000000000000600082015250565b60006154e4601783613a0b565b91506154ef826154ae565b602082019050919050565b60006020820190508181036000830152615513816154d7565b9050919050565b600061552582613ab2565b915061553083613ab2565b9250826155405761553f615042565b5b82820490509291505056fea264697066735822122056d6dab9f094518bb49a0cd2d5523a343762827315fa6f560559a4316ba02cfb64736f6c63430008110033",
  "devdoc": {
    "kind": "dev",
    "methods": {
      "DOMAIN_SEPARATOR()": {
        "details": "Returns the contract's {EIP712} domain separator."
      },
      "approve(address,uint256)": {
        "details": "See {IERC721-approve}."
      },
      "balanceOf(address)": {
        "details": "See {IERC721-balanceOf}."
      },
      "delegate(address)": {
        "details": "Delegates votes from the sender to `delegatee`."
      },
      "delegateBySig(address,uint256,uint256,uint8,bytes32,bytes32)": {
        "details": "Delegates votes from signer to `delegatee`."
      },
      "delegates(address)": {
        "details": "Returns the delegate that `account` has chosen."
      },
      "getApproved(uint256)": {
        "details": "See {IERC721-getApproved}."
      },
      "getPastTotalSupply(uint256)": {
        "details": "Returns the total supply of votes available at the end of a past block (`blockNumber`). NOTE: This value is the sum of all available votes, which is not necessarily the sum of all delegated votes. Votes that have not been delegated are still part of total supply, even though they would not participate in a vote. Requirements: - `blockNumber` must have been already mined"
      },
      "getPastVotes(address,uint256)": {
        "details": "Returns the amount of votes that `account` had at the end of a past block (`blockNumber`). Requirements: - `blockNumber` must have been already mined"
      },
      "getVotes(address)": {
        "details": "Returns the current amount of votes that `account` has."
      },
      "isApprovedForAll(address,address)": {
        "details": "See {IERC721-isApprovedForAll}."
      },
      "name()": {
        "details": "See {IERC721Metadata-name}."
      },
      "nonces(address)": {
        "details": "Returns an address nonce."
      },
      "ownerOf(uint256)": {
        "details": "See {IERC721-ownerOf}."
      },
      "safeTransferFrom(address,address,uint256)": {
        "details": "See {IERC721-safeTransferFrom}."
      },
      "safeTransferFrom(address,address,uint256,bytes)": {
        "details": "See {IERC721-safeTransferFrom}."
      },
      "setApprovalForAll(address,bool)": {
        "details": "See {IERC721-setApprovalForAll}."
      },
      "supportsInterface(bytes4)": {
        "details": "See {IERC165-supportsInterface}."
      },
      "symbol()": {
        "details": "See {IERC721Metadata-symbol}."
      },
      "verifySignature((string,bytes,bytes,bytes))": {
        "details": "Will revert if the signature is invalid. Does not verify that the signer is authorized to mint NFTs.",
        "params": {
          "voucher": "An NFTVoucher describing an unminted NFT."
        }
      }
    },
    "version": 1
  },
  "userdoc": {
    "kind": "user",
    "methods": {
      "createSimpleNFT()": {
        "notice": "Redeems an NFTVoucher for an actual NFT, creating it in the process."
      },
      "redeem((string,bytes,bytes,bytes))": {
        "notice": "Redeems an NFTVoucher for an actual NFT, creating it in the process."
      },
      "verifySignature((string,bytes,bytes,bytes))": {
        "notice": "Verifies the signature for a given NFTVoucher, returning the address of the signer."
      }
    },
    "version": 1
  },
  "storageLayout": {
    "storage": [
      {
        "astId": 611,
        "contract": "contracts/core/UserIdentityNFT.sol:UserIdentityNFT",
        "label": "_name",
        "offset": 0,
        "slot": "0",
        "type": "t_string_storage"
      },
      {
        "astId": 613,
        "contract": "contracts/core/UserIdentityNFT.sol:UserIdentityNFT",
        "label": "_symbol",
        "offset": 0,
        "slot": "1",
        "type": "t_string_storage"
      },
      {
        "astId": 617,
        "contract": "contracts/core/UserIdentityNFT.sol:UserIdentityNFT",
        "label": "_owners",
        "offset": 0,
        "slot": "2",
        "type": "t_mapping(t_uint256,t_address)"
      },
      {
        "astId": 621,
        "contract": "contracts/core/UserIdentityNFT.sol:UserIdentityNFT",
        "label": "_balances",
        "offset": 0,
        "slot": "3",
        "type": "t_mapping(t_address,t_uint256)"
      },
      {
        "astId": 625,
        "contract": "contracts/core/UserIdentityNFT.sol:UserIdentityNFT",
        "label": "_tokenApprovals",
        "offset": 0,
        "slot": "4",
        "type": "t_mapping(t_uint256,t_address)"
      },
      {
        "astId": 631,
        "contract": "contracts/core/UserIdentityNFT.sol:UserIdentityNFT",
        "label": "_operatorApprovals",
        "offset": 0,
        "slot": "5",
        "type": "t_mapping(t_address,t_mapping(t_address,t_bool))"
      },
      {
        "astId": 1677,
        "contract": "contracts/core/UserIdentityNFT.sol:UserIdentityNFT",
        "label": "_tokenURIs",
        "offset": 0,
        "slot": "6",
        "type": "t_mapping(t_uint256,t_string_storage)"
      },
      {
        "astId": 542,
        "contract": "contracts/core/UserIdentityNFT.sol:UserIdentityNFT",
        "label": "_status",
        "offset": 0,
        "slot": "7",
        "type": "t_uint256"
      },
      {
        "astId": 108,
        "contract": "contracts/core/UserIdentityNFT.sol:UserIdentityNFT",
        "label": "_delegation",
        "offset": 0,
        "slot": "8",
        "type": "t_mapping(t_address,t_address)"
      },
      {
        "astId": 113,
        "contract": "contracts/core/UserIdentityNFT.sol:UserIdentityNFT",
        "label": "_delegateCheckpoints",
        "offset": 0,
        "slot": "9",
        "type": "t_mapping(t_address,t_struct(History)2209_storage)"
      },
      {
        "astId": 116,
        "contract": "contracts/core/UserIdentityNFT.sol:UserIdentityNFT",
        "label": "_totalCheckpoints",
        "offset": 0,
        "slot": "10",
        "type": "t_struct(History)2209_storage"
      },
      {
        "astId": 121,
        "contract": "contracts/core/UserIdentityNFT.sol:UserIdentityNFT",
        "label": "_nonces",
        "offset": 0,
        "slot": "11",
        "type": "t_mapping(t_address,t_struct(Counter)3598_storage)"
      },
      {
        "astId": 6823,
        "contract": "contracts/core/UserIdentityNFT.sol:UserIdentityNFT",
        "label": "idCount",
        "offset": 0,
        "slot": "12",
        "type": "t_struct(Counter)3598_storage"
      },
      {
        "astId": 6825,
        "contract": "contracts/core/UserIdentityNFT.sol:UserIdentityNFT",
        "label": "figureprintOracle",
        "offset": 0,
        "slot": "13",
        "type": "t_address"
      }
    ],
    "types": {
      "t_address": {
        "encoding": "inplace",
        "label": "address",
        "numberOfBytes": "20"
      },
      "t_array(t_struct(Checkpoint)2214_storage)dyn_storage": {
        "base": "t_struct(Checkpoint)2214_storage",
        "encoding": "dynamic_array",
        "label": "struct Checkpoints.Checkpoint[]",
        "numberOfBytes": "32"
      },
      "t_bool": {
        "encoding": "inplace",
        "label": "bool",
        "numberOfBytes": "1"
      },
      "t_mapping(t_address,t_address)": {
        "encoding": "mapping",
        "key": "t_address",
        "label": "mapping(address => address)",
        "numberOfBytes": "32",
        "value": "t_address"
      },
      "t_mapping(t_address,t_bool)": {
        "encoding": "mapping",
        "key": "t_address",
        "label": "mapping(address => bool)",
        "numberOfBytes": "32",
        "value": "t_bool"
      },
      "t_mapping(t_address,t_mapping(t_address,t_bool))": {
        "encoding": "mapping",
        "key": "t_address",
        "label": "mapping(address => mapping(address => bool))",
        "numberOfBytes": "32",
        "value": "t_mapping(t_address,t_bool)"
      },
      "t_mapping(t_address,t_struct(Counter)3598_storage)": {
        "encoding": "mapping",
        "key": "t_address",
        "label": "mapping(address => struct Counters.Counter)",
        "numberOfBytes": "32",
        "value": "t_struct(Counter)3598_storage"
      },
      "t_mapping(t_address,t_struct(History)2209_storage)": {
        "encoding": "mapping",
        "key": "t_address",
        "label": "mapping(address => struct Checkpoints.History)",
        "numberOfBytes": "32",
        "value": "t_struct(History)2209_storage"
      },
      "t_mapping(t_address,t_uint256)": {
        "encoding": "mapping",
        "key": "t_address",
        "label": "mapping(address => uint256)",
        "numberOfBytes": "32",
        "value": "t_uint256"
      },
      "t_mapping(t_uint256,t_address)": {
        "encoding": "mapping",
        "key": "t_uint256",
        "label": "mapping(uint256 => address)",
        "numberOfBytes": "32",
        "value": "t_address"
      },
      "t_mapping(t_uint256,t_string_storage)": {
        "encoding": "mapping",
        "key": "t_uint256",
        "label": "mapping(uint256 => string)",
        "numberOfBytes": "32",
        "value": "t_string_storage"
      },
      "t_string_storage": {
        "encoding": "bytes",
        "label": "string",
        "numberOfBytes": "32"
      },
      "t_struct(Checkpoint)2214_storage": {
        "encoding": "inplace",
        "label": "struct Checkpoints.Checkpoint",
        "members": [
          {
            "astId": 2211,
            "contract": "contracts/core/UserIdentityNFT.sol:UserIdentityNFT",
            "label": "_blockNumber",
            "offset": 0,
            "slot": "0",
            "type": "t_uint32"
          },
          {
            "astId": 2213,
            "contract": "contracts/core/UserIdentityNFT.sol:UserIdentityNFT",
            "label": "_value",
            "offset": 4,
            "slot": "0",
            "type": "t_uint224"
          }
        ],
        "numberOfBytes": "32"
      },
      "t_struct(Counter)3598_storage": {
        "encoding": "inplace",
        "label": "struct Counters.Counter",
        "members": [
          {
            "astId": 3597,
            "contract": "contracts/core/UserIdentityNFT.sol:UserIdentityNFT",
            "label": "_value",
            "offset": 0,
            "slot": "0",
            "type": "t_uint256"
          }
        ],
        "numberOfBytes": "32"
      },
      "t_struct(History)2209_storage": {
        "encoding": "inplace",
        "label": "struct Checkpoints.History",
        "members": [
          {
            "astId": 2208,
            "contract": "contracts/core/UserIdentityNFT.sol:UserIdentityNFT",
            "label": "_checkpoints",
            "offset": 0,
            "slot": "0",
            "type": "t_array(t_struct(Checkpoint)2214_storage)dyn_storage"
          }
        ],
        "numberOfBytes": "32"
      },
      "t_uint224": {
        "encoding": "inplace",
        "label": "uint224",
        "numberOfBytes": "28"
      },
      "t_uint256": {
        "encoding": "inplace",
        "label": "uint256",
        "numberOfBytes": "32"
      },
      "t_uint32": {
        "encoding": "inplace",
        "label": "uint32",
        "numberOfBytes": "4"
      }
    }
  }
}